:102EE5007F981235991239351238C41238647D0726
:102EF500E4FF123AF7E4F5277F807E25FDFC1226D4
:102F0500641230AE120000752801752901752AA7D3
:102F1500E4F52BF52C7B017A0179A77D01FC1235AF
:102F2500CA7BFF7A3A79177F0A122D097BFF7A3718
:0F2F350079FC7F03122D09123B3C12341880FBEC
:093AEE008B88898C88898F8889F6
:101821005200EB86860086860086860086860086C4
:0918310086008686004100E009F2
:03002B00023B3065
:063B300053BCEFD20F327E
:0219DC00157084
:1019DE00200F03021B85C20F9000DFE0B409004008
:1019EE0003021B679019F9F8282873021A40021A8D
:1019FE0014021A26021A52021A14021A26021A691E
:101A0E00021A14021A26AFBDEFFEADBE7C00E42D05
:101A1E00FFEC3E9000E1803CAFBDEFFEADBE7C0022
:101A2E00E42DFFEC3E9000E3F0A3EFF075660102AB
:101A3E001B6DAFBDEFFEADBE7C00E42DFFEC3E9006
:101A4E0000E58010AFBDEFFEADBE7C00E42DFFECD7
:101A5E003E9000E7F0A3EFF0021B6DAFBDEFFEADC1
:101A6E00BE7C00E42DFFEC3E9000E9F0A3EFF09079
:101A7E0000E9E0FEA3E07807CEC313CE13D8F9A891
:101A8E0070F6C394065013A870E675F003A424EB09
:101A9E00F582E43400F583E014F09000E0E014F0F9
:101AAE006003021B6D7409F0A870E4F6A870E6FFDF
:101ABE00C394064003021B6DEF75F003A424EBF5EF
:101ACE0082E43400F583E0C39480502AE6FF75F07B
:101ADE0003A424ECF582E43400F583E0D394804033
:101AEE0040EF75F003A424EDF582E43400F5837421
:101AFE0001F0F567802BA870E6FF75F003A424ECC7
:101B0E00F582E43400F583E0C394805014EF75F051
:101B1E0003A424EDF582E43400F5837402F07567B6
:101B2E0001A870E6FF75F003A424EBF582E43400FF
:101B3E00F583E0FEEF75F003A424ECF582E43400A7
:101B4E00F583EEF0E675F003A424EBF582E43400A1
:101B5E00F5837486F006021ABA9000DF74FFF090D7
:101B6E0000DFE0D39407400374FFF09000DFE00441
:071B7E00F0903AEE93F5BC74
:031B8500057022C6
:023A89001570B6
:093A8B00A870A667E4F567E6FFE8
:033A940005702298
:023A97001570A8
:093A9900A870A666E4F566E6FFDC
:033AA2000570228A
:103599008F9D75BC88439720D2AD90004574FFF08C
:1035A900A37419F0A374DCF0A374FFF0A3743AF0C8
:1035B900A37489F0A374FFF0A3743AF0A37497F08D
:0135C90022DF
:073B1B007B017A0079E12231
:10328800C3EF64809480403BD3EF648094855033CF
:10329800EFFD3395E0FC9000ED75F003ED1210B8EA
:1032A800EC75F003A42583F583E0FE9000ED75F03E
:1032B80003ED1210B8EC75F003A42583F583E4F050
:0532C800AF06227F03A8
:0132CD0022DE
:04373B001570157080
:10373F00123B00A870A60608A607A870E6FE08E6CA
:0F374F00FF4E600BEF24FFFFEE34FFFE123B092D
:05375E0005700570225A
:1038640053B1EF43B210123B4DE4F5D975DA49D2A6
:10387400DE90003F74FFF0A37437F0A3743BF02292
:082D86008E5B8F5C8C5D8D5E9D
:102D8E00123B00EF4E7066AF5EAE5D123B09C3E5BF
:102D9E005C940AE55B9400404BE47B18FAF9F890DA
:102DAE003B4212109C120FC2C006C007AE5BAF5C56
:102DBE00AB07AA06E4F9F8D007D006120FC2AB078C
:102DCE00AA06AFF9EFFEADE97C00E42DFFEC3ECF95
:102DDE002BCF3AAD07FCAF03AE02123A3BD2D8432B
:0F2DEE00DA018006123B4D53DAFE7F02227F038B
:012DFD0022B3
:0C002E00123B00EF4E7002FF227F012207
:1023DE00E4F58090016EE0FFB40800505F9023F2A8
:1023EE00F828287302240A02241002241602241C40
:1023FE0002242202242C022436022440C2A3C2A2AA
:10240E008016C2A3C2A2801AC2A3C2A2801EC2A3F9
:10241E00C2A28022C2A3D2A2C2A1C2A08020C2A305
:10242E00D2A2C2A1D2A08016C2A3D2A2D2A1C2A011
:10243E00800CC2A3D2A2D2A1D2A08002D2A3C3EF9B
:10244E0064809488502990016EE0FF3395E0FE740D
:10245E00652FF58274013EF583E0FF3395E0FE743F
:10246E00562FF58274343EF583E493F580801E90EA
:10247E00016EE0FFB408133395E0FE74652FF5820C
:10248E0074013EF583E0F5808003E4F580900164ED
:10249E00E0FF90016EE004FEF0D3EF6480F8EE648E
:1024AE0080984014E0D36480948850047408F0221D
:0924BE00900163E090016EF02230
:10393500E4F5937594FF5395F043960F90002A7420
:0B394500FFF0A37423F0A374DEF02257
:093AF700900163EFF0A3EDF02251
:10388400900165EFF0A3EDF0A3EBF0A3E526F0A320
:10389400E527F0A3E528F0A3E529F0A3E52AF02223
:063B360090016DEFF0228A
:10183A00016E0049017B94940094940094940041B1
:03184A00017A1E02
:021CB8001570A5
:101CBA0020B20690017BE014F020B30690017EE08A
:101CCA0014F0209706900181E014F090017AE01454
:101CDA00F06003021DD8741EF0A870E4F6A870E63E
:101CEA00FFC3648094834003021DD8EF3395E0FE5E
:101CFA0090017B75F003EF1210B8EE75F003A4257E
:101D0A0083F583E0C39480503990017C75F003EF2A
:101D1A001210B8EE75F003A42583F583E0D39480FE
:101D2A00405AE6FF3395E0FE90017D75F003EF120D
:101D3A0010B8EE75F003A42583F5837401F0F56EEF
:101D4A00803AA870E6FF3395E0FE90017C75F003B7
:101D5A00EF1210B8EE75F003A42583F583E0C3945F
:101D6A0080501990017D75F003EF1210B8EE75F0EE
:101D7A0003A42583F5837402F0756E01A870E6FF4B
:101D8A00FD3395E0FC90017B75F003ED1210B8EC81
:101D9A0075F003A42583F583E0FE90017C75F003BA
:101DAA00ED1210B8EC75F003A42583F583EEF0EF7D
:101DBA003395E0FE90017B75F003EF1210B8EE75D3
:0E1DCA00F003A42583F5837494F006021CE751
:031DD80005702271
:023AA50015709A
:093AA700A870A66EE4F56EE6FFBE
:033AB0000570227C
:1038C40090003074FFF0A3743AF0A374A5F0900054
:0D38D4002D74FFF0A3741CF0A374B8F02253
:10339900EF600764016003BF0233EFFD3395E0FC82
:1033A90090017D75F003ED1210B8EC75F003A425BA
:1033B90083F583E0FE90017D75F003ED1210B8EC02
:0F33C90075F003A42583F583E4F0AF06227F039C
:0133D80022D2
:10184D004100000A4100290A41006D0A040E000002
:10185D0000000114004600670000FFFF8FFFC10D5F
:10186D00C105C108C101C10E60240005FF003AFF8A
:10187D00003AFF003AFF003AFF003AFF003AFF003E
:10188D003AFF003AFF003AFF003AFF003AFF003AF4
:10189D006036002AFF003AFF003AFF3B4AFF003A4C
:1018AD00FF3B4AFF003AFF3B4AFF003AFF003AFF79
:1018BD00003AFF3B4AFF3B4AFF3B4AFF3B4AFF00D2
:0A18CD003AFF003AFF003AFF003A2C
:01003A0022A3
:033B4A007F0022D7
:10324100438E805389F07BE07A2879017800903BA6
:103251004212109C123312EFF404F58A7BE07A28B3
:1032610079017800903B4212109C123312C3E49F03
:10327100FFE49EFE74019DFDE49CFC78081210752C
:073281008F8CD28CD2A92230
:03000B0002315768
:04315700C0E0C0D044
:10315B00D5080A75084C300D020514D20DA2037266
:10316B00045036150AE50A7030850C0AD207300A6E
:10317B0017E50D6007150D438F01801D538FFEC2A0
:10318B00B5D51615C20A8011050BE50BD394064075
:09319B0008C203E5136002D2062C
:0531A400D0D0D0E032A4
:10310400300E47C20E903B4212109C78101210757C
:103114008E688F69900003E0FEA3E0FFE4FCFD7B72
:1031240019FAF9F8120F37C006C007AE68AF69ABD9
:1031340007AA06E4F9F8D007D0061233127803126E
:103144001075900065EEF0A3EFF0900065E0FEA32B
:02315400E0FF9A
:013156002256
:093B0000900067E0FEA3E0FF2243
:093B0900900067EEF0A3EFF0223A
:103A3B0090006BEEF0A3EFF0900069ECF0A3EDF0CB
:013A4B002258
:033B4D00C2B422DD
:03003B000227C4D5
:1027C400C0E0C083C082C0D075D000C004C005C0C2
:0327D40006C00735
:1027D70030DF04C2DF807D30DA04C2DA807630D998
:1027E7003DC2D9AFFBEFFEADEB7C00E42DFFEC3E25
:1027F70020000E900001F0A3EFF075DB11D20080EE
:1028070053FE900001E0FCA3E0FDC3EF9DFFEE9CAB
:10281700A3F0A3EFF075DB00C200D20E803630D8EC
:1028270033C2D8900067E07002A3E06022B2B49090
:102837000069E0FEA3E0F5EAEEF5FAA3E0FEA3E007
:10284700FF90006AE02FF0900069E03EF08005C23B
:04285700B453DAFE9E
:10285B00D007D006D005D004D0D0D082D083D0E022
:01286B00323A
:063B3C00123241D2AF225B
:102BF4003004047F0180027F00200A047E018002E9
:102C04007E00EE5F6074E515C395095068300236A6
:102C1400750D01E515131313541FAB17AA18A91941
:102C2400F582758300120DE2FFE515540704FEEFEB
:102C3400A806088002C333D8FC30D7057516038074
:102C44002F751601802AAB17AA18A91975F002E589
:102C540015A4F58285F083120DE2F50DE51575F0E6
:102C640002A429F9EA35F0FA900001120DE2F516F2
:0A2C74000515D20A22C204438F1096
:012C7E002233
:10220500900000E014F0701F740AF0D205900029C8
:10221500E014F07012740AF0D20890006DE014F02A
:102225007005740AF0D20190002AA3E0FAA3E0F940
:102235001210C490002DA3E0FAA3E0F91210C49087
:102245000039A3E0FAA3E0F91210C4900045A3E019
:10225500FAA3E0F91210C4900054A3E0FAA3E0F940
:102265001210C490005DA3E0FAA3E0F91210C49027
:10227500004BA3E0FAA3E0F91210C4EF600C900044
:102285001DA3E0FAA3E0F91210C490004EA3E0FAF2
:10229500A3E0F91210C4EF600E900020A3E0FAA3AA
:1022A500E0F91210C4D20BE512D394004016D512F2
:1022B5003030090C900023A3E0FAA3E0F91210C412
:1022C500D20C801D900051A3E0FAA3E0F91210C4CE
:1022D500EF600E900023A3E0FAA3E0F91210C4D238
:0D22E5000C900005A3E0FAA3E0F90210C47C
:102A450090003FA3E0FAA3E0F91210C4900042A35E
:102A5500E0FAA3E0F91210C4900033A3E0FAA3E072
:102A6500F91210C4900008A3E0FAA3E0F91210C40B
:102A7500900030A3E0FAA3E0F91210C4EF600C90C7
:102A85000011A3E0FAA3E0F91210C4900036A3E008
:102A9500FAA3E0F91210C4EF600C900017A3E0FA56
:102AA500A3E0F91210C4900048A3E0FAA3E0F912DC
:102AB50010C4EF600C90001AA3E0FAA3E0F912101D
:102AC500C430060EC206900026A3E0FAA3E0F91270
:032AD50010C42208
:1033D90090000BA3E0FAA3E0F91210C490003CA3FB
:1033E900E0FAA3E0F91210C4EF600C900014A3E016
:1033F900FAA3E0F91210C4900057A3E0FAA3E0F988
:0F3409001210C490005AA3E0FAA3E0F90210C415
:1036E700AF11AE10AD0FAC0E9000601210AC900091
:1036F70064E514F0E4F511F510F50FF50EF51490E7
:0B370700000EA3E0FAA3E0F90210C4DA
:10341800300705C207122BF4300D05C20D12220524
:10342800300505C205122A45300805C2081233D9ED
:10343800300105C2011236E7E5112401F511E43522
:0E34480010F510E4350FF50FE4350EF50E22E9
:102D09008B238A248925EFB40C005070902D1CF870
:102D1900282873022D40022D45022D4A022D4F020B
:102D29002D54022D59022D5E022D63022D68022DAC
:102D39006D022D72022D7790000580359000088074
:102D49003090000B802B90000E802690001180217E
:102D5900900017801C900014801790001A80129020
:102D6900001D800D900020800890002380039000B2
:0D2D790026E523F0A3E524F0A3E525F022D4
:073B22007B017A00796022AB
:1018D7005501130000000000000000000000000098
:0818E7000000010000000000F8
:0300430002164F53
:10164F00C0E0C0F0C083C082C0D075D000C000C061
:10165F0001C002C003C004C005C006C007E59A3030
:10166F00E142539AFD900118E0FEA3E0FFC3900101
:10167F0017E09F900116E09E501F900113E0FBA30F
:10168F00E0FAA3E0F9A3E475F001120EF685F082FB
:10169F00F583120DE2F59B800B90011AE4F0E56BD8
:1016AF006002C2B7E59A20E003021806539AFE3093
:1016BF000C0BC20C900120E4F0A3F0D209E56B648F
:1016CF0002600302176090011EE0FEA3E0FFA3E09B
:1016DF00FCA3E0FDC39FEC9E507190011BE0FBA3A8
:1016EF00E0FAA3E0F98D828C83E59B120E21900125
:1016FF0026E0FEA3E0FFC3ED9FEC9E504090011E3D
:10170F00E0FCA3E0FDEF9DEE9C5032900123E0FB47
:10171F00A3E0FAA3E0F9900120E0FEA3E0FFF58239
:10172F008E83120DE2FD90011BE0FBA3E0FAA3E014
:10173F00F98F828E83120DE26D6002C20990012132
:10174F00E004F07006900120E004F0856A120218A0
:10175F000690011EE0FEA3E0FFA3E0FCA3E0FDC3A3
:10176F009FEC9E507790011BE0FBA3E0FAA3E0F9FA
:10177F008D828C83E59B120E21900126E0FEA3E063
:10178F00FFC3ED9FEC9E504690011EE0FCA3E0FDD1
:10179F00EF9DEE9C5038900123E0FBA3E0FAA3E00D
:1017AF00F9900120E0FEA3E0FFF5828E83120DE297
:1017BF00FD90011BE0FBA3E0FAA3E0F98F828E837B
:1017CF00120DE26D600890012074FFF0A3F09001FC
:1017DF0021E004F07006900120E004F090011EE07B
:1017EF00FEA3E0FFC3900121E09F900120E09E4007
:1017FF00069001227401F0D007D006D005D004D096
:10180F0003D002D001D000D0D0D082D083D0F0D07E
:02181F00E032B5
:023A5C001570E3
:0A3A5E00900122E0A870F6FFE4F0EA
:033A6800057022C4
:013B5300224F
:102664008F268E258D248C2385276BE56B70028045
:102674000343BA01E56B701790005D74FFF0A37417
:102684003BF0A37453F0E4F5DBD290D2918020C2E6
:10269400B7AB26AA25A924A823E47F407E9CFDFC91
:1026A400120FC28F6AE56A7003756A01856A127532
:1026B4009A10E47B04FAF9F8903B4212109C120F32
:1026C400C2AB26AA25A924A823120FC2EFF404F54D
:1026D400D7E47B04FAF9F8903B4212109C120FC223
:1026E400AB26AA25A924A823120FC2C3E49FFFE4A2
:1026F4009EFE74019DFDE49CFC78081210628FD646
:10270400438E1443AF0190005174FFF0A3743AF068
:05271400A3745CF0223B
:1035CA0090011BEBF0A3EAF0A3E9F0A3ECF0A3ED62
:1035DA00F0900126E52BF0A3E52CF0900123E528D5
:1035EA00F0A3E529F0A3E52AF0D20CE4900122F039
:0135FA0022AE
:10365D0090011AE07026900113EBF0A3EAF0A3E9B4
:10366D00F0E4A3F0A3F0A3ECF0A3EDF0A37401F04C
:0F367D00E56B6002D2B7439A027F02227F0322DD
:0B3ACD0090011AE07002FF227F01222E
:1014530000EF00C500AF00A00096008E008700815A
:10146300007C007800740071006D006B00680065FB
:1014730000630061005F005D005B005A0058005686
:1014830000550054005200510050004E004D004CD6
:10149300004B004A0049004800470046004500440D
:1014A30000430043004200410040003F003F003E34
:1014B300003D003D003C003B003A003A0039003952
:1014C300003800370037003600360035003400346A
:1014D300003300330032003200310031003000307D
:1014E300002F002F002E002E002D002D002C002C8D
:1014F300002B002B002A002A00290029002900289C
:1015030000280027002700260026002600250025A6
:1015130000240024002400230023002200220022B0
:1015230000210021002000200020001F001F001FB9
:10153300001E001E001D001D001D001C001C001CC1
:10154300001B001B001B001A001A001A00190019C7
:1015530000180018001800170017001700160016CF
:1015630000160015001500150014001400140013D4
:1015730000130013001200120012001100110010DA
:1015830000100010000F000F000F000E000E000EE1
:10159300000D000D000D000C000C000C000B000BE7
:1015A300000B000A000A00090009000900080008EE
:1015B30000080007000700070006000600050005F5
:1015C3000004000400030003000300020002000102
:1015D3000001000100000000FFFFFFFFFFFFFFFE0F
:1015E300FFFEFFFDFFFDFFFCFFFCFFFBFFFBFFFA20
:1015F300FFFAFFF9FFF9FFF8FFF8FFF7FFF7FFF630
:10160300FFF6FFF5FFF5FFF4FFF3FFF3FFF2FFF241
:10161300FFF1FFF0FFF0FFEFFFEEFFEDFFEDFFEC5B
:10162300FFEBFFEAFFE9FFE8FFE7FFE6FFE5FFE483
:10163300FFE3FFE2FFE0FFDFFFDDFFDCFFDAFFD8C0
:0C164300FFD5FFD2FFCEFFC9FFC1016937
:0718EF0044015D28282828B0
:102FFB00123B1B78537C017D017E007F0A120DA3CF
:10300B00900157E0FFA3E0900161CFF0A3EFF090A8
:10301B000161E0FEA3E07802CEA2E713CE13D8F84D
:10302B00F0EE900161F0A3E025E0FF900161E03349
:10303B00FE74532FF58274143EF583E493FF7401F1
:0A304B0093900151CFF0A3EFF022A3
:1029B100900151E0FEA3E0FFC3EE648094805031AA
:1029C100C3E49FFFE49EFE7C007D0A120EAA7C00F8
:1029D1007D0A120EAA8D2975260A75270A75280CFB
:1029E100900151E0FEA3E0FFC3E49FFFE49EFE805F
:1029F10040900151E0FEA3E0FF7C007D64120EAA2D
:102A01007C007D0A120EAAAB05900151E0FEA3E005
:102A1100FF7C007D0A120EAA7C007D0A120EAA8D8F
:102A2100298B2875260A75270A900151E0FEA3E03B
:102A3100FF7C007D0A120EAA8D2A7B0A7D0A7F0A7D
:042A410012388422A1
:0418F6004101A90003
:102911007F0512328890019FEFF07F02123288907A
:1029210001A0EFF07F041232889001A1EFF07F0146
:102931001232889001A2EFF090019FE0B4010E9055
:1029410001A9E004F0E0D394024002E4F09001A078
:10295100E0B4010F9001A9E014F0E0C3940050032A
:102961007402F09001A1E0B4011FE539D394004055
:1029710018153978447C007D007B007A0079377E18
:10298100007F06120DA31225AE9001A2E0B4011F33
:10299100E539C3940F5018053978447C007D007BDC
:0F29A100007A0079377E007F06120DA31225AE53
:0129B0002204
:103982009001A9E014600A14600A24027009022E50
:08399200750229B1123356221F
:1018FA004C00B6000003F1043607F506000000C1EB
:0B190A00104300B20000004100B501D6
:1022F200123A059000DEEFF020105D9000B5E0C3C9
:1023020094065054E0FF04F0EF25E024B6F582E491
:102312003400F583E0FCA3E0FDE4120C197466FBC3
:10232200FAF97840120A6EC004C005C006C00790D0
:1023320000DEE0FCE4120C1EA804A905AA06AB0705
:10234200D007D006D005D004120B77120C529001A0
:102352003DEEF0A3EFF080212010159000B5E0C310
:102362009406400C90013D7404F0A374B0F080090F
:1023720090013DE4F0A37414F090013DE0FAA3E073
:10238200FB7C007D3CFFAE02120E55900188E07589
:10239200F007A424C3F582E43400F583EFF07C0057
:1023A2007D3CAF03AE02120E55900188E0FE75F03F
:1023B20007A424C2F582E43400F583EDF0EE75F053
:1023C20007A424C2F9740035F0FA7B0178237C005B
:0C23D2007D007E007F07120DA302396918
:10210E00123B29C001900188E075F007A424C2F9A2
:10211E00740035F0A801FC7D01D0017E007F07120E
:10212E000DA3900188E0FF75F007A424C3F582E4A7
:10213E003400F583E07018EF75F007A424C2F58221
:10214E00E43400F583E07007B2101222F280499059
:10215E000188E0FF75F007A424C2F582E43400F58F
:10216E0083E07023900188E0FE75F007A424C2F589
:10217E0082E43400F583743BF0EE75F007A424C3BB
:10218E00F582E43400800CEF75F007A424C2F582CA
:10219E00E43400F583E014F0900188E075F007A4B4
:1021AE0024C2F9740035F0FA7B0178237C007D009F
:1021BE007E007F07120DA3123969900188E0FD752C
:1021CE00F007A424C3F582E43400F583E075F03CF7
:1021DE00A4FFAEF0ED75F007A424C2F582E434003E
:1021EE00F583E07C002FFFEC3E9000B2F0A3EFF001
:0721FE00A210E433A3F0225C
:102E7500123B29C001900188E075F007A424C2F92E
:102E8500740035F0A801FC7D01D0017E007F07129A
:102E95000DA3900188E0FF75F007A424C3F582E433
:102EA5003400F583E0FE75F00A84FDEE75F00A84C2
:102EB500AEF0EF75F007A424C2F582E43400F58383
:102EC500E0FF75F00A84FCEF75F00A8485F02A8C22
:102ED500298E278D2675280A7B0AE4FDFF02388492
:071915004401A3322D32371B
:103A0500900188E024A3F582E43401F583E0FF7E8C
:023A150000228D
:1033560075262E75272D900188E0FF24A3F582E4BB
:103366003401F583E0FE75F06484F528EE75F00A05
:103376008475F00A8485F02974A32FF582E434015C
:10338600F583E075F00A8485F02A7B2E7D367F274B
:0333960002388476
:1000460000000000000000000000000000000000AA
:10005600000000000000000000000000000000009A
:10006600000000000000000000000000000000008A
:10007600000000000000000000000000000000007A
:10008600000000000000000000000000000000006A
:10009600000000000000000000000000000000005A
:1000A600000000000000000000000000000000004A
:1000B600000000000000000000000000000000003A
:1000C600000000000000000000000000000000002A
:1000D600000000000000000000000000000000001A
:1000E600000000000000000000000000000000000A
:1000F60000000000000000000000000000000000FA
:1001060000000000000000000000000000000000E9
:1001160000000000000000000000000000000000D9
:1001260000000000000000000000000000000000C9
:1001360000000000000000000000000000000000B9
:1001460000000000000000000000000000000000A9
:100156000000000000000000000000000000000099
:10016600000000000000000000000000C6BDD1F441
:10017600A3ACB5BDC1CBA1A3C7EBC7B0CDF9C0E851
:10018600CDD0C2B7B5C4B3CBBFCDD7BCB1B8CFC243
:10019600B3B5A1A3CFC2B3B5CAB1A3ACC7EBD7A2BF
:1001A600D2E2C1D0B3B5D3EBD5BECCA8D6AEBCE4B3
:1001B600B5C4BCE4CFB6A1A3000000000000000057
:1001C6000000000000000000000000000000000029
:1001D6000000000000000000000000000000000019
:1001E6000000000000000000000000000000000009
:1001F60000000000000000000000000000000000F9
:1002060000000000000000000000000000000000E8
:1002160000000000000000000000000000000000D8
:1002260000000000000000000000000000000000C8
:1002360000000000000000000000000000000000B8
:1002460000000000000000000000000000000000A8
:100256000000000000000000000000000000000098
:100266000000000000000000000000000000000088
:100276000000000000000000000000000000000078
:100286000000000000000000000000000000000068
:100296000000000000000000B3A4C9B3BBF0B3B572
:1002A600C4CFD5BEA3ACB5BDC1CBA1A3B1BED5BE8F
:1002B600CEAABBBBB3CBD5BEA3ACBFC9BBBBB3CB6E
:1002C60032BAC5CFDFA1A2B4C5B8A15332CFDFA1E0
:1002D600A3C7EBC7B0CDF9B8DFCCFAC4CFD5BEA162
:1002E600A2B4C5B8A15332CFDFA1A2C0E8CDD0B821
:1002F600DFCBD9C6FBB3B5D5BEB5C4B3CBBFCDD75F
:10030600BCB1B8CFC2B3B5A1A3CFC2B3B5CAB1A36E
:10031600ACC7EBD7A2D2E2C1D0B3B5D3EBD5BECC36
:10032600A8D6AEBCE4B5C4BCE4CFB6A1A300000019
:1003360000000000000000000000000000000000B7
:1003460000000000000000000000000000000000A7
:100356000000000000000000000000000000000097
:100366000000000000000000000000000000000087
:100376000000000000000000000000000000000077
:100386000000000000000000000000000000000067
:100396000000000000000000000000000000000057
:1003A6000000000000000000000000000000000047
:1003B6000000000000000000000000000000000037
:1003C60000000000B9E2B4EFA3A8BBE1D5B9D6D0CE
:1003D600D0C4A3A9A3ACB5BDC1CBA1A3B1BED5BEA4
:1003E600CEAABBBBB3CBD5BEA3ACBFC9BBBBB3CB3D
:1003F60032BAC5CFDFA1A3C7EBC7B0CDF9B3A4C945
:10040600B3B9FABCCABBE1D2E9D6D0D0C4A1A2B373
:10041600A4C9B3B9FABCCABBE1D5B9D6D0D0C4A178
:10042600A2B3A4C9B3B9FABCCABBE1D5B9D0C2B3A9
:10043600C7B5C4B3CBBFCDD7BCB1B8CFC2B3B5A1D6
:10044600A3CFC2B3B5CAB1A3ACC7EBD7A2D2E2C1A0
:10045600D0B3B5D3EBD5BECCA8D6AEBCE4B5C4BC40
:10046600E4CFB6A1A30000000000000000000000D9
:100476000000000000000000000000000000000076
:100486000000000000000000000000000000000066
:100496000000000000000000000000000000000056
:1004A6000000000000000000000000000000000046
:1004B6000000000000000000000000000000000036
:1004C6000000000000000000000000000000000026
:1004D6000000000000000000000000000000000016
:1004E6000000000000000000000000000000000006
:1004F600D6D5B5E3D5BEA3ACB6C5BCD2C6BAA3ACF9
:10050600B5BDC1CBA1A3C7EBC8ABCCE5B3CBBFCDC3
:10051600D0AFB4F8BAC3CBE6C9EDCEEFC6B7D7BCF9
:10052600B1B8CFC2B3B5A1A3CFC2B3B5CAB1A3AC5C
:10053600C7EBD7A2D2E2C1D0B3B5D3EBD5BECCA818
:10054600D6AEBCE4B5C4BCE4CFB6A1A3BBB6D3ADAE
:10055600C4FAD4D9B4CEB3CBD7F8B5D8CCFAC1D077
:10056600B3B5A3ACD4D9BCFBA3A100000000000026
:100576000000000000000000000000000000000075
:100586000000000000000000000000000000000065
:100596000000000000000000000000000000000055
:1005A6000000000000000000000000000000000045
:1005B6000000000000000000000000000000000035
:1005C6000000000000000000000000000000000025
:1005D6000000000000000000000000000000000015
:1005E6000000000000000000000000000000000005
:1005F60000000000000000000000000000000000F5
:1006060000000000000000000000000000000000E4
:10061600000000000000000000000000B3B5C3C5E4
:10062600BCB4BDABB9D8B1D5A3ACBDF7B7C0BCD0CF
:10063600C9CB000000000000000000000000000020
:1006460000000000000000000000000000000000A4
:100656000000000000000000000000000000000094
:100666000000000000000000000000000000000084
:100676000000000000000000000000000000000074
:100686000000000000000000000000000000000064
:100696000000000000000000000000000000000054
:1006A6000000000000000000000000000000000044
:1006B6000000000000000000000000000000000034
:1006C6000000000000000000000000000000000024
:1006D6000000000000000000000000000000000014
:1006E6000000000000000000000000000000000004
:1006F60000000000000000000000000000000000F4
:1007060000000000000000000000000000000000E3
:1007160000000000000000000000000000000000D3
:1007260000000000000000000000000000000000C3
:1007360000000000000000000000000000000000B3
:100746000000000000000000B1BEB4CEC1D0B3B5B9
:10075600BFAACDF9A3ACB6C5BCD2C6BAA1A3CFC2B7
:10076600D2BBD5BE3A9CBBCDE5D5F2A1A3D0E8BBA2
:10077600BBB3CB32BAC5CFDFB5C4B3CBBFCDC7EBA6
:10078600D4DA9CBBCDE5D5F2CFC2B3B500000000EC
:100796000000000000000000000000000000000053
:1007A6000000000000000000000000000000000043
:1007B6000000000000000000000000000000000033
:1007C6000000000000000000000000000000000023
:1007D6000000000000000000000000000000000013
:1007E6000000000000000000000000000000000003
:1007F60000000000000000000000000000000000F3
:1008060000000000000000000000000000000000E2
:10081600B1BEB4CEC1D0B3B5BFAACDF9A3ACB6C5EF
:10082600BCD2C6BAA1A3CFC2D2BBD5BEA3ACB3A419
:10083600C9B3BBF0B3B5C4CFD5BEA1A3B3B5C3C5C9
:10084600BFAAC6F4B7BDCFF2CEAAD7F3B2E0A1A332
:10085600B8F7CEBBB3CBBFCDC7EBD7A2D2E2A3AC22
:10086600D0E8BBBBB3CB32BAC5CFDFA1A2B4C5B803
:10087600A15332CFDFB5C4B3CBBFCDA3ACC7EBD446
:10088600DAB3A4C9B3BBF0B3B5C4CFD5BECFC2B338
:10089600B5A1A30000000000000000000000000059
:1008A6000000000000000000000000000000000042
:1008B6000000000000000000000000000000000032
:1008C6000000000000000000000000000000000022
:1008D6000000000000000000B1BEB4CEC1D0B3B528
:1008E600BFAACDF9A3ACB6C5BCD2C6BAA1A3CFC226
:1008F600D2BBD5BEA3ACB9E2B4EFA3A8BBE1D5B9D0
:10090600D6D0D0C4A3A9A1A3B3B5C3C5BFAAC6F404
:10091600B7BDCFF2CEAAD7F3B2E0A1A3B8F7CEBB4C
:10092600B3CBBFCDC7EBD7A2D2E2A3ACD0E8BBBB5B
:10093600B3CB32BAC5CFDFB5C4B3CBBFCDA3ACC73B
:10094600EBD4DAB9E2B4EFA3A8BBE1D5B9D6D0D0DF
:10095600C4A3A9CFC2B3B5A1A30000000000000044
:100966000000000000000000000000000000000081
:100976000000000000000000000000000000000071
:100986000000000000000000000000000000000061
:100996000000000000000000000000000000000051
:1009A600CFC2D2BBD5BEA3ACCAC7B1BEB4CEC1D02E
:1009B600B3B5D6D5B5E3D5BEA3ACB6C5BCD2C6BA1B
:1009C600A1A3B3B5C3C5BFAAC6F4B7BDCFF2CEAA1D
:1009D600D7F3B2E0A1A3C1D0B3B5D4CBD0D0CAB1BE
:1009E600A3ACC7EBD5BECEC8B7F6BAC3A3ACC7EBAC
:1009F600CEAAD3D0D0E8D2AAB5C4B3CBBFCDC8C394
:100A0600D7F9A3ACB6E0D0BBBACFD7F7A1A3000005
:100A160000000000000000000000000000000000D0
:100A260000000000000000000000000000000000C0
:100A360000000000000000000000000000000000B0
:100A460000000000000000000000000000000000A0
:100A56000000000000000000000000000000000090
:080A6600000000000000000088
:08191C004101A7004101A800F0
:103A17009001A7E0B44105A37401F022E49001A846
:023A2700F0228B
:102C7F009001A8E064017003022D089000B2E0FEFD
:102C8F00A3E0FF90013DEEF0A3EFF0640C4E702037
:102C9F009000B4E0701A900188E0FF7E007C017D07
:102CAF002C120E4374462FF974003EFA7BFF8046B8
:102CBF0090013DE07004A3E0640570139000B4E050
:102CCF00B4010C7BFF7A0679227D647C008027900B
:102CDF00013DE07002A3E070209000B4E0B4011950
:102CEF00900188E075F0C8A42486F9740635F0FACF
:092CFF007BFF7DC87C0012365DEC
:012D080022A8
:043B420000A8C00017
:1019240044018400000000440189000000004101DA
:0B1934008801016428016500016300C8
:1037FC0012210E122FFB123A05123982122C7F1253
:10380C001EF6900188E0245DF582E43401F58374A2
:03381C0028F0226F
:103456003F065B4F666D7D077F6F00084001414860
:10346600BF86DBCFE6EDFD87FFEF777C395E7971AE
:103476003D7606383F736D3E6E5F7C585E7B716F9E
:0C348600741038545C7367506D781C6E35
:043B46004253500096
:10193F006020006E000000000000000000000000AA
:10194F000000000000000000000000000000000088
:10195F00000000006020008E00000000000000006A
:10196F000000000000000000000000000000000068
:10197F0000000000000000004100B1004300AE4233
:02198F005350B3
:103535007B017A00796E7D0A123919AE02AF018FCF
:10354500828E83EF4E6014E4F09000B17402F07B3C
:10355500017A00796E12000002000E9000B174032A
:01356500F075
:013566002242
:1030AE007F007EC27D017C00122DFE7E007F207D82
:1030BE00007B017A00796E1211B37E007F207D00B5
:1030CE007B017A00798E1211B37BFF7A3579357FC9
:1030DE0009122D09752801752900752AAE752B0068
:1030EE00752C037B017A00796E7D207C0012362CC4
:0630FE00E49000B1F02295
:10000E007E007F207D007B017A00796E1211B3E4B1
:05001E009000B1F0228A
:0B3AD8009000B1E0B4030312000E22C6
:101DDB00E0FF7E0090013DE0FCA3E0248EF974004F
:041DEB003CFA7B0142
:061DEF008B238A248925E4
:101DF500E4900141F0A3F0A3EEF0A3EFF0E490012D
:101E05004FF0A3F0EF4E70177430120E0FAB23AAEC
:101E150024A925900001E4120E217E007F0122D322
:101E2500900144E09400900143E0940040539001F8
:101E350050E0940A90014FE06480948050439001F3
:101E450043E0FAA3E0FB7C007D0AFFAE02120E55CB
:101E5500ED2430FF90014FE475F001120EF6FC748D
:101E65004525F0F58274013CF583EFF07C007D0A91
:101E7500AF03AE02120E55900143EEF0A3EFF080D2
:101E85009E900150E024FFFE90014FE034FF900149
:101E95003FF0A3CEF090013FE0FEA3E0FFC3EE6468
:101EA500809480403574452FF58274013EF583E0BA
:101EB500FFAB23AA24A925900141E475F001120E78
:101EC500F685F082F583EF120E21900140E024FFA4
:101ED500F090013FE034FFF080BBAB23AA24A92595
:101EE500900141E0FEA3E0FFF5828E83E4120E210E
:011EF50022CA
:101EF600E490013DF0A3F0123AE3BF01037F032211
:101F06007E007F207D007B017A00798E1211B378E6
:101F16008E7C007D017BFF7A3B79461211967B0110
:101F26007A00798E1239CA90013DEEF0A3EFF09057
:101F3600013DE475F001120EF6FE748E25F0F58271
:101F460074003EF583742CF0900188121DDB90011D
:101F56003EE02FF090013DE03EF0E475F001120EF8
:101F6600F6FE748E25F0F58274003EF583742CF02F
:101F7600900151E0FEA3E0FF121DDF90013EE02F2D
:101F8600F090013DE03EF0E475F001120EF6FE74AD
:101F96008E25F0F58274003EF583742CF09001884E
:101FA600E0245DF582E43401F583121DDB90013EE9
:101FB600E02FF090013DE03EF0E475F001120EF6E0
:101FC600FE748E25F0F58274003EF583742CF09035
:101FD600013DE475F001120EF6FE748E25F0F582D1
:101FE60074003EF583740AF0C390013EE09420909D
:101FF600013DE06480948040037F03227B017A00E8
:09200600798E7D207C0012378BDD
:01200F0022AE
:1036BA00E4FF123399BF01079001887401F0227F59
:1036CA0001123399BF01079001887402F0227F0228
:0D36DA00123399BF01069001887403F0229D
:08000300038903ED040B043531
:031991000136001C
:102FA0001238647D647C007FE87E03122D86E5364E
:102FB00070487537037538ED75390C753A01753BF6
:102FC00001F53C784A7C00FDFB7A007937FE7F06EC
:102FD000120DA31237B378447C007D007B007A0089
:102FE00079377E007F06120DA31225AE7536017D5E
:0B2FF000C87C007FE87E03122D8622C3
:1035FB00C3EF9477EE94034027D3EF9438EE940403
:10360B00501E8E378F38E536601678447C007D006F
:10361B007B007A0079377E007F06120DA31225AE50
:01362B00227C
:10381F00EFD3940F501C8F39E536601678447C0037
:10382F007D007B007A0079377E007F06120DA31290
:03383F0025AE2291
:033B5000AF392268
:05002600AE37AF3822E7
:1031A900782D7C007D007BFF7A0079037E007F0803
:1031B900120DA3E5367003122FA0E4F535E5352588
:1031C900E0242DF8E6FE08E6FF1235FB7F0F1238E2
:1031D9001FE53575F064A424F4FFE5F03401FE7DA4
:0F31E900647C00122D860535E535C3940440CE75
:0131F80022B4
:1034C900900188E0245DF582E43401F583E0FFD3BF
:1034D900900152E09F7480F8900151E06480984017
:1034E9000B75620AE4FB7D0A7F328006E4F562FB14
:0634F900FDFF122AD8229B
:04199400026C0000E1
:1038E1007F031234FF12399A900188E02484F58213
:0C38F100E43401F583E4F0F56CF56D2281
:0E3A6B00123104C3EE940440057E047F002255
:013A7900222A
:10349200123A6B8E6C8F6DC3E56D940AE56C9400E5
:1034A2005024E56D7004E56C6404601A900188E0B4
:1034B2002484F582E43401F583E0700A9000B4E0DC
:0734C200B401031237D82208
:1037D800E4FF123567EF701B900188E02484F582BE
:1037E800E43401F5837401F07BC87A007D64E4FF5A
:0437F8001227192259
:10384200E4FF123567EF7019900188E02484F58255
:10385200E43401F583E4F07B387AFF7D64FF1227BC
:02386200192229
:05003E00E4FF0231F9AE
:0E3AB300E4FF123567EF70037F01227F0022CF
:101998005500FE00000000000000000000000000EC
:0C19A80000000000000000004100FD00F5
:0211DF00157089
:1011E100A870E4F6A870E6FFC3648094834003020C
:1011F1001450EF3395E0FE9000FE75F007EF1210EA
:10120100B8EE75F007A42583F583E0FCA3E04C70EC
:101211000302144A90010075F007EF1210B8EE7541
:10122100F007A42583F583E0FEA3E04E70030214CA
:101231004AE6FFFD3395E0FC90010275F007ED12DF
:1012410010B8EC75F007A42583F58374FFF5F0124F
:101251000EE045F0600302144A90010075F007EDBD
:101261001210B8EC75F007A42583F583E0FAA3E02A
:10127100FB90010275F007ED1210B8EC75F007A4B0
:101281002583F583EAF0A3EBF0EF3395E0FE9000C0
:10129100FE75F007EF1210B8EE75F007A42583F57F
:1012A10083E0FCA3E0D39400EC648094804056A8D2
:1012B10070E6FD3395E0FC9000FE75F007ED12102D
:1012C100B8EC75F007A42583F58374FFF5F0120ED1
:1012D100E090010475F007ED1210B8EC75F007A469
:1012E1002583F583E004F0D36480948340729001F8
:1012F1000475F007EF1210B8EE75F007A42583F519
:1013010083E4F0805BA870E6FFFD3395E0FC90007C
:10131100FE75F007ED1210B8EC75F007A42583F502
:1013210083E475F001120EE090010475F007ED12EF
:1013310010B8EC75F007A42583F583E014F0C364BD
:10134100809480501BEF3395E0FE90010475F00707
:10135100EF1210B8EE75F007A42583F5837403F03E
:10136100A870E6FFFD3395E0FC90010475F007EDF0
:101371001210B8EC75F007A42583F583E014603CE6
:1013810014606614700302141724036003021442EC
:10139100EF14601014601924026003021442D2C1D8
:1013A100C2C280299000FDE054F04401F0021442D1
:1013B1009000FDE0540F4410F0021442A870E614AE
:1013C100601114601924027078C2C1D2C2C2C3C2B2
:1013D100C4806E9000FDE054F04402F08063900000
:1013E100FDE0540F4420F08058A870E614601114F9
:1013F10060192402704BC2C1C2C2D2C3C2C48041AF
:101401009000FDE054F04404F080369000FDE0547B
:101411000F4440F0802BA870E61460111460192469
:1014210002701EC2C1C2C2C2C3D2C480149000FDE8
:10143100E054F04408F080099000FDE0540F44802E
:0F144100F09000FDE0FF123B36A870060211E5A7
:0314500005702202
:10399A0053B3E143B41E53C0E190005474FFF0A343
:0839AA007411F0A374DFF02298
:102719008F6FEF3395E0FE9000FE75F007EF121012
:10272900B8EE75F007A42583F583E0FEA3E04E60BB
:10273900030227C1E56F600A64016006E56F640260
:102749007076ED60737C007E037FE8120E55AD6FE5
:10275900ED3395E0FC90010075F007ED1210B8EC2F
:1027690075F007A42583F583EEF0A3EFF09001003F
:1027790075F007ED1210B8EC75F007A42583F58301
:10278900E0FEA3E0FF90010275F007ED1210B8EC2E
:1027990075F007A42583F583EEF0A3EFF09000FE12
:1027A90075F007ED1210B8EC75F007A42583F583D1
:0B27B900EAF0A3EBF07F02227F032276
:1031F900EF600764016003BF023AEFFD3395E0FC1D
:103209009000FE75F007ED1210B8EC75F007A425D3
:1032190083F583E0FAA3E0FB9000FE75F007ED1259
:1032290010B8EC75F007A42583F583E4F0A3F0AE9C
:0732390002AF0322E4FEFFD7
:01324000226B
:10356700EF600764016003BF0225EF3395E0FE902B
:1035770000FE75F007EF1210B8EE75F007A425836B
:10358700F583E0FEA3E04E60037F01227F00227FE8
:0235970003220D
:0419B4004101950157
:10395000C295E4FEEF1392CC000000D29500EFC3B5
:0839600013FFC2950EBE08EC36
:01396800223C
:1039B200E4FEEFC313FF30CC03430780D29500002F
:0739C20000C2950EBE08EBE8
:0139C90022DB
:10368C00F07F8512369FA3EFF07F8712369FA3EF52
:03369C00F07F8933
:10369F00C296000000C295000000D2960012395069
:0A36AF001239B2D295000000C29655
:0136B90022EE
:0338A400A3E0FDA1
:1038A700C296000000C295000000D296001239505F
:0D38B700AF05123950D295000000C29622D4
:073B29007B017A01798E2275
:10396900788E7C017D017B007A0079237E007F07B8
:09397900120DA3E4900195F02267
:103A2900EFD3941F5009EF25E044C1FF02369F7F71
:023A3900012268
:10371200AC07AB05ECD3941F501CE4FD7F8E12382E
:10372200A7EC25E044C0FFAD031238A77D807F8E51
:093732001238A77F00227F01225A
:02286C001570E5
:10286E00900195E060447F8112369FA870EFF6903C
:10287E00018EE06F700302290EA870E6F07F8312BE
:10288E00369FA870EFF6A3E06F6075A870E612365B
:10289E008CA3EFF07F8D12369F900194EFF07F8B1B
:1028AE0012369F900193EFF0805690018DE0FF0459
:1028BE00F0EFC3940A4049E4F090019504F0E4FD72
:1028CE007F8E1238A790018EE0FD7F801238A77F91
:1028DE00821238A47F841238A4A3E0FD7F861238BA
:1028EE00A7A3E0FD7F881238A7A3E0FD7F8A1238E8
:1028FE00A7A3E0FD7F8C1238A77D807F8E1238A7AC
:03290E000570222F
:102010007F8112369F90018EEFF07F8312369FA34F
:10202000EF12368CA3EFF07F8B12369FA3EFF07F79
:102030008D12369FA3EFF0E4FD7F8E1238A77F1E2E
:10204000123A29EF64A560047F0180027F009001AD
:102050008EE05480FEA3E0D3945940047D018002B9
:102060007D00ED4EFE900190E0D394A440047D01EC
:1020700080027D00ED4EFE900191E0D3943140044A
:102080007D0180027D00ED4EFE900192E0D394121E
:1020900040047D0180027D00ED4EFE900193E0D36F
:1020A000940740047D0180027D00ED4EFE90019476
:1020B000E0D3949940047D0180027D00ED4E4F6095
:1020C0003078237C007D007B007A00793D7E007FA4
:1020D00007120DA31239697DA57F1E123712788E63
:1020E0007C017D017B007A00793D7E007F07120D27
:1020F000A37DA97F901238A77D807F8E1238A7908C
:0E210000005A74FFF0A37428F0A3746CF02250
:0B19B800480196D4111A50400288A587
:0939DF007F031239E8D2C57F0311
:0A39E800AE071FEE60030080F72217
:1039F200D2A71239DFC2A77F031239E8C2C57F03FB
:033A02000239E89E
:0C3AC100C2A71239DFD2A77F030239E848
:1038FD00E4FFD2C530A709EFC394FA50030F80F44B
:0C390D007F031239E8C2C57F030239E8CD
:02376300AD07B0
:10376500E4FBC2C57F031239E8ED3392A7ED25E0EE
:10377500FD1239DF0BBB08EAC2C57F031239E8D257
:06378500C57F030239E8D4
:0232CE00157079
:1032D00090019EE0640170371239F27F201237634B
:1032E0001238FDA870E4F6A870E6FFC394085017E2
:1032F00074962FF582E43401F583E0FF12376312F0
:0F33000038FDA8700680E0123AC1E490019EF0FB
:03330F0005702224
:102F4400900198E025E025E0FFA3E0C413135403A7
:102F54002F2466F51BE43403F51A90019DE0540F09
:102F6400F51C90019BE0543FFF5403FEBE0305751E
:102F74001DFF8003E4F51DEF540CFEBE0C05751E09
:102F8400FF8003E4F51EEF5430FFBF3005751FFFCB
:0B2F94008003E4F51F7B007A00791A2F
:012F9F00220F
:1025AE00D3E5459438E544940450047F0180027FBE
:1025BE0000C3E5459466E544940340047E01800221
:1025CE007E00EE5F6030122F44120F0C65457004D2
:1025DE00E5F065446020E545249AFD1313543F90C1
:1025EE000198F0ED5403FFC4333354C04410A3F0EC
:1025FE0090019E7401F0122F44E92402F9E43AFA94
:10260E00120DC9654660047F0180027F00E546D346
:10261E00940F50047E0180027E00EE5F6011E5464D
:10262E00540FFF90019DE054F04FF0A37401F07D24
:10263E002AE5476003430501E5486003430504E5C9
:10264E0049600343051090019BE06D6008EDF0902A
:05265E00019E7401F073
:012663002254
:1037B30078447C007D007B007A00794A7E007F0696
:1037C300120DA31225AE90005774FFF0A37432F0CC
:0537D300A374CEF022FA
:102AD8008B61AA077C007E037FE8120E5590017671
:102AE800EEF0A3EFF0E562FD7C007E037FE8120EB6
:102AF80055A3EEF0A3EFF0AF02AB07E4FAF9F890B4
:102B08000176E0FEA3E0FFE4FCFD120F37EF24326C
:102B1800FFE43EFEE43DFDE43CFCE47B64FAF9F8A6
:102B2800123312900170EEF0A3EFF0AF61AB07E43F
:102B3800FAF9F8900178E0FEA3E0FFE4FCFD120F3B
:102B480037EF2432FFE43EFEE43DFDE43CFCE47B49
:102B580064FAF9F8123312900172EEF0A3EFF02242
:10305500E4F559F558F557F556F55AD291AF59AEED
:1030650058AD57AC5678011210898F598E588D5727
:103075008C5600C291309015E4FAF9F8EF2401F569
:1030850059EA3EF558E93DF557E83CF556055AE548
:103095005AB418C700D2910000C291AF59AE58ADCD
:0830A50057AC567808121075B3
:0130AD002200
:093B1200900174E0FEA3E0FF2223
:0F3A4C00900174E0FEA3E0FFE4900174F0A3F09A
:013A5B002248
:1024C70090016FE0700F3090012212305590017427
:1024D700EEF0A3EFF090016FE0FF64017062055129
:1024E700E55170020550FDD3900177E09D9001768C
:1024F700E095505005E4F550F551D3900171E09502
:1025070051900170E095504004D2908002C290052E
:1025170053E55370020552FDD3900179E09D900178
:1025270078E095525005E4F552F553D3900173E0E6
:102537009553900172E095524004D2918002C29166
:10254700EF6402703E2090047F0180027F00E55413
:1025570060047E0180027E00EE5F60213091109062
:102567000175E004F07016900174E004F0800E909D
:102577000175E024FFF0900174E034FFF0A290E4CD
:1025870033F55490016FE0B4031CE5557002D29106
:10259700E555B40105C29175DB210555E555C39491
:0625A700C84003E4F555F5
:0125AD00220B
:1034FF0090016FEFF07004C2918002D29190016F32
:10350F00E0B40310E5A254CFF5A2E4F5D975DB01C1
:10351F00D2DE8003E4F5DB90005D74FFF0A374242A
:06352F00F0A374C7F022B6
:1019C3005501280000000000000000000000000096
:0819D30000000100000000000B
:03002300021B8835
:101B8800C0E0C0F0C083C082C0D075D000C000C023
:101B980001C002C003C004C005C006C00730993B9D
:101BA800C29990012DE0FEA3E0FFC390012CE09FB5
:101BB80090012BE09E501F900128E0FBA3E0FAA3C0
:101BC800E0F9A3E475F001120EF685F082F58312B0
:101BD8000DE2F599800590012FE4F0209803021C8E
:101BE8009DC298300B09C20B900135E4F0A3F09028
:101BF8000133E0FEA3E0FFA3E0FCA3E0FDC39FECFC
:101C08009E5077900130E0FBA3E0FAA3E0F98D82C3
:101C18008C83E599120E2190013BE0FEA3E0FFC3FF
:101C2800ED9FEC9E5046900133E0FCA3E0FDEF9D54
:101C3800EE9C5038900138E0FBA3E0FAA3E0F9905D
:101C48000135E0FEA3E0FFF5828E83120DE2FD90E0
:101C58000130E0FBA3E0FAA3E0F98F828E83120D36
:101C6800E26D600890013574FFF0A3F0900136E052
:101C780004F07006900135E004F0900133E0FEA313
:101C8800E0FFC3900136E09F900135E09E4006904A
:101C980001377401F0D007D006D005D004D003D0A6
:101CA80002D001D000D0D0D082D083D0F0D0E032A2
:023A7A001570C5
:0A3A7C00900137E0A870F6FFE4F0B7
:033A8600057022A6
:102DFE008F268E258D248C23759850438E40538EAE
:102E0E00FE53890FE47B04FAF9F8903B4212109CB2
:102E1E00120FC2AB26AA25A924A823120FC2EFF4C3
:102E2E0004F58BE47B04FAF9F8903B4212109C12E5
:102E3E000FC2AB26AA25A924A823120FC2C3E49F52
:102E4E00FFE49EFE74019DFDE49CFC780812106266
:102E5E008F8DC2ABD28ED2AC90004E74FFF0A374A5
:072E6E003AF0A3747AF02290
:10362C00900130EBF0A3EAF0A3E9F0A3ECF0A3EDEA
:10363C00F090013BE52BF0A3E52CF0900138E52848
:10364C00F0A3E529F0A3E52AF0D20BE4900137F0C2
:01365C00224B
:10378B0090012FE0701F900128EBF0A3EAF0A3E962
:10379B00F0E4A3F0A3F0A3ECF0A3EDF0A37401F01D
:0837AB00D2997F02227F032264
:0B3AE30090012FE07002FF227F012203
:100A6E00EC4D6011E8497017ED33EC3304600DE482
:100A7E00FCFFFEFD22E933E8330470F8020CBE12CF
:100A8E000C8958046009E4CC2481500628500902D0
:100A9E000CC8284003020CC5C0E0EB4A7044B98074
:100AAE0006D0E0FB020CB4EF4E701CBD8008EBFFCD
:100ABE00EAFEE9FD80EBE98DF0A4FEE5F0020B57AE
:100ACE00E9CDF9EAFEEBFFEF89F0A4FCE5F0CE8963
:100ADE00F0A42EFFE435F0CD89F0A42DFEE435F020
:100AEE008067EF4E7005BD80D780C3EF8BF0A4AC4E
:100AFE00F0EE8BF0A42CFCE435F0F8EF8AF0A42C89
:100B0E00E5F038FCE433CB8DF0A42CFCE5F03BF89B
:100B1E00EE8AF0A42CFCE5F038F8E433CF89F0A48B
:100B2E002CFCE5F038CF3400CE89F0A42FFFE5F091
:100B3E003EFEE433C98DF0A42EFEE5F039CD8AF0E9
:100B4E00A42FFFE5F03EFEE43DFD33D0E0FB500761
:100B5E000BBB000F020CC8EC2CFCEF33FFEE33FE88
:060B6E00ED33FD020CA0B6
:100B7400020CC8EC5D046005E859047003020CBE65
:100B8400120C89580460F6EC4860F2EC7004FDFE27
:100B9400FF22C860DB2481C85009C3986002500654
:100BA400020CC59850CAF582E9294B4A7005AB82FC
:100BB400020CB475F0007C1A7880C3EF9BEE9AEDBA
:100BC40099400DC3EF9BFFEE9AFEED99FDE842F0CC
:100BD400DC23ACF0D0E0FFD0E0FED0E0FDAB82201F
:100BE400E7101BEB60BAEC2CFCEF33FFEE33FEEDA9
:100BF40033FD020CA0E803F830E705C0F075F000FF
:100C0400EF2FFFEE33FEED33FD40B830E7C280AA8C
:100C140075F020800E75F010800575F0087D007E5B
:100C2400007F003392D530D503121054EC334010BA
:100C3400EF33FFEE33FEED33FDEC33FCD5F0ED2264
:0E0C4400E5F0247EA2D513CC92E7CDCEFF22A0
:100C5200EDD2E7CD33EC3392D524814006E4FFFE9A
:100C6200FDFC22FCE4CFCECDCC24E0501174FF80F9
:100C7200EDC3CC13CCCD13CDCE13CECF13CF047096
:070C8200F030D5DE02105432
:100C8900E9D2E7C933E833F892D5EDD2E7CD33ECB1
:070C990033FC5002B2D5222A
:100CA000EC30E7100FBF000C0EBE00080DBD0004B5
:100CB0000BEB6014A2D5EB13FCED92E7FD2274FF61
:100CC000FCFDFEFF22E480F8A2D574FF13FC7D80BA
:030CD000E480EFCE
:03000000022B6868
:0C2B6800787FE4F6D8FD758170022BAF79
:100CD300E709F608DFFA8046E709F208DFFA803E03
:100CE30088828C83E709F0A3DFFA8032E309F608F0
:100CF300DFFA8078E309F208DFFA807088828C8358
:100D0300E309F0A3DFFA806489828A83E0A3F6080B
:100D1300DFFA805889828A83E0A3F208DFFA804CE5
:100D230080D280FA80C680D4806980F280338010BC
:100D330080A680EA809A80A880DA80E280CA803325
:100D430089828A83ECFAE493A3C8C582C8CCC5839D
:100D5300CCF0A3C8C582C8CCC583CCDFE9DEE7806D
:100D63000D89828A83E493A3F608DFF9ECFAA9F0EC
:100D7300EDFB2289828A83ECFAE0A3C8C582C8CC42
:100D8300C583CCF0A3C8C582C8CCC583CCDFEADE5B
:100D9300E880DB89828A83E493A3F208DFF980CCBD
:100DA30088F0EF60010E4E60C388F0ED2402B404B6
:100DB3000050B9F582EB2402B4040050AF2323455D
:060DC3008223900D237352
:100DC900BB010689828A83E0225002E722BBFE0228
:090DD900E32289828A83E493225B
:100DE200BB010CE58229F582E5833AF583E02250C6
:100DF20006E92582F8E622BBFE06E92582F8E22210
:0D0E0200E58229F582E5833AF583E4932229
:100E0F00BB010689828A83F0225002F722BBFE01C2
:020E1F00F322BC
:100E2100F8BB010DE58229F582E5833AF583E8F007
:100E3100225006E92582C8F622BBFE05E92582C8B3
:020E4100F2229B
:100E4300EF8DF0A4A8F0CF8CF0A428CE8DF0A42EC3
:020E5300FE227D
:100E5500BC000BBE0029EF8DF084FFADF022E4CC81
:100E6500F875F008EF2FFFEE33FEEC33FCEE9DEC4A
:100E7500984005FCEE9DFE0FD5F0E9E4CEFD22ED90
:100E8500F8F5F0EE8420D21CFEADF075F008EF2FDA
:100E9500FFED33FD4007985006D5F0F222C398FDCB
:050EA5000FD5F0EA2268
:100EAA00C2D5EC30E709B2D5E4C39DFDE49CFCEE63
:100EBA0030E715B2D5E4C39FFFE49EFE120E55C378
:100ECA00E49DFDE49CFC8003120E5530D507C3E473
:060EDA009FFFE49EFE22D2
:100EE000C5F0F8A3E028F0C5F0F8E582158270029D
:060EF0001583E038F0223A
:100EF600A3F8E0C5F025F0F0E582158270021583AF
:060F0600E0C838F0E8220B
:100F0C00BB010A89828A83E0F5F0A3E022500687B0
:100F1C00F009E71922BBFE07E3F5F009E319228972
:0B0F2C00828A83E493F5F074019322A5
:100F3700E88FF0A4CC8BF0A42CFCE98EF0A42CFC59
:100F47008AF0EDA42CFCEA8EF0A4CDA8F08BF0A4D7
:100F57002DCC3825F0FDE98FF0A42CCD35F0FCEB36
:100F67008EF0A4FEA9F0EB8FF0A4CFC5F02ECD39FB
:0F0F7700FEE43CFCEAA42DCE35F0FDE43CFC2268
:100F860075F008758200EF2FFFEE33FECD33CDCC22
:100F960033CCC58233C5829BED9AEC99E5829840A5
:100FA6000CF582EE9BFEED9AFDEC99FC0FD5F0D682
:100FB600E4CEFBE4CDFAE4CCF9A88222B800C1B9AC
:100FC6000059BA002DEC8BF084CFCECDFCE5F0CBEA
:100FD600F97818EF2FFFEE33FEED33FDEC33FCEB23
:100FE60033FB10D703994004EB99FB0FD8E5E4F9DE
:100FF600FA227818EF2FFFEE33FEED33FDEC33FCCB
:10100600C933C910D7059BE99A4007EC9BFCE99ABE
:10101600F90FD8E0E4C9FAE4CCFB2275F010EF2F03
:10102600FFEE33FEED33FDCC33CCC833C810D70703
:101036009BEC9AE899400AED9BFDEC9AFCE899F83E
:0E1046000FD5F0DAE4CDFBE4CCFAE4C8F922D1
:10331200C2D5E830E70FB2D5E4C39BFBE49AFAE4E6
:1033220099F9E498F8EC30E717B2D5123348120F46
:10333200C2E4C39BFBE49AFAE499F9E498F88003A7
:10334200120FC230D50DE4C39FFFE49EFEE49DFD43
:04335200E49CFC22D9
:0E105400C3E49FFFE49EFEE49DFDE49CFC22AD
:10106200E8600FECC313FCED13FDEE13FEEF13FF6C
:03107200D8F12290
:10107500E86010ECA2E713FCED13FDEE13FEEF1391
:04108500FFD8F0227E
:10108900E8600FEFC333FFEE33FEED33FDEC33FCC5
:03109900D8F12269
:10109C00E493FC740193FD740293FE740393FF229A
:0C10AC00ECF0A3EDF0A3EEF0A3EFF022B7
:0C10B800A42582F582E5F03583F5832243
:0610C4008A838982E473B7
:1010CA00E709F60870FA8046E709F20870FA803EE6
:1010DA0088828C83E709F0A370FA807EE309F60818
:1010EA0070FA8076E309F20870FA806E88828C833F
:1010FA00E309F0A370FA806289828A83E0A3F60882
:10110A0070FA805689828A83E0A3F20870FA804ACC
:10111A0080D280FA80C680D4806580F280318010C7
:10112A0080A680EA809A80A880DA80E280CA80312C
:10113A0089828A83ECFAE493A3C8C582C8CCC583A2
:10114A00CCF0A3C8C582C8CCC583CC70E9800D8910
:10115A00828A83E493A3F60870F9ECFAA9F0EDFB0E
:10116A002289828A83ECFAE0A3C8C582C8CCC583E7
:10117A00CCF0A3C8C582C8CCC583CC70EA80DD890F
:10118A00828A83E493A3F20870F980CE88F0ED2472
:10119A0002B4040050C4F582EB2402B4040050BA2D
:0911AA00232345822390111A73DE
:1039CA00E4FFFE120DC9600C0FEF70010E09E970D9
:0539DA00F20A80EF225B
:10391900E94A4B700122120DC9FF6D700122EF7047
:0C39290004FBFAF92209E970ED0A80EABB
:1011B300EF4E6012EF60010EEDBB010B89828A8353
:1011C300F0A3DFFCDEFA2289F05007F709DFFCA960
:0C11D300F022BBFEFCF309DFFCA9F022B7
:102B7400022EE5E493A3F8E493A34003F68001F264
:102B840008DFF48029E493A3F85407240CC8C33362
:102B9400C4540F4420C8834004F456800146F6DF31
:102BA400E4800B0102040810204080901821E47E88
:102BB400019360BCA3FF543F30E509541FFEE49326
:102BC400A360010ECF54C025E060A840B8E493A3ED
:102BD400FAE493A3F8E493A3C8C582C8CAC583CA18
:102BE400F0A3C8C582C8CAC583CADFE9DEE780BED0
:0119DB00000B
:00000001FF
