:101CAE0000A8C0003F065B4F666D7D077F6F000882
:101CBE0040014148BF86DBCFE6EDFD87FFEF777F22
:101CCE00393F79717D76061E383F736D3E6E5F7CAF
:101CDE00585E7B716F741038545C7367506D781C4E
:011CEE006E87
:101E9E007F98121DEB121F20121F037D07E4FF1205
:101EAE001FDB7BFF7A1A79C97F03121A4C12201797
:051EBE00121DAD80FBC8
:091FD2008B88898C88898F88892D
:1016090052007A868600868600868600868600864F
:09161900860086860041006F097D
:03002B0002200BA5
:06200B0053BCEFD20F32BE
:020F7C00154D11
:100F7E00200F03021125C20F90006EE0B40900404D
:100F8E0003021107900F99F8282873020FE0020F41
:100F9E00B4020FC6020FF2020FB4020FC6021009FE
:100FAE00020FB4020FC6AFBDEFFEADBE7C00E42D46
:100FBE00FFEC3E900070803CAFBDEFFEADBE7C00FE
:100FCE00E42DFFEC3E900072F0A3EFF0751A0102D3
:100FDE00110DAFBDEFFEADBE7C00E42DFFEC3E90DB
:100FEE0000748010AFBDEFFEADBE7C00E42DFFECB3
:100FFE003E900076F0A3EFF002110DAFBDEFFEAD07
:10100E00BE7C00E42DFFEC3E900078F0A3EFF09054
:10101E000078E0FEA3E07807CEC313CE13D8F9A86C
:10102E004DF6C394065013A84DE675F003A4247A2A
:10103E00F582E43400F583E014F090006FE014F0D4
:10104E00600302110D7409F0A84DE4F6A84DE6FFF9
:10105E00C39406400302110DEF75F003A4247AF534
:10106E0082E43400F583E0C39480502AE6FF75F0E5
:10107E0003A4247BF582E43400F583E0D39480400E
:10108E0040EF75F003A4247CF582E43400F58374FC
:10109E0001F0F51B802BA84DE6FF75F003A4247B11
:1010AE00F582E43400F583E0C394805014EF75F0BC
:1010BE0003A4247CF582E43400F5837402F0751BDE
:1010CE0001A84DE6FF75F003A4247AF582E43400FE
:1010DE00F583E0FEEF75F003A4247BF582E4340083
:1010EE00F583EEF0E675F003A4247AF582E434007D
:1010FE00F5837486F00602105A90006E74FFF0901D
:10110E00006EE0D39407400374FFF090006EE0048D
:07111E00F0901FD293F5BC15
:03112500054D2253
:021FA800154DD5
:091FAA00A84DA61BE4F51BE6FF9F
:031FB300054D22B7
:021FB600154DC7
:091FB800A84DA61AE4F51AE6FF93
:031FC100054D22A9
:101DEB008F9D75BC88439720D2AD90004574FFF052
:101DFB00A3740FF0A3747CF0A374FFF0A3741FF013
:101E0B00A374A8F0A374FFF0A3741FF0A374B6F02F
:011E1B0022A4
:071FF6007B017A00797022E3
:101C2400C3EF64809480403BD3EF64809485503349
:101C3400EFFD3395E0FC90007C75F003ED120CA0F1
:101C4400EC75F003A42583F583E0FE90007C75F029
:101C540003ED120CA0EC75F003A42583F583E4F0E6
:051C6400AF06227F0322
:011C69002258
:10152000E4F580900097E0FFB40800505F90153418
:10153000F828287302154C02155202155802155E40
:1015400002156402156E021578021582C2A3C2A2AA
:101550008016C2A3C2A2801AC2A3C2A2801EC2A3C6
:10156000C2A28022C2A3D2A2C2A1C2A08020C2A3D2
:10157000D2A2C2A1D2A08016C2A3D2A2D2A1C2A0DE
:10158000800CC2A3D2A2D2A1D2A08002D2A3C3EF68
:10159000648094885029900097E0FF3395E0FE74B2
:1015A0008E2FF58274003EF583E0FF3395E0FE74E4
:1015B000B22FF582741C3EF583E493F580801E9073
:1015C0000097E0FFB408133395E0FE748E2FF58288
:1015D00074003EF583E0F5808003E4F58090008D93
:1015E000E0FF900097E004FEF0D3EF6480F8EE6433
:1015F00080984014E0D36480948850047408F022EA
:0916000090008CE0900097F022AC
:101F2000E4F5937594FF5395F043960F90002A744F
:0B1F3000FFF0A37415F0A37420F02252
:091FDB0090008CEFF0A3EDF02260
:101EC30090008EEFF0A3EDF0A3EBF0A3E53FF0A3BA
:101ED300E540F0A3E541F0A3E542F0A3E543F0229A
:06201100900096EFF022A2
:10162200014C0049009994940094940094940041D0
:0316320000981EFF
:02112800154D63
:10112A0020B206900099E014F020B30690009CE0EB
:10113A0014F020970690009FE014F0900098E014B5
:10114A00F06003021248741EF0A84DE4F6A84DE6BA
:10115A00FFC3648094834003021248EF3395E0FE94
:10116A0090009975F003EF120CA0EE75F003A42518
:10117A0083F583E0C39480503990009A75F003EFA9
:10118A00120CA0EE75F003A42583F583E0D39480B6
:10119A00405AE6FF3395E0FE90009B75F003EF128C
:1011AA000CA0EE75F003A42583F5837401F0F54CC9
:1011BA00803AA84DE6FF3395E0FE90009A75F00359
:1011CA00EF120CA0EE75F003A42583F583E0C39417
:1011DA0080501990009B75F003EF120CA0EE75F089
:1011EA0003A42583F5837402F0754C01A84DE6FF2C
:1011FA00FD3395E0FC90009975F003ED120CA0EC1C
:10120A0075F003A42583F583E0FE90009A75F00338
:10121A00ED120CA0EC75F003A42583F583EEF0EF34
:10122A003395E0FE90009975F003EF120CA0EE756D
:0E123A00F003A42583F5837494F00602115787
:03124800054D222F
:021FC400154DB9
:091FC600A84DA64CE4F54CE6FF21
:031FCF00054D229B
:101F030090003074FFF0A3741FF0A374C4F090002A
:0D1F13002D74FFF0A37411F0A37428F022C8
:101CEF00EF600764016003BF0233EFFD3395E0FC43
:101CFF0090009B75F003ED120CA0EC75F003A4257A
:101D0F0083F583E0FE90009B75F003ED120CA0ECC1
:0F1D1F0075F003A42583F583E4F0AF06227F035C
:011D2E002292
:101635004100000A4100290A41006D0A040E00001C
:1016450000000114004600670000FFFF8FFFC10D79
:10165500C105C108C101C10E60240005FF2028FF96
:101665002028FF2028FF2028FF2028FF2028FF20F2
:1016750028FF2028FF2028FF2028FF2028FF2028DA
:101685006036002AFF2028FF2028FF2022FF20287F
:10169500FF2022FF2028FF2022FF2028FF2028FFEF
:1016A5002028FF2022FF2022FF2022FF2022FF20CA
:0A16B50028FF2028FF2028FF20282E
:012028002295
:032022007F00221A
:101BDD00438E805389F07BE07A2879017800901C40
:101BED00AE120C84121C6AEFF404F58A7BE07A289D
:101BFD0079017800901CAE120C84121C6AC3E49F0C
:101C0D00FFE49EFE74019DFDE49CFC7808120C70AF
:071C1D008F8CD28CD2A922AA
:03000B00021B8B4A
:041B8B00C0E0C0D026
:101B8F00D5080A75084C300D020514D20DA2037248
:101B9F00045036150AE50A7030850C0AD207300A50
:101BAF0017E50D6007150D438F01801D538FFEC282
:101BBF00B5D51615C20A8011050BE50BD394064057
:091BCF0008C203E5136002D2060E
:051BD800D0D0D0E03286
:101B3800300E47C20E901CAE120C847810120C7036
:101B48008E1C8F1D900003E0FEA3E0FFE4FCFD7BEC
:101B580019FAF9F8120C13C006C007AE1CAF1DAB7A
:101B680007AA06E4F9F8D007D006121C6A7803120F
:101B78000C70900065EEF0A3EFF0900065E0FEA316
:021B8800E0FF7C
:011B8A002238
:091FE400900067E0FEA3E0FF227B
:091FED00900067EEF0A3EFF02272
:101F970090006BEEF0A3EFF0900069ECF0A3EDF08A
:011FA7002217
:03202500C2B42220
:03003B000216D7D3
:1016D700C0E0C083C082C0D075D000C004C005C0C0
:0316E70006C00733
:1016EA0030DF04C2DF807D30DA04C2DA807630D996
:1016FA003DC2D9AFFBEFFEADEB7C00E42DFFEC3E23
:10170A0020000E900001F0A3EFF075DB11D20080EB
:10171A0053FE900001E0FCA3E0FDC3EF9DFFEE9CA9
:10172A00A3F0A3EFF075DB00C200D20E803630D8EA
:10173A0033C2D8900067E07002A3E06022B2B4908E
:10174A000069E0FEA3E0F5EAEEF5FAA3E0FEA3E005
:10175A00FF90006AE02FF0900069E03EF08005C239
:04176A00B453DAFE9C
:10176E00D007D006D005D004D0D0D082D083D0E020
:01177E003238
:06201700121BDDD2AF2216
:101943003004047F0180027F00200A047E018002AC
:101953007E00EE5F6074E515C3950950683002366A
:10196300750D01E515131313541FAB17AA18A91905
:10197300F582758300120B5BFFE515540704FEEF38
:10198300A806088002C333D8FC30D7057516038038
:101993002F751601802AAB17AA18A91975F002E54D
:1019A30015A4F58285F083120B5BF50DE51575F033
:1019B30002A429F9EA35F0FA900001120B5BF5163F
:0A19C3000515D20A22C204438F105A
:0119CD0022F7
:10134900900000E014F0701F740AF0D20590002993
:10135900E014F07012740AF0D20890006DE014F0F5
:101369007005740AF0D20190002AA3E0FAA3E0F90B
:10137900120CAC90002DA3E0FAA3E0F9120CAC908A
:101389000039A3E0FAA3E0F9120CAC900045A3E000
:10139900FAA3E0F9120CAC900054A3E0FAA3E0F927
:1013A900120CAC90005DA3E0FAA3E0F9120CAC902A
:1013B900004BA3E0FAA3E0F9120CACEF600C90002B
:1013C9001DA3E0FAA3E0F9120CAC90004EA3E0FAD9
:1013D900A3E0F9120CACEF600E900020A3E0FAA391
:1013E900E0F9120CACD20BE512D394004016D512D9
:1013F9003030090C900023A3E0FAA3E0F9120CACF9
:10140900D20C801D900051A3E0FAA3E0F9120CACB4
:10141900EF600E900023A3E0FAA3E0F9120CACD21E
:0D1429000C900005A3E0FAA3E0F9020CAC62
:1018240090003FA3E0FAA3E0F9120CAC900042A3AD
:10183400E0FAA3E0F9120CAC900033A3E0FAA3E0C1
:10184400F9120CAC900008A3E0FAA3E0F9120CAC76
:10185400900030A3E0FAA3E0F9120CACEF600C9016
:101864000011A3E0FAA3E0F9120CAC900036A3E057
:10187400FAA3E0F9120CACEF600C900017A3E0FAA5
:10188400A3E0F9120CAC900048A3E0FAA3E0F9122B
:101894000CACEF600C90001AA3E0FAA3E0F9120C70
:1018A400AC30060EC206900026A3E0FAA3E0F912BB
:0318B4000CAC2257
:101D2F0090000BA3E0FAA3E0F9120CAC90003CA3D7
:101D3F00E0FAA3E0F9120CACEF600C900014A3E0F2
:101D4F00FAA3E0F9120CAC900057A3E0FAA3E0F964
:0F1D5F00120CAC90005AA3E0FAA3E0F9020CAC0E
:101E4A00AF11AE10AD0FAC0E900060120C94900062
:101E5A0064E514F0E4F511F510F50FF50EF514909C
:0B1E6A00000EA3E0FAA3E0F9020CACAC
:101DAD00300705C207121943300D05C20D12134934
:101DBD00300505C205121824300805C208121D2F62
:101DCD00300105C201121E4AE5112401F511E43559
:0E1DDD0010F510E4350FF50FE4350EF50E226B
:101A4C008B3C8A3D893EEFB40C005070901A5FF8C5
:101A5C00282873021A83021A88021A8D021A92021B
:101A6C001A97021A9C021AA1021AA6021AAB021A9F
:101A7C00B0021AB5021ABA900005803590000880A1
:101A8C003090000B802B90000E802690001180214E
:101A9C00900017801C900014801790001A801290F0
:101AAC00001D800D90002080089000238003900082
:0D1ABC0026E53CF0A3E53DF0A3E53EF02259
:071FFD007B017A00796022EC
:0F16BF00023106C9073300000000000000C1100F
:1019CE0012201D8E3A8F3B20103EAC31AD32E41208
:1019DE0009AB7466FBFAF97840120800C004C00522
:1019EE00C006C007AC3AAD3BEC1209ABA804A90582
:1019FE00AA06AB07D007D006D005D00412090912EB
:101A0E0009E48E3C8F3D8006753C00753D14AE3C5E
:101A1E00AF3D7C007D3C120B888F34AE3CAF3D7CDD
:101A2E00007D3C120B888D33783E7C007D007B0060
:0E1A3E007A0079337E007F07120B35021F54A9
:101AC90012200478337C007D007E007F07120B35DD
:101AD900E534700BE5337007B2101219CE800DE5AD
:101AE90033700775333B153480021533783E7C001B
:101AF9007D007B007A0079337E007F07120B351257
:101B09001F54E53475F00A84F53FE53475F00A840D
:101B190085F04075410AE53375F00A84F542E533ED
:0F1B290075F00A8485F0437B0AE4FDFF021EC3BA
:0416CE00021E0038C0
:05201D00AE1EAF1F2202
:101D6E00AE1EAF1F7C007D64120BDDAB07AE1EAF47
:101D7E001F7C007D0A120BDD7C007D0A120BDD8DAF
:101D8E00428B41753F2E75402DAE1EAF1F7C007DE0
:0F1D9E000A120BDD8D437B2E7D367F27021EC37D
:100D800000EF00C500AF00A00096008E0087008134
:100D9000007C007800740071006D006B00680065D5
:100DA00000630061005F005D005B005A0058005660
:100DB00000550054005200510050004E004D004CB0
:100DC000004B004A004900480047004600450044E7
:100DD00000430043004200410040003F003F003E0E
:100DE000003D003D003C003B003A003A003900392C
:100DF0000038003700370036003600350034003444
:100E00000033003300320032003100310030003056
:100E1000002F002F002E002E002D002D002C002C66
:100E2000002B002B002A002A002900290029002875
:100E30000028002700270026002600260025002580
:100E4000002400240024002300230022002200228A
:100E500000210021002000200020001F001F001F93
:100E6000001E001E001D001D001D001C001C001C9B
:100E7000001B001B001B001A001A001A00190019A1
:100E800000180018001800170017001700160016A9
:100E900000160015001500150014001400140013AE
:100EA00000130013001200120012001100110010B4
:100EB00000100010000F000F000F000E000E000EBB
:100EC000000D000D000D000C000C000C000B000BC1
:100ED000000B000A000A00090009000900080008C8
:100EE00000080007000700070006000600050005CF
:100EF00000040004000300030003000200020001DC
:100F00000001000100000000FFFFFFFFFFFFFFFEE8
:100F1000FFFEFFFDFFFDFFFCFFFCFFFBFFFBFFFAF9
:100F2000FFFAFFF9FFF9FFF8FFF8FFF7FFF7FFF609
:100F3000FFF6FFF5FFF5FFF4FFF3FFF3FFF2FFF21B
:100F4000FFF1FFF0FFF0FFEFFFEEFFEDFFEDFFEC35
:100F5000FFEBFFEAFFE9FFE8FFE7FFE6FFE5FFE45D
:100F6000FFE3FFE2FFE0FFDFFFDDFFDCFFDAFFD89A
:0C0F7000FFD5FFD2FFCEFFC9FFC1016911
:10143600121FF678257C007D007E007F0A120B3590
:1014460085292F852A30E530AE2F7802CEC313CEFC
:1014560013D8F9F5308E2FC3E5239400E5305033C9
:1014660025E0FFE52F33FE74802FF582740D3EF5DF
:1014760083E493FE740193FF7C007D0A120B887C43
:10148600007D0A120B888D42753F0A75400A754128
:101496000C805A25E0FFE52F33FE74802FF5827409
:1014A6000D3EF583E493FE740193FF7C007D641288
:1014B6000B887C007D0A120B88AB05E53025E0FF22
:1014C600E52F33FE74802FF582740D3EF583E49389
:1014D600FE740193FF7C007D0A120B887C007D0A56
:1014E600120B888D428B41753F0A75400AE53025FF
:1014F600E0FFE52F33FE74802FF582740D3EF583F1
:10150600E493FE740193FF7C007D0A120B888D43E1
:0A1516007B0A7D0A7F0A121EC32221
:0416D2004100AA0128
:101F3B00C295E4FEEF1392CC000000D29500EFC3E4
:081F4B0013FFC2950EBE08EC65
:011F5300226B
:101F6D00E4FEEFC313FF30CC03430780D29500008E
:071F7D0000C2950EBE08EB47
:011F8400223A
:101E1C00F07F85121E2FA3EFF07F87121E2FA3EFEA
:031E2C00F07F89BB
:101E2F00C296000000C295000000D29600121F3B20
:0A1E3F00121F6DD295000000C2963C
:011E49002276
:031EE300A3E0FD7C
:101EE600C296000000C295000000D29600121F3B69
:0D1EF600AF05121F3BD295000000C29622DE
:072004007B017A0079A322A1
:101F540078A37C007D017B007A00793E7E007F07B8
:091F6400120B35E49000AAF022F2
:101F8500EFD3941F5009EF25E044C1FF021E2F7FB8
:021F9500012227
:101E7500AC07AB05ECD3941F501CE4FD7F8E121EFE
:101E8500E6EC25E044C0FFAD03121EE67D807F8EA3
:091E9500121EE67F00227F0122EB
:02177F00154D06
:101781009000AAE060447F81121E2FA84DEFF690D1
:1017910000A3E06F7003021821A84DE6F07F8312C9
:1017A1001E2FA84DEFF6A3E06F6075A84DE6121E3F
:1017B1001CA3EFF07F8D121E2F9000A9EFF07F8BFD
:1017C100121E2F9000A8EFF080569000A2E0FF04B7
:1017D100F0EFC3940A4049E4F09000AA04F0E4FD5C
:1017E1007F8E121EE69000A3E0FD7F80121EE67F31
:1017F10082121EE37F84121EE3A3E0FD7F86121E88
:10180100E6A3E0FD7F88121EE6A3E0FD7F8A121E9B
:10181100E6A3E0FD7F8C121EE67D807F8E121EE620
:03182100054D2250
:10124B007F81121E2F9000A3EFF07F83121E2FA31E
:10125B00EF121E1CA3EFF07F8B121E2FA3EFF07F5C
:10126B008D121E2FA3EFF0E4FD7F8E121EE67F1E64
:10127B00121F85EF64A560047F0180027F00900040
:10128B00A3E05480FEA3E0D3945940047D01800277
:10129B007D00ED4EFE9000A5E0D394A440047D01AB
:1012AB0080027D00ED4EFE9000A6E0D39431400409
:1012BB007D0180027D00ED4EFE9000A7E0D39412DD
:1012CB0040047D0180027D00ED4EFE9000A8E0D32E
:1012DB00940740047D0180027D00ED4EFE9000A935
:1012EB00E0D3949940047D0180027D00ED4E4F6068
:1012FB0030783E7C007D007B007A0079457E007F54
:10130B0007120B35121F547DA57F1E121E7578A375
:10131B007C007D017B007A0079457E007F07120BF4
:10132B00357DA97F90121EE67D807F8E121EE69082
:0E133B00005A74FFF0A37417F0A3747FF02221
:10080000EC4D6011E8497017ED33EC3304600DE4F2
:10081000FCFFFEFD22E933E8330470F8020A5012AF
:100820000A1B58046009E4CC2481500628500902B0
:100830000A5A284003020A57C0E0EB4A7044B980C4
:1008400006D0E0FB020A46EF4E701CBD8008EBFFAD
:10085000EAFEE9FD80EBE98DF0A4FEE5F00208E98F
:10086000E9CDF9EAFEEBFFEF89F0A4FCE5F0CE89D3
:10087000F0A42EFFE435F0CD89F0A42DFEE435F090
:100880008067EF4E7005BD80D780C3EF8BF0A4ACBE
:10089000F0EE8BF0A42CFCE435F0F8EF8AF0A42CF9
:1008A000E5F038FCE433CB8DF0A42CFCE5F03BF80C
:1008B000EE8AF0A42CFCE5F038F8E433CF89F0A4FC
:1008C0002CFCE5F038CF3400CE89F0A42FFFE5F002
:1008D0003EFEE433C98DF0A42EFEE5F039CD8AF05A
:1008E000A42FFFE5F03EFEE43DFD33D0E0FB5007D2
:1008F0000BBB000F020A5AEC2CFCEF33FFEE33FE69
:06090000ED33FD020A3296
:10090600020A5AEC5D046005E859047003020A50B5
:10091600120A1B580460F6EC4860F2EC7004FDFE07
:10092600FF22C860DB2481C85009C39860025006C4
:10093600020A579850CAF582E9294B4A7005AB82DC
:10094600020A4675F0007C1A7880C3EF9BEE9AED9A
:1009560099400DC3EF9BFFEE9AFEED99FDE842F03C
:10096600DC23ACF0D0E0FFD0E0FED0E0FDAB82208F
:10097600E7101BEB60BAEC2CFCEF33FFEE33FEED19
:1009860033FD020A32E803F830E705C0F075F000DF
:10099600EF2FFFEE33FEED33FD40B830E7C280AAFD
:1009A60075F020800E75F010800575F0087D007ECC
:1009B600007F003392D530D503120C62EC33401021
:1009C600EF33FFEE33FEED33FDEC33FCD5F0ED22D5
:0E09D600E5F0247EA2D513CC92E7CDCEFF2211
:1009E400EDD2E7CD33EC3392D524814006E4FFFE0B
:1009F400FDFC22FCE4CFCECDCC24E0501174FF806A
:100A0400EDC3CC13CCCD13CDCE13CECF13CF047006
:070A1400F030D5DE020C6298
:100A1B00E9D2E7C933E833F892D5EDD2E7CD33EC21
:070A2B0033FC5002B2D5229A
:100A3200EC30E7100FBF000C0EBE00080DBD000425
:100A42000BEB6014A2D5EB13FCED92E7FD2274FFD1
:100A5200FCFDFEFF22E480F8A2D574FF13FC7D802A
:030A6200E480EF3E
:030000000218B72C
:0C18B700787FE4F6D8FD75814D0218FE24
:100A6500E709F608DFFA8046E709F208DFFA803E73
:100A750088828C83E709F0A3DFFA8032E309F60860
:100A8500DFFA8078E309F208DFFA807088828C83C8
:100A9500E309F0A3DFFA806489828A83E0A3F6087C
:100AA500DFFA805889828A83E0A3F208DFFA804C56
:100AB50080D280FA80C680D4806980F2803380102D
:100AC50080A680EA809A80A880DA80E280CA803396
:100AD50089828A83ECFAE493A3C8C582C8CCC5830E
:100AE500CCF0A3C8C582C8CCC583CCDFE9DEE780DE
:100AF5000D89828A83E493A3F608DFF9ECFAA9F05D
:100B0500EDFB2289828A83ECFAE0A3C8C582C8CCB2
:100B1500C583CCF0A3C8C582C8CCC583CCDFEADECB
:100B2500E880DB89828A83E493A3F208DFF980CC2D
:100B350088F0EF60010E4E60C388F0ED2402B40426
:100B45000050B9F582EB2402B4040050AF232345CD
:060B55008223900AB57333
:100B5B00BB010CE58229F582E5833AF583E022504F
:100B6B0006E92582F8E622BBFE06E92582F8E22299
:0D0B7B00E58229F582E5833AF583E49322B3
:100B8800BC000BBE0029EF8DF084FFADF022E4CC51
:100B9800F875F008EF2FFFEE33FEEC33FCEE9DEC1A
:100BA800984005FCEE9DFE0FD5F0E9E4CEFD22ED60
:100BB800F8F5F0EE8420D21CFEADF075F008EF2FAA
:100BC800FFED33FD4007985006D5F0F222C398FD9B
:050BD8000FD5F0EA2238
:100BDD00C2D5EC30E709B2D5E4C39DFDE49CFCEE33
:100BED0030E715B2D5E4C39FFFE49EFE120B88C318
:100BFD00E49DFDE49CFC8003120B8830D507C3E413
:060C0D009FFFE49EFE22A1
:100C1300E88FF0A4CC8BF0A42CFCE98EF0A42CFC80
:100C23008AF0EDA42CFCEA8EF0A4CDA8F08BF0A4FE
:100C33002DCC3825F0FDE98FF0A42CCD35F0FCEB5D
:100C43008EF0A4FEA9F0EB8FF0A4CFC5F02ECD3922
:0F0C5300FEE43CFCEAA42DCE35F0FDE43CFC228F
:101C6A00C2D5E830E70FB2D5E4C39BFBE49AFAE4A5
:101C7A0099F9E498F8EC30E717B2D5121CA0120CC7
:101C8A00EEE4C39BFBE49AFAE499F9E498F880033A
:101C9A00120CEE30D50DE4C39FFFE49EFEE49DFDD9
:041CAA00E49CFC2298
:0E0C6200C3E49FFFE49EFEE49DFDE49CFC22A3
:100C7000E86010ECA2E713FCED13FDEE13FEEF139A
:040C8000FFD8F02287
:100C8400E493FC740193FD740293FE740393FF22B6
:0C0C9400ECF0A3EDF0A3EEF0A3EFF022D3
:0C0CA000A42582F582E5F03583F583225F
:060CAC008A838982E473D3
:1018C300021E9EE493A3F8E493A34003F68001F27F
:1018D30008DFF48029E493A3F85407240CC8C33326
:1018E300C4540F4420C8834004F456800146F6DFF5
:1018F300E4800B0102040810204080901609E47E66
:10190300019360BCA3FF543F30E509541FFEE493E9
:10191300A360010ECF54C025E060A840B8E493A3B0
:10192300FAE493A3F8E493A3C8C582C8CAC583CADB
:10193300F0A3C8C582C8CAC583CADFE9DEE780BE93
:0116D6000013
:100CB20075F008758200EF2FFFEE33FECD33CDCCF9
:100CC20033CCC58233C5829BED9AEC99E58298407C
:100CD2000CF582EE9BFEED9AFDEC99FC0FD5F0D659
:100CE200E4CEFBE4CDFAE4CCF9A88222B800C1B983
:100CF2000059BA002DEC8BF084CFCECDFCE5F0CBC1
:100D0200F97818EF2FFFEE33FEED33FDEC33FCEBF9
:100D120033FB10D703994004EB99FB0FD8E5E4F9B4
:100D2200FA227818EF2FFFEE33FEED33FDEC33FCA1
:100D3200C933C910D7059BE99A4007EC9BFCE99A95
:100D4200F90FD8E0E4C9FAE4CCFB2275F010EF2FDA
:100D5200FFEE33FEED33FDCC33CCC833C810D707DA
:100D62009BEC9AE899400AED9BFDEC9AFCE899F815
:0E0D72000FD5F0DAE4CDFBE4CCFAE4C8F922A8
:00000001FF
