:10308F007F981239CB123DAA123D397D07E4FF120A
:10309F003FEEE4F50C7F807E25FDFC1226F4123402
:1030AF007812336D123B641237B3123FCF750D0197
:1030BF00750E01750F70E4F510F5117B017A01792A
:1030CF00707D01FC1239FC7BFF7A3E796A7F0A1210
:1030DF0030127BFF7A3F793B7F031230127BFF7AEE
:1030EF004079417F021230127BFF7A2B79967F074E
:0B30FF0012301212402C12387480FBBB
:093FE5008B88898C88898F8889FA
:101C40005200F2868600868600868600868600869A
:091C500086008686004100E709C8
:03002B0002402070
:0640200053BCEFD20F3289
:021A94001572C9
:101A9600200F03021C3DC20F9000E6E0B40900408F
:101AA60003021C1F901AB1F8282873021AF8021AAA
:101AB600CC021ADE021B0A021ACC021ADE021B2113
:101AC600021ACC021ADEAFBDEFFEADBE7C00E42DDD
:101AD600FFEC3E9000E8803CAFBDEFFEADBE7C0063
:101AE600E42DFFEC3E9000EAF0A3EFF0756A0102E8
:101AF6001C25AFBDEFFEADBE7C00E42DFFEC3E9095
:101B060000EC8010AFBDEFFEADBE7C00E42DFFEC17
:101B16003E9000EEF0A3EFF0021C25AFBDEFFEAD48
:101B2600BE7C00E42DFFEC3E9000F0F0A3EFF090B9
:101B360000F0E0FEA3E07807CEC313CE13D8F9A8D1
:101B460072F6C394065013A872E675F003A424F245
:101B5600F582E43400F583E014F09000E7E014F039
:101B66006003021C257409F0A872E4F6A872E6FF69
:101B7600C394064003021C25EF75F003A424F2F576
:101B860082E43400F583E0C39480502AE6FF75F0C2
:101B960003A424F3F582E43400F583E0D394804073
:101BA60040EF75F003A424F4F582E43400F5837461
:101BB60001F0F56B802BA872E6FF75F003A424F301
:101BC600F582E43400F583E0C394805014EF75F099
:101BD60003A424F4F582E43400F5837402F0756BF3
:101BE60001A872E6FF75F003A424F2F582E434003E
:101BF600F583E0FEEF75F003A424F3F582E43400E8
:101C0600F583EEF0E675F003A424F2F582E43400E1
:101C1600F5837486F006021B729000E674FFF0905E
:101C260000E6E0D39407400374FFF09000E6E0047A
:071C3600F0903FE593F5BCBF
:031C3D000572220B
:023F77001572C1
:093F7900A872A66BE4F56BE6FFEB
:033F8200057222A3
:023F85001572B3
:093F8700A872A66AE4F56AE6FFDF
:033F900005722295
:1039CB008F9D75BC88439720D2AD90004574FFF056
:1039DB00A3741AF0A37494F0A374FFF0A3743FF0D4
:1039EB00A37477F0A374FFF0A3743FF0A37485F076
:0139FB0022A9
:070003007B017A0079E8227D
:1036A000C3EF64809480403BD3EF648094855033B3
:1036B000EFFD3395E0FC9000F475F003ED120E453C
:1036C000EC75F003A42583F583E0FE9000F475F01B
:1036D00003ED120E45EC75F003A42583F583E4F0A9
:0536E000AF06227F038C
:0136E50022C2
:10246E00E4F58090016FE0FFB40800505F90248285
:10247E00F828287302249A0224A00224A60224AC6F
:10248E000224B20224BC0224C60224D0C2A3C2A2D9
:10249E008016C2A3C2A2801AC2A3C2A2801EC2A369
:1024AE00C2A28022C2A3D2A2C2A1C2A08020C2A375
:1024BE00D2A2C2A1D2A08016C2A3D2A2D2A1C2A081
:1024CE00800CC2A3D2A2D2A1D2A08002D2A3C3EF0B
:1024DE0064809488502990016FE0FF3395E0FE747C
:1024EE00662FF58274013EF583E0FF3395E0FE74AE
:1024FE00B22FF58274383EF583E493F580801E90FA
:10250E00016FE0FFB408133395E0FE74662FF58279
:10251E0074013EF583E0F5808003E4F5809001655B
:10252E00E0FF90016FE004FEF0D3EF6480F8EE64FC
:10253E0080984014E0D36480948850047408F0228C
:09254E00900164E090016FF0229D
:103DAA00E4F5937594FF5395F043960F90002A74A7
:0B3DBA00FFF0A37424F0A3746EF0224D
:093FEE00900164EFF0A3EDF02254
:103CBB00900166EFF0A3EDF0A3EBF0A3E50BF0A3FF
:103CCB00E50CF0A3E50DF0A3E50EF0A3E50FF02254
:0640260090016EEFF02294
:101C5900017000490188949400949400949400417F
:031C690001871ED2
:02204200157215
:1020440020B206900188E014F020B30690018BE0E2
:1020540014F020970690018EE014F0900187E014AC
:10206400F06003022162741EF0A872E4F6A872E61E
:10207400FFC3648094834003022162EF3395E0FE42
:1020840090018875F003EF120E45EE75F003A42558
:1020940083F583E0C39480503990018975F003EF90
:1020A400120E45EE75F003A42583F583E0D39480E6
:1020B400405AE6FF3395E0FE90018A75F003EF1273
:1020C4000E45EE75F003A42583F5837401F0F570D5
:1020D400803AA872E6FF3395E0FE90018975F0031B
:1020E400EF120E45EE75F003A42583F583E0C39447
:1020F40080501990018A75F003EF120E45EE75F0C9
:1021040003A42583F5837402F0757001A872E6FFB9
:10211400FD3395E0FC90018875F003ED120E45EC5B
:1021240075F003A42583F583E0FE90018975F0031F
:10213400ED120E45EC75F003A42583F583EEF0EF64
:102144003395E0FE90018875F003EF120E45EE75AD
:0E215400F003A42583F5837494F00602207135
:03216200057222E1
:023F93001572A5
:093F9500A872A670E4F570E6FFC5
:033F9E0005722287
:103D390090003074FFF0A3743FF0A37493F09000E7
:0D3D49002D74FFF0A37420F0A37442F0224B
:1037F500EF600764016003BF0233EFFD3395E0FC22
:1038050090018A75F003ED120E45EC75F003A425C1
:1038150083F583E0FE90018A75F003ED120E45EC09
:0F38250075F003A42583F583E4F0AF06227F033B
:013834002271
:101C6C004100000A4100290A41006D0A04290000C4
:101C7C000000012F004600670000FFFF8FFFC10D21
:101C8C00C105C108C101C10E60240005FF000AFF97
:101C9C00000AFF000AFF000AFF000AFF000AFF000B
:101CAC000AFF000AFF000AFF000AFF000AFF000AF1
:101CBC006036002AFF000AFF000AFF003EFF000A00
:101CCC00FF003EFF000AFF003EFF000AFF000AFF74
:101CDC00000AFF003EFF003EFF003EFF003EFF00FB
:0A1CEC000AFF000AFF000AFF000AC9
:01000A0022D3
:03003E007F00221E
:10365900438E805389F07BE07A28790178009000C5
:1036690026120E2912376FEFF404F58A7BE07A28C7
:1036790079017800900026120E2912376FC3E49F52
:10368900FFE49EFE74019DFDE49CFC7808120E0285
:073699008F8CD28CD2A92214
:03000B000235219A
:04352100C0E0C0D076
:10352500D5230A75234C300D02052FD20DA2037247
:103535000450361525E5257030852725D207300A34
:1035450017E52860071528438F01801D538FFEC29C
:10355500B5D53115C20A80110526E526D394064056
:0935650008C203E52E6002D20643
:05356E00D0D0D0E032D6
:1034CE00300E47C20E900026120E297810120E02F0
:1034DE008E6C8F6D900003E0FEA3E0FFE4FCFD7B9D
:1034EE0019FAF9F8120CD2C006C007AE6CAF6DAB6C
:1034FE0007AA06E4F9F8D007D00612376F78031240
:10350E000E02900065EEF0A3EFF0900065E0FEA3D2
:02351E00E0FFCC
:013520002288
:093FF700900067E0FEA3E0FF2248
:09400000900067EEF0A3EFF0223E
:103EDB0090006BEEF0A3EFF0900069ECF0A3EDF027
:013EEB0022B4
:03403E00C2B422E7
:03003B0002290196
:10290100C0E0C083C082C0D075D000C004C005C083
:0329110006C007F6
:1029140030DF04C2DF807D30DA04C2DA807630D959
:102924003DC2D9AFFBEFFEADEB7C00E42DFFEC3EE6
:1029340020000E900001F0A3EFF075DB11D20080AF
:1029440053FE900001E0FCA3E0FDC3EF9DFFEE9C6D
:10295400A3F0A3EFF075DB00C200D20E803630D8AE
:1029640033C2D8900067E07002A3E06022B2B49052
:102974000069E0FEA3E0F5EAEEF5FAA3E0FEA3E0C9
:10298400FF90006AE02FF0900069E03EF08005C2FD
:04299400B453DAFE60
:10299800D007D006D005D004D0D0D082D083D0E0E4
:0129A80032FC
:06402C00123659D2AF224A
:102F07003004047F0180027F00200A047E018002D2
:102F17007E00EE5F6074E530C3952450683002365A
:102F2700752801E530131313541FAB32AA33A934A4
:102F3700F582758300120B7DFFE530540704FEEF21
:102F4700A806088002C333D8FC30D7057531038043
:102F57002F753101802AAB32AA33A93475F002E507
:102F670030A4F58285F083120B7DF528E53075F0E6
:102F770002A429F9EA35F0FA900001120B7DF53128
:0A2F87000530D20A22C204438F1065
:012F9100221D
:10238100900000E014F0701F740AF0D2059000294B
:10239100E014F07012740AF0D20890006DE014F0AD
:1023A1007005740AF0D20190002AA3E0FAA3E0F9C3
:1023B100120E5190002DA3E0FAA3E0F9120E5190F4
:1023C1000039A3E0FAA3E0F9120E51900045A3E011
:1023D100FAA3E0F9120E51900054A3E0FAA3E0F938
:1023E100120E5190005DA3E0FAA3E0F9120E519094
:1023F100004BA3E0FAA3E0F9120E51EF600C90003C
:102401001DA3E0FAA3E0F9120E5190004EA3E0FAE9
:10241100A3E0F9120E51EF600E900020A3E0FAA3A1
:10242100E0F9120E51D20BE52DD394004016D52DB3
:102431003030090C900023A3E0FAA3E0F9120E5109
:10244100D20C801D900051A3E0FAA3E0F9120E51C5
:10245100EF600E900023A3E0FAA3E0F9120E51D22F
:0D2461000C900005A3E0FAA3E0F9020E5173
:102CCA0090003FA3E0FAA3E0F9120E51900042A34C
:102CDA00E0FAA3E0F9120E51900033A3E0FAA3E060
:102CEA00F9120E51900008A3E0FAA3E0F9120E516E
:102CFA00900030A3E0FAA3E0F9120E51EF600C90B5
:102D0A000011A3E0FAA3E0F9120E51900036A3E0F5
:102D1A00FAA3E0F9120E51EF600C900017A3E0FA43
:102D2A00A3E0F9120E51900048A3E0FAA3E0F912C9
:102D3A000E51EF600C90001AA3E0FAA3E0F9120E0C
:102D4A005130060EC206900026A3E0FAA3E0F9125B
:032D5A000E5122F5
:1038350090000BA3E0FAA3E0F9120E5190003CA30F
:10384500E0FAA3E0F9120E51EF600C900014A3E02A
:10385500FAA3E0F9120E51900057A3E0FAA3E0F99C
:0F386500120E5190005AA3E0FAA3E0F9020E519F
:103ABB00AF2CAE2BAD2AAC29900060120E399000C2
:103ACB0064E52FF0E4F52CF52BF52AF529F52F906D
:0B3ADB00000EA3E0FAA3E0F9020E5178
:10387400300705C207122F07300D05C20D12238130
:10388400300505C205122CCA300805C208123835A5
:10389400300105C201123ABBE52C2401F52CE435B4
:0E38A4002BF52BE4352AF52AE43529F52922E7
:103012008B088A09890AEFB40C005070903025F8A9
:1030220028287302304902304E02305302305802CF
:10303200305D02306202306702306C023071023061
:103042007602307B02308090000580359000088047
:103052003090000B802B90000E8026900011802172
:10306200900017801C900014801790001A80129014
:10307200001D800D900020800890002380039000A6
:0D30820026E508F0A3E509F0A3E50AF02219
:074012007B017A00796022B6
:101CF6005501040000000000000000000000000084
:081D06000000010000000000D4
:030043000218C2DE
:1018C200C0E0C0F0C083C082C0D075D000C000C0EC
:1018D20001C002C003C004C005C006C007E59A30BB
:1018E200E142539AFD900109E0FEA3E0FFC390019B
:1018F20008E09F900107E09E501F900104E0FBA3C7
:10190200E0FAA3E0F9A3E475F001120C9185F082EC
:10191200F583120B7DF59B800B90010BE4F0E56FD4
:101922006002C2B7E59A20E003021A79539AFE30A8
:101932000C0BC20C900111E4F0A3F0D209E56F6424
:101942000260030219D390010FE0FEA3E0FFA3E0BF
:10195200FCA3E0FDC39FEC9E507190010CE0FBA341
:10196200E0FAA3E0F98D828C83E59B120BBC900117
:1019720017E0FEA3E0FFC3ED9FEC9E504090010FE5
:10198200E0FCA3E0FDEF9DEE9C5032900114E0FBE1
:10199200A3E0FAA3E0F9900111E0FEA3E0FFF582D3
:1019A2008E83120B7DFD90010CE0FBA3E0FAA3E015
:1019B200F98F828E83120B7D6D6002C20990011233
:1019C200E004F07006900111E004F0856E2D021A19
:1019D2007990010FE0FEA3E0FFA3E0FCA3E0FDC3CA
:1019E2009FEC9E507790010CE0FBA3E0FAA3E0F994
:1019F2008D828C83E59B120BBC900117E0FEA3E065
:101A0200FFC3ED9FEC9E504690010FE0FCA3E0FD6A
:101A1200EF9DEE9C5038900114E0FBA3E0FAA3E0A6
:101A2200F9900111E0FEA3E0FFF5828E83120B7D97
:101A3200FD90010CE0FBA3E0FAA3E0F98F828E8314
:101A4200120B7D6D600890011174FFF0A3F09001FC
:101A520012E004F07006900111E004F090010FE032
:101A6200FEA3E0FFC3900112E09F900111E09E40AF
:101A7200069001137401F0D007D006D005D004D02F
:101A820003D002D001D000D0D0D082D083D0F0D009
:021A9200E03240
:023F2C0015720C
:0A3F2E00900113E0A872F6FFE4F022
:033F3800057222ED
:01002A0022B3
:1026F4008F0B8E0A8D098C08850C6FE56F70028034
:102704000343BA01E56F701790005D74FFF0A37482
:1027140000F0A3742AF0E4F5DBD290D2918020C2B9
:10272400B7AB0BAA0AA909A808E47F407E9CFDFC6C
:10273400120D5D8F6EE56E7003756E01856E2D75DD
:102744009A10E47B04FAF9F8900026120E29120D6F
:102754005DAB0BAA0AA909A808120D5DEFF404F5F4
:10276400D7E47B04FAF9F8900026120E29120D5DC5
:10277400AB0BAA0AA909A808120D5DC3E49FFFE4E4
:102784009EFE74019DFDE49CFC7808120DEF8FD62B
:10279400438E1443AF0190005174FFF0A3743FF0D3
:0527A400A3742CF022DB
:1039FC0090010CEBF0A3EAF0A3E9F0A3ECF0A3ED3B
:103A0C00F0900117E510F0A3E511F0900114E50D0D
:103A1C00F0A3E50EF0A3E50FF0D20CE4900113F047
:013A2C002277
:103A5E0090010BE07026900104EBF0A3EAF0A3E9CD
:103A6E00F0E4A3F0A3F0A3ECF0A3EDF0A37401F047
:0F3A7E00E56F6002D2B7439A027F02227F0322D4
:0B3FB90090010BE07002FF227F01224C
:1016C60000EF00C500AF00A00096008E00870081E5
:1016D600007C007800740071006D006B0068006586
:1016E60000630061005F005D005B005A0058005611
:1016F60000550054005200510050004E004D004C61
:10170600004B004A00490048004700460045004497
:1017160000430043004200410040003F003F003EBE
:10172600003D003D003C003B003A003A00390039DC
:1017360000380037003700360036003500340034F4
:101746000033003300320032003100310030003007
:10175600002F002F002E002E002D002D002C002C17
:10176600002B002B002A002A002900290029002826
:101776000028002700270026002600260025002531
:10178600002400240024002300230022002200223B
:1017960000210021002000200020001F001F001F44
:1017A600001E001E001D001D001D001C001C001C4C
:1017B600001B001B001B001A001A001A0019001952
:1017C600001800180018001700170017001600165A
:1017D600001600150015001500140014001400135F
:1017E6000013001300120012001200110011001065
:1017F60000100010000F000F000F000E000E000E6C
:10180600000D000D000D000C000C000C000B000B71
:10181600000B000A000A0009000900090008000878
:10182600000800070007000700060006000500057F
:10183600000400040003000300030002000200018C
:101846000001000100000000FFFFFFFFFFFFFFFE99
:10185600FFFEFFFDFFFDFFFCFFFCFFFBFFFBFFFAAA
:10186600FFFAFFF9FFF9FFF8FFF8FFF7FFF7FFF6BA
:10187600FFF6FFF5FFF5FFF4FFF3FFF3FFF2FFF2CC
:10188600FFF1FFF0FFF0FFEFFFEEFFEDFFEDFFECE6
:10189600FFEBFFEAFFE9FFE8FFE7FFE6FFE5FFE40E
:1018A600FFE3FFE2FFE0FFDFFFDDFFDCFFDAFFD84B
:0C18B600FFD5FFD2FFCEFFC9FFC10169C2
:071D0E0044014E282828289B
:1033130012000378447C017D017E007F0A120B3E7C
:10332300900148E0FFA3E0900152CFF0A3EFF090AB
:103333000152E0FEA3E07802CEA2E713CE13D8F841
:10334300F0EE900152F0A3E025E0FF900152E0334C
:10335300FE74C62FF58274163EF583E493FF740161
:0A33630093900142CFF0A3EFF02297
:102C3600900142E0FEA3E0FFC3EE64809480503131
:102C4600C3E49FFFE49EFE7C007D0A120C457C00D7
:102C56007D0A120C458D0E750B0A750C0A750D0C46
:102C6600900142E0FEA3E0FFC3E49FFFE49EFE80E6
:102C760040900142E0FEA3E0FF7C007D64120C451B
:102C86007C007D0A120C45AB05900142E0FEA3E0F4
:102C9600FF7C007D0A120C457C007D0A120C458DD6
:102CA6000E8B0D750B0A750C0A900142E0FEA3E02F
:102CB600FF7C007D0A120C458D0F7B0A7D0A7F0A78
:042CC600123CBB22DF
:041D15004101B200D6
:102B96007F051236A09000B2EFF07F021236A090A9
:102BA60000B3EFF07F041236A09000B4EFF07F017F
:102BB6001236A09000B5EFF09000B2E0B4010E908E
:102BC60001B2E004F0E0D394034002E4F09000B3D5
:102BD600E0B4010F9001B2E014F0E0C3940050039A
:102BE6007403F09000B4E0B4011FE540D3940040B4
:102BF600181540780E7C007D007B007A00793E7EB9
:102C0600007F06120B3E12263E9000B5E0B4011F6F
:102C1600E540C3940F50180540780E7C007D007B7C
:0F2C2600007A00793E7E007F06120B3E12263E9A
:012C3500227C
:103D1B009001B2E014600D14600D14600D2403705B
:0E3D2B000C023573022C36023611123DC522F1
:101D1900C1104A0138000003F1043607F5060042F4
:041D29000134000081
:103B6400900195E0FF3395E0FEEF24FFFFEE34FF74
:103B7400900136F0A3EFF0D210E4900134F0A3F0FA
:083B8400900130F0A304F022CF
:1029A900201072C3900137E09405900136E06480ED
:1029B90094805061A3E004F07006900136E004F0C1
:1029C900900137E025E0FF900136E033FE74382F9F
:1029D900F58274013EF583E0FFA3E0900134CFF066
:1029E900A3EFF0900195E0FF3395E0FE74AC2FF56D
:1029F9008274013EF583E0FFD394004047EFFD7CEC
:102A090000900134E0FEA3E0FF120BF0900130EEDC
:102A1900F0A3EFF022201023C3900137E094059032
:102A29000136E06480948040129001307404F0A370
:102A390074B0F0E4900134F0A3F022900130E4F096
:052A4900A37415F0224A
:1035C400900131E024FFF0900130E034FFF0E0FAA4
:1035D400A3E0FB7C007D3CFFAE02120C45A3EEF0A1
:1035E400A3EFF07C007D3CAF03AE02120C459001CA
:1035F4002EECF0A3EDF0D3900131E0940090013073
:0D360400E0648094805005B2101229A922C4
:10357300900132E0FEA3E0FF7C007D0A120BF0AB6A
:103583000790012EE0FEA3E0FF7C007D0A120BF002
:103593008F0E8B0B900132E0FEA3E0FF7C007D0ACF
:1035A300120BF08D0C750D0A90012EE0FEA3E0FFC7
:1035B3007C007D0A120BF08D0F7B0AE4FDFF023CB9
:0135C300BB4C
:103DC500750B0A750C0A750D0A750E0AA210E433F7
:0B3DD500F50F7B0A7D0A7F0A023CBB51
:102AF300301003022B95D3900135E09400900134FC
:102B0300E094005003022B95900195E0FF3395E08C
:102B1300FE74AC2FF58274013EF583E0FFD394007D
:102B23004066900134E0FCA3E0FDD39FEC940040A9
:102B330025900195E0FF3395E0FE74AC2FF5827488
:102B4300013EF583E0FFC3ED9FFEEC94009001345A
:102B5300F0A3CEF08007E4900134F0A3F090019548
:102B6300E0FF3395E0FE74AC2FF58274013EF583EC
:102B7300E0FD7C00900134E0FEA3E0FF120BF09037
:102B83000130EEF0A3EFF022900130740EF0A37445
:032B930010F0221D
:071D2D004401AC32323232F6
:10361100750B0A750C0A900195E0FF3395E0FE7475
:10362100AC2FF58274013EF583E0FD75F06484F5FD
:103631000DED75F00A8475F00A8485F00E74AC2FD7
:10364100F58274013EF583E075F00A8485F00F7B05
:083651000A7D0A7F0A023CBB5E
:1000460000000000000000000000000000000000AA
:10005600000000000000000000000000000000009A
:10006600000000000000000000000000000000008A
:10007600000000000000000000000000000000007A
:10008600000000000000000000000000000000006A
:10009600000000000000000000000000000000005A
:1000A600000000000000000000000000000000004A
:1000B600000000000000000000000000000000003A
:1000C600000000000000000000000000000000002A
:1000D600000000000000000000000000000000001A
:1000E600000000000000000000000000000000000A
:1000F60000000000000000000000000000000000FA
:1001060000000000000000000000000000000000E9
:1001160000000000000000000000000000000000D9
:1001260000000000000000000000000000000000C9
:1001360000000000000000000000000000000000B9
:1001460000000000000000000000000000000000A9
:100156000000000000000000000000000000000099
:10016600000000000000000000000000C6BDD1F441
:10017600A3ACB5BDC1CBA1A3C7EBC7B0CDF9C0E851
:10018600CDD0C2B7B5C4B3CBBFCDD7BCB1B8CFC243
:10019600B3B5A1A3CFC2B3B5CAB1A3ACC7EBD7A2BF
:1001A600D2E2C1D0B3B5D3EBD5BECCA8D6AEBCE4B3
:1001B600B5C4BCE4CFB6A1A3000000000000000057
:1001C6000000000000000000000000000000000029
:1001D6000000000000000000000000000000000019
:1001E6000000000000000000000000000000000009
:1001F60000000000000000000000000000000000F9
:1002060000000000000000000000000000000000E8
:1002160000000000000000000000000000000000D8
:1002260000000000000000000000000000000000C8
:1002360000000000000000000000000000000000B8
:1002460000000000000000000000000000000000A8
:100256000000000000000000000000000000000098
:100266000000000000000000000000000000000088
:100276000000000000000000000000000000000078
:100286000000000000000000000000000000000068
:100296000000000000000000B3A4C9B3BBF0B3B572
:1002A600C4CFD5BEA3ACB5BDC1CBA1A3B1BED5BE8F
:1002B600CEAABBBBB3CBD5BEA3ACBFC9BBBBB3CB6E
:1002C60032BAC5CFDFA1A2B4C5B8A15332CFDFA1E0
:1002D600A3C7EBC7B0CDF9B8DFCCFAC4CFD5BEA162
:1002E600A2B4C5B8A15332CFDFA1A2C0E8CDD0B821
:1002F600DFCBD9C6FBB3B5D5BEB5C4B3CBBFCDD75F
:10030600BCB1B8CFC2B3B5A1A3CFC2B3B5CAB1A36E
:10031600ACC7EBD7A2D2E2C1D0B3B5D3EBD5BECC36
:10032600A8D6AEBCE4B5C4BCE4CFB6A1A300000019
:1003360000000000000000000000000000000000B7
:1003460000000000000000000000000000000000A7
:100356000000000000000000000000000000000097
:100366000000000000000000000000000000000087
:100376000000000000000000000000000000000077
:100386000000000000000000000000000000000067
:100396000000000000000000000000000000000057
:1003A6000000000000000000000000000000000047
:1003B6000000000000000000000000000000000037
:1003C60000000000B9E2B4EFA3A8BBE1D5B9D6D0CE
:1003D600D0C4A3A9A3ACB5BDC1CBA1A3B1BED5BEA4
:1003E600CEAABBBBB3CBD5BEA3ACBFC9BBBBB3CB3D
:1003F60032BAC5CFDFA1A3C7EBC7B0CDF9B3A4C945
:10040600B3B9FABCCABBE1D2E9D6D0D0C4A1A2B373
:10041600A4C9B3B9FABCCABBE1D5B9D6D0D0C4A178
:10042600A2B3A4C9B3B9FABCCABBE1D5B9D0C2B3A9
:10043600C7B5C4B3CBBFCDD7BCB1B8CFC2B3B5A1D6
:10044600A3CFC2B3B5CAB1A3ACC7EBD7A2D2E2C1A0
:10045600D0B3B5D3EBD5BECCA8D6AEBCE4B5C4BC40
:10046600E4CFB6A1A30000000000000000000000D9
:100476000000000000000000000000000000000076
:100486000000000000000000000000000000000066
:100496000000000000000000000000000000000056
:1004A6000000000000000000000000000000000046
:1004B6000000000000000000000000000000000036
:1004C6000000000000000000000000000000000026
:1004D6000000000000000000000000000000000016
:1004E6000000000000000000000000000000000006
:1004F600D6D5B5E3D5BEA3ACB6C5BCD2C6BAA3ACF9
:10050600B5BDC1CBA1A3C7EBC8ABCCE5B3CBBFCDC3
:10051600D0AFB4F8BAC3CBE6C9EDCEEFC6B7D7BCF9
:10052600B1B8CFC2B3B5A1A3CFC2B3B5CAB1A3AC5C
:10053600C7EBD7A2D2E2C1D0B3B5D3EBD5BECCA818
:10054600D6AEBCE4B5C4BCE4CFB6A1A3BBB6D3ADAE
:10055600C4FAD4D9B4CEB3CBD7F8B5D8CCFAC1D077
:10056600B3B5A3ACD4D9BCFBA3A100000000000026
:100576000000000000000000000000000000000075
:100586000000000000000000000000000000000065
:100596000000000000000000000000000000000055
:1005A6000000000000000000000000000000000045
:1005B6000000000000000000000000000000000035
:1005C6000000000000000000000000000000000025
:1005D6000000000000000000000000000000000015
:1005E6000000000000000000000000000000000005
:1005F60000000000000000000000000000000000F5
:1006060000000000000000000000000000000000E4
:10061600000000000000000000000000B3B5C3C5E4
:10062600BCB4BDABB9D8B1D5A3ACBDF7B7C0BCD0CF
:10063600C9CB000000000000000000000000000020
:1006460000000000000000000000000000000000A4
:100656000000000000000000000000000000000094
:100666000000000000000000000000000000000084
:100676000000000000000000000000000000000074
:100686000000000000000000000000000000000064
:100696000000000000000000000000000000000054
:1006A6000000000000000000000000000000000044
:1006B6000000000000000000000000000000000034
:1006C6000000000000000000000000000000000024
:1006D6000000000000000000000000000000000014
:1006E6000000000000000000000000000000000004
:1006F60000000000000000000000000000000000F4
:1007060000000000000000000000000000000000E3
:1007160000000000000000000000000000000000D3
:1007260000000000000000000000000000000000C3
:1007360000000000000000000000000000000000B3
:100746000000000000000000B1BEB4CEC1D0B3B5B9
:10075600BFAACDF9A3ACB6C5BCD2C6BAA1A3CFC2B7
:10076600D2BBD5BEA3ACC6BDD1F4A1A3B3B5C3C598
:10077600BFAAC6F4B7BDCFF2CEAAD7F3B2E0A1A303
:100786000000000000000000000000000000000063
:100796000000000000000000000000000000000053
:1007A6000000000000000000000000000000000043
:1007B6000000000000000000000000000000000033
:1007C6000000000000000000000000000000000023
:1007D6000000000000000000000000000000000013
:1007E6000000000000000000000000000000000003
:1007F60000000000000000000000000000000000F3
:1008060000000000000000000000000000000000E2
:10081600B1BEB4CEC1D0B3B5BFAACDF9A3ACB6C5EF
:10082600BCD2C6BAA1A3CFC2D2BBD5BEA3ACB3A419
:10083600C9B3BBF0B3B5C4CFD5BEA1A3B3B5C3C5C9
:10084600BFAAC6F4B7BDCFF2CEAAD7F3B2E0A1A332
:10085600B8F7CEBBB3CBBFCDC7EBD7A2D2E2A3AC22
:10086600D0E8BBBBB3CB32BAC5CFDFA1A2B4C5B803
:10087600A15332CFDFB5C4B3CBBFCDA3ACC7EBD446
:10088600DAB3A4C9B3BBF0B3B5C4CFD5BECFC2B338
:10089600B5A1A30000000000000000000000000059
:1008A6000000000000000000000000000000000042
:1008B6000000000000000000000000000000000032
:1008C6000000000000000000000000000000000022
:1008D6000000000000000000B1BEB4CEC1D0B3B528
:1008E600BFAACDF9A3ACB6C5BCD2C6BAA1A3CFC226
:1008F600D2BBD5BEA3ACB9E2B4EFA3A8BBE1D5B9D0
:10090600D6D0D0C4A3A9A1A3B3B5C3C5BFAAC6F404
:10091600B7BDCFF2CEAAD7F3B2E0A1A3B8F7CEBB4C
:10092600B3CBBFCDC7EBD7A2D2E2A3ACD0E8BBBB5B
:10093600B3CB32BAC5CFDFB5C4B3CBBFCDA3ACC73B
:10094600EBD4DAB9E2B4EFA3A8BBE1D5B9D6D0D0DF
:10095600C4A3A9CFC2B3B5A1A30000000000000044
:100966000000000000000000000000000000000081
:100976000000000000000000000000000000000071
:100986000000000000000000000000000000000061
:100996000000000000000000000000000000000051
:1009A600CFC2D2BBD5BEA3ACCAC7B1BEB4CEC1D02E
:1009B600B3B5D6D5B5E3D5BEA3ACB6C5BCD2C6BA1B
:1009C600A1A3B3B5C3C5BFAAC6F4B7BDCFF2CEAA1D
:1009D600D7F3B2E0A1A3C1D0B3B5D4CBD0D0CAB1BE
:1009E600A3ACC7EBD5BECEC8B7F6BAC3A3ACC7EBAC
:1009F600CEAAD3D0D0E8D2AAB5C4B3CBBFCDC8C394
:100A0600D7F9A3ACB6E0D0BBBACFD7F7A1A3000005
:100A160000000000000000000000000000000000D0
:100A260000000000000000000000000000000000C0
:100A360000000000000000000000000000000000B0
:100A460000000000000000000000000000000000A0
:100A56000000000000000000000000000000000090
:080A6600000000000000000088
:101D34004101700041017B004A01710000000F0065
:051D44000F000F000F6D
:103E6A00900170E0B4410790017B7401F022E49064
:043E7A00017BF022B6
:102DED0090017BE064017003022E7A900136E0FAC7
:102DFD00A3E0FB25E0FFEA33FE74712FF582740129
:102E0D003EF583E0FEA3E0FF900130E0B5061BA385
:102E1D00E0B507162010137C017D2CAF03AE021216
:102E2D000BDE74462FF97400803C900130E0700485
:102E3D00A3E06405700E30100B7BFF7A0679227DBE
:102E4D0064FC8026900130E07002A3E0701F30100A
:102E5D001C900136E0FEA3E0FF7C007DC8120BDE66
:0E2E6D0074862FF974063EFA7BFF123A5E223D
:0400260000A8C0006E
:0E1D49004401910000000044019600000000DB
:0F3F3B001235C4123313122DED1236E602126244
:03404100023D1B22
:1038B2003F065B4F666D7D077F6F00084001414800
:1038C200BF86DBCFE6EDFD87FFEF777C395E79714E
:1038D2003D7606383F736D3E6E5F7C585E7B716F3E
:0C38E200741038545C7367506D781C6ED5
:081D57004101B0FF4101B100A0
:103EB700EFC394004009EFD3946450037F01227F3E
:023EC7000022D7
:10336D00E4F50F9001B104F09001B074FFF0E4F5B5
:10337D000FAF0F123D569000E5EFF0E0FFE50FFDAA
:10338D003395E0FC744E2DF58274013CF583EFF01E
:10339D00EFF46006123EB7EF7014AF0FEF3395E008
:1033AD00FE744E2FF58274013EF5837428F0050FDF
:0933BD00C3E50F6480948440B85C
:0133C60022E4
:103B11009001B1E0700312336D900195E0FF123D09
:103B2100569000E4EFF0F46008E0FF123EB7EF704A
:093B3100037F28229000E4E0FF6C
:013B3A002268
:103AE6008F0E9001B1E0700312336DAF0E123EB728
:103AF600EF70037FFF22900195E0FFAD0E123E406E
:0B3B0600900195E09001B0F07F0022DC
:02392A008F0DFF
:10392C009001B1E0700312336DAF0D123EB7EF7022
:10393C00057EFF7FFF22123B119000E3EFF0B50DE7
:10394C0004E4FEFF22AF0D123AE6EF7005FE7F0194
:06395C0080047EFF7FFFE6
:013962002242
:064032002C004253500077
:101D5F006020006E00000000000000000000000086
:101D6F000000000000000000000000000000000064
:101D7F00000000006020008E000000000000000046
:101D8F000000000000000000000000000000000044
:101D9F0000000000000000004100B1004300AE420F
:021DAF0053508F
:103999007B017A00796E7D0A123D8EAE02AF018FEE
:1039A900828E83EF4E6014E4F09000B17402F07BD4
:1039B900017A00796E1214BD02000E9000B17403F1
:0139C900F00D
:0139CA0022DA
:103478007F007EC27D017C001231827E007F207D2C
:10348800007B017A00796E120F407E007F207D005C
:103498007B017A00798E120F407BFF7A3979997F08
:1034A80009123012750D01750E00750FAE751000FA
:1034B8007511037B017A00796E7D207C00123A2D0C
:0634C800E49000B1F022C7
:10000E007E007F207D007B017A00796E120F40E426
:05001E009000B1F0228A
:0B3FC4009000B1E0B4030312000E22D5
:0614BD008B088A09890A70
:1014C300E49000D2F0A3F0AE02AF01EF4E6007123A
:1014D3003E55EF4E700302162C78B27C007D01ABB3
:1014E30008AA09A90A120F237510FF751140751276
:1014F300327B017A0079B202160DE50C450B7003BD
:1015030002161B9000D2E0FEA3E0FFC3940AEE6430
:10151300809480400302161BEE60030215F0EF1463
:10152300B4090040030215F090153975F003A4C502
:101533008325F0C5837302155402156202157002E8
:10154300157E02158C02159A0215AD0215C40215FB
:10155300DBAA0BA90C7B011227A99000D48044AA13
:101563000BA90C7B011227A99000D68036AA0BA9E0
:101573000C7B011227A99000D88028AA0BA90C7B09
:10158300011227A99000DA801AAA0BA90C7B011279
:1015930027A99000DC800CAA0BA90C7B011227A9B8
:1015A3009000DEEEF0A3EFF08043AA0BA90C7B01C1
:1015B3001227A99000E2EFF0D394014030E4F080C9
:1015C3002CAA0BA90C7B011227A99000E0EFF0D302
:1015D30094014019E4F08015AA0BA90C7B01122792
:1015E300A99000E1EFF0D394014002E4F09000D31E
:1015F300E004F070069000D2E004F07510FF75115E
:10160300407512327B007A007900122F92AE02AF3E
:10161300018E0B8F0C0214FDC39000D3E0940A904B
:1016230000D2E06480948050057EFF7FFF2290010A
:1016330095E0FD3395E0FC744E2DF58274013CF585
:1016430083E0FF9000D8E0FAA3E0FB6F7001EA604B
:1016530011AF03744E2DF58274013CF583EFF01244
:10166300392A900195E0FF3395E0FE74AC2FF582A3
:1016730074013EF583E0FD9000DAE0FAA3E0FB6D30
:101683007001EA600F74AC2FF58274013EF583EBB1
:10169300F0122AF39000E0E0FF900195E0FD33950E
:1016A300E0FC74912DF58274013CF583EFF090001A
:1016B300E1E0FF74962DF58274013CF583EFF0E4CD
:0216C300FEFF28
:0116C5002202
:102165003EF583E0FF7E009000B2E0FCA3E0248E04
:07217500F974003CFA7B0144
:06217C008B088A09890AA4
:10218200E49000B6F0A3F0A3EEF0A3EFF0E4900029
:10219200C4F0A3F0EF4E70177430120BAAAB08AA6A
:1021A20009A90A900001E4120BBC7E007F0122D330
:1021B2009000B9E094009000B8E094004053900081
:1021C200C5E0940A9000C4E064809480504390007B
:1021D200B8E0FAA3E0FB7C007D0AFFAE02120BF02E
:1021E200ED2430FF9000C4E475F001120C91FC74F0
:1021F200BA25F0F58274003CF583EFF07C007D0A8D
:10220200AF03AE02120BF09000B8EEF0A3EFF08035
:102212009E9000C5E024FFFE9000C4E034FF9000D1
:10222200B4F0A3CEF09000B4E0FEA3E0FFC3EE64EE
:10223200809480403574BA2FF58274003EF583E0B5
:10224200FFAB08AA09A90A9000B6E475F001120CC6
:102252009185F082F583EF120BBC9000B5E024FF6C
:10226200F09000B4E034FFF080BBAB08AA09A90AE1
:102272009000B6E0FEA3E0FFF5828E83E4120BBC71
:012282002239
:10126200E49000B2F0A3F0123FDABF01037F032241
:101272007E007F207D007B017A00798E120F4078FC
:101282008E7C007D017BFF7A407934120F237B0133
:101292007A00798E123E559000B2EEF0A3EFF090F4
:1012A20000B2E475F001120C91FE748E25F0F58205
:1012B20074003EF583742CF0900195E0FF3395E0C5
:1012C200FE12216C9000B3E02FF09000B2E03EF0ED
:1012D200E475F001120C91FE748E25F0F582740013
:1012E2003EF583742CF0900136E0FEA3E0FF12215C
:1012F2006C9000B3E02FF09000B2E03EF0E475F0A5
:1013020001120C91FE748E25F0F58274003EF58375
:10131200742CF0900142E0FEA3E0FF12216C9000D9
:10132200B3E02FF09000B2E03EF0E475F001120C51
:1013320091FE748E25F0F58274003EF583742CF0D4
:10134200900195E0FF3395E0FE744E2FF582740113
:101352001221659000B3E02FF09000B2E03EF0E47D
:1013620075F001120C91FE748E25F0F58274003E28
:10137200F583742CF0900195E0FF3395E0FE74AC98
:101382002FF58274011221659000B3E02FF09000D6
:10139200B2E03EF0E475F001120C91FE748E25F07D
:1013A200F58274003EF583742CF0900132E0FEA3C6
:1013B200E0FF12216C9000B3E02FF09000B2E03E0B
:1013C200F0E475F001120C91FE748E25F0F5827432
:1013D200003EF583742CF090012EE0FEA3E0FF1294
:1013E200216C9000B3E02FF09000B2E03EF0E47583
:1013F200F001120C91FE748E25F0F58274003EF518
:1014020083742CF0A210E4FE33FF12216C9000B31F
:10141200E02FF09000B2E03EF0E475F001120C9182
:10142200FE748E25F0F58274003EF583742CF090E4
:101432000195E0FF3395E0FE74912FF5827401125D
:1014420021659000B3E02FF09000B2E03EF0E47529
:10145200F001120C91FE748E25F0F58274003EF5B7
:1014620083742CF0900195E0FF3395E0FE74962F83
:10147200F58274011221659000B3E02FF09000B262
:10148200E03EF0E475F001120C91FE748E25F0F549
:101492008274003EF583740AF0C39000B3E0942096
:1014A2009000B2E06480948040037F03227B017A43
:0A14B20000798E7D207C00123BDCE7
:0114BC00220D
:031DB100013D00F1
:1037B300E53D703D753E03753F9675400A754101C1
:1037C300754201F54378087C00FDFB7A00793EFEE3
:1037D3007F06120B3E123C2C780E7C007D007B0092
:1037E3007A00793E7E007F06120B3E12263E753D1F
:0237F3000122B1
:1038EE00900195E0FF3395E0FE744E2FF582740142
:1038FE003EF583E0FFD3900143E09F7480F8900182
:10390E0042E0648098400B751F0AE4FB7D0A7F320B
:0C391E008006E4F51FFBFDFF122D5D226A
:0B3FCF007F10123EC9900195EFF02218
:103EEC008F71AD717F10123B3B900195E571F02203
:103EFC0021102310251026202510231021203130CD
:1036E6001240388F08900195E0FF3395E0FE749103
:1036F6002FF58274013EF583E06009E508B4030402
:103706007F01801D900195E0FF3395E0FE74912FB7
:10371600F58274013EF583E0700AE508B401057F81
:0437260003123B8CC3
:01372A00227C
:103E2A007BFF7A3E79FC753A00753B10753CF37D51
:063E3A00FA7F870234202C
:101F1C0000C400DC00F701060126014A01720188A9
:101F2C0001B801EE020B024B029302E403100370A2
:101F3C0003DC04160497052605C800DC00F7011520
:101F4C000126014A0172019F01B801EE022A024BDF
:101F5C00029302E4033F037003DC04550497052647
:101F6C0005C8067D00F701150137014A0172019F72
:101F7C0001D201EE022A026E029302E4033F03A493
:101F8C0003DC045504DD057505C8067D074901060B
:101F9C000126014A015D018801B801EE020B024BDA
:101FAC00029302BA0310037003DC0416049705268F
:101FBC000575062006E007B80126014A0172018862
:101FCC0001B801EE022A024B029302E403100370E3
:101FDC0003DC04550497052605C8062006E007B85F
:101FEC0008AA014A0172019F01B801EE022A026E91
:101FFC00029302E4033F037003DC045504DD052661
:10200C0005C8067D06E007B808AA09B9015D018874
:10201C0001B801D2020B024B029302BA03100370F7
:10202C0003A40416049705260575062006E0074947
:06203C00082D092D0A4DDC
:101DB4004D01570300000000000000000000000077
:062857008F528D538B54DB
:10285D00123FADEF60037F0122E554D39400400693
:10286D00E55494114028E554D394174006E554944B
:10287D0021401BE554D394274006E5549431400E76
:10288D00E554D394375007E552C394F950037F03B1
:10289D0022E554603DC4540F75F007A4FDACF0E57E
:1028AD005275F015A42DFFE5F03CFEE55454077C60
:1028BD00002FFFEC3EFEEF25E0FFEE33FE74322FCE
:1028CD00F58274F63EF583E493F556740193F5574E
:1028DD008005E4F556F557AF557E007C017D7712E6
:1028ED000BDEAD531C120BF0AD07AC06AF57AE5659
:0328FD0012310A8B
:0129000022B4
:040F6C001572157273
:100F7000123FADEF70047F0180027F00900157E0C7
:100F8000FEB402047D0180027D00ED5F6003021269
:100F90005DEEB4030AE4900155F0A3F002125D90F7
:100FA0000158E0FFB4F3047E0180027E00EFB4F14B
:100FB000047F0180027F00EF4E603E90015AE0FE08
:100FC00075F06484FFEE75F00A8475F00A84ADF064
:100FD000E075F00A84ABF0750B0A900159E0240724
:100FE000F50C900154E0FEC4540F240AF50D750E63
:100FF0000AEE5407F50F123CBB900158E0FFB4F322
:10100000047E0180027E00EFB4F2047F0180027F43
:1010100000EF4E70030210B690015AE0FD7C007E96
:10102000177F70120BF0A872A607E6F975F002A4FC
:10103000FFC3900163E09F900162E095F05070E083
:10104000FEA3E0FF7C007D0B120BDEE9FBFD120B23
:10105000F0A87208A607900162E475F001120C91E5
:10106000FED3E5F09BEE94004018A87208E624F940
:10107000FFE47EF0A807088005CEC313CE13D8F98D
:10108000801FA87208E6FF740F7E00A8070880057D
:10109000C333CE33CED8F97804CEA2E713CE13D81B
:1010A000F8A87208F6A87208E6FF1240268007E446
:1010B000900162F0A3F090015EE0FEA3E0FFC39018
:1010C0000161E09F900160E09E4003021257123FD1
:1010D000ADEF600302125D90015BE0FBA3E0FAA3B9
:1010E000E0F9900160E0FEA3E0F5828E83120B7DB3
:1010F000FFD3943750030211F2EF241024FC5079EF
:10110000604524FE700302119D1470030211B32484
:101110000260030211E190015BE0FBA3E0FAA3E0AF
:10112000F9900160E475F001120C7B85F082F58383
:10113000120B7D900159F0900161E004F0709890DD
:101140000160E004F0809090015BE0FBA3E0FAA373
:10115000E0F9900160E475F001120C7B85F082F5F6
:1011600083120B7D90015AF0900161E004F0706EE3
:10117000900160E004F00210D790015BE0FBA3E077
:10118000FAA3E0F9900160E475F001120C9185F08A
:1011900082F583120B7D900158F00210D790016008
:1011A000E475F001120C7BAFF0900155F0A3EFF065
:1011B0000210D7900155E0FEA3E0FF4E60129001AF
:1011C00060EEF0A3EFF0E4900155F0A3F00210D729
:1011D000900161E004F07006900160E004F00210FC
:1011E000D7900161E004F07006900160E004F00225
:1011F00010D790015EE0FEA3E0FFC3900161E09F85
:10120000900160E09E505690015BE0FBA3E0FAA3E2
:10121000E0F9900160E475F001120C9185F082F51F
:1012200083120B7D900154F0900159E0FFA3E0FD83
:10123000A3E0FBA3E0FAA3E0F9900160E475F001FC
:10124000120C9185F082F583120B7DF555900154B7
:0D125000E0FB12285780069001577403F050
:05125D0005720572227C
:0F3F4A0090004274FFF0A3740FF0A3746CF02288
:10342000900157E0B4030DE4900160F0A3F0A3F025
:10343000A3F0C211EF600490015AF0ED6004900116
:1034400059F0E94A60047F0180027F00E53B453A7C
:1034500060047E0180027E00EE5F601390015BEBF2
:10346000F0A3EAF0A3E9F0A3E53AF0A3E53BF0E529
:083470003C6004900158F022B9
:103B8C00BF02047E0180027E00BF01047D01800221
:103B9C007D00ED4EFEBF03047D0180027D00ED4EE5
:083BAC006005900157EFF022C3
:06403800900157E0FF2299
:041DC4004101A20136
:103DE000C295E4FEEF1392CC000000D29500EFC321
:083DF00013FFC2950EBE08ECA2
:013DF80022A8
:103E1200E4FEEFC313FF30CC03430780D2950000CA
:073E220000C2950EBE08EB83
:013E29002276
:103A8D00F07F85123AA0A3EFF07F87123AA0A3EF43
:033A9D00F07F892E
:103AA000C296000000C295000000D29600123DE0D0
:0A3AB000123E12D295000000C296EB
:013ABA0022E9
:033CDB00A3E0FD66
:103CDE00C296000000C295000000D29600123DE090
:0D3CEE00AF05123DE0D295000000C2962205
:074019007B017A01799B2273
:103DF900789B7C017D017B007A0079447E007F07F6
:093E0900120B3EE49001A2F0222C
:103EC900EFD3941F5009EF25E044C1FF023AA07FC8
:023ED9000122C4
:103B3B00AC07AB05ECD3941F501CE4FD7F8E123CFD
:103B4B00DEEC25E044C0FFAD03123CDE7D807F8EB2
:093B5B00123CDE7F00227F0122F2
:022A4E001572FF
:102A50009001A2E060447F81123AA0A872EFF69044
:102A6000019BE06F7003022AF0A872E6F07F8312E8
:102A70003AA0A872EFF6A3E06F6075A872E6123A6A
:102A80008DA3EFF07F8D123AA09001A1EFF07F8B24
:102A9000123AA09001A0EFF0805690019AE0FF0456
:102AA000F0EFC3940A4049E4F09001A204F0E4FD81
:102AB0007F8E123CDE90019BE0FD7F80123CDE7F2A
:102AC00082123CDB7F84123CDBA3E0FD7F86123C5C
:102AD000DEA3E0FD7F88123CDEA3E0FD7F8A123C8E
:102AE000DEA3E0FD7F8C123CDE7D807F8E123CDE1B
:032AF0000572224A
:102283007F81123AA090019BEFF07F83123AA0A3C3
:10229300EF123A8DA3EFF07F8B123AA0A3EFF07FFA
:1022A3008D123AA0A3EFF0E4FD7F8E123CDE7F1E79
:1022B300123EC9EF64A560047F0180027F00900194
:1022C3009BE05480FEA3E0D3945940047D01800237
:1022D3007D00ED4EFE90019DE0D394A440047D016A
:1022E30080027D00ED4EFE90019EE0D394314004C8
:1022F3007D0180027D00ED4EFE90019FE0D394129C
:1023030040047D0180027D00ED4EFE9001A0E0D3EC
:10231300940740047D0180027D00ED4EFE9001A1F3
:10232300E0D3949940047D0180027D00ED4E4F601F
:102333003078447C007D007B007A00794B7E007FFF
:1023430007120B3E123DF97DA57F1E123B3B789B86
:102353007C017D017B007A00794B7E007F07120BA5
:102363003E7DA97F90123CDE7D807F8E123CDE9005
:0E237300005A74FFF0A3742AF0A3744EF022F7
:103F0C00D2C0000000D2CD000000C2C000000022D0
:0D002E00C2C0000000D2CD000000D2C022F0
:0B3C5100123C75123C5CAF05123C7584
:103C5C00E4FFD2CD30C009EFC394FF50030F80F4C2
:083C6C00000000C2CD000000C1
:013C7400222D
:103C7500E4FEEF25E0FFC2CD00000092C000000089
:103C8500D2CD0000000EBE08E9C2CD000000D2C0B2
:033C95000000002C
:013C98002209
:103C9900C2CD000000D2C000E4FED2CD0000EF2565
:103CA900E0FDA2C0E4334DFF0000C2CD000EBE0806
:013CB900E921
:013CBA0022E7
:103E4000AC07123F0C7FA0123C75123C5CAF041211
:053E50003C5102002EB0
:023D5600AD07B7
:103D5800123F0C7FA0123C51123F0C7FA1123C7500
:093D6800123C5C123C9912002E81
:013D7100222F
:0B1DC8004801A3D4111A50400288A566
:093E7E007F03123E87D2C57F03C9
:0A3E8700AE071FEE60030080F72273
:103E9100D2A7123E7EC2A77F03123E87C2C57F030F
:033EA100023E8757
:0C3FA100C2A7123E7ED2A77F03023E871B
:103D7200E4FFD2C530A709EFC394FA50030F80F4D1
:0C3D82007F03123E87C2C57F03023E870C
:023BB400AD075B
:103BB600E4FBC2C57F03123E87ED3392A7ED25E0F5
:103BC600FD123E7E0BBB08EAC2C57F03123E87D2BA
:063BD600C57F03023E87DB
:02372B00157215
:10372D009001ABE064017037123E917F20123BB4E3
:10373D00123D72A872E4F6A872E6FFC39408501702
:10374D0074A32FF582E43401F583E0FF123BB4122C
:0F375D003D72A8720680E0123FA1E49001ABF02C
:03376C00057222C1
:1032B7009001A5E025E025E0FFA3E0C41313540324
:1032C7002F2466F515E43403F5149001AAE0540F92
:1032D700F5169001A8E0543FFF5403FEBE030575A1
:1032E70017FF8003E4F517EF540CFEBE0C057518A5
:1032F700FF8003E4F518EF5430FFBF30057519FF61
:0B3307008003E4F5197B007A007914C4
:013312002298
:10263E00D3E50F9438E50E940450047F0180027F99
:10264E0000C3E50F9466E50E940340047E018002FC
:10265E007E00EE5F60301232B7120CA7650F700469
:10266E00E5F0650E6020E50F249AFD1313543F909C
:10267E0001A5F0ED5403FFC4333354C04410A3F04E
:10268E009001AB7401F01232B7E92402F9E43AFA80
:10269E00120B64651060047F0180027F00E510D389
:1026AE00940F50047E0180027E00EE5F6011E510F3
:1026BE00540FFF9001AAE054F04FF0A37401F07D87
:1026CE002AE5116003430501E5126003430504E5A5
:1026DE001360034305109001A8E06D6008EDF090C3
:0526EE0001AB7401F0D6
:0126F30022C4
:103C2C00780E7C007D007B007A0079087E007F0690
:103C3C00120B3E12263E90005774FFF0A37437F01F
:053C4C00A3742BF0221F
:102D5D008B1EAA077C007E037FE8120BF090018387
:102D6D00EEF0A3EFF0E51FFD7C007E037FE8120B74
:102D7D00F0A3EEF0A3EFF0AF02AB07E4FAF9F89091
:102D8D000183E0FEA3E0FFE4FCFD120CD2EF243240
:102D9D00FFE43EFEE43DFDE43CFCE47B64FAF9F81F
:102DAD0012376F90017DEEF0A3EFF0AF1EAB07E48D
:102DBD00FAF9F8900185E0FEA3E0FFE4FCFD120CAA
:102DCD00D2EF2432FFE43EFEE43DFDE43CFCE47B27
:102DDD0064FAF9F812376F90017FEEF0A3EFF0224D
:1033C700E4F561F560F55FF55EF562D291AF61AE48
:1033D70060AD5FAC5E7801120E168F618E608D5FF7
:1033E7008C5E00C291309015E4FAF9F8EF2401F5EC
:1033F70061EA3EF560E93DF55FE83CF55E0562E5AB
:1034070062B418C700D2910000C291AF61AE60AD3F
:083417005FAC5E7808120E02A2
:01341F00228A
:09400900900181E0FEA3E0FF221A
:0F3F1C00900181E0FEA3E0FFE4900181F0A3F0AB
:013F2B002273
:1025570090017CE0700F309001221233C790018107
:10256700EEF0A3EFF090017CE0FF64017062055983
:10257700E55970020558FDD3900184E09D900183D1
:10258700E095585005E4F558F559D390017EE0954C
:102597005990017DE095584004D2908002C2900581
:1025A7005BE55B7002055AFDD3900186E09D9001C3
:1025B70085E0955A5005E4F55AF55BD3900180E024
:1025C700955B90017FE0955A4004D2918002C291B9
:1025D700EF6402703E2090047F0180027F00E55C7B
:1025E70060047E0180027E00EE5F602130911090D2
:1025F7000182E004F07016900181E004F0800E90F3
:102607000182E024FFF0900181E034FFF0A290E422
:1026170033F55C90017CE0B4031CE55D7002D29158
:10262700E55DB40105C29175DB21055DE55DC394E8
:06263700C84003E4F55D5C
:01263D00227A
:1039630090017CEFF07004C2918002D29190017CAF
:10397300E0B40310E5A254CFF5A2E4F5D975DB0159
:10398300D2DE8003E4F5DB90005D74FFF0A37425C1
:06399300F0A37457F022BE
:101DD3005501190000000000000000000000000091
:081DE3000000010000000000F7
:03002300021DECCF
:101DEC00C0E0C0F0C083C082C0D075D000C000C0BD
:101DFC0001C002C003C004C005C006C00730993B37
:101E0C00C29990011EE0FEA3E0FFC390011DE09F6C
:101E1C0090011CE09E501F900119E0FBA3E0FAA377
:101E2C00E0F9A3E475F001120C9185F082F58312B0
:101E3C000B7DF5998005900120E4F0209803021F9A
:101E4C0001C298300B09C20B900126E4F0A3F0906C
:101E5C000124E0FEA3E0FFA3E0FCA3E0FDC39FECA4
:101E6C009E5077900121E0FBA3E0FAA3E0F98D826C
:101E7C008C83E599120BBC90012CE0FEA3E0FFC310
:101E8C00ED9FEC9E5046900124E0FCA3E0FDEF9DFD
:101E9C00EE9C5038900129E0FBA3E0FAA3E0F99006
:101EAC000126E0FEA3E0FFF5828E83120B7DFD90F0
:101EBC000121E0FBA3E0FAA3E0F98F828E83120BE1
:101ECC007D6D600890012674FFF0A3F0900127E06F
:101EDC0004F07006900126E004F0900124E0FEA3CB
:101EEC00E0FFC3900127E09F900126E09E40069002
:101EFC0001287401F0D007D006D005D004D003D04F
:101F0C0002D001D000D0D0D082D083D0F0D0E0323B
:023F59001572DF
:0A3F5B00900128E0A872F6FFE4F0E0
:033F6500057222C0
:103182008F0B8E0A8D098C08759850438E40538E92
:10319200FE53890FE47B04FAF9F8900026120E29F7
:1031A200120D5DAB0BAA0AA909A808120D5DEFF476
:1031B20004F58BE47B04FAF9F8900026120E29122A
:1031C2000D5DAB0BAA0AA909A808120D5DC3E49F05
:1031D200FFE49EFE74019DFDE49CFC7808120DEF55
:1031E2008F8DC2ABD28ED2AC90004E74FFF0A3741E
:0731F2003FF0A37459F02225
:103A2D00900121EBF0A3EAF0A3E9F0A3ECF0A3EDF4
:103A3D00F090012CE510F0A3E511F0900129E50DB2
:103A4D00F0A3E50EF0A3E50FF0D20BE4900128F002
:013A5D002246
:103BDC00900120E0701F900119EBF0A3EAF0A3E92B
:103BEC00F0E4A3F0A3F0A3ECF0A3EDF0A37401F0C8
:083BFC00D2997F02227F03220F
:0B3FDA00900120E07002FF227F012216
:043C040015721572AE
:103C0800123FF7A872A60608A607A872E6FE08E6FD
:0F3C1800FF4E600BEF24FFFFEE34FFFE12400063
:053C2700057205722288
:103CFB0053B1EF43B21012403EE4F5D975DA49D215
:103D0B00DE90003F74FFF0A3743CF0A37404F02228
:08310A008E638F648C658D66F5
:10311200123FF7EF4E7066AF66AE65124000C3E530
:1031220064940AE5639400404BE47B18FAF9F89042
:103132000026120E29120D5DC006C007AE63AF64F1
:10314200AB07AA06E4F9F8D007D006120D5DAB076B
:10315200AA06AFF9EFFEADE97C00E42DFFEC3ECF0D
:103162002BCF3AAD07FCAF03AE02123EDBD2D843FF
:0F317200DA01800612403E53DAFE7F02227F030D
:01318100222B
:0C3FAD00123FF7EF4E7002FF227F01224E
:03000000022E7B52
:0C2E7B00787FE4F6D8FD758172022EC24B
:100A6E00E709F608DFFA8046E709F208DFFA803E6A
:100A7E0088828C83E709F0A3DFFA8032E309F60857
:100A8E00DFFA8078E309F208DFFA807088828C83BF
:100A9E00E309F0A3DFFA806489828A83E0A3F60873
:100AAE00DFFA805889828A83E0A3F208DFFA804C4D
:100ABE0080D280FA80C680D4806980F28033801024
:100ACE0080A680EA809A80A880DA80E280CA80338D
:100ADE0089828A83ECFAE493A3C8C582C8CCC58305
:100AEE00CCF0A3C8C582C8CCC583CCDFE9DEE780D5
:100AFE000D89828A83E493A3F608DFF9ECFAA9F054
:100B0E00EDFB2289828A83ECFAE0A3C8C582C8CCA9
:100B1E00C583CCF0A3C8C582C8CCC583CCDFEADEC2
:100B2E00E880DB89828A83E493A3F208DFF980CC24
:100B3E0088F0EF60010E4E60C388F0ED2402B4041D
:100B4E000050B9F582EB2402B4040050AF232345C4
:060B5E008223900ABE7321
:100B6400BB010689828A83E0225002E722BBFE028F
:090B7400E32289828A83E49322C2
:100B7D00BB010CE58229F582E5833AF583E022502D
:100B8D0006E92582F8E622BBFE06E92582F8E22277
:0D0B9D00E58229F582E5833AF583E4932291
:100BAA00BB010689828A83F0225002F722BBFE012A
:020BBA00F32224
:100BBC00F8BB010DE58229F582E5833AF583E8F06F
:100BCC00225006E92582C8F622BBFE05E92582C81B
:020BDC00F22203
:100BDE00EF8DF0A4A8F0CF8CF0A428CE8DF0A42E2B
:020BEE00FE22E5
:100BF000BC000BBE0029EF8DF084FFADF022E4CCE9
:100C0000F875F008EF2FFFEE33FEEC33FCEE9DECB1
:100C1000984005FCEE9DFE0FD5F0E9E4CEFD22EDF7
:100C2000F8F5F0EE8420D21CFEADF075F008EF2F41
:100C3000FFED33FD4007985006D5F0F222C398FD32
:050C40000FD5F0EA22CF
:100C4500C2D5EC30E709B2D5E4C39DFDE49CFCEECA
:100C550030E715B2D5E4C39FFFE49EFE120BF0C347
:100C6500E49DFDE49CFC8003120BF030D507C3E442
:060C75009FFFE49EFE2239
:100C7B00C5F0F8A3E028F0C5F0F8E5821582700204
:060C8B001583E038F022A1
:100C9100A3F8E0C5F025F0F0E58215827002158316
:060CA100E0C838F0E82273
:100CA700BB010A89828A83E0F5F0A3E02250068718
:100CB700F009E71922BBFE07E3F5F009E3192289DA
:0B0CC700828A83E493F5F0740193220D
:100CD200E88FF0A4CC8BF0A42CFCE98EF0A42CFCC1
:100CE2008AF0EDA42CFCEA8EF0A4CDA8F08BF0A43F
:100CF2002DCC3825F0FDE98FF0A42CCD35F0FCEB9E
:100D02008EF0A4FEA9F0EB8FF0A4CFC5F02ECD3962
:0F0D1200FEE43CFCEAA42DCE35F0FDE43CFC22CF
:100D210075F008758200EF2FFFEE33FECD33CDCC89
:100D310033CCC58233C5829BED9AEC99E58298400C
:100D41000CF582EE9BFEED9AFDEC99FC0FD5F0D6E9
:100D5100E4CEFBE4CDFAE4CCF9A88222B800C1B913
:100D61000059BA002DEC8BF084CFCECDFCE5F0CB51
:100D7100F97818EF2FFFEE33FEED33FDEC33FCEB8A
:100D810033FB10D703994004EB99FB0FD8E5E4F945
:100D9100FA227818EF2FFFEE33FEED33FDEC33FC32
:100DA100C933C910D7059BE99A4007EC9BFCE99A26
:100DB100F90FD8E0E4C9FAE4CCFB2275F010EF2F6B
:100DC100FFEE33FEED33FDCC33CCC833C810D7076B
:100DD1009BEC9AE899400AED9BFDEC9AFCE899F8A6
:0E0DE1000FD5F0DAE4CDFBE4CCFAE4C8F92239
:10376F00C2D5E830E70FB2D5E4C39BFBE49AFAE485
:10377F0099F9E498F8EC30E717B2D51237A5120D86
:10378F005DE4C39BFBE49AFAE499F9E498F88003AB
:10379F00120D5D30D50DE4C39FFFE49EFEE49DFD49
:0437AF00E49CFC2278
:100DEF00E8600FECC313FCED13FDEE13FEEF13FFE2
:030DFF00D8F12206
:100E0200E86010ECA2E713FCED13FDEE13FEEF1306
:040E1200FFD8F022F3
:100E1600E8600FEFC333FFEE33FEED33FDEC33FC3A
:030E2600D8F122DE
:100E2900E493FC740193FD740293FE740393FF220F
:0C0E3900ECF0A3EDF0A3EEF0A3EFF0222C
:0C0E4500A42582F582E5F03583F58322B8
:060E51008A838982E4732C
:100E5700E709F60870FA8046E709F20870FA803E5B
:100E670088828C83E709F0A370FA807EE309F6088D
:100E770070FA8076E309F20870FA806E88828C83B4
:100E8700E309F0A370FA806289828A83E0A3F608F7
:100E970070FA805689828A83E0A3F20870FA804A42
:100EA70080D280FA80C680D4806580F2803180103D
:100EB70080A680EA809A80A880DA80E280CA8031A2
:100EC70089828A83ECFAE493A3C8C582C8CCC58318
:100ED700CCF0A3C8C582C8CCC583CC70E9800D8986
:100EE700828A83E493A3F60870F9ECFAA9F0EDFB84
:100EF7002289828A83ECFAE0A3C8C582C8CCC5835D
:100F0700CCF0A3C8C582C8CCC583CC70EA80DD8984
:100F1700828A83E493A3F20870F980CE88F0ED24E7
:100F270002B4040050C4F582EB2402B4040050BAA2
:090F37002323458223900EA773C9
:103E5500E4FFFE120B64600C0FEF70010E09E970B0
:053E6500F20A80EF22CB
:103D8E00E94A4B700122120B64FF6D700122EF7035
:0C3D9E0004FBFAF92209E970ED0A80EA42
:102F92008B0D8A0E890FE94A4B700985670D85688A
:102FA2000E85690FE50F450E450D7002802C8510C8
:102FB20016851117851218AB0DAA0EA90F1231F939
:102FC200EF250FF50FEE350EF50EAB0DFAA90F1228
:102FD2000B64700AF567F568F569FBFAF92285104A
:102FE20016851117851218AB0DAA0EA90F12325AA7
:102FF2008B678A688969EA494B600EE4120BAA045E
:103002002569F569E43568F568AB0DAA0EA90F22AA
:1027A9008B0D8A0E890FAB0DAA0EA90F120B64FFB0
:1027B900123EA4500D7401250FF50FE4350EF50EE8
:1027C90080E4D212AB0DAA0EA90F120B64FF642B81
:1027D9006004EFB42D1BAB0D050FE50FAA0E7002B7
:1027E900050E14F9120B64642D6003D38001C392A2
:1027F90012E4F510F511AB0DAA0EA90F120B64FF27
:10280900123F685036AB0DAA0EA90F120B64FF33A5
:1028190095E0FEEF24D0FBEE34FFFAAE10AF117C49
:10282900007D0A120BDEEF2BF511EE3AF51074015B
:10283900250FF50FE4350EF50E80BB301206AE10EC
:0E284900AF118009C3E49511FFE49510FE2243
:100F4000EF4E6012EF60010EEDBB010B89828A83C8
:100F5000F0A3DFFCDEFA2289F05007F709DFFCA9D5
:0C0F6000F022BBFEFCF309DFFCA9F0222C
:102E870002308FE493A3F8E493A34003F68001F2A2
:102E970008DFF48029E493A3F85407240CC8C3334C
:102EA700C4540F4420C8834004F456800146F6DF1B
:102EB700E4800B0102040810204080901C40E47E4F
:102EC700019360BCA3FF543F30E509541FFEE49310
:102ED700A360010ECF54C025E060A840B8E493A3D7
:102EE700FAE493A3F8E493A3C8C582C8CAC583CA02
:102EF700F0A3C8C582C8CAC583CADFE9DEE780BEBA
:011DEB0000F7
:0F3F6800EFC394304007EF943A50028001C32218
:103EA400EFC394094005EF940E4003BF2003D38071
:033EB40001C32225
:1031F9008B138A148915E4F519F51AE4FEFFAB1649
:10320900AA17A9188F828E83120B7DFD6013AB1349
:10321900AA14A915120B646D60070FBF00010E8077
:10322900DDAB16AA17A9188F828E83120B7D700247
:10323900801A051AE51A70020519AB130515E5156B
:1032490070020514F9AA14120B6470AFAE19AF1A03
:013259002252
:10325A008B138A14891585161985171A85181BABBD
:10326A0019AA1AA91B120B64FF6019AB13AA14A995
:10327A0015120B646F600D7401251BF51BE4351ADA
:10328A00F51A80DBAB19AA1AA91B120B646007ABEB
:10329A0013AA14A91522AB130515E515AA14700271
:0D32AA00051414F9120B6470ADFBFAF92243
:00000001FF
