:102A09007F981230681233F61233681233087D0743
:102A1900E4FF1235FAE4F50C7F807E25FDFC1221D6
:102A290010122C451230007F01122FCA750D017545
:102A39000E01750FACE4F510F5117B017A0179AC43
:102A49007D01FC1230997BFF7A3479E87F0A1228DC
:102A59002D7BFF7A3479FA7F0312282D7BFF7A23A5
:0F2A690079C07F0712282D123638122F1780FBE5
:0935F1008B88898C88898F8889F8
:1015870052011E868600868600868600868600862D
:091597008600868600410113095B
:03002B0002362C6E
:06362C0053BCEFD20F3287
:0213DB001556A5
:1013DD00200F03021584C20F900112E0B4090040E2
:1013ED00030215669013F8F828287302143F0214AF
:1013FD001302142502145102141302142502146849
:10140D00021413021425AFBDEFFEADBE7C00E42D1A
:10141D00FFEC3E900114803CAFBDEFFEADBE7C00F5
:10142D00E42DFFEC3E900116F0A3EFF0754F010295
:10143D00156CAFBDEFFEADBE7C00E42DFFEC3E9014
:10144D0001188010AFBDEFFEADBE7C00E42DFFECAA
:10145D003E90011AF0A3EFF002156CAFBDEFFEAD9B
:10146D00BE7C00E42DFFEC3E90011CF0A3EFF0904C
:10147D00011CE0FEA3E07807CEC313CE13D8F9A864
:10148D0056F6C394065013A856E675F003A4241E11
:10149D00F582E43401F583E014F0900113E014F0CB
:1014AD00600302156C7409F0A856E4F6A856E6FF21
:1014BD00C39406400302156CEF75F003A4241EF5CA
:1014CD0082E43401F583E0C39480502AE6FF75F081
:1014DD0003A4241FF582E43401F583E0D394804006
:1014ED0040EF75F003A42420F582E43401F58374F4
:1014FD0001F0F550802BA856E6FF75F003A4241FCC
:10150D00F582E43401F583E0C394805014EF75F057
:10151D0003A42420F582E43401F5837402F07550A0
:10152D0001A856E6FF75F003A4241EF582E43401EC
:10153D00F583E0FEEF75F003A4241FF582E434017A
:10154D00F583EEF0E675F003A4241EF582E4340174
:10155D00F5837486F0060214B990011274FFF090B1
:10156D000112E0D39407400374FFF0900112E004E0
:07157D00F09035F193F5BC7D
:03158400055622E7
:02358E001556D0
:09359000A856A650E4F550E6FF30
:03359900055622B2
:02359C001556C2
:09359E00A856A64FE4F54FE6FF24
:0335A700055622A4
:103068008F9D75BC88439720D2AD90004574FFF0C2
:10307800A37413F0A374DBF0A374FFF0A37435F00A
:10308800A3748EF0A374FFF0A37435F0A3749CF0BE
:013098002215
:070003007B017A0179142250
:102D8700C3EF64809480403BD3EF648094855033D5
:102D9700EFFD3395E0FC90012075F003ED12066816
:102DA700EC75F003A42583F583E0FE90012075F010
:102DB70003ED120668EC75F003A42583F583E4F0B0
:052DC700AF06227F03AE
:012DCC0022E4
:0432010015561556F3
:10320500123603A856A60608A607A856E6FE08E63F
:0F321500FF4E600BEF24FFFFEE34FFFE12360C6E
:053224000556055622CD
:1033080053B1EF43B210123644E4F5D975DA49D215
:10331800DE90003F74FFF0A37432F0A37401F02232
:0828AA008E1C8F1D8C1E8D1F7A
:1028B200123603EF4E7066AF1FAE1E12360CC3E522
:1028C2001D940AE51C9400404BE47B18FAF9F89039
:1028D200002612064C120572C006C007AE1CAF1DC0
:1028E200AB07AA06E4F9F8D007D006120572AB07C7
:1028F200AA06AFF9EFFEADE97C00E42DFFEC3ECF76
:102902002BCF3AAD07FCAF03AE02123530D2D8431B
:0F291200DA01800612364453DAFE7F02227F0379
:012921002293
:0C35B800123603EF4E7002FF227F01224A
:101E8A00E4F580900177E0FFB40800505F901E9E51
:101E9A00F8282873021EB6021EBC021EC2021EC801
:101EAA00021ECE021ED8021EE2021EECC2A3C2A26B
:101EBA008016C2A3C2A2801AC2A3C2A2801EC2A353
:101ECA00C2A28022C2A3D2A2C2A1C2A08020C2A35F
:101EDA00D2A2C2A1D2A08016C2A3D2A2D2A1C2A06B
:101EEA00800CC2A3D2A2D2A1D2A08002D2A3C3EFF5
:101EFA00648094885029900177E0FF3395E0FE745E
:101F0A006E2FF58274013EF583E0FF3395E0FE748F
:101F1A00552FF582742F3EF583E493F580801E9049
:101F2A000177E0FFB408133395E0FE746E2FF58253
:101F3A0074013EF583E0F5808003E4F58090016D3D
:101F4A00E0FF900177E004FEF0D3EF6480F8EE64DE
:101F5A0080984014E0D36480948850047408F02276
:091F6A0090016CE0900177F02277
:1033F600E4F5937594FF5395F043960F90002A7465
:0B340600FFF0A3741EF0A3748AF022F4
:0935FA0090016CEFF0A3EDF0224A
:1033280090016EEFF0A3EDF0A3EBF0A3E50BF0A393
:10333800E50CF0A3E50DF0A3E50EF0A3E50FF022F0
:06363200900176EFF0228A
:1015A000015500490184949400949400949400415E
:0315B00001831E96
:02197300155607
:1019750020B206900184E014F020B306900187E0C0
:1019850014F020970690018AE014F0900183E0148A
:10199500F06003021A93741EF0A856E4F6A856E602
:1019A500FFC3648094834003021A93EF3395E0FEEE
:1019B50090018475F003EF120668EE75F003A42517
:1019C50083F583E0C39480503990018575F003EF6A
:1019D500120668EE75F003A42583F583E0D39480A1
:1019E500405AE6FF3395E0FE90018675F003EF124D
:1019F5000668EE75F003A42583F5837401F0F555AB
:101A0500803AA856E6FF3395E0FE90018575F00310
:101A1500EF120668EE75F003A42583F583E0C39401
:101A250080501990018675F003EF120668EE75F087
:101A350003A42583F5837402F0755501A856E6FFC6
:101A4500FD3395E0FC90018475F003ED120668EC1A
:101A550075F003A42583F583E0FE90018575F003F9
:101A6500ED120668EC75F003A42583F583EEF0EF1F
:101A75003395E0FE90018475F003EF120668EE756C
:0E1A8500F003A42583F5837494F0060219A2E1
:031A9300055622D3
:0235AA001556B4
:0935AC00A856A655E4F555E6FF0A
:0335B50005562296
:1033680090003074FFF0A37435F0A374AAF09000B5
:0D3378002D74FFF0A37419F0A37473F022FC
:102E9800EF600764016003BF0233EFFD3395E0FC88
:102EA80090018675F003ED120668EC75F003A42511
:102EB80083F583E0FE90018675F003ED120668EC59
:0F2EC80075F003A42583F583E4F0AF06227F03A2
:012ED70022D8
:1015B3004100000A4100290A41006D0A0429000084
:1015C3000000012F004600670000FFFF8FFFC10DE1
:1015D300C105C108C101C10E60240005FF000AFF57
:1015E300000AFF000AFF000AFF000AFF000AFF00CB
:1015F3000AFF000AFF000AFF000AFF000AFF000AB1
:101603006036002AFF000AFF000AFF003EFF000ABF
:10161300FF003EFF000AFF003EFF000AFF000AFF33
:10162300000AFF003EFF003EFF003EFF003EFF00BA
:0A1633000AFF000AFF000AFF000A88
:01000A0022D3
:03003E007F00221E
:102D4000438E805389F07BE07A28790178009000E7
:102D50002612064C122E11EFF404F58A7BE07A2835
:102D60007901780090002612064C122E11C3E49FC0
:102D7000FFE49EFE74019DFDE49CFC78081206258C
:072D80008F8CD28CD2A92236
:03000B00022CEED6
:042CEE00C0E0C0D0B2
:102CF200D5230A75234C300D02052FD20DA2037283
:102D02000450361525E5257030852725D207300A6F
:102D120017E52860071528438F01801D538FFEC2D7
:102D2200B5D53115C20A80110526E526D394064091
:092D320008C203E52E6002D2067E
:052D3B00D0D0D0E03211
:102C9B00300E47C20E90002612064C7810120625F5
:102CAB008E518F52900003E0FEA3E0FFE4FCFD7B0E
:102CBB0019FAF9F81204E7C006C007AE51AF52ABD0
:102CCB0007AA06E4F9F8D007D006122E11780312E2
:102CDB000625900065EEF0A3EFF0900065E0FEA3F3
:022CEB00E0FF08
:012CED0022C4
:09360300900067E0FEA3E0FF2245
:09360C00900067EEF0A3EFF0223C
:1035300090006BEEF0A3EFF0900069ECF0A3EDF0DB
:013540002268
:03364400C2B422EB
:03003B000222732B
:10227300C0E0C083C082C0D075D000C004C005C018
:0322830006C0078B
:1022860030DF04C2DF807D30DA04C2DA807630D9EE
:102296003DC2D9AFFBEFFEADEB7C00E42DFFEC3E7B
:1022A60020000E900001F0A3EFF075DB11D2008044
:1022B60053FE900001E0FCA3E0FDC3EF9DFFEE9C02
:1022C600A3F0A3EFF075DB00C200D20E803630D843
:1022D60033C2D8900067E07002A3E06022B2B490E7
:1022E6000069E0FEA3E0F5EAEEF5FAA3E0FEA3E05E
:1022F600FF90006AE02FF0900069E03EF08005C292
:04230600B453DAFEF4
:10230A00D007D006D005D004D0D0D082D083D0E078
:01231A003290
:06363800122D40D2AF226A
:1026A3003004047F0180027F00200A047E0180023F
:1026B3007E00EE5F6074E530C395245068300236C7
:1026C300752801E530131313541FAB32AA33A93411
:1026D300F5827583001203BAFFE530540704FEEF59
:1026E300A806088002C333D8FC30D70575310380B0
:1026F3002F753101802AAB32AA33A93475F002E574
:1027030030A4F58285F0831203BAF528E53075F01D
:1027130002A429F9EA35F0FA9000011203BAF5315F
:0A2723000530D20A22C204438F10D1
:01272D002289
:101CB100900000E014F0701F740AF0D20590002922
:101CC100E014F07012740AF0D20890006DE014F084
:101CD1007005740AF0D20190002AA3E0FAA3E0F99A
:101CE10012067490002DA3E0FAA3E0F91206749095
:101CF1000039A3E0FAA3E0F9120674900045A3E0CD
:101D0100FAA3E0F9120674900054A3E0FAA3E0F9F3
:101D110012067490005DA3E0FAA3E0F91206749034
:101D2100004BA3E0FAA3E0F9120674EF600C9000F7
:101D31001DA3E0FAA3E0F912067490004EA3E0FAA5
:101D4100A3E0F9120674EF600E900020A3E0FAA35D
:101D5100E0F9120674D20BE52DD394004016D52D6F
:101D61003030090C900023A3E0FAA3E0F9120674C5
:101D7100D20C801D900051A3E0FAA3E0F912067481
:101D8100EF600E900023A3E0FAA3E0F9120674D2EB
:0D1D91000C900005A3E0FAA3E0F90206742F
:1024F40090003FA3E0FAA3E0F9120674900042A30F
:10250400E0FAA3E0F9120674900033A3E0FAA3E022
:10251400F9120674900008A3E0FAA3E0F912067415
:10252400900030A3E0FAA3E0F9120674EF600C9077
:102534000011A3E0FAA3E0F9120674900036A3E0B8
:10254400FAA3E0F9120674EF600C900017A3E0FA06
:10255400A3E0F9120674900048A3E0FAA3E0F9128C
:102564000674EF600C90001AA3E0FAA3E0F91206D7
:102574007430060EC206900026A3E0FAA3E0F91216
:03258400067422B8
:102ED80090000BA3E0FAA3E0F912067490003CA35B
:102EE800E0FAA3E0F9120674EF600C900014A3E076
:102EF800FAA3E0F9120674900057A3E0FAA3E0F9E8
:0F2F080012067490005AA3E0FAA3E0F9020674CF
:10315800AF2CAE2BAD2AAC2990006012065C900013
:1031680064E52FF0E4F52CF52BF52AF529F52F90D9
:0B317800000EA3E0FAA3E0F9020674C9
:102F1700300705C2071226A3300D05C20D121CB1DA
:102F2700300505C2051224F4300805C208122ED850
:102F3700300105C201123158E52C2401F52CE43586
:0E2F47002BF52BE4352AF52AE43529F529224D
:10282D008B088A09890AEFB40C005070902840F883
:10283D0028287302286402286902286E0228730270
:10284D00287802287D02288202288702288C0228F7
:10285D009102289602289B900005803590000880F3
:10286D003090000B802B90000E802690001180215F
:10287D00900017801C900014801790001A80129001
:10288D00001D800D90002080089000238003900093
:0D289D0026E508F0A3E509F0A3E50AF02206
:07361E007B017A00796022B4
:102587008B4AAA077C007E037FE812041B90017F19
:10259700EEF0A3EFF0E54BFD7C007E037FE812042D
:1025A7001BA3EEF0A3EFF0AF02AB07E4FAF9F89044
:1025B700017FE0FEA3E0FFE4FCFD1204E7EF243215
:1025C700FFE43EFEE43DFDE43CFCE47B64FAF9F8FD
:1025D700122E11900179EEF0A3EFF0AF4AAB07E4AA
:1025E700FAF9F8900181E0FEA3E0FFE4FCFD120494
:1025F700E7EF2432FFE43EFEE43DFDE43CFCE47BF0
:1026070064FAF9F8122E1190017BEEF0A3EFF02295
:102BEC00E4F50BF50AF509F508F50CD291AF0BAE2F
:102BFC000AAD09AC0878011206398F0B8E0A8D09C3
:102C0C008C0800C291309015E4FAF9F8EF2401F524
:102C1C000BEA3EF50AE93DF509E83CF508050CE53B
:102C2C000CB418C700D2910000C291AF0BAE0AAD24
:082C3C0009AC08780812062516
:012C4400226D
:0936150090017DE0FEA3E0FF221C
:0F35410090017DE0FEA3E0FFE490017DF0A3F098
:013550002258
:101F7300900178E0700F30900122122BEC90017DDC
:101F8300EEF0A3EFF0900178E0FF64017062053D8D
:101F9300E53D7002053CFDD3900180E09D90017FFB
:101FA300E0953C5005E4F53CF53DD390017AE0958E
:101FB3003D900179E0953C4004D2908002C29005A7
:101FC3003FE53F7002053EFDD3900182E09D900105
:101FD30081E0953E5005E4F53EF53FD390017CE06A
:101FE300953F90017BE0953E4004D2918002C291DF
:101FF300EF6402703E2090047F0180027F00E54081
:1020030060047E0180027E00EE5F602130911090BB
:10201300017EE004F0701690017DE004F0800E90E4
:10202300017EE024FFF090017DE034FFF0A290E414
:1020330033F540900178E0B4031CE5417002D2917E
:10204300E541B40105C29175DB210541E541C39426
:06205300C84003E4F54162
:012059002264
:102FCA00900178EFF07004C2918002D2919001785A
:102FDA00E0B40310E5A254CFF5A2E4F5D975DB01FC
:102FEA00D2DE8003E4F5DB90005D74FFF0A3741F6A
:062FFA00F0A37473F02245
:10163D005501300000000000000000000000000017
:08164D00000001000000000094
:0300430002104464
:10104400C0E0C0F0C083C082C0D075D000C000C072
:1010540001C002C003C004C005C006C007E59A3041
:10106400E142539AFD900135E0FEA3E0FFC39001F5
:1010740034E09F900133E09E501F900130E0FBA3C9
:10108400E0FAA3E0F9A3E475F0011204A685F08266
:10109400F5831203BAF59B800B900137E4F0E55415
:1010A4006002C2B7E59A20E0030211FB539AFE30B6
:1010B4000C0BC20C90013DE4F0A3F0D209E554649A
:1010C40002600302115590013BE0FEA3E0FFA3E0A0
:1010D400FCA3E0FDC39FEC9E5071900138E0FBA39C
:1010E400E0FAA3E0F98D828C83E59B1203F9900169
:1010F40043E0FEA3E0FFC3ED9FEC9E504090013B14
:10110400E0FCA3E0FDEF9DEE9C5032900140E0FB3B
:10111400A3E0FAA3E0F990013DE0FEA3E0FFF5822D
:101124008E831203BAFD900138E0FBA3E0FAA3E03A
:10113400F98F828E831203BA6D6002C20990013E58
:10114400E004F0700690013DE004F085532D021197
:10115400FB90013BE0FEA3E0FFA3E0FCA3E0FDC3A2
:101164009FEC9E5077900138E0FBA3E0FAA3E0F9EE
:101174008D828C83E59B1203F9900143E0FEA3E08A
:10118400FFC3ED9FEC9E504690013BE0FCA3E0FDC5
:10119400EF9DEE9C5038900140E0FBA3E0FAA3E001
:1011A400F990013DE0FEA3E0FFF5828E831203BABD
:1011B400FD900138E0FBA3E0FAA3E0F98F828E836F
:1011C4001203BA6D600890013D74FFF0A3F0900122
:1011D4003EE004F0700690013DE004F090013BE035
:1011E400FEA3E0FFC390013EE09F90013DE09E40DE
:1011F4000690013F7401F0D007D006D005D004D08A
:1012040003D002D001D000D0D0D082D083D0F0D08F
:02121400E032C6
:023561001556FD
:0A35630090013FE0A856F6FFE4F0E7
:03356D00055622DE
:01002A0022B3
:102110008F0B8E0A8D098C08850C54E55470028053
:102120000343BA01E554701790005D74FFF0A37487
:1021300000F0A3742AF0E4F5DBD290D2918020C2A3
:10214000B7AB0BAA0AA909A808E47F407E9CFDFC56
:102150001205728F53E553700375530185532D7526
:102160009A10E47B04FAF9F890002612064C120546
:1021700072AB0BAA0AA909A808120572EFF404F5BC
:10218000D7E47B04FAF9F890002612064C12057287
:10219000AB0BAA0AA909A808120572C3E49FFFE4C1
:1021A0009EFE74019DFDE49CFC78081206128FD6F9
:1021B000438E1443AF0190005174FFF0A37435F0C7
:0521C000A37461F02290
:10309900900138EBF0A3EAF0A3E9F0A3ECF0A3ED7B
:1030A900F0900143E510F0A3E511F0900140E50D22
:1030B900F0A3E50EF0A3E50FF0D20CE490013FF088
:0130C90022E4
:1030FB00900137E07026900130EBF0A3EAF0A3E9E2
:10310B00F0E4A3F0A3F0A3ECF0A3EDF0A37401F0B3
:0F311B00E5546002D2B7439A027F02227F03225B
:0B35D000900137E07002FF227F012213
:100C510000EF00C500AF00A00096008E0087008164
:100C6100007C007800740071006D006B0068006505
:100C710000630061005F005D005B005A0058005690
:100C810000550054005200510050004E004D004CE0
:100C9100004B004A00490048004700460045004417
:100CA10000430043004200410040003F003F003E3E
:100CB100003D003D003C003B003A003A003900395C
:100CC1000038003700370036003600350034003474
:100CD1000033003300320032003100310030003087
:100CE100002F002F002E002E002D002D002C002C97
:100CF100002B002B002A002A0029002900290028A6
:100D010000280027002700260026002600250025B0
:100D110000240024002400230023002200220022BA
:100D210000210021002000200020001F001F001FC3
:100D3100001E001E001D001D001D001C001C001CCB
:100D4100001B001B001B001A001A001A00190019D1
:100D510000180018001800170017001700160016D9
:100D610000160015001500150014001400140013DE
:100D710000130013001200120012001100110010E4
:100D810000100010000F000F000F000E000E000EEB
:100D9100000D000D000D000C000C000C000B000BF1
:100DA100000B000A000A00090009000900080008F8
:100DB10000080007000700070006000600050005FF
:100DC100000400040003000300030002000200010C
:100DD1000001000100000000FFFFFFFFFFFFFFFE19
:100DE100FFFEFFFDFFFDFFFCFFFCFFFBFFFBFFFA2A
:100DF100FFFAFFF9FFF9FFF8FFF8FFF7FFF7FFF63A
:100E0100FFF6FFF5FFF5FFF4FFF3FFF3FFF2FFF24B
:100E1100FFF1FFF0FFF0FFEFFFEEFFEDFFEDFFEC65
:100E2100FFEBFFEAFFE9FFE8FFE7FFE6FFE5FFE48D
:100E3100FFE3FFE2FFE0FFDFFFDDFFDCFFDAFFD8CA
:0C0E4100FFD5FFD2FFCEFFC9FFC1016941
:071655004401662828282843
:102B9200120003785C7C017D017E007F0A12037BB8
:102BA200900160E0FFA3E090016ACFF0A3EFF09004
:102BB200016AE0FEA3E07802CEA2E713CE13D8F8B2
:102BC200F0EE90016AF0A3E025E0FF90016AE033A5
:102BD200FE74512FF582740C3EF583E493FF740169
:0A2BE2009390015ACFF0A3EFF02208
:1024600090015AE0FEA3E0FFC3EE648094805031F7
:10247000C3E49FFFE49EFE7C007D0A1204707C0092
:102480007D0A1204708D0E750B0A750C0A750D0C01
:1024900090015AE0FEA3E0FFC3E49FFFE49EFE80AC
:1024A0004090015AE0FEA3E0FF7C007D64120470BE
:1024B0007C007D0A120470AB0590015AE0FEA3E097
:1024C000FF7C007D0A1204707C007D0A1204708D6E
:1024D0000E8B0D750B0A750C0A90015AE0FEA3E0F5
:1024E000FF7C007D0A1204708D0F7B0A7D0A7F0A33
:0424F0001233282259
:04165C004101B00098
:1023C0007F05122D879000B2EFF07F02122D8790CB
:1023D00000B3EFF07F04122D879000B4EFF07F017F
:1023E000122D879000B5EFF09000B2E0B4010E908E
:1023F00001B0E004F0E0D394024002E4F09000B3B6
:10240000E0B4010F9001B0E014F0E0C39400500379
:102410007402F09000B4E0B4011FE500D3940040D2
:1024200018150078087C007D007B007A0079007E1A
:10243000007F0612037B12205A9000B5E0B4011F02
:10244000E500C3940F5018050078087C007D007BE0
:0F245000007A0079007E007F0612037B12205A6B
:01245F00225A
:103443009001B0E014600A14600A24027009022992
:0834530099022460122E55229B
:101660004C00E9000003F1043607F506000000C154
:0B167000104300E50000004100E8010D
:101D9E001234D6900111EFF020105D9000E8E0C3F0
:101DAE0094065054E0FF04F0EF25E024E9F582E4B8
:101DBE003400F583E0FCA3E0FDE41201F17466FB50
:101DCE00FAF97840120046C004C005C006C007905C
:101DDE000111E0FCE41201F6A804A905AA06AB075E
:101DEE00D007D006D005D00412014F12022A90005F
:101DFE00B2EEF0A3EFF080212010159000E8E0C3C2
:101E0E009406400C9000B27404F0A374B0F08009F4
:101E1E009000B2E4F0A37414F09000B2E0FAA3E0E4
:101E2E00FB7C007D3CFFAE0212041B900191E0751D
:101E3E00F007A424F6F582E43400F583EFF07C007D
:101E4E007D3CAF03AE0212041B900191E0FE75F0D3
:101E5E0007A424F5F582E43400F583EDF0EE75F079
:101E6E0007A424F5F9740035F0FA7B0178087C009C
:0C1E7E007D007E007F0712037B02342AE7
:10184E00123625C001900191E075F007A424F5F938
:10185E00740035F0A801FC7D01D0017E007F0712D7
:10186E00037B900191E0FF75F007A424F6F582E466
:10187E003400F583E07015EF75F007A424F5F582BA
:10188E00E43400F583E07004B210802C900191E0F6
:10189E00FF75F007A424F5F582E43400F583E0D358
:1018AE00943C5014EF75F007A424F6F582E434004E
:1018BE00F583E0D394024005121D9E80499001915C
:1018CE00E0FF75F007A424F5F582E43400F583E01B
:1018DE007023900191E0FE75F007A424F5F582E4E3
:1018EE003400F583743BF0EE75F007A424F6F58210
:1018FE00E43400800CEF75F007A424F5F582E4348F
:10190E0000F583E014F0900191E075F007A424F542
:10191E00F9740035F0FA7B0178087C007D007E00BA
:10192E007F0712037B12342A900191E0FD75F007B8
:10193E00A424F6F582E43400F583E075F03CA4FFB0
:10194E00AEF0ED75F007A424F5F582E43400F583CE
:10195E00E07C002FFFEC3E9000E5F0A3EFF0A2102C
:05196E00E433A3F022A8
:10299900123625C001900191E075F007A424F5F9DC
:1029A900740035F0A801FC7D01D0017E007F07127B
:1029B900037B900191E0FF75F007A424F6F582E40A
:1029C9003400F583E0FE75F00A84FDEE75F00A84A3
:1029D900AEF0EF75F007A424F5F582E43400F58331
:1029E900E0FF75F00A84FCEF75F00A8485F00F8C1E
:1029F9000E8E0C8D0B750D0A7B0AE4FDFF02332840
:07167B004401A8322D3237B3
:1034D600900191E024A8F582E43401F583E0FF7EB3
:0234E6000022C2
:102E5500750B2E750C2D900191E0FF24A8F582E4E9
:102E65003401F583E0FE75F06484F50DEE75F00A26
:102E75008475F00A8485F00E74A82FF582E4340178
:102E8500F583E075F00A8485F00F7B2E7D367F276C
:032E9500023328DD
:1007A1000000000000000000000000000000000048
:1007B1000000000000000000000000000000000038
:1007C1000000000000000000000000000000000028
:1007D1000000000000000000000000000000000018
:1007E1000000000000000000000000000000000008
:1007F10000000000000000000000000000000000F8
:10080100000000009CBBCDE5D5F2B5BDC1CBA3ACCA
:10081100B1BED5BECEAABBBBB3CBD5BEA3ACBFC9FF
:10082100BBBBB3CB32BAC5CFDFA1A3CFC2B3B5CA6D
:10083100B1A3ACC7EBD7A2D2E2C1D0B3B5D3EBD54C
:10084100BECCA8D6AEBCE4B5C4BCE4CFB6000000B3
:100851000000000000000000000000000000000097
:100861000000000000000000000000000000000087
:100871000000000000000000000000000000000077
:100881000000000000000000000000000000000067
:100891000000000000000000000000000000000057
:1008A1000000000000000000000000000000000047
:1008B1000000000000000000000000000000000037
:1008C1000000000000000000000000000000000027
:1008D1000000000000000000000000000000000017
:1008E1000000000000000000000000000000000007
:1008F10000000000000000000000000000000000F7
:1009010000000000000000000000000000000000E6
:1009110000000000000000000000000000000000D6
:1009210000000000000000000000000000000000C6
:1009310000000000000000000000000000000000B6
:1009410000000000000000000000000000000000A6
:100951000000000000000000000000000000000096
:100961000000000000000000000000000000000086
:100971000000000000000000000000000000000076
:100981000000000000000000000000000000000066
:1009910000000000B3B5C3C5BCB4BDABB9D8B1D577
:1009A100A3ACBDF7B7C0BCD0C9CB000000000000AC
:1009B1000000000000000000000000000000000036
:1009C1000000000000000000000000000000000026
:1009D1000000000000000000000000000000000016
:1009E1000000000000000000000000000000000006
:1009F10000000000000000000000000000000000F6
:100A010000000000000000000000000000000000E5
:100A110000000000000000000000000000000000D5
:100A210000000000000000000000000000000000C5
:100A310000000000000000000000000000000000B5
:100A410000000000000000000000000000000000A5
:100A51000000000000000000000000000000000095
:100A61000000000000000000000000000000000085
:100A71000000000000000000000000000000000075
:100A81000000000000000000000000000000000065
:100A91000000000000000000000000000000000055
:100AA1000000000000000000000000000000000045
:100AB1000000000000000000000000000000000035
:100AC1000000000000000000000000000000000025
:100AD1000000000000000000000000000000000015
:100AE1000000000000000000000000000000000005
:100AF10000000000000000000000000000000000F5
:100B010000000000000000000000000000000000E4
:100B110000000000000000000000000000000000D4
:100B210000000000B1BEB4CEC1D0B3B5BFAACDF9AB
:100B3100A3ACB6C5BCD2C6BAA1A3CFC2D2BBD5BEE7
:100B41003A9CBBCDE5D5F2A1A3D0E8BBBBB3CB3278
:100B5100BAC5CFDFB5C4B3CBBFCDC7EBD4DA9CBB2D
:100B6100CDE5D5F2CFC2B3B5000000000000000012
:100B71000000000000000000000000000000000074
:100B81000000000000000000000000000000000064
:100B91000000000000000000000000000000000054
:100BA1000000000000000000000000000000000044
:100BB1000000000000000000000000000000000034
:100BC1000000000000000000000000000000000024
:100BD1000000000000000000000000000000000014
:100BE1000000000000000000000000000000000004
:100BF10000000000000000000000000000000000F4
:100C010000000000000000000000000000000000E3
:100C110000000000000000000000000000000000D3
:100C210000000000000000000000000000000000C3
:100C310000000000000000000000000000000000B3
:100C410000000000000000000000000000000000A3
:081682004101AC004101AD0083
:1034E8009001ACE0B44105A37401F022E49001AD71
:0234F800F022C0
:1027AE009001ADE0640160769000E5E0FEA3E0FFED
:1027BE009000B2EEF0A3EFF0640C4E70159000E7AF
:1027CE00E0700F900191E075F064A424A1F97407F4
:1027DE0080409000B2E07004A3E064057016900093
:1027EE00E7E0B4010F900191E075F064A42431F993
:1027FE007409801E9000B2E07002A3E07020900079
:10280E00E7E0B40119900191E075F064A424C1F9D8
:0E281E00740A35F0FA7BFF7D647C001230FBFB
:01282C002289
:0400260000A8C0006E
:10168A0044018D0000000044019200000000410165
:02169A009101BC
:1034FA0012184E122B921234D61234431227AE02ED
:02350A000E4D64
:102F55003F065B4F666D7D077F6F00084001414866
:102F6500BF86DBCFE6EDFD87FFEF777C395E7971B4
:102F75003D7606383F736D3E6E5F7C585E7B716FA4
:0C2F8500741038545C7367506D781C6E3B
:08169C004101AEFF4101AF0066
:10350C00EFC394004009EFD3946450037F01227FF2
:02351C0000228B
:103000009001AF7401F09001AE74FFF0900191E077
:10301000FF1233A29000E4EFF0F46019E0FF1235E4
:103020000CEF6011E0FF900191E02466F582E4343A
:0530300001F583EFF043
:013035002278
:1031AE009001AFE07003123000900191E0FF1233F6
:1031BE00A29000E3EFF0F46008E0FF12350CEF7020
:0931CE00037F28229000E3E0FFDA
:0131D70022D5
:103183008F0E9001AFE07003123000AF0E12350CBA
:10319300EF70037FFF22900191E0FFAD0E123473B5
:0B31A300900191E09001AEF07F00224F
:022F91008F0DA2
:102F93009001AFE07003123000AF0D12350CEF70EB
:102FA300057EFF7FFF221231AE9000E2EFF0B50DF8
:102FB30004E4FEFF22AF0D123183EF7005FE7F01A3
:062FC30080047EFF7FFF89
:012FC90022E5
:06363E002C004253500075
:1016A4006020006E00000000000000000000000048
:1016B4000000000000000000000000000000000026
:1016C400000000006020008E000000000000000008
:1016D4000000000000000000000000000000000006
:1016E40000000000000000004100B1004300AE42D1
:0216F400535051
:103036007B017A00796E7D0A1233DAAE02AF018F18
:10304600828E83EF4E6014E4F09000B17402F07B40
:10305600017A00796E12121602000E9000B1740306
:01306600F079
:013067002246
:102C45007F007EC27D017C001229227E007F207DCF
:102C5500007B017A00796E1207637E007F207D007C
:102C65007B017A00798E1207637BFF7A3079367F94
:102C75000912282D750D01750E00750FAE75100022
:102C85007511037B017A00796E7D207C001230CAB4
:062C9500E49000B1F02202
:10000E007E007F207D007B017A00796E120763E40B
:05001E009000B1F0228A
:0B35DB009000B1E0B4030312000E22C8
:061216008B088A09890A19
:10121C00E49000D2F0A3F0AE02AF01EF4E600712E3
:10122C003488EF4E700302136B78B27C007D01ABF7
:10123C0008AA09A90A1207467510FF75113675120E
:10124C003E7B017A0079B202134CE50C450B70031E
:10125C0002135A9000D2E0FEA3E0FFC39409EE649F
:10126C00809480400302135AEE600302132FEF1494
:10127C00B40800400302132F90129275F003A4C51A
:10128C008325F0C583730212AA0212B80212C60299
:10129C0012D40212E20212F002130302131AAA0B66
:1012AC00A90C7B011221C59000D48044AA0BA90C77
:1012BC007B011221C59000D68036AA0BA90C7B01AC
:1012CC001221C59000D88028AA0BA90C7B011221F1
:1012DC00C59000DA801AAA0BA90C7B011221C590CB
:1012EC0000DC800CAA0BA90C7B011221C59000DE3E
:1012FC00EEF0A3EFF0802CAA0BA90C7B011221C5F8
:10130C009000E0EFF0D394014019E4F08015AA0BA3
:10131C00A90C7B011221C59000E1EFF0D3940140A0
:10132C0002E4F09000D3E004F070069000D2E004E8
:10133C00F07510FF75113675123E7B007A0079003E
:10134C0012272EAE02AF018E0B8F0C021256C390D9
:10135C0000D3E094099000D2E06480948050057E24
:10136C00FF7FFF22900191E0FE2466F582E43401B8
:10137C00F583E0FD9000D8E0FAA3E0FB6D7001EA84
:10138C006011AF0374662EF582E43401F583EFF03F
:10139C00122F919000DAA3E0FF900191E0FE24A8B7
:1013AC00F582E43401F583EFF09000E0E0FF748DFA
:1013BC002EF582E43401F583EFF09000E1E0FF7448
:0E13CC00922EF582E43401F583EFF0E4FEFF8B
:0113DA0022F0
:101A9600F583E0FF7E009000B2E0FCA3E0248EF91F
:061AA60074003CFA7B0114
:061AAC008B088A09890A7B
:101AB200E49000B6F0A3F0A3EEF0A3EFF0E4900000
:101AC200C4F0A3F0EF4E701774301203E7AB08AA0C
:101AD20009A90A900001E41203F97E007F0122D3D2
:101AE2009000B9E094009000B8E094004053900058
:101AF200C5E0940A9000C4E0648094805043900052
:101B0200B8E0FAA3E0FB7C007D0AFFAE0212041BE0
:101B1200ED2430FF9000C4E475F0011204A6FC74B9
:101B2200BA25F0F58274003CF583EFF07C007D0A63
:101B3200AF03AE0212041B9000B8EEF0A3EFF080E8
:101B42009E9000C5E024FFFE9000C4E034FF9000A8
:101B5200B4F0A3CEF09000B4E0FEA3E0FFC3EE64C5
:101B6200809480403574BA2FF58274003EF583E08C
:101B7200FFAB08AA09A90A9000B6E475F0011204A5
:101B8200A685F082F583EF1203F99000B5E024FFF9
:101B9200F09000B4E034FFF080BBAB08AA09A90AB8
:101BA2009000B6E0FEA3E0FFF5828E83E41203F913
:011BB2002210
:100E4D00E49000B2F0A3F01235E6BF01037F032258
:100E5D007E007F207D007B017A00798E12076378FA
:100E6D008E7C007D017BFF7A3679401207467B012F
:100E7D007A00798E1234889000B2EEF0A3EFF090E4
:100E8D0000B2E475F0011204A6FE748E25F0F58211
:100E9D0074003EF583742CF0900191121A98900015
:100EAD00B3E02FF09000B2E03EF0E475F0011204D3
:100EBD00A6FE748E25F0F58274003EF583742CF039
:100ECD0090015AE0FEA3E0FF121A9C9000B3E02FB0
:100EDD00F09000B2E03EF0E475F0011204A6FE744D
:100EED008E25F0F58274003EF583742CF0900191FF
:100EFD00E02466F582E43401121A969000B3E02FD7
:100F0D00F09000B2E03EF0E475F0011204A6FE741C
:100F1D008E25F0F58274003EF583742CF0900191CE
:100F2D00E024A8F582E43401121A969000B3E02F64
:100F3D00F09000B2E03EF0E475F0011204A6FE74EC
:100F4D008E25F0F58274003EF583742CF09001919E
:100F5D00E075F007A424F6F582E43400121A969099
:100F6D0000B3E02FF09000B2E03EF0E475F0011216
:100F7D0004A6FE748E25F0F58274003EF583742C64
:100F8D00F0900191E075F007A424F5F582E43400AA
:100F9D00121A969000B3E02FF09000B2E03EF0E40C
:100FAD0075F0011204A6FE748E25F0F58274003ED4
:100FBD00F583742CF0900191E0248DF582E43401D9
:100FCD00121A969000B3E02FF09000B2E03EF0E4DC
:100FDD0075F0011204A6FE748E25F0F58274003EA4
:100FED00F583742CF0900191E02492F582E43401A4
:100FFD00121A969000B3E02FF09000B2E03EF0E4AC
:10100D0075F0011204A6FE748E25F0F58274003E73
:10101D00F583740AF0C39000B3E094209000B2E021
:10102D006480948040037F03227B017A00798E7D5A
:06103D00207C001232517C
:01104300228A
:103385001231AE9001B1EFF0F46011E0FF900191C0
:0C339500E02466F582E43401F583EFF0DB
:0133A1002209
:0416F60041019E010F
:10341100C295E4FEEF1392CC000000D29500EFC3F9
:0834210013FFC2950EBE08EC7A
:013429002280
:10345B00E4FEEFC313FF30CC03430780D29500008B
:07346B0000C2950EBE08EB44
:013472002237
:10312A00F07F8512313DA3EFF07F8712313DA3EF87
:03313A00F07F899A
:10313D00C296000000C295000000D2960012341114
:0A314D0012345BD295000000C29618
:013157002255
:03334800A3E0FD02
:10334B00C296000000C295000000D2960012341104
:0D335B00AF05123411D295000000C2962279
:073625007B017A0179972275
:10342A0078977C017D017B007A0079087E007F070E
:09343A0012037BE490019EF022D4
:10351E00EFD3941F5009EF25E044C1FF02313D7FE8
:02352E00012278
:1031D800AC07AB05ECD3941F501CE4FD7F8E123373
:1031E8004BEC25E044C0FFAD0312334B7D807F8E4E
:0931F80012334B7F00227F0122FB
:02231B00155655
:10231D0090019EE060447F8112313DA856EFF6900A
:10232D000197E06F70030223BDA856E6F07F83127C
:10233D00313DA856EFF6A3E06F6075A856E6123151
:10234D002AA3EFF07F8D12313D90019DEFF07F8B31
:10235D0012313D90019CEFF08056900196E0FF0404
:10236D00F0EFC3940A4049E4F090019E04F0E4FDBF
:10237D007F8E12334B900197E0FD7F8012334B7FA0
:10238D00821233487F84123348A3E0FD7F861233D7
:10239D004BA3E0FD7F8812334BA3E0FD7F8A123300
:1023AD004BA3E0FD7F8C12334B7D807F8E12334B20
:0323BD00055622A0
:101BB3007F8112313D900197EFF07F8312313DA376
:101BC300EF12312AA3EFF07F8B12313DA3EFF07FA9
:101BD3008D12313DA3EFF0E4FD7F8E12334B7F1E58
:101BE30012351EEF64A560047F0180027F0090011F
:101BF30097E05480FEA3E0D3945940047D01800212
:101C03007D00ED4EFE900199E0D394A440047D0144
:101C130080027D00ED4EFE90019AE0D394314004A2
:101C23007D0180027D00ED4EFE90019BE0D3941276
:101C330040047D0180027D00ED4EFE90019CE0D3C7
:101C4300940740047D0180027D00ED4EFE90019DCE
:101C5300E0D3949940047D0180027D00ED4E4F60F6
:101C63003078087C007D007B007A0079357E007F28
:101C73000712037B12342A7DA57F1E1231D8789771
:101C83007C017D017B007A0079357E007F0712039A
:101C93007B7DA97F9012334B7D807F8E12334B90D7
:0E1CA300005A74FFF0A37423F0A3741BF02208
:10355100D2C0000000D2CD000000C2C00000002295
:0D002E00C2C0000000D2CD000000D2C022F0
:0B329E001232C21232A9AF051232C278
:1032A900E4FFD2CD30C009EFC394FF50030F80F47F
:0832B900000000C2CD0000007E
:0132C10022EA
:1032C200E4FEEF25E0FFC2CD00000092C000000046
:1032D200D2CD0000000EBE08E9C2CD000000D2C06F
:0332E200000000E9
:0132E50022C6
:1032E600C2CD000000D2C000E4FED2CD0000EF2522
:1032F600E0FDA2C0E4334DFF0000C2CD000EBE08C3
:01330600E9DD
:0133070022A3
:10347300AC071235517FA01232C21232A9AF041227
:05348300329E02002E44
:0233A200AD0775
:1033A4001235517FA012329E1235517FA11232C2C2
:0933B4001232A91232E612002EB9
:0133BD0022ED
:0B16FA0048019FD4111A50400288A53F
:09349D007F031234A6D2C57F039F
:0A34A600AE071FEE60030080F7225E
:1034B000D2A712349DC2A77F031234A6C2C57F03D0
:0334C0000234A62D
:0C35C400C2A712349DD2A77F030234A6D8
:1033BE00E4FFD2C530A709EFC394FA50030F80F48F
:0C33CE007F031234A6C2C57F030234A6A0
:02322900AD07EF
:10322B00E4FBC2C57F031234A6ED3392A7ED25E074
:10323B00FD12349D0BBB08EAC2C57F031234A6D224
:06324B00C57F030234A65A
:022DCD00155699
:102DCF009001A7E0640170371234B07F20123229CE
:102DDF001233BEA856E4F6A856E6FFC39408501760
:102DEF00749F2FF582E43401F583E0FF123229122C
:0F2DFF0033BEA8560680E01235C4E49001A7F059
:032E0E0005562244
:102B36009001A1E025E025E0FFA3E0C413135403B0
:102B46002F2466F50FE43403F50E9001A6E0540F2A
:102B5600F5109001A4E0543FFF5403FEBE03057533
:102B660011FF8003E4F511EF540CFEBE0C0575123F
:102B7600FF8003E4F512EF5430FFBF30057513FFF5
:0B2B86008003E4F5137B007A00790E59
:012B91002221
:10205A00D3E5099438E508940450047F0180027F8F
:10206A0000C3E5099466E508940340047E018002F2
:10207A007E00EE5F6030122B361204BC65097004D4
:10208A00E5F065086020E509249AFD1313543F9092
:10209A0001A1F0ED5403FFC4333354C04410A3F03C
:1020AA009001A77401F0122B36E92402F9E43AFAF6
:1020BA001203A1650A60047F0180027F00E50AD34A
:1020CA00940F50047E0180027E00EE5F6011E50AE3
:1020DA00540FFF9001A6E054F04FF0A37401F07D75
:1020EA002AE50B6003430501E50C6003430504E59B
:1020FA000D60034305109001A4E06D6008EDF090B7
:05210A0001A77401F0C3
:01210F0022AD
:1032790078087C007D007B007A0079427E007F0619
:1032890012037B12205A90005774FFF0A3742DF09B
:05329900A374CDF0223A
:101705005501450000000000000000000000000039
:081715000000010000000000CB
:0300230002171EA3
:10171E00C0E0C0F0C083C082C0D075D000C000C091
:10172E0001C002C003C004C005C006C00730993B0B
:10173E00C29990014AE0FEA3E0FFC3900149E09FE9
:10174E00900148E09E501F900145E0FBA3E0FAA3F4
:10175E00E0F9A3E475F0011204A685F082F5831278
:10176E0003BAF599800590014CE4F0209803021815
:10177E0033C298300B09C20B900152E4F0A3F090E3
:10178E000150E0FEA3E0FFA3E0FCA3E0FDC39FEC4D
:10179E009E507790014DE0FBA3E0FAA3E0F98D8215
:1017AE008C83E5991203F9900158E0FEA3E0FFC384
:1017BE00ED9FEC9E5046900150E0FCA3E0FDEF9DA6
:1017CE00EE9C5038900155E0FBA3E0FAA3E0F990AF
:1017DE000152E0FEA3E0FFF5828E831203BAFD9064
:1017EE00014DE0FBA3E0FAA3E0F98F828E83120392
:1017FE00BA6D600890015274FFF0A3F0900153E0AF
:10180E0004F07006900152E004F0900150E0FEA347
:10181E00E0FFC3900153E09F900152E09E4006907E
:10182E0001547401F0D007D006D005D004D003D0F7
:10183E0002D001D000D0D0D082D083D0F0D0E03210
:023570001556EE
:0A357200900154E0A856F6FFE4F0C3
:03357C00055622CF
:102922008F0B8E0A8D098C08759850438E40538EFA
:10293200FE53890FE47B04FAF9F890002612064C44
:10294200120572AB0BAA0AA909A808120572EFF4C4
:1029520004F58BE47B04FAF9F890002612064C1277
:102962000572AB0BAA0AA909A808120572C3E49F53
:10297200FFE49EFE74019DFDE49CFC7808120612A1
:102982008F8DC2ABD28ED2AC90004E74FFF0A37486
:0729920035F0A37470F02280
:1030CA0090014DEBF0A3EAF0A3E9F0A3ECF0A3ED35
:1030DA00F0900158E510F0A3E511F0900155E50DC7
:1030EA00F0A3E50EF0A3E50FF0D20BE4900154F043
:0130FA0022B3
:1032510090014CE0701F900145EBF0A3EAF0A3E967
:10326100F0E4A3F0A3F0A3ECF0A3EDF0A37401F05C
:08327100D2997F02227F0322A3
:0B35E60090014CE07002FF227F0122E8
:10004600EC4D6011E8497017ED33EC3304600DE4B4
:10005600FCFFFEFD22E933E8330470F80202961233
:10006600026158046009E4CC248150062850090234
:1000760002A028400302029DC0E0EB4A7044B9800A
:1000860006D0E0FB02028CEF4E701CBD8008EBFF31
:10009600EAFEE9FD80EBE98DF0A4FEE5F002012F12
:1000A600E9CDF9EAFEEBFFEF89F0A4FCE5F0CE8995
:1000B600F0A42EFFE435F0CD89F0A42DFEE435F052
:1000C6008067EF4E7005BD80D780C3EF8BF0A4AC80
:1000D600F0EE8BF0A42CFCE435F0F8EF8AF0A42CBB
:1000E600E5F038FCE433CB8DF0A42CFCE5F03BF8CE
:1000F600EE8AF0A42CFCE5F038F8E433CF89F0A4BE
:100106002CFCE5F038CF3400CE89F0A42FFFE5F0C3
:100116003EFEE433C98DF0A42EFEE5F039CD8AF01B
:10012600A42FFFE5F03EFEE43DFD33D0E0FB500793
:100136000BBB000F0202A0EC2CFCEF33FFEE33FEEC
:06014600ED33FD0202781A
:10014C000202A0EC5D046005E859047003020296FB
:10015C00120261580460F6EC4860F2EC7004FDFE8B
:10016C00FF22C860DB2481C85009C3986002500686
:10017C0002029D9850CAF582E9294B4A7005AB8260
:10018C0002028C75F0007C1A7880C3EF9BEE9AED1E
:10019C0099400DC3EF9BFFEE9AFEED99FDE842F0FE
:1001AC00DC23ACF0D0E0FFD0E0FED0E0FDAB822051
:1001BC00E7101BEB60BAEC2CFCEF33FFEE33FEEDDB
:1001CC0033FD020278E803F830E705C0F075F00063
:1001DC00EF2FFFEE33FEED33FD40B830E7C280AABF
:1001EC0075F020800E75F010800575F0087D007E8E
:1001FC00007F003392D530D503120604EC33401047
:10020C00EF33FFEE33FEED33FDEC33FCD5F0ED2296
:0E021C00E5F0247EA2D513CC92E7CDCEFF22D2
:10022A00EDD2E7CD33EC3392D524814006E4FFFECC
:10023A00FDFC22FCE4CFCECDCC24E0501174FF802B
:10024A00EDC3CC13CCCD13CDCE13CECF13CF0470C8
:07025A00F030D5DE020604BE
:10026100E9D2E7C933E833F892D5EDD2E7CD33ECE3
:0702710033FC5002B2D5225C
:10027800EC30E7100FBF000C0EBE00080DBD0004E7
:100288000BEB6014A2D5EB13FCED92E7FD2274FF93
:10029800FCFDFEFF22E480F8A2D574FF13FC7D80EC
:0302A800E480EF00
:03000000022617BE
:0C261700787FE4F6D8FD75815602265E3F
:1002AB00E709F608DFFA8046E709F208DFFA803E35
:1002BB0088828C83E709F0A3DFFA8032E309F60822
:1002CB00DFFA8078E309F208DFFA807088828C838A
:1002DB00E309F0A3DFFA806489828A83E0A3F6083E
:1002EB00DFFA805889828A83E0A3F208DFFA804C18
:1002FB0080D280FA80C680D4806980F280338010EF
:10030B0080A680EA809A80A880DA80E280CA803357
:10031B0089828A83ECFAE493A3C8C582C8CCC583CF
:10032B00CCF0A3C8C582C8CCC583CCDFE9DEE7809F
:10033B000D89828A83E493A3F608DFF9ECFAA9F01E
:10034B00EDFB2289828A83ECFAE0A3C8C582C8CC74
:10035B00C583CCF0A3C8C582C8CCC583CCDFEADE8D
:10036B00E880DB89828A83E493A3F208DFF980CCEF
:10037B0088F0EF60010E4E60C388F0ED2402B404E8
:10038B000050B9F582EB2402B4040050AF2323458F
:06039B0082239002FB73B7
:1003A100BB010689828A83E0225002E722BBFE025A
:0903B100E32289828A83E493228D
:1003BA00BB010CE58229F582E5833AF583E02250F8
:1003CA0006E92582F8E622BBFE06E92582F8E22242
:0D03DA00E58229F582E5833AF583E493225C
:1003E700BB010689828A83F0225002F722BBFE01F5
:0203F700F322EF
:1003F900F8BB010DE58229F582E5833AF583E8F03A
:10040900225006E92582C8F622BBFE05E92582C8E5
:02041900F222CD
:10041B00BC000BBE0029EF8DF084FFADF022E4CCC5
:10042B00F875F008EF2FFFEE33FEEC33FCEE9DEC8E
:10043B00984005FCEE9DFE0FD5F0E9E4CEFD22EDD4
:10044B00F8F5F0EE8420D21CFEADF075F008EF2F1E
:10045B00FFED33FD4007985006D5F0F222C398FD0F
:05046B000FD5F0EA22AC
:10047000C2D5EC30E709B2D5E4C39DFDE49CFCEEA7
:1004800030E715B2D5E4C39FFFE49EFE12041BC300
:10049000E49DFDE49CFC800312041B30D507C3E4FB
:0604A0009FFFE49EFE2216
:1004A600A3F8E0C5F025F0F0E58215827002158309
:0604B600E0C838F0E82266
:1004BC00BB010A89828A83E0F5F0A3E0225006870B
:1004CC00F009E71922BBFE07E3F5F009E3192289CD
:0B04DC00828A83E493F5F07401932200
:1004E700E88FF0A4CC8BF0A42CFCE98EF0A42CFCB4
:1004F7008AF0EDA42CFCEA8EF0A4CDA8F08BF0A432
:100507002DCC3825F0FDE98FF0A42CCD35F0FCEB90
:100517008EF0A4FEA9F0EB8FF0A4CFC5F02ECD3955
:0F052700FEE43CFCEAA42DCE35F0FDE43CFC22C2
:1005360075F008758200EF2FFFEE33FECD33CDCC7C
:1005460033CCC58233C5829BED9AEC99E5829840FF
:100556000CF582EE9BFEED9AFDEC99FC0FD5F0D6DC
:10056600E4CEFBE4CDFAE4CCF9A88222B800C1B906
:100576000059BA002DEC8BF084CFCECDFCE5F0CB44
:10058600F97818EF2FFFEE33FEED33FDEC33FCEB7D
:1005960033FB10D703994004EB99FB0FD8E5E4F938
:1005A600FA227818EF2FFFEE33FEED33FDEC33FC25
:1005B600C933C910D7059BE99A4007EC9BFCE99A19
:1005C600F90FD8E0E4C9FAE4CCFB2275F010EF2F5E
:1005D600FFEE33FEED33FDCC33CCC833C810D7075E
:1005E6009BEC9AE899400AED9BFDEC9AFCE899F899
:0E05F6000FD5F0DAE4CDFBE4CCFAE4C8F9222C
:102E1100C2D5E830E70FB2D5E4C39BFBE49AFAE4EC
:102E210099F9E498F8EC30E717B2D5122E4712055C
:102E310072E4C39BFBE49AFAE499F9E498F88003FD
:102E410012057230D50DE4C39FFFE49EFEE49DFDA3
:042E5100E49CFC22DF
:0E060400C3E49FFFE49EFEE49DFDE49CFC2207
:10061200E8600FECC313FCED13FDEE13FEEF13FFC6
:03062200D8F122EA
:10062500E86010ECA2E713FCED13FDEE13FEEF13EB
:04063500FFD8F022D8
:10063900E8600FEFC333FFEE33FEED33FDEC33FC1F
:03064900D8F122C3
:10064C00E493FC740193FD740293FE740393FF22F4
:0C065C00ECF0A3EDF0A3EEF0A3EFF02211
:0C066800A42582F582E5F03583F583229D
:060674008A838982E47311
:10067A00E709F60870FA8046E709F20870FA803E40
:10068A0088828C83E709F0A370FA807EE309F60872
:10069A0070FA8076E309F20870FA806E88828C8399
:1006AA00E309F0A370FA806289828A83E0A3F608DC
:1006BA0070FA805689828A83E0A3F20870FA804A27
:1006CA0080D280FA80C680D4806580F28031801022
:1006DA0080A680EA809A80A880DA80E280CA803187
:1006EA0089828A83ECFAE493A3C8C582C8CCC583FD
:1006FA00CCF0A3C8C582C8CCC583CC70E9800D896B
:10070A00828A83E493A3F60870F9ECFAA9F0EDFB68
:10071A002289828A83ECFAE0A3C8C582C8CCC58341
:10072A00CCF0A3C8C582C8CCC583CC70EA80DD8969
:10073A00828A83E493A3F20870F980CE88F0ED24CC
:10074A0002B4040050C4F582EB2402B4040050BA87
:09075A0023234582239006CA7393
:10348800E4FFFE1203A1600C0FEF70010E09E97052
:05349800F20A80EF22A2
:1033DA00E94A4B7001221203A1FF6D700122EF70BE
:0C33EA0004FBFAF92209E970ED0A80EA00
:10272E008B0D8A0E890FE94A4B7009854C0D854D2C
:10273E000E854E0FE50F450E450D7002802C85104F
:10274E0016851117851218AB0DAA0EA90F122A782D
:10275E00EF250FF50FEE350EF50EAB0DFAA90F1294
:10276E0003A1700AF54CF54DF54EFBFAF9228510D2
:10277E0016851117851218AB0DAA0EA90F122AD99C
:10278E008B4C8A4D894EEA494B600EE41203E704E6
:10279E00254EF54EE4354DF54DAB0DAA0EA90F2283
:1021C5008B0D8A0E890FAB0DAA0EA90F1203A1FF65
:1021D5001234C3500D7401250FF50FE4350EF50EBD
:1021E50080E4D211AB0DAA0EA90F1203A1FF642B37
:1021F5006004EFB42D1BAB0D050FE50FAA0E7002A1
:10220500050E14F91203A1642D6003D38001C39256
:1022150011E4F510F511AB0DAA0EA90F1203A1FFDC
:1022250012357F5036AB0DAA0EA90F1203A1FF334D
:1022350095E0FEEF24D0FBEE34FFFAAE10AF117C33
:10224500007D0A12078FEF2BF511EE3AF510740198
:10225500250FF50FE4350EF50E80BB301106AE10D7
:0E226500AF118009C3E49511FFE49510FE222D
:10076300EF4E6012EF60010EEDBB010B89828A83AD
:10077300F0A3DFFCDEFA2289F05007F709DFFCA9BA
:0C078300F022BBFEFCF309DFFCA9F02211
:10262300022A09E493A3F8E493A34003F68001F29A
:1026330008DFF48029E493A3F85407240CC8C333B8
:10264300C4540F4420C8834004F456800146F6DF87
:10265300E4800B0102040810204080901587E47E7B
:10266300019360BCA3FF543F30E509541FFEE4937C
:10267300A360010ECF54C025E060A840B8E493A343
:10268300FAE493A3F8E493A3C8C582C8CAC583CA6E
:10269300F0A3C8C582C8CAC583CADFE9DEE780BE26
:01171D0000CB
:10078F00EF8DF0A4A8F0CF8CF0A428CE8DF0A42E7E
:02079F00FE2238
:0F357F00EFC394304007EF943A50028001C3220B
:1034C300EFC394094005EF940E4003BF2003D3805C
:0334D30001C32210
:102A78008B138A148915E4F519F51AE4FEFFAB16D1
:102A8800AA17A9188F828E831203BAFD6013AB139D
:102A9800AA14A9151203A16D60070FBF00010E80CB
:102AA800DDAB16AA17A9188F828E831203BA70029B
:102AB800801A051AE51A70020519AB130515E515F4
:102AC80070020514F9AA141203A170AFAE19AF1A57
:012AD80022DB
:102AD9008B138A14891585161985171A85181BAB46
:102AE90019AA1AA91B1203A1FF6019AB13AA14A9E9
:102AF900151203A16F600D7401251BF51BE4351A2E
:102B0900F51A80DBAB19AA1AA91B1203A16007AB3E
:102B190013AA14A91522AB130515E515AA147002F9
:0D2B2900051414F91203A170ADFBFAF92296
:00000001FF
