:101D64007F981221F712234A12000E7D07E4FF1216
:101D74002447E4F5357F807E25FDFC121809120006
:101D8400007F0112218F753600753700753854E4D1
:101D9400F539F53AFB7A0079547D01FC1222287B4F
:101DA400FF7A24798B7F03121CE77BFF7A00792E5C
:101DB4007F0A121CE77BFF7A2179C57F07121CE793
:081DC40012248512211580FB99
:09243E008B88898C88898F8889BC
:1013970052007A86860086860086860086860086C4
:0913A700860086860041006F09F2
:03002B0002247933
:0624790053BCEFD20F324C
:020EA2001558E1
:100EA400200F0302104BC20F90006EE0B409004003
:100EB4000302102D900EBFF8282873020F06020EAD
:100EC400DA020EEC020F18020EDA020EEC020F2FF9
:100ED400020EDA020EECAFBDEFFEADBE7C00E42DD7
:100EE400FFEC3E900070803CAFBDEFFEADBE7C00D9
:100EF400E42DFFEC3E900072F0A3EFF0754C01027C
:100F04001033AFBDEFFEADBE7C00E42DFFEC3E9090
:100F140000748010AFBDEFFEADBE7C00E42DFFEC8D
:100F24003E900076F0A3EFF0021033AFBDEFFEADBC
:100F3400BE7C00E42DFFEC3E900078F0A3EFF0902F
:100F44000078E0FEA3E07807CEC313CE13D8F9A847
:100F540058F6C394065013A858E675F003A4247AEF
:100F6400F582E43400F583E014F090006FE014F0AF
:100F740060030210337409F0A858E4F6A858E6FF99
:100F8400C394064003021033EF75F003A4247AF5EA
:100F940082E43400F583E0C39480502AE6FF75F0C0
:100FA40003A4247BF582E43400F583E0D3948040E9
:100FB40040EF75F003A4247CF582E43400F58374D7
:100FC40001F0F54D802BA858E6FF75F003A4247BAF
:100FD400F582E43400F583E0C394805014EF75F097
:100FE40003A4247CF582E43400F5837402F0754D87
:100FF40001A858E6FF75F003A4247AF582E43400CE
:10100400F583E0FEEF75F003A4247BF582E434005D
:10101400F583EEF0E675F003A4247AF582E4340057
:10102400F5837486F006020F8090006E74FFF090D2
:10103400006EE0D39407400374FFF090006EE00468
:07104400F090243E93F5BC7F
:03104B0005582223
:02240900155864
:09240B00A858A64DE4F54DE6FFCA
:0324140005582246
:02241700155856
:09241900A858A64CE4F54CE6FFBE
:0324220005582238
:1021F7008F9D75BC88439720D2AD90004574FFF042
:10220700A3740EF0A374A2F0A374FFF0A37424F0D8
:10221700A37409F0A374FFF0A37424F0A37417F058
:012227002294
:070003007B017A00797022F5
:101FCD00C3EF64809480403BD3EF6480948550339D
:101FDD00EFFD3395E0FC90007C75F003ED120612D9
:101FED00EC75F003A42583F583E0FE90007C75F07D
:101FFD0003ED120612EC75F003A42583F583E4F0CE
:05200D00AF06227F0375
:0120120022AB
:10157A00E4F5809000C8E0FFB40800505F90158E33
:10158A00F82828730215A60215AC0215B20215B87E
:10159A000215BE0215C80215D20215DCC2A3C2A2E8
:1015AA008016C2A3C2A2801AC2A3C2A2801EC2A36C
:1015BA00C2A28022C2A3D2A2C2A1C2A08020C2A378
:1015CA00D2A2C2A1D2A08016C2A3D2A2D2A1C2A084
:1015DA00800CC2A3D2A2D2A1D2A08002D2A3C3EF0E
:1015EA006480948850299000C8E0FF3395E0FE7427
:1015FA00BF2FF58274003EF583E0FF3395E0FE7459
:10160A00532FF58274213EF583E493F580801E9072
:10161A0000C8E0FFB408133395E0FE74BF2FF582CB
:10162A0074003EF583E0F5808003E4F5809000BE07
:10163A00E0FF9000C8E004FEF0D3EF6480F8EE64A7
:10164A0080984014E0D36480948850047408F0228F
:09165A009000BDE09000C8F022F0
:10234A00E4F5937594FF5395F043960F90002A7421
:0B235A00FFF0A37415F0A3747AF022CA
:092447009000BDEFF0A3EDF022BE
:10230A009000BFEFF0A3EDF0A3EBF0A3E534F0A348
:10231A00E535F0A3E536F0A3E537F0A3E538F0227A
:06247F009000C7EFF022FF
:1013B0000156004900D594940094940094940041FF
:0313C00000D41E38
:0211760015580A
:1011780020B2069000D5E014F020B3069000D8E025
:1011880014F02097069000DBE014F09000D4E014EF
:10119800F06003021296741EF0A858E4F6A858E608
:1011A800FFC3648094834003021296EF3395E0FEF8
:1011B8009000D575F003EF120612EE75F003A42522
:1011C80083F583E0C3948050399000D675F003EF1F
:1011D800120612EE75F003A42583F583E0D39480FC
:1011E800405AE6FF3395E0FE9000D775F003EF1202
:1011F8000612EE75F003A42583F5837401F0F55605
:10120800803AA858E6FF3395E0FE9000D675F003C3
:10121800EF120612EE75F003A42583F583E0C3945C
:101228008050199000D775F003EF120612EE75F092
:1012380003A42583F5837402F0755601A858E6FFC8
:10124800FD3395E0FC9000D575F003ED120612EC25
:1012580075F003A42583F583E0FE9000D675F003AE
:10126800ED120612EC75F003A42583F583EEF0EF7A
:101278003395E0FE9000D575F003EF120612EE7577
:0E128800F003A42583F5837494F0060211A5EB
:03129600055822D6
:02242500155848
:09242700A858A656E4F556E6FF9C
:032430000558222A
:10000E0090003074FFF0A37424F0A37425F09000D8
:0D001E002D74FFF0A37411F0A37476F0228E
:10205700EF600764016003BF0233EFFD3395E0FCD7
:102067009000D775F003ED120612EC75F003A42566
:1020770083F583E0FE9000D775F003ED120612ECAE
:0F20870075F003A42583F583E4F0AF06227F03F1
:012096002227
:1013C3004100000A4100290A41006D0A040E000091
:1013D30000000114004600670000FFFF8FFFC10DEE
:1013E300C105C108C101C10E60240005FF000AFF49
:1013F300000AFF000AFF000AFF000AFF000AFF00BD
:101403000AFF000AFF000AFF000AFF000AFF000AA2
:101413006036002AFF000AFF000AFF2495FF000A36
:10142300FF2495FF000AFF2495FF000AFF000AFF2F
:10143300000AFF2495FF2495FF2495FF2495FF00C0
:0A1443000AFF000AFF000AFF000A7A
:01000A0022D3
:032495007F0022A3
:101F8600438E805389F07BE07A287901780090248B
:101F9600911205F6122013EFF404F58A7BE07A28F5
:101FA600790178009024911205F6122013C3E49F5C
:101FB600FFE49EFE74019DFDE49CFC78081205CFAB
:071FC6008F8CD28CD2A922FE
:03000B00021F349D
:041F3400C0E0C0D079
:101F3800D5080A75084C300D020514D20DA203729B
:101F4800045036150AE50A7030850C0AD207300AA3
:101F580017E50D6007150D438F01801D538FFEC2D5
:101F6800B5D51615C20A8011050BE50BD3940640AA
:091F780008C203E5136002D20661
:051F8100D0D0D0E032D9
:101EE100300E47C20E9024911205F678101205CFDC
:101EF1008E4E8F4F900003E0FEA3E0FFE4FCFD7BDC
:101F010019FAF9F8120491C006C007AE4EAF4FABF3
:101F110007AA06E4F9F8D007D006122013780312B5
:101F210005CF900065EEF0A3EFF0900065E0FEA311
:021F3100E0FFCF
:011F3300228B
:09245000900067E0FEA3E0FF220A
:09245900900067EEF0A3EFF02201
:1023D90090006BEEF0A3EFF0900069ECF0A3EDF044
:0123E90022D1
:03249800C2B422A9
:03003B000218BEEA
:1018BE00C0E0C083C082C0D075D000C004C005C0D7
:0318CE0006C0074A
:1018D10030DF04C2DF807D30DA04C2DA807630D9AD
:1018E1003DC2D9AFFBEFFEADEB7C00E42DFFEC3E3A
:1018F10020000E900001F0A3EFF075DB11D2008003
:1019010053FE900001E0FCA3E0FDC3EF9DFFEE9CC0
:10191100A3F0A3EFF075DB00C200D20E803630D801
:1019210033C2D8900067E07002A3E06022B2B490A5
:101931000069E0FEA3E0F5EAEEF5FAA3E0FEA3E01C
:10194100FF90006AE02FF0900069E03EF08005C250
:04195100B453DAFEB3
:10195500D007D006D005D004D0D0D082D083D0E037
:01196500324F
:06248500121F86D2AF22F7
:101C5C003004047F0180027F00200A047E01800290
:101C6C007E00EE5F6074E515C3950950683002364E
:101C7C00750D01E515131313541FAB17AA18A919E9
:101C8C00F5827583001203A1FFE515540704FEEFDE
:101C9C00A806088002C333D8FC30D705751603801C
:101CAC002F751601802AAB17AA18A91975F002E531
:101CBC0015A4F58285F0831203A1F50DE51575F0D9
:101CCC0002A429F9EA35F0FA9000011203A1F516E5
:0A1CDC000515D20A22C204438F103E
:011CE60022DB
:10148D00900000E014F0701F740AF0D2059000294E
:10149D00E014F07012740AF0D20890006DE014F0B0
:1014AD007005740AF0D20190002AA3E0FAA3E0F9C6
:1014BD0012061E90002DA3E0FAA3E0F912061E906D
:1014CD000039A3E0FAA3E0F912061E900045A3E04F
:1014DD00FAA3E0F912061E900054A3E0FAA3E0F976
:1014ED0012061E90005DA3E0FAA3E0F912061E900D
:1014FD00004BA3E0FAA3E0F912061EEF600C90007A
:10150D001DA3E0FAA3E0F912061E90004EA3E0FA27
:10151D00A3E0F912061EEF600E900020A3E0FAA3DF
:10152D00E0F912061ED20BE512D394004016D51227
:10153D003030090C900023A3E0FAA3E0F912061E47
:10154D00D20C801D900051A3E0FAA3E0F912061E03
:10155D00EF600E900023A3E0FAA3E0F912061ED26D
:0D156D000C900005A3E0FAA3E0F902061EB1
:101AAD0090003FA3E0FAA3E0F912061E900042A3B6
:101ABD00E0FAA3E0F912061E900033A3E0FAA3E0CA
:101ACD00F912061E900008A3E0FAA3E0F912061E13
:101ADD00900030A3E0FAA3E0F912061EEF600C901F
:101AED000011A3E0FAA3E0F912061E900036A3E060
:101AFD00FAA3E0F912061EEF600C900017A3E0FAAE
:101B0D00A3E0F912061E900048A3E0FAA3E0F91233
:101B1D00061EEF600C90001AA3E0FAA3E0F912067E
:101B2D001E30060EC206900026A3E0FAA3E0F912BD
:031B3D00061E225F
:1020970090000BA3E0FAA3E0F912061E90003CA300
:1020A700E0FAA3E0F912061EEF600C900014A3E01B
:1020B700FAA3E0F912061E900057A3E0FAA3E0F98D
:0F20C70012061E90005AA3E0FAA3E0F902061ECB
:1022B600AF11AE10AD0FAC0E900060120606900086
:1022C60064E514F0E4F511F510F50FF50EF514902C
:0B22D600000EA3E0FAA3E0F902061ED0
:10211500300705C207121C5C300D05C20D12148D67
:10212500300505C205121AAD300805C20812209700
:10213500300105C2011222B6E5112401F511E4357D
:0E21450010F510E4350FF50FE4350EF50E22FF
:101CE7008B318A328933EFB40C005070901CFAF8AC
:101CF700282873021D1E021D23021D28021D2D0206
:101D07001D32021D37021D3C021D41021D46021DE8
:101D17004B021D50021D559000058035900008802C
:101D27003090000B802B90000E80269000118021B0
:101D3700900017801C900014801790001A80129052
:101D4700001D800D900020800890002380039000E4
:0D1D570026E531F0A3E532F0A3E533F022DC
:07246B007B017A0079602279
:101B40008B4AAA077C007E037FE81203F09000D046
:101B5000EEF0A3EFF0E54BFD7C007E037FE812037F
:101B6000F0A3EEF0A3EFF0AF02AB07E4FAF9F890C0
:101B700000D0E0FEA3E0FFE4FCFD120491EF24326C
:101B8000FFE43EFEE43DFDE43CFCE47B64FAF9F84E
:101B90001220139000CAEEF0A3EFF0AF4AAB07E4B7
:101BA000FAF9F89000D2E0FEA3E0FFE4FCFD120495
:101BB00091EF2432FFE43EFEE43DFDE43CFCE47B97
:101BC00064FAF9F81220139000CCEEF0A3EFF022A3
:101E3100E4F534F533F532F531F535D291AF34AE01
:101E410033AD32AC3178011205E38F348E338D32EC
:101E51008C3100C291309015E4FAF9F8EF2401F5C4
:101E610034EA3EF533E93DF532E83CF5310535E537
:101E710035B418C700D2910000C291AF34AE33AD72
:081E810032AC3178081205CFE4
:011E89002236
:092462009000CEE0FEA3E0FF2291
:0F23EA009000CEE0FEA3E0FFE49000CEF0A3F061
:0123F90022C1
:101663009000C9E0700F30900122121E319000CE1D
:10167300EEF0A3EFF09000C9E0FF64017062051B78
:10168300E51B7002051AFDD39000D1E09D9000D0B8
:10169300E0951A5005E4F51AF51BD39000CBE095BD
:1016A3001B9000CAE0951A4004D2908002C29005B4
:1016B3001DE51D7002051CFDD39000D3E09D900035
:1016C300D2E0951C5005E4F51CF51DD39000CDE048
:1016D300951D9000CCE0951C4004D2918002C291EC
:1016E300EF6402703E2090047F0180027F00E51EBC
:1016F30060047E0180027E00EE5F602130911090D5
:1017030000CFE004F070169000CEE004F0800E905D
:1017130000CFE024FFF09000CEE034FFF0A290E48D
:1017230033F51E9000C9E0B4031CE51F7002D2918B
:10173300E51FB40105C29175DB21051FE51FC394A5
:06174300C84003E4F51F9D
:01174900227D
:10218F009000C9EFF07004C2918002D2919000C903
:10219F00E0B40310E5A254CFF5A2E4F5D975DB0145
:1021AF00D2DE8003E4F5DB90005D74FFF0A37416BC
:0621BF00F0A37463F0229E
:10144D005500A80000000000000000000000000092
:08145D00000001000000000086
:03004300020CD0DC
:100CD000C0E0C0F0C083C082C0D075D000C000C0EA
:100CE00001C002C003C004C005C006C007E59A30B9
:100CF000E142539AFD9000ADE0FEA3E0FFC39000F7
:100D0000ACE09F9000ABE09E501F9000A8E0FBA3DA
:100D1000E0FAA3E0F9A3E475F00112047B85F08208
:100D2000F5831203A1F59B800B9000AFE4F0E55131
:100D30006002C2B7E59A20E003020E87539AFE30A4
:100D40000C0BC20C9000B5E4F0A3F0D209E551649D
:100D5000026003020DE19000B3E0FEA3E0FFA3E018
:100D6000FCA3E0FDC39FEC9E50719000B0E0FBA39C
:100D7000E0FAA3E0F98D828C83E59B1203CE90000C
:100D8000BBE0FEA3E0FFC3ED9FEC9E50409000B39C
:100D9000E0FCA3E0FDEF9DEE9C50329000B8E0FB3C
:100DA000A3E0FAA3E0F99000B5E0FEA3E0FFF5822E
:100DB0008E831203A1FD9000B0E0FBA3E0FAA3E054
:100DC000F98F828E831203A16D6002C2099000B672
:100DD000E004F070069000B5E004F0855012020EB9
:100DE000879000B3E0FEA3E0FFA3E0FCA3E0FDC317
:100DF0009FEC9E50779000B0E0FBA3E0FAA3E0F9EF
:100E00008D828C83E59B1203CE9000BBE0FEA3E0B5
:100E1000FFC3ED9FEC9E50469000B3E0FCA3E0FDC5
:100E2000EF9DEE9C50389000B8E0FBA3E0FAA3E001
:100E3000F99000B5E0FEA3E0FFF5828E831203A1D6
:100E4000FD9000B0E0FBA3E0FAA3E0F98F828E836F
:100E50001203A16D60089000B574FFF0A3F090003C
:100E6000B6E004F070069000B5E004F09000B3E046
:100E7000FEA3E0FFC39000B6E09F9000B5E09E4067
:100E8000069000B77401F0D007D006D005D004D08A
:100E900003D002D001D000D0D0D082D083D0F0D007
:020EA000E0323E
:0223FA00155874
:0A23FC009000B7E0A858F6FFE4F0E7
:0324060005582254
:01249B00221E
:101809008F348E338D328C31853551E5517002809C
:101819000343BA01E551701790005D74FFF0A3749A
:1018290024F0A3749BF0E4F5DBD290D2918020C21E
:10183900B7AB34AA33A932A831E47F407E9CFDFCC2
:1018490012051C8F50E550700375500185501275B3
:101859009A10E47B04FAF9F89024911205F612051E
:101869001CAB34AA33A932A83112051CEFF404F5D4
:10187900D7E47B04FAF9F89024911205F612051CB5
:10188900AB34AA33A932A83112051CC3E49FFFE483
:101899009EFE74019DFDE49CFC78081205BC8FD660
:1018A900438E1443AF0190005174FFF0A37423F0E9
:0518B900A374FAF02207
:102228009000B0EBF0A3EAF0A3E9F0A3ECF0A3ED83
:10223800F09000BBE539F0A3E53AF09000B8E53638
:10224800F0A3E537F0A3E538F0D20CE49000B7F03E
:012258002263
:102259009000AFE070269000A8EBF0A3EAF0A3E9A4
:10226900F0E4A3F0A3F0A3ECF0A3EDF0A37401F064
:0F227900E5516002D2B7439A027F02227F03220F
:0B2433009000AFE07002FF227F01224A
:100AD40000EF00C500AF00A00096008E00870081E3
:100AE400007C007800740071006D006B0068006584
:100AF40000630061005F005D005B005A005800560F
:100B040000550054005200510050004E004D004C5E
:100B1400004B004A00490048004700460045004495
:100B240000430043004200410040003F003F003EBC
:100B3400003D003D003C003B003A003A00390039DA
:100B440000380037003700360036003500340034F2
:100B54000033003300320032003100310030003005
:100B6400002F002F002E002E002D002D002C002C15
:100B7400002B002B002A002A002900290029002824
:100B8400002800270027002600260026002500252F
:100B94000024002400240023002300220022002239
:100BA40000210021002000200020001F001F001F42
:100BB400001E001E001D001D001D001C001C001C4A
:100BC400001B001B001B001A001A001A0019001950
:100BD4000018001800180017001700170016001658
:100BE400001600150015001500140014001400135D
:100BF4000013001300120012001200110011001063
:100C040000100010000F000F000F000E000E000E69
:100C1400000D000D000D000C000C000C000B000B6F
:100C2400000B000A000A0009000900090008000876
:100C3400000800070007000700060006000500057D
:100C4400000400040003000300030002000200018A
:100C54000001000100000000FFFFFFFFFFFFFFFE97
:100C6400FFFEFFFDFFFDFFFCFFFCFFFBFFFBFFFAA8
:100C7400FFFAFFF9FFF9FFF8FFF8FFF7FFF7FFF6B8
:100C8400FFF6FFF5FFF5FFF4FFF3FFF3FFF2FFF2CA
:100C9400FFF1FFF0FFF0FFEFFFEEFFEDFFEDFFECE4
:100CA400FFEBFFEAFFE9FFE8FFE7FFE6FFE5FFE40C
:100CB400FFE3FFE2FFE0FFDFFFDDFFDCFFDAFFD849
:0C0CC400FFD5FFD2FFCEFFC9FFC10169C0
:10174A0012000378257C007D007E007F0A12037B4D
:10175A0085292F852A30AE2FE5307802CEA2E713ED
:10176A00CE13D8F8F5308E2F25E0FFE52F33FE741F
:10177A00D42FF582740A3EF583E493F5237401931A
:10178A00F524C3E52364809480502DC3E49524FF97
:10179A00E49523FE7C007D0A1204457C007D0A1232
:1017AA0004458D3775340A75350A75360CC3E495C8
:1017BA0024FFE49523FE8034AE23AF247C007D64AD
:1017CA001204457C007D0A120445AB05AE23AF2402
:1017DA007C007D0A1204457C007D0A1204458D377F
:1017EA008B3675340A75350AAE23AF247C007D0A20
:0F17FA001204458D387B0A7D0A7F0A12230A22CA
:041465004100FB0047
:1021C5007F05121FCD8F317F02121FCDE531B4017E
:1021D5000E9000FBE004F0E0D394024002E4F0BF6F
:1021E500010F9000FBE014F0E0C39400500374026B
:0121F500F0F9
:0121F60022C6
:102397009000FBE014600A14600A2402700902101E
:0823A7004E02174A1220D62253
:0B146900024506C9C11003420000004C
:101A0B0012003E8F4720103CAC45AD46E41201F16D
:101A1B007466FBFAF97840120046C004C005C00694
:101A2B00C007AC47E41201F6A804A905AA06AB0748
:101A3B00D007D006D005D00412014F12022A8E31E6
:101A4B008F328006753100753214AE31AF327C00A7
:101A5B007D3C1203F0E55775F007A4248DF582E465
:101A6B003400F583EFF0AE31AF327C007D3C1203D6
:101A7B00F0E55775F007A4248CF582E43400F58368
:101A8B00EDF0E55775F007A4248CF9740035F0FAE6
:101A9B007B0178337C007D007E007F0712037B0285
:021AAB00237E98
:101E8A00122472C001E55775F007A4248CF9740076
:101E9A0035F0A801FC7D01D0017E007F0712037B8B
:101EAA00E55775F007A4248DF582E43400F583E044
:101EBA0075F03CA4FFAEF0E55775F007A4248CF545
:101ECA0082E43400F583E07C002FF543EC3EF542D2
:071EDA00A210E433F54422DD
:10104E00122472C001E55775F007A4248CF97400C0
:10105E0035F0A801FC7D01D0017E007F0712037BD5
:10106E00E55775F007A4248DF582E43400F583E08E
:10107E007016E55775F007A4248CF582E43400F55C
:10108E0083E07004B210802AE55775F007A4248C13
:10109E00F582E43400F583E0D3943C5015E55775A2
:1010AE00F007A4248DF582E43400F583E0D3940296
:1010BE004005121A0B8045E55775F007A4248CF5F0
:1010CE0082E43400F583E07021E55775F007A4241F
:1010DE008CF582E43400F583743BF0E55775F00728
:1010EE00A4248DF582E43400800DE55775F007A435
:1010FE00248CF582E43400F583E014F0E55775F0A6
:10110E0007A4248CF9740035F0FA7B0178337C0047
:10111E007D007E007F0712037B12237EE55775F05C
:10112E0007A4248DF582E43400F583E0FF75F00A00
:10113E0084FEEF75F00A84AFF0E55775F007A4242E
:10114E008CF582E43400F583E0FD75F00A84FCED45
:10115E0075F00A8485F0388C378F358E3475360AE3
:08116E007B0AE4FDFF02230AE5
:0B1474004400F7322D3237025200C84E
:05003E00AE52AF532299
:1020D600AE52AF537C007D64120445AB07AE52AFDF
:1020E600537C007D0A1204457C007D0A1204458D4E
:1020F600378B3675342E75352DAE52AF537C007D39
:0F2106000A1204458D387B2E7D367F2702230A6F
:1006240000000000000000000000000000000000C6
:1006340000000000000000000000000000000000B6
:1006440000000000000000000000000000000000A6
:100654000000000000000000000000000000000096
:100664000000000000000000000000000000000086
:100674000000000000000000000000000000000076
:10068400000000009CBBCDE5D5F2B5BDC1CBA3AC49
:10069400B1BED5BECEAABBBBB3CBD5BEA3ACBFC97E
:1006A400BBBBB3CB32BAC5CFDFA1A3CFC2B3B5CAEC
:1006B400B1A3ACC7EBD7A2D2E2C1D0B3B5D3EBD5CB
:1006C400BECCA8D6AEBCE4B5C4BCE4CFB600000032
:1006D4000000000000000000000000000000000016
:1006E4000000000000000000000000000000000006
:1006F40000000000000000000000000000000000F6
:1007040000000000000000000000000000000000E5
:1007140000000000000000000000000000000000D5
:1007240000000000000000000000000000000000C5
:1007340000000000000000000000000000000000B5
:1007440000000000000000000000000000000000A5
:100754000000000000000000000000000000000095
:100764000000000000000000000000000000000085
:100774000000000000000000000000000000000075
:100784000000000000000000000000000000000065
:100794000000000000000000000000000000000055
:1007A4000000000000000000000000000000000045
:1007B4000000000000000000000000000000000035
:1007C4000000000000000000000000000000000025
:1007D4000000000000000000000000000000000015
:1007E4000000000000000000000000000000000005
:1007F40000000000000000000000000000000000F5
:1008040000000000000000000000000000000000E4
:1008140000000000B3B5C3C5BCB4BDABB9D8B1D5F5
:10082400A3ACBDF7B7C0BCD0C9CB0000000000002A
:1008340000000000000000000000000000000000B4
:1008440000000000000000000000000000000000A4
:100854000000000000000000000000000000000094
:100864000000000000000000000000000000000084
:100874000000000000000000000000000000000074
:100884000000000000000000000000000000000064
:100894000000000000000000000000000000000054
:1008A4000000000000000000000000000000000044
:1008B4000000000000000000000000000000000034
:1008C4000000000000000000000000000000000024
:1008D4000000000000000000000000000000000014
:1008E4000000000000000000000000000000000004
:1008F40000000000000000000000000000000000F4
:1009040000000000000000000000000000000000E3
:1009140000000000000000000000000000000000D3
:1009240000000000000000000000000000000000C3
:1009340000000000000000000000000000000000B3
:1009440000000000000000000000000000000000A3
:100954000000000000000000000000000000000093
:100964000000000000000000000000000000000083
:100974000000000000000000000000000000000073
:100984000000000000000000000000000000000063
:100994000000000000000000000000000000000053
:1009A40000000000B1BEB4CEC1D0B3B5BFAACDF92A
:1009B400A3ACB6C5BCD2C6BAA1A3CFC2D2BBD5BE66
:1009C4003A9CBBCDE5D5F2A1A3D0E8BBBBB3CB32F7
:1009D400BAC5CFDFB5C4B3CBBFCDC7EBD4DA9CBBAC
:1009E400CDE5D5F2CFC2B3B5000000000000000091
:1009F40000000000000000000000000000000000F3
:100A040000000000000000000000000000000000E2
:100A140000000000000000000000000000000000D2
:100A240000000000000000000000000000000000C2
:100A340000000000000000000000000000000000B2
:100A440000000000000000000000000000000000A2
:100A54000000000000000000000000000000000092
:100A64000000000000000000000000000000000082
:100A74000000000000000000000000000000000072
:100A84000000000000000000000000000000000062
:100A94000000000000000000000000000000000052
:100AA4000000000000000000000000000000000042
:100AB4000000000000000000000000000000000032
:100AC4000000000000000000000000000000000022
:06147F00015400015500BC
:0D002E00E554B4410475550122E4F5552256
:101DCC00E5556401605E121E8A854231854332E519
:101DDC0032640C45317011E544700DE55775F064B3
:101DEC00A42424F974068030E53264054531701260
:101DFC00E544B4010DE55775F064A424B4F97407F7
:101E0C008016E5324531701CE544B40117E5577571
:101E1C00F064A42444F9740935F0FA7BFF7D647CEA
:041E2C000012225925
:011E3000228F
:0424910000A8C000DF
:031485000157010B
:06248B00122397021DCC94
:102153003F065B4F666D7D077F6F00084001414876
:10216300BF86DBCFE6EDFD87FFEF777C395E7971C4
:102173003D7606383F736D3E6E5F7C585E7B716FB4
:0C218300741038545C7367506D781C6E4B
:041488004100E60138
:10236500C295E4FEEF1392CC000000D29500EFC3B6
:0823750013FFC2950EBE08EC37
:01237D00223D
:1023AF00E4FEEFC313FF30CC03430780D295000048
:0723BF0000C2950EBE08EB01
:0123C60022F4
:10228800F07F8512229BA3EFF07F8712229BA3EF9A
:03229800F07F894B
:10229B00C296000000C295000000D2960012236582
:0A22AB001223AFD295000000C29686
:0122B5002206
:03232A00A3E0FD30
:10232D00C296000000C295000000D29600122365EF
:0D233D00AF05122365D295000000C2962264
:072472007B017A0079DF22F3
:10237E0078DF7C007D017B007A0079337E007F0759
:09238E0012037BE49000E6F0224A
:1023C700EFD3941F5009EF25E044C1FF02229B7F02
:0223D7000122E1
:1022E100AC07AB05ECD3941F501CE4FD7F8E122389
:1022F1002DEC25E044C0FFAD0312232D7D807F8EA0
:0923010012232D7F00227F01222E
:02196600155812
:101968009000E6E060447F8112229BA858EFF69031
:1019780000DFE06F7003021A08A858E6F07F8312B0
:10198800229BA858EFF6A3E06F6075A858E61222CC
:1019980088A3EFF07F8D12229B9000E5EFF07F8BFC
:1019A80012229B9000E4EFF080569000DEE0FF04E6
:1019B800F0EFC3940A4049E4F09000E604F0E4FD37
:1019C8007F8E12232D9000DFE0FD7F8012232D7F74
:1019D8008212232A7F8412232AA3E0FD7F86122302
:1019E8002DA3E0FD7F8812232DA3E0FD7F8A12231B
:1019F8002DA3E0FD7F8C12232D7D807F8E12232D59
:031A08000558225C
:101299007F8112229B9000DFEFF07F8312229BA3B4
:1012A900EF122288A3EFF07F8B12229BA3EFF07F2E
:1012B9008D12229BA3EFF0E4FD7F8E12232D7F1E5A
:1012C9001223C7EF64A560047F0180027F009000AC
:1012D900DFE05480FEA3E0D3945940047D018002ED
:1012E9007D00ED4EFE9000E1E0D394A440047D0121
:1012F90080027D00ED4EFE9000E2E0D3943140047F
:101309007D0180027D00ED4EFE9000E3E0D3941252
:1013190040047D0180027D00ED4EFE9000E4E0D3A3
:10132900940740047D0180027D00ED4EFE9000E5AA
:10133900E0D3949940047D0180027D00ED4E4F6019
:101349003078337C007D007B007A00793B7E007F1A
:101359000712037B12237E7DA57F1E1222E178DF0F
:101369007C007D017B007A00793B7E007F071203B8
:101379007B7DA97F9012232D7D807F8E12232D9056
:0E138900005A74FFF0A37419F0A37466F022EA
:10004600EC4D6011E8497017ED33EC3304600DE4B4
:10005600FCFFFEFD22E933E8330470F80202961233
:10006600026158046009E4CC248150062850090234
:1000760002A028400302029DC0E0EB4A7044B9800A
:1000860006D0E0FB02028CEF4E701CBD8008EBFF31
:10009600EAFEE9FD80EBE98DF0A4FEE5F002012F12
:1000A600E9CDF9EAFEEBFFEF89F0A4FCE5F0CE8995
:1000B600F0A42EFFE435F0CD89F0A42DFEE435F052
:1000C6008067EF4E7005BD80D780C3EF8BF0A4AC80
:1000D600F0EE8BF0A42CFCE435F0F8EF8AF0A42CBB
:1000E600E5F038FCE433CB8DF0A42CFCE5F03BF8CE
:1000F600EE8AF0A42CFCE5F038F8E433CF89F0A4BE
:100106002CFCE5F038CF3400CE89F0A42FFFE5F0C3
:100116003EFEE433C98DF0A42EFEE5F039CD8AF01B
:10012600A42FFFE5F03EFEE43DFD33D0E0FB500793
:100136000BBB000F0202A0EC2CFCEF33FFEE33FEEC
:06014600ED33FD0202781A
:10014C000202A0EC5D046005E859047003020296FB
:10015C00120261580460F6EC4860F2EC7004FDFE8B
:10016C00FF22C860DB2481C85009C3986002500686
:10017C0002029D9850CAF582E9294B4A7005AB8260
:10018C0002028C75F0007C1A7880C3EF9BEE9AED1E
:10019C0099400DC3EF9BFFEE9AFEED99FDE842F0FE
:1001AC00DC23ACF0D0E0FFD0E0FED0E0FDAB822051
:1001BC00E7101BEB60BAEC2CFCEF33FFEE33FEEDDB
:1001CC0033FD020278E803F830E705C0F075F00063
:1001DC00EF2FFFEE33FEED33FD40B830E7C280AABF
:1001EC0075F020800E75F010800575F0087D007E8E
:1001FC00007F003392D530D5031205AEEC3340109E
:10020C00EF33FFEE33FEED33FDEC33FCD5F0ED2296
:0E021C00E5F0247EA2D513CC92E7CDCEFF22D2
:10022A00EDD2E7CD33EC3392D524814006E4FFFECC
:10023A00FDFC22FCE4CFCECDCC24E0501174FF802B
:10024A00EDC3CC13CCCD13CDCE13CECF13CF0470C8
:07025A00F030D5DE0205AE15
:10026100E9D2E7C933E833F892D5EDD2E7CD33ECE3
:0702710033FC5002B2D5225C
:10027800EC30E7100FBF000C0EBE00080DBD0004E7
:100288000BEB6014A2D5EB13FCED92E7FD2274FF93
:10029800FCFDFEFF22E480F8A2D574FF13FC7D80EC
:0302A800E480EF00
:03000000021BD010
:0C1BD000787FE4F6D8FD758158021C17E0
:1002AB00E709F608DFFA8046E709F208DFFA803E35
:1002BB0088828C83E709F0A3DFFA8032E309F60822
:1002CB00DFFA8078E309F208DFFA807088828C838A
:1002DB00E309F0A3DFFA806489828A83E0A3F6083E
:1002EB00DFFA805889828A83E0A3F208DFFA804C18
:1002FB0080D280FA80C680D4806980F280338010EF
:10030B0080A680EA809A80A880DA80E280CA803357
:10031B0089828A83ECFAE493A3C8C582C8CCC583CF
:10032B00CCF0A3C8C582C8CCC583CCDFE9DEE7809F
:10033B000D89828A83E493A3F608DFF9ECFAA9F01E
:10034B00EDFB2289828A83ECFAE0A3C8C582C8CC74
:10035B00C583CCF0A3C8C582C8CCC583CCDFEADE8D
:10036B00E880DB89828A83E493A3F208DFF980CCEF
:10037B0088F0EF60010E4E60C388F0ED2402B404E8
:10038B000050B9F582EB2402B4040050AF2323458F
:06039B0082239002FB73B7
:1003A100BB010CE58229F582E5833AF583E0225011
:1003B10006E92582F8E622BBFE06E92582F8E2225B
:0D03C100E58229F582E5833AF583E4932275
:1003CE00F8BB010DE58229F582E5833AF583E8F065
:1003DE00225006E92582C8F622BBFE05E92582C811
:0203EE00F222F9
:1003F000BC000BBE0029EF8DF084FFADF022E4CCF1
:10040000F875F008EF2FFFEE33FEEC33FCEE9DECB9
:10041000984005FCEE9DFE0FD5F0E9E4CEFD22EDFF
:10042000F8F5F0EE8420D21CFEADF075F008EF2F49
:10043000FFED33FD4007985006D5F0F222C398FD3A
:050440000FD5F0EA22D7
:10044500C2D5EC30E709B2D5E4C39DFDE49CFCEED2
:1004550030E715B2D5E4C39FFFE49EFE1203F0C357
:10046500E49DFDE49CFC80031203F030D507C3E452
:060475009FFFE49EFE2241
:10047B00A3F8E0C5F025F0F0E58215827002158334
:06048B00E0C838F0E82291
:10049100E88FF0A4CC8BF0A42CFCE98EF0A42CFC0A
:1004A1008AF0EDA42CFCEA8EF0A4CDA8F08BF0A488
:1004B1002DCC3825F0FDE98FF0A42CCD35F0FCEBE7
:1004C1008EF0A4FEA9F0EB8FF0A4CFC5F02ECD39AC
:0F04D100FEE43CFCEAA42DCE35F0FDE43CFC2219
:1004E00075F008758200EF2FFFEE33FECD33CDCCD3
:1004F00033CCC58233C5829BED9AEC99E582984056
:100500000CF582EE9BFEED9AFDEC99FC0FD5F0D632
:10051000E4CEFBE4CDFAE4CCF9A88222B800C1B95C
:100520000059BA002DEC8BF084CFCECDFCE5F0CB9A
:10053000F97818EF2FFFEE33FEED33FDEC33FCEBD3
:1005400033FB10D703994004EB99FB0FD8E5E4F98E
:10055000FA227818EF2FFFEE33FEED33FDEC33FC7B
:10056000C933C910D7059BE99A4007EC9BFCE99A6F
:10057000F90FD8E0E4C9FAE4CCFB2275F010EF2FB4
:10058000FFEE33FEED33FDCC33CCC833C810D707B4
:100590009BEC9AE899400AED9BFDEC9AFCE899F8EF
:0E05A0000FD5F0DAE4CDFBE4CCFAE4C8F92282
:10201300C2D5E830E70FB2D5E4C39BFBE49AFAE4F8
:1020230099F9E498F8EC30E717B2D5122049120574
:102033001CE4C39BFBE49AFAE499F9E498F880035F
:1020430012051C30D50DE4C39FFFE49EFEE49DFD05
:04205300E49CFC22EB
:0E05AE00C3E49FFFE49EFEE49DFDE49CFC225E
:1005BC00E8600FECC313FCED13FDEE13FEEF13FF1D
:0305CC00D8F12241
:1005CF00E86010ECA2E713FCED13FDEE13FEEF1342
:0405DF00FFD8F0222F
:1005E300E8600FEFC333FFEE33FEED33FDEC33FC76
:0305F300D8F1221A
:1005F600E493FC740193FD740293FE740393FF224B
:0C060600ECF0A3EDF0A3EEF0A3EFF02267
:0C061200A42582F582E5F03583F58322F3
:06061E008A838982E47367
:101BDC00021D64E493A3F8E493A34003F68001F29E
:101BEC0008DFF48029E493A3F85407240CC8C3330A
:101BFC00C4540F4420C8834004F456800146F6DFD9
:101C0C00E4800B0102040810204080901397E47EBE
:101C1C00019360BCA3FF543F30E509541FFEE493CD
:101C2C00A360010ECF54C025E060A840B8E493A394
:101C3C00FAE493A3F8E493A3C8C582C8CAC583CABF
:101C4C00F0A3C8C582C8CAC583CADFE9DEE780BE77
:01148C00005F
:00000001FF
