:1031C1007F98123E6C12422C1241BB7D07E4FF1224
:1031D1004425E4F50C7F807E25FDFC1227CC1238B6
:1031E1006C123761124406124028123BEF124364FD
:1031F10012425F750D01750E01750FF5E4F510F5BD
:10320100117B017A0179F57D01FC123E9D7BFF7AEC
:103211004279B47F0A1233427BFF7A00790E7F0331
:103221001233427BFF7A44797A7F021233427BFF69
:103231007A2C79767F0712334212445C123CB080BB
:01324100FB91
:09441C008B88898C88898F8889BE
:10184E0052012E8686008686008686008686008653
:09185E0086008686004101230981
:03002B000244503C
:0644500053BCEFD20F3255
:021E180015555E
:101E1A00200F03021FC1C20F900122E0B409004043
:101E2A0003021FA3901E35F8282873021E7C021E87
:101E3A0050021E62021E8E021E50021E62021EA561
:101E4A00021E50021E62AFBDEFFEADBE7C00E42D45
:101E5A00FFEC3E900124803CAFBDEFFEADBE7C009E
:101E6A00E42DFFEC3E900126F0A3EFF0754A010243
:101E7A001FA9AFBDEFFEADBE7C00E42DFFEC3E9086
:101E8A0001288010AFBDEFFEADBE7C00E42DFFEC53
:101E9A003E90012AF0A3EFF0021FA9AFBDEFFEADFD
:101EAA00BE7C00E42DFFEC3E90012CF0A3EFF090F5
:101EBA00012CE0FEA3E07807CEC313CE13D8F9A80D
:101ECA0055F6C394065013A855E675F003A4242EBC
:101EDA00F582E43401F583E014F0900123E014F074
:101EEA006003021FA97409F0A855E4F6A855E6FF95
:101EFA00C394064003021FA9EF75F003A4242EF52C
:101F0A0082E43401F583E0C39480502AE6FF75F039
:101F1A0003A4242FF582E43401F583E0D3948040AE
:101F2A0040EF75F003A42430F582E43401F583749C
:101F3A0001F0F54B802BA855E6FF75F003A4242F7A
:101F4A00F582E43401F583E0C394805014EF75F010
:101F5A0003A42430F582E43401F5837402F0754B4E
:101F6A0001A855E6FF75F003A4242EF582E4340196
:101F7A00F583E0FEEF75F003A4242FF582E4340123
:101F8A00F583EEF0E675F003A4242EF582E434011D
:101F9A00F5837486F006021EF690012274FFF09013
:101FAA000122E0D39407400374FFF0900122E00479
:071FBA00F090441C93F5BCFC
:031FC100055522A1
:0243A0001555B1
:0943A200A855A64BE4F54BE6FF1B
:0343AB0005552293
:0243AE001555A3
:0943B000A855A64AE4F54AE6FF0F
:0343B90005552285
:103E6C008F9D75BC88439720D2AD90004574FFF0B0
:103E7C00A3741EF0A37418F0A374FFF0A37443F0A2
:103E8C00A374A0F0A374FFF0A37443F0A374AEF07A
:013E9C002203
:070003007B017A0179242240
:103ADC00C3EF64809480403BD3EF64809485503373
:103AEC00EFFD3395E0FC90013075F003ED120C679F
:103AFC00EC75F003A42583F583E0FE90013075F09E
:103B0C0003ED120C67EC75F003A42583F583E4F048
:053B1C00AF06227F034B
:013B21002281
:10254600E4F5809001C1E0FFB40800505F90255A81
:10255600F828287302257202257802257E02258432
:1025660002258A02259402259E0225A8C2A3C2A29C
:102576008016C2A3C2A2801AC2A3C2A2801EC2A390
:10258600C2A28022C2A3D2A2C2A1C2A08020C2A39C
:10259600D2A2C2A1D2A08016C2A3D2A2D2A1C2A0A8
:1025A600800CC2A3D2A2D2A1D2A08002D2A3C3EF32
:1025B6006480948850299001C1E0FF3395E0FE7451
:1025C600B82FF58274013EF583E0FF3395E0FE7483
:1025D600EE2FF582743C3EF583E493F580801E90E1
:1025E60001C1E0FFB408133395E0FE74B82FF582FD
:1025F60074013EF583E0F5808003E4F5809001B731
:10260600E0FF9001C1E004FEF0D3EF6480F8EE64D1
:1026160080984014E0D36480948850047408F022B3
:092626009001B6E09001C1F02220
:10422C00E4F5937594FF5395F043960F90002A7420
:0B423C00FFF0A37425F0A37446F022ED
:094425009001B6EFF0A3EDF022C6
:10417B009001B8EFF0A3EDF0A3EBF0A3E50BF0A3E8
:10418B00E50CF0A3E50DF0A3E50EF0A3E50FF0228F
:064456009001C0EFF0220E
:10186700011F004901DA9494009494009494004174
:0318770001D91E76
:02221A00155558
:10221C0020B2069001DAE014F020B3069001DDE064
:10222C0014F02097069001E0E014F09001D9E0142E
:10223C00F0600302233A741EF0A855E4F6A855E6A4
:10224C00FFC364809483400302233AEF3395E0FE8E
:10225C009001DA75F003EF120C67EE75F003A4250C
:10226C0083F583E0C3948050399001DB75F003EF64
:10227C00120C67EE75F003A42583F583E0D39480EC
:10228C00405AE6FF3395E0FE9001DC75F003EF1247
:10229C000C67EE75F003A42583F5837401F0F51F2C
:1022AC00803AA855E6FF3395E0FE9001DB75F0030C
:1022BC00EF120C67EE75F003A42583F583E0C3944D
:1022CC008050199001DC75F003EF120C67EE75F07D
:1022DC0003A42583F5837402F0751F01A855E6FF4E
:1022EC00FD3395E0FC9001DA75F003ED120C67EC10
:1022FC0075F003A42583F583E0FE9001DB75F003F4
:10230C00ED120C67EC75F003A42583F583EEF0EF6A
:10231C003395E0FE9001DA75F003EF120C67EE7561
:0E232C00F003A42583F5837494F00602224981
:03233A0005552224
:0243BC00155595
:0943BE00A855A61FE4F51FE6FF57
:0343C70005552277
:1041BB0090003074FFF0A37443F0A374BCF0900034
:0D41CB002D74FFF0A37422F0A3741AF022EB
:103C3100EF600764016003BF0233EFFD3395E0FCE1
:103C41009001DC75F003ED120C67EC75F003A4250F
:103C510083F583E0FE9001DC75F003ED120C67EC57
:0F3C610075F003A42583F583E4F0AF06227F03FB
:013C70002231
:10187A004100000A4100290A41006D0A04290000BA
:10188A000000012F004600670000FFFF8FFFC10D17
:10189A00C105C108C101C10E60240005FF000AFF8D
:1018AA00000AFF000AFF000AFF000AFF000AFF0001
:1018BA000AFF000AFF000AFF000AFF000AFF000AE7
:1018CA006036002AFF000AFF000AFF4474FF000A7C
:1018DA00FF4474FF000AFF4474FF000AFF000AFF76
:1018EA00000AFF4474FF4474FF4474FF4474FF0009
:0A18FA000AFF000AFF000AFF000ABF
:01000A0022D3
:034474007F0022A4
:103A9500438E805389F07BE07A2879017800900085
:103AA5003E120C4B123BABEFF404F58A7BE07A280F
:103AB5007901780090003E120C4B123BABC3E49F9A
:103AC500FFE49EFE74019DFDE49CFC7808120C2425
:073AD5008F8CD28CD2A922D4
:03000B00023915A2
:04391500C0E0C0D07E
:10391900D5230A75234C300D02052FD20DA203724F
:103929000450361525E5257030852725D207300A3C
:1039390017E52860071528438F01801D538FFEC2A4
:10394900B5D53115C20A80110526E526D39406405E
:0939590008C203E52E6002D2064B
:05396200D0D0D0E032DE
:1038C200300E47C20E90003E120C4B7810120C24A0
:1038D2008E4C8F4D900003E0FEA3E0FFE4FCFD7BE5
:1038E20019FAF9F8120ADEC006C007AE4CAF4DABAA
:1038F20007AA06E4F9F8D007D006123BAB78031208
:103902000C24900065EEF0A3EFF0900065E0FEA3BA
:02391200E0FFD4
:013914002290
:09442E00900067E0FEA3E0FF220C
:09443700900067EEF0A3EFF02203
:1043130090006BEEF0A3EFF0900069ECF0A3EDF0EA
:014323002277
:03447700C2B422AA
:03003B00022A8412
:102A8400C0E0C083C082C0D075D000C004C005C0FF
:032A940006C00772
:102A970030DF04C2DF807D30DA04C2DA807630D9D5
:102AA7003DC2D9AFFBEFFEADEB7C00E42DFFEC3E62
:102AB70020000E900001F0A3EFF075DB11D200802B
:102AC70053FE900001E0FCA3E0FDC3EF9DFFEE9CE9
:102AD700A3F0A3EFF075DB00C200D20E803630D82A
:102AE70033C2D8900067E07002A3E06022B2B490CE
:102AF7000069E0FEA3E0F5EAEEF5FAA3E0FEA3E045
:102B0700FF90006AE02FF0900069E03EF08005C278
:042B1700B453DAFEDB
:102B1B00D007D006D005D004D0D0D082D083D0E05F
:012B2B003277
:06445C00123A95D2AF22D6
:103136003004047F0180027F00200A047E018002A1
:103146007E00EE5F6074E530C39524506830023629
:10315600752801E530131313541FAB32AA33A93473
:10316600F582758300120989FFE530540704FEEFE6
:10317600A806088002C333D8FC30D7057531038012
:103186002F753101802AAB32AA33A93475F002E5D6
:1031960030A4F58285F083120989F528E53075F0AB
:1031A60002A429F9EA35F0FA900001120989F531ED
:0A31B6000530D20A22C204438F1034
:0131C00022EC
:10245900900000E014F0701F740AF0D20590002972
:10246900E014F07012740AF0D20890006DE014F0D4
:102479007005740AF0D20190002AA3E0FAA3E0F9EA
:10248900120C7390002DA3E0FAA3E0F9120C7390DB
:102499000039A3E0FAA3E0F9120C73900045A3E018
:1024A900FAA3E0F9120C73900054A3E0FAA3E0F93F
:1024B900120C7390005DA3E0FAA3E0F9120C73907B
:1024C900004BA3E0FAA3E0F9120C73EF600C900043
:1024D9001DA3E0FAA3E0F9120C7390004EA3E0FAF1
:1024E900A3E0F9120C73EF600E900020A3E0FAA3A9
:1024F900E0F9120C73D20BE52DD394004016D52DBB
:102509003030090C900023A3E0FAA3E0F9120C7310
:10251900D20C801D900051A3E0FAA3E0F9120C73CC
:10252900EF600E900023A3E0FAA3E0F9120C73D236
:0D2539000C900005A3E0FAA3E0F9020C737A
:102F870090003FA3E0FAA3E0F9120C73900042A36C
:102F9700E0FAA3E0F9120C73900033A3E0FAA3E080
:102FA700F9120C73900008A3E0FAA3E0F9120C736E
:102FB700900030A3E0FAA3E0F9120C73EF600C90D5
:102FC7000011A3E0FAA3E0F9120C73900036A3E016
:102FD700FAA3E0F9120C73EF600C900017A3E0FA64
:102FE700A3E0F9120C73900048A3E0FAA3E0F912EA
:102FF7000C73EF600C90001AA3E0FAA3E0F9120C2F
:103007007330060EC206900026A3E0FAA3E0F91279
:033017000C732215
:103C710090000BA3E0FAA3E0F9120C7390003CA3AF
:103C8100E0FAA3E0F9120C73EF600C900014A3E0CA
:103C9100FAA3E0F9120C73900057A3E0FAA3E0F93C
:0F3CA100120C7390005AA3E0FAA3E0F9020C731F
:103F2E00AF2CAE2BAD2AAC29900060120C5B90002A
:103F3E0064E52FF0E4F52CF52BF52AF529F52F90F5
:0B3F4E00000EA3E0FAA3E0F9020C73E0
:103CB000300705C207123136300D05C20D122459E6
:103CC000300505C205122F87300805C208123C7165
:103CD000300105C201123F2EE52C2401F52CE435FC
:0E3CE0002BF52BE4352AF52AE43529F52922A7
:103342008B088A09890AEFB40C005070903355F843
:1033520028287302337902337E02338302338802D0
:10336200338D02339202339702339C0233A102332C
:10337200A60233AB0233B09000058035900008807E
:103382003090000B802B90000E802690001180213F
:10339200900017801C900014801790001A801290E1
:1033A200001D800D90002080089000238003900073
:0D33B20026E508F0A3E509F0A3E50AF022E6
:074449007B017A007960227B
:1020F40000C400DC00F701060126014A01720188D0
:1021040001B801EE020B024B029302E403100370C8
:1021140003DC04160497052605C800DC00F7011546
:102124000126014A0172019F01B801EE022A024B05
:10213400029302E4033F037003DC0455049705266D
:1021440005C8067D00F701150137014A0172019F98
:1021540001D201EE022A026E029302E4033F03A4B9
:1021640003DC045504DD057505C8067D0749010631
:102174000126014A015D018801B801EE020B024B00
:10218400029302BA0310037003DC041604970526B5
:102194000575062006E007B80126014A0172018888
:1021A40001B801EE022A024B029302E40310037009
:1021B40003DC04550497052605C8062006E007B885
:1021C40008AA014A0172019F01B801EE022A026EB7
:1021D400029302E4033F037003DC045504DD052687
:1021E40005C8067D06E007B808AA09B9015D01889B
:1021F40001B801D2020B024B029302BA031003701E
:1022040003A40416049705260575062006E007496D
:06221400082D092D0A4D02
:101904004D01A903000000000000000000000000D9
:0629DA008F088D098B0A35
:1029E0001243D8EF60037F0122E50AD3940040062A
:1029F000E50A94114028E50AD394174006E50A94A5
:102A000021401BE50AD394274006E50A9431400E85
:102A1000E50AD394375007E508C394F950037F03C0
:102A200022E50A603DC4540F75F007A4FDACF0E543
:102A30000875F015A42DFFE5F03CFEE50A54077C6F
:102A4000002FFFEC3EFEEF25E0FFEE33FE740A2F71
:102A5000F58274F83EF583E493F50C740193F50D5B
:102A60008005E4F50CF50DAF0B7E007C017D77123F
:102A700009EAAD091C1209FCAD07AC06AF0DAE0C9E
:032A80001233BF4F
:012A83002230
:040D8E00155515558D
:100D92001243D8EF70047F0180027F009001A9E026
:100DA200FEB402047D0180027D00ED5F600302104B
:100DB2007FEEB4030AE49001A7F0A3F002107F9043
:100DC20001AAE0FFB4F3047E0180027E00EFB4F1D9
:100DD200047F0180027F00EF4E603E9001ACE0FE96
:100DE20075F06484FFEE75F00A8475F00A84ADF044
:100DF200E075F00A84ABF0750B0A9001ABE02407B2
:100E0200F50C9001A6E0FEC4540F240AF50D750EF0
:100E12000AEE5407F50F12417B9001AAE0FFB4F3EA
:100E2200047E0180027E00EFB4F2047F0180027F23
:100E320000EF4E7003020ED89001ACE0FD7C007E04
:100E4200177F701209FCA855A607E6F975F002A4EF
:100E5200FFC39001B5E09F9001B4E095F05070E0BF
:100E6200FEA3E0FF7C007D0B1209EAE9FBFD1209FB
:100E7200FCA85508A6079001B4E475F001120A9D7A
:100E8200FED3E5F09BEE94004018A85508E624F93D
:100E9200FFE47EF0A807088005CEC313CE13D8F96D
:100EA200801FA85508E6FF740F7E00A8070880057A
:100EB200C333CE33CED8F97804CEA2E713CE13D8FB
:100EC200F8A85508F6A85508E6FF1244568007E42C
:100ED2009001B4F0A3F09001B0E0FEA3E0FFC39054
:100EE20001B3E09F9001B2E09E40030210791243E9
:100EF200D8EF600302107F9001ADE0FBA3E0FAA3FC
:100F0200E0F99001B2E0FEA3E0F5828E8312098936
:100F1200FFD394375003021014EF241024FC5079AD
:100F2200604524FE7003020FBF147003020FD52424
:100F32000260030210039001ADE0FBA3E0FAA3E01C
:100F4200F99001B2E475F001120A8785F082F58307
:100F52001209899001ABF09001B3E004F07098900F
:100F620001B2E004F080909001ADE0FBA3E0FAA3AF
:100F7200E0F99001B2E475F001120A8785F082F57A
:100F8200831209899001ACF09001B3E004F0706E15
:100F92009001B2E004F0020EF99001ADE0FBA3E093
:100FA200FAA3E0F99001B2E475F001120A9D85F00E
:100FB20082F5831209899001AAF0020EF99001B21A
:100FC200E475F001120A87AFF09001A7F0A3EFF0E9
:100FD200020EF99001A7E0FEA3E0FF4E601290011D
:100FE200B2EEF0A3EFF0E49001A7F0A3F0020EF945
:100FF2009001B3E004F070069001B2E004F0020E3A
:10100200F99001B3E004F070069001B2E004F0023E
:101012000EF99001B0E0FEA3E0FFC39001B3E09FA0
:101022009001B2E09E50569001ADE0FBA3E0FAA31E
:10103200E0F99001B2E475F001120A9D85F082F5A3
:10104200831209899001A6F09001ABE0FFA3E0FDB5
:10105200A3E0FBA3E0FAA3E0F99001B2E475F0018A
:10106200120A9D85F082F583120989F50B9001A67B
:0D107200E0FB1229DA80069001A97403F05A
:05107F00055505552296
:0F43640090004274FFF0A3740DF0A3748EF0224A
:103814009001A9E0B4030DE49001B2F0A3F0A3F089
:10382400A3F0C210EF60049001ACF0ED60049001CD
:10383400ABF0E94A60047F0180027F00E50E450D8C
:1038440060047E0180027E00EE5F60139001ADEBA8
:10385400F0A3EAF0A3E9F0A3E50DF0A3E50EF0E58B
:083864000F60049001AAF0229C
:103FD800BF02047E0180027E00BF01047D018002D1
:103FE8007D00ED4EFEBF03047D0180027D00ED4E95
:083FF80060059001A9EFF02221
:064462009001A9E0FF2219
:101914005501560000000000000000000000000017
:081924000000010000000000BA
:03004300021C4656
:101C4600C0E0C0F0C083C082C0D075D000C000C064
:101C560001C002C003C004C005C006C007E59A3033
:101C6600E142539AFD90015BE0FEA3E0FFC39001C1
:101C76005AE09F900159E09E501F900156E0FBA349
:101C8600E0FAA3E0F9A3E475F001120A9D85F0825B
:101C9600F583120989F59B800B90015DE4F0E54F11
:101CA6006002C2B7E59A20E003021DFD539AFE309A
:101CB6000C0BC20C900163E4F0A3F0D209E54F646B
:101CC600026003021D57900161E0FEA3E0FFA3E05E
:101CD600FCA3E0FDC39FEC9E507190015EE0FBA368
:101CE600E0FAA3E0F98D828C83E59B1209C8900186
:101CF60069E0FEA3E0FFC3ED9FEC9E5040900161BA
:101D0600E0FCA3E0FDEF9DEE9C5032900166E0FB07
:101D1600A3E0FAA3E0F9900163E0FEA3E0FFF582F9
:101D26008E83120989FD90015EE0FBA3E0FAA3E031
:101D3600F98F828E831209896D6002C2099001644F
:101D4600E004F07006900163E004F0854E2D021D5C
:101D5600FD900161E0FEA3E0FFA3E0FCA3E0FDC36C
:101D66009FEC9E507790015EE0FBA3E0FAA3E0F9BA
:101D76008D828C83E59B1209C8900169E0FEA3E081
:101D8600FFC3ED9FEC9E5046900161E0FCA3E0FD91
:101D9600EF9DEE9C5038900166E0FBA3E0FAA3E0CD
:101DA600F9900163E0FEA3E0FFF5828E83120989B4
:101DB600FD90015EE0FBA3E0FAA3E0F98F828E833B
:101DC6001209896D600890016374FFF0A3F0900119
:101DD60064E004F07006900163E004F0900161E0B5
:101DE600FEA3E0FFC3900164E09F900163E09E4084
:101DF600069001657401F0D007D006D005D004D056
:101E060003D002D001D000D0D0D082D083D0F0D081
:021E1600E032B8
:024373001555DE
:0A437500900165E0A855F6FFE4F0A2
:03437F00055522BF
:01004200229B
:1027CC008F0B8E0A8D098C08850C4FE54F7002809B
:1027DC000343BA01E54F701790005D74FFF0A374CA
:1027EC0000F0A37442F0E4F5DBD290D2918020C2C9
:1027FC00B7AB0BAA0AA909A808E47F407E9CFDFC94
:10280C00120B698F4EE54E7003754E01854E2D757A
:10281C009A10E47B04FAF9F890003E120C4B120B60
:10282C0069AB0BAA0AA909A808120B69EFF404F505
:10283C00D7E47B04FAF9F890003E120C4B120B69AA
:10284C00AB0BAA0AA909A808120B69C3E49FFFE401
:10285C009EFE74019DFDE49CFC7808120C118FD631
:10286C00438E1443AF0190005174FFF0A37443F0F6
:05287C00A37473F022BB
:103E9D0090015EEBF0A3EAF0A3E9F0A3ECF0A3ED43
:103EAD00F0900169E510F0A3E511F0900166E50DC4
:103EBD00F0A3E50EF0A3E50FF0D20CE4900165F050
:013ECD0022D2
:103EFF0090015DE07026900156EBF0A3EAF0A3E984
:103F0F00F0E4A3F0A3F0A3ECF0A3EDF0A37401F0A1
:0F3F1F00E54F6002D2B7439A027F02227F03224E
:0B43F00090015DE07002FF227F0122BF
:0440000015551555E8
:1040040012442EA855A60608A607A855E6FE08E6FB
:0F401400FF4E600BEF24FFFFEE34FFFE12443728
:054023000555055522C2
:10419B0053B1EF43B210124477E4F5D975DA49D233
:1041AB00DE90003F74FFF0A37440F0A37400F02284
:0833BF008E0E8F0F8C108D1192
:1033C70012442EEF4E7066AF11AE10124437C3E5AC
:1033D7000F940AE50E9400404BE47B18FAF9F89035
:1033E700003E120C4B120B69C006C007AE0EAF0FA2
:1033F700AB07AA06E4F9F8D007D006120B69AB07AA
:10340700AA06AFF9EFFEADE97C00E42DFFEC3ECF55
:103417002BCF3AAD07FCAF03AE02124313D2D8430A
:0F342700DA01800612447753DAFE7F02227F0318
:013436002273
:0C43D80012442EEF4E7002FF227F0122E3
:101A4A0000EF00C500AF00A00096008E008700815D
:101A5A00007C007800740071006D006B00680065FE
:101A6A0000630061005F005D005B005A0058005689
:101A7A0000550054005200510050004E004D004CD9
:101A8A00004B004A00490048004700460045004410
:101A9A0000430043004200410040003F003F003E37
:101AAA00003D003D003C003B003A003A0039003955
:101ABA00003800370037003600360035003400346D
:101ACA000033003300320032003100310030003080
:101ADA00002F002F002E002E002D002D002C002C90
:101AEA00002B002B002A002A00290029002900289F
:101AFA0000280027002700260026002600250025AA
:101B0A0000240024002400230023002200220022B3
:101B1A0000210021002000200020001F001F001FBC
:101B2A00001E001E001D001D001D001C001C001CC4
:101B3A00001B001B001B001A001A001A00190019CA
:101B4A0000180018001800170017001700160016D2
:101B5A0000160015001500150014001400140013D7
:101B6A0000130013001200120012001100110010DD
:101B7A0000100010000F000F000F000E000E000EE4
:101B8A00000D000D000D000C000C000C000B000BEA
:101B9A00000B000A000A00090009000900080008F1
:101BAA0000080007000700070006000600050005F8
:101BBA000004000400030003000300020002000105
:101BCA000001000100000000FFFFFFFFFFFFFFFE12
:101BDA00FFFEFFFDFFFDFFFCFFFCFFFBFFFBFFFA23
:101BEA00FFFAFFF9FFF9FFF8FFF8FFF7FFF7FFF633
:101BFA00FFF6FFF5FFF5FFF4FFF3FFF3FFF2FFF245
:101C0A00FFF1FFF0FFF0FFEFFFEEFFEDFFEDFFEC5E
:101C1A00FFEBFFEAFFE9FFE8FFE7FFE6FFE5FFE486
:101C2A00FFE3FFE2FFE0FFDFFFDDFFDCFFDAFFD8C3
:0C1C3A00FFD5FFD2FFCEFFC9FFC101693A
:07192C004401A0282828282F
:1037070012000378967C017D017E007F0A12094A28
:1037170090019AE0FFA3E09001A4CFF0A3EFF0900F
:1037270001A4E0FEA3E07802CEA2E713CE13D8F8F7
:10373700F0EE9001A4F0A3E025E0FF9001A4E033B0
:10374700FE744A2FF582741A3EF583E493FF7401E1
:0A37570093900194CFF0A3EFF0224D
:102E5F00900194E0FEA3E0FFC3EE648094805031B4
:102E6F00C3E49FFFE49EFE7C007D0A120A517C00A2
:102E7F007D0A120A518D0E750B0A750C0A750D0C11
:102E8F00900194E0FEA3E0FFC3E49FFFE49EFE8069
:102E9F0040900194E0FEA3E0FF7C007D64120A5194
:102EAF007C007D0A120A51AB05900194E0FEA3E06D
:102EBF00FF7C007D0A120A517C007D0A120A518D97
:102ECF000E8B0D750B0A750C0A900194E0FEA3E0B2
:102EDF00FF7C007D0A120A518D0F7B0A7D0A7F0A43
:042EEF0012417B22EF
:041933004102080065
:102C76007F05123ADC9000D6EFF07F02123ADC9024
:102C860000D7EFF07F04123ADC9000D8EFF07F0116
:102C9600123ADC9000D9EFF09000D6E0B401109023
:102CA6000208E004F0E0D3648094844002E4F090EB
:102CB60000D7E0B40111900208E014F0E0C364808C
:102CC600948050037404F09000D8E0B4011FE538F6
:102CD600D3940040181538780E7C007D007B007A6E
:102CE6000079367E007F0612094A1227169000D90F
:102CF600E0B4011FE538C3940F50180538780E7CF0
:102D0600007D007B007A0079367E007F0612094A34
:032D16001227166B
:012D19002297
:1040ED00900208E014601014601014601014601039
:1040FD002404700F023967022E5F023A05023DD586
:04410D001234AE2298
:1039B800C6BDD1F4A3ACB5BDC1CBA1A3C7EBC7B0FD
:1039C800CDF9C0E8CDD0C2B7B5C4B3CBBFCDD7BC55
:1039D800B1B8CFC2B3B5A1A3CFC2B3B5CAB1A3AC76
:1039E800C7EBD7A2D2E2C1D0B3B5D3EBD5BECCA832
:0D39F800D6AEBCE4B5C4BCE4CFB6A1A300BC
:10193700C1114A018A000003F1043607F506004287
:041947000186000015
:104028009001E7E0FF3395E0FEEF24FFFFEE34FF59
:10403800900188F0A3EFF0D211E4900186F0A3F08C
:08404800900182F0A304F022B4
:10324200900183E024FFF0900182E034FFF0E0FA85
:10325200A3E0FB7C007D3CFFAE02120A51A3EEF01C
:10326200A3EFF07C007D3CAF03AE02120A51900145
:1032720080ECF0A3EDF0D3900183E0940090018202
:10328200E0648094805038B211122B2C20113090BF
:103292000188E0FEA3E0FFD39400EE6480948040B6
:1032A2001EEF9405EE6480948050147C007DC81259
:1032B20009EA74922FF974043EFA7BFF123EFF2250
:102B2C00201172C3900189E09405900188E06480C3
:102B3C0094805061A3E004F07006900188E004F0EA
:102B4C00900189E025E0FF900188E033FE748A2F24
:102B5C00F58274013EF583E0FFA3E0900186CFF08F
:102B6C00A3EFF09001E7E0FF3395E0FE74022FF540
:102B7C008274023EF583E0FFD394004047EFFD7C66
:102B8C0000900186E0FEA3E0FF1209FC900182EEAA
:102B9C00F0A3EFF022201123C3900189E09405905B
:102BAC000188E06480948040129001827404F0A348
:102BBC0074B0F0E4900186F0A3F022900182E4F06E
:052BCC00A37415F022C6
:10396700900184E0FEA3E0FF7C007D0A1209FCAB16
:1039770007900180E0FEA3E0FF7C007D0A1209FCAE
:103987008F0E8B0B900184E0FEA3E0FF7C007D0A85
:103997001209FC8D0C750D0A900180E0FEA3E0FF73
:1039A7007C007D0A1209FC8D0F7B0AE4FDFF0241B2
:0139B7007B94
:103DD500201117750B33750C33750D31750E337551
:103DE5000F2F7B3A7D377F0A8015750B35750C359E
:103DF500750D31750E33750F2F7B347D397F381274
:033E0500417B22DC
:102D1A00301103022DBCD3900187E0940090018604
:102D2A00E094005003022DBC9001E7E0FF3395E0E8
:102D3A00FE74022FF58274023EF583E0FFD39400FD
:102D4A004066900186E0FCA3E0FDD39FEC9400402E
:102D5A00259001E7E0FF3395E0FE74022FF58274B7
:102D6A00023EF583E0FFC3ED9FFEEC9400900186DE
:102D7A00F0A3CEF08007E4900186F0A3F09001E77B
:102D8A00E0FF3395E0FE74022FF58274023EF5836C
:102D9A00E0FD7C00900186E0FEA3E0FF1209FC90B2
:102DAA000182EEF0A3EFF022900182740EF0A37478
:032DBA0010F022F4
:07194B00440202321932329E
:103A0500750B0A750C0A9001E7E0FF3395E0FE742B
:103A1500022FF58274023EF583E0FD75F06484F5AE
:103A25000DED75F00A8475F00A8485F00E74022F89
:103A3500F58274023EF583E075F00A8485F00F7B0C
:083A45000A7D0A7F0A02417BA1
:1000460000000000000000000000000000000000AA
:10005600000000000000000000000000000000009A
:10006600000000000000000000000000000000008A
:10007600000000000000000000000000000000007A
:10008600000000000000000000000000000000006A
:10009600000000000000000000000000000000005A
:1000A600000000000000000000000000000000004A
:1000B600000000000000000000000000000000003A
:1000C600000000000000000000000000000000002A
:1000D600000000000000000000000000000000001A
:1000E600000000000000000000000000000000000A
:1000F60000000000000000000000000000000000FA
:100106000000000000000000C6BDD1F4A3ACB5BDE0
:10011600C1CBA1A3C7EBC7B0CDF9C0E8CDD0C2B75C
:10012600B5C4B3CBBFCDD7BCB1B8CFC2B3B5A1A30D
:10013600CFC2B3B5CAB1A3ACC7EBD7A2D2E2C1D086
:10014600B3B5D3EBD5BECCA8D6AEBCE4B5C4BCE43F
:10015600CFB6A1A3000000000000000000000000D0
:100166000000000000000000000000000000000089
:100176000000000000000000000000000000000079
:100186000000000000000000000000000000000069
:100196000000000000000000000000000000000059
:1001A6000000000000000000000000000000000049
:1001B6000000000000000000000000000000000039
:1001C6000000000000000000000000000000000029
:1001D600B3A4C9B3BBF0B3B5C4CFD5BEA3ACB5BD4C
:1001E600C1CBA1A3B1BED5BECEAABBBBB3CBD5BE38
:1001F600A3ACBFC9BBBBB3CB32BAC5CFDFA1A2B4D8
:10020600C5B8A15332CFDFA1A3C7EBC7B0CDF9B8AC
:10021600DFCCFAC4CFD5BEA1A2B4C5B8A15332CFA4
:10022600DFA1A2C0E8CDD0B8DFCBD9C6FBB3B5D528
:10023600BEB5C4B3CBBFCDD7BCB1B8CFC2B3B5A1E1
:10024600A3CFC2B3B5CAB1A3ACC7EBD7A2D2E2C1A2
:10025600D0B3B5D3EBD5BECCA8D6AEBCE4B5C4BC42
:10026600E4CFB6A1A30000000000000000000000DB
:100276000000000000000000000000000000000078
:100286000000000000000000000000000000000068
:100296000000000000000000B9E2B4EFA3A8BBE133
:1002A600D5B9D6D0D0C4A3A9A3ACB5BDC1CBA1A3A3
:1002B600B1BED5BECEAABBBBB3CBD5BEA3ACBFC960
:1002C600BBBBB3CB32BAC5CFDFA1A3C7EBC7B0CD9B
:1002D600F9B3A4C9B3B9FABCCABBE1D2E9D6D0D046
:1002E600C4A1A2B3A4C9B3B9FABCCABBE1D5B9D6F5
:1002F600D0D0C4A1A2B3A4C9B3B9FABCCABBE1D5D4
:10030600B9D0C2B3C7B5C4B3CBBFCDD7BCB1B8CFD4
:10031600C2B3B5A1A3CFC2B3B5CAB1A3ACC7EBD71D
:10032600A2D2E2C1D0B3B5D3EBD5BECCA8D6AEBC73
:10033600E4B5C4BCE4CFB6A1A300000000000000F1
:1003460000000000000000000000000000000000A7
:100356000000000000000000000000000000000097
:10036600D6D5B5E3D5BEA3ACB6C5BCD2C6BAA3AC8A
:10037600B5BDC1CBA1A3C7EBC8ABCCE5B3CBBFCD55
:10038600D0AFB4F8BAC3CBE6C9EDCEEFC6B7D7BC8B
:10039600B1B8CFC2B3B5A1A3CFC2B3B5CAB1A3ACEE
:1003A600C7EBD7A2D2E2C1D0B3B5D3EBD5BECCA8AA
:1003B600D6AEBCE4B5C4BCE4CFB6A1A3BBB6D3AD40
:1003C600C4FAD4D9B4CEB3CBD7F8B5D8CCFAC1D009
:1003D600B3B5A3ACD4D9BCFBA3A1000000000000B8
:1003E6000000000000000000000000000000000007
:1003F60000000000000000000000000000000000F7
:1004060000000000000000000000000000000000E6
:1004160000000000000000000000000000000000D6
:100426000000000000000000B3B5C3C5BCB4BDABFE
:10043600B9D8B1D5A3ACBDF7B7C0BCD0C9CB000005
:1004460000000000000000000000000000000000A6
:100456000000000000000000000000000000000096
:100466000000000000000000000000000000000086
:100476000000000000000000000000000000000076
:100486000000000000000000000000000000000066
:100496000000000000000000000000000000000056
:1004A6000000000000000000000000000000000046
:1004B6000000000000000000000000000000000036
:1004C6000000000000000000000000000000000026
:1004D6000000000000000000000000000000000016
:1004E6000000000000000000000000000000000006
:1004F60000000000000000000000000000000000F6
:1005060000000000000000000000000000000000E5
:1005160000000000000000000000000000000000D5
:1005260000000000000000000000000000000000C5
:1005360000000000000000000000000000000000B5
:1005460000000000000000000000000000000000A5
:1005560000000000B1BEB4CEC1D0B3B5BFAACDF97C
:10056600A3ACB6C5BCD2C6BAA1A3CFC2D2BBD5BEB8
:10057600A3ACC6BDD1F4A1A3B3B5C3C5BFAAC6F487
:10058600B7BDCFF2CEAAD7F3B2E0A1A30000000018
:100596000000000000000000000000000000000055
:1005A6000000000000000000000000000000000045
:1005B6000000000000000000000000000000000035
:1005C6000000000000000000000000000000000025
:1005D6000000000000000000000000000000000015
:1005E6000000000000000000000000000000000005
:1005F60000000000000000000000000000000000F5
:1006060000000000000000000000000000000000E4
:10061600000000000000000000000000B1BEB4CEE3
:10062600C1D0B3B5BFAACDF9A3ACB6C5BCD2C6BAC4
:10063600A1A3CFC2D2BBD5BEA3ACB3A4C9B3BBF0F2
:10064600B3B5C4CFD5BEA1A3B3B5C3C5BFAAC6F4BF
:10065600B7BDCFF2CEAAD7F3B2E0A1A3B8F7CEBB0F
:10066600B3CBBFCDC7EBD7A2D2E2A3ACD0E8BBBB1E
:10067600B3CB32BAC5CFDFA1A2B4C5B8A15332CF2E
:10068600DFB5C4B3CBBFCDA3ACC7EBD4DAB3A4C933
:10069600B3BBF0B3B5C4CFD5BECFC2B3B5A1A3002B
:1006A6000000000000000000000000000000000044
:1006B6000000000000000000000000000000000034
:1006C6000000000000000000000000000000000024
:1006D6000000000000000000000000000000000014
:1006E60000000000B1BEB4CEC1D0B3B5BFAACDF9EB
:1006F600A3ACB6C5BCD2C6BAA1A3CFC2D2BBD5BE27
:10070600A3ACB9E2B4EFA3A8BBE1D5B9D6D0D0C4A7
:10071600A3A9A1A3B3B5C3C5BFAAC6F4B7BDCFF2FB
:10072600CEAAD7F3B2E0A1A3B8F7CEBBB3CBBFCD69
:10073600C7EBD7A2D2E2A3ACD0E8BBBBB3CB32BAED
:10074600C5CFDFB5C4B3CBBFCDA3ACC7EBD4DAB945
:10075600E2B4EFA3A8BBE1D5B9D6D0D0C4A3A9CF44
:10076600C2B3B5A1A3000000000000000000000015
:100776000000000000000000000000000000000073
:100786000000000000000000000000000000000063
:100796000000000000000000000000000000000053
:1007A600000000000000000000000000CFC2D2BB25
:1007B600D5BEA3ACCAC7B1BEB4CEC1D0B3B5D6D52B
:1007C600B5E3D5BEA3ACB6C5BCD2C6BAA1A3B3B574
:1007D600C3C5BFAAC6F4B7BDCFF2CEAAD7F3B2E05F
:1007E600A1A3C1D0B3B5D4CBD0D0CAB1A3ACC7EB0B
:1007F600D5BECEC8B7F6BAC3A3ACC7EBCEAAD3D084
:10080600D0E8D2AAB5C4B3CBBFCDC8C3D7F9A3AC81
:10081600B6E0D0BBBACFD7F7A1A300000000000016
:1008260000000000000000000000000000000000C2
:1008360000000000000000000000000000000000B2
:1008460000000000000000000000000000000000A2
:100856000000000000000000000000000000000092
:100866000000000000000000000000000000000082
:04087600000000007E
:101952004101F5004101FB004501F6000A14161091
:1042B4009001F5E0B441079001FB7401F022E49011
:0442C40001FBF022E8
:102EF3009001FBE064017003022F86900188E0FEDD
:102F0300A3E0FF24F6F58274013EF583E0FD900112
:102F130082E07003A3E06D703220112FD3EF940091
:102F2300EE648094804024900188E0FEA3E0FF9447
:102F330005EE6480948050137C007DC81209EA7406
:102F4300462FF974003EFA7BFF8035900182E070D2
:102F530004A3E06405702C301129900188E0FEA3DE
:102F6300E0FFD39400EE648094804017EF9405EE65
:102F730064809480500D7BFF7A04792E7D647C00FD
:042F8300123EFF22D9
:04003E0000A8C00056
:0E1962004401E3000000004401E80000000022
:10000E00123242122EF3123707123B2212108412B2
:05001E003D2A023589B6
:03447A000240ED10
:103CEE003F065B4F666D7D077F6F000840014148C0
:103CFE00BF86DBCFE6EDFD87FFEF777C395E79710E
:103D0E003D7606383F736D3E6E5F7C585E7B716FFD
:0C3D1E00741038545C7367506D781C6E94
:08197000410206FF41020700DD
:10430100EFC394004009EFD3946450037F01227FEF
:02431100002288
:10376100E4F50F90020704F090020674FFF0E4F50F
:103771000FAF0F1241D8900121EFF0E0FFE50FFDEF
:103781003395E0FC74A02DF58274013CF583EFF0D4
:10379100EFF46006124301EF7014AF0FEF3395E0C1
:1037A100FE74A02FF58274013EF5837428F0050F95
:0937B100C3E50F6480948440B864
:0137BA0022EC
:103F8400900207E070031237619001E7E0FF1241ED
:103F9400D8900120EFF0F46008E0FF124301EF70C5
:093FA400037F2822900120E0FFB8
:013FAD0022F1
:103F59008F0E900207E07003123761AF0E12430112
:103F6900EF70037FFF229001E7E0FFAD0E12428A56
:0B3F79009001E7E0900206F07F0022BC
:023D66008F0DBF
:103D6800900207E07003123761AF0D124301EF7044
:103D7800057EFF7FFF22123F8490011FEFF0B50DF3
:103D880004E4FEFF22AF0D123F59EF7005FE7F01DC
:063D980080047EFF7FFFA6
:013D9E002202
:064468002C00425350003D
:101978006032006E0000000000000000000000005F
:10198800000000000000000000000000000000004F
:10199800000000000000000000000000000000003F
:1019A800000000000000603200A0000000000000FD
:1019B800000000000000000000000000000000001F
:1019C800000000000000000000000000000000000F
:1019D8000000000000000000000000004100D500E9
:0619E8004300D2425350FF
:103E08007B017A00796E7D0A124210AE02AF018FF3
:103E1800828E83EF4E6014E4F09000D57402F07B3C
:103E2800017A00796E1213360242759000D5740338
:013E3800F099
:013E39002266
:10386C007F007EC27D017C001234377E007F327D6A
:10387C00007B017A00796E120D627E007F327D0032
:10388C007B017A0079A0120D627BFF7A3E79087F6A
:10389C0009123342750D01750E00750FD2751000AB
:1038AC007511037B017A00796E7D327C00123ECE5D
:0638BC00E49000D5F022AB
:104275007E007F327D007B017A00796E120D62E44B
:054285009000D5F022BD
:0B43FB009000D5E0B4030312427522CD
:061336008B088A09890AF8
:10133C00E4900108F0A3F0AE02AF01EF4E6007128B
:10134C00429FEF4E700302151378D67C007D01ABE3
:10135C0008AA09A90A120D457510FF7511447512DA
:10136C00687B017A0079D60214F4E50C450B700306
:10137C00021502900108E0FEA3E0FFC3940DEE6499
:10138C008094804003021502EE60030214D7EF1420
:10139C00B40C0040030214D79013B275F003A4C52B
:1013AC008325F0C583730213D60213E40213F202F1
:1013BC00140002140E02141C02143002144B0214FA
:1013CC00620214790214980214B7AA0BA90C7B01BF
:1013DC0012288190010A8044AA0BA90C7B011228C7
:1013EC008190010C8036AA0BA90C7B0112288190EC
:1013FC00010E8028AA0BA90C7B01122881900110E8
:10140C00801AAA0BA90C7B01122881900112800C66
:10141C00AA0BA90C7B01122881900114EEF0A3EF0A
:10142C00F00214D7AA0BA90C7B0112288190011889
:10143C00EFF0D3940150030214D7E4F00214D7AAAE
:10144C000BA90C7B01122881900116EFF0D39401AB
:10145C004079E4F08075AA0BA90C7B0112288190CD
:10146C000117EFF0D394014062E4F0805EAA0BA95F
:10147C000C7B01122881900119EEF0A3EFF0D394AC
:10148C0017EE94004045E4900119803CAA0BA90C7E
:10149C007B0112288190011BEEF0A3EFF0D3943B5B
:1014AC00EE94004026E490011B801DAA0BA90C7B36
:1014BC000112288190011DEEF0A3EFF0D3943BEEC6
:1014CC0094004007E490011DF0A3F0900109E004A2
:1014DC00F07006900108E004F07510FF751144756A
:1014EC0012687B007A0079001232C2AE02AF018E14
:1014FC000B8F0C021376C3900109E0940D90010838
:10150C00E06480948050057EFF7FFF229001E7E02D
:10151C00FD3395E0FC74A02DF58274013CF583E05D
:10152C00FF90010EE0FAA3E0FB6F7001EA6011AFCF
:10153C000374A02DF58274013CF583EFF0123D6627
:10154C009001E7E0FF3395E0FE74022FF582740200
:10155C003EF583E0FD900110E0FAA3E0FB6D700115
:10156C00EA600F74022FF58274023EF583EBF012E1
:10157C002D1A900116E0FF9001E7E0FD3395E0FC99
:10158C0074E32DF58274013CF583EFF0900117E0C4
:10159C00FF74E82DF58274013CF583EFF09001198E
:1015AC00E0FFA3E0900200CFF0A3EFF090011BE06E
:1015BC00FFA3E09001FECFF0A3EFF090011DE0FF40
:0D15CC00A3E09001FCCFF0A3EFF0E4FEFFE0
:0115D90022EF
:10233D00E0FEA3E0FF9000D6E0FCA3E024A0F9743A
:05234D00003CFA7B01D9
:062352008B088A09890ACC
:10235800E49000DAF0A3F0A3EEF0A3EFF0E490002D
:10236800E8F0A3F0EF4E701774301209B6AB08AA64
:1023780009A90A900001E41209C87E007F0122D34E
:102388009000DDE094009000DCE094004053900061
:10239800E9E0940A9000E8E064809480504390005B
:1023A800DCE0FAA3E0FB7C007D0AFFAE021209FC28
:1023B800ED2430FF9000E8E475F001120A9DFC74EA
:1023C800DE25F0F58274003CF583EFF07C007D0A91
:1023D800AF03AE021209FC9000DCEEF0A3EFF08030
:1023E8009E9000E9E024FFFE9000E8E034FF9000B2
:1023F800D8F0A3CEF09000D8E0FEA3E0FFC3EE64CF
:10240800809480403574DE2FF58274003EF583E0B9
:10241800FFAB08AA09A90A9000DAE475F001120ACC
:102428009D85F082F583EF1209C89000D9E024FF5A
:10243800F09000D8E034FFF080BBAB08AA09A90AE5
:102448009000DAE0FEA3E0FFF5828E83E41209C86B
:012458002261
:10108400E49000D6F0A3F0124411BF01037F0322C1
:101094007E007F327D007B017A0079A0120D627898
:1010A400A07C007D017BFF7A44796A120D457B01A7
:1010B4007A0079A012429F9000D6EEF0A3EFF09050
:1010C40000D6E475F001120A9DFE74A025F0F582A5
:1010D40074003EF583742CF09001E7E0FF3395E053
:1010E400FE1223429000D7E02FF09000D6E03EF0AD
:1010F400E475F001120A9DFE74A025F0F5827400D7
:101104003EF583742CF090019412233D9000D7E0B7
:101114002FF09000D6E03EF0E475F001120A9DFE37
:1011240074A025F0F58274003EF583742CF09001D0
:10113400E7E0FF3395E0FE74A02FF58274013EF5DD
:1011440083E0FF7E001223429000D7E02FF090004E
:10115400D6E03EF0E475F001120A9DFE74A025F07D
:10116400F58274003EF583742CF09001E7E0FF33C0
:1011740095E0FE74022FF58274023EF583E0FF7E53
:10118400001223429000D7E02FF09000D6E03EF00A
:10119400E475F001120A9DFE74A025F0F582740036
:1011A4003EF583742CF090018412233D9000D7E027
:1011B4002FF09000D6E03EF0E475F001120A9DFE97
:1011C40074A025F0F58274003EF583742CF0900130
:1011D4008012233D9000D7E02FF09000D6E03EF03F
:1011E400E475F001120A9DFE74A025F0F5827400E6
:1011F4003EF583742CF0A211E4FE331223419000D7
:10120400D7E02FF09000D6E03EF0E475F001120A2A
:101214009DFE74A025F0F58274003EF583742CF0D5
:101224009001E7E0FF3395E0FE74E32FF58274014B
:101234003EF583E0FF7E001223429000D7E02FF0BA
:101244009000D6E03EF0E475F001120A9DFE74A011
:1012540025F0F58274003EF583742CF09001E7E0EC
:10126400FF3395E0FE74E82FF58274013EF583E0C8
:10127400FF7E001223429000D7E02FF09000D6E0CA
:101284003EF0E475F001120A9DFE74A025F0F5828B
:1012940074003EF583742CF090020012233D9000FC
:1012A400D7E02FF09000D6E03EF0E475F001120A8A
:1012B4009DFE74A025F0F58274003EF583742CF035
:1012C4009001FE12233D9000D7E02FF09000D6E06D
:1012D4003EF0E475F001120A9DFE74A025F0F5823B
:1012E40074003EF583742CF09001FC12233D9000B1
:1012F400D7E02FF09000D6E03EF0E475F001120A3A
:101304009DFE74A025F0F58274003EF583740AF006
:10131400C39000D7E094329000D6E064809480407B
:10132400037F03227B017A0079A07D327C00124086
:01133400A018
:011335002295
:0319EE00013500C0
:103BEF00E535703D75360375379675380A753901A9
:103BFF00753A01F53B78087C00FDFB7A007936FEBB
:103C0F007F0612094A1240C8780E7C007D007B00A7
:103C1F007A0079367E007F0612094A12271675350B
:023C2F00012270
:103D2A009001E7E0FF3395E0FE74A02FF58274015D
:103D3A003EF583E0FFD3900195E09F7480F89001EF
:103D4A0094E0648098400B750B0AE4FB7D0A7F328D
:0C3D5A008006E4F50BFBFDFF12301A227E
:1019F100025004004101C2004A01C4040004000471
:091A010000040004004101C300CF
:103522007F03123D9F1242479001E7E0FF3395E08F
:10353200FE74E32FF58274013EF583E4F0FF123E40
:103542003AEF700A7B387AFF7D64FF12292F75509B
:1035520004755100E49001C2F0900209F090020952
:10356200E0FFC39405501AEF25E024C4F582E43449
:1035720001F5837404F0A3E4F0900209E004F08002
:06358200DCE49001C3F03F
:013588002220
:102BD100E4F51E1238C28E1C8F1D9001C3E0FF2543
:102BE100E024C4F582E43401F583E51CF0A3E51D7E
:102BF100F0EF2401FFE433FE7C007D051209FC9017
:102C010001C3EDF07F01EF25E024C4F582E4340136
:102C1100F583E0FCA3E0FD9001C4E0FAA3E0FBED45
:102C21006B7002EC6A6005751E0180040FBF05D64A
:102C3100C3E51C940440028028E51E702DE51D4566
:102C41001C601EE51DF47004E51C64036013AE1CDA
:102C5100AF1DE4FCFD7BFF7AFFF9F8C3120BFB709B
:102C610009E49001C2F07E04FF229001C27401F0D8
:042C7100AE1CAF1DC9
:012C7500223C
:102DBD001244628F52122BD18E508F5120112490BC
:102DCD0001E7E0FF3395E0FE74E32FF58274013ED9
:102DDD00F583E0B4010D124050E552B401057F03B7
:102DED00123FD89001C2E0603DC3E551940AE55011
:102DFD00648094805030E5517004E5506404602681
:102E0D009001E7E0FF3395E0FE74E32FF582740146
:102E1D003EF583E0701030110D123FAEE552B40354
:102E2D00057F01123FD89001C2E06025201122D309
:102E3D00E5519405E550648094805015E55170047A
:102E4D00E5506404600B7D2C7C017F207E031233E2
:012E5D00BFB5
:012E5E002251
:103FAE00E4FF123E3AEF70219001E7E0FF3395E017
:103FBE00FE74E32FF58274013EF5837401F07BC825
:0A3FCE007A007D64E4FF12292F221F
:10405000E4FF123E3AEF701F9001E7E0FF3395E076
:10406000FE74E32FF58274013EF583E4F07B387A29
:08407000FF7D64FF12292F22DD
:05002600E4FF023A4D69
:0E43CA00E4FF123E3AEF70037F01227F0022D3
:06446E009001C2E0FF22F4
:0B4406007F101241D89001E7EFF02278
:104324008F53AD537F1012428A9001E7E553F02278
:104334002110231025102620251023102120313090
:103B22001244628F089001E7E0FF3395E0FE74E3F0
:103B32002FF58274013EF583E06009E508B40304C1
:103B42007F01801D9001E7E0FF3395E0FE74E32FD3
:103B5200F58274013EF583E0700AE508B401057F41
:043B620003123FD833
:013B6600223C
:10425F007BFF7A437934750D00750E10750FF07D65
:06426F00FA7F87023814FB
:103589009001FDE004F070069001FCE004F0C390A6
:1035990001FDE0943C9001FCE094004046E4F0A376
:1035A900F09001FFE004F070069001FEE004F0C322
:1035B9009001FFE0943C9001FEE094004025E4F086
:1035C900A3F0900201E004F07006900200E004F01C
:1035D900C3900201E09418900200E094004004E4D2
:0435E900F0A3F02239
:1034AE00900200E0FEA3E0FF7C007D0A1209FCAB57
:1034BE00079001FEE0FEA3E0FF7C007D0A1209FCEE
:1034CE00AA079001FCE0FEA3E0FF7C007D0A120932
:1034DE00FC8F0E8A0B900200E0FEA3E0FF7C007DC5
:1034EE000A1209FCC0059001FEE0FEA3E0FF7C007D
:1034FE007D0A1209FC8D0C750D0C9001FCE0FEA3EB
:10350E00E0FF7C007D0A1209FC8D0FAF03D0057B16
:04351E000C02417BDF
:101A0A005501410000000000000000000000000035
:0C1A1A000000000000000000410140003E
:0215DA001555A5
:1015DC00A855E4F6A855E6FFC36480948340030243
:1015EC00184BEF3395E0FE90014175F007EF120CAC
:1015FC0067EE75F007A42583F583E0FCA3E04C703F
:10160C000302184590014375F007EF120C67EE7555
:10161C00F007A42583F583E0FEA3E04E70030218C7
:10162C0045E6FFFD3395E0FC90014575F007ED12A2
:10163C000C67EC75F007A42583F58374FFF5F012A5
:10164C000A8745F0600302184590014375F007EDD9
:10165C00120C67EC75F007A42583F583E0FAA3E080
:10166C00FB90014575F007ED120C67EC75F007A4C3
:10167C002583F583EAF0A3EBF0EF3395E0FE9001C0
:10168C004175F007EF120C67EE75F007A42583F592
:10169C0083E0FCA3E0D39400EC648094804056A8D3
:1016AC0055E6FD3395E0FC90014175F007ED120C09
:1016BC0067EC75F007A42583F58374FFF5F0120A27
:1016CC008790014775F007ED120C67EC75F007A4D5
:1016DC002583F583E004F0D36480948340729001F9
:1016EC004775F007EF120C67EE75F007A42583F52C
:1016FC0083E4F0805BA855E6FFFD3395E0FC900198
:10170C004175F007ED120C67EC75F007A42583F515
:10171C0083E475F001120A8790014775F007ED120A
:10172C000C67EC75F007A42583F583E014F0C36413
:10173C00809480501BEF3395E0FE90014775F007C5
:10174C00EF120C67EE75F007A42583F5837403F094
:10175C00A855E6FFFD3395E0FC90014775F007EDC9
:10176C00120C67EC75F007A42583F583E014603C3C
:10177C001460661470030218122403600302183DEF
:10178C00EF1460101460192402600302183DD2C1DA
:10179C00C2C28029900140E054F04401F002183D8F
:1017AC00900140E0540F4410F002183DA855E61487
:1017BC00601114601924027078C2C1D2C2C2C3C2B3
:1017CC00C4806E900140E054F04402F080639001BC
:1017DC0040E0540F4420F08058A855E614601114D2
:1017EC0060192402704BC2C1C2C2D2C3C2C48041B0
:1017FC00900140E054F04404F08036900140E054F5
:10180C000F4440F0802BA855E61460111460192485
:10181C0002701EC2C1C2C2C2C3D2C48014900140A5
:10182C00E054F04408F08009900140E0540F4480EB
:0F183C00F0900140E0FF124456A855060215E057
:03184B000555221E
:1042470053B3E143B41E53C0E190005474FFF0A38D
:084257007415F0A374DAF022E3
:10292F008F54EF3395E0FE90014175F007EF120CD5
:10293F0067EE75F007A42583F583E0FEA3E04E60F4
:10294F00030229D7E554600A64016006E554640266
:10295F007076ED60737C007E037FE81209FCAD5446
:10296F00ED3395E0FC90014375F007ED120C67EC29
:10297F0075F007A42583F583EEF0A3EFF0900143E4
:10298F0075F007ED120C67EC75F007A42583F5833E
:10299F00E0FEA3E0FF90014575F007ED120C67EC28
:1029AF0075F007A42583F583EEF0A3EFF0900141B6
:1029BF0075F007ED120C67EC75F007A42583F5830E
:0B29CF00EAF0A3EBF07F02227F03225E
:103A4D00EF600764016003BF023AEFFD3395E0FCC0
:103A5D0090014175F007ED120C67EC75F007A42588
:103A6D0083F583E0FAA3E0FB90014175F007ED12B9
:103A7D000C67EC75F007A42583F583E4F0A3F0AE95
:073A8D0002AF0322E4FEFF7B
:013A9400220F
:103E3A00EF600764016003BF0225EF3395E0FE904F
:103E4A00014175F007EF120C67EE75F007A42583A0
:103E5A00F583E0FEA3E04E60037F01227F00227F0C
:023E6A00032231
:10434400D2C0000000D2CD000000C2C00000002294
:0D002E00C2C0000000D2CD000000D2C022F0
:0B41110012413512411CAF0512413570
:10411C00E4FFD2CD30C009EFC394FF50030F80F4FD
:08412C00000000C2CD000000FC
:014134002268
:10413500E4FEEF25E0FFC2CD00000092C0000000C4
:10414500D2CD0000000EBE08E9C2CD000000D2C0ED
:0341550000000067
:014158002244
:10415900C2CD000000D2C000E4FED2CD0000EF25A0
:10416900E0FDA2C0E4334DFF0000C2CD000EBE0841
:01417900E95C
:01417A002222
:10428A00AC071243447FA012413512411CAF0412FD
:05429A00411102002E9D
:0241D800AD0731
:1041DA001243447FA01241111243447FA112413578
:0941EA0012411C12415912002E71
:0141F30022A9
:0B1A26004801ECD4111A50400288A5C2
:0942C8007F031242D1D2C57F032D
:0A42D100AE071FEE60030080F72225
:1042DB00D2A71242C8C2A77F031242D1C2C57F0325
:0342EB000242D1BB
:0C43E400C2A71242C8D2A77F030242D138
:1041F400E4FFD2C530A709EFC394FA50030F80F44B
:0C4204007F031242D1C2C57F030242D1E9
:02407800AD0792
:10407A00E4FBC2C57F031242D1ED3392A7ED25E0DE
:10408A00FD1242C80BBB08EAC2C57F031242D1D255
:06409A00C57F030242D1C4
:023B67001555F2
:103B69009001F4E0640170371242DB7F2012407843
:103B79001241F4A855E4F6A855E6FFC39408501776
:103B890074EC2FF582E43401F583E0FF12407812DA
:0F3B990041F4A8550680E01243E4E49001F4F0F3
:033BA8000555229E
:1036AB009001EEE025E025E0FFA3E0C413135403E3
:1036BB002F2466F515E43403F5149001F3E0540F51
:1036CB00F5169001F1E0543FFF5403FEBE03057560
:1036DB0017FF8003E4F517EF540CFEBE0C057518AD
:1036EB00FF8003E4F518EF5430FFBF30057519FF69
:0B36FB008003E4F5197B007A007914CD
:0137060022A0
:10271600D3E50F9438E50E940450047F0180027FC0
:1027260000C3E50F9466E50E940340047E01800223
:102736007E00EE5F60301236AB120AB3650F70048E
:10274600E5F0650E6020E50F249AFD1313543F90C3
:1027560001EEF0ED5403FFC4333354C04410A3F02C
:102766009001F47401F01236ABE92402F9E43AFA66
:10277600120970651060047F0180027F00E510D3A6
:10278600940F50047E0180027E00EE5F6011E5101A
:10279600540FFF9001F3E054F04FF0A37401F07D65
:1027A6002AE5116003430501E5126003430504E5CC
:1027B6001360034305109001F1E06D6008EDF090A1
:0527C60001F47401F0B4
:0127CB0022EB
:1040C800780E7C007D007B007A0079087E007F06F0
:1040D80012094A12271690005774FFF0A3743BF098
:0540E800A37467F02243
:10301A008B0AAA077C007E037FE81209FC9001D57F
:10302A00EEF0A3EFF0E50BFD7C007E037FE81209CA
:10303A00FCA3EEF0A3EFF0AF02AB07E4FAF9F890C5
:10304A0001D5E0FEA3E0FFE4FCFD120ADEEF243224
:10305A00FFE43EFEE43DFDE43CFCE47B64FAF9F85F
:10306A00123BAB9001CFEEF0A3EFF0AF0AAB07E44F
:10307A00FAF9F89001D7E0FEA3E0FFE4FCFD120A9A
:10308A00DEEF2432FFE43EFEE43DFDE43CFCE47B5B
:10309A0064FAF9F8123BAB9001D1EEF0A3EFF022FB
:1037BB00E4F545F544F543F542F546D291AF45AEF8
:1037CB0044AD43AC427801120C388F458E448D4387
:1037DB008C4200C291309015E4FAF9F8EF2401F510
:1037EB0045EA3EF544E93DF543E83CF5420546E53F
:1037FB0046B418C700D2910000C291AF45AE44AD9C
:08380B0043AC427808120C24C2
:013813002292
:094440009001D3E0FEA3E0FF228D
:0F4354009001D3E0FEA3E0FFE49001D3F0A3F0CB
:014363002237
:10262F009001CEE0700F309001221237BB9001D392
:10263F00EEF0A3EFF09001CEE0FF64017062053D74
:10264F00E53D7002053CFDD39001D6E09D9001D58C
:10265F00E0953C5005E4F53CF53DD39001D0E09575
:10266F003D9001CFE0953C4004D2908002C290058E
:10267F003FE53F7002053EFDD39001D8E09D9001EC
:10268F00D7E0953E5005E4F53EF53FD39001D2E0FB
:10269F00953F9001D1E0953E4004D2918002C291C6
:1026AF00EF6402703E2090047F0180027F00E540BE
:1026BF0060047E0180027E00EE5F602130911090F9
:1026CF0001D4E004F070169001D3E004F0800E9076
:1026DF0001D4E024FFF09001D3E034FFF0A290E4A6
:1026EF0033F5409001CEE0B4031CE5417002D29166
:1026FF00E541B40105C29175DB210541E541C39464
:06270F00C84003E4F5419F
:0127150022A1
:103D9F009001CEEFF07004C2918002D2919001CECB
:103DAF00E0B40310E5A254CFF5A2E4F5D975DB0119
:103DBF00D2DE8003E4F5DB90005D74FFF0A3742680
:063DCF00F0A3742FF022A6
:101A310055016B00000000000000000000000000E4
:081A410000000100000000009C
:03002300021FC4F5
:101FC400C0E0C0F0C083C082C0D075D000C000C0E3
:101FD40001C002C003C004C005C006C00730993B5D
:101FE400C299900170E0FEA3E0FFC390016FE09FEF
:101FF40090016EE09E501F90016BE0FBA3E0FAA3FA
:10200400E0F9A3E475F001120A9D85F082F58312CC
:102014000989F5998005900172E4F0209803022063
:10202400D9C298300B09C20B900178E4F0A3F09068
:102034000176E0FEA3E0FFA3E0FCA3E0FDC39FEC78
:102044009E5077900173E0FBA3E0FAA3E0F98D8240
:102054008C83E5991209C890017EE0FEA3E0FFC3DA
:10206400ED9FEC9E5046900176E0FCA3E0FDEF9DD1
:10207400EE9C503890017BE0FBA3E0FAA3E0F990DA
:102084000178E0FEA3E0FFF5828E83120989FD90BA
:102094000173E0FBA3E0FAA3E0F98F828E831209B7
:1020A400896D600890017874FFF0A3F0900179E0E5
:1020B40004F07006900178E004F0900176E0FEA34D
:1020C400E0FFC3900179E09F900178E09E40069084
:1020D400017A7401F0D007D006D005D004D003D023
:1020E40002D001D000D0D0D082D083D0F0D0E03262
:024382001555CF
:0A43840090017AE0A855F6FFE4F07E
:03438E00055522B0
:103437008F0B8E0A8D098C08759850438E40538EDA
:10344700FE53890FE47B04FAF9F890003E120C4B07
:10345700120B69AB0BAA0AA909A808120B69EFF4AA
:1034670004F58BE47B04FAF9F890003E120C4B123A
:103477000B69AB0BAA0AA909A808120B69C3E49F39
:10348700FFE49EFE74019DFDE49CFC7808120C117C
:103497008F8DC2ABD28ED2AC90004E74FFF0A37466
:0734A70043F0A37482F02240
:103ECE00900173EBF0A3EAF0A3E9F0A3ECF0A3EDFD
:103EDE00F090017EE510F0A3E511F090017BE50D69
:103EEE00F0A3E50EF0A3E50FF0D20BE490017AF00B
:013EFE0022A1
:1040A000900172E0701F90016BEBF0A3EAF0A3E9BE
:1040B000F0E4A3F0A3F0A3ECF0A3EDF0A37401F0FF
:0840C000D2997F02227F032246
:0B441100900172E07002FF227F012288
:030000000230AA21
:0C30AA00787FE4F6D8FD7581550230F106
:10087A00E709F608DFFA8046E709F208DFFA803E60
:10088A0088828C83E709F0A3DFFA8032E309F6084D
:10089A00DFFA8078E309F208DFFA807088828C83B5
:1008AA00E309F0A3DFFA806489828A83E0A3F60869
:1008BA00DFFA805889828A83E0A3F208DFFA804C43
:1008CA0080D280FA80C680D4806980F2803380101A
:1008DA0080A680EA809A80A880DA80E280CA803383
:1008EA0089828A83ECFAE493A3C8C582C8CCC583FB
:1008FA00CCF0A3C8C582C8CCC583CCDFE9DEE780CB
:10090A000D89828A83E493A3F608DFF9ECFAA9F049
:10091A00EDFB2289828A83ECFAE0A3C8C582C8CC9F
:10092A00C583CCF0A3C8C582C8CCC583CCDFEADEB8
:10093A00E880DB89828A83E493A3F208DFF980CC1A
:10094A0088F0EF60010E4E60C388F0ED2402B40413
:10095A000050B9F582EB2402B4040050AF232345BA
:06096A0082239008CA730D
:10097000BB010689828A83E0225002E722BBFE0285
:09098000E32289828A83E49322B8
:10098900BB010CE58229F582E5833AF583E0225023
:1009990006E92582F8E622BBFE06E92582F8E2226D
:0D09A900E58229F582E5833AF583E4932287
:1009B600BB010689828A83F0225002F722BBFE0120
:0209C600F3221A
:1009C800F8BB010DE58229F582E5833AF583E8F065
:1009D800225006E92582C8F622BBFE05E92582C811
:0209E800F222F9
:1009EA00EF8DF0A4A8F0CF8CF0A428CE8DF0A42E21
:0209FA00FE22DB
:1009FC00BC000BBE0029EF8DF084FFADF022E4CCDF
:100A0C00F875F008EF2FFFEE33FEEC33FCEE9DECA7
:100A1C00984005FCEE9DFE0FD5F0E9E4CEFD22EDED
:100A2C00F8F5F0EE8420D21CFEADF075F008EF2F37
:100A3C00FFED33FD4007985006D5F0F222C398FD28
:050A4C000FD5F0EA22C5
:100A5100C2D5EC30E709B2D5E4C39DFDE49CFCEEC0
:100A610030E715B2D5E4C39FFFE49EFE1209FCC333
:100A7100E49DFDE49CFC80031209FC30D507C3E42E
:060A81009FFFE49EFE222F
:100A8700C5F0F8A3E028F0C5F0F8E58215827002FA
:060A97001583E038F02297
:100A9D00A3F8E0C5F025F0F0E5821582700215830C
:060AAD00E0C838F0E82269
:100AB300BB010A89828A83E0F5F0A3E0225006870E
:100AC300F009E71922BBFE07E3F5F009E3192289D0
:0B0AD300828A83E493F5F07401932203
:100ADE00E88FF0A4CC8BF0A42CFCE98EF0A42CFCB7
:100AEE008AF0EDA42CFCEA8EF0A4CDA8F08BF0A435
:100AFE002DCC3825F0FDE98FF0A42CCD35F0FCEB94
:100B0E008EF0A4FEA9F0EB8FF0A4CFC5F02ECD3958
:0F0B1E00FEE43CFCEAA42DCE35F0FDE43CFC22C5
:100B2D0075F008758200EF2FFFEE33FECD33CDCC7F
:100B3D0033CCC58233C5829BED9AEC99E582984002
:100B4D000CF582EE9BFEED9AFDEC99FC0FD5F0D6DF
:100B5D00E4CEFBE4CDFAE4CCF9A88222B800C1B909
:100B6D000059BA002DEC8BF084CFCECDFCE5F0CB47
:100B7D00F97818EF2FFFEE33FEED33FDEC33FCEB80
:100B8D0033FB10D703994004EB99FB0FD8E5E4F93B
:100B9D00FA227818EF2FFFEE33FEED33FDEC33FC28
:100BAD00C933C910D7059BE99A4007EC9BFCE99A1C
:100BBD00F90FD8E0E4C9FAE4CCFB2275F010EF2F61
:100BCD00FFEE33FEED33FDCC33CCC833C810D70761
:100BDD009BEC9AE899400AED9BFDEC9AFCE899F89C
:0E0BED000FD5F0DAE4CDFBE4CCFAE4C8F9222F
:103BAB00C2D5E830E70FB2D5E4C39BFBE49AFAE445
:103BBB0099F9E498F8EC30E717B2D5123BE1120B08
:103BCB0069E4C39BFBE49AFAE499F9E498F880035F
:103BDB00120B6930D50DE4C39FFFE49EFEE49DFDFF
:043BEB00E49CFC2238
:100BFB00EB9FF5F0EA9E42F0E99D42F0EC6480C871
:060C0B0064809845F02210
:100C1100E8600FECC313FCED13FDEE13FEEF13FFC1
:030C2100D8F122E5
:100C2400E86010ECA2E713FCED13FDEE13FEEF13E6
:040C3400FFD8F022D3
:100C3800E8600FEFC333FFEE33FEED33FDEC33FC1A
:030C4800D8F122BE
:100C4B00E493FC740193FD740293FE740393FF22EF
:0C0C5B00ECF0A3EDF0A3EEF0A3EFF0220C
:0C0C6700A42582F582E5F03583F5832298
:060C73008A838982E4730C
:100C7900E709F60870FA8046E709F20870FA803E3B
:100C890088828C83E709F0A370FA807EE309F6086D
:100C990070FA8076E309F20870FA806E88828C8394
:100CA900E309F0A370FA806289828A83E0A3F608D7
:100CB90070FA805689828A83E0A3F20870FA804A22
:100CC90080D280FA80C680D4806580F2803180101D
:100CD90080A680EA809A80A880DA80E280CA803182
:100CE90089828A83ECFAE493A3C8C582C8CCC583F8
:100CF900CCF0A3C8C582C8CCC583CC70E9800D8966
:100D0900828A83E493A3F60870F9ECFAA9F0EDFB63
:100D19002289828A83ECFAE0A3C8C582C8CCC5833C
:100D2900CCF0A3C8C582C8CCC583CC70EA80DD8964
:100D3900828A83E493A3F20870F980CE88F0ED24C7
:100D490002B4040050C4F582EB2402B4040050BA82
:090D59002323458223900CC97389
:10429F00E4FFFE120970600C0FEF70010E09E97058
:0542AF00F20A80EF227D
:10421000E94A4B700122120970FF6D700122EF70A4
:0C42200004FBFAF92209E970ED0A80EABB
:1032C2008B0D8A0E890FE94A4B700985470D854897
:1032D2000E85490FE50F450E450D7002802C8510B5
:1032E20016851117851218AB0DAA0EA90F1235ED0E
:1032F200EF250FF50FEE350EF50EAB0DFAA90F12F5
:103302000970700AF547F548F549FBFAF92285106C
:1033120016851117851218AB0DAA0EA90F12364E7B
:103322008B478A488949EA494B600EE41209B60480
:103332002549F549E43548F548AB0DAA0EA90F22F7
:102881008B0D8A0E890FAB0DAA0EA90F120970FFCD
:102891001242EE500D7401250FF50FE4350EF50EC1
:1028A10080E4D212AB0DAA0EA90F120970FF642B9E
:1028B1006004EFB42D1BAB0D050FE50FAA0E7002DE
:1028C100050E14F9120970642D6003D38001C392BF
:1028D10012E4F510F511AB0DAA0EA90F120970FF44
:1028E1001243915036AB0DAA0EA90F120970FF3396
:1028F10095E0FEEF24D0FBEE34FFFAAE10AF117C71
:10290100007D0A1209EAEF2BF511EE3AF510740178
:10291100250FF50FE4350EF50E80BB301206AE1013
:0E292100AF118009C3E49511FFE49510FE226A
:100D6200EF4E6012EF60010EEDBB010B89828A83A8
:100D7200F0A3DFFCDEFA2289F05007F709DFFCA9B5
:0C0D8200F022BBFEFCF309DFFCA9F0220C
:1030B6000231C1E493A3F8E493A34003F68001F23E
:1030C60008DFF48029E493A3F85407240CC8C3331B
:1030D600C4540F4420C8834004F456800146F6DFEA
:1030E600E4800B010204081020408090184EE47E14
:1030F600019360BCA3FF543F30E509541FFEE493DF
:10310600A360010ECF54C025E060A840B8E493A3A5
:10311600FAE493A3F8E493A3C8C582C8CAC583CAD0
:10312600F0A3C8C582C8CAC583CADFE9DEE780BE88
:011A4900009C
:0F439100EFC394304007EF943A50028001C322EB
:1042EE00EFC394094005EF940E4003BF2003D38023
:0342FE0001C322D7
:1035ED008B138A148915E4F519F51AE4FEFFAB1651
:1035FD00AA17A9188F828E83120989FD6013AB1348
:10360D00AA14A9151209706D60070FBF00010E8075
:10361D00DDAB16AA17A9188F828E83120989700245
:10362D00801A051AE51A70020519AB130515E51573
:10363D0070020514F9AA1412097070AFAE19AF1A01
:01364D00225A
:10364E008B138A14891585161985171A85181BABC5
:10365E0019AA1AA91B120970FF6019AB13AA14A993
:10366E00151209706F600D7401251BF51BE4351AD8
:10367E00F51A80DBAB19AA1AA91B1209706007ABE9
:10368E0013AA14A91522AB130515E515AA14700279
:0D369E00051414F912097070ADFBFAF92241
:00000001FF
