:103105007F98123B41123F16123EA5123E277D07BE
:10311500E4FF124189E4F50C7F807E25FDFC122930
:10312500A41235EF1234E5123AAB7F01123A3F1281
:103135003FAE12388A7F011240A812416A750D010F
:10314500750E01750FAAE4F510F5117B017A017969
:10315500AA7D01FC123B727BFF7A4079047F0A123B
:1031650032057BFF7A00790E7F031232057BFF7AE9
:103175002C79FF7F071232051241C712398C80FB6B
:094180008B88898C88898F88895D
:101C0A005200F286860086860086860086860086D0
:091C1A0086008686004100E709FE
:03002B000241BBD4
:0641BB0053BCEFD21132EB
:021DD0001551AB
:101DD200201103021F79C2119000E6E0B40900400D
:101DE20003021F5B901DEDF8282873021E34021EA9
:101DF20008021E1A021E46021E08021E1A021E5D5A
:101E0200021E08021E1AAFBDEFFEADBE7C00E42D1D
:101E1200FFEC3E9000E8803CAFBDEFFEADBE7C0023
:101E2200E42DFFEC3E9000EAF0A3EFF075490102C9
:101E32001F61AFBDEFFEADBE7C00E42DFFEC3E9016
:101E420000EC8010AFBDEFFEADBE7C00E42DFFECD8
:101E52003E9000EEF0A3EFF0021F61AFBDEFFEADCA
:101E6200BE7C00E42DFFEC3E9000F0F0A3EFF0907A
:101E720000F0E0FEA3E07807CEC313CE13D8F9A892
:101E820051F6C394065013A851E675F003A424F248
:101E9200F582E43400F583E014F09000E7E014F0FA
:101EA2006003021F617409F0A851E4F6A851E6FF2D
:101EB200C394064003021F61EF75F003A424F2F5F8
:101EC20082E43400F583E0C39480502AE6FF75F083
:101ED20003A424F3F582E43400F583E0D394804034
:101EE20040EF75F003A424F4F582E43400F5837422
:101EF20001F0F54A802BA851E6FF75F003A424F304
:101F0200F582E43400F583E0C394805014EF75F059
:101F120003A424F4F582E43400F5837402F0754AD4
:101F220001A851E6FF75F003A424F2F582E434001F
:101F3200F583E0FEEF75F003A424F3F582E43400A8
:101F4200F583EEF0E675F003A424F2F582E43400A2
:101F5200F5837486F006021EAE9000E674FFF090E0
:101F620000E6E0D39407400374FFF09000E6E0043B
:071F7200F090418093F5BCE3
:031F7900055122ED
:02410400155153
:09410600A851A64AE4F54AE6FFBF
:03410F0005512235
:02411200155145
:09411400A851A649E4F549E6FFB3
:03411D0005512227
:103B41008F9D75BC88439720D2AD90004574FFF0DE
:103B5100A3741DF0A374D0F0A374FFF0A37441F01B
:103B6100A37404F0A374FFF0A37441F0A37412F0E2
:013B71002231
:070003007B017A0079E8227D
:10377900C3EF64809480403BD3EF648094855033D9
:10378900EFFD3395E0FC9000F475F003ED1210B8ED
:10379900EC75F003A42583F583E0FE9000F475F041
:1037A90003ED1210B8EC75F003A42583F583E4F05A
:0537B900AF06227F03B2
:0137BE0022E8
:043CDA00155115511A
:103CDE00124192A851A60608A607A851E6FE08E6CC
:0F3CEE00FF4E600BEF24FFFFEE34FFFE12419BF1
:053CFD000551055122F4
:103E270053B1EF43B2101241D6E4F5D975DA49D24E
:103E3700DE90003F74FFF0A3743CF0A374DAF02225
:083282008E1C8F1D8C1E8D1F98
:10328A00124192EF4E7066AF1FAE1E12419BC3E50C
:10329A001D940AE51C9400404BE47B18FAF9F89057
:1032AA00003E12109C120FC2C006C007AE1CAF1D12
:1032BA00AB07AA06E4F9F8D007D006120FC2AB078B
:1032CA00AA06AFF9EFFEADE97C00E42DFFEC3ECF94
:1032DA002BCF3AAD07FCAF03AE02124087D2D843D8
:0F32EA00DA0180061241D653DAFE7F02227F03FB
:0132F90022B2
:0C413C00124192EF4E7002FF227F012220
:10271E00E4F580900179E0FFB40800505F90273215
:10272E00F828287302274A02275002275602275CF0
:10273E0002276202276C022776022780C2A3C2A25A
:10274E008016C2A3C2A2801AC2A3C2A2801EC2A3B6
:10275E00C2A28022C2A3D2A2C2A1C2A08020C2A3C2
:10276E00D2A2C2A1D2A08016C2A3D2A2D2A1C2A0CE
:10277E00800CC2A3D2A2D2A1D2A08002D2A3C3EF58
:10278E00648094885029900179E0FF3395E0FE74BF
:10279E00702FF58274013EF583E0FF3395E0FE74F1
:1027AE00CA2FF58274393EF583E493F580801E902E
:1027BE000179E0FFB408133395E0FE74702FF582B3
:1027CE0074013EF583E0F5808003E4F58090016F9F
:1027DE00E0FF900179E004FEF0D3EF6480F8EE6440
:1027EE0080984014E0D36480948850047408F022DA
:0927FE0090016EE0900179F022D7
:103F1600E4F5937594FF5395F043960F90002A7439
:0B3F2600FFF0A37427F0A3741EF0222C
:0941890090016EEFF0A3EDF022AD
:103E4700900170EFF0A3EDF0A3EBF0A3E50BF0A367
:103E5700E50CF0A3E50DF0A3E50EF0A3E50FF022C6
:0641C100900178EFF022EE
:101C2300014F0049018694940094940094940041D8
:031C330001851E0A
:0221FD0015517A
:1021FF0020B206900186E014F020B306900189E02A
:10220F0014F020970690018CE014F0900185E014F3
:10221F00F0600302231D741EF0A851E4F6A851E6E6
:10222F00FFC364809483400302231DEF3395E0FEC8
:10223F0090018675F003EF1210B8EE75F003A42528
:10224F0083F583E0C39480503990018775F003EFD5
:10225F001210B8EE75F003A42583F583E0D39480B4
:10226F00405AE6FF3395E0FE90018875F003EF12B8
:10227F0010B8EE75F003A42583F5837401F0F54FC4
:10228F00803AA851E6FF3395E0FE90018775F00381
:10229F00EF1210B8EE75F003A42583F583E0C39415
:1022AF0080501990018875F003EF1210B8EE75F099
:1022BF0003A42583F5837402F0754F01A851E6FF3F
:1022CF00FD3395E0FC90018675F003ED1210B8EC2C
:1022DF0075F003A42583F583E0FE90018775F00365
:1022EF00ED1210B8EC75F003A42583F583EEF0EF33
:1022FF003395E0FE90018675F003EF1210B8EE757E
:0E230F00F003A42583F5837494F00602222CBB
:03231D0005512245
:02412000155137
:09412200A851A64FE4F54FE6FF99
:03412B0005512219
:103EA50090003074FFF0A37441F0A37420F09000EB
:0D3EB5002D74FFF0A37421F0A374FDF02222
:10390D00EF600764016003BF0233EFFD3395E0FC08
:10391D0090018875F003ED1210B8EC75F003A42535
:10392D0083F583E0FE90018875F003ED1210B8EC7D
:0F393D0075F003A42583F583E4F0AF06227F0322
:01394C002258
:101C36004100000A4100290A41006D0A04290000FA
:101C46000000012F004600670000FFFF8FFFC10D57
:101C5600C105C108C101C10E60240005FF000AFFCD
:101C6600000AFF000AFF000AFF000AFF000AFF0041
:101C76000AFF000AFF000AFF000AFF000AFF000A27
:101C86006036002AFF000AFF000AFF41D3FF000A60
:101C9600FF41D3FF000AFF41D3FF000AFF000AFFFE
:101CA600000AFF41D3FF41D3FF41D3FF41D3FF00D9
:0A1CB6000AFF000AFF000AFF000AFF
:01000A0022D3
:0341D3007F002248
:10373200438E805389F07BE07A28790178009000EB
:103742003E12109C123803EFF404F58A7BE07A28CB
:103752007901780090003E12109C123803C3E49F56
:10376200FFE49EFE74019DFDE49CFC780812107536
:073772008F8CD28CD2A9223A
:03000B0002369822
:04369800C0E0C0D0FE
:10369C00D5230A75234C300D02052FD20DA20372CF
:1036AC000450361525E5257030852725D207300ABC
:1036BC0017E52860071528438F01801D538FFEC224
:1036CC00B5D53115C20A80110526E526D3940640DE
:0936DC0008C203E52E6002D206CB
:0536E500D0D0D0E0325E
:10364500300E47C20E90003E12109C781012107575
:103655008E088F09900003E0FEA3E0FFE4FCFD7BEC
:1036650019FAF9F8120F37C006C007AE08AF09AB53
:1036750007AA06E4F9F8D007D00612380378031232
:103685001075900065EEF0A3EFF0900065E0FEA3E5
:02369500E0FF54
:013697002210
:09419200900067E0FEA3E0FF22AB
:09419B00900067EEF0A3EFF022A2
:1040870090006BEEF0A3EFF0900069ECF0A3EDF079
:014097002206
:0341D600C2B4224E
:03003B00022BB2E3
:102BB200C0E0C083C082C0D075D000C004C005C0D0
:032BC20006C00743
:102BC50030DF04C2DF807D30DA04C2DA807630D9A6
:102BD5003DC2D9AFFBEFFEADEB7C00E42DFFEC3E33
:102BE50020000E900001F0A3EFF075DB11D20080FC
:102BF50053FE900001E0FCA3E0FDC3EF9DFFEE9CBA
:102C0500A3F0A3EFF075DB00C200D20E803630D8FA
:102C150033C2D8900067E07002A3E06022B2B4909E
:102C25000069E0FEA3E0F5EAEEF5FAA3E0FEA3E015
:102C3500FF90006AE02FF0900069E03EF08005C249
:042C4500B453DAFEAC
:102C4900D007D006D005D004D0D0D082D083D0E030
:012C59003248
:0641C700123732D2AF22D4
:10307A003004047F0180027F00200A047E0180025E
:10308A007E00EE5F6074E530C395245068300236E6
:10309A00752801E530131313541FAB32AA33A93430
:1030AA00F582758300120DE2FFE530540704FEEF46
:1030BA00A806088002C333D8FC30D70575310380CF
:1030CA002F753101802AAB32AA33A93475F002E593
:1030DA0030A4F58285F083120DE2F528E53075F00B
:1030EA0002A429F9EA35F0FA900001120DE2F5314D
:0A30FA000530D20A22C204438F10F1
:0131040022A8
:10263100900000E014F0701F740AF0D20590002998
:10264100E014F07012740AF0D20890006DE014F0FA
:102651007005740AF0D20190002AA3E0FAA3E0F910
:102661001210C490002DA3E0FAA3E0F91210C49057
:102671000039A3E0FAA3E0F91210C4900045A3E0E9
:10268100FAA3E0F91210C4900054A3E0FAA3E0F910
:102691001210C490005DA3E0FAA3E0F91210C490F7
:1026A100004BA3E0FAA3E0F91210C4EF600C900014
:1026B1001DA3E0FAA3E0F91210C490004EA3E0FAC2
:1026C100A3E0F91210C4EF600E900020A3E0FAA37A
:1026D100E0F91210C4D20BE52DD394004016D52D8C
:1026E1003030090C900023A3E0FAA3E0F91210C4E2
:1026F100D20C801D900051A3E0FAA3E0F91210C49E
:10270100EF600E900023A3E0FAA3E0F91210C4D207
:0D2711000C900005A3E0FAA3E0F90210C44B
:102ECB0090003FA3E0FAA3E0F91210C4900042A3D4
:102EDB00E0FAA3E0F91210C4900033A3E0FAA3E0E8
:102EEB00F91210C4900008A3E0FAA3E0F91210C481
:102EFB00900030A3E0FAA3E0F91210C4EF600C903D
:102F0B000011A3E0FAA3E0F91210C4900036A3E07D
:102F1B00FAA3E0F91210C4EF600C900017A3E0FACB
:102F2B00A3E0F91210C4900048A3E0FAA3E0F91251
:102F3B0010C4EF600C90001AA3E0FAA3E0F9121092
:102F4B00C430060EC206900026A3E0FAA3E0F912E5
:032F5B0010C4227D
:10394D0090000BA3E0FAA3E0F91210C490003CA381
:10395D00E0FAA3E0F91210C4EF600C900014A3E09C
:10396D00FAA3E0F91210C4900057A3E0FAA3E0F90E
:0F397D001210C490005AA3E0FAA3E0F90210C49C
:103C3100AF2CAE2BAD2AAC299000601210AC9000D5
:103C410064E52FF0E4F52CF52BF52AF529F52F90F5
:0B3C5100000EA3E0FAA3E0F90210C48B
:10398C00300705C20712307A300D05C20D122631F0
:10399C00300505C205122ECB300805C20812394D70
:1039AC00300105C201123C31E52C2401F52CE43523
:0E39BC002BF52BE4352AF52AE43529F52922CE
:103205008B088A09890AEFB40C005070903218F8BF
:1032150028287302323C02324102324602324B0206
:10322500325002325502325A02325F0232640232A1
:103235006902326E02327390000580359000088075
:103245003090000B802B90000E802690001180217D
:10325500900017801C900014801790001A8012901F
:10326500001D800D900020800890002380039000B1
:0D32750026E508F0A3E509F0A3E50AF02224
:0741AD007B017A007960221A
:102F5E008B44AA077C007E037FE8120E55900181F8
:102F6E00EEF0A3EFF0E545FD7C007E037FE8120E48
:102F7E0055A3EEF0A3EFF0AF02AB07E4FAF9F89029
:102F8E000181E0FEA3E0FFE4FCFD120F37EF2432D7
:102F9E00FFE43EFEE43DFDE43CFCE47B64FAF9F81C
:102FAE0012380390017BEEF0A3EFF0AF44AB07E4D1
:102FBE00FAF9F8900183E0FEA3E0FFE4FCFD120FA6
:102FCE0037EF2432FFE43EFEE43DFDE43CFCE47BBF
:102FDE0064FAF9F812380390017DEEF0A3EFF022B7
:10353F00E4F50BF50AF509F508F50CD291AF0BAED2
:10354F000AAD09AC0878011210898F0B8E0A8D090C
:10355F008C0800C291309015E4FAF9F8EF2401F5C8
:10356F000BEA3EF50AE93DF509E83CF508050CE5DF
:10357F000CB418C700D2910000C291AF0BAE0AADC8
:08358F0009AC08780812107560
:013597002211
:0941A40090017FE0FEA3E0FF2280
:0F40980090017FE0FEA3E0FFE490017FF0A3F032
:0140A70022F6
:1028070090017AE0700F3090012212353F90017FDE
:10281700EEF0A3EFF090017AE0FF64017062053DEE
:10282700E53D7002053CFDD3900182E09D9001815A
:10283700E0953C5005E4F53CF53DD390017CE095EF
:102847003D90017BE0953C4004D2908002C2900508
:102857003FE53F7002053EFDD3900184E09D900166
:1028670083E0953E5005E4F53EF53FD390017EE0C9
:10287700953F90017DE0953E4004D2918002C29140
:10288700EF6402703E2090047F0180027F00E540E4
:1028970060047E0180027E00EE5F6021309110901F
:1028A7000180E004F0701690017FE004F0800E9044
:1028B7000180E024FFF090017FE034FFF0A290E474
:1028C70033F54090017AE0B4031CE5417002D291E0
:1028D700E541B40105C29175DB210541E541C3948A
:0628E700C84003E4F541C6
:0128ED0022C8
:103A3F0090017AEFF07004C2918002D29190017AD6
:103A4F00E0B40310E5A254CFF5A2E4F5D975DB017C
:103A5F00D2DE8003E4F5DB90005D74FFF0A37428E1
:063A6F00F0A37407F02231
:101CC000550132000000000000000000000000008C
:081CD00000000100000000000B
:03004300021A3866
:101A3800C0E0C0F0C083C082C0D075D000C000C074
:101A480001C002C003C004C005C006C007E59A3043
:101A5800E142539AFD900137E0FEA3E0FFC39001F5
:101A680036E09F900135E09E501F900132E0FBA3C5
:101A7800E0FAA3E0F9A3E475F001120EF685F0820E
:101A8800F583120DE2F59B800B900139E4F0E54CEB
:101A98006002C2B7E59A20E003021BEF539AFE30BA
:101AA8000C0BC20C90013FE4F0A3F0D209E54C64A2
:101AB800026003021B4990013DE0FEA3E0FFA3E0A2
:101AC800FCA3E0FDC39FEC9E507190013AE0FBA39C
:101AD800E0FAA3E0F98D828C83E59B120E21900138
:101AE80045E0FEA3E0FFC3ED9FEC9E504090013D12
:101AF800E0FCA3E0FDEF9DEE9C5032900142E0FB3C
:101B0800A3E0FAA3E0F990013FE0FEA3E0FFF5822D
:101B18008E83120DE2FD90013AE0FBA3E0FAA3E008
:101B2800F98F828E83120DE26D6002C20990014026
:101B3800E004F0700690013FE004F0854B2D021B95
:101B4800EF90013DE0FEA3E0FFA3E0FCA3E0FDC3AE
:101B58009FEC9E507790013AE0FBA3E0FAA3E0F9EE
:101B68008D828C83E59B120E21900145E0FEA3E057
:101B7800FFC3ED9FEC9E504690013DE0FCA3E0FDC5
:101B8800EF9DEE9C5038900142E0FBA3E0FAA3E001
:101B9800F990013FE0FEA3E0FFF5828E83120DE28B
:101BA800FD90013AE0FBA3E0FAA3E0F98F828E836F
:101BB800120DE26D600890013F74FFF0A3F09001F0
:101BC80040E004F0700690013FE004F090013DE031
:101BD800FEA3E0FFC3900140E09F90013FE09E40DC
:101BE800069001417401F0D007D006D005D004D08A
:101BF80003D002D001D000D0D0D082D083D0F0D092
:021C0800E032C8
:0240C800155190
:0A40CA00900141E0A851F6FFE4F078
:0340D40005512271
:01004200229B
:1029A4008F0B8E0A8D098C08850C4CE54C700280C7
:1029B4000343BA01E54C701790005D74FFF0A374F3
:1029C40000F0A37442F0E4F5DBD290D2918020C2EF
:1029D400B7AB0BAA0AA909A808E47F407E9CFDFCBA
:1029E400120FC28F4BE54B7003754B01854B2D7550
:1029F4009A10E47B04FAF9F890003E12109C120F2E
:102A0400C2AB0BAA0AA909A808120FC2EFF404F575
:102A1400D7E47B04FAF9F890003E12109C120FC21E
:102A2400AB0BAA0AA909A808120FC2C3E49FFFE4CA
:102A34009EFE74019DFDE49CFC78081210628FD602
:102A4400438E1443AF0190005174FFF0A37440F01F
:052A5400A374C8F0228C
:103B720090013AEBF0A3EAF0A3E9F0A3ECF0A3ED95
:103B8200F0900145E510F0A3E511F0900142E50D3A
:103B9200F0A3E50EF0A3E50FF0D20CE4900141F0A2
:013BA2002200
:103BD400900139E07026900132EBF0A3EAF0A3E9FA
:103BE400F0E4A3F0A3F0A3ECF0A3EDF0A37401F0D0
:0F3BF400E54C6002D2B7439A027F02227F032280
:0B415400900139E07002FF227F012281
:10165D0000EF00C500AF00A00096008E008700814E
:10166D00007C007800740071006D006B00680065EF
:10167D0000630061005F005D005B005A005800567A
:10168D0000550054005200510050004E004D004CCA
:10169D00004B004A00490048004700460045004401
:1016AD0000430043004200410040003F003F003E28
:1016BD00003D003D003C003B003A003A0039003946
:1016CD00003800370037003600360035003400345E
:1016DD000033003300320032003100310030003071
:1016ED00002F002F002E002E002D002D002C002C81
:1016FD00002B002B002A002A002900290029002890
:10170D00002800270027002600260026002500259A
:10171D0000240024002400230023002200220022A4
:10172D0000210021002000200020001F001F001FAD
:10173D00001E001E001D001D001D001C001C001CB5
:10174D00001B001B001B001A001A001A00190019BB
:10175D0000180018001800170017001700160016C3
:10176D0000160015001500150014001400140013C8
:10177D0000130013001200120012001100110010CE
:10178D0000100010000F000F000F000E000E000ED5
:10179D00000D000D000D000C000C000C000B000BDB
:1017AD00000B000A000A00090009000900080008E2
:1017BD0000080007000700070006000600050005E9
:1017CD0000040004000300030003000200020001F6
:1017DD000001000100000000FFFFFFFFFFFFFFFE03
:1017ED00FFFEFFFDFFFDFFFCFFFCFFFBFFFBFFFA14
:1017FD00FFFAFFF9FFF9FFF8FFF8FFF7FFF7FFF624
:10180D00FFF6FFF5FFF5FFF4FFF3FFF3FFF2FFF235
:10181D00FFF1FFF0FFF0FFEFFFEEFFEDFFEDFFEC4F
:10182D00FFEBFFEAFFE9FFE8FFE7FFE6FFE5FFE477
:10183D00FFE3FFE2FFE0FFDFFFDDFFDCFFDAFFD8B4
:0C184D00FFD5FFD2FFCEFFC9FFC101692B
:071CD80044016828282828B8
:10348B00120003785E7C017D017E007F0A120DA382
:10349B00900162E0FFA3E090016CCFF0A3EFF090FE
:1034AB00016CE0FEA3E07802CEA2E713CE13D8F8AE
:1034BB00F0EE90016CF0A3E025E0FF90016CE0339F
:1034CB00FE745D2FF58274163EF583E493FF740151
:0A34DB009390015CCFF0A3EFF02204
:102E370090015CE0FEA3E0FFC3EE64809480503114
:102E4700C3E49FFFE49EFE7C007D0A120EAA7C006D
:102E57007D0A120EAA8D0E750B0A750C0A750D0CDC
:102E670090015CE0FEA3E0FFC3E49FFFE49EFE80C9
:102E77004090015CE0FEA3E0FF7C007D64120EAA97
:102E87007C007D0A120EAAAB0590015CE0FEA3E070
:102E9700FF7C007D0A120EAA7C007D0A120EAA8D05
:102EA7000E8B0D750B0A750C0A90015CE0FEA3E012
:102EB700FF7C007D0A120EAA8D0F7B0A7D0A7F0A0E
:042EC700123E47224E
:041CDF004101B70008
:102CFF007F051237799000B2EFF07F02123779908B
:102D0F0000B3EFF07F041237799000B4EFF07F013A
:102D1F001237799000B5EFF09000B2E0B4010E9049
:102D2F0001B7E004F0E0D394034002E4F09000B365
:102D3F00E0B4010F9001B7E014F0E0C3940050032A
:102D4F007403F09000B4E0B4011FE538D394004051
:102D5F00181538780E7C007D007B007A0079367E5E
:102D6F00007F06120DA31228EE9000B5E0B4011FEC
:102D7F00E538C3940F50180538780E7C007D007B22
:0F2D8F00007A0079367E007F06120DA31228EE1F
:012D9E002212
:103E87009001B7E014600D14600D14600D240370E9
:0E3E97000C0238CC022E37023847123F31227F
:101CE3004A010A000003F1043607F50600C10F4359
:101CF3000104000000410109014201070000C11075
:103AAB0078087C007D007B017A0179147E007F070A
:103ABB00120DA312243D900193E0900109F0D20F57
:103ACB00E4900115F090011404F0E4900107F0A3C9
:023ADB00F022D7
:10253B0012405190011BEFF0300F030225CD90019B
:10254B0009E0FFC39405507AEF25E0240AF582E4F5
:10255B003401F583E0FFA3E0900107CFF0A3EFF088
:10256B0090011BE0D394004047900107E0FCA3E0EF
:10257B00FDE4120C197466FBFAF97840120A6EC06E
:10258B0004C005C006C00790011BE0FCE4120C1E42
:10259B00A804A905AA06AB07D007D006D005D0041E
:1025AB00120B77120C529000B7EEF0A3EFF0800AEB
:1025BB009000B77404F0A374B0F0900109E004F03C
:1025CB008027200F14900109E0C39405400B900065
:1025DB00B77404F0A374B080089000B7E4F0A37450
:1025EB0014F0E4900107F0A3F09000B7E0FAA3E039
:1025FB00FB7C007D3CFFAE02120E55900115EFF0F7
:10260B007C007D3CAF03AE02120E55900114EDF031
:10261B00780F7C007D007B017A0179147E007F07A7
:06262B00120DA3023F6541
:101F7C001241B478147C017D017E007F07120DA301
:101F8C00900115E075F03CA4FF900114E07C002F4B
:101F9C00FFEC35F0FE9000B2F0A3EFF04E7005B2FE
:101FAC000F02253B300F0302206CD3900108E09404
:101FBC0000900107E09400500302206C20100302F3
:101FCC00206C1240519000B4EFF0FCE4120C1E7423
:101FDC0066FBFAF97840120B77120C529000B5EEB2
:101FEC00F0A3EFF0D3900108E09F900107E09E4032
:101FFC00169000B5E0FEA3E0FF900108E09FF09082
:10200C000107E09EF08007E4900107F0A3F0900038
:10201C00B4E0D394004045900107E0FCA3E0FDE45C
:10202C00120C197466FBFAF97840120A6EC004C0DF
:10203C0005C006C0079000B4E0FCE4120C1EA80416
:10204C00A905AA06AB07D007D006D005D004120B01
:10205C0077120C529000B2EEF0A3EFF0C210800E8B
:10206C009000B3E024FFF09000B2E034FFF0900059
:10207C00B2E0FAA3E0FB7C007D3CFFAE02120E55F1
:10208C00900115EFF07C007D3CAF03AE02120E55B3
:10209C00900114EDF0780F7C007D007B017A0179C2
:1020AC00147E007F07120DA3123F659000B2E0FF73
:1020BC00A3E0900104CFF0A3EFF0A20FE433A3F060
:0120CC0022F1
:1038CC001241B478147C017D017E007F07120DA398
:1038DC00900115E0FF75F00A84F50BEF75F00A8482
:1038EC0085F00C750D0A900114E0FF75F00A84F553
:1038FC000EEF75F00A8485F00F7B0AE4FDFF023EA3
:01390C004773
:103F3100750B0A750C0A750D0A750E0A900106E0DB
:0B3F4100F50F7B0A7D0A7F0A023E4755
:071D03004401B100963237E4
:10405100900193E024B1F582E43401F583E0FF7E21
:0240610000223B
:10384700750B0A750C0A900193E0FF24B1F582E429
:103857003401F583E0FE75F06484F50DEE75F00A2A
:103867008475F00A8485F00E74B12FF582E4340173
:10387700F583E075F00A8485F00F7B0A7D0A7F0ADD
:03388700023E47B7
:1000460000000000000000000000000000000000AA
:10005600000000000000000000000000000000009A
:10006600000000000000000000000000000000008A
:10007600000000000000000000000000000000007A
:10008600000000000000000000000000000000006A
:10009600000000000000000000000000000000005A
:1000A600000000000000000000000000000000004A
:1000B600000000000000000000000000000000003A
:1000C600000000000000000000000000000000002A
:1000D600000000000000000000000000000000001A
:1000E600000000000000000000000000000000000A
:1000F60000000000000000000000000000000000FA
:1001060000000000000000000000000000000000E9
:1001160000000000000000000000000000000000D9
:1001260000000000000000000000000000000000C9
:1001360000000000000000000000000000000000B9
:1001460000000000000000000000000000000000A9
:100156000000000000000000000000000000000099
:10016600000000000000000000000000C6BDD1F441
:10017600A3ACB5BDC1CBA1A3C7EBC7B0CDF9C0E851
:10018600CDD0C2B7B5C4B3CBBFCDD7BCB1B8CFC243
:10019600B3B5A1A3CFC2B3B5CAB1A3ACC7EBD7A2BF
:1001A600D2E2C1D0B3B5D3EBD5BECCA8D6AEBCE4B3
:1001B600B5C4BCE4CFB6A1A3000000000000000057
:1001C6000000000000000000000000000000000029
:1001D6000000000000000000000000000000000019
:1001E6000000000000000000000000000000000009
:1001F60000000000000000000000000000000000F9
:1002060000000000000000000000000000000000E8
:1002160000000000000000000000000000000000D8
:1002260000000000000000000000000000000000C8
:1002360000000000000000000000000000000000B8
:1002460000000000000000000000000000000000A8
:100256000000000000000000000000000000000098
:100266000000000000000000000000000000000088
:100276000000000000000000000000000000000078
:100286000000000000000000000000000000000068
:100296000000000000000000B3A4C9B3BBF0B3B572
:1002A600C4CFD5BEA3ACB5BDC1CBA1A3B1BED5BE8F
:1002B600CEAABBBBB3CBD5BEA3ACBFC9BBBBB3CB6E
:1002C60032BAC5CFDFA1A2B4C5B8A15332CFDFA1E0
:1002D600A3C7EBC7B0CDF9B8DFCCFAC4CFD5BEA162
:1002E600A2B4C5B8A15332CFDFA1A2C0E8CDD0B821
:1002F600DFCBD9C6FBB3B5D5BEB5C4B3CBBFCDD75F
:10030600BCB1B8CFC2B3B5A1A3CFC2B3B5CAB1A36E
:10031600ACC7EBD7A2D2E2C1D0B3B5D3EBD5BECC36
:10032600A8D6AEBCE4B5C4BCE4CFB6A1A300000019
:1003360000000000000000000000000000000000B7
:1003460000000000000000000000000000000000A7
:100356000000000000000000000000000000000097
:100366000000000000000000000000000000000087
:100376000000000000000000000000000000000077
:100386000000000000000000000000000000000067
:100396000000000000000000000000000000000057
:1003A6000000000000000000000000000000000047
:1003B6000000000000000000000000000000000037
:1003C60000000000B9E2B4EFA3A8BBE1D5B9D6D0CE
:1003D600D0C4A3A9A3ACB5BDC1CBA1A3B1BED5BEA4
:1003E600CEAABBBBB3CBD5BEA3ACBFC9BBBBB3CB3D
:1003F60032BAC5CFDFA1A3C7EBC7B0CDF9B3A4C945
:10040600B3B9FABCCABBE1D2E9D6D0D0C4A1A2B373
:10041600A4C9B3B9FABCCABBE1D5B9D6D0D0C4A178
:10042600A2B3A4C9B3B9FABCCABBE1D5B9D0C2B3A9
:10043600C7B5C4B3CBBFCDD7BCB1B8CFC2B3B5A1D6
:10044600A3CFC2B3B5CAB1A3ACC7EBD7A2D2E2C1A0
:10045600D0B3B5D3EBD5BECCA8D6AEBCE4B5C4BC40
:10046600E4CFB6A1A30000000000000000000000D9
:100476000000000000000000000000000000000076
:100486000000000000000000000000000000000066
:100496000000000000000000000000000000000056
:1004A6000000000000000000000000000000000046
:1004B6000000000000000000000000000000000036
:1004C6000000000000000000000000000000000026
:1004D6000000000000000000000000000000000016
:1004E6000000000000000000000000000000000006
:1004F600D6D5B5E3D5BEA3ACB6C5BCD2C6BAA3ACF9
:10050600B5BDC1CBA1A3C7EBC8ABCCE5B3CBBFCDC3
:10051600D0AFB4F8BAC3CBE6C9EDCEEFC6B7D7BCF9
:10052600B1B8CFC2B3B5A1A3CFC2B3B5CAB1A3AC5C
:10053600C7EBD7A2D2E2C1D0B3B5D3EBD5BECCA818
:10054600D6AEBCE4B5C4BCE4CFB6A1A3BBB6D3ADAE
:10055600C4FAD4D9B4CEB3CBD7F8B5D8CCFAC1D077
:10056600B3B5A3ACD4D9BCFBA3A100000000000026
:100576000000000000000000000000000000000075
:100586000000000000000000000000000000000065
:100596000000000000000000000000000000000055
:1005A6000000000000000000000000000000000045
:1005B6000000000000000000000000000000000035
:1005C6000000000000000000000000000000000025
:1005D6000000000000000000000000000000000015
:1005E6000000000000000000000000000000000005
:1005F60000000000000000000000000000000000F5
:1006060000000000000000000000000000000000E4
:10061600000000000000000000000000B3B5C3C5E4
:10062600BCB4BDABB9D8B1D5A3ACBDF7B7C0BCD0CF
:10063600C9CB000000000000000000000000000020
:1006460000000000000000000000000000000000A4
:100656000000000000000000000000000000000094
:100666000000000000000000000000000000000084
:100676000000000000000000000000000000000074
:100686000000000000000000000000000000000064
:100696000000000000000000000000000000000054
:1006A6000000000000000000000000000000000044
:1006B6000000000000000000000000000000000034
:1006C6000000000000000000000000000000000024
:1006D6000000000000000000000000000000000014
:1006E6000000000000000000000000000000000004
:1006F60000000000000000000000000000000000F4
:1007060000000000000000000000000000000000E3
:1007160000000000000000000000000000000000D3
:1007260000000000000000000000000000000000C3
:1007360000000000000000000000000000000000B3
:100746000000000000000000B1BEB4CEC1D0B3B5B9
:10075600BFAACDF9A3ACB6C5BCD2C6BAA1A3CFC2B7
:10076600D2BBD5BEA3ACC6BDD1F4A1A3B3B5C3C598
:10077600BFAAC6F4B7BDCFF2CEAAD7F3B2E0A1A303
:100786000000000000000000000000000000000063
:100796000000000000000000000000000000000053
:1007A6000000000000000000000000000000000043
:1007B6000000000000000000000000000000000033
:1007C6000000000000000000000000000000000023
:1007D6000000000000000000000000000000000013
:1007E6000000000000000000000000000000000003
:1007F60000000000000000000000000000000000F3
:1008060000000000000000000000000000000000E2
:10081600B1BEB4CEC1D0B3B5BFAACDF9A3ACB6C5EF
:10082600BCD2C6BAA1A3CFC2D2BBD5BEA3ACB3A419
:10083600C9B3BBF0B3B5C4CFD5BEA1A3B3B5C3C5C9
:10084600BFAAC6F4B7BDCFF2CEAAD7F3B2E0A1A332
:10085600B8F7CEBBB3CBBFCDC7EBD7A2D2E2A3AC22
:10086600D0E8BBBBB3CB32BAC5CFDFA1A2B4C5B803
:10087600A15332CFDFB5C4B3CBBFCDA3ACC7EBD446
:10088600DAB3A4C9B3BBF0B3B5C4CFD5BECFC2B338
:10089600B5A1A30000000000000000000000000059
:1008A6000000000000000000000000000000000042
:1008B6000000000000000000000000000000000032
:1008C6000000000000000000000000000000000022
:1008D6000000000000000000B1BEB4CEC1D0B3B528
:1008E600BFAACDF9A3ACB6C5BCD2C6BAA1A3CFC226
:1008F600D2BBD5BEA3ACB9E2B4EFA3A8BBE1D5B9D0
:10090600D6D0D0C4A3A9A1A3B3B5C3C5BFAAC6F404
:10091600B7BDCFF2CEAAD7F3B2E0A1A3B8F7CEBB4C
:10092600B3CBBFCDC7EBD7A2D2E2A3ACD0E8BBBB5B
:10093600B3CB32BAC5CFDFB5C4B3CBBFCDA3ACC73B
:10094600EBD4DAB9E2B4EFA3A8BBE1D5B9D6D0D0DF
:10095600C4A3A9CFC2B3B5A1A30000000000000044
:100966000000000000000000000000000000000081
:100976000000000000000000000000000000000071
:100986000000000000000000000000000000000061
:100996000000000000000000000000000000000051
:1009A600CFC2D2BBD5BEA3ACCAC7B1BEB4CEC1D02E
:1009B600B3B5D6D5B5E3D5BEA3ACB6C5BCD2C6BA1B
:1009C600A1A3B3B5C3C5BFAAC6F4B7BDCFF2CEAA1D
:1009D600D7F3B2E0A1A3C1D0B3B5D4CBD0D0CAB1BE
:1009E600A3ACC7EBD5BECEC8B7F6BAC3A3ACC7EBAC
:1009F600CEAAD3D0D0E8D2AAB5C4B3CBBFCDC8C394
:100A0600D7F9A3ACB6E0D0BBBACFD7F7A1A3000005
:100A160000000000000000000000000000000000D0
:100A260000000000000000000000000000000000C0
:100A360000000000000000000000000000000000B0
:100A460000000000000000000000000000000000A0
:100A56000000000000000000000000000000000090
:080A6600000000000000000088
:101D0A004101AA004101B0004501AB0014141414AA
:104004009001AAE0B441079001B07401F022E49059
:0440140001B0F022E5
:102D9F009001B0E064017003022E36900104E0FE52
:102DAF00A3E0FF9000B2EEF0A3EFF0900109E0FD79
:102DBF0024ABF582E43401F583E0B50721E4B506D1
:102DCF001D900106E07017EDFF7E007C017D2C1237
:102DDF000E4374462FF974003EFA7BFF8046900035
:102DEF00B2E07004A3E064057013900106E0B40133
:102DFF000C7BFF7A0679227D647C0080279000B2DD
:102E0F00E07002A3E07020900106E0B40119900178
:102E1F0009E075F0C8A42486F9740635F0FA7BFF33
:072E2F007DC87C00123BD4BA
:012E36002279
:04003E0000A8C00056
:101D1A0044018F00000000440194000000000150BB
:011D2A0000B8
:10000E00121F7C12348B123E87122D9F12359812BE
:05001E00000002145374
:1039CA003F065B4F666D7D077F6F000840014148E7
:1039DA00BF86DBCFE6EDFD87FFEF777C395E797135
:1039EA003D7606383F736D3E6E5F7C585E7B716F25
:0C39FA00741038545C7367506D781C6EBC
:081D2B004101B5FF4101B600C2
:10406300EFC394004009EFD3946450037F01227F90
:02407300002229
:1034E500E4F50F9001B604F09001B574FFF0E4F532
:1034F5000FAF0F123EC29000E5EFF0E0FFE50FFDC4
:103505003395E0FC74682DF58274013CF583EFF08A
:10351500EFF46006124063EF7014AF0FEF3395E0E0
:10352500FE74682FF58274013EF5837428F0050F4B
:09353500C3E50F6480948440B8E2
:01353E00226A
:103C87009001B6E070031234E5900193E0FF123E15
:103C9700C29000E4EFF0F46008E0FF124063EF70B9
:093CA700037F28229000E4E0FFF5
:013CB00022F1
:103C5C008F0E9001B6E070031234E5AF0E12406384
:103C6C00EF70037FFF22900193E0FFAD0E123FDA5D
:0B3C7C00900193E09001B5F07F002262
:023A06008F0D22
:103A08009001B6E070031234E5AF0D124063EF7019
:103A1800057EFF7FFF22123C879000E3EFF0B50D93
:103A280004E4FEFF22AF0D123C5CEF7005FE7F013F
:063A380080047EFF7FFF09
:013A3E002265
:0641CD002C0042535000DB
:101D33006020006E000000000000000000000000B2
:101D43000000000000000000000000000000000090
:101D5300000000006020008E000000000000000072
:101D63000000000000000000000000000000000070
:101D730000000000000000004100B1004300AE423B
:021D83005350BB
:103ADD007B017A00796E7D0A123EFAAE02AF018F3C
:103AED00828E83EF4E6014E4F09000B17402F07B8F
:103AFD00017A00796E121859023FC59000B1740316
:013B0D00F0C7
:013B0E002294
:1035EF007F007EC27D017C001232FA7E007F207D3B
:1035FF00007B017A00796E1211B37E007F207D006F
:10360F007B017A00798E1211B37BFF7A3A79DD7FD5
:10361F0009123205750D01750E00750FAE7510008C
:10362F007511037B017A00796E7D207C00123BA31C
:06363F00E49000B1F0224E
:103FC5007E007F207D007B017A00796E1211B3E4BB
:053FD5009000B1F02294
:0B415F009000B1E0B40303123FC52242
:061859008B088A09890AD0
:10185F00E49000D2F0A3F0AE02AF01EF4E6007129A
:10186F003FEFEF4E70030219C878B27C007D01ABD9
:10187F0008AA09A90A1211967510FF751141751260
:10188F00CD7B017A0079B20219A9E50C450B7003E3
:10189F000219B79000D2E0FEA3E0FFC3940AEE64F2
:1018AF0080948040030219B7EE600302198CEF1485
:1018BF00B40900400302198C9018D575F003A4C524
:1018CF008325F0C583730218F00218FE02190C026B
:1018DF00191A021928021936021949021960021938
:1018EF0077AA0BA90C7B01122A599000D48044AA25
:1018FF000BA90C7B01122A599000D68036AA0BA98E
:10190F000C7B01122A599000D88028AA0BA90C7BB6
:10191F0001122A599000DA801AAA0BA90C7B011226
:10192F002A599000DC800CAA0BA90C7B01122A59B2
:10193F009000DEEEF0A3EFF08043AA0BA90C7B0121
:10194F00122A599000E2EFF0D394014030E4F08076
:10195F002CAA0BA90C7B01122A599000E0EFF0D3AF
:10196F0094014019E4F08015AA0BA90C7B01122AEF
:10197F00599000E1EFF0D394014002E4F09000D3CE
:10198F00E004F070069000D2E004F07510FF7511BE
:10199F00417512CD7B007A007900123185AE02AF0E
:1019AF00018E0B8F0C021899C39000D3E0940A900C
:1019BF0000D2E06480948050057EFF7FFF2290016B
:1019CF0093E0FE2468F582E43401F583E0FD900096
:1019DF00D8E0FAA3E0FB6D7001EA6011AF03746801
:1019EF002EF582E43401F583EFF0123A069000DA17
:1019FF00A3E0FF900193E0FE24B1F582E43401F5FA
:101A0F0083EFF09000E0E0FF748F2EF582E4340155
:101A1F00F583EFF09000E1E0FF74942EF582E4344B
:081A2F0001F583EFF0E4FEFF76
:011A3700228C
:10232000F583E0FF7E009000B2E0FCA3E0248EF98C
:0623300074003CFA7B0181
:062336008B088A09890AE8
:10233C00E49000B6F0A3F0A3EEF0A3EFF0E490006D
:10234C00C4F0A3F0EF4E70177430120E0FAB08AA46
:10235C0009A90A900001E4120E217E007F0122D30C
:10236C009000B9E094009000B8E0940040539000C5
:10237C00C5E0940A9000C4E06480948050439000BF
:10238C00B8E0FAA3E0FB7C007D0AFFAE02120E550A
:10239C00ED2430FF9000C4E475F001120EF6FC74CD
:1023AC00BA25F0F58274003CF583EFF07C007D0AD1
:1023BC00AF03AE02120E559000B8EEF0A3EFF08012
:1023CC009E9000C5E024FFFE9000C4E034FF900016
:1023DC00B4F0A3CEF09000B4E0FEA3E0FFC3EE6433
:1023EC00809480403574BA2FF58274003EF583E0FA
:1023FC00FFAB08AA09A90A9000B6E475F001120E09
:10240C00F685F082F583EF120E219000B5E024FFE3
:10241C00F09000B4E034FFF080BBAB08AA09A90A25
:10242C009000B6E0FEA3E0FFF5828E83E4120E214D
:01243C00227D
:10145300E49000B2F0A3F0124175BF01037F0322B1
:101463007E007F207D007B017A00798E1211B37894
:101473008E7C007D017BFF7A4179CF1211967B012F
:101483007A00798E123FEF9000B2EEF0A3EFF09066
:1014930000B2E475F001120EF6FE748E25F0F582AB
:1014A30074003EF583742CF0900193122322900074
:1014B300B3E02FF09000B2E03EF0E475F001120EBD
:1014C300F6FE748E25F0F58274003EF583742CF0DD
:1014D30090015CE0FEA3E0FF1223269000B3E02F0F
:1014E300F09000B2E03EF0E475F001120EF6FE74E7
:1014F3008E25F0F58274003EF583742CF0900193F1
:10150300E02468F582E434011223209000B3E02F35
:10151300F09000B2E03EF0E475F001120EF6FE74B6
:101523008E25F0F58274003EF583742CF0900193C0
:10153300E024B1F582E434011223209000B3E02FBC
:10154300F09000B2E03EF0E475F001120EF6FE7486
:101553008E25F0F58274003EF583742CF09001150E
:101563001223229000B3E02FF09000B2E03EF0E4AB
:1015730075F001120EF6FE748E25F0F58274003EAE
:10158300F583742CF09001141223229000B3E02F02
:10159300F09000B2E03EF0E475F001120EF6FE7436
:1015A3008E25F0F58274003EF583742CF0A20FE4CF
:1015B300FE33FF1223269000B3E02FF09000B2E039
:1015C3003EF0E475F001120EF6FE748E25F0F582FE
:1015D30074003EF583742CF0900193E0248FF58220
:1015E300E434011223209000B3E02FF09000B2E026
:1015F3003EF0E475F001120EF6FE748E25F0F582CE
:1016030074003EF583742CF0900193E02494F582EA
:10161300E434011223209000B3E02FF09000B2E0F5
:101623003EF0E475F001120EF6FE748E25F0F5829D
:1016330074003EF583740AF0C39000B3E0942090E5
:1016430000B2E06480948040037F03227B017A0030
:09165300798E7D207C00123D2AF5
:01165C00226B
:031D850001350025
:10388A00E535703D75360375379675380A75390111
:10389A00753A01F53B78087C00FDFB7A007936FE23
:1038AA007F06120DA3123D52780E7C007D007B002C
:1038BA007A0079367E007F06120DA31228EE75353E
:0238CA000122D9
:103A7500900193E02468F582E43401F583E0FFD3F7
:103A850090015DE09F7480F890015CE0648098404F
:103A95000B75450AE4FB7D0A7F328006E4F545FB9C
:063AA500FDFF122F5E225E
:041D8800024D000008
:103FAE00123F7E900193E0248FF582E43401F58375
:073FBE00E4F0F54DF54E2281
:0E40D700123645C3EE940440057E047F00229D
:0140E50022B8
:103598001240D78E4D8F4EC3E54E940AE54D9400E8
:1035A8005044E54E7004E54D6404603A900193E0A0
:1035B800248FF582E43401F583E0700A900106E077
:1035C800B40103123DBF900193E0248FF582E434E7
:1035D80001F583E0B4010F900104E07004A3E064F6
:0735E800017003123DE22215
:103DBF007F01123B0FEF701A900193E0248FF58271
:103DCF00E43401F5837401F07BC87A007D64FF123F
:033DDF002B07228D
:103DE2007F01123B0FEF701A900193E0248FF5824E
:103DF200E43401F583E4F07B387AFF7D647F0112BD
:033E02002B072269
:050026007F010236EA33
:0E412E007F01123B0FEF70037F01227F002202
:0B416A007F10124075900193EFF022CF
:1040A8008F08AD087F10123CB1900193E508F0220B
:101D8C0055011D00000000000000000000000000D4
:0C1D9C00000000000000000041011C00DD
:0211DF001551A8
:1011E100A851E4F6A851E6FFC3648094834003024A
:1011F1001450EF3395E0FE90011D75F007EF1210CA
:10120100B8EE75F007A42583F583E0FCA3E04C70EC
:101211000302144A90011F75F007EF1210B8EE7522
:10122100F007A42583F583E0FEA3E04E70030214CA
:101231004AE6FFFD3395E0FC90012175F007ED12C0
:1012410010B8EC75F007A42583F58374FFF5F0124F
:101251000EE045F0600302144A90011F75F007ED9E
:101261001210B8EC75F007A42583F583E0FAA3E02A
:10127100FB90012175F007ED1210B8EC75F007A491
:101281002583F583EAF0A3EBF0EF3395E0FE9001BF
:101291001D75F007EF1210B8EE75F007A42583F560
:1012A10083E0FCA3E0D39400EC648094804056A8D2
:1012B10051E6FD3395E0FC90011D75F007ED12102C
:1012C100B8EC75F007A42583F58374FFF5F0120ED1
:1012D100E090012375F007ED1210B8EC75F007A44A
:1012E1002583F583E004F0D36480948340729001F8
:1012F1002375F007EF1210B8EE75F007A42583F5FA
:1013010083E4F0805BA851E6FFFD3395E0FC90019A
:101311001D75F007ED1210B8EC75F007A42583F5E3
:1013210083E475F001120EE090012375F007ED12D0
:1013310010B8EC75F007A42583F583E014F0C364BD
:10134100809480501BEF3395E0FE90012375F007E8
:10135100EF1210B8EE75F007A42583F5837403F03E
:10136100A851E6FFFD3395E0FC90012375F007EDF0
:101371001210B8EC75F007A42583F583E014603CE6
:1013810014606614700302141724036003021442EC
:10139100EF14601014601924026003021442D2C1D8
:1013A100C2C2802990011CE054F04401F0021442B1
:1013B10090011CE0540F4410F0021442A851E614AD
:1013C100601114601924027078C2C1D2C2C2C3C2B2
:1013D100C4806E90011CE054F04402F080639001DF
:1013E1001CE0540F4420F08058A851E614601114F9
:1013F10060192402704BC2C1C2C2D2C3C2C48041AF
:1014010090011CE054F04404F0803690011CE0543B
:101411000F4440F0802BA851E61460111460192488
:1014210002701EC2C1C2C2C2C3D2C4801490011CC8
:10143100E054F04408F0800990011CE0540F44800E
:0F144100F090011CE0FF1241C1A851060211E515
:0314500005512221
:103F7E0053B3E143B41E53C0E190005474FFF0A359
:083F8E007411F0A374DFF022AE
:102B07008F08EF3395E0FE90011D75F007EF121067
:102B1700B8EE75F007A42583F583E0FEA3E04E60C9
:102B270003022BAFE508600A64016006E50864024A
:102B37007076ED60737C007E037FE8120E55AD085A
:102B4700ED3395E0FC90011F75F007ED1210B8EC1E
:102B570075F007A42583F583EEF0A3EFF090011F2E
:102B670075F007ED1210B8EC75F007A42583F5830F
:102B7700E0FEA3E0FF90012175F007ED1210B8EC1D
:102B870075F007A42583F583EEF0A3EFF090011D00
:102B970075F007ED1210B8EC75F007A42583F583DF
:0B2BA700EAF0A3EBF07F02227F032284
:1036EA00EF600764016003BF023AEFFD3395E0FC27
:1036FA0090011D75F007ED1210B8EC75F007A425BE
:10370A0083F583E0FAA3E0FB90011D75F007ED1243
:10371A0010B8EC75F007A42583F583E4F0A3F0AEA6
:07372A0002AF0322E4FEFFE1
:013731002275
:103B0F00EF600764016003BF0225EF3395E0FE907D
:103B1F00011D75F007EF1210B8EE75F007A425839D
:103B2F00F583E0FEA3E04E60037F01227F00227F3A
:023B3F0003225F
:041DA8004101A00154
:103F4C00C295E4FEEF1392CC000000D29500EFC3B3
:083F5C0013FFC2950EBE08EC34
:013F6400223A
:103F9600E4FEEFC313FF30CC03430780D295000045
:073FA60000C2950EBE08EBFE
:013FAD0022F1
:103C0300F07F85123C16A3EFF07F87123C16A3EFDB
:033C1300F07F89B6
:103C1600C296000000C295000000D29600123F4CEA
:0A3C2600123F96D295000000C296EE
:013C30002271
:033E6700A3E0FDD8
:103E6A00C296000000C295000000D29600123F4C94
:0D3E7A00AF05123F4CD295000000C2962209
:0741B4007B017A01799922D9
:103F650078997C017D017B007A00790F7E007F07BF
:093F7500120DA3E49001A0F0225A
:10407500EFD3941F5009EF25E044C1FF023C167FA2
:02408500012216
:103CB100AC07AB05ECD3941F501CE4FD7F8E123E84
:103CC1006AEC25E044C0FFAD03123E6A7D807F8E21
:093CD100123E6A7F00227F0122ED
:022C5A00155112
:102C5C009001A0E060447F81123C16A851EFF690E1
:102C6C000199E06F7003022CFCA851E6F07F8312EF
:102C7C003C16A851EFF6A3E06F6075A851E6123C24
:102C8C0003A3EFF07F8D123C1690019FEFF07F8B2A
:102C9C00123C1690019EEFF08056900198E0FF04D4
:102CAC00F0EFC3940A4049E4F09001A004F0E4FD75
:102CBC007F8E123E6A900199E0FD7F80123E6A7F02
:102CCC0082123E677F84123E67A3E0FD7F86123E30
:102CDC006AA3E0FD7F88123E6AA3E0FD7F8A123E64
:102CEC006AA3E0FD7F8C123E6A7D807F8E123E6A65
:032CFC000551225D
:10243D007F81123C16900199EFF07F83123C16A319
:10244D00EF123C03A3EFF07F8B123C16A3EFF07F4E
:10245D008D123C16A3EFF0E4FD7F8E123E6A7F1EB7
:10246D00124075EF64A560047F0180027F0090012A
:10247D0099E05480FEA3E0D3945940047D0180027D
:10248D007D00ED4EFE90019BE0D394A440047D01B0
:10249D0080027D00ED4EFE90019CE0D3943140040E
:1024AD007D0180027D00ED4EFE90019DE0D39412E2
:1024BD0040047D0180027D00ED4EFE90019EE0D333
:1024CD00940740047D0180027D00ED4EFE90019F3A
:1024DD00E0D3949940047D0180027D00ED4E4F6064
:1024ED0030780F7C007D007B007A0079087E007FBC
:1024FD0007120DA3123F657DA57F1E123CB1789981
:10250D007C017D017B007A0079087E007F07120D2A
:10251D00A37DA97F90123E6A7D807F8E123E6A90C8
:0E252D00005A74FFF0A3742CF0A3745AF0222D
:1040B800D2C0000000D2CD000000C2C00000002223
:0D002E00C2C0000000D2CD000000D2C022F0
:0B3D7700123D9B123D82AF05123D9BE8
:103D8200E4FFD2CD30C009EFC394FF50030F80F49B
:083D9200000000C2CD0000009A
:013D9A002206
:103D9B00E4FEEF25E0FFC2CD00000092C000000062
:103DAB00D2CD0000000EBE08E9C2CD000000D2C08B
:033DBB0000000005
:013DBE0022E2
:103E0500C2CD000000D2C000E4FED2CD0000EF25F7
:103E1500E0FDA2C0E4334DFF0000C2CD000EBE0898
:013E2500E9B3
:013E26002279
:103FDA00AC071240B87FA0123D9B123D82AF04127B
:053FEA003D7702002EEE
:023EC200AD074A
:103EC4001240B87FA0123D771240B87FA1123D9BEB
:093ED400123D82123E0512002E7F
:013EDD0022C2
:0B1DAC004801A1D4111A50400288A584
:094018007F03124021D2C57F0391
:0A402100AE071FEE60030080F722D7
:10402B00D2A7124018C2A77F03124021C2C57F033B
:03403B000240211F
:0C414800C2A7124018D2A77F030240213A
:103EDE00E4FFD2C530A709EFC394FA50030F80F464
:0C3EEE007F03124021C2C57F0302402167
:023D0200AD070B
:103D0400E4FBC2C57F03124021ED3392A7ED25E009
:103D1400FD1240180BBB08EAC2C57F03124021D232
:063D2400C57F03024021EF
:0237BF001551A2
:1037C1009001A9E06401703712402B7F20123D0265
:1037D100123EDEA851E4F6A851E6FFC39408501743
:1037E10074A12FF582E43401F583E0FF123D02124A
:0F37F1003EDEA8510680E0124148E49001A9F0A5
:033800000551224D
:10342F009001A3E025E025E0FFA3E0C413135403AC
:10343F002F2466F515E43403F5149001A8E0540F1A
:10344F00F5169001A6E0543FFF5403FEBE03057529
:10345F0017FF8003E4F517EF540CFEBE0C0575182B
:10346F00FF8003E4F518EF5430FFBF30057519FFE7
:0B347F008003E4F5197B007A0079144B
:01348A00221F
:1028EE00D3E50F9438E50E940450047F0180027FE7
:1028FE0000C3E50F9466E50E940340047E0180024A
:10290E007E00EE5F603012342F120F0C650F7004D4
:10291E00E5F0650E6020E50F249AFD1313543F90E9
:10292E0001A3F0ED5403FFC4333354C04410A3F09D
:10293E009001A97401F012342FE92402F9E43AFA55
:10294E00120DC9651060047F0180027F00E510D36F
:10295E00940F50047E0180027E00EE5F6011E51040
:10296E00540FFF9001A8E054F04FF0A37401F07DD6
:10297E002AE5116003430501E5126003430504E5F2
:10298E001360034305109001A6E06D6008EDF09012
:05299E0001A97401F025
:0129A3002211
:103D5200780E7C007D007B007A0079087E007F0669
:103D6200120DA31228EE90005774FFF0A37437F0DF
:053D7200A374BFF02264
:101DB700550147000000000000000000000000007F
:081DC700000001000000000013
:030023000220CDEB
:1020CD00C0E0C0F0C083C082C0D075D000C000C0D9
:1020DD0001C002C003C004C005C006C00730993B53
:1020ED00C29990014CE0FEA3E0FFC390014BE09F2D
:1020FD0090014AE09E501F900147E0FBA3E0FAA338
:10210D00E0F9A3E475F001120EF685F082F5831265
:10211D000DE2F599800590014EE4F020980302211F
:10212D00E2C298300B09C20B900154E4F0A3F09079
:10213D000152E0FEA3E0FFA3E0FCA3E0FDC39FEC92
:10214D009E507790014FE0FBA3E0FAA3E0F98D825A
:10215D008C83E599120E2190015AE0FEA3E0FFC396
:10216D00ED9FEC9E5046900152E0FCA3E0FDEF9DEB
:10217D00EE9C5038900157E0FBA3E0FAA3E0F990F4
:10218D000154E0FEA3E0FFF5828E83120DE2FD9077
:10219D00014FE0FBA3E0FAA3E0F98F828E83120DCD
:1021AD00E26D600890015474FFF0A3F0900155E0CA
:1021BD0004F07006900154E004F0900152E0FEA38B
:1021CD00E0FFC3900155E09F900154E09E400690C2
:1021DD0001567401F0D007D006D005D004D003D03D
:1021ED0002D001D000D0D0D082D083D0F0D0E03258
:0240E600155172
:0A40E800900156E0A851F6FFE4F045
:0340F20005512253
:1032FA008F0B8E0A8D098C08759850438E40538E19
:10330A00FE53890FE47B04FAF9F890003E12109CF0
:10331A00120FC2AB0BAA0AA909A808120FC2EFF42E
:10332A0004F58BE47B04FAF9F890003E12109C1223
:10333A000FC2AB0BAA0AA909A808120FC2C3E49FBD
:10334A00FFE49EFE74019DFDE49CFC780812106265
:10335A008F8DC2ABD28ED2AC90004E74FFF0A374A4
:07336A0040F0A374E6F0221D
:103BA30090014FEBF0A3EAF0A3E9F0A3ECF0A3ED4F
:103BB300F090015AE510F0A3E511F0900157E50DDF
:103BC300F0A3E50EF0A3E50FF0D20BE4900156F05D
:013BD30022CF
:103D2A0090014EE0701F900147EBF0A3EAF0A3E97F
:103D3A00F0E4A3F0A3F0A3ECF0A3EDF0A37401F078
:083D4A00D2997F02227F0322BF
:0B41750090014EE07002FF227F01224B
:100A6E00EC4D6011E8497017ED33EC3304600DE482
:100A7E00FCFFFEFD22E933E8330470F8020CBE12CF
:100A8E000C8958046009E4CC2481500628500902D0
:100A9E000CC8284003020CC5C0E0EB4A7044B98074
:100AAE0006D0E0FB020CB4EF4E701CBD8008EBFFCD
:100ABE00EAFEE9FD80EBE98DF0A4FEE5F0020B57AE
:100ACE00E9CDF9EAFEEBFFEF89F0A4FCE5F0CE8963
:100ADE00F0A42EFFE435F0CD89F0A42DFEE435F020
:100AEE008067EF4E7005BD80D780C3EF8BF0A4AC4E
:100AFE00F0EE8BF0A42CFCE435F0F8EF8AF0A42C89
:100B0E00E5F038FCE433CB8DF0A42CFCE5F03BF89B
:100B1E00EE8AF0A42CFCE5F038F8E433CF89F0A48B
:100B2E002CFCE5F038CF3400CE89F0A42FFFE5F091
:100B3E003EFEE433C98DF0A42EFEE5F039CD8AF0E9
:100B4E00A42FFFE5F03EFEE43DFD33D0E0FB500761
:100B5E000BBB000F020CC8EC2CFCEF33FFEE33FE88
:060B6E00ED33FD020CA0B6
:100B7400020CC8EC5D046005E859047003020CBE65
:100B8400120C89580460F6EC4860F2EC7004FDFE27
:100B9400FF22C860DB2481C85009C3986002500654
:100BA400020CC59850CAF582E9294B4A7005AB82FC
:100BB400020CB475F0007C1A7880C3EF9BEE9AEDBA
:100BC40099400DC3EF9BFFEE9AFEED99FDE842F0CC
:100BD400DC23ACF0D0E0FFD0E0FED0E0FDAB82201F
:100BE400E7101BEB60BAEC2CFCEF33FFEE33FEEDA9
:100BF40033FD020CA0E803F830E705C0F075F000FF
:100C0400EF2FFFEE33FEED33FD40B830E7C280AA8C
:100C140075F020800E75F010800575F0087D007E5B
:100C2400007F003392D530D503121054EC334010BA
:100C3400EF33FFEE33FEED33FDEC33FCD5F0ED2264
:0E0C4400E5F0247EA2D513CC92E7CDCEFF22A0
:100C5200EDD2E7CD33EC3392D524814006E4FFFE9A
:100C6200FDFC22FCE4CFCECDCC24E0501174FF80F9
:100C7200EDC3CC13CCCD13CDCE13CECF13CF047096
:070C8200F030D5DE02105432
:100C8900E9D2E7C933E833F892D5EDD2E7CD33ECB1
:070C990033FC5002B2D5222A
:100CA000EC30E7100FBF000C0EBE00080DBD0004B5
:100CB0000BEB6014A2D5EB13FCED92E7FD2274FF61
:100CC000FCFDFEFF22E480F8A2D574FF13FC7D80BA
:030CD000E480EFCE
:03000000022FEEDE
:0C2FEE00787FE4F6D8FD75815102303583
:100CD300E709F608DFFA8046E709F208DFFA803E03
:100CE30088828C83E709F0A3DFFA8032E309F608F0
:100CF300DFFA8078E309F208DFFA807088828C8358
:100D0300E309F0A3DFFA806489828A83E0A3F6080B
:100D1300DFFA805889828A83E0A3F208DFFA804CE5
:100D230080D280FA80C680D4806980F280338010BC
:100D330080A680EA809A80A880DA80E280CA803325
:100D430089828A83ECFAE493A3C8C582C8CCC5839D
:100D5300CCF0A3C8C582C8CCC583CCDFE9DEE7806D
:100D63000D89828A83E493A3F608DFF9ECFAA9F0EC
:100D7300EDFB2289828A83ECFAE0A3C8C582C8CC42
:100D8300C583CCF0A3C8C582C8CCC583CCDFEADE5B
:100D9300E880DB89828A83E493A3F208DFF980CCBD
:100DA30088F0EF60010E4E60C388F0ED2402B404B6
:100DB3000050B9F582EB2402B4040050AF2323455D
:060DC3008223900D237352
:100DC900BB010689828A83E0225002E722BBFE0228
:090DD900E32289828A83E493225B
:100DE200BB010CE58229F582E5833AF583E02250C6
:100DF20006E92582F8E622BBFE06E92582F8E22210
:0D0E0200E58229F582E5833AF583E4932229
:100E0F00BB010689828A83F0225002F722BBFE01C2
:020E1F00F322BC
:100E2100F8BB010DE58229F582E5833AF583E8F007
:100E3100225006E92582C8F622BBFE05E92582C8B3
:020E4100F2229B
:100E4300EF8DF0A4A8F0CF8CF0A428CE8DF0A42EC3
:020E5300FE227D
:100E5500BC000BBE0029EF8DF084FFADF022E4CC81
:100E6500F875F008EF2FFFEE33FEEC33FCEE9DEC4A
:100E7500984005FCEE9DFE0FD5F0E9E4CEFD22ED90
:100E8500F8F5F0EE8420D21CFEADF075F008EF2FDA
:100E9500FFED33FD4007985006D5F0F222C398FDCB
:050EA5000FD5F0EA2268
:100EAA00C2D5EC30E709B2D5E4C39DFDE49CFCEE63
:100EBA0030E715B2D5E4C39FFFE49EFE120E55C378
:100ECA00E49DFDE49CFC8003120E5530D507C3E473
:060EDA009FFFE49EFE22D2
:100EE000C5F0F8A3E028F0C5F0F8E582158270029D
:060EF0001583E038F0223A
:100EF600A3F8E0C5F025F0F0E582158270021583AF
:060F0600E0C838F0E8220B
:100F0C00BB010A89828A83E0F5F0A3E022500687B0
:100F1C00F009E71922BBFE07E3F5F009E319228972
:0B0F2C00828A83E493F5F074019322A5
:100F3700E88FF0A4CC8BF0A42CFCE98EF0A42CFC59
:100F47008AF0EDA42CFCEA8EF0A4CDA8F08BF0A4D7
:100F57002DCC3825F0FDE98FF0A42CCD35F0FCEB36
:100F67008EF0A4FEA9F0EB8FF0A4CFC5F02ECD39FB
:0F0F7700FEE43CFCEAA42DCE35F0FDE43CFC2268
:100F860075F008758200EF2FFFEE33FECD33CDCC22
:100F960033CCC58233C5829BED9AEC99E5829840A5
:100FA6000CF582EE9BFEED9AFDEC99FC0FD5F0D682
:100FB600E4CEFBE4CDFAE4CCF9A88222B800C1B9AC
:100FC6000059BA002DEC8BF084CFCECDFCE5F0CBEA
:100FD600F97818EF2FFFEE33FEED33FDEC33FCEB23
:100FE60033FB10D703994004EB99FB0FD8E5E4F9DE
:100FF600FA227818EF2FFFEE33FEED33FDEC33FCCB
:10100600C933C910D7059BE99A4007EC9BFCE99ABE
:10101600F90FD8E0E4C9FAE4CCFB2275F010EF2F03
:10102600FFEE33FEED33FDCC33CCC833C810D70703
:101036009BEC9AE899400AED9BFDEC9AFCE899F83E
:0E1046000FD5F0DAE4CDFBE4CCFAE4C8F922D1
:10380300C2D5E830E70FB2D5E4C39BFBE49AFAE4F0
:1038130099F9E498F8EC30E717B2D5123839120F5A
:10382300C2E4C39BFBE49AFAE499F9E498F88003B1
:10383300120FC230D50DE4C39FFFE49EFEE49DFD4D
:04384300E49CFC22E3
:0E105400C3E49FFFE49EFEE49DFDE49CFC22AD
:10106200E8600FECC313FCED13FDEE13FEEF13FF6C
:03107200D8F12290
:10107500E86010ECA2E713FCED13FDEE13FEEF1391
:04108500FFD8F0227E
:10108900E8600FEFC333FFEE33FEED33FDEC33FCC5
:03109900D8F12269
:10109C00E493FC740193FD740293FE740393FF229A
:0C10AC00ECF0A3EDF0A3EEF0A3EFF022B7
:0C10B800A42582F582E5F03583F5832243
:0610C4008A838982E473B7
:1010CA00E709F60870FA8046E709F20870FA803EE6
:1010DA0088828C83E709F0A370FA807EE309F60818
:1010EA0070FA8076E309F20870FA806E88828C833F
:1010FA00E309F0A370FA806289828A83E0A3F60882
:10110A0070FA805689828A83E0A3F20870FA804ACC
:10111A0080D280FA80C680D4806580F280318010C7
:10112A0080A680EA809A80A880DA80E280CA80312C
:10113A0089828A83ECFAE493A3C8C582C8CCC583A2
:10114A00CCF0A3C8C582C8CCC583CC70E9800D8910
:10115A00828A83E493A3F60870F9ECFAA9F0EDFB0E
:10116A002289828A83ECFAE0A3C8C582C8CCC583E7
:10117A00CCF0A3C8C582C8CCC583CC70EA80DD890F
:10118A00828A83E493A3F20870F980CE88F0ED2472
:10119A0002B4040050C4F582EB2402B4040050BA2D
:0911AA00232345822390111A73DE
:103FEF00E4FFFE120DC9600C0FEF70010E09E970AE
:053FFF00F20A80EF2230
:103EFA00E94A4B700122120DC9FF6D700122EF7061
:0C3F0A0004FBFAF92209E970ED0A80EAD4
:103185008B0D8A0E890FE94A4B700985460D8547D7
:103195000E85480FE50F450E450D7002802C8510F4
:1031A50016851117851218AB0DAA0EA90F123371CA
:1031B500EF250FF50FEE350EF50EAB0DFAA90F1233
:1031C5000DC9700AF546F547F548FBFAF922851051
:1031D50016851117851218AB0DAA0EA90F1233D239
:1031E5008B468A478948EA494B600EE4120E0F0464
:1031F5002548F548E43547F547AB0DAA0EA90F223A
:102A59008B0D8A0E890FAB0DAA0EA90F120DC9FF96
:102A690012403E500D7401250FF50FE4350EF50E99
:102A790080E4D212AB0DAA0EA90F120DC9FF642B67
:102A89006004EFB42D1BAB0D050FE50FAA0E700204
:102A9900050E14F9120DC9642D6003D38001C39288
:102AA90012E4F510F511AB0DAA0EA90F120DC9FF0D
:102AB9001240F55036AB0DAA0EA90F120DC9FF33FE
:102AC90095E0FEEF24D0FBEE34FFFAAE10AF117C97
:102AD900007D0A120E43EF2BF511EE3AF510740141
:102AE900250FF50FE4350EF50E80BB301206AE103A
:0E2AF900AF118009C3E49511FFE49510FE2291
:1011B300EF4E6012EF60010EEDBB010B89828A8353
:1011C300F0A3DFFCDEFA2289F05007F709DFFCA960
:0C11D300F022BBFEFCF309DFFCA9F022B7
:102FFA00023105E493A3F8E493A34003F68001F2B7
:10300A0008DFF48029E493A3F85407240CC8C333D7
:10301A00C4540F4420C8834004F456800146F6DFA6
:10302A00E4800B0102040810204080901C0AE47E10
:10303A00019360BCA3FF543F30E509541FFEE4939B
:10304A00A360010ECF54C025E060A840B8E493A362
:10305A00FAE493A3F8E493A3C8C582C8CAC583CA8D
:10306A00F0A3C8C582C8CAC583CADFE9DEE780BE45
:011DCF000013
:0F40F500EFC394304007EF943A50028001C3228A
:10403E00EFC394094005EF940E4003BF2003D380D5
:03404E0001C32289
:103371008B138A148915E4F519F51AE4FEFFAB16CF
:10338100AA17A9188F828E83120DE2FD6013AB1369
:10339100AA14A915120DC96D60070FBF00010E8097
:1033A100DDAB16AA17A9188F828E83120DE2700267
:1033B100801A051AE51A70020519AB130515E515F2
:1033C10070020514F9AA14120DC970AFAE19AF1A23
:0133D10022D9
:1033D2008B138A14891585161985171A85181BAB44
:1033E20019AA1AA91B120DC9FF6019AB13AA14A9B5
:1033F20015120DC96F600D7401251BF51BE4351AFA
:10340200F51A80DBAB19AA1AA91B120DC96007AB0A
:1034120013AA14A91522AB130515E515AA147002F7
:0D342200051414F9120DC970ADFBFAF92262
:00000001FF
