:102E30007F981239D4123D3C123CCB123C6D7D0779
:102E4000E4FF123F32E4F50C7F807E25FDFC122664
:102E50002D123481123376123F13123B3E7F011242
:102E6000396C1237BC750D01750E01750FD7E4F57D
:102E700010F5117B017A0179D77D01FC123A057BAF
:102E8000FF7A3D79B27F0A122FB37BFF7A3D79FF3B
:102E90007F03122FB37BFF7A3F79787F02122FB323
:102EA0007BFF7A2979877F07122FB3123F69123887
:032EB0007D80FB27
:093F29008B88898C88898F8889B6
:101AB10052013286860086860086860086860086EA
:091AC10086008686004101270918
:03002B00023F5D34
:063F5D0053BCEFD20F324D
:021C7900155BF9
:101C7B00200F03021E22C20F900126E0B409004080
:101C8B0003021E04901C96F8282873021CDD021C0C
:101C9B00B1021CC3021CEF021CB1021CC3021D06C5
:101CAB00021CB1021CC3AFBDEFFEADBE7C00E42D28
:101CBB00FFEC3E900128803CAFBDEFFEADBE7C003B
:101CCB00E42DFFEC3E90012AF0A3EFF075530102D7
:101CDB001E0AAFBDEFFEADBE7C00E42DFFEC3E90C7
:101CEB00012C8010AFBDEFFEADBE7C00E42DFFECF0
:101CFB003E90012EF0A3EFF0021E0AAFBDEFFEAD3A
:101D0B00BE7C00E42DFFEC3E900130F0A3EFF09091
:101D1B000130E0FEA3E07807CEC313CE13D8F9A8A9
:101D2B005BF6C394065013A85BE675F003A424324C
:101D3B00F582E43401F583E014F0900127E014F010
:101D4B006003021E0A7409F0A85BE4F6A85BE6FFC9
:101D5B00C394064003021E0AEF75F003A42432F568
:101D6B0082E43401F583E0C39480502AE6FF75F0DA
:101D7B0003A42433F582E43401F583E0D39480404B
:101D8B0040EF75F003A42434F582E43401F5837439
:101D9B0001F0F554802BA85BE6FF75F003A4243308
:101DAB00F582E43401F583E0C394805014EF75F0B1
:101DBB0003A42434F582E43401F5837402F07554E2
:101DCB0001A85BE6FF75F003A42432F582E434012D
:101DDB00F583E0FEEF75F003A42433F582E43401C0
:101DEB00F583EEF0E675F003A42432F582E43401BA
:101DFB00F5837486F006021D5790012674FFF09050
:101E0B000126E0D39407400374FFF0900126E00411
:071E1B00F0903F2993F5BC94
:031E2200055B223B
:023EB000155BA0
:093EB200A85BA654E4F554E6FFF8
:033EBB00055B2282
:023EBE00155B92
:093EC000A85BA653E4F553E6FFEC
:033EC900055B2274
:1039D4008F9D75BC88439720D2AD90004574FFF04D
:1039E400A3741CF0A37479F0A374FFF0A3743EF0E5
:1039F400A374B0F0A374FFF0A3743EF0A374BEF0FC
:013A0400229F
:070003007B017A017928223C
:1036A900C3EF64809480403BD3EF648094855033AA
:1036B900EFFD3395E0FC90013475F003ED120C51E8
:1036C900EC75F003A42583F583E0FE90013475F0D1
:1036D90003ED120C51EC75F003A42583F583E4F096
:0536E900AF06227F0383
:0136EE0022B9
:043B1600155B155BCB
:103B1A00123F3BA85BA60608A607A85BE6FE08E6D6
:0F3B2A00FF4E600BEF24FFFFEE34FFFE123F440F
:053B3900055B055B22A5
:103C6D0053B1EF43B210123F75E4F5D975DA49D26D
:103C7D00DE90003F74FFF0A3743BF0A37416F022A6
:083030008E1C8F1D8C1E8D1FEC
:10303800123F3BEF4E7066AF1FAE1E123F44C3E512
:103048001D940AE51C9400404BE47B18FAF9F890AB
:103058000026120C35120B69C006C007AE1CAF1D46
:10306800AB07AA06E4F9F8D007D006120B69AB073C
:10307800AA06AFF9EFFEADE97C00E42DFFEC3ECFE8
:103088002BCF3AAD07FCAF03AE02123E23D2D84392
:0F309800DA018006123F7553DAFE7F02227F03B2
:0130A7002206
:0C3EDA00123F3BEF4E7002FF227F0122DE
:1023A700E4F5809001AFE0FFB40800505F9023BBD5
:1023B700F82828730223D30223D90223DF0223E557
:1023C7000223EB0223F50223FF022409C2A3C2A2C0
:1023D7008016C2A3C2A2801AC2A3C2A2801EC2A331
:1023E700C2A28022C2A3D2A2C2A1C2A08020C2A33D
:1023F700D2A2C2A1D2A08016C2A3D2A2D2A1C2A049
:10240700800CC2A3D2A2D2A1D2A08002D2A3C3EFD2
:102417006480948850299001AFE0FF3395E0FE7403
:10242700A62FF58274013EF583E0FF3395E0FE7435
:10243700BB2FF58274383EF583E493F580801E90B8
:1024470001AFE0FFB408133395E0FE74A62FF582C1
:1024570074013EF583E0F5808003E4F5809001A5E3
:10246700E0FF9001AFE004FEF0D3EF6480F8EE6484
:1024770080984014E0D36480948850047408F02254
:092487009001A4E09001AFF022E5
:103D3C00E4F5937594FF5395F043960F90002A7415
:0B3D4C00FFF0A37423F0A374A7F02283
:093F32009001A4EFF0A3EDF022D0
:103C8D009001A6EFF0A3EDF0A3EBF0A3E50BF0A3ED
:103C9D00E50CF0A3E50DF0A3E50EF0A3E50FF02282
:063F63009001AEEFF02218
:101ACA000159004901BC94940094940094940041F3
:031ADA0001BB1E2F
:02207B00155BF3
:10207D0020B2069001BCE014F020B3069001BFE041
:10208D0014F02097069001C2E014F09001BBE0140B
:10209D00F0600302219B741EF0A85BE4F6A85BE6DA
:1020AD00FFC364809483400302219BEF3395E0FED0
:1020BD009001BC75F003EF120C51EE75F003A425E1
:1020CD0083F583E0C3948050399001BD75F003EF23
:1020DD00120C51EE75F003A42583F583E0D39480A3
:1020ED00405AE6FF3395E0FE9001BE75F003EF1206
:1020FD000C51EE75F003A42583F5837401F0F559A9
:10210D00803AA85BE6FF3395E0FE9001BD75F003C4
:10211D00EF120C51EE75F003A42583F583E0C39403
:10212D008050199001BE75F003EF120C51EE75F051
:10213D0003A42583F5837402F0755901A85BE6FFAE
:10214D00FD3395E0FC9001BC75F003ED120C51ECE4
:10215D0075F003A42583F583E0FE9001BD75F003B2
:10216D00ED120C51EC75F003A42583F583EEF0EF21
:10217D003395E0FE9001BC75F003EF120C51EE7536
:0E218D00F003A42583F5837494F0060220AAC3
:03219B00055B22BF
:023ECC00155B84
:093ECE00A85BA659E4F559E6FFD2
:033ED700055B2266
:103CCB0090003074FFF0A3743EF0A374CCF090001E
:0D3CDB002D74FFF0A37420F0A3747BF02281
:1037FE00EF600764016003BF0233EFFD3395E0FC19
:10380E009001BE75F003ED120C51EC75F003A4257A
:10381E0083F583E0FE9001BE75F003ED120C51ECC2
:0F382E0075F003A42583F583E4F0AF06227F0332
:01383D002268
:101ADD004100000A4100290A41006D0A0429000055
:101AED000000012F004600670000FFFF8FFFC10DB2
:101AFD00C105C108C101C10E60240005FF000AFF28
:101B0D00000AFF000AFF000AFF000AFF000AFF009B
:101B1D000AFF000AFF000AFF000AFF000AFF000A81
:101B2D006036002AFF000AFF000AFF003EFF000A90
:101B3D00FF003EFF000AFF003EFF000AFF000AFF04
:101B4D00000AFF003EFF003EFF003EFF003EFF008B
:0A1B5D000AFF000AFF000AFF000A59
:01000A0022D3
:03003E007F00221E
:10366200438E805389F07BE07A28790178009000BC
:1036720026120C35123778EFF404F58A7BE07A28AB
:1036820079017800900026120C35123778C3E49F36
:10369200FFE49EFE74019DFDE49CFC7808120C0E72
:0736A2008F8CD28CD2A9220B
:03000B0002352A91
:04352A00C0E0C0D06D
:10352E00D5230A75234C300D02052FD20DA203723E
:10353E000450361525E5257030852725D207300A2B
:10354E0017E52860071528438F01801D538FFEC293
:10355E00B5D53115C20A80110526E526D39406404D
:09356E0008C203E52E6002D2063A
:05357700D0D0D0E032CD
:1034D700300E47C20E900026120C357810120C0ED3
:1034E7008E558F56900003E0FEA3E0FFE4FCFD7BC2
:1034F70019FAF9F8120ADEC006C007AE55AF56AB87
:1035070007AA06E4F9F8D007D0061237787803122D
:103517000C0E900065EEF0A3EFF0900065E0FEA3BF
:02352700E0FFC3
:01352900227F
:093F3B00900067E0FEA3E0FF2204
:093F4400900067EEF0A3EFF022FB
:103E230090006BEEF0A3EFF0900069ECF0A3EDF0DF
:013E3300226C
:033F7500C2B422B1
:03003B0002283A5E
:10283A00C0E0C083C082C0D075D000C004C005C04B
:03284A0006C007BE
:10284D0030DF04C2DF807D30DA04C2DA807630D921
:10285D003DC2D9AFFBEFFEADEB7C00E42DFFEC3EAE
:10286D0020000E900001F0A3EFF075DB11D2008077
:10287D0053FE900001E0FCA3E0FDC3EF9DFFEE9C35
:10288D00A3F0A3EFF075DB00C200D20E803630D876
:10289D0033C2D8900067E07002A3E06022B2B4901A
:1028AD000069E0FEA3E0F5EAEEF5FAA3E0FEA3E091
:1028BD00FF90006AE02FF0900069E03EF08005C2C5
:0428CD00B453DAFE28
:1028D100D007D006D005D004D0D0D082D083D0E0AC
:0128E10032C4
:063F6900123662D2AF2205
:102DA5003004047F0180027F00200A047E01800236
:102DB5007E00EE5F6074E530C395245068300236BE
:102DC500752801E530131313541FAB32AA33A93408
:102DD500F582758300120989FFE530540704FEEF7B
:102DE500A806088002C333D8FC30D70575310380A7
:102DF5002F753101802AAB32AA33A93475F002E56B
:102E050030A4F58285F083120989F528E53075F03F
:102E150002A429F9EA35F0FA900001120989F53181
:0A2E25000530D20A22C204438F10C8
:012E2F002280
:1022BA00900000E014F0701F740AF0D20590002913
:1022CA00E014F07012740AF0D20890006DE014F075
:1022DA007005740AF0D20190002AA3E0FAA3E0F98B
:1022EA00120C5D90002DA3E0FAA3E0F9120C5D90A8
:1022FA000039A3E0FAA3E0F9120C5D900045A3E0CF
:10230A00FAA3E0F9120C5D900054A3E0FAA3E0F9F5
:10231A00120C5D90005DA3E0FAA3E0F9120C5D9047
:10232A00004BA3E0FAA3E0F9120C5DEF600C9000F9
:10233A001DA3E0FAA3E0F9120C5D90004EA3E0FAA7
:10234A00A3E0F9120C5DEF600E900020A3E0FAA35F
:10235A00E0F9120C5DD20BE52DD394004016D52D71
:10236A003030090C900023A3E0FAA3E0F9120C5DC7
:10237A00D20C801D900051A3E0FAA3E0F9120C5D83
:10238A00EF600E900023A3E0FAA3E0F9120C5DD2ED
:0D239A000C900005A3E0FAA3E0F9020C5D31
:102BF60090003FA3E0FAA3E0F9120C5D900042A317
:102C0600E0FAA3E0F9120C5D900033A3E0FAA3E02A
:102C1600F9120C5D900008A3E0FAA3E0F9120C5D2E
:102C2600900030A3E0FAA3E0F9120C5DEF600C907F
:102C36000011A3E0FAA3E0F9120C5D900036A3E0C0
:102C4600FAA3E0F9120C5DEF600C900017A3E0FA0E
:102C5600A3E0F9120C5D900048A3E0FAA3E0F91294
:102C66000C5DEF600C90001AA3E0FAA3E0F9120CD9
:102C76005D30060EC206900026A3E0FAA3E0F91224
:032C86000C5D22C0
:10383E0090000BA3E0FAA3E0F9120C5D90003CA3FC
:10384E00E0FAA3E0F9120C5DEF600C900014A3E017
:10385E00FAA3E0F9120C5D900057A3E0FAA3E0F989
:0F386E00120C5D90005AA3E0FAA3E0F9020C5D82
:103A9600AF2CAE2BAD2AAC29900060120C459000DD
:103AA60064E52FF0E4F52CF52BF52AF529F52F9092
:0B3AB600000EA3E0FAA3E0F9020C5D93
:10387D00300705C207122DA5300D05C20D1222BA53
:10388D00300505C205122BF6300805C20812383E68
:10389D00300105C201123A96E52C2401F52CE435D0
:0E38AD002BF52BE4352AF52AE43529F52922DE
:102FB3008B088A09890AEFB40C005070902FC6F869
:102FC300282873022FEA022FEF022FF4022FF902AF
:102FD3002FFE02300302300802300D02301202309D
:102FE3001702301C023021900005803590000880C4
:102FF3003090000B802B90000E80269000118021D2
:10300300900017801C900014801790001A80129073
:10301300001D800D90002080089000238003900005
:0D30230026E508F0A3E509F0A3E50AF02278
:073F56007B017A0079602273
:102C89008B0AAA077C007E037FE81209FC9001B732
:102C9900EEF0A3EFF0E50BFD7C007E037FE812095F
:102CA900FCA3EEF0A3EFF0AF02AB07E4FAF9F8905A
:102CB90001B7E0FEA3E0FFE4FCFD120ADEEF2432D7
:102CC900FFE43EFEE43DFDE43CFCE47B64FAF9F8F4
:102CD9001237789001B1EEF0A3EFF0AF0AAB07E439
:102CE900FAF9F89001B9E0FEA3E0FFE4FCFD120A4D
:102CF900DEEF2432FFE43EFEE43DFDE43CFCE47BF0
:102D090064FAF9F81237789001B3EEF0A3EFF022E4
:1033D000E4F50BF50AF509F508F50CD291AF0BAE43
:1033E0000AAD09AC087801120C228F0B8E0A8D09E8
:1033F0008C0800C291309015E4FAF9F8EF2401F539
:103400000BEA3EF50AE93DF509E83CF508050CE54F
:103410000CB418C700D2910000C291AF0BAE0AAD38
:0834200009AC087808120C0E3B
:013428002281
:093F4D009001B5E0FEA3E0FF22A3
:0F3E34009001B5E0FEA3E0FFE49001B5F0A3F02C
:013E4300225C
:102490009001B0E0700F309001221233D09001B55E
:1024A000EEF0A3EFF09001B0E0FF6401706205452B
:1024B000E54570020544FDD39001B8E09D9001B759
:1024C000E095445005E4F544F545D39001B2E0951C
:1024D000459001B1E095444004D2908002C290053D
:1024E00047E54770020546FDD39001BAE09D900193
:1024F000B9E095465005E4F546F547D39001B4E0C0
:1025000095479001B3E095464004D2918002C29174
:10251000EF6402703E2090047F0180027F00E54856
:1025200060047E0180027E00EE5F60213091109099
:1025300001B6E004F070169001B5E004F0800E9052
:1025400001B6E024FFF09001B5E034FFF0A290E482
:1025500033F5489001B0E0B4031CE5497002D29114
:10256000E549B40105C29175DB210549E549C394EC
:06257000C84003E4F54938
:012576002242
:10396C009001B0EFF07004C2918002D2919001B03E
:10397C00E0B40310E5A254CFF5A2E4F5D975DB0150
:10398C00D2DE8003E4F5DB90005D74FFF0A37424B9
:06399C00F0A37490F0227C
:101B670055014400000000000000000000000000D4
:081B7700000001000000000065
:030043000218DFC1
:1018DF00C0E0C0F0C083C082C0D075D000C000C0CF
:1018EF0001C002C003C004C005C006C007E59A309E
:1018FF00E142539AFD900149E0FEA3E0FFC390013E
:10190F0048E09F900147E09E501F900144E0FBA3E9
:10191F00E0FAA3E0F9A3E475F001120A9D85F082C5
:10192F00F583120989F59B800B90014BE4F0E55884
:10193F006002C2B7E59A20E003021A96539AFE306E
:10194F000C0BC20C900151E4F0A3F0D209E55864DE
:10195F000260030219F090014FE0FEA3E0FFA3E045
:10196F00FCA3E0FDC39FEC9E507190014CE0FBA3E4
:10197F00E0FAA3E0F98D828C83E59B1209C89001F0
:10198F0057E0FEA3E0FFC3ED9FEC9E504090014F48
:10199F00E0FCA3E0FDEF9DEE9C5032900154E0FB84
:1019AF00A3E0FAA3E0F9900151E0FEA3E0FFF58276
:1019BF008E83120989FD90014CE0FBA3E0FAA3E0AE
:1019CF00F98F828E831209896D6002C209900152CC
:1019DF00E004F07006900151E004F085572D021AD3
:1019EF009690014FE0FEA3E0FFA3E0FCA3E0FDC350
:1019FF009FEC9E507790014CE0FBA3E0FAA3E0F937
:101A0F008D828C83E59B1209C8900157E0FEA3E0FD
:101A1F00FFC3ED9FEC9E504690014FE0FCA3E0FD0D
:101A2F00EF9DEE9C5038900154E0FBA3E0FAA3E049
:101A3F00F9900151E0FEA3E0FFF5828E8312098930
:101A4F00FD90014CE0FBA3E0FAA3E0F98F828E83B7
:101A5F001209896D600890015174FFF0A3F0900195
:101A6F0052E004F07006900151E004F090014FE055
:101A7F00FEA3E0FFC3900152E09F900151E09E4012
:101A8F00069001537401F0D007D006D005D004D0D2
:101A9F0003D002D001D000D0D0D082D083D0F0D0EC
:021AAF00E03223
:023E7400155BDC
:0A3E7600900153E0A85BF6FFE4F0B2
:033E8000055B22BD
:01002A0022B3
:10262D008F0B8E0A8D098C08850C58E55870028029
:10263D000343BA01E558701790005D74FFF0A37461
:10264D0000F0A3742AF0E4F5DBD290D2918020C281
:10265D00B7AB0BAA0AA909A808E47F407E9CFDFC34
:10266D00120B698F57E557700375570185572D75F7
:10267D009A10E47B04FAF9F8900026120C35120B2F
:10268D0069AB0BAA0AA909A808120B69EFF404F5A6
:10269D00D7E47B04FAF9F8900026120C35120B6979
:1026AD00AB0BAA0AA909A808120B69C3E49FFFE4A2
:1026BD009EFE74019DFDE49CFC7808120BFB8FD6E9
:1026CD00438E1443AF0190005174FFF0A3743EF09C
:0526DD00A37474F0225B
:103A050090014CEBF0A3EAF0A3E9F0A3ECF0A3EDF1
:103A1500F0900157E510F0A3E511F0900154E50D84
:103A2500F0A3E50EF0A3E50FF0D20CE4900153F0FE
:013A3500226E
:103A670090014BE07026900144EBF0A3EAF0A3E944
:103A7700F0E4A3F0A3F0A3ECF0A3EDF0A37401F03E
:0F3A8700E5586002D2B7439A027F02227F0322E2
:0B3EF20090014BE07002FF227F0122D4
:1016E30000EF00C500AF00A00096008E00870081C8
:1016F300007C007800740071006D006B0068006569
:1017030000630061005F005D005B005A00580056F3
:1017130000550054005200510050004E004D004C43
:10172300004B004A0049004800470046004500447A
:1017330000430043004200410040003F003F003EA1
:10174300003D003D003C003B003A003A00390039BF
:1017530000380037003700360036003500340034D7
:1017630000330033003200320031003100300030EA
:10177300002F002F002E002E002D002D002C002CFA
:10178300002B002B002A002A002900290029002809
:101793000028002700270026002600260025002514
:1017A300002400240024002300230022002200221E
:1017B30000210021002000200020001F001F001F27
:1017C300001E001E001D001D001D001C001C001C2F
:1017D300001B001B001B001A001A001A0019001935
:1017E300001800180018001700170017001600163D
:1017F3000016001500150015001400140014001342
:101803000013001300120012001200110011001047
:1018130000100010000F000F000F000E000E000E4E
:10182300000D000D000D000C000C000C000B000B54
:10183300000B000A000A000900090009000800085B
:101843000008000700070007000600060005000562
:10185300000400040003000300030002000200016F
:101863000001000100000000FFFFFFFFFFFFFFFE7C
:10187300FFFEFFFDFFFDFFFCFFFCFFFBFFFBFFFA8D
:10188300FFFAFFF9FFF9FFF8FFF8FFF7FFF7FFF69D
:10189300FFF6FFF5FFF5FFF4FFF3FFF3FFF2FFF2AF
:1018A300FFF1FFF0FFF0FFEFFFEEFFEDFFEDFFECC9
:1018B300FFEBFFEAFFE9FFE8FFE7FFE6FFE5FFE4F1
:1018C300FFE3FFE2FFE0FFDFFFDDFFDCFFDAFFD82E
:0C18D300FFD5FFD2FFCEFFC9FFC10169A5
:071B7F0044018E28282828EC
:10331C0012000378847C017D017E007F0A12094A29
:10332C00900188E0FFA3E0900192CFF0A3EFF09022
:10333C000192E0FEA3E07802CEA2E713CE13D8F8F8
:10334C00F0EE900192F0A3E025E0FF900192E033C3
:10335C00FE74E32FF58274163EF583E493FF74013B
:0A336C0093900182CFF0A3EFF0224E
:102ACE00900182E0FEA3E0FFC3EE6480948050315B
:102ADE00C3E49FFFE49EFE7C007D0A120A517C0037
:102AEE007D0A120A518D0E750B0A750C0A750D0CA6
:102AFE00900182E0FEA3E0FFC3E49FFFE49EFE8010
:102B0E0040900182E0FEA3E0FF7C007D64120A513A
:102B1E007C007D0A120A51AB05900182E0FEA3E013
:102B2E00FF7C007D0A120A517C007D0A120A518D2B
:102B3E000E8B0D750B0A750C0A900182E0FEA3E058
:102B4E00FF7C007D0A120A518D0F7B0A7D0A7F0AD7
:042B5E00123C8D2276
:041B86004101EA002F
:102987007F051236A99000D7EFF07F021236A99083
:1029970000D8EFF07F041236A99000D9EFF07F013D
:1029A7001236A99000DAEFF09000D7E0B40110904A
:1029B70001EAE004F0E0D3648094834002E4F090FD
:1029C70000D8E0B401119001EAE014F0E0C364809C
:1029D700948050037403F09000D9E0B4011FE540E0
:1029E700D3940040181540780E7C007D007B007A58
:1029F70000793E7E007F0612094A1225779000DA99
:102A0700E0B4011FE540C3940F50180540780E7CD1
:102A1700007D007B007A00793E7E007F0612094A1E
:032A2700122577FE
:012A2A002289
:103CAD009001EAE014600D14600D14600D24037092
:0E3CBD000C02357C022ACE02361A123D572226
:1035CD00C6BDD1F4A3ACB5BDC1CBA1A3C7EBC7B0EC
:1035DD00CDF9C0E8CDD0C2B7B5C4B3CBBFCDD7BC44
:1035ED00B1B8CFC2B3B5A1A3CFC2B3B5CAB1A3AC65
:1035FD00C7EBD7A2D2E2C1D0B3B5D3EBD5BECCA821
:0D360D00D6AEBCE4B5C4BCE4CFB6A1A300AA
:101B8A00C1104A0178000003F1043607F506004245
:041B9A0001740000D2
:103B3E009001C9E0FF3395E0FEEF24FFFFEE34FF66
:103B4E00900176F0A3EFF0D210E4900174F0A3F0A0
:083B5E00900170F0A304F022B5
:102EB300900171E024FFF0900170E034FFF0E0FA3C
:102EC300A3E0FB7C007D3CFFAE02120A51A3EEF0AF
:102ED300A3EFF07C007D3CAF03AE02120A519001D8
:102EE3006EECF0A3EDF0D3900171E09400900170CB
:102EF300E0648094805038B2101228E220103090A1
:102F03000176E0FEA3E0FFD39400EE64809480405A
:102F13001EEF9405EE6480948050147C007DC812EB
:102F230009EA74922FF974043EFA7BFF123A67227E
:1028E200201072C3900177E09405900176E0648035
:1028F20094805061A3E004F07006900176E004F049
:10290200900177E025E0FF900176E033FE74782FA6
:10291200F58274013EF583E0FFA3E0900174CFF0ED
:10292200A3EFF09001C9E0FF3395E0FE74E42FF5C8
:102932008274013EF583E0FFD394004047EFFD7CB3
:1029420000900174E0FEA3E0FF1209FC900170EE1A
:10295200F0A3EFF022201023C3900177E0940590BA
:102962000176E06480948040129001707404F0A3B8
:1029720074B0F0E4900174F0A3F022900170E4F0DE
:05298200A37415F02212
:10357C00900172E0FEA3E0FF7C007D0A1209FCAB17
:10358C000790016EE0FEA3E0FF7C007D0A1209FCAF
:10359C008F0E8B0B900172E0FEA3E0FF7C007D0A86
:1035AC001209FC8D0C750D0A90016EE0FEA3E0FF74
:1035BC007C007D0A1209FC8D0F7B0AE4FDFF023CA6
:0135CC008D71
:103D5700750B0A750C0A750D0A750E0AA210E43365
:0B3D6700F50F7B0A7D0A7F0A023C8DED
:102A2B00301003022ACDD3900175E094009001740D
:102A3B00E094005003022ACD9001C9E0FF3395E0EA
:102A4B00FE74E42FF58274013EF583E0FFD394000E
:102A5B004066900174E0FCA3E0FDD39FEC94004032
:102A6B00259001C9E0FF3395E0FE74E42FF58274E5
:102A7B00013EF583E0FFC3ED9FFEEC9400900174E3
:102A8B00F0A3CEF08007E4900174F0A3F09001C99D
:102A9B00E0FF3395E0FE74E42FF58274013EF5837D
:102AAB00E0FD7C00900174E0FEA3E0FF1209FC90B6
:102ABB000170EEF0A3EFF022900170740EF0A3748E
:032ACB0010F022E6
:071B9E004401E43219323268
:10361A00750B0A750C0A9001C9E0FF3395E0FE7438
:10362A00E42FF58274013EF583E0FD75F06484F5BC
:10363A000DED75F00A8475F00A8485F00E74E42F96
:10364A00F58274013EF583E075F00A8485F00F7BFC
:08365A000A7D0A7F0A023C8D83
:1000460000000000000000000000000000000000AA
:10005600000000000000000000000000000000009A
:10006600000000000000000000000000000000008A
:10007600000000000000000000000000000000007A
:10008600000000000000000000000000000000006A
:10009600000000000000000000000000000000005A
:1000A600000000000000000000000000000000004A
:1000B600000000000000000000000000000000003A
:1000C600000000000000000000000000000000002A
:1000D600000000000000000000000000000000001A
:1000E600000000000000000000000000000000000A
:1000F60000000000000000000000000000000000FA
:100106000000000000000000C6BDD1F4A3ACB5BDE0
:10011600C1CBA1A3C7EBC7B0CDF9C0E8CDD0C2B75C
:10012600B5C4B3CBBFCDD7BCB1B8CFC2B3B5A1A30D
:10013600CFC2B3B5CAB1A3ACC7EBD7A2D2E2C1D086
:10014600B3B5D3EBD5BECCA8D6AEBCE4B5C4BCE43F
:10015600CFB6A1A3000000000000000000000000D0
:100166000000000000000000000000000000000089
:100176000000000000000000000000000000000079
:100186000000000000000000000000000000000069
:100196000000000000000000000000000000000059
:1001A6000000000000000000000000000000000049
:1001B6000000000000000000000000000000000039
:1001C6000000000000000000000000000000000029
:1001D600B3A4C9B3BBF0B3B5C4CFD5BEA3ACB5BD4C
:1001E600C1CBA1A3B1BED5BECEAABBBBB3CBD5BE38
:1001F600A3ACBFC9BBBBB3CB32BAC5CFDFA1A2B4D8
:10020600C5B8A15332CFDFA1A3C7EBC7B0CDF9B8AC
:10021600DFCCFAC4CFD5BEA1A2B4C5B8A15332CFA4
:10022600DFA1A2C0E8CDD0B8DFCBD9C6FBB3B5D528
:10023600BEB5C4B3CBBFCDD7BCB1B8CFC2B3B5A1E1
:10024600A3CFC2B3B5CAB1A3ACC7EBD7A2D2E2C1A2
:10025600D0B3B5D3EBD5BECCA8D6AEBCE4B5C4BC42
:10026600E4CFB6A1A30000000000000000000000DB
:100276000000000000000000000000000000000078
:100286000000000000000000000000000000000068
:100296000000000000000000B9E2B4EFA3A8BBE133
:1002A600D5B9D6D0D0C4A3A9A3ACB5BDC1CBA1A3A3
:1002B600B1BED5BECEAABBBBB3CBD5BEA3ACBFC960
:1002C600BBBBB3CB32BAC5CFDFA1A3C7EBC7B0CD9B
:1002D600F9B3A4C9B3B9FABCCABBE1D2E9D6D0D046
:1002E600C4A1A2B3A4C9B3B9FABCCABBE1D5B9D6F5
:1002F600D0D0C4A1A2B3A4C9B3B9FABCCABBE1D5D4
:10030600B9D0C2B3C7B5C4B3CBBFCDD7BCB1B8CFD4
:10031600C2B3B5A1A3CFC2B3B5CAB1A3ACC7EBD71D
:10032600A2D2E2C1D0B3B5D3EBD5BECCA8D6AEBC73
:10033600E4B5C4BCE4CFB6A1A300000000000000F1
:1003460000000000000000000000000000000000A7
:100356000000000000000000000000000000000097
:10036600D6D5B5E3D5BEA3ACB6C5BCD2C6BAA3AC8A
:10037600B5BDC1CBA1A3C7EBC8ABCCE5B3CBBFCD55
:10038600D0AFB4F8BAC3CBE6C9EDCEEFC6B7D7BC8B
:10039600B1B8CFC2B3B5A1A3CFC2B3B5CAB1A3ACEE
:1003A600C7EBD7A2D2E2C1D0B3B5D3EBD5BECCA8AA
:1003B600D6AEBCE4B5C4BCE4CFB6A1A3BBB6D3AD40
:1003C600C4FAD4D9B4CEB3CBD7F8B5D8CCFAC1D009
:1003D600B3B5A3ACD4D9BCFBA3A1000000000000B8
:1003E6000000000000000000000000000000000007
:1003F60000000000000000000000000000000000F7
:1004060000000000000000000000000000000000E6
:1004160000000000000000000000000000000000D6
:100426000000000000000000B3B5C3C5BCB4BDABFE
:10043600B9D8B1D5A3ACBDF7B7C0BCD0C9CB000005
:1004460000000000000000000000000000000000A6
:100456000000000000000000000000000000000096
:100466000000000000000000000000000000000086
:100476000000000000000000000000000000000076
:100486000000000000000000000000000000000066
:100496000000000000000000000000000000000056
:1004A6000000000000000000000000000000000046
:1004B6000000000000000000000000000000000036
:1004C6000000000000000000000000000000000026
:1004D6000000000000000000000000000000000016
:1004E6000000000000000000000000000000000006
:1004F60000000000000000000000000000000000F6
:1005060000000000000000000000000000000000E5
:1005160000000000000000000000000000000000D5
:1005260000000000000000000000000000000000C5
:1005360000000000000000000000000000000000B5
:1005460000000000000000000000000000000000A5
:1005560000000000B1BEB4CEC1D0B3B5BFAACDF97C
:10056600A3ACB6C5BCD2C6BAA1A3CFC2D2BBD5BEB8
:10057600A3ACC6BDD1F4A1A3B3B5C3C5BFAAC6F487
:10058600B7BDCFF2CEAAD7F3B2E0A1A30000000018
:100596000000000000000000000000000000000055
:1005A6000000000000000000000000000000000045
:1005B6000000000000000000000000000000000035
:1005C6000000000000000000000000000000000025
:1005D6000000000000000000000000000000000015
:1005E6000000000000000000000000000000000005
:1005F60000000000000000000000000000000000F5
:1006060000000000000000000000000000000000E4
:10061600000000000000000000000000B1BEB4CEE3
:10062600C1D0B3B5BFAACDF9A3ACB6C5BCD2C6BAC4
:10063600A1A3CFC2D2BBD5BEA3ACB3A4C9B3BBF0F2
:10064600B3B5C4CFD5BEA1A3B3B5C3C5BFAAC6F4BF
:10065600B7BDCFF2CEAAD7F3B2E0A1A3B8F7CEBB0F
:10066600B3CBBFCDC7EBD7A2D2E2A3ACD0E8BBBB1E
:10067600B3CB32BAC5CFDFA1A2B4C5B8A15332CF2E
:10068600DFB5C4B3CBBFCDA3ACC7EBD4DAB3A4C933
:10069600B3BBF0B3B5C4CFD5BECFC2B3B5A1A3002B
:1006A6000000000000000000000000000000000044
:1006B6000000000000000000000000000000000034
:1006C6000000000000000000000000000000000024
:1006D6000000000000000000000000000000000014
:1006E60000000000B1BEB4CEC1D0B3B5BFAACDF9EB
:1006F600A3ACB6C5BCD2C6BAA1A3CFC2D2BBD5BE27
:10070600A3ACB9E2B4EFA3A8BBE1D5B9D6D0D0C4A7
:10071600A3A9A1A3B3B5C3C5BFAAC6F4B7BDCFF2FB
:10072600CEAAD7F3B2E0A1A3B8F7CEBBB3CBBFCD69
:10073600C7EBD7A2D2E2A3ACD0E8BBBBB3CB32BAED
:10074600C5CFDFB5C4B3CBBFCDA3ACC7EBD4DAB945
:10075600E2B4EFA3A8BBE1D5B9D6D0D0C4A3A9CF44
:10076600C2B3B5A1A3000000000000000000000015
:100776000000000000000000000000000000000073
:100786000000000000000000000000000000000063
:100796000000000000000000000000000000000053
:1007A600000000000000000000000000CFC2D2BB25
:1007B600D5BEA3ACCAC7B1BEB4CEC1D0B3B5D6D52B
:1007C600B5E3D5BEA3ACB6C5BCD2C6BAA1A3B3B574
:1007D600C3C5BFAAC6F4B7BDCFF2CEAAD7F3B2E05F
:1007E600A1A3C1D0B3B5D4CBD0D0CAB1A3ACC7EB0B
:1007F600D5BECEC8B7F6BAC3A3ACC7EBCEAAD3D084
:10080600D0E8D2AAB5C4B3CBBFCDC8C3D7F9A3AC81
:10081600B6E0D0BBBACFD7F7A1A300000000000016
:1008260000000000000000000000000000000000C2
:1008360000000000000000000000000000000000B2
:1008460000000000000000000000000000000000A2
:100856000000000000000000000000000000000092
:100866000000000000000000000000000000000082
:04087600000000007E
:101BA5004101D7004101DD004501D8000A14161096
:103DB2009001D7E0B441079001DD7401F022E49054
:043DC20001DDF0220D
:102B62009001DDE064017003022BF5900176E0FE36
:102B7200A3E0FF24D8F58274013EF583E0FD9001C5
:102B820070E07003A3E06D703220102FD3EF940039
:102B9200EE648094804024900176E0FEA3E0FF94EE
:102BA20005EE6480948050137C007DC81209EA749B
:102BB200462FF974003EFA7BFF8035900170E07079
:102BC20004A3E06405702C301029900176E0FEA386
:102BD200E0FFD39400EE648094804017EF9405EEFA
:102BE20064809480500D7BFF7A04792E7D647C0092
:042BF200123A67220A
:0400260000A8C0006E
:0E1BB5004401C5000000004401CA0000000009
:103DFF00122EB3122B6212331C1236EF1214310231
:023E0F0038F782
:033F7800023CAD5B
:1038BB003F065B4F666D7D077F6F000840014148F7
:1038CB00BF86DBCFE6EDFD87FFEF777C395E797145
:1038DB003D7606383F736D3E6E5F7C585E7B716F35
:0C38EB00741038545C7367506D781C6ECC
:081BC3004101E8FF4101E900C6
:103E1100EFC394004009EFD3946450037F01227FE4
:023E210000227D
:10337600E4F50F9001E904F09001E874FFF0E4F53C
:103386000FAF0F123CE8900125EFF0E0FFE50FFDCF
:103396003395E0FC748E2DF58274013CF583EFF0D5
:1033A600EFF46006123E11EF7014AF0FEF3395E0A5
:1033B600FE748E2FF58274013EF5837428F0050F96
:0933C600C3E50F6480948440B853
:0133CF0022DB
:103AEC009001E9E070031233769001C9E0FF123CBB
:103AFC00E8900124EFF0F46008E0FF123E11EF7043
:093B0C00037F2822900124E0FF50
:013B1500228D
:103AC1008F0E9001E9E07003123376AF0E123E11B2
:103AD100EF70037FFF229001C9E0FFAD0E123D8818
:0B3AE1009001C9E09001E8F07F002296
:023933008F0DF6
:103935009001E9E07003123376AF0D123E11EF707E
:10394500057EFF7FFF22123AEC900123EFF0B50DC3
:1039550004E4FEFF22AF0D123AC1EF7005FE7F01B0
:0639650080047EFF7FFFDD
:01396B002239
:0B3F08002C0042535000425350300088
:101BCB006032006E0000000000000000000000000A
:101BDB0000000000000000000000000000000000FA
:101BEB0000000000000000000000000000000000EA
:101BFB00000000000000603200A0000000000000A8
:101C0B0000000000000000000000000000000000C9
:101C1B0000000000000000000000000000000000B9
:101C2B000000000000000000000000004100D60092
:071C3B004400D242535000A7
:1039A2007B017A00796E7D0A123D20AE02AF018F53
:1039B200828E83EF4E6014E4F09000D67402F07BA6
:1039C200017A00796E120D7802000E9000D674030F
:0139D200F004
:0139D30022D1
:103481007F007EC27D017C001230A87E007F327DEC
:10349100007B017A00796E120D4C7E007F327D0037
:1034A1007B017A0079A0120D4C7BFF7A3979A27FDA
:1034B10009122FB3750D01750E00750FD27510002D
:1034C1007511037B017A00796E7D327C00123A36E8
:0634D100E49000D6F02299
:10000E007E007F327D007B017A00796E120D4CE40A
:05001E009000D6F02265
:0B3EFD009000D6E0B4030312000E2278
:060D78008B088A09890ABC
:100D7E00E4900109F0A3F0A3F0A3F0A3F0AE02AF4C
:100D8E0001EF4E6007123D9DEF4E70030210697821
:100D9E00D77C007D01AB08AA09A90A120D2F751088
:100DAE00FF75113F7512087B017A0079D7122F3328
:100DBE00AE02AF018E0B8F0CEF4E606F7B01751084
:100DCE00FF75113F75120A751300751403123193D6
:100DDE00EF704AAA0BA90C7B01123D9DC3EF940440
:100DEE00EE94004035850C82850B83A3A3A3E0FF10
:100DFE00B4300FE490010DF090010BF0A3740DF0E0
:100E0E00801EEFB4311190010D7401F090010BE4CE
:100E1E00F0A37404F08009021069021069021069CF
:100E2E00900109E4F0A304F0021031E50C450B70BB
:100E3E000302104E90010BE0FEA3E0FF900109E0CB
:100E4E00FCA3E0FDC39FEE6480F8EC648098400341
:100E5E0002104E90010DE06003020FAEEC60030233
:100E6E001023ED14B40C004003021023900E88756D
:100E7E00F003A4C58325F0C58373020EAC020EBA2F
:100E8E00020EC8020ED6020EE4020EF2020F060287
:100E9E000F21020F3C020F57020F75020F93AA0B80
:100EAE00A90C7B011226E290010E8044AA0BA90C1C
:100EBE007B011226E29001108036AA0BA90C7B0151
:100ECE001226E29001128028AA0BA90C7B01122691
:100EDE00E2900114801AAA0BA90C7B011226E29053
:100EEE000116800CAA0BA90C7B011226E2900118A8
:100EFE00EEF0A3EFF0021023AA0BA90C7B01122631
:100F0E00E290011CEFF0D394015003021023E4F0A1
:100F1E00021023AA0BA90C7B011226E290011AEFF4
:100F2E00F0D394015003021023E4F0021023AA0B15
:100F3E00A90C7B011226E290011BEFF0D394015015
:100F4E0003021023E4F0021023AA0BA90C7B01125A
:100F5E0026E290011DEEF0A3EFF0D39417EE94006D
:100F6E0050030210238069AA0BA90C7B011226E202
:100F7E0090011FEEF0A3EFF0D3943BEE94005003DC
:100F8E00021023806AAA0BA90C7B011226E29001A3
:100F9E0021EEF0A3EFF0D3943BEE94004077806EF9
:100FAE00900109E0FEA3E0FFEE706AEF24FE6026DA
:100FBE001460422402705EAA0BA90C7B011226E279
:100FCE0090011DEEF0A3EFF0D39417EE9400404580
:100FDE00E490011D803CAA0BA90C7B011226E29025
:100FEE00011FEEF0A3EFF0D3943BEE94004026E405
:100FFE0090011F801DAA0BA90C7B011226E2900105
:10100E0021EEF0A3EFF0D3943BEE94004007E49072
:10101E000121F0A3F090010AE004F070069001099E
:10102E00E004F07510FF75113F7512087B007A0011
:10103E007900122F33AE02AF018E0B8F0C020E39D8
:10104E0090010BE0FEA3E0FFC390010AE09FEE6467
:10105E0080F8900109E064809850057EFF7FFF22A2
:10106E0090010DE0600302110A9001C9E0FD339575
:10107E00E0FC748E2DF58274013CF583E0FF900147
:10108E0012E0FAA3E0FB6F7001EA6011AF03748EF9
:10109E002DF58274013CF583EFF01239339001C9BE
:1010AE00E0FF3395E0FE74E42FF58274013EF58384
:1010BE00E0FD900114E0FAA3E0FB6D7001EA600F11
:1010CE0074E42FF58274013EF583EBF0122A2B9017
:1010DE00011AE0FF9001C9E0FD3395E0FC74C52DC7
:1010EE00F58274013CF583EFF090011BE0FF74CAAA
:1010FE002DF58274013CF583EFF0800090011DE028
:10110E00FFA3E09001E2CFF0A3EFF090011FE0FF0C
:10111E00A3E09001E0CFF0A3EFF0900121E0FFA358
:0C112E00E09001DECFF0A3EFF0E4FEFF44
:01113A002292
:10219E00E0FEA3E0FF9000D7E0FCA3E024A0F974DA
:0521AE00003CFA7B017A
:0621B3008B088A09890A6D
:1021B900E49000DBF0A3F0A3EEF0A3EFF0E49000CD
:1021C900E9F0A3F0EF4E701774301209B6AB08AA04
:1021D90009A90A900001E41209C87E007F0122D3EF
:1021E9009000DEE094009000DDE094004053900000
:1021F900EAE0940A9000E9E06480948050439000FA
:10220900DDE0FAA3E0FB7C007D0AFFAE021209FCC7
:10221900ED2430FF9000E9E475F001120A9DFC7489
:10222900DF25F0F58274003CF583EFF07C007D0A30
:10223900AF03AE021209FC9000DDEEF0A3EFF080CF
:102249009E9000EAE024FFFE9000E9E034FF900050
:10225900D9F0A3CEF09000D9E0FEA3E0FFC3EE646D
:10226900809480403574DF2FF58274003EF583E059
:10227900FFAB08AA09A90A9000DBE475F001120A6C
:102289009D85F082F583EF1209C89000DAE024FFFA
:10229900F09000D9E034FFF080BBAB08AA09A90A85
:1022A9009000DBE0FEA3E0FFF5828E83E41209C80B
:0122B9002202
:10143100E49000D7F0A3F0123F1EBF01037F032207
:101441007E007F327D007B017A0079A0120D4C78FD
:10145100A07C007D017BFF7A3F790E120D2F7B016D
:101461007A0079A0123D9D9000D7EEF0A3EFF090A5
:1014710000D7E475F001120A9DFE74A025F0F582F3
:1014810074003EF583742CF09001C9E0FF3395E0C0
:10149100FE1221A39000D8E02FF09000D7E03EF09B
:1014A100E475F001120A9DFE74A025F0F582740026
:1014B1003EF583742CF090018212219E9000D8E0B9
:1014C1002FF09000D7E03EF0E475F001120A9DFE86
:1014D10074A025F0F58274003EF583742CF0900120
:1014E100C9E0FF3395E0FE748E2FF58274013EF55D
:1014F10083E0FF7E001221A39000D8E02FF090003E
:10150100D7E03EF0E475F001120A9DFE74A025F0CB
:10151100F58274003EF583742CF09001C9E0FF332D
:1015210095E0FE74E42FF58274013EF583E0FF7EC1
:10153100001221A39000D8E02FF09000D7E03EF0F8
:10154100E475F001120A9DFE74A025F0F582740085
:101551003EF583742CF090017212219E9000D8E028
:101561002FF09000D7E03EF0E475F001120A9DFEE5
:1015710074A025F0F58274003EF583742CF090017F
:101581006E12219E9000D8E02FF09000D7E03EF03F
:10159100E475F001120A9DFE74A025F0F582740035
:1015A1003EF583742CF0A210E4FE331221A29000C8
:1015B100D8E02FF09000D7E03EF0E475F001120A78
:1015C1009DFE74A025F0F58274003EF583742CF025
:1015D1009001C9E0FF3395E0FE74C52FF5827401D7
:1015E1003EF583E0FF7E001221A39000D8E02FF0AA
:1015F1009000D7E03EF0E475F001120A9DFE74A060
:1016010025F0F58274003EF583742CF09001C9E059
:10161100FF3395E0FE74CA2FF58274013EF583E035
:10162100FF7E001221A39000D8E02FF09000D7E0B8
:101631003EF0E475F001120A9DFE74A025F0F582DA
:1016410074003EF583742CF09001E212219E90000B
:10165100D8E02FF09000D7E03EF0E475F001120AD7
:101661009DFE74A025F0F58274003EF583742CF084
:101671009001E012219E9000D8E02FF09000D7E079
:101681003EF0E475F001120A9DFE74A025F0F5828A
:1016910074003EF583742CF09001DE12219E9000BF
:1016A100D8E02FF09000D7E03EF0E475F001120A87
:1016B1009DFE74A025F0F58274003EF583740AF056
:1016C100C39000D8E094329000D7E06480948040C9
:1016D100037F03227B017A0079A07D327C00123BDB
:0116E100B652
:0116E20022E5
:031C4200013D0061
:1037BC00E53D703D753E03753F9675400A754101B8
:1037CC00754201F54378087C00FDFB7A00793EFEDA
:1037DC007F0612094A123BDE780E7C007D007B00CE
:1037EC007A00793E7E007F0612094A122577753DD4
:0237FC000122A8
:1038F7009001C9E0FF3395E0FE748E2FF5827401C5
:103907003EF583E0FFD3900183E09F7480F8900138
:1039170082E0648098400B750B0AE4FB7D0A7F32D6
:0C3927008006E4F50BFBFDFF122C89224A
:0B3F13007F10123CE89001C9EFF02283
:103E44008F5AAD5A7F10123D889001C9E55AF0226D
:103E54002110231025102620251023102120313075
:1036EF00123F6F8F089001C9E0FF3395E0FE74C55C
:1036FF002FF58274013EF583E06009E508B40304F9
:10370F007F01801D9001C9E0FF3395E0FE74C52F46
:10371F00F58274013EF583E0700AE508B401057F78
:04372F0003123B66E0
:013733002273
:103D72007BFF7A3E7954753A00753B10753CF37DB2
:063D8200FA7F87023429DC
:10311F009001E2E0FEA3E0FF7C007D0A1209FCAB08
:10312F00079001E0E0FEA3E0FF7C007D0A1209FC9E
:10313F00AA079001DEE0FEA3E0FF7C007D0A1209E2
:10314F00FC8F0E8A0B9001E2E0FEA3E0FF7C007D76
:10315F000A1209FCC0059001E0E0FEA3E0FF7C002D
:10316F007D0A1209FC8D0C750D0C9001DEE0FEA39B
:10317F00E0FF7C007D0A1209FC8D0FAF03D0057BA9
:04318F000C023C8D65
:101F550000C400DC00F701060126014A0172018870
:101F650001B801EE020B024B029302E40310037069
:101F750003DC04160497052605C800DC00F70115E7
:101F85000126014A0172019F01B801EE022A024BA6
:101F9500029302E4033F037003DC0455049705260E
:101FA50005C8067D00F701150137014A0172019F39
:101FB50001D201EE022A026E029302E4033F03A45A
:101FC50003DC045504DD057505C8067D07490106D2
:101FD5000126014A015D018801B801EE020B024BA1
:101FE500029302BA0310037003DC04160497052656
:101FF5000575062006E007B80126014A0172018829
:1020050001B801EE022A024B029302E403100370A9
:1020150003DC04550497052605C8062006E007B825
:1020250008AA014A0172019F01B801EE022A026E57
:10203500029302E4033F037003DC045504DD052627
:1020450005C8067D06E007B808AA09B9015D01883B
:1020550001B801D2020B024B029302BA03100370BE
:1020650003A40416049705260575062006E007490E
:06207500082D092D0A4DA3
:101C45004D019703000000000000000000000000A7
:062790008F4A8D4B8B4CBB
:10279600123EDAEF60037F0122E54CD39400400637
:1027A600E54C94114028E54CD394174006E54C942B
:1027B60021401BE54CD394274006E54C9431400E4E
:1027C600E54CD394375007E54AC394F950037F0389
:1027D60022E54C603DC4540F75F007A4FDACF0E54E
:1027E6004A75F015A42DFFE5F03CFEE54C54077C38
:1027F600002FFFEC3EFEEF25E0FFEE33FE746B2F5D
:10280600F58274F63EF583E493F54E740193F54F25
:102816008005E4F54EF54FAF4D7E007C017D7712C5
:1028260009EAAD4B1C1209FCAD07AC06AF4FAE4E24
:032836001230302D
:01283900227C
:04113B00155B155BD0
:10113F00123EDAEF70047F0180027F00900197E08A
:10114F00FEB402047D0180027D00ED5F6003021496
:10115F002CEEB4030AE4900195F0A3F002142C9046
:10116F000198E0FFB4F3047E0180027E00EFB4F13A
:10117F00047F0180027F00EF4E603E90019AE0FEF7
:10118F0075F06484FFEE75F00A8475F00A84ADF093
:10119F00E075F00A84ABF0750B0A900199E0240713
:1011AF00F50C900194E0FEC4540F240AF50D750E52
:1011BF000AEE5407F50F123C8D900198E0FFB4F33F
:1011CF00047E0180027E00EFB4F2047F0180027F73
:1011DF0000EF4E700302128590019AE0FD7C007EB5
:1011EF00177F701209FCA85BA607E6F975F002A439
:1011FF00FFC39001A3E09F9001A2E095F05070E033
:10120F00FEA3E0FF7C007D0B1209EAE9FBFD12094A
:10121F00FCA85B08A6079001A2E475F001120A9DD5
:10122F00FED3E5F09BEE94004018A85B08E624F986
:10123F00FFE47EF0A807088005CEC313CE13D8F9BC
:10124F00801FA85B08E6FF740F7E00A807088005C3
:10125F00C333CE33CED8F97804CEA2E713CE13D84A
:10126F00F8A85B08F6A85B08E6FF123F638007E467
:10127F009001A2F0A3F090019EE0FEA3E0FFC390C7
:10128F0001A1E09F9001A0E09E4003021426123EB0
:10129F00DAEF600302142C90019BE0FBA3E0FAA3AA
:1012AF00E0F99001A0E0FEA3E0F5828E8312098998
:1012BF00FFD3943750030213C1EF241024FC50794D
:1012CF00604524FE700302136C1470030213822412
:1012DF000260030213B090019BE0FBA3E0FAA3E0CE
:1012EF00F99001A0E475F001120A8785F082F58369
:1012FF00120989900199F09001A1E004F070989083
:10130F0001A0E004F0809090019BE0FBA3E0FAA322
:10131F00E0F99001A0E475F001120A8785F082F5DB
:10132F008312098990019AF09001A1E004F0706E88
:10133F009001A0E004F00212A690019BE0FBA3E055
:10134F00FAA3E0F99001A0E475F001120A9D85F06F
:10135F0082F583120989900198F00212A69001A0DC
:10136F00E475F001120A87AFF0900195F0A3EFF04A
:10137F000212A6900195E0FEA3E0FF4E60129001CD
:10138F00A0EEF0A3EFF0E4900195F0A3F00212A607
:10139F009001A1E004F070069001A0E004F00212A9
:1013AF00A69001A1E004F070069001A0E004F00205
:1013BF0012A690019EE0FEA3E0FFC39001A1E09F63
:1013CF009001A0E09E505690019BE0FBA3E0FAA392
:1013DF00E0F99001A0E475F001120A9D85F082F505
:1013EF0083120989900194F0900199E0FFA3E0FD29
:1013FF00A3E0FBA3E0FAA3E0F99001A0E475F001EC
:10140F00120A9D85F082F583120989F54D9001949A
:0D141F00E0FB12279080069001977403F007
:05142C00055B055B22D9
:0F3E830090004274FFF0A37411F0A3743BF0227F
:10342900900197E0B4030DE49001A0F0A3F0A3F09C
:10343900A3F0C211EF600490019AF0ED60049001CD
:1034490099F0E94A60047F0180027F00E53B453A33
:1034590060047E0180027E00EE5F601390019BEBA9
:10346900F0A3EAF0A3E9F0A3E53AF0A3E53BF0E520
:083479003C6004900198F02270
:103B6600BF02047E0180027E00BF01047D01800247
:103B76007D00ED4EFEBF03047D0180027D00ED4E0B
:083B86006005900197EFF022A9
:063F6F00900197E0FF2223
:103E6400D2C0000000D2CD000000C2C00000002279
:0D002E00C2C0000000D2CD000000D2C022F0
:0B3C0300123C27123C0EAF05123C27BC
:103C0E00E4FFD2CD30C009EFC394FF50030F80F410
:083C1E00000000C2CD0000000F
:013C2600227B
:103C2700E4FEEF25E0FFC2CD00000092C0000000D7
:103C3700D2CD0000000EBE08E9C2CD000000D2C000
:033C47000000007A
:013C4A002257
:103C4B00C2CD000000D2C000E4FED2CD0000EF25B3
:103C5B00E0FDA2C0E4334DFF0000C2CD000EBE0854
:013C6B00E96F
:013C6C002235
:103D8800AC07123E647FA0123C27123C0EAF04120F
:053D98003C0302002EB7
:023CE800AD0726
:103CEA00123E647FA0123C03123E647FA1123C275D
:093CFA00123C0E123C4B12002E8C
:013D0300229D
:0B1C55004801CED4111A50400288A5AF
:093DC6007F03123DCFD2C57F033B
:0A3DCF00AE071FEE60030080F7222C
:103DD900D2A7123DC6C2A77F03123DCFC2C57F033A
:033DE900023DCFC9
:0C3EE600C2A7123DC6D2A77F03023DCF49
:103D0400E4FFD2C530A709EFC394FA50030F80F43F
:0C3D14007F03123DCFC2C57F03023DCFEC
:023B8E00AD0781
:103B9000E4FBC2C57F03123DCFED3392A7ED25E0D4
:103BA000FD123DC60BBB08EAC2C57F03123DCFD252
:063BB000C57F03023DCFBA
:02373400155B23
:103736009001D6E064017037123DD97F20123B8E8E
:10374600123D04A85BE4F6A85BE6FFC39408501795
:1037560074CE2FF582E43401F583E0FF123B8E121E
:0F3766003D04A85B0680E0123EE6E49001D6F039
:03377500055B22CF
:1032C0009001D0E025E025E0FFA3E0C413135403F0
:1032D0002F2466F515E43403F5149001D5E0540F5E
:1032E000F5169001D3E0543FFF5403FEBE0305756D
:1032F00017FF8003E4F517EF540CFEBE0C0575189C
:10330000FF8003E4F518EF5430FFBF30057519FF57
:0B3310008003E4F5197B007A007914BB
:01331B00228F
:10257700D3E50F9438E50E940450047F0180027F61
:1025870000C3E50F9466E50E940340047E018002C4
:102597007E00EE5F60301232C0120AB3650F70041E
:1025A700E5F0650E6020E50F249AFD1313543F9064
:1025B70001D0F0ED5403FFC4333354C04410A3F0EB
:1025C7009001D67401F01232C0E92402F9E43AFA14
:1025D700120970651060047F0180027F00E510D347
:1025E700940F50047E0180027E00EE5F6011E510BB
:1025F700540FFF9001D5E054F04FF0A37401F07D24
:102607002AE5116003430501E5126003430504E56C
:102617001360034305109001D3E06D6008EDF0905F
:0526270001D67401F072
:01262C00228B
:103BDE00780E7C007D007B007A0079087E007F06DF
:103BEE0012094A12257790005774FFF0A37437F02C
:053BFE00A37434F02265
:101C600055015900000000000000000000000000C5
:081C700000000100000000006B
:03002300021E2595
:101E2500C0E0C0F0C083C082C0D075D000C000C083
:101E350001C002C003C004C005C006C00730993BFD
:101E4500C29990015EE0FEA3E0FFC390015DE09FB3
:101E550090015CE09E501F900159E0FBA3E0FAA3BE
:101E6500E0F9A3E475F001120A9D85F082F583126D
:101E75000989F5998005900160E4F0209803021F17
:101E85003AC298300B09C20B900166E4F0A3F090BA
:101E95000164E0FEA3E0FFA3E0FCA3E0FDC39FEC2B
:101EA5009E5077900161E0FBA3E0FAA3E0F98D82F3
:101EB5008C83E5991209C890016CE0FEA3E0FFC38D
:101EC500ED9FEC9E5046900164E0FCA3E0FDEF9D84
:101ED500EE9C5038900169E0FBA3E0FAA3E0F9908D
:101EE5000166E0FEA3E0FFF5828E83120989FD906D
:101EF5000161E0FBA3E0FAA3E0F98F828E8312096A
:101F0500896D600890016674FFF0A3F0900167E0A9
:101F150004F07006900166E004F0900164E0FEA311
:101F2500E0FFC3900167E09F900166E09E40069048
:101F350001687401F0D007D006D005D004D003D0D5
:101F450002D001D000D0D0D082D083D0F0D0E03202
:023E9200155BBE
:0A3E9400900168E0A85BF6FFE4F07F
:033E9E00055B229F
:1030A8008F0B8E0A8D098C08759850438E40538E6D
:1030B800FE53890FE47B04FAF9F8900026120C35C8
:1030C800120B69AB0BAA0AA909A808120B69EFF43D
:1030D80004F58BE47B04FAF9F8900026120C3512FB
:1030E8000B69AB0BAA0AA909A808120B69C3E49FCC
:1030F800FFE49EFE74019DFDE49CFC7808120BFB26
:103108008F8DC2ABD28ED2AC90004E74FFF0A374F8
:073118003EF0A37492F022C7
:103A3600900161EBF0A3EAF0A3E9F0A3ECF0A3EDAB
:103A4600F090016CE510F0A3E511F0900169E50D29
:103A5600F0A3E50EF0A3E50FF0D20BE4900168F0B9
:013A6600223D
:103BB600900160E0701F900159EBF0A3EAF0A3E9D1
:103BC600F0E4A3F0A3F0A3ECF0A3EDF0A37401F0EE
:083BD600D2997F02227F032235
:0B3F1E00900160E07002FF227F012292
:03000000022D19B5
:0C2D1900787FE4F6D8FD75815B022D6028
:10087A00E709F608DFFA8046E709F208DFFA803E60
:10088A0088828C83E709F0A3DFFA8032E309F6084D
:10089A00DFFA8078E309F208DFFA807088828C83B5
:1008AA00E309F0A3DFFA806489828A83E0A3F60869
:1008BA00DFFA805889828A83E0A3F208DFFA804C43
:1008CA0080D280FA80C680D4806980F2803380101A
:1008DA0080A680EA809A80A880DA80E280CA803383
:1008EA0089828A83ECFAE493A3C8C582C8CCC583FB
:1008FA00CCF0A3C8C582C8CCC583CCDFE9DEE780CB
:10090A000D89828A83E493A3F608DFF9ECFAA9F049
:10091A00EDFB2289828A83ECFAE0A3C8C582C8CC9F
:10092A00C583CCF0A3C8C582C8CCC583CCDFEADEB8
:10093A00E880DB89828A83E493A3F208DFF980CC1A
:10094A0088F0EF60010E4E60C388F0ED2402B40413
:10095A000050B9F582EB2402B4040050AF232345BA
:06096A0082239008CA730D
:10097000BB010689828A83E0225002E722BBFE0285
:09098000E32289828A83E49322B8
:10098900BB010CE58229F582E5833AF583E0225023
:1009990006E92582F8E622BBFE06E92582F8E2226D
:0D09A900E58229F582E5833AF583E4932287
:1009B600BB010689828A83F0225002F722BBFE0120
:0209C600F3221A
:1009C800F8BB010DE58229F582E5833AF583E8F065
:1009D800225006E92582C8F622BBFE05E92582C811
:0209E800F222F9
:1009EA00EF8DF0A4A8F0CF8CF0A428CE8DF0A42E21
:0209FA00FE22DB
:1009FC00BC000BBE0029EF8DF084FFADF022E4CCDF
:100A0C00F875F008EF2FFFEE33FEEC33FCEE9DECA7
:100A1C00984005FCEE9DFE0FD5F0E9E4CEFD22EDED
:100A2C00F8F5F0EE8420D21CFEADF075F008EF2F37
:100A3C00FFED33FD4007985006D5F0F222C398FD28
:050A4C000FD5F0EA22C5
:100A5100C2D5EC30E709B2D5E4C39DFDE49CFCEEC0
:100A610030E715B2D5E4C39FFFE49EFE1209FCC333
:100A7100E49DFDE49CFC80031209FC30D507C3E42E
:060A81009FFFE49EFE222F
:100A8700C5F0F8A3E028F0C5F0F8E58215827002FA
:060A97001583E038F02297
:100A9D00A3F8E0C5F025F0F0E5821582700215830C
:060AAD00E0C838F0E82269
:100AB300BB010A89828A83E0F5F0A3E0225006870E
:100AC300F009E71922BBFE07E3F5F009E3192289D0
:0B0AD300828A83E493F5F07401932203
:100ADE00E88FF0A4CC8BF0A42CFCE98EF0A42CFCB7
:100AEE008AF0EDA42CFCEA8EF0A4CDA8F08BF0A435
:100AFE002DCC3825F0FDE98FF0A42CCD35F0FCEB94
:100B0E008EF0A4FEA9F0EB8FF0A4CFC5F02ECD3958
:0F0B1E00FEE43CFCEAA42DCE35F0FDE43CFC22C5
:100B2D0075F008758200EF2FFFEE33FECD33CDCC7F
:100B3D0033CCC58233C5829BED9AEC99E582984002
:100B4D000CF582EE9BFEED9AFDEC99FC0FD5F0D6DF
:100B5D00E4CEFBE4CDFAE4CCF9A88222B800C1B909
:100B6D000059BA002DEC8BF084CFCECDFCE5F0CB47
:100B7D00F97818EF2FFFEE33FEED33FDEC33FCEB80
:100B8D0033FB10D703994004EB99FB0FD8E5E4F93B
:100B9D00FA227818EF2FFFEE33FEED33FDEC33FC28
:100BAD00C933C910D7059BE99A4007EC9BFCE99A1C
:100BBD00F90FD8E0E4C9FAE4CCFB2275F010EF2F61
:100BCD00FFEE33FEED33FDCC33CCC833C810D70761
:100BDD009BEC9AE899400AED9BFDEC9AFCE899F89C
:0E0BED000FD5F0DAE4CDFBE4CCFAE4C8F9222F
:10377800C2D5E830E70FB2D5E4C39BFBE49AFAE47C
:1037880099F9E498F8EC30E717B2D51237AE120B76
:1037980069E4C39BFBE49AFAE499F9E498F8800396
:1037A800120B6930D50DE4C39FFFE49EFEE49DFD36
:0437B800E49CFC226F
:100BFB00E8600FECC313FCED13FDEE13FEEF13FFD8
:030C0B00D8F122FB
:100C0E00E86010ECA2E713FCED13FDEE13FEEF13FC
:040C1E00FFD8F022E9
:100C2200E8600FEFC333FFEE33FEED33FDEC33FC30
:030C3200D8F122D4
:100C3500E493FC740193FD740293FE740393FF2205
:0C0C4500ECF0A3EDF0A3EEF0A3EFF02222
:0C0C5100A42582F582E5F03583F58322AE
:060C5D008A838982E47322
:103193008B0D8A0E890FAB10AA11A912120970FEAA
:1031A300AB0DAA0EA90F120970FF6E702BEF600D05
:1031B300E51415147002151314451370037F0022D0
:1031C3007401250FF50FE4350EF50E74012512F584
:1031D30012E43511F51180BEAB0DAA0EA90F120929
:1031E30070FDD3EE6480F8ED64809840037F012284
:0F31F300AB10AA11A912120970FFC3ED9FFF22A2
:100C6300E709F60870FA8046E709F20870FA803E51
:100C730088828C83E709F0A370FA807EE309F60883
:100C830070FA8076E309F20870FA806E88828C83AA
:100C9300E309F0A370FA806289828A83E0A3F608ED
:100CA30070FA805689828A83E0A3F20870FA804A38
:100CB30080D280FA80C680D4806580F28031801033
:100CC30080A680EA809A80A880DA80E280CA803198
:100CD30089828A83ECFAE493A3C8C582C8CCC5830E
:100CE300CCF0A3C8C582C8CCC583CC70E9800D897C
:100CF300828A83E493A3F60870F9ECFAA9F0EDFB7A
:100D03002289828A83ECFAE0A3C8C582C8CCC58352
:100D1300CCF0A3C8C582C8CCC583CC70EA80DD897A
:100D2300828A83E493A3F20870F980CE88F0ED24DD
:100D330002B4040050C4F582EB2402B4040050BA98
:090D43002323458223900CB373B5
:103D9D00E4FFFE120970600C0FEF70010E09E9705F
:053DAD00F20A80EF2284
:103D2000E94A4B700122120970FF6D700122EF7099
:0C3D300004FBFAF92209E970ED0A80EAB0
:102F33008B0D8A0E890FE94A4B700985500D855117
:102F43000E85520FE50F450E450D7002802C85103E
:102F530016851117851218AB0DAA0EA90F1232028E
:102F6300EF250FF50FEE350EF50EAB0DFAA90F1287
:102F73000970700AF550F551F552FBFAF9228510E4
:102F830016851117851218AB0DAA0EA90F123263FD
:102F93008B508A518952EA494B600EE41209B604F8
:102FA3002552F552E43551F551AB0DAA0EA90F2266
:1026E2008B0D8A0E890FAB0DAA0EA90F120970FF6E
:1026F200123DEC500D7401250FF50FE4350EF50E69
:1027020080E4D212AB0DAA0EA90F120970FF642B3E
:102712006004EFB42D1BAB0D050FE50FAA0E70027E
:10272200050E14F9120970642D6003D38001C3925F
:1027320012E4F510F511AB0DAA0EA90F120970FFE4
:10274200123EA15036AB0DAA0EA90F120970FF332B
:1027520095E0FEEF24D0FBEE34FFFAAE10AF117C11
:10276200007D0A1209EAEF2BF511EE3AF510740119
:10277200250FF50FE4350EF50E80BB301206AE10B4
:0E278200AF118009C3E49511FFE49510FE220B
:100D4C00EF4E6012EF60010EEDBB010B89828A83BE
:100D5C00F0A3DFFCDEFA2289F05007F709DFFCA9CB
:0C0D6C00F022BBFEFCF309DFFCA9F02222
:102D2500022E30E493A3F8E493A34003F68001F266
:102D350008DFF48029E493A3F85407240CC8C333AF
:102D4500C4540F4420C8834004F456800146F6DF7E
:102D5500E4800B0102040810204080901AB1E47E43
:102D6500019360BCA3FF543F30E509541FFEE49373
:102D7500A360010ECF54C025E060A840B8E493A33A
:102D8500FAE493A3F8E493A3C8C582C8CAC583CA65
:102D9500F0A3C8C582C8CAC583CADFE9DEE780BE1D
:011C7800006B
:0F3EA100EFC394304007EF943A50028001C322E0
:103DEC00EFC394094005EF940E4003BF2003D3802A
:033DFC0001C322DE
:103202008B138A148915E4F519F51AE4FEFFAB163F
:10321200AA17A9188F828E83120989FD6013AB1336
:10322200AA14A9151209706D60070FBF00010E8064
:10323200DDAB16AA17A9188F828E83120989700234
:10324200801A051AE51A70020519AB130515E51562
:1032520070020514F9AA1412097070AFAE19AF1AF0
:013262002249
:103263008B138A14891585161985171A85181BABB4
:1032730019AA1AA91B120970FF6019AB13AA14A982
:10328300151209706F600D7401251BF51BE4351AC7
:10329300F51A80DBAB19AA1AA91B1209706007ABD8
:1032A30013AA14A91522AB130515E515AA14700268
:0D32B300051414F912097070ADFBFAF92230
:00000001FF
