:102D14007F98123828123C07123B96123B187D0705
:102D2400E4FF123E4BE4F50C7F807E25FDFC12256A
:102D3400001232D51231CA7F01123D49123E2C12C3
:102D440039E9123610750D01750E01750F70E4F531
:102D540010F5117B017A0179707D01FC1238597BE1
:102D6400FF7A3C79C77F0A122E177BFF7A3D799848
:102D74007F03122E177BFF7A3E799E7F02122E1755
:102D84007BFF7A2879FF7F07122E17123E891236AD
:032D9400D180FBF0
:093E42008B88898C88898F88899E
:101A4C005200F28686008686008686008686008690
:091A5C0086008686004100E709BE
:03002B00023E7D15
:063E7D0053BCEFD20F322E
:0218A0001571C0
:1018A200200F03021A49C20F9000E6E0B40900407B
:1018B20003021A2B9018BDF8282873021904021883
:1018C200D80218EA0219160218D80218EA02192DCB
:1018D2000218D80218EAAFBDEFFEADBE7C00E42DBF
:1018E200FFEC3E9000E8803CAFBDEFFEADBE7C0059
:1018F200E42DFFEC3E9000EAF0A3EFF0756A0102DE
:101902001A31AFBDEFFEADBE7C00E42DFFEC3E9080
:1019120000EC8010AFBDEFFEADBE7C00E42DFFEC0D
:101922003E9000EEF0A3EFF0021A31AFBDEFFEAD34
:10193200BE7C00E42DFFEC3E9000F0F0A3EFF090AF
:1019420000F0E0FEA3E07807CEC313CE13D8F9A8C7
:1019520071F6C394065013A871E675F003A424F23D
:10196200F582E43400F583E014F09000E7E014F02F
:101972006003021A317409F0A871E4F6A871E6FF57
:10198200C394064003021A31EF75F003A424F2F562
:1019920082E43400F583E0C39480502AE6FF75F0B8
:1019A20003A424F3F582E43400F583E0D394804069
:1019B20040EF75F003A424F4F582E43400F5837457
:1019C20001F0F56B802BA871E6FF75F003A424F3F8
:1019D200F582E43400F583E0C394805014EF75F08F
:1019E20003A424F4F582E43400F5837402F0756BE9
:1019F20001A871E6FF75F003A424F2F582E4340035
:101A0200F583E0FEEF75F003A424F3F582E43400DD
:101A1200F583EEF0E675F003A424F2F582E43400D7
:101A2200F5837486F00602197E9000E674FFF0904A
:101A320000E6E0D39407400374FFF09000E6E00470
:071A4200F0903E4293F5BC59
:031A490005712202
:023DD400157167
:093DD600A871A66BE4F56BE6FF91
:033DDF0005712249
:023DE200157159
:093DE400A871A66AE4F56AE6FF85
:033DED000571223B
:103828008F9D75BC88439720D2AD90004574FFF0FA
:10383800A37418F0A374A0F0A374FFF0A3743DF070
:10384800A374D4F0A374FFF0A3743DF0A374E2F062
:01385800224D
:070003007B017A0079E8227D
:1034FD00C3EF64809480403BD3EF64809485503358
:10350D00EFFD3395E0FC9000F475F003ED120C51D6
:10351D00EC75F003A42583F583E0FE9000F475F0BF
:10352D0003ED120C51EC75F003A42583F583E4F043
:05353D00AF06227F0330
:013542002266
:0439C10015711571F6
:1039C500123E54A871A60608A607A871E6FE08E6E9
:0F39D500FF4E600BEF24FFFFEE34FFFE123E5D4E
:0539E4000571057122D0
:103B180053B1EF43B210123E9BE4F5D975DA49D29E
:103B2800DE90003F74FFF0A37439F0A374C1F02253
:082E94008E1C8F1D8C1E8D1F8A
:102E9C00123E54EF4E7066AF1FAE1E123E5DC3E580
:102EAC001D940AE51C9400404BE47B18FAF9F89049
:102EBC000026120C35120B69C006C007AE1CAF1DE4
:102ECC00AB07AA06E4F9F8D007D006120B69AB07DA
:102EDC00AA06AFF9EFFEADE97C00E42DFFEC3ECF86
:102EEC002BCF3AAD07FCAF03AE02123D38D2D8431C
:0F2EFC00DA018006123E9B53DAFE7F02227F032B
:012F0B0022A3
:0C3DFE00123E54EF4E7002FF227F0122A3
:10227A00E4F58090016FE0FFB40800505F90228E71
:10228A00F82828730222A60222AC0222B20222B83D
:10229A000222BE0222C80222D20222DCC2A3C2A2A7
:1022AA008016C2A3C2A2801AC2A3C2A2801EC2A35F
:1022BA00C2A28022C2A3D2A2C2A1C2A08020C2A36B
:1022CA00D2A2C2A1D2A08016C2A3D2A2D2A1C2A077
:1022DA00800CC2A3D2A2D2A1D2A08002D2A3C3EF01
:1022EA0064809488502990016FE0FF3395E0FE7472
:1022FA00662FF58274013EF583E0FF3395E0FE74A4
:10230A000F2FF58274373EF583E493F580801E9093
:10231A00016FE0FFB408133395E0FE74662FF5826F
:10232A0074013EF583E0F5808003E4F58090016551
:10233A00E0FF90016FE004FEF0D3EF6480F8EE64F2
:10234A0080984014E0D36480948850047408F02282
:09235A00900164E090016FF02293
:103C0700E4F5937594FF5395F043960F90002A744B
:0B3C1700FFF0A37422F0A3747AF022E7
:093E4B00900164EFF0A3EDF022F8
:103B3800900166EFF0A3EDF0A3EBF0A3E50BF0A383
:103B4800E50CF0A3E50DF0A3E50EF0A3E50FF022D8
:063E830090016EEFF02239
:101A65000170004901889494009494009494004175
:031A750001871EC8
:021E4E0015710C
:101E500020B206900188E014F020B30690018BE0D8
:101E600014F020970690018EE014F0900187E014A2
:101E7000F06003021F6E741EF0A871E4F6A871E60C
:101E8000FFC3648094834003021F6EEF3395E0FE2E
:101E900090018875F003EF120C51EE75F003A42544
:101EA00083F583E0C39480503990018975F003EF86
:101EB000120C51EE75F003A42583F583E0D39480D2
:101EC000405AE6FF3395E0FE90018A75F003EF1269
:101ED0000C51EE75F003A42583F5837401F0F570C1
:101EE000803AA871E6FF3395E0FE90018975F00312
:101EF000EF120C51EE75F003A42583F583E0C39433
:101F000080501990018A75F003EF120C51EE75F0B4
:101F100003A42583F5837402F0757001A871E6FFB0
:101F2000FD3395E0FC90018875F003ED120C51EC47
:101F300075F003A42583F583E0FE90018975F00315
:101F4000ED120C51EC75F003A42583F583EEF0EF50
:101F50003395E0FE90018875F003EF120C51EE7599
:0E1F6000F003A42583F5837494F006021E7D21
:031F6E00057122D8
:023DF00015714B
:093DF200A871A670E4F570E6FF6B
:033DFB000571222D
:103B960090003074FFF0A3743DF0A374F0F0900031
:0D3BA6002D74FFF0A3741EF0A3744EF022E6
:10365200EF600764016003BF0233EFFD3395E0FCC6
:1036620090018A75F003ED120C51EC75F003A4255C
:1036720083F583E0FE90018A75F003ED120C51ECA4
:0F36820075F003A42583F583E4F0AF06227F03E0
:013691002216
:101A78004100000A4100290A41006D0A04290000BA
:101A88000000012F004600670000FFFF8FFFC10D17
:101A9800C105C108C101C10E60240005FF000AFF8D
:101AA800000AFF000AFF000AFF000AFF000AFF0001
:101AB8000AFF000AFF000AFF000AFF000AFF000AE7
:101AC8006036002AFF000AFF000AFF003EFF000AF6
:101AD800FF003EFF000AFF003EFF000AFF000AFF6A
:101AE800000AFF003EFF003EFF003EFF003EFF00F1
:0A1AF8000AFF000AFF000AFF000ABF
:01000A0022D3
:03003E007F00221E
:1034B600438E805389F07BE07A287901780090006A
:1034C60026120C351235CCEFF404F58A7BE07A2807
:1034D60079017800900026120C351235CCC3E49F92
:1034E600FFE49EFE74019DFDE49CFC7808120C0E20
:0734F6008F8CD28CD2A922B9
:03000B0002337E3F
:04337E00C0E0C0D01B
:10338200D5230A75234C300D02052FD20DA20372EC
:103392000450361525E5257030852725D207300AD9
:1033A20017E52860071528438F01801D538FFEC241
:1033B200B5D53115C20A80110526E526D3940640FB
:0933C20008C203E52E6002D206E8
:0533CB00D0D0D0E0327B
:10332B00300E47C20E900026120C357810120C0E80
:10333B008E6C8F6D900003E0FEA3E0FFE4FCFD7B41
:10334B0019FAF9F8120ADEC006C007AE6CAF6DAB06
:10335B0007AA06E4F9F8D007D0061235CC78031289
:10336B000C0E900065EEF0A3EFF0900065E0FEA36D
:02337B00E0FF71
:01337D00222D
:093E5400900067E0FEA3E0FF22EC
:093E5D00900067EEF0A3EFF022E3
:103D380090006BEEF0A3EFF0900069ECF0A3EDF0CB
:013D48002258
:033E9B00C2B4228C
:03003B0002270D8C
:10270D00C0E0C083C082C0D075D000C004C005C079
:03271D0006C007EC
:1027200030DF04C2DF807D30DA04C2DA807630D94F
:102730003DC2D9AFFBEFFEADEB7C00E42DFFEC3EDC
:1027400020000E900001F0A3EFF075DB11D20080A5
:1027500053FE900001E0FCA3E0FDC3EF9DFFEE9C63
:10276000A3F0A3EFF075DB00C200D20E803630D8A4
:1027700033C2D8900067E07002A3E06022B2B49048
:102780000069E0FEA3E0F5EAEEF5FAA3E0FEA3E0BF
:10279000FF90006AE02FF0900069E03EF08005C2F3
:0427A000B453DAFE56
:1027A400D007D006D005D004D0D0D082D083D0E0DA
:0127B40032F2
:063E89001234B6D2AF2294
:102C89003004047F0180027F00200A047E01800253
:102C99007E00EE5F6074E530C395245068300236DB
:102CA900752801E530131313541FAB32AA33A93425
:102CB900F582758300120989FFE530540704FEEF98
:102CC900A806088002C333D8FC30D70575310380C4
:102CD9002F753101802AAB32AA33A93475F002E588
:102CE90030A4F58285F083120989F528E53075F05D
:102CF90002A429F9EA35F0FA900001120989F5319F
:0A2D09000530D20A22C204438F10E5
:012D1300229D
:10218D00900000E014F0701F740AF0D20590002941
:10219D00E014F07012740AF0D20890006DE014F0A3
:1021AD007005740AF0D20190002AA3E0FAA3E0F9B9
:1021BD00120C5D90002DA3E0FAA3E0F9120C5D90D6
:1021CD000039A3E0FAA3E0F9120C5D900045A3E0FD
:1021DD00FAA3E0F9120C5D900054A3E0FAA3E0F924
:1021ED00120C5D90005DA3E0FAA3E0F9120C5D9076
:1021FD00004BA3E0FAA3E0F9120C5DEF600C900028
:10220D001DA3E0FAA3E0F9120C5D90004EA3E0FAD5
:10221D00A3E0F9120C5DEF600E900020A3E0FAA38D
:10222D00E0F9120C5DD20BE52DD394004016D52D9F
:10223D003030090C900023A3E0FAA3E0F9120C5DF5
:10224D00D20C801D900051A3E0FAA3E0F9120C5DB1
:10225D00EF600E900023A3E0FAA3E0F9120C5DD21B
:0D226D000C900005A3E0FAA3E0F9020C5D5F
:102ADA0090003FA3E0FAA3E0F9120C5D900042A334
:102AEA00E0FAA3E0F9120C5D900033A3E0FAA3E048
:102AFA00F9120C5D900008A3E0FAA3E0F9120C5D4C
:102B0A00900030A3E0FAA3E0F9120C5DEF600C909C
:102B1A000011A3E0FAA3E0F9120C5D900036A3E0DD
:102B2A00FAA3E0F9120C5DEF600C900017A3E0FA2B
:102B3A00A3E0F9120C5D900048A3E0FAA3E0F912B1
:102B4A000C5DEF600C90001AA3E0FAA3E0F9120CF6
:102B5A005D30060EC206900026A3E0FAA3E0F91241
:032B6A000C5D22DD
:1036920090000BA3E0FAA3E0F9120C5D90003CA3AA
:1036A200E0FAA3E0F9120C5DEF600C900014A3E0C5
:1036B200FAA3E0F9120C5D900057A3E0FAA3E0F937
:0F36C200120C5D90005AA3E0FAA3E0F9020C5D30
:10391800AF2CAE2BAD2AAC29900060120C4590005C
:1039280064E52FF0E4F52CF52BF52AF529F52F9011
:0B393800000EA3E0FAA3E0F9020C5D12
:1036D100300705C207122C89300D05C20D12218D4C
:1036E100300505C205122ADA300805C208123692E1
:1036F100300105C201123918E52C2401F52CE435FD
:0E3701002BF52BE4352AF52AE43529F529228B
:102E17008B088A09890AEFB40C005070902E2AF8A3
:102E2700282873022E4E022E53022E58022E5D02C0
:102E37002E62022E67022E6C022E71022E76022E51
:102E47007B022E80022E8590000580359000088039
:102E57003090000B802B90000E802690001180216F
:102E6700900017801C900014801790001A80129011
:102E7700001D800D900020800890002380039000A3
:0D2E870026E508F0A3E509F0A3E50AF02216
:073E6F007B017A007960225B
:101B02005501040000000000000000000000000079
:081B12000000010000000000CA
:030043000216CED4
:1016CE00C0E0C0F0C083C082C0D075D000C000C0E2
:1016DE0001C002C003C004C005C006C007E59A30B1
:1016EE00E142539AFD900109E0FEA3E0FFC3900191
:1016FE0008E09F900107E09E501F900104E0FBA3BD
:10170E00E0FAA3E0F9A3E475F001120A9D85F082D8
:10171E00F583120989F59B800B90010BE4F0E56FC0
:10172E006002C2B7E59A20E003021885539AFE3094
:10173E000C0BC20C900111E4F0A3F0D209E56F641A
:10174E000260030217DF90010FE0FEA3E0FFA3E0AB
:10175E00FCA3E0FDC39FEC9E507190010CE0FBA337
:10176E00E0FAA3E0F98D828C83E59B1209C8900103
:10177E0017E0FEA3E0FFC3ED9FEC9E504090010FDB
:10178E00E0FCA3E0FDEF9DEE9C5032900114E0FBD7
:10179E00A3E0FAA3E0F9900111E0FEA3E0FFF582C9
:1017AE008E83120989FD90010CE0FBA3E0FAA3E001
:1017BE00F98F828E831209896D6002C2099001121F
:1017CE00E004F07006900111E004F0856E2D021811
:1017DE008590010FE0FEA3E0FFA3E0FCA3E0FDC3B4
:1017EE009FEC9E507790010CE0FBA3E0FAA3E0F98A
:1017FE008D828C83E59B1209C8900117E0FEA3E051
:10180E00FFC3ED9FEC9E504690010FE0FCA3E0FD60
:10181E00EF9DEE9C5038900114E0FBA3E0FAA3E09C
:10182E00F9900111E0FEA3E0FFF5828E8312098983
:10183E00FD90010CE0FBA3E0FAA3E0F98F828E830A
:10184E001209896D600890011174FFF0A3F09001E8
:10185E0012E004F07006900111E004F090010FE028
:10186E00FEA3E0FFC3900112E09F900111E09E40A5
:10187E00069001137401F0D007D006D005D004D025
:10188E0003D002D001D000D0D0D082D083D0F0D0FF
:02189E00E03236
:023D89001571B2
:0A3D8B00900113E0A871F6FFE4F0C8
:033D950005712293
:01002A0022B3
:102500008F0B8E0A8D098C08850C6FE56F70028029
:102510000343BA01E56F701790005D74FFF0A37478
:1025200000F0A3742AF0E4F5DBD290D2918020C2AF
:10253000B7AB0BAA0AA909A808E47F407E9CFDFC62
:10254000120B698F6EE56E7003756E01856E2D75C9
:102550009A10E47B04FAF9F8900026120C35120B5D
:1025600069AB0BAA0AA909A808120B69EFF404F5D4
:10257000D7E47B04FAF9F8900026120C35120B69A7
:10258000AB0BAA0AA909A808120B69C3E49FFFE4D0
:102590009EFE74019DFDE49CFC7808120BFB8FD617
:1025A000438E1443AF0190005174FFF0A3743DF0CB
:0525B000A37489F02274
:1038590090010CEBF0A3EAF0A3E9F0A3ECF0A3EDDF
:10386900F0900117E510F0A3E511F0900114E50DB2
:10387900F0A3E50EF0A3E50FF0D20CE4900113F0EC
:01388900221C
:1038BB0090010BE07026900104EBF0A3EAF0A3E972
:1038CB00F0E4A3F0A3F0A3ECF0A3EDF0A37401F0EC
:0F38DB00E56F6002D2B7439A027F02227F032279
:0B3E160090010BE07002FF227F0122F0
:1014D20000EF00C500AF00A00096008E00870081DB
:1014E200007C007800740071006D006B006800657C
:1014F20000630061005F005D005B005A0058005607
:1015020000550054005200510050004E004D004C56
:10151200004B004A0049004800470046004500448D
:1015220000430043004200410040003F003F003EB4
:10153200003D003D003C003B003A003A00390039D2
:1015420000380037003700360036003500340034EA
:1015520000330033003200320031003100300030FD
:10156200002F002F002E002E002D002D002C002C0D
:10157200002B002B002A002A00290029002900281C
:101582000028002700270026002600260025002527
:101592000024002400240023002300220022002231
:1015A20000210021002000200020001F001F001F3A
:1015B200001E001E001D001D001D001C001C001C42
:1015C200001B001B001B001A001A001A0019001948
:1015D2000018001800180017001700170016001650
:1015E2000016001500150015001400140014001355
:1015F200001300130012001200120011001100105B
:1016020000100010000F000F000F000E000E000E61
:10161200000D000D000D000C000C000C000B000B67
:10162200000B000A000A000900090009000800086E
:101632000008000700070007000600060005000575
:101642000004000400030003000300020002000182
:101652000001000100000000FFFFFFFFFFFFFFFE8F
:10166200FFFEFFFDFFFDFFFCFFFCFFFBFFFBFFFAA0
:10167200FFFAFFF9FFF9FFF8FFF8FFF7FFF7FFF6B0
:10168200FFF6FFF5FFF5FFF4FFF3FFF3FFF2FFF2C2
:10169200FFF1FFF0FFF0FFEFFFEEFFEDFFEDFFECDC
:1016A200FFEBFFEAFFE9FFE8FFE7FFE6FFE5FFE404
:1016B200FFE3FFE2FFE0FFDFFFDDFFDCFFDAFFD841
:0C16C200FFD5FFD2FFCEFFC9FFC10169B8
:071B1A0044014E2828282891
:1031700012000378447C017D017E007F0A12094A17
:10318000900148E0FFA3E0900152CFF0A3EFF09050
:103190000152E0FEA3E07802CEA2E713CE13D8F8E6
:1031A000F0EE900152F0A3E025E0FF900152E033F1
:1031B000FE74D22FF58274143EF583E493FF7401FC
:0A31C00093900142CFF0A3EFF0223C
:102A4600900142E0FEA3E0FFC3EE64809480503123
:102A5600C3E49FFFE49EFE7C007D0A120A517C00BF
:102A66007D0A120A518D0E750B0A750C0A750D0C2E
:102A7600900142E0FEA3E0FFC3E49FFFE49EFE80D8
:102A860040900142E0FEA3E0FF7C007D64120A5103
:102A96007C007D0A120A51AB05900142E0FEA3E0DC
:102AA600FF7C007D0A120A517C007D0A120A518DB4
:102AB6000E8B0D750B0A750C0A900142E0FEA3E021
:102AC600FF7C007D0A120A518D0F7B0A7D0A7F0A60
:042AD600123B382255
:041B21004101B200CC
:1028FF007F051234FD9000B2EFF07F021234FD908D
:10290F0000B3EFF07F041234FD9000B4EFF07F01BD
:10291F001234FD9000B5EFF09000B2E0B4011090CA
:10292F0001B2E004F0E0D3648094834002E4F090BD
:10293F0000B3E0B401119001B2E014F0E0C3648081
:10294F00948050037403F09000B4E0B4011FE5408D
:10295F00D3940040181540780E7C007D007B007AE0
:10296F0000793E7E007F0612094A12244A9000B574
:10297F00E0B4011FE540C3940F50180540780E7C5A
:10298F00007D007B007A00793E7E007F0612094AA7
:03299F0012244AB5
:0129A2002212
:103B78009001B2E014600D14600D14600D24037000
:0E3B88000C0233D0022A4602346E123C222276
:10342100C6BDD1F4A3ACB5BDC1CBA1A3C7EBC7B099
:10343100CDF9C0E8CDD0C2B7B5C4B3CBBFCDD7BCF1
:10344100B1B8CFC2B3B5A1A3CFC2B3B5CAB1A3AC12
:10345100C7EBD7A2D2E2C1D0B3B5D3EBD5BECCA8CE
:0D346100D6AEBCE4B5C4BCE4CFB6A1A30058
:101B2500C1104A0138000003F1043607F5060042EA
:041B35000134000077
:1039E900900195E0FF3395E0FEEF24FFFFEE34FFF1
:1039F900900136F0A3EFF0D210E4900134F0A3F077
:083A0900900130F0A304F0224B
:102F8300900131E024FFF0900130E034FFF0E0FAEB
:102F9300A3E0FB7C007D3CFFAE02120A51A3EEF0DE
:102FA300A3EFF07C007D3CAF03AE02120A51900107
:102FB3002EECF0A3EDF0D3900131E09400900130BA
:102FC300E0648094805024B2101227B520101C9026
:102FD3000136E0FEA3E0FF7C007DC81209EA74928B
:0C2FE3002FF974043EFA7BFF1238BB2269
:1027B500201072C3900137E09405900136E06480E3
:1027C50094805061A3E004F07006900136E004F0B7
:1027D500900137E025E0FF900136E033FE74382F95
:1027E500F58274013EF583E0FFA3E0900134CFF05C
:1027F500A3EFF0900195E0FF3395E0FE74AC2FF563
:102805008274013EF583E0FFD394004047EFFD7CE1
:1028150000900134E0FEA3E0FF1209FC900130EEC8
:10282500F0A3EFF022201023C3900137E094059028
:102835000136E06480948040129001307404F0A366
:1028450074B0F0E4900134F0A3F022900130E4F08C
:05285500A37415F02240
:1033D000900132E0FEA3E0FF7C007D0A1209FCAB05
:1033E0000790012EE0FEA3E0FF7C007D0A1209FC9D
:1033F0008F0E8B0B900132E0FEA3E0FF7C007D0A74
:103400001209FC8D0C750D0A90012EE0FEA3E0FF61
:103410007C007D0A1209FC8D0F7B0AE4FDFF023B54
:013420003873
:103C2200750B0A750C0A750D0A750E0AA210E4339B
:0B3C3200F50F7B0A7D0A7F0A023B3879
:1029A300301003022A45D3900135E094009001349E
:1029B300E094005003022A45900195E0FF3395E02F
:1029C300FE74AC2FF58274013EF583E0FFD39400CF
:1029D3004066900134E0FCA3E0FDD39FEC940040FB
:1029E30025900195E0FF3395E0FE74AC2FF58274DA
:1029F300013EF583E0FFC3ED9FFEEC9400900134AC
:102A0300F0A3CEF08007E4900134F0A3F090019599
:102A1300E0FF3395E0FE74AC2FF58274013EF5833D
:102A2300E0FD7C00900134E0FEA3E0FF1209FC907E
:102A33000130EEF0A3EFF022900130740EF0A37496
:032A430010F0226E
:071B39004401AC321E323200
:10346E00750B0A750C0A900195E0FF3395E0FE741A
:10347E00AC2FF58274013EF583E0FD75F06484F5A2
:10348E000DED75F00A8475F00A8485F00E74AC2F7C
:10349E00F58274013EF583E075F00A8485F00F7BAA
:0834AE000A7D0A7F0A023B3887
:1000460000000000000000000000000000000000AA
:10005600000000000000000000000000000000009A
:10006600000000000000000000000000000000008A
:10007600000000000000000000000000000000007A
:10008600000000000000000000000000000000006A
:10009600000000000000000000000000000000005A
:1000A600000000000000000000000000000000004A
:1000B600000000000000000000000000000000003A
:1000C600000000000000000000000000000000002A
:1000D600000000000000000000000000000000001A
:1000E600000000000000000000000000000000000A
:1000F60000000000000000000000000000000000FA
:100106000000000000000000C6BDD1F4A3ACB5BDE0
:10011600C1CBA1A3C7EBC7B0CDF9C0E8CDD0C2B75C
:10012600B5C4B3CBBFCDD7BCB1B8CFC2B3B5A1A30D
:10013600CFC2B3B5CAB1A3ACC7EBD7A2D2E2C1D086
:10014600B3B5D3EBD5BECCA8D6AEBCE4B5C4BCE43F
:10015600CFB6A1A3000000000000000000000000D0
:100166000000000000000000000000000000000089
:100176000000000000000000000000000000000079
:100186000000000000000000000000000000000069
:100196000000000000000000000000000000000059
:1001A6000000000000000000000000000000000049
:1001B6000000000000000000000000000000000039
:1001C6000000000000000000000000000000000029
:1001D600B3A4C9B3BBF0B3B5C4CFD5BEA3ACB5BD4C
:1001E600C1CBA1A3B1BED5BECEAABBBBB3CBD5BE38
:1001F600A3ACBFC9BBBBB3CB32BAC5CFDFA1A2B4D8
:10020600C5B8A15332CFDFA1A3C7EBC7B0CDF9B8AC
:10021600DFCCFAC4CFD5BEA1A2B4C5B8A15332CFA4
:10022600DFA1A2C0E8CDD0B8DFCBD9C6FBB3B5D528
:10023600BEB5C4B3CBBFCDD7BCB1B8CFC2B3B5A1E1
:10024600A3CFC2B3B5CAB1A3ACC7EBD7A2D2E2C1A2
:10025600D0B3B5D3EBD5BECCA8D6AEBCE4B5C4BC42
:10026600E4CFB6A1A30000000000000000000000DB
:100276000000000000000000000000000000000078
:100286000000000000000000000000000000000068
:100296000000000000000000B9E2B4EFA3A8BBE133
:1002A600D5B9D6D0D0C4A3A9A3ACB5BDC1CBA1A3A3
:1002B600B1BED5BECEAABBBBB3CBD5BEA3ACBFC960
:1002C600BBBBB3CB32BAC5CFDFA1A3C7EBC7B0CD9B
:1002D600F9B3A4C9B3B9FABCCABBE1D2E9D6D0D046
:1002E600C4A1A2B3A4C9B3B9FABCCABBE1D5B9D6F5
:1002F600D0D0C4A1A2B3A4C9B3B9FABCCABBE1D5D4
:10030600B9D0C2B3C7B5C4B3CBBFCDD7BCB1B8CFD4
:10031600C2B3B5A1A3CFC2B3B5CAB1A3ACC7EBD71D
:10032600A2D2E2C1D0B3B5D3EBD5BECCA8D6AEBC73
:10033600E4B5C4BCE4CFB6A1A300000000000000F1
:1003460000000000000000000000000000000000A7
:100356000000000000000000000000000000000097
:10036600D6D5B5E3D5BEA3ACB6C5BCD2C6BAA3AC8A
:10037600B5BDC1CBA1A3C7EBC8ABCCE5B3CBBFCD55
:10038600D0AFB4F8BAC3CBE6C9EDCEEFC6B7D7BC8B
:10039600B1B8CFC2B3B5A1A3CFC2B3B5CAB1A3ACEE
:1003A600C7EBD7A2D2E2C1D0B3B5D3EBD5BECCA8AA
:1003B600D6AEBCE4B5C4BCE4CFB6A1A3BBB6D3AD40
:1003C600C4FAD4D9B4CEB3CBD7F8B5D8CCFAC1D009
:1003D600B3B5A3ACD4D9BCFBA3A1000000000000B8
:1003E6000000000000000000000000000000000007
:1003F60000000000000000000000000000000000F7
:1004060000000000000000000000000000000000E6
:1004160000000000000000000000000000000000D6
:100426000000000000000000B3B5C3C5BCB4BDABFE
:10043600B9D8B1D5A3ACBDF7B7C0BCD0C9CB000005
:1004460000000000000000000000000000000000A6
:100456000000000000000000000000000000000096
:100466000000000000000000000000000000000086
:100476000000000000000000000000000000000076
:100486000000000000000000000000000000000066
:100496000000000000000000000000000000000056
:1004A6000000000000000000000000000000000046
:1004B6000000000000000000000000000000000036
:1004C6000000000000000000000000000000000026
:1004D6000000000000000000000000000000000016
:1004E6000000000000000000000000000000000006
:1004F60000000000000000000000000000000000F6
:1005060000000000000000000000000000000000E5
:1005160000000000000000000000000000000000D5
:1005260000000000000000000000000000000000C5
:1005360000000000000000000000000000000000B5
:1005460000000000000000000000000000000000A5
:1005560000000000B1BEB4CEC1D0B3B5BFAACDF97C
:10056600A3ACB6C5BCD2C6BAA1A3CFC2D2BBD5BEB8
:10057600A3ACC6BDD1F4A1A3B3B5C3C5BFAAC6F487
:10058600B7BDCFF2CEAAD7F3B2E0A1A30000000018
:100596000000000000000000000000000000000055
:1005A6000000000000000000000000000000000045
:1005B6000000000000000000000000000000000035
:1005C6000000000000000000000000000000000025
:1005D6000000000000000000000000000000000015
:1005E6000000000000000000000000000000000005
:1005F60000000000000000000000000000000000F5
:1006060000000000000000000000000000000000E4
:10061600000000000000000000000000B1BEB4CEE3
:10062600C1D0B3B5BFAACDF9A3ACB6C5BCD2C6BAC4
:10063600A1A3CFC2D2BBD5BEA3ACB3A4C9B3BBF0F2
:10064600B3B5C4CFD5BEA1A3B3B5C3C5BFAAC6F4BF
:10065600B7BDCFF2CEAAD7F3B2E0A1A3B8F7CEBB0F
:10066600B3CBBFCDC7EBD7A2D2E2A3ACD0E8BBBB1E
:10067600B3CB32BAC5CFDFA1A2B4C5B8A15332CF2E
:10068600DFB5C4B3CBBFCDA3ACC7EBD4DAB3A4C933
:10069600B3BBF0B3B5C4CFD5BECFC2B3B5A1A3002B
:1006A6000000000000000000000000000000000044
:1006B6000000000000000000000000000000000034
:1006C6000000000000000000000000000000000024
:1006D6000000000000000000000000000000000014
:1006E60000000000B1BEB4CEC1D0B3B5BFAACDF9EB
:1006F600A3ACB6C5BCD2C6BAA1A3CFC2D2BBD5BE27
:10070600A3ACB9E2B4EFA3A8BBE1D5B9D6D0D0C4A7
:10071600A3A9A1A3B3B5C3C5BFAAC6F4B7BDCFF2FB
:10072600CEAAD7F3B2E0A1A3B8F7CEBBB3CBBFCD69
:10073600C7EBD7A2D2E2A3ACD0E8BBBBB3CB32BAED
:10074600C5CFDFB5C4B3CBBFCDA3ACC7EBD4DAB945
:10075600E2B4EFA3A8BBE1D5B9D6D0D0C4A3A9CF44
:10076600C2B3B5A1A3000000000000000000000015
:100776000000000000000000000000000000000073
:100786000000000000000000000000000000000063
:100796000000000000000000000000000000000053
:1007A600000000000000000000000000CFC2D2BB25
:1007B600D5BEA3ACCAC7B1BEB4CEC1D0B3B5D6D52B
:1007C600B5E3D5BEA3ACB6C5BCD2C6BAA1A3B3B574
:1007D600C3C5BFAAC6F4B7BDCFF2CEAAD7F3B2E05F
:1007E600A1A3C1D0B3B5D4CBD0D0CAB1A3ACC7EB0B
:1007F600D5BECEC8B7F6BAC3A3ACC7EBCEAAD3D084
:10080600D0E8D2AAB5C4B3CBBFCDC8C3D7F9A3AC81
:10081600B6E0D0BBBACFD7F7A1A300000000000016
:1008260000000000000000000000000000000000C2
:1008360000000000000000000000000000000000B2
:1008460000000000000000000000000000000000A2
:100856000000000000000000000000000000000092
:100866000000000000000000000000000000000082
:04087600000000007E
:101B40004101700041017B004A01710000000F005B
:051B50000F000F000F63
:103CC700900170E0B4410790017B7401F022E49009
:043CD700017BF0225B
:102FEF0090017BE06401605E900136E0FAA3E0FBA4
:102FFF0025E0FFEA33FE74712FF58274013EF583ED
:10300F00E0FEA3E0FF900130E0B5061FA3E0B50797
:10301F001A2010177C007DC8AF03AE021209EA74A4
:10302F00462FF974003EFA7BFF8018900130E07054
:10303F0004A3E06405700F30100C7BFF7A04792E27
:07304F007D64FC1238BB2276
:0400260000A8C0006E
:0E1B55004401910000000044019600000000D1
:0F3D9800122F83122FEF12317012354302106E6B
:033E9E00023B786C
:10370F003F065B4F666D7D077F6F000840014148A4
:10371F00BF86DBCFE6EDFD87FFEF777C395E7971F2
:10372F003D7606383F736D3E6E5F7C585E7B716FE2
:0C373F00741038545C7367506D781C6E79
:081B63004101B0FF4101B10096
:103D1400EFC394004009EFD3946450037F01227FE2
:023D240000227B
:1031CA00E4F50F9001B104F09001B074FFF0E4F55A
:1031DA000FAF0F123BB39000E5EFF0E0FFE50FFDF4
:1031EA003395E0FC744E2DF58274013CF583EFF0C3
:1031FA00EFF46006123D14EF7014AF0FEF3395E051
:10320A00FE744E2FF58274013EF5837428F0050F83
:09321A00C3E50F6480948440B800
:013223002288
:10396E009001B1E070031231CA900195E0FF123B55
:10397E00B39000E4EFF0F46008E0FF123D14EF7036
:09398E00037F28229000E4E0FF11
:01399700220D
:103943008F0E9001B1E070031231CAAF0E123D1415
:10395300EF70037FFF22900195E0FFAD0E123C9DB7
:0B396300900195E09001B0F07F002281
:023787008F0DA4
:103789009001B1E070031231CAAF0D123D14EF7010
:10379900057EFF7FFF2212396E9000E3EFF0B50D31
:1037A90004E4FEFF22AF0D123943EF7005FE7F01DD
:0637B90080047EFF7FFF8B
:0137BF0022E7
:063E8F002C00425350001C
:101B6B006020006E0000000000000000000000007C
:101B7B00000000000000000000000000000000005A
:101B8B00000000006020008E00000000000000003C
:101B9B00000000000000000000000000000000003A
:101BAB0000000000000000004100B1004300AE4205
:021BBB00535085
:1037F6007B017A00796E7D0A123BEBAE02AF018F38
:10380600828E83EF4E6014E4F09000B17402F07B78
:10381600017A00796E1212C902000E9000B174038B
:01382600F0B1
:01382700227E
:1032D5007F007EC27D017C00122F0C7E007F207D49
:1032E500007B017A00796E120D4C7E007F207D00F7
:1032F5007B017A00798E120D4C7BFF7A3779F67F48
:1033050009122E17750D01750E00750FAE7510009B
:103315007511037B017A00796E7D207C0012388A55
:06332500E49000B1F0226B
:10000E007E007F207D007B017A00796E120D4CE41C
:05001E009000B1F0228A
:0B3E21009000B1E0B4030312000E2279
:0612C9008B088A09890A66
:1012CF00E49000D2F0A3F0AE02AF01EF4E60071230
:1012DF003CB2EF4E700302143878B27C007D01AB44
:1012EF0008AA09A90A120D2F7510FF75113E751264
:1012FF008F7B017A0079B2021419E50C450B70034C
:10130F000214279000D2E0FEA3E0FFC3940AEE641C
:10131F008094804003021427EE60030213FCEF1445
:10132F00B4090040030213FC90134575F003A4C5E4
:10133F008325F0C5837302136002136E02137C02C0
:10134F00138A0213980213A60213B90213D00213C1
:10135F00E7AA0BA90C7B011225B59000D48044AAF3
:10136F000BA90C7B011225B59000D68036AA0BA9CC
:10137F000C7B011225B59000D88028AA0BA90C7BF5
:10138F00011225B59000DA801AAA0BA90C7B011265
:10139F0025B59000DC800CAA0BA90C7B011225B59A
:1013AF009000DEEEF0A3EFF08043AA0BA90C7B01B7
:1013BF001225B59000E2EFF0D394014030E4F080B5
:1013CF002CAA0BA90C7B011225B59000E0EFF0D3EE
:1013DF0094014019E4F08015AA0BA90C7B0112258A
:1013EF00B59000E1EFF0D394014002E4F09000D308
:1013FF00E004F070069000D2E004F07510FF751154
:10140F003E75128F7B007A007900122D97AE02AFD6
:10141F00018E0B8F0C021309C39000D3E0940A9036
:10142F0000D2E06480948050057EFF7FFF22900100
:10143F0095E0FD3395E0FC744E2DF58274013CF57B
:10144F0083E0FF9000D8E0FAA3E0FB6F7001EA6041
:10145F0011AF03744E2DF58274013CF583EFF0123A
:10146F003787900195E0FF3395E0FE74AC2FF5823E
:10147F0074013EF583E0FD9000DAE0FAA3E0FB6D26
:10148F007001EA600F74AC2FF58274013EF583EBA7
:10149F00F01229A39000E0E0FF900195E0FD339555
:1014AF00E0FC74912DF58274013CF583EFF0900010
:1014BF00E1E0FF74962DF58274013CF583EFF0E4C3
:0214CF00FEFF1E
:0114D10022F8
:101F71003EF583E0FF7E009000B2E0FCA3E0248EFA
:071F8100F974003CFA7B013A
:061F88008B088A09890A9A
:101F8E00E49000B6F0A3F0A3EEF0A3EFF0E490001F
:101F9E00C4F0A3F0EF4E701774301209B6AB08AA56
:101FAE0009A90A900001E41209C87E007F0122D31C
:101FBE009000B9E094009000B8E094004053900077
:101FCE00C5E0940A9000C4E0648094805043900071
:101FDE00B8E0FAA3E0FB7C007D0AFFAE021209FC1A
:101FEE00ED2430FF9000C4E475F001120A9DFC74DC
:101FFE00BA25F0F58274003CF583EFF07C007D0A83
:10200E00AF03AE021209FC9000B8EEF0A3EFF08021
:10201E009E9000C5E024FFFE9000C4E034FF9000C7
:10202E00B4F0A3CEF09000B4E0FEA3E0FFC3EE64E4
:10203E00809480403574BA2FF58274003EF583E0AB
:10204E00FFAB08AA09A90A9000B6E475F001120ABE
:10205E009D85F082F583EF1209C89000B5E024FF4C
:10206E00F09000B4E034FFF080BBAB08AA09A90AD7
:10207E009000B6E0FEA3E0FFF5828E83E41209C85D
:01208E00222F
:10106E00E49000B2F0A3F0123E37BF01037F0322DB
:10107E007E007F207D007B017A00798E120D4C78E8
:10108E008E7C007D017BFF7A3E7991120D2F7B01C4
:10109E007A00798E123CB29000B2EEF0A3EFF0908F
:1010AE0000B2E475F001120A9DFE748E25F0F582F1
:1010BE0074003EF583742CF0900195E0FF3395E0BB
:1010CE00FE121F789000B3E02FF09000B2E03EF0D9
:1010DE00E475F001120A9DFE748E25F0F5827400FF
:1010EE003EF583742CF0900136E0FEA3E0FF121F54
:1010FE00789000B3E02FF09000B2E03EF0E475F08F
:10110E0001120A9DFE748E25F0F58274003EF58361
:10111E00742CF0900142E0FEA3E0FF121F789000C5
:10112E00B3E02FF09000B2E03EF0E475F001120A49
:10113E009DFE748E25F0F58274003EF583742CF0BE
:10114E00900195E0FF3395E0FE744E2FF582740109
:10115E00121F719000B3E02FF09000B2E03EF0E469
:10116E0075F001120A9DFE748E25F0F58274003E14
:10117E00F583742CF0900195E0FF3395E0FE74AC8E
:10118E002FF5827401121F719000B3E02FF09000C2
:10119E00B2E03EF0E475F001120A9DFE748E25F069
:1011AE00F58274003EF583742CF0900132E0FEA3BC
:1011BE00E0FF121F789000B3E02FF09000B2E03EF7
:1011CE00F0E475F001120A9DFE748E25F0F582741E
:1011DE00003EF583742CF090012EE0FEA3E0FF128A
:1011EE001F789000B3E02FF09000B2E03EF0E4756F
:1011FE00F001120A9DFE748E25F0F58274003EF504
:10120E0083742CF0A210E4FE33FF121F789000B30B
:10121E00E02FF09000B2E03EF0E475F001120A9D6E
:10122E00FE748E25F0F58274003EF583742CF090DA
:10123E000195E0FF3395E0FE74912FF58274011253
:10124E001F719000B3E02FF09000B2E03EF0E47515
:10125E00F001120A9DFE748E25F0F58274003EF5A3
:10126E0083742CF0900195E0FF3395E0FE74962F79
:10127E00F5827401121F719000B3E02FF09000B24E
:10128E00E03EF0E475F001120A9DFE748E25F0F535
:10129E008274003EF583740AF0C39000B3E094208C
:1012AE009000B2E06480948040037F03227B017A39
:0A12BE0000798E7D207C00123A6159
:0112C8002203
:031BBD00013D00E7
:10361000E53D703D753E03753F9675400A75410165
:10362000754201F54378087C00FDFB7A00793EFE87
:103630007F0612094A123A89780E7C007D007B00D1
:103640007A00793E7E007F0612094A12244A753DAF
:02365000012255
:10374B00900195E0FF3395E0FE744E2FF5827401E6
:10375B003EF583E0FFD3900143E09F7480F8900126
:10376B0042E0648098400B75660AE4FB7D0A7F3269
:0C377B008006E4F566FBFDFF122B6D22BA
:0B3E2C007F10123D26900195EFF02260
:103D49008F08AD087F10123998900195E508F02287
:103D59002110231025102620251023102120313071
:10354300123E958F08900195E0FF3395E0FE74914C
:103553002FF58274013EF583E06009E508B40304A6
:103563007F01801D900195E0FF3395E0FE74912F5C
:10357300F58274013EF583E0700AE508B401057F26
:0435830003123A11E4
:013587002221
:103C87007BFF7A3D7959753A00753B10753CF37D9A
:063C9700FA7F8702327D76
:101D280000C400DC00F701060126014A017201889F
:101D380001B801EE020B024B029302E40310037098
:101D480003DC04160497052605C800DC00F7011516
:101D58000126014A0172019F01B801EE022A024BD5
:101D6800029302E4033F037003DC0455049705263D
:101D780005C8067D00F701150137014A0172019F68
:101D880001D201EE022A026E029302E4033F03A489
:101D980003DC045504DD057505C8067D0749010601
:101DA8000126014A015D018801B801EE020B024BD0
:101DB800029302BA0310037003DC04160497052685
:101DC8000575062006E007B80126014A0172018858
:101DD80001B801EE022A024B029302E403100370D9
:101DE80003DC04550497052605C8062006E007B855
:101DF80008AA014A0172019F01B801EE022A026E87
:101E0800029302E4033F037003DC045504DD052656
:101E180005C8067D06E007B808AA09B9015D01886A
:101E280001B801D2020B024B029302BA03100370ED
:101E380003A40416049705260575062006E007493D
:061E4800082D092D0A4DD2
:101BC0004D0157030000000000000000000000006D
:062663008F528D538B54D1
:10266900123DFEEF60037F0122E554D3940040063A
:10267900E55494114028E554D394174006E5549441
:1026890021401BE554D394274006E5549431400E6C
:10269900E554D394375007E552C394F950037F03A7
:1026A90022E554603DC4540F75F007A4FDACF0E574
:1026B9005275F015A42DFFE5F03CFEE55454077C56
:1026C900002FFFEC3EFEEF25E0FFEE33FE743E2FB8
:1026D900F58274F43EF583E493F556740193F55746
:1026E9008005E4F556F557AF557E007C017D7712DC
:1026F90009EAAD531C1209FCAD07AC06AF57AE563B
:03270900122E94F9
:01270C0022AA
:040D7800157115716B
:100D7C00123DFEEF70047F0180027F00900157E06E
:100D8C00FEB402047D0180027D00ED5F6003021061
:100D9C0069EEB4030AE4900155F0A3F002106990D7
:100DAC000158E0FFB4F3047E0180027E00EFB4F141
:100DBC00047F0180027F00EF4E603E90015AE0FEFE
:100DCC0075F06484FFEE75F00A8475F00A84ADF05A
:100DDC00E075F00A84ABF0750B0A900159E024071A
:100DEC00F50C900154E0FEC4540F240AF50D750E59
:100DFC000AEE5407F50F123B38900158E0FFB4F39C
:100E0C00047E0180027E00EFB4F2047F0180027F39
:100E1C0000EF4E7003020EC290015AE0FD7C007E82
:100E2C00177F701209FCA871A607E6F975F002A4E9
:100E3C00FFC3900163E09F900162E095F05070E079
:100E4C00FEA3E0FF7C007D0B1209EAE9FBFD120911
:100E5C00FCA87108A607900162E475F001120A9DC6
:100E6C00FED3E5F09BEE94004018A87108E624F937
:100E7C00FFE47EF0A807088005CEC313CE13D8F983
:100E8C00801FA87108E6FF740F7E00A80708800574
:100E9C00C333CE33CED8F97804CEA2E713CE13D811
:100EAC00F8A87108F6A87108E6FF123E838007E4E3
:100EBC00900162F0A3F090015EE0FEA3E0FFC3900E
:100ECC000161E09F900160E09E4003021063123DBF
:100EDC00FEEF600302106990015BE0FBA3E0FAA354
:100EEC00E0F9900160E0FEA3E0F5828E831209899F
:100EFC00FFD394375003020FFEEF241024FC5079DB
:100F0C00604524FE7003020FA9147003020FBF2466
:100F1C00026003020FED90015BE0FBA3E0FAA3E09B
:100F2C00F9900160E475F001120A8785F082F5836F
:100F3C00120989900159F0900161E004F0709890C9
:100F4C000160E004F0809090015BE0FBA3E0FAA369
:100F5C00E0F9900160E475F001120A8785F082F5E2
:100F6C008312098990015AF0900161E004F0706ECF
:100F7C00900160E004F0020EE390015BE0FBA3E063
:100F8C00FAA3E0F9900160E475F001120A9D85F076
:100F9C0082F583120989900158F0020EE3900160EA
:100FAC00E475F001120A87AFF0900155F0A3EFF051
:100FBC00020EE3900155E0FEA3E0FF4E601290019B
:100FCC0060EEF0A3EFF0E4900155F0A3F0020EE315
:100FDC00900161E004F07006900160E004F0020EF4
:100FEC00E3900161E004F07006900160E004F0020F
:100FFC000EE390015EE0FEA3E0FFC3900161E09F71
:10100C00900160E09E505690015BE0FBA3E0FAA3D8
:10101C00E0F9900160E475F001120A9D85F082F50B
:10102C0083120989900154F0900159E0FFA3E0FD6F
:10103C00A3E0FBA3E0FAA3E0F9900160E475F001F2
:10104C00120A9D85F082F583120989F55590015499
:0D105C00E0FB12266380069001577403F03C
:05106900057105712274
:0F3DA70090004274FFF0A3740DF0A37478F02223
:10327D00900157E0B4030DE4900160F0A3F0A3F0CA
:10328D00A3F0C211EF600490015AF0ED60049001BB
:10329D0059F0E94A60047F0180027F00E53B453A21
:1032AD0060047E0180027E00EE5F601390015BEB97
:1032BD00F0A3EAF0A3E9F0A3E53AF0A3E53BF0E5CE
:0832CD003C6004900158F0225E
:103A1100BF02047E0180027E00BF01047D0180029D
:103A21007D00ED4EFEBF03047D0180027D00ED4E61
:083A31006005900157EFF0223F
:063E9500900157E0FF223E
:041BD0004101A2012C
:103C3D00C295E4FEEF1392CC000000D29500EFC3C5
:083C4D0013FFC2950EBE08EC46
:013C5500224C
:103C6F00E4FEEFC313FF30CC03430780D29500006F
:073C7F0000C2950EBE08EB28
:013C8600221B
:1038EA00F07F851238FDA3EFF07F871238FDA3EF32
:0338FA00F07F89D3
:1038FD00C296000000C295000000D29600123C3D19
:0A390D00123C6FD295000000C29634
:01391700228D
:033B5800A3E0FDEA
:103B5B00C296000000C295000000D29600123C3DB8
:0D3B6B00AF05123C3DD295000000C296222D
:073E76007B017A01799B2218
:103C5600789B7C017D017B007A0079447E007F079A
:093C660012094AE49001A2F022C7
:103D2600EFD3941F5009EF25E044C1FF0238FD7F11
:023D3600012268
:10399800AC07AB05ECD3941F501CE4FD7F8E123BA3
:1039A8005BEC25E044C0FFAD03123B5B7D807F8E5E
:0939B800123B5B7F00227F01221B
:02285A001571F6
:10285C009001A2E060447F811238FDA871EFF690E0
:10286C00019BE06F70030228FCA871E6F07F8312D5
:10287C0038FDA871EFF6A3E06F6075A871E6123809
:10288C00EAA3EFF07F8D1238FD9001A1EFF07F8B62
:10289C001238FD9001A0EFF0805690019AE0FF04F1
:1028AC00F0EFC3940A4049E4F09001A204F0E4FD77
:1028BC007F8E123B5B90019BE0FD7F80123B5B7F28
:1028CC0082123B587F84123B58A3E0FD7F86123B5B
:1028DC005BA3E0FD7F88123B5BA3E0FD7F8A123B8C
:1028EC005BA3E0FD7F8C123B5B7D807F8E123B5B9C
:0328FC0005712241
:10208F007F811238FD90019BEFF07F831238FDA303
:10209F00EF1238EAA3EFF07F8B1238FDA3EFF07F3A
:1020AF008D1238FDA3EFF0E4FD7F8E123B5B7F1E98
:1020BF00123D26EF64A560047F0180027F0090012E
:1020CF009BE05480FEA3E0D3945940047D0180022D
:1020DF007D00ED4EFE90019DE0D394A440047D0160
:1020EF0080027D00ED4EFE90019EE0D394314004BE
:1020FF007D0180027D00ED4EFE90019FE0D3941292
:10210F0040047D0180027D00ED4EFE9001A0E0D3E2
:10211F00940740047D0180027D00ED4EFE9001A1E9
:10212F00E0D3949940047D0180027D00ED4E4F6015
:10213F003078447C007D007B007A00794B7E007FF5
:10214F000712094A123C567DA57F1E123998789BBB
:10215F007C017D017B007A00794B7E007F0712099D
:10216F004A7DA97F90123B5B7D807F8E123B5B90F7
:0E217F00005A74FFF0A37428F0A3745AF022E3
:103D6900D2C0000000D2CD000000C2C00000002275
:0D002E00C2C0000000D2CD000000D2C022F0
:0B3AAE00123AD2123AB9AF05123AD218
:103AB900E4FFD2CD30C009EFC394FF50030F80F467
:083AC900000000C2CD00000066
:013AD10022D2
:103AD200E4FEEF25E0FFC2CD00000092C00000002E
:103AE200D2CD0000000EBE08E9C2CD000000D2C057
:033AF200000000D1
:013AF50022AE
:103AF600C2CD000000D2C000E4FED2CD0000EF250A
:103B0600E0FDA2C0E4334DFF0000C2CD000EBE08AA
:013B1600E9C5
:013B1700228B
:103C9D00AC07123D697FA0123AD2123AB9AF0412A5
:053CAD003AAE02002EFA
:023BB300AD075C
:103BB500123D697FA0123AAE123D697FA1123AD239
:093BC500123AB9123AF612002E70
:013BCE0022D4
:0B1BD4004801A3D4111A50400288A55C
:093CDB007F03123CE4D2C57F0313
:0A3CE400AE071FEE60030080F72218
:103CEE00D2A7123CDBC2A77F03123CE4C2C57F03FE
:033CFE00023CE4A1
:0C3E0A00C2A7123CDBD2A77F03023CE4FD
:103BCF00E4FFD2C530A709EFC394FA50030F80F476
:0C3BDF007F03123CE4C2C57F03023CE4FB
:023A3900AD07D7
:103A3B00E4FBC2C57F03123CE4ED3392A7ED25E016
:103A4B00FD123CDB0BBB08EAC2C57F03123CE4D280
:063A5B00C57F03023CE4FC
:023588001571BB
:10358A009001ABE064017037123CEE7F20123A39A9
:10359A00123BCFA871E4F6A871E6FFC3940850174E
:1035AA0074A32FF582E43401F583E0FF123A39124D
:0F35BA003BCFA8710680E0123E0AE49001ABF00F
:0335C90005712267
:103114009001A5E025E025E0FFA3E0C413135403C8
:103124002F2466F515E43403F5149001AAE0540F36
:10313400F5169001A8E0543FFF5403FEBE03057545
:1031440017FF8003E4F517EF540CFEBE0C05751849
:10315400FF8003E4F518EF5430FFBF30057519FF05
:0B3164008003E4F5197B007A00791469
:01316F00223D
:10244A00D3E50F9438E50E940450047F0180027F8F
:10245A0000C3E50F9466E50E940340047E018002F2
:10246A007E00EE5F6030123114120AB3650F7004F9
:10247A00E5F0650E6020E50F249AFD1313543F9092
:10248A0001A5F0ED5403FFC4333354C04410A3F044
:10249A009001AB7401F0123114E92402F9E43AFA1A
:1024AA00120970651060047F0180027F00E510D375
:1024BA00940F50047E0180027E00EE5F6011E510E9
:1024CA00540FFF9001AAE054F04FF0A37401F07D7D
:1024DA002AE5116003430501E5126003430504E59B
:1024EA001360034305109001A8E06D6008EDF090B9
:0524FA0001AB7401F0CC
:0124FF0022BA
:103A8900780E7C007D007B007A0079087E007F0635
:103A990012094A12244A90005774FFF0A37435F0B2
:053AA900A37488F02267
:102B6D008B65AA077C007E037FE81209FC90018328
:102B7D00EEF0A3EFF0E566FD7C007E037FE8120921
:102B8D00FCA3EEF0A3EFF0AF02AB07E4FAF9F89077
:102B9D000183E0FEA3E0FFE4FCFD120ADEEF243228
:102BAD00FFE43EFEE43DFDE43CFCE47B64FAF9F811
:102BBD001235CC90017DEEF0A3EFF0AF65AB07E4DD
:102BCD00FAF9F8900185E0FEA3E0FFE4FCFD120A9E
:102BDD00DEEF2432FFE43EFEE43DFDE43CFCE47B0D
:102BED0064FAF9F81235CC90017FEEF0A3EFF022E4
:10322400E4F561F560F55FF55EF562D291AF61AEEC
:1032340060AD5FAC5E7801120C228F618E608D5F91
:103244008C5E00C291309015E4FAF9F8EF2401F590
:1032540061EA3EF560E93DF55FE83CF55E0562E54F
:1032640062B418C700D2910000C291AF61AE60ADE4
:083274005FAC5E7808120C0E3D
:01327C00222F
:093E6600900181E0FEA3E0FF22BF
:0F3D7900900181E0FEA3E0FFE4900181F0A3F050
:013D88002218
:1023630090017CE0700F30900122123224900181A1
:10237300EEF0A3EFF090017CE0FF64017062055979
:10238300E55970020558FDD3900184E09D900183C7
:10239300E095585005E4F558F559D390017EE09542
:1023A3005990017DE095584004D2908002C2900577
:1023B3005BE55B7002055AFDD3900186E09D9001B9
:1023C30085E0955A5005E4F55AF55BD3900180E01A
:1023D300955B90017FE0955A4004D2918002C291AF
:1023E300EF6402703E2090047F0180027F00E55C71
:1023F30060047E0180027E00EE5F602130911090C8
:102403000182E004F07016900181E004F0800E90E8
:102413000182E024FFF0900181E034FFF0A290E418
:1024230033F55C90017CE0B4031CE55D7002D2914E
:10243300E55DB40105C29175DB21055DE55DC394DE
:06244300C84003E4F55D52
:012449002270
:1037C00090017CEFF07004C2918002D29190017C54
:1037D000E0B40310E5A254CFF5A2E4F5D975DB01FE
:1037E000D2DE8003E4F5DB90005D74FFF0A3742368
:0637F000F0A37463F02257
:101BDF005501190000000000000000000000000087
:081BEF000000010000000000ED
:03002300021BF8C5
:101BF800C0E0C0F0C083C082C0D075D000C000C0B3
:101C080001C002C003C004C005C006C00730993B2C
:101C1800C29990011EE0FEA3E0FFC390011DE09F62
:101C280090011CE09E501F900119E0FBA3E0FAA36D
:101C3800E0F9A3E475F001120A9D85F082F583129C
:101C48000989F5998005900120E4F0209803021D88
:101C58000DC298300B09C20B900126E4F0A3F09056
:101C68000124E0FEA3E0FFA3E0FCA3E0FDC39FEC9A
:101C78009E5077900121E0FBA3E0FAA3E0F98D8262
:101C88008C83E5991209C890012CE0FEA3E0FFC3FC
:101C9800ED9FEC9E5046900124E0FCA3E0FDEF9DF3
:101CA800EE9C5038900129E0FBA3E0FAA3E0F990FC
:101CB8000126E0FEA3E0FFF5828E83120989FD90DC
:101CC8000121E0FBA3E0FAA3E0F98F828E831209D9
:101CD800896D600890012674FFF0A3F0900127E059
:101CE80004F07006900126E004F0900124E0FEA3C1
:101CF800E0FFC3900127E09F900126E09E400690F8
:101D080001287401F0D007D006D005D004D003D044
:101D180002D001D000D0D0D082D083D0F0D0E03231
:023DB600157185
:0A3DB800900128E0A871F6FFE4F086
:033DC20005712266
:102F0C008F0B8E0A8D098C08759850438E40538E0A
:102F1C00FE53890FE47B04FAF9F8900026120C3565
:102F2C00120B69AB0BAA0AA909A808120B69EFF4DA
:102F3C0004F58BE47B04FAF9F8900026120C351298
:102F4C000B69AB0BAA0AA909A808120B69C3E49F69
:102F5C00FFE49EFE74019DFDE49CFC7808120BFBC3
:102F6C008F8DC2ABD28ED2AC90004E74FFF0A37496
:072F7C003DF0A374B6F02242
:10388A00900121EBF0A3EAF0A3E9F0A3ECF0A3ED99
:10389A00F090012CE510F0A3E511F0900129E50D57
:1038AA00F0A3E50EF0A3E50FF0D20BE4900128F0A7
:0138BA0022EB
:103A6100900120E0701F900119EBF0A3EAF0A3E9A7
:103A7100F0E4A3F0A3F0A3ECF0A3EDF0A37401F044
:083A8100D2997F02227F03228B
:0B3E3700900120E07002FF227F0122BA
:03000000022BFDD3
:0C2BFD00787FE4F6D8FD758171022C444D
:10087A00E709F608DFFA8046E709F208DFFA803E60
:10088A0088828C83E709F0A3DFFA8032E309F6084D
:10089A00DFFA8078E309F208DFFA807088828C83B5
:1008AA00E309F0A3DFFA806489828A83E0A3F60869
:1008BA00DFFA805889828A83E0A3F208DFFA804C43
:1008CA0080D280FA80C680D4806980F2803380101A
:1008DA0080A680EA809A80A880DA80E280CA803383
:1008EA0089828A83ECFAE493A3C8C582C8CCC583FB
:1008FA00CCF0A3C8C582C8CCC583CCDFE9DEE780CB
:10090A000D89828A83E493A3F608DFF9ECFAA9F049
:10091A00EDFB2289828A83ECFAE0A3C8C582C8CC9F
:10092A00C583CCF0A3C8C582C8CCC583CCDFEADEB8
:10093A00E880DB89828A83E493A3F208DFF980CC1A
:10094A0088F0EF60010E4E60C388F0ED2402B40413
:10095A000050B9F582EB2402B4040050AF232345BA
:06096A0082239008CA730D
:10097000BB010689828A83E0225002E722BBFE0285
:09098000E32289828A83E49322B8
:10098900BB010CE58229F582E5833AF583E0225023
:1009990006E92582F8E622BBFE06E92582F8E2226D
:0D09A900E58229F582E5833AF583E4932287
:1009B600BB010689828A83F0225002F722BBFE0120
:0209C600F3221A
:1009C800F8BB010DE58229F582E5833AF583E8F065
:1009D800225006E92582C8F622BBFE05E92582C811
:0209E800F222F9
:1009EA00EF8DF0A4A8F0CF8CF0A428CE8DF0A42E21
:0209FA00FE22DB
:1009FC00BC000BBE0029EF8DF084FFADF022E4CCDF
:100A0C00F875F008EF2FFFEE33FEEC33FCEE9DECA7
:100A1C00984005FCEE9DFE0FD5F0E9E4CEFD22EDED
:100A2C00F8F5F0EE8420D21CFEADF075F008EF2F37
:100A3C00FFED33FD4007985006D5F0F222C398FD28
:050A4C000FD5F0EA22C5
:100A5100C2D5EC30E709B2D5E4C39DFDE49CFCEEC0
:100A610030E715B2D5E4C39FFFE49EFE1209FCC333
:100A7100E49DFDE49CFC80031209FC30D507C3E42E
:060A81009FFFE49EFE222F
:100A8700C5F0F8A3E028F0C5F0F8E58215827002FA
:060A97001583E038F02297
:100A9D00A3F8E0C5F025F0F0E5821582700215830C
:060AAD00E0C838F0E82269
:100AB300BB010A89828A83E0F5F0A3E0225006870E
:100AC300F009E71922BBFE07E3F5F009E3192289D0
:0B0AD300828A83E493F5F07401932203
:100ADE00E88FF0A4CC8BF0A42CFCE98EF0A42CFCB7
:100AEE008AF0EDA42CFCEA8EF0A4CDA8F08BF0A435
:100AFE002DCC3825F0FDE98FF0A42CCD35F0FCEB94
:100B0E008EF0A4FEA9F0EB8FF0A4CFC5F02ECD3958
:0F0B1E00FEE43CFCEAA42DCE35F0FDE43CFC22C5
:100B2D0075F008758200EF2FFFEE33FECD33CDCC7F
:100B3D0033CCC58233C5829BED9AEC99E582984002
:100B4D000CF582EE9BFEED9AFDEC99FC0FD5F0D6DF
:100B5D00E4CEFBE4CDFAE4CCF9A88222B800C1B909
:100B6D000059BA002DEC8BF084CFCECDFCE5F0CB47
:100B7D00F97818EF2FFFEE33FEED33FDEC33FCEB80
:100B8D0033FB10D703994004EB99FB0FD8E5E4F93B
:100B9D00FA227818EF2FFFEE33FEED33FDEC33FC28
:100BAD00C933C910D7059BE99A4007EC9BFCE99A1C
:100BBD00F90FD8E0E4C9FAE4CCFB2275F010EF2F61
:100BCD00FFEE33FEED33FDCC33CCC833C810D70761
:100BDD009BEC9AE899400AED9BFDEC9AFCE899F89C
:0E0BED000FD5F0DAE4CDFBE4CCFAE4C8F9222F
:1035CC00C2D5E830E70FB2D5E4C39BFBE49AFAE42A
:1035DC0099F9E498F8EC30E717B2D5123602120BD1
:1035EC0069E4C39BFBE49AFAE499F9E498F8800344
:1035FC00120B6930D50DE4C39FFFE49EFEE49DFDE4
:04360C00E49CFC221C
:100BFB00E8600FECC313FCED13FDEE13FEEF13FFD8
:030C0B00D8F122FB
:100C0E00E86010ECA2E713FCED13FDEE13FEEF13FC
:040C1E00FFD8F022E9
:100C2200E8600FEFC333FFEE33FEED33FDEC33FC30
:030C3200D8F122D4
:100C3500E493FC740193FD740293FE740393FF2205
:0C0C4500ECF0A3EDF0A3EEF0A3EFF02222
:0C0C5100A42582F582E5F03583F58322AE
:060C5D008A838982E47322
:100C6300E709F60870FA8046E709F20870FA803E51
:100C730088828C83E709F0A370FA807EE309F60883
:100C830070FA8076E309F20870FA806E88828C83AA
:100C9300E309F0A370FA806289828A83E0A3F608ED
:100CA30070FA805689828A83E0A3F20870FA804A38
:100CB30080D280FA80C680D4806580F28031801033
:100CC30080A680EA809A80A880DA80E280CA803198
:100CD30089828A83ECFAE493A3C8C582C8CCC5830E
:100CE300CCF0A3C8C582C8CCC583CC70E9800D897C
:100CF300828A83E493A3F60870F9ECFAA9F0EDFB7A
:100D03002289828A83ECFAE0A3C8C582C8CCC58352
:100D1300CCF0A3C8C582C8CCC583CC70EA80DD897A
:100D2300828A83E493A3F20870F980CE88F0ED24DD
:100D330002B4040050C4F582EB2402B4040050BA98
:090D43002323458223900CB373B5
:103CB200E4FFFE120970600C0FEF70010E09E9704B
:053CC200F20A80EF2270
:103BEB00E94A4B700122120970FF6D700122EF70D0
:0C3BFB0004FBFAF92209E970ED0A80EAE7
:102D97008B0D8A0E890FE94A4B700985670D856887
:102DA7000E85690FE50F450E450D7002802C8510C5
:102DB70016851117851218AB0DAA0EA90F123056DA
:102DC700EF250FF50FEE350EF50EAB0DFAA90F1225
:102DD7000970700AF567F568F569FBFAF92285103D
:102DE70016851117851218AB0DAA0EA90F1230B749
:102DF7008B678A688969EA494B600EE41209B60451
:102E07002569F569E43568F568AB0DAA0EA90F22A7
:1025B5008B0D8A0E890FAB0DAA0EA90F120970FF9C
:1025C500123D01500D7401250FF50FE4350EF50E82
:1025D50080E4D212AB0DAA0EA90F120970FF642B6D
:1025E5006004EFB42D1BAB0D050FE50FAA0E7002AD
:1025F500050E14F9120970642D6003D38001C3928E
:1026050012E4F510F511AB0DAA0EA90F120970FF12
:10261500123DC55036AB0DAA0EA90F120970FF3336
:1026250095E0FEEF24D0FBEE34FFFAAE10AF117C3F
:10263500007D0A1209EAEF2BF511EE3AF510740147
:10264500250FF50FE4350EF50E80BB301206AE10E2
:0E265500AF118009C3E49511FFE49510FE2239
:100D4C00EF4E6012EF60010EEDBB010B89828A83BE
:100D5C00F0A3DFFCDEFA2289F05007F709DFFCA9CB
:0C0D6C00F022BBFEFCF309DFFCA9F02222
:102C0900022D14E493A3F8E493A34003F68001F2A0
:102C190008DFF48029E493A3F85407240CC8C333CC
:102C2900C4540F4420C8834004F456800146F6DF9B
:102C3900E4800B0102040810204080901A4CE47EC5
:102C4900019360BCA3FF543F30E509541FFEE49390
:102C5900A360010ECF54C025E060A840B8E493A357
:102C6900FAE493A3F8E493A3C8C582C8CAC583CA82
:102C7900F0A3C8C582C8CAC583CADFE9DEE780BE3A
:011BF70000ED
:0F3DC500EFC394304007EF943A50028001C322BD
:103D0100EFC394094005EF940E4003BF2003D38015
:033D110001C322C9
:103056008B138A148915E4F519F51AE4FEFFAB16ED
:10306600AA17A9188F828E83120989FD6013AB13E4
:10307600AA14A9151209706D60070FBF00010E8012
:10308600DDAB16AA17A9188F828E831209897002E2
:10309600801A051AE51A70020519AB130515E51510
:1030A60070020514F9AA1412097070AFAE19AF1A9E
:0130B60022F7
:1030B7008B138A14891585161985171A85181BAB62
:1030C70019AA1AA91B120970FF6019AB13AA14A930
:1030D700151209706F600D7401251BF51BE4351A75
:1030E700F51A80DBAB19AA1AA91B1209706007AB86
:1030F70013AA14A91522AB130515E515AA14700216
:0D310700051414F912097070ADFBFAF922DD
:00000001FF
