:101B270000A8C0003F065B4F666D7D077F6F00080A
:101B370040014148BF86DBCFE6EDFD87FFEF777FAA
:101B4700393F79717D76061E383F736D3E6E5F7C37
:101B5700585E7B716F741038545C7367506D781CD6
:011B67006E0F
:101918007F9B121C64121DE012000E7D07E4FF126B
:101928001ECFE4F5437F607E09FDFC12139C7544CD
:1019380000754500754656E4F547F548FB7A007989
:10194800567D01FC121C957BFF7A1A799F7F07123E
:1019580018447BFF7A1D79FB7F03121844121F0479
:05196800121C2680FBAB
:091EC6008B88898C88898F88893A
:1010150052007A8686008686008686008686008649
:09102500860086860041006F0977
:03002B00021EF8BA
:061EF80053BCEFD20F32D3
:020C480015593C
:100C4A00200F03020DF1C20F90006EE0B4090040BC
:100C5A0003020DD3900C65F8282873020CAC020C21
:100C6A0080020C92020CBE020C80020C92020CD57D
:100C7A00020C80020C92AFBDEFFEADBE7C00E42DEB
:100C8A00FFEC3E900070803CAFBDEFFEADBE7C0035
:100C9A00E42DFFEC3E900072F0A3EFF0751A01020A
:100CAA000DD9AFBDEFFEADBE7C00E42DFFEC3E904A
:100CBA0000748010AFBDEFFEADBE7C00E42DFFECEA
:100CCA003E900076F0A3EFF0020DD9AFBDEFFEAD76
:100CDA00BE7C00E42DFFEC3E900078F0A3EFF0908C
:100CEA000078E0FEA3E07807CEC313CE13D8F9A8A4
:100CFA0059F6C394065013A859E675F003A4247A4A
:100D0A00F582E43400F583E014F090006FE014F00B
:100D1A006003020DD97409F0A859E4F6A859E6FF50
:100D2A00C394064003020DD9EF75F003A4247AF5A3
:100D3A0082E43400F583E0C39480502AE6FF75F01C
:100D4A0003A4247BF582E43400F583E0D394804045
:100D5A0040EF75F003A4247CF582E43400F5837433
:100D6A0001F0F51B802BA859E6FF75F003A4247B3C
:100D7A00F582E43400F583E0C394805014EF75F0F3
:100D8A0003A4247CF582E43400F5837402F0751B15
:100D9A0001A859E6FF75F003A4247AF582E4340029
:100DAA00F583E0FEEF75F003A4247BF582E43400BA
:100DBA00F583EEF0E675F003A4247AF582E43400B4
:100DCA00F5837486F006020D2690006E74FFF0908B
:100DDA00006EE0D39407400374FFF090006EE004C5
:070DEA00F0901EC693F5BC5A
:030DF1000559227F
:021E91001559E1
:091E9300A859A61BE4F51BE6FFAB
:031E9C00055922C3
:021E9F001559D3
:091EA100A859A61AE4F51AE6FF9F
:031EAA00055922B5
:101C64008F9D75BC88439720D2AD90004574FFF0DA
:101C7400A3740CF0A37448F0A374FFF0A3741EF0D3
:101C8400A37491F0A374FFF0A3741EF0A3749FF0E7
:011C9400222D
:070003007B017A00797022F5
:101A5900C3EF64809480403BD3EF64809485503316
:101A6900EFFD3395E0FC90007C75F003ED1205FF66
:101A7900EC75F003A42583F583E0FE90007C75F0F6
:101A890003ED1205FFEC75F003A42583F583E4F05B
:051A9900AF06227F03EF
:011A9E002225
:1011F400E4F5809000ACE0FFB40800505F90120862
:10120400F828287302122002122602122C0212322B
:1012140002123802124202124C021256C2A3C2A295
:101224008016C2A3C2A2801AC2A3C2A2801EC2A3F5
:10123400C2A28022C2A3D2A2C2A1C2A08020C2A301
:10124400D2A2C2A1D2A08016C2A3D2A2D2A1C2A00D
:10125400800CC2A3D2A2D2A1D2A08002D2A3C3EF97
:101264006480948850299000ACE0FF3395E0FE74CC
:10127400A32FF58274003EF583E0FF3395E0FE74FE
:101284002B2FF582741B3EF583E493F580801E902A
:1012940000ACE0FFB408133395E0FE74A32FF5828D
:1012A40074003EF583E0F5808003E4F5809000A2AD
:1012B400E0FF9000ACE004FEF0D3EF6480F8EE644D
:1012C40080984014E0D36480948850047408F02219
:0912D4009000A1E09000ACF022B2
:101DE000E4F5937594FF5395F043960F90002A7491
:0B1DF000FFF0A37411F0A374F4F022C4
:091ECF009000A1EFF0A3EDF02258
:101DA0009000A3EFF0A3EDF0A3EBF0A3E542F0A3C6
:101DB000E543F0A3E544F0A3E545F0A3E546F022B2
:061EFE009000ABEFF022A2
:10102E000158004900AE94940094940094940041A9
:03103E0000AD1EE4
:020DF40015598F
:100DF60020B2069000AEE014F020B3069000B1E0F9
:100E060014F02097069000B4E014F09000ADE014C2
:100E1600F06003020F14741EF0A859E4F6A859E610
:100E2600FFC3648094834003020F14EF3395E0FE02
:100E36009000AE75F003EF1205FFEE75F003A425E2
:100E460083F583E0C3948050399000AF75F003EFCB
:100E56001205FFEE75F003A42583F583E0D3948095
:100E6600405AE6FF3395E0FE9000B075F003EF12AE
:100E760005FFEE75F003A42583F5837401F0F5589C
:100E8600803AA859E6FF3395E0FE9000AF75F0036F
:100E9600EF1205FFEE75F003A42583F583E0C394F6
:100EA6008050199000B075F003EF1205FFEE75F053
:100EB60003A42583F5837402F0755801A859E6FF4B
:100EC600FD3395E0FC9000AE75F003ED1205FFECE6
:100ED60075F003A42583F583E0FE9000AF75F0035B
:100EE600ED1205FFEC75F003A42583F583EEF0EF14
:100EF6003395E0FE9000AE75F003EF1205FFEE7538
:0E0F0600F003A42583F5837494F006020E23F5
:030F14000559225A
:021EAD001559C5
:091EAF00A859A658E4F558E6FF15
:031EB800055922A7
:10000E0090003074FFF0A3741EF0A374ADF0900056
:0D001E002D74FFF0A3740DF0A374F4F02214
:101B6800EF600764016003BF0233EFFD3395E0FCCB
:101B78009000B075F003ED1205FFEC75F003A42595
:101B880083F583E0FE9000B075F003ED1205FFECDD
:0F1B980075F003A42583F583E4F0AF06227F03E5
:011BA700221B
:101041004100000A4100290A41006D0A040E000016
:1010510000000114004600670000FFFF8FFFC10D73
:10106100C105C108C101C10E60240005FF000AFFCE
:10107100000AFF000AFF000AFF000AFF000AFF0042
:101081000AFF000AFF000AFF000AFF000AFF000A28
:101091006036002AFF000AFF000AFF1F0AFF000A4C
:1010A100FF1F0AFF000AFF1F0AFF000AFF000AFFD5
:1010B100000AFF1F0AFF1F0AFF1F0AFF1F0AFF0086
:0A10C1000AFF000AFF000AFF000A00
:01000A0022D3
:031F0A007F002233
:101A1200438E805389F07BE07A2879017800901B0D
:101A2200271205E3121AE3EFF404F58A7BE07A2821
:101A320079017800901B271205E3121AE3C3E49F91
:101A4200FFE49EFE74019DFDE49CFC78081205CF24
:071A52008F8CD28CD2A92277
:03000B000219C017
:0419C000C0E0C0D0F3
:1019C400D5080A75084C300D020514D20DA2037215
:1019D400045036150AE50A7030850C0AD207300A1D
:1019E40017E50D6007150D438F01801D538FFEC24F
:1019F400B5D51615C20A8011050BE50BD394064024
:091A040008C203E5136002D206DA
:051A0D00D0D0D0E03252
:10196D00300E47C20E901B271205E378101205CFDB
:10197D008E1C8F1D900003E0FEA3E0FFE4FCFD7BB9
:10198D0019FAF9F8120491C006C007AE1CAF1DABD1
:10199D0007AA06E4F9F8D007D006121AE378031265
:1019AD0005CF900065EEF0A3EFF0900065E0FEA38B
:0219BD00E0FF49
:0119BF002205
:091ED800900067E0FEA3E0FF2288
:091EE100900067EEF0A3EFF0227F
:101E710090006BEEF0A3EFF0900069ECF0A3EDF0B1
:011E8100223E
:031F0D00C2B42239
:03003B000214515B
:10145100C0E0C083C082C0D075D000C004C005C048
:0314610006C007BB
:1014640030DF04C2DF807D30DA04C2DA807630D91E
:101474003DC2D9AFFBEFFEADEB7C00E42DFFEC3EAB
:1014840020000E900001F0A3EFF075DB11D2008074
:1014940053FE900001E0FCA3E0FDC3EF9DFFEE9C32
:1014A400A3F0A3EFF075DB00C200D20E803630D873
:1014B40033C2D8900067E07002A3E06022B2B49017
:1014C4000069E0FEA3E0F5EAEEF5FAA3E0FEA3E08E
:1014D400FF90006AE02FF0900069E03EF08005C2C2
:0414E400B453DAFE25
:1014E800D007D006D005D004D0D0D082D083D0E0A9
:0114F80032C1
:061F0400121A12D2AF22F6
:1016BD003004047F0180027F00200A047E01800235
:1016CD007E00EE5F6074E515C395095068300236F3
:1016DD00750D01E515131313541FAB17AA18A9198E
:1016ED00F5827583001203A1FFE515540704FEEF83
:1016FD00A806088002C333D8FC30D70575160380C1
:10170D002F751601802AAB17AA18A91975F002E5D5
:10171D0015A4F58285F0831203A1F50DE51575F07D
:10172D0002A429F9EA35F0FA9000011203A1F51689
:0A173D000515D20A22C204438F10E2
:01174700227F
:10110700900000E014F0701F740AF0D205900029D7
:10111700E014F07012740AF0D20890006DE014F039
:101127007005740AF0D20190002AA3E0FAA3E0F94F
:1011370012060B90002DA3E0FAA3E0F912060B901C
:101147000039A3E0FAA3E0F912060B900045A3E0EB
:10115700FAA3E0F912060B900054A3E0FAA3E0F912
:1011670012060B90005DA3E0FAA3E0F912060B90BC
:10117700004BA3E0FAA3E0F912060BEF600C900016
:101187001DA3E0FAA3E0F912060B90004EA3E0FAC4
:10119700A3E0F912060BEF600E900020A3E0FAA37C
:1011A700E0F912060BD20BE512D394004016D512C4
:1011B7003030090C900023A3E0FAA3E0F912060BE4
:1011C700D20C801D900051A3E0FAA3E0F912060BA0
:1011D700EF600E900023A3E0FAA3E0F912060BD20A
:0D11E7000C900005A3E0FAA3E0F902060B4E
:10159E0090003FA3E0FAA3E0F912060B900042A3DD
:1015AE00E0FAA3E0F912060B900033A3E0FAA3E0F1
:1015BE00F912060B900008A3E0FAA3E0F912060B4D
:1015CE00900030A3E0FAA3E0F912060BEF600C9046
:1015DE000011A3E0FAA3E0F912060B900036A3E087
:1015EE00FAA3E0F912060BEF600C900017A3E0FAD5
:1015FE00A3E0F912060B900048A3E0FAA3E0F9125B
:10160E00060BEF600C90001AA3E0FAA3E0F91206A5
:10161E000B30060EC206900026A3E0FAA3E0F912E4
:03162E00060B2286
:101BA80090000BA3E0FAA3E0F912060B90003CA307
:101BB800E0FAA3E0F912060BEF600C900014A3E022
:101BC800FAA3E0F912060B900057A3E0FAA3E0F994
:0F1BD80012060B90005AA3E0FAA3E0F902060BE5
:101D2300AF11AE10AD0FAC0E9000601205F3900032
:101D330064E514F0E4F511F510F50FF50EF51490C4
:0B1D4300000EA3E0FAA3E0F902060B7B
:101C2600300705C2071216BD300D05C20D12110789
:101C3600300505C20512159E300805C208121BA8FC
:101C4600300105C201121D23E5112401F511E43509
:0E1C560010F510E4350FF50FE4350EF50E22F3
:101844008B3F8A408941EFB40C005070901857F8D0
:1018540028287302187B02188002188502188A024D
:10186400188F02189402189902189E0218A30218DD
:10187400A80218AD0218B2900005803590000880C7
:101884003090000B802B90000E8026900011802158
:10189400900017801C900014801790001A801290FA
:1018A400001D800D9000208008900023800390008C
:0D18B40026E53FF0A3E540F0A3E541F0225A
:071EEA007B017A0079602200
:1010CB0055008C0000000000000000000000000034
:0810DB0000000100000000000C
:03004300020A7638
:100A7600C0E0C0F0C083C082C0D075D000C000C046
:100A860001C002C003C004C005C006C007E59A3015
:100A9600E142539AFD900091E0FEA3E0FFC390006F
:100AA60090E09F90008FE09E501F90008CE0FBA38B
:100AB600E0FAA3E0F9A3E475F00112047B85F08265
:100AC600F5831203A1F59B800B900093E4F0E51FDC
:100AD6006002C2B7E59A20E003020C2D539AFE305D
:100AE6000C0BC20C900099E4F0A3F0D209E51F6448
:100AF600026003020B87900097E0FEA3E0FFA3E0ED
:100B0600FCA3E0FDC39FEC9E5071900094E0FBA314
:100B1600E0FAA3E0F98D828C83E59B1203CE900068
:100B26009FE0FEA3E0FFC3ED9FEC9E504090009730
:100B3600E0FCA3E0FDEF9DEE9C503290009CE0FBB4
:100B4600A3E0FAA3E0F9900099E0FEA3E0FFF582A6
:100B56008E831203A1FD900094E0FBA3E0FAA3E0CC
:100B6600F98F828E831203A16D6002C20990009AEA
:100B7600E004F07006900099E004F0851E12020C65
:100B86002D900097E0FEA3E0FFA3E0FCA3E0FDC3E9
:100B96009FEC9E5077900094E0FBA3E0FAA3E0F967
:100BA6008D828C83E59B1203CE90009FE0FEA3E02E
:100BB600FFC3ED9FEC9E5046900097E0FCA3E0FD3E
:100BC600EF9DEE9C503890009CE0FBA3E0FAA3E07A
:100BD600F9900099E0FEA3E0FFF5828E831203A14F
:100BE600FD900094E0FBA3E0FAA3E0F98F828E83E8
:100BF6001203A16D600890009974FFF0A3F09000B5
:100C06009AE004F07006900099E004F0900097E0F6
:100C1600FEA3E0FFC390009AE09F900099E09E40FB
:100C26000690009B7401F0D007D006D005D004D002
:100C360003D002D001D000D0D0D082D083D0F0D063
:020C4600E0329A
:021E82001559F0
:0A1E840090009BE0A859F6FFE4F07F
:031E8E00055922D1
:011F100022AE
:10139C008F428E418D408C3F85431FE51F7002802C
:1013AC000343BA01E51F701790005D74FFF0A3743E
:1013BC001FF0A37410F0E4F5DBD290D2918020C220
:1013CC00B7AB42AA41A940A83FE47F407E9CFDFCFC
:1013DC0012051C8F1EE51E7003751E01851E1275ED
:1013EC009A10E47B04FAF9F8901B271205E3120516
:1013FC001CAB42AA41A940A83F12051CEFF404F50E
:10140C00D7E47B04FAF9F8901B271205E312051CAC
:10141C00AB42AA41A940A83F12051CC3E49FFFE4BC
:10142C009EFE74019DFDE49CFC78081205BC8FD6D1
:10143C00438E1443AF0190005174FFF0A3741EF05F
:05144C00A37482F022F0
:101C9500900094EBF0A3EAF0A3E9F0A3ECF0A3ED38
:101CA500F090009FE547F0A3E548F090009CE544DF
:101CB500F0A3E545F0A3E546F0D20CE490009BF0D7
:011CC50022FC
:101CC600900093E0702690008CEBF0A3EAF0A3E975
:101CD600F0E4A3F0A3F0A3ECF0A3EDF0A37401F0FD
:0F1CE600E51F6002D2B7439A027F02227F0322DA
:0B1EBB00900093E07002FF227F0122E4
:10087A0000EF00C500AF00A00096008E008700813F
:10088A00007C007800740071006D006B00680065E0
:10089A0000630061005F005D005B005A005800566B
:1008AA0000550054005200510050004E004D004CBB
:1008BA00004B004A004900480047004600450044F2
:1008CA0000430043004200410040003F003F003E19
:1008DA00003D003D003C003B003A003A0039003937
:1008EA00003800370037003600360035003400344F
:1008FA000033003300320032003100310030003062
:10090A00002F002F002E002E002D002D002C002C71
:10091A00002B002B002A002A002900290029002880
:10092A00002800270027002600260026002500258B
:10093A000024002400240023002300220022002295
:10094A0000210021002000200020001F001F001F9E
:10095A00001E001E001D001D001D001C001C001CA6
:10096A00001B001B001B001A001A001A00190019AC
:10097A0000180018001800170017001700160016B4
:10098A0000160015001500150014001400140013B9
:10099A0000130013001200120012001100110010BF
:1009AA0000100010000F000F000F000E000E000EC6
:1009BA00000D000D000D000C000C000C000B000BCC
:1009CA00000B000A000A00090009000900080008D3
:1009DA0000080007000700070006000600050005DA
:1009EA0000040004000300030003000200020001E7
:1009FA000001000100000000FFFFFFFFFFFFFFFEF4
:100A0A00FFFEFFFDFFFDFFFCFFFCFFFBFFFBFFFA04
:100A1A00FFFAFFF9FFF9FFF8FFF8FFF7FFF7FFF614
:100A2A00FFF6FFF5FFF5FFF4FFF3FFF3FFF2FFF226
:100A3A00FFF1FFF0FFF0FFEFFFEEFFEDFFEDFFEC40
:100A4A00FFEBFFEAFFE9FFE8FFE7FFE6FFE5FFE468
:100A5A00FFE3FFE2FFE0FFDFFFDDFFDCFFDAFFD8A5
:0C0A6A00FFD5FFD2FFCEFFC9FFC101691C
:1012DD0012000378257C007D007E007F0A12037BBF
:1012ED0085292F852A30AE2FE5307802CEA2E7135F
:1012FD00CE13D8F8F5308E2F25E0FFE52F33FE7491
:10130D007A2FF58274083EF583E493F523740193E7
:10131D00F524C3E52364809480502DC3E49524FF08
:10132D00E49523FE7C007D0A1204457C007D0A12A3
:10133D0004458D4575420A75430A75440CC3E49501
:10134D0024FFE49523FE8034AE23AF247C007D641E
:10135D001204457C007D0A120445AB05AE23AF2473
:10136D007C007D0A1204457C007D0A1204458D45E2
:10137D008B4475420A75430AAE23AF247C007D0A67
:0F138D001204458D467B0A7D0A7F0A121DA0229D
:0410E30002500000B7
:101A9F007F05121A598F3F7F02121A59E53FB40181
:101AAF00180551E55170020550D39402E55064803A
:101ABF0094804005E4F550F551BF0117E5511551DC
:101ACF0070021550C3E55064809480500675500025
:031ADF007551023C
:011AE20022E1
:101DFB00E5507015E55114600A14600A240270094D
:0A1E0B000217C60212DD121BE722C7
:1010E700023406C9073600000000000000C11003E3
:0410F70031000000C4
:1017480012003E8E3D8F3E20103EAC34AD35E41283
:1017580001F17466FBFAF97840120046C004C0052E
:10176800C006C007AC3DAD3EEC1201F1A804A905C6
:10177800AA06AB07D007D006D005D00412014F1235
:10178800022A8E3F8F408006753F00754014AE3F99
:10179800AF407C007D3C1203F08F37AE3FAF407CFA
:1017A800007D3C1203F08D3678417C007D007B0083
:0E17B8007A0079367E007F0712037B021E2E18
:101D4E00121EF178367C007D007E007F0712037B29
:101D5E00E53775F03CA4AEF07C002536F532EC3E4E
:091D6E00F531A210E433F5332233
:1017C600121EF178367C007D007E007F0712037BB7
:1017D600E5377008E5367004B210800DE536D3940F
:1017E6003C5006E53794024005121748800DE53651
:1017F600700775363B15378002153678417C007DBB
:10180600007B007A0079367E007F0712037B121E6A
:101816002EE53775F00A84F542E53775F00A8485BA
:10182600F04375440AE53675F00A84F545E53675E4
:0E183600F00A8485F0467B0AE4FDFF021DA047
:0410FB000252003865
:05003E00AE52AF532299
:101BE700AE52AF537C007D64120445AB07AE52AFD3
:101BF700537C007D0A1204457C007D0A1204458D42
:101C0700458B4475422E75432DAE52AF537C007DF4
:0F1C17000A1204458D467B2E7D367F27021DA0C5
:10061100E6BA81E6B9BEE99587E588B0E4BA86EF26
:10062100BC8CE69CACE7AB99E4B8BAE68DA2E4B920
:1006310098E7AB99EFBC8CE58FAFE68DA2E4B99852
:1006410032E58FB7E7BABFE38082E4B88BE8BDA695
:10065100E697B6EFBC8CE8AFB7E6B3A8E6848FE5C2
:100661008897E8BDA6E4B88EE7AB99E58FB0E4B909
:100671008BE997B4E79A84E997B4E99A99E3808280
:10068100576520617265206172726976696E6720B3
:1006910061742079696E6777616E7A68656E2C2066
:1006A100546869732073746174696F6E2069732073
:1006B10061207472616E736665722073746174690E
:1006C1006F6E2C20616E6420796F752063616E20DE
:1006D1007472616E7366657220746F206C696E65E9
:1006E1002074776F2E20506C656173652067657487
:1006F10020726561647920666F7220796F7572204E
:100701006172726976616C20616E642074616B65DF
:1007110020796F75722062656C6F6E67696E6773A1
:100721002E20506C65617365206D696E642074685C
:100731006520706C6174666F726D206761702077DF
:1007410068656E20616C69676874696E672E00E880
:10075100BDA6E997A8E58DB3E5B086E585B3E99730
:10076100ADEFBC8CE8B0A8E998B2E5A4B9E4BCA4AB
:10077100E3808254686520646F6F7220697320631F
:100781006C6F73696E672E00E69CACE6ACA1E588E0
:1007910097E8BDA6E5BC80E5BE803AE69D9CE5AE46
:1007A100B6E59DAAE3808254686973207472616919
:1007B1006E20697320626F756E6420666F722064AB
:1007C100756A696170696E672EE4B88BE4B880E779
:1007D100AB993AE6BA81E6B9BEE99587E38082E949
:1007E1009C80E68DA2E4B99832E58FB7E7BABFE7FE
:1007F1009A84E4B998E5AEA2E8AFB7E59CA8E6BA59
:1008010081E6B9BEE99587E4B88BE8BDA6E38082AD
:10081100546865206E6578742073746174696F6EB5
:100821002069732079696E6777616E7A68656E2ECB
:1008310020466F722070617373656E6765727320F5
:100841007472616E73666572696E6720746F20746D
:100851006865206C696E652074776F2C20706C65FB
:1008610061736520657869742061742079696E67A8
:0908710077616E7A68656E2E0055
:0310FF0001570096
:0D002E00E556B4410475570122E4F5572250
:1018C100121D4E853154853255E5577049E55564F1
:1018D1000F45547010E533700C7BFF7A0679117D4A
:1018E1003F7C01802EE555640745547011E533B402
:1018F100010C7BFF7A0779507D397C008015E55515
:1019010045547012E533B4010D7BFF7A0779897D67
:06191100F17C00121CC66F
:0119170022AD
:041102004100BF01E8
:101E1500C295E4FEEF1392CC000000D29500EFC30B
:081E250013FFC2950EBE08EC8C
:011E2D002292
:101E4700E4FEEFC313FF30CC03430780D2950000B5
:071E570000C2950EBE08EB6E
:011E5E002261
:101CF500F07F85121D08A3EFF07F87121D08A3EF63
:031D0500F07F89E3
:101D0800C296000000C295000000D29600121E156F
:0A1D1800121E47D295000000C2968B
:011D2200229E
:031DC000A3E0FDA0
:101DC300C296000000C295000000D29600121E15B4
:0D1DD300AF05121E15D295000000C2962229
:071EF1007B017A0079B822A1
:101E2E0078B87C007D017B007A0079417E007F07C7
:091E3E0012037BE49000BFF022C6
:101E5F00EFD3941F5009EF25E044C1FF021D087F07
:021E6F0001224E
:101D7700AC07AB05ECD3941F501CE4FD7F8E121DFE
:101D8700C3EC25E044C0FFAD03121DC37D807F8EE9
:091D9700121DC37F00227F01220E
:0214F900155983
:1014FB009000BFE060447F81121D08A859EFF69061
:10150B0000B8E06F700302159BA859E6F07F8312B9
:10151B001D08A859EFF6A3E06F6075A859E6121CD9
:10152B00F5A3EFF07F8D121D089000BEEFF07F8BBF
:10153B00121D089000BDEFF080569000B7E0FF043D
:10154B00F0EFC3940A4049E4F09000BF04F0E4FDCF
:10155B007F8E121DC39000B8E0FD7F80121DC37FEC
:10156B0082121DC07F84121DC0A3E0FD7F86121D59
:10157B00C3A3E0FD7F88121DC3A3E0FD7F8A121D6C
:10158B00C3A3E0FD7F8C121DC37D807F8E121DC314
:03159B00055922CD
:100F17007F81121D089000B8EFF07F83121D08A390
:100F2700EF121CF5A3EFF07F8B121D08A3EFF07FE4
:100F37008D121D08A3EFF0E4FD7F8E121DC37F1EE7
:100F4700121E5FEF64A560047F0180027F0090009E
:100F5700B8E05480FEA3E0D3945940047D01800299
:100F67007D00ED4EFE9000BAE0D394A440047D01CD
:100F770080027D00ED4EFE9000BBE0D3943140042B
:100F87007D0180027D00ED4EFE9000BCE0D39412FF
:100F970040047D0180027D00ED4EFE9000BDE0D350
:100FA700940740047D0180027D00ED4EFE9000BE57
:100FB700E0D3949940047D0180027D00ED4E4F609F
:100FC7003078417C007D007B007A0079497E007F84
:100FD7000712037B121E2E7DA57F1E121D7778B880
:100FE7007C007D017B007A0079497E007F07120330
:100FF7007B7DA97F90121DC37D807F8E121DC390BC
:0E100700005A74FFF0A37414F0A374F9F022E1
:10004600EC4D6011E8497017ED33EC3304600DE4B4
:10005600FCFFFEFD22E933E8330470F80202961233
:10006600026158046009E4CC248150062850090234
:1000760002A028400302029DC0E0EB4A7044B9800A
:1000860006D0E0FB02028CEF4E701CBD8008EBFF31
:10009600EAFEE9FD80EBE98DF0A4FEE5F002012F12
:1000A600E9CDF9EAFEEBFFEF89F0A4FCE5F0CE8995
:1000B600F0A42EFFE435F0CD89F0A42DFEE435F052
:1000C6008067EF4E7005BD80D780C3EF8BF0A4AC80
:1000D600F0EE8BF0A42CFCE435F0F8EF8AF0A42CBB
:1000E600E5F038FCE433CB8DF0A42CFCE5F03BF8CE
:1000F600EE8AF0A42CFCE5F038F8E433CF89F0A4BE
:100106002CFCE5F038CF3400CE89F0A42FFFE5F0C3
:100116003EFEE433C98DF0A42EFEE5F039CD8AF01B
:10012600A42FFFE5F03EFEE43DFD33D0E0FB500793
:100136000BBB000F0202A0EC2CFCEF33FFEE33FEEC
:06014600ED33FD0202781A
:10014C000202A0EC5D046005E859047003020296FB
:10015C00120261580460F6EC4860F2EC7004FDFE8B
:10016C00FF22C860DB2481C85009C3986002500686
:10017C0002029D9850CAF582E9294B4A7005AB8260
:10018C0002028C75F0007C1A7880C3EF9BEE9AED1E
:10019C0099400DC3EF9BFFEE9AFEED99FDE842F0FE
:1001AC00DC23ACF0D0E0FFD0E0FED0E0FDAB822051
:1001BC00E7101BEB60BAEC2CFCEF33FFEE33FEEDDB
:1001CC0033FD020278E803F830E705C0F075F00063
:1001DC00EF2FFFEE33FEED33FD40B830E7C280AABF
:1001EC0075F020800E75F010800575F0087D007E8E
:1001FC00007F003392D530D5031205AEEC3340109E
:10020C00EF33FFEE33FEED33FDEC33FCD5F0ED2296
:0E021C00E5F0247EA2D513CC92E7CDCEFF22D2
:10022A00EDD2E7CD33EC3392D524814006E4FFFECC
:10023A00FDFC22FCE4CFCECDCC24E0501174FF802B
:10024A00EDC3CC13CCCD13CDCE13CECF13CF0470C8
:07025A00F030D5DE0205AE15
:10026100E9D2E7C933E833F892D5EDD2E7CD33ECE3
:0702710033FC5002B2D5225C
:10027800EC30E7100FBF000C0EBE00080DBD0004E7
:100288000BEB6014A2D5EB13FCED92E7FD2274FF93
:10029800FCFDFEFF22E480F8A2D574FF13FC7D80EC
:0302A800E480EF00
:03000000021631B4
:0C163100787FE4F6D8FD75815902167828
:1002AB00E709F608DFFA8046E709F208DFFA803E35
:1002BB0088828C83E709F0A3DFFA8032E309F60822
:1002CB00DFFA8078E309F208DFFA807088828C838A
:1002DB00E309F0A3DFFA806489828A83E0A3F6083E
:1002EB00DFFA805889828A83E0A3F208DFFA804C18
:1002FB0080D280FA80C680D4806980F280338010EF
:10030B0080A680EA809A80A880DA80E280CA803357
:10031B0089828A83ECFAE493A3C8C582C8CCC583CF
:10032B00CCF0A3C8C582C8CCC583CCDFE9DEE7809F
:10033B000D89828A83E493A3F608DFF9ECFAA9F01E
:10034B00EDFB2289828A83ECFAE0A3C8C582C8CC74
:10035B00C583CCF0A3C8C582C8CCC583CCDFEADE8D
:10036B00E880DB89828A83E493A3F208DFF980CCEF
:10037B0088F0EF60010E4E60C388F0ED2402B404E8
:10038B000050B9F582EB2402B4040050AF2323458F
:06039B0082239002FB73B7
:1003A100BB010CE58229F582E5833AF583E0225011
:1003B10006E92582F8E622BBFE06E92582F8E2225B
:0D03C100E58229F582E5833AF583E4932275
:1003CE00F8BB010DE58229F582E5833AF583E8F065
:1003DE00225006E92582C8F622BBFE05E92582C811
:0203EE00F222F9
:1003F000BC000BBE0029EF8DF084FFADF022E4CCF1
:10040000F875F008EF2FFFEE33FEEC33FCEE9DECB9
:10041000984005FCEE9DFE0FD5F0E9E4CEFD22EDFF
:10042000F8F5F0EE8420D21CFEADF075F008EF2F49
:10043000FFED33FD4007985006D5F0F222C398FD3A
:050440000FD5F0EA22D7
:10044500C2D5EC30E709B2D5E4C39DFDE49CFCEED2
:1004550030E715B2D5E4C39FFFE49EFE1203F0C357
:10046500E49DFDE49CFC80031203F030D507C3E452
:060475009FFFE49EFE2241
:10047B00A3F8E0C5F025F0F0E58215827002158334
:06048B00E0C838F0E82291
:10049100E88FF0A4CC8BF0A42CFCE98EF0A42CFC0A
:1004A1008AF0EDA42CFCEA8EF0A4CDA8F08BF0A488
:1004B1002DCC3825F0FDE98FF0A42CCD35F0FCEBE7
:1004C1008EF0A4FEA9F0EB8FF0A4CFC5F02ECD39AC
:0F04D100FEE43CFCEAA42DCE35F0FDE43CFC2219
:1004E00075F008758200EF2FFFEE33FECD33CDCCD3
:1004F00033CCC58233C5829BED9AEC99E582984056
:100500000CF582EE9BFEED9AFDEC99FC0FD5F0D632
:10051000E4CEFBE4CDFAE4CCF9A88222B800C1B95C
:100520000059BA002DEC8BF084CFCECDFCE5F0CB9A
:10053000F97818EF2FFFEE33FEED33FDEC33FCEBD3
:1005400033FB10D703994004EB99FB0FD8E5E4F98E
:10055000FA227818EF2FFFEE33FEED33FDEC33FC7B
:10056000C933C910D7059BE99A4007EC9BFCE99A6F
:10057000F90FD8E0E4C9FAE4CCFB2275F010EF2FB4
:10058000FFEE33FEED33FDCC33CCC833C810D707B4
:100590009BEC9AE899400AED9BFDEC9AFCE899F8EF
:0E05A0000FD5F0DAE4CDFBE4CCFAE4C8F92282
:101AE300C2D5E830E70FB2D5E4C39BFBE49AFAE42E
:101AF30099F9E498F8EC30E717B2D5121B191205DF
:101B03001CE4C39BFBE49AFAE499F9E498F8800394
:101B130012051C30D50DE4C39FFFE49EFEE49DFD3A
:041B2300E49CFC2220
:0E05AE00C3E49FFFE49EFEE49DFDE49CFC225E
:1005BC00E8600FECC313FCED13FDEE13FEEF13FF1D
:0305CC00D8F12241
:1005CF00E86010ECA2E713FCED13FDEE13FEEF1342
:0405DF00FFD8F0222F
:1005E300E493FC740193FD740293FE740393FF225E
:0C05F300ECF0A3EDF0A3EEF0A3EFF0227B
:0C05FF00A42582F582E5F03583F5832207
:06060B008A838982E4737A
:10163D00021918E493A3F8E493A34003F68001F292
:10164D0008DFF48029E493A3F85407240CC8C333AE
:10165D00C4540F4420C8834004F456800146F6DF7D
:10166D00E4800B0102040810204080901015E47EE8
:10167D00019360BCA3FF543F30E509541FFEE49372
:10168D00A360010ECF54C025E060A840B8E493A339
:10169D00FAE493A3F8E493A3C8C582C8CAC583CA64
:1016AD00F0A3C8C582C8CAC583CADFE9DEE780BE1C
:0111060000E8
:00000001FF
