:1030FE007F98123A06123DE8123D77123D177D0772
:10310E00E4FF124058E4F50C7F807E25FDFC12286A
:10311E001C1234E61233DC123B217F0112393612B7
:10312E003E7D123781124039750D01750E01750FF6
:10313E00A8E4F510F5117B017A0179A87D01FC1246
:10314E003A377BFF7A3E79D37F0A1230817BFF7A42
:10315E0000790E7F031230817BFF7A2B79777F0700
:0B316E0012308112409612388380FB63
:09404F008B88898C88898F88898F
:101C0A005200F286860086860086860086860086D0
:091C1A0086008686004100E709FE
:03002B0002408A06
:06408A0053BCEFD20F321F
:021DC9001552B1
:101DCB00200F03021F72C20F9000E6E0B40900401F
:101DDB0003021F54901DE6F8282873021E2D021EC5
:101DEB0001021E13021E3F021E01021E13021E568B
:101DFB00021E01021E13AFBDEFFEADBE7C00E42D33
:101E0B00FFEC3E9000E8803CAFBDEFFEADBE7C002A
:101E1B00E42DFFEC3E9000EAF0A3EFF075490102D0
:101E2B001F5AAFBDEFFEADBE7C00E42DFFEC3E9024
:101E3B0000EC8010AFBDEFFEADBE7C00E42DFFECDF
:101E4B003E9000EEF0A3EFF0021F5AAFBDEFFEADD8
:101E5B00BE7C00E42DFFEC3E9000F0F0A3EFF09081
:101E6B0000F0E0FEA3E07807CEC313CE13D8F9A899
:101E7B0052F6C394065013A852E675F003A424F24D
:101E8B00F582E43400F583E014F09000E7E014F001
:101E9B006003021F5A7409F0A852E4F6A852E6FF39
:101EAB00C394064003021F5AEF75F003A424F2F506
:101EBB0082E43400F583E0C39480502AE6FF75F08A
:101ECB0003A424F3F582E43400F583E0D39480403B
:101EDB0040EF75F003A424F4F582E43400F5837429
:101EEB0001F0F54A802BA852E6FF75F003A424F30A
:101EFB00F582E43400F583E0C394805014EF75F061
:101F0B0003A424F4F582E43400F5837402F0754ADB
:101F1B0001A852E6FF75F003A424F2F582E4340025
:101F2B00F583E0FEEF75F003A424F3F582E43400AF
:101F3B00F583EEF0E675F003A424F2F582E43400A9
:101F4B00F5837486F006021EA79000E674FFF090EE
:101F5B0000E6E0D39407400374FFF09000E6E00442
:071F6B00F090404F93F5BC1C
:031F7200055222F3
:023FD300155285
:093FD500A852A64AE4F54AE6FFF1
:033FDE0005522267
:023FE100155277
:093FE300A852A649E4F549E6FFE5
:033FEC0005522259
:103A06008F9D75BC88439720D2AD90004574FFF01A
:103A1600A3741DF0A374C9F0A374FFF0A3743FF060
:103A2600A374D3F0A374FFF0A3743FF0A374E1F082
:013A3600226D
:070003007B017A0079E8227D
:10367000C3EF64809480403BD3EF648094855033E3
:10368000EFFD3395E0FC9000F475F003ED1210B8F7
:10369000EC75F003A42583F583E0FE9000F475F04B
:1036A00003ED1210B8EC75F003A42583F583E4F064
:0536B000AF06227F03BC
:0136B50022F2
:043BCA001552155229
:103BCE00124061A852A60608A607A852E6FE08E60D
:0F3BDE00FF4E600BEF24FFFFEE34FFFE12406A34
:053BED00055205522203
:103D170053B1EF43B2101240A5E4F5D975DA49D291
:103D2700DE90003F74FFF0A3743BF0A374CAF02247
:083179008E1C8F1D8C1E8D1FA2
:10318100124061EF4E7066AF1FAE1E12406AC3E57A
:103191001D940AE51C9400404BE47B18FAF9F89061
:1031A100003E12109C120FC2C006C007AE1CAF1D1C
:1031B100AB07AA06E4F9F8D007D006120FC2AB0795
:1031C100AA06AFF9EFFEADE97C00E42DFFEC3ECF9E
:1031D1002BCF3AAD07FCAF03AE02123F56D2D84314
:0F31E100DA0180061240A553DAFE7F02227F0337
:0131F00022BC
:0C400B00124061EF4E7002FF227F012284
:1024D000E4F580900177E0FFB40800505F9024E4B9
:1024E000F82828730224FC02250202250802250E82
:1024F00002251402251E022528022532C2A3C2A2EB
:102500008016C2A3C2A2801AC2A3C2A2801EC2A306
:10251000C2A28022C2A3D2A2C2A1C2A08020C2A312
:10252000D2A2C2A1D2A08016C2A3D2A2D2A1C2A01E
:10253000800CC2A3D2A2D2A1D2A08002D2A3C3EFA8
:10254000648094885029900177E0FF3395E0FE7411
:102550006E2FF58274013EF583E0FF3395E0FE7443
:10256000C12FF58274383EF583E493F580801E9088
:102570000177E0FFB408133395E0FE746E2FF58207
:1025800074013EF583E0F5808003E4F58090016DF1
:10259000E0FF900177E004FEF0D3EF6480F8EE6492
:1025A00080984014E0D36480948850047408F0222A
:0925B00090016CE0900177F0222B
:103DE800E4F5937594FF5395F043960F90002A7469
:0B3DF800FFF0A37424F0A374D0F022AD
:0940580090016CEFF0A3EDF022E1
:103D370090016EEFF0A3EDF0A3EBF0A3E50BF0A37A
:103D4700E50CF0A3E50DF0A3E50EF0A3E50FF022D7
:06409000900176EFF02222
:101C2300014F0049018494940094940094940041DA
:031C330001831E0C
:0220A5001552D2
:1020A70020B206900184E014F020B306900187E087
:1020B70014F020970690018AE014F0900183E01451
:1020C700F060030221C5741EF0A852E4F6A852E698
:1020D700FFC36480948340030221C5EF3395E0FE7C
:1020E70090018475F003EF1210B8EE75F003A42584
:1020F70083F583E0C39480503990018575F003EF31
:102107001210B8EE75F003A42583F583E0D394800D
:10211700405AE6FF3395E0FE90018675F003EF1213
:1021270010B8EE75F003A42583F5837401F0F54F1D
:10213700803AA852E6FF3395E0FE90018575F003DB
:10214700EF1210B8EE75F003A42583F583E0C3946E
:1021570080501990018675F003EF1210B8EE75F0F4
:1021670003A42583F5837402F0754F01A852E6FF97
:10217700FD3395E0FC90018475F003ED1210B8EC87
:1021870075F003A42583F583E0FE90018575F003C0
:10219700ED1210B8EC75F003A42583F583EEF0EF8C
:1021A7003395E0FE90018475F003EF1210B8EE75D9
:0E21B700F003A42583F5837494F0060220D46F
:0321C5000552229E
:023FEF00155269
:093FF100A852A64FE4F54FE6FFCB
:033FFA000552224B
:103D770090003074FFF0A3743FF0A374EFF090004D
:0D3D87002D74FFF0A37420F0A374A5F022AA
:10380400EF600764016003BF0233EFFD3395E0FC12
:1038140090018675F003ED1210B8EC75F003A42541
:1038240083F583E0FE90018675F003ED1210B8EC89
:0F38340075F003A42583F583E4F0AF06227F032C
:013843002262
:101C36004100000A4100290A41006D0A04290000FA
:101C46000000012F004600670000FFFF8FFFC10D57
:101C5600C105C108C101C10E60240005FF000AFFCD
:101C6600000AFF000AFF000AFF000AFF000AFF0041
:101C76000AFF000AFF000AFF000AFF000AFF000A27
:101C86006036002AFF000AFF000AFF40A2FF000A92
:101C9600FF40A2FF000AFF40A2FF000AFF000AFF62
:101CA600000AFF40A2FF40A2FF40A2FF40A2FF00A1
:0A1CB6000AFF000AFF000AFF000AFF
:01000A0022D3
:0340A2007F00227A
:10362900438E805389F07BE07A28790178009000F5
:103639003E12109C1236FAEFF404F58A7BE07A28E0
:103649007901780090003E12109C1236FAC3E49F6B
:10365900FFE49EFE74019DFDE49CFC780812107540
:073669008F8CD28CD2A92244
:03000B0002358F2C
:04358F00C0E0C0D008
:10359300D5230A75234C300D02052FD20DA20372D9
:1035A3000450361525E5257030852725D207300AC6
:1035B30017E52860071528438F01801D538FFEC22E
:1035C300B5D53115C20A80110526E526D3940640E8
:0935D30008C203E52E6002D206D5
:0535DC00D0D0D0E03268
:10353C00300E47C20E90003E12109C78101210757F
:10354C008E088F09900003E0FEA3E0FFE4FCFD7BF6
:10355C0019FAF9F8120F37C006C007AE08AF09AB5D
:10356C0007AA06E4F9F8D007D0061236FA78031247
:10357C001075900065EEF0A3EFF0900065E0FEA3EF
:02358C00E0FF5E
:01358E00221A
:09406100900067E0FEA3E0FF22DD
:09406A00900067EEF0A3EFF022D4
:103F560090006BEEF0A3EFF0900069ECF0A3EDF0AB
:013F66002238
:0340A500C2B42280
:03003B00022A2A6C
:102A2A00C0E0C083C082C0D075D000C004C005C059
:032A3A0006C007CC
:102A3D0030DF04C2DF807D30DA04C2DA807630D92F
:102A4D003DC2D9AFFBEFFEADEB7C00E42DFFEC3EBC
:102A5D0020000E900001F0A3EFF075DB11D2008085
:102A6D0053FE900001E0FCA3E0FDC3EF9DFFEE9C43
:102A7D00A3F0A3EFF075DB00C200D20E803630D884
:102A8D0033C2D8900067E07002A3E06022B2B49028
:102A9D000069E0FEA3E0F5EAEEF5FAA3E0FEA3E09F
:102AAD00FF90006AE02FF0900069E03EF08005C2D3
:042ABD00B453DAFE36
:102AC100D007D006D005D004D0D0D082D083D0E0BA
:012AD10032D2
:06409600123629D2AF2210
:102EF2003004047F0180027F00200A047E018002E8
:102F02007E00EE5F6074E530C3952450683002366F
:102F1200752801E530131313541FAB32AA33A934B9
:102F2200F582758300120DE2FFE530540704FEEFCF
:102F3200A806088002C333D8FC30D7057531038058
:102F42002F753101802AAB32AA33A93475F002E51C
:102F520030A4F58285F083120DE2F528E53075F094
:102F620002A429F9EA35F0FA900001120DE2F531D6
:0A2F72000530D20A22C204438F107A
:012F7C002232
:1023E300900000E014F0701F740AF0D205900029E9
:1023F300E014F07012740AF0D20890006DE014F04B
:102403007005740AF0D20190002AA3E0FAA3E0F960
:102413001210C490002DA3E0FAA3E0F91210C490A7
:102423000039A3E0FAA3E0F91210C4900045A3E039
:10243300FAA3E0F91210C4900054A3E0FAA3E0F960
:102443001210C490005DA3E0FAA3E0F91210C49047
:10245300004BA3E0FAA3E0F91210C4EF600C900064
:102463001DA3E0FAA3E0F91210C490004EA3E0FA12
:10247300A3E0F91210C4EF600E900020A3E0FAA3CA
:10248300E0F91210C4D20BE52DD394004016D52DDC
:102493003030090C900023A3E0FAA3E0F91210C432
:1024A300D20C801D900051A3E0FAA3E0F91210C4EE
:1024B300EF600E900023A3E0FAA3E0F91210C4D258
:0D24C3000C900005A3E0FAA3E0F90210C49C
:102D430090003FA3E0FAA3E0F91210C4900042A35D
:102D5300E0FAA3E0F91210C4900033A3E0FAA3E071
:102D6300F91210C4900008A3E0FAA3E0F91210C40A
:102D7300900030A3E0FAA3E0F91210C4EF600C90C6
:102D83000011A3E0FAA3E0F91210C4900036A3E007
:102D9300FAA3E0F91210C4EF600C900017A3E0FA55
:102DA300A3E0F91210C4900048A3E0FAA3E0F912DB
:102DB30010C4EF600C90001AA3E0FAA3E0F912101C
:102DC300C430060EC206900026A3E0FAA3E0F9126F
:032DD30010C42207
:1038440090000BA3E0FAA3E0F91210C490003CA38B
:10385400E0FAA3E0F91210C4EF600C900014A3E0A6
:10386400FAA3E0F91210C4900057A3E0FAA3E0F918
:0F3874001210C490005AA3E0FAA3E0F90210C4A6
:103AF600AF2CAE2BAD2AAC299000601210AC900012
:103B060064E52FF0E4F52CF52BF52AF529F52F9031
:0B3B1600000EA3E0FAA3E0F90210C4C7
:10388300300705C207122EF2300D05C20D1223E3D5
:10389300300505C205122D43300805C2081238440D
:1038A300300105C201123AF6E52C2401F52CE4356A
:0E38B3002BF52BE4352AF52AE43529F52922D8
:103081008B088A09890AEFB40C005070903094F8CB
:103091002828730230B80230BD0230C20230C702A4
:1030A10030CC0230D10230D60230DB0230E00230C7
:1030B100E50230EA0230EF9000058035900008808B
:1030C1003090000B802B90000E8026900011802103
:1030D100900017801C900014801790001A801290A5
:1030E100001D800D90002080089000238003900037
:0D30F10026E508F0A3E509F0A3E50AF022AA
:07407C007B017A007960224C
:102DD6008B44AA077C007E037FE8120E5590017F84
:102DE600EEF0A3EFF0E545FD7C007E037FE8120ED2
:102DF60055A3EEF0A3EFF0AF02AB07E4FAF9F890B3
:102E0600017FE0FEA3E0FFE4FCFD120F37EF243262
:102E1600FFE43EFEE43DFDE43CFCE47B64FAF9F8A5
:102E26001236FA900179EEF0A3EFF0AF44AB07E467
:102E3600FAF9F8900181E0FEA3E0FFE4FCFD120F31
:102E460037EF2432FFE43EFEE43DFDE43CFCE47B48
:102E560064FAF9F81236FA90017BEEF0A3EFF0224D
:10343600E4F50BF50AF509F508F50CD291AF0BAEDC
:103446000AAD09AC0878011210898F0B8E0A8D0916
:103456008C0800C291309015E4FAF9F8EF2401F5D2
:103466000BEA3EF50AE93DF509E83CF508050CE5E9
:103476000CB418C700D2910000C291AF0BAE0AADD2
:0834860009AC0878081210756A
:01348E00221B
:0940730090017DE0FEA3E0FF22B4
:0F3F670090017DE0FEA3E0FFE490017DF0A3F068
:013F76002228
:1025B900900178E0700F3090012212343690017D3D
:1025C900EEF0A3EFF0900178E0FF64017062053D41
:1025D900E53D7002053CFDD3900180E09D90017FAF
:1025E900E0953C5005E4F53CF53DD390017AE09542
:1025F9003D900179E0953C4004D2908002C290055B
:102609003FE53F7002053EFDD3900182E09D9001B8
:1026190081E0953E5005E4F53EF53FD390017CE01D
:10262900953F90017BE0953E4004D2918002C29192
:10263900EF6402703E2090047F0180027F00E54034
:1026490060047E0180027E00EE5F6021309110906F
:10265900017EE004F0701690017DE004F0800E9098
:10266900017EE024FFF090017DE034FFF0A290E4C8
:1026790033F540900178E0B4031CE5417002D29132
:10268900E541B40105C29175DB210541E541C394DA
:06269900C84003E4F54116
:01269F002218
:10393600900178EFF07004C2918002D291900178E4
:10394600E0B40310E5A254CFF5A2E4F5D975DB0186
:10395600D2DE8003E4F5DB90005D74FFF0A37425EE
:06396600F0A374B9F02289
:101CC000550130000000000000000000000000008E
:081CD00000000100000000000B
:03004300021A3866
:101A3800C0E0C0F0C083C082C0D075D000C000C074
:101A480001C002C003C004C005C006C007E59A3043
:101A5800E142539AFD900135E0FEA3E0FFC39001F7
:101A680034E09F900133E09E501F900130E0FBA3CB
:101A7800E0FAA3E0F9A3E475F001120EF685F0820E
:101A8800F583120DE2F59B800B900137E4F0E54CED
:101A98006002C2B7E59A20E003021BEF539AFE30BA
:101AA8000C0BC20C90013DE4F0A3F0D209E54C64A4
:101AB800026003021B4990013BE0FEA3E0FFA3E0A4
:101AC800FCA3E0FDC39FEC9E5071900138E0FBA39E
:101AD800E0FAA3E0F98D828C83E59B120E21900138
:101AE80043E0FEA3E0FFC3ED9FEC9E504090013B16
:101AF800E0FCA3E0FDEF9DEE9C5032900140E0FB3E
:101B0800A3E0FAA3E0F990013DE0FEA3E0FFF5822F
:101B18008E83120DE2FD900138E0FBA3E0FAA3E00A
:101B2800F98F828E83120DE26D6002C20990013E28
:101B3800E004F0700690013DE004F0854B2D021B97
:101B4800EF90013BE0FEA3E0FFA3E0FCA3E0FDC3B0
:101B58009FEC9E5077900138E0FBA3E0FAA3E0F9F0
:101B68008D828C83E59B120E21900143E0FEA3E059
:101B7800FFC3ED9FEC9E504690013BE0FCA3E0FDC7
:101B8800EF9DEE9C5038900140E0FBA3E0FAA3E003
:101B9800F990013DE0FEA3E0FFF5828E83120DE28D
:101BA800FD900138E0FBA3E0FAA3E0F98F828E8371
:101BB800120DE26D600890013D74FFF0A3F09001F2
:101BC8003EE004F0700690013DE004F090013BE037
:101BD800FEA3E0FFC390013EE09F90013DE09E40E0
:101BE8000690013F7401F0D007D006D005D004D08C
:101BF80003D002D001D000D0D0D082D083D0F0D092
:021C0800E032C8
:023F97001552C1
:0A3F990090013FE0A852F6FFE4F0AB
:033FA300055222A2
:01004200229B
:10281C008F0B8E0A8D098C08850C4CE54C70028050
:10282C000343BA01E54C701790005D74FFF0A3747C
:10283C0000F0A37442F0E4F5DBD290D2918020C278
:10284C00B7AB0BAA0AA909A808E47F407E9CFDFC43
:10285C00120FC28F4BE54B7003754B01854B2D75D9
:10286C009A10E47B04FAF9F890003E12109C120FB7
:10287C00C2AB0BAA0AA909A808120FC2EFF404F5FF
:10288C00D7E47B04FAF9F890003E12109C120FC2A8
:10289C00AB0BAA0AA909A808120FC2C3E49FFFE454
:1028AC009EFE74019DFDE49CFC78081210628FD68C
:1028BC00438E1443AF0190005174FFF0A3743FF0AA
:0528CC00A37497F02247
:103A3700900138EBF0A3EAF0A3E9F0A3ECF0A3EDD3
:103A4700F0900143E510F0A3E511F0900140E50D7A
:103A5700F0A3E50EF0A3E50FF0D20CE490013FF0E0
:013A6700223C
:103A9900900137E07026900130EBF0A3EAF0A3E93A
:103AA900F0E4A3F0A3F0A3ECF0A3EDF0A37401F00C
:0F3AB900E54C6002D2B7439A027F02227F0322BC
:0B402300900137E07002FF227F0122B5
:10165D0000EF00C500AF00A00096008E008700814E
:10166D00007C007800740071006D006B00680065EF
:10167D0000630061005F005D005B005A005800567A
:10168D0000550054005200510050004E004D004CCA
:10169D00004B004A00490048004700460045004401
:1016AD0000430043004200410040003F003F003E28
:1016BD00003D003D003C003B003A003A0039003946
:1016CD00003800370037003600360035003400345E
:1016DD000033003300320032003100310030003071
:1016ED00002F002F002E002E002D002D002C002C81
:1016FD00002B002B002A002A002900290029002890
:10170D00002800270027002600260026002500259A
:10171D0000240024002400230023002200220022A4
:10172D0000210021002000200020001F001F001FAD
:10173D00001E001E001D001D001D001C001C001CB5
:10174D00001B001B001B001A001A001A00190019BB
:10175D0000180018001800170017001700160016C3
:10176D0000160015001500150014001400140013C8
:10177D0000130013001200120012001100110010CE
:10178D0000100010000F000F000F000E000E000ED5
:10179D00000D000D000D000C000C000C000B000BDB
:1017AD00000B000A000A00090009000900080008E2
:1017BD0000080007000700070006000600050005E9
:1017CD0000040004000300030003000200020001F6
:1017DD000001000100000000FFFFFFFFFFFFFFFE03
:1017ED00FFFEFFFDFFFDFFFCFFFCFFFBFFFBFFFA14
:1017FD00FFFAFFF9FFF9FFF8FFF8FFF7FFF7FFF624
:10180D00FFF6FFF5FFF5FFF4FFF3FFF3FFF2FFF235
:10181D00FFF1FFF0FFF0FFEFFFEEFFEDFFEDFFEC4F
:10182D00FFEBFFEAFFE9FFE8FFE7FFE6FFE5FFE477
:10183D00FFE3FFE2FFE0FFDFFFDDFFDCFFDAFFD8B4
:0C184D00FFD5FFD2FFCEFFC9FFC101692B
:071CD80044016628282828BA
:10338200120003785C7C017D017E007F0A120DA38E
:10339200900160E0FFA3E090016ACFF0A3EFF0900C
:1033A200016AE0FEA3E07802CEA2E713CE13D8F8BA
:1033B200F0EE90016AF0A3E025E0FF90016AE033AD
:1033C200FE745D2FF58274163EF583E493FF74015B
:0A33D2009390015ACFF0A3EFF02210
:102CAF0090015AE0FEA3E0FFC3EE648094805031A0
:102CBF00C3E49FFFE49EFE7C007D0A120EAA7C00F7
:102CCF007D0A120EAA8D0E750B0A750C0A750D0C66
:102CDF0090015AE0FEA3E0FFC3E49FFFE49EFE8055
:102CEF004090015AE0FEA3E0FF7C007D64120EAA23
:102CFF007C007D0A120EAAAB0590015AE0FEA3E0FC
:102D0F00FF7C007D0A120EAA7C007D0A120EAA8D8E
:102D1F000E8B0D750B0A750C0A90015AE0FEA3E09D
:102D2F00FF7C007D0A120EAA8D0F7B0A7D0A7F0A97
:042D3F00123D3722E8
:041CDF004101B5000A
:102B77007F051236709000B2EFF07F021236709028
:102B870000B3EFF07F041236709000B4EFF07F01CE
:102B97001236709000B5EFF09000B2E0B4010E90DD
:102BA70001B5E004F0E0D394024002E4F09000B3F2
:102BB700E0B4010F9001B5E014F0E0C394005003B6
:102BC7007402F09000B4E0B4011FE538D3940040DC
:102BD700181538780E7C007D007B007A0079367EE8
:102BE700007F06120DA31227669000B5E0B4011FFF
:102BF700E538C3940F50180538780E7C007D007BAC
:0F2C0700007A0079367E007F06120DA312276631
:012C1600229B
:103E35009001B5E014600A14600A24027009023783
:083E4500C3022CAF12373E222C
:101CE3004A0108000003F1043607F50600C110435A
:091CF30001040000004101070199
:103B210078087C007D007B017A0179127E007F0795
:103B3100120DA31222E5900191E0900107F0D2103D
:0B3B4100E4900113F090011204F02248
:1026A000123F20900119EFF020105D900107E0C368
:1026B00094065054E0FF04F0EF25E02408F582E48E
:1026C0003401F583E0FCA3E0FDE4120C197466FB11
:1026D000FAF97840120A6EC004C005C006C007901F
:1026E0000119E0FCE4120C1EA804A905AA06AB0718
:1026F000D007D006D005D004120B77120C529000F0
:10270000B2EEF0A3EFF08021201015900107E0C396
:102710009406400C9000B27404F0A374B0F08009E9
:102720009000B2E4F0A37414F09000B2E0FAA3E0D9
:10273000FB7C007D3CFFAE02120E55900113EFF0C2
:102740007C007D3CAF03AE02120E55900112EDF0FD
:10275000780F7C007D007B017A0179127E007F0773
:06276000120DA3023E1C55
:102F7D00900113E075F03CA4FFAEF0900112E07CDF
:102F8D00002FF509EC3EF50812408378127C017D87
:102F9D00017E007F07120DA3E50945087007B210E9
:102FAD001226A0803EE509150970021508AE08AF7E
:102FBD00097C007D3C120E55900113EFF0AE08AF69
:102FCD00097C007D3C120E55900112EDF0780F7CBE
:102FDD00007D007B017A0179127E007F07120DA31F
:102FED00123E1C900104E508F0A3E509F0A210E4DF
:032FFD0033A3F00B
:0130000022AD
:1037C30012408378127C017D017E007F07120DA3D6
:1037D300900113E0FF75F00A84F50BEF75F00A848E
:1037E30085F00C750D0A900112E0FF75F00A84F55F
:1037F3000EEF75F00A8485F00F7B0AE4FDFF023DAE
:01380300378D
:071CFC004401AF00963237EE
:103F2000900191E024AFF582E43401F583E0FF7E57
:023F300000226D
:10373E00750B0A750C0A900191E0FF24AFF582E437
:10374E003401F583E0FE75F06484F50DEE75F00A34
:10375E008475F00A8485F00E74AF2FF582E434017F
:10376E00F583E075F00A8485F00F7B0A7D0A7F0AE7
:03377E00023D37D2
:1000460000000000000000000000000000000000AA
:10005600000000000000000000000000000000009A
:10006600000000000000000000000000000000008A
:10007600000000000000000000000000000000007A
:10008600000000000000000000000000000000006A
:10009600000000000000000000000000000000005A
:1000A600000000000000000000000000000000004A
:1000B600000000000000000000000000000000003A
:1000C600000000000000000000000000000000002A
:1000D600000000000000000000000000000000001A
:1000E600000000000000000000000000000000000A
:1000F60000000000000000000000000000000000FA
:1001060000000000000000000000000000000000E9
:1001160000000000000000000000000000000000D9
:1001260000000000000000000000000000000000C9
:1001360000000000000000000000000000000000B9
:1001460000000000000000000000000000000000A9
:100156000000000000000000000000000000000099
:10016600000000000000000000000000C6BDD1F441
:10017600A3ACB5BDC1CBA1A3C7EBC7B0CDF9C0E851
:10018600CDD0C2B7B5C4B3CBBFCDD7BCB1B8CFC243
:10019600B3B5A1A3CFC2B3B5CAB1A3ACC7EBD7A2BF
:1001A600D2E2C1D0B3B5D3EBD5BECCA8D6AEBCE4B3
:1001B600B5C4BCE4CFB6A1A3000000000000000057
:1001C6000000000000000000000000000000000029
:1001D6000000000000000000000000000000000019
:1001E6000000000000000000000000000000000009
:1001F60000000000000000000000000000000000F9
:1002060000000000000000000000000000000000E8
:1002160000000000000000000000000000000000D8
:1002260000000000000000000000000000000000C8
:1002360000000000000000000000000000000000B8
:1002460000000000000000000000000000000000A8
:100256000000000000000000000000000000000098
:100266000000000000000000000000000000000088
:100276000000000000000000000000000000000078
:100286000000000000000000000000000000000068
:100296000000000000000000B3A4C9B3BBF0B3B572
:1002A600C4CFD5BEA3ACB5BDC1CBA1A3B1BED5BE8F
:1002B600CEAABBBBB3CBD5BEA3ACBFC9BBBBB3CB6E
:1002C60032BAC5CFDFA1A2B4C5B8A15332CFDFA1E0
:1002D600A3C7EBC7B0CDF9B8DFCCFAC4CFD5BEA162
:1002E600A2B4C5B8A15332CFDFA1A2C0E8CDD0B821
:1002F600DFCBD9C6FBB3B5D5BEB5C4B3CBBFCDD75F
:10030600BCB1B8CFC2B3B5A1A3CFC2B3B5CAB1A36E
:10031600ACC7EBD7A2D2E2C1D0B3B5D3EBD5BECC36
:10032600A8D6AEBCE4B5C4BCE4CFB6A1A300000019
:1003360000000000000000000000000000000000B7
:1003460000000000000000000000000000000000A7
:100356000000000000000000000000000000000097
:100366000000000000000000000000000000000087
:100376000000000000000000000000000000000077
:100386000000000000000000000000000000000067
:100396000000000000000000000000000000000057
:1003A6000000000000000000000000000000000047
:1003B6000000000000000000000000000000000037
:1003C60000000000B9E2B4EFA3A8BBE1D5B9D6D0CE
:1003D600D0C4A3A9A3ACB5BDC1CBA1A3B1BED5BEA4
:1003E600CEAABBBBB3CBD5BEA3ACBFC9BBBBB3CB3D
:1003F60032BAC5CFDFA1A3C7EBC7B0CDF9B3A4C945
:10040600B3B9FABCCABBE1D2E9D6D0D0C4A1A2B373
:10041600A4C9B3B9FABCCABBE1D5B9D6D0D0C4A178
:10042600A2B3A4C9B3B9FABCCABBE1D5B9D0C2B3A9
:10043600C7B5C4B3CBBFCDD7BCB1B8CFC2B3B5A1D6
:10044600A3CFC2B3B5CAB1A3ACC7EBD7A2D2E2C1A0
:10045600D0B3B5D3EBD5BECCA8D6AEBCE4B5C4BC40
:10046600E4CFB6A1A30000000000000000000000D9
:100476000000000000000000000000000000000076
:100486000000000000000000000000000000000066
:100496000000000000000000000000000000000056
:1004A6000000000000000000000000000000000046
:1004B6000000000000000000000000000000000036
:1004C6000000000000000000000000000000000026
:1004D6000000000000000000000000000000000016
:1004E6000000000000000000000000000000000006
:1004F600D6D5B5E3D5BEA3ACB6C5BCD2C6BAA3ACF9
:10050600B5BDC1CBA1A3C7EBC8ABCCE5B3CBBFCDC3
:10051600D0AFB4F8BAC3CBE6C9EDCEEFC6B7D7BCF9
:10052600B1B8CFC2B3B5A1A3CFC2B3B5CAB1A3AC5C
:10053600C7EBD7A2D2E2C1D0B3B5D3EBD5BECCA818
:10054600D6AEBCE4B5C4BCE4CFB6A1A3BBB6D3ADAE
:10055600C4FAD4D9B4CEB3CBD7F8B5D8CCFAC1D077
:10056600B3B5A3ACD4D9BCFBA3A100000000000026
:100576000000000000000000000000000000000075
:100586000000000000000000000000000000000065
:100596000000000000000000000000000000000055
:1005A6000000000000000000000000000000000045
:1005B6000000000000000000000000000000000035
:1005C6000000000000000000000000000000000025
:1005D6000000000000000000000000000000000015
:1005E6000000000000000000000000000000000005
:1005F60000000000000000000000000000000000F5
:1006060000000000000000000000000000000000E4
:10061600000000000000000000000000B3B5C3C5E4
:10062600BCB4BDABB9D8B1D5A3ACBDF7B7C0BCD0CF
:10063600C9CB000000000000000000000000000020
:1006460000000000000000000000000000000000A4
:100656000000000000000000000000000000000094
:100666000000000000000000000000000000000084
:100676000000000000000000000000000000000074
:100686000000000000000000000000000000000064
:100696000000000000000000000000000000000054
:1006A6000000000000000000000000000000000044
:1006B6000000000000000000000000000000000034
:1006C6000000000000000000000000000000000024
:1006D6000000000000000000000000000000000014
:1006E6000000000000000000000000000000000004
:1006F60000000000000000000000000000000000F4
:1007060000000000000000000000000000000000E3
:1007160000000000000000000000000000000000D3
:1007260000000000000000000000000000000000C3
:1007360000000000000000000000000000000000B3
:100746000000000000000000B1BEB4CEC1D0B3B5B9
:10075600BFAACDF9A3ACB6C5BCD2C6BAA1A3CFC2B7
:10076600D2BBD5BEA3ACC6BDD1F4A1A3B3B5C3C598
:10077600BFAAC6F4B7BDCFF2CEAAD7F3B2E0A1A303
:100786000000000000000000000000000000000063
:100796000000000000000000000000000000000053
:1007A6000000000000000000000000000000000043
:1007B6000000000000000000000000000000000033
:1007C6000000000000000000000000000000000023
:1007D6000000000000000000000000000000000013
:1007E6000000000000000000000000000000000003
:1007F60000000000000000000000000000000000F3
:1008060000000000000000000000000000000000E2
:10081600B1BEB4CEC1D0B3B5BFAACDF9A3ACB6C5EF
:10082600BCD2C6BAA1A3CFC2D2BBD5BEA3ACB3A419
:10083600C9B3BBF0B3B5C4CFD5BEA1A3B3B5C3C5C9
:10084600BFAAC6F4B7BDCFF2CEAAD7F3B2E0A1A332
:10085600B8F7CEBBB3CBBFCDC7EBD7A2D2E2A3AC22
:10086600D0E8BBBBB3CB32BAC5CFDFA1A2B4C5B803
:10087600A15332CFDFB5C4B3CBBFCDA3ACC7EBD446
:10088600DAB3A4C9B3BBF0B3B5C4CFD5BECFC2B338
:10089600B5A1A30000000000000000000000000059
:1008A6000000000000000000000000000000000042
:1008B6000000000000000000000000000000000032
:1008C6000000000000000000000000000000000022
:1008D6000000000000000000B1BEB4CEC1D0B3B528
:1008E600BFAACDF9A3ACB6C5BCD2C6BAA1A3CFC226
:1008F600D2BBD5BEA3ACB9E2B4EFA3A8BBE1D5B9D0
:10090600D6D0D0C4A3A9A1A3B3B5C3C5BFAAC6F404
:10091600B7BDCFF2CEAAD7F3B2E0A1A3B8F7CEBB4C
:10092600B3CBBFCDC7EBD7A2D2E2A3ACD0E8BBBB5B
:10093600B3CB32BAC5CFDFB5C4B3CBBFCDA3ACC73B
:10094600EBD4DAB9E2B4EFA3A8BBE1D5B9D6D0D0DF
:10095600C4A3A9CFC2B3B5A1A30000000000000044
:100966000000000000000000000000000000000081
:100976000000000000000000000000000000000071
:100986000000000000000000000000000000000061
:100996000000000000000000000000000000000051
:1009A600CFC2D2BBD5BEA3ACCAC7B1BEB4CEC1D02E
:1009B600B3B5D6D5B5E3D5BEA3ACB6C5BCD2C6BA1B
:1009C600A1A3B3B5C3C5BFAAC6F4B7BDCFF2CEAA1D
:1009D600D7F3B2E0A1A3C1D0B3B5D4CBD0D0CAB1BE
:1009E600A3ACC7EBD5BECEC8B7F6BAC3A3ACC7EBAC
:1009F600CEAAD3D0D0E8D2AAB5C4B3CBBFCDC8C394
:100A0600D7F9A3ACB6E0D0BBBACFD7F7A1A3000005
:100A160000000000000000000000000000000000D0
:100A260000000000000000000000000000000000C0
:100A360000000000000000000000000000000000B0
:100A460000000000000000000000000000000000A0
:100A56000000000000000000000000000000000090
:080A6600000000000000000088
:101D03004101A8004101AE004501A90014141414B7
:103ED3009001A8E0B441079001AE7401F022E49090
:043EE30001AEF0221A
:102C17009001AEE064017003022CAE900104E0FE67
:102C2700A3E0FF9000B2EEF0A3EFF0900107E0FD04
:102C370024A9F582E43401F583E0B50721E4B5065C
:102C47001D900106E07017EDFF7E007C017D2C12C0
:102C57000E4374462FF974003EFA7BFF80469000BE
:102C6700B2E07004A3E064057013900106E0B401BC
:102C77000C7BFF7A0679227D647C0080279000B266
:102C8700E07002A3E07020900106E0B40119900102
:102C970007E075F0C8A42486F9740635F0FA7BFFBF
:072CA7007DC87C00123A9980
:012CAE002203
:04003E0000A8C00056
:101D130044018D00000000440192000000000150C6
:011D230000BF
:10000E00122F7D123382123F20123E35122C171200
:05001E00348F021453B1
:1038C1003F065B4F666D7D077F6F000840014148F1
:1038D100BF86DBCFE6EDFD87FFEF777C395E79713F
:1038E1003D7606383F736D3E6E5F7C585E7B716F2F
:0C38F100741038545C7367506D781C6EC6
:081D24004101B3FF4101B400CD
:103F3200EFC394004009EFD3946450037F01227FC2
:023F420000225B
:1033DC00E4F50F9001B404F09001B374FFF0E4F540
:1033EC000FAF0F123D949000E5EFF0E0FFE50FFDFD
:1033FC003395E0FC74662DF58274013CF583EFF097
:10340C00EFF46006123F32EF7014AF0FEF3395E01C
:10341C00FE74662FF58274013EF5837428F0050F57
:09342C00C3E50F6480948440B8EC
:013435002274
:103B77009001B4E070031233DC900191E0FF123D35
:103B8700949000E4EFF0F46008E0FF123F32EF702A
:093B9700037F28229000E4E0FF06
:013BA0002202
:103B4C008F0E9001B4E070031233DCAF0E123F32D3
:103B5C00EF70037FFF22900191E0FFAD0E123EA9A2
:0B3B6C00900191E09001B3F07F002277
:0238FD008F0D2D
:1038FF009001B4E070031233DCAF0D123F32EF7062
:10390F00057EFF7FFF22123B779000E3EFF0B50DAE
:10391F0004E4FEFF22AF0D123B4CEF7005FE7F015A
:06392F0080047EFF7FFF13
:01393500226F
:06409C002C00425350000D
:101D2C006020006E000000000000000000000000B9
:101D3C000000000000000000000000000000000097
:101D4C00000000006020008E000000000000000079
:101D5C000000000000000000000000000000000077
:101D6C0000000000000000004100B1004300AE4242
:021D7C005350C2
:1039A2007B017A00796E7D0A123DCCAE02AF018FA7
:1039B200828E83EF4E6014E4F09000B17402F07BCB
:1039C200017A00796E121859023E949000B1740384
:0139D200F004
:0139D30022D1
:1034E6007F007EC27D017C001231F17E007F207D4F
:1034F600007B017A00796E1211B37E007F207D0079
:103506007B017A00798E1211B37BFF7A3979A27F1B
:1035160009123081750D01750E00750FAE7510001C
:103526007511037B017A00796E7D207C00123A6862
:06353600E49000B1F02258
:103E94007E007F207D007B017A00796E1211B3E4ED
:053EA4009000B1F022C6
:0B402E009000B1E0B40303123E9422A6
:061859008B088A09890AD0
:10185F00E49000D2F0A3F0AE02AF01EF4E6007129A
:10186F003EBEEF4E70030219C878B27C007D01AB0B
:10187F0008AA09A90A1211967510FF751140751261
:10188F009C7B017A0079B20219A9E50C450B700314
:10189F000219B79000D2E0FEA3E0FFC3940AEE64F2
:1018AF0080948040030219B7EE600302198CEF1485
:1018BF00B40900400302198C9018D575F003A4C524
:1018CF008325F0C583730218F00218FE02190C026B
:1018DF00191A021928021936021949021960021938
:1018EF0077AA0BA90C7B011228D19000D48044AAAF
:1018FF000BA90C7B011228D19000D68036AA0BA918
:10190F000C7B011228D19000D88028AA0BA90C7B40
:10191F00011228D19000DA801AAA0BA90C7B0112B0
:10192F0028D19000DC800CAA0BA90C7B011228D1C6
:10193F009000DEEEF0A3EFF08043AA0BA90C7B0121
:10194F001228D19000E2EFF0D394014030E4F08000
:10195F002CAA0BA90C7B011228D19000E0EFF0D339
:10196F0094014019E4F08015AA0BA90C7B011228F1
:10197F00D19000E1EFF0D394014002E4F09000D356
:10198F00E004F070069000D2E004F07510FF7511BE
:10199F004075129C7B007A007900123001AE02AFC5
:1019AF00018E0B8F0C021899C39000D3E0940A900C
:1019BF0000D2E06480948050057EFF7FFF2290016B
:1019CF0091E0FE2466F582E43401F583E0FD90009A
:1019DF00D8E0FAA3E0FB6D7001EA6011AF03746603
:1019EF002EF582E43401F583EFF01238FD9000DA22
:1019FF00A3E0FF900191E0FE24AFF582E43401F5FE
:101A0F0083EFF09000E0E0FF748D2EF582E4340157
:101A1F00F583EFF09000E1E0FF74922EF582E4344D
:081A2F0001F583EFF0E4FEFF76
:011A3700228C
:1021C800F583E0FF7E009000B2E0FCA3E0248EF9E6
:0621D80074003CFA7B01DB
:0621DE008B088A09890A42
:1021E400E49000B6F0A3F0A3EEF0A3EFF0E49000C7
:1021F400C4F0A3F0EF4E70177430120E0FAB08AAA0
:1022040009A90A900001E4120E217E007F0122D365
:102214009000B9E094009000B8E09400405390001E
:10222400C5E0940A9000C4E0648094805043900018
:10223400B8E0FAA3E0FB7C007D0AFFAE02120E5563
:10224400ED2430FF9000C4E475F001120EF6FC7426
:10225400BA25F0F58274003CF583EFF07C007D0A2A
:10226400AF03AE02120E559000B8EEF0A3EFF0806B
:102274009E9000C5E024FFFE9000C4E034FF90006F
:10228400B4F0A3CEF09000B4E0FEA3E0FFC3EE648C
:10229400809480403574BA2FF58274003EF583E053
:1022A400FFAB08AA09A90A9000B6E475F001120E62
:1022B400F685F082F583EF120E219000B5E024FF3D
:1022C400F09000B4E034FFF080BBAB08AA09A90A7F
:1022D4009000B6E0FEA3E0FFF5828E83E4120E21A7
:0122E40022D7
:10145300E49000B2F0A3F0124044BF01037F0322E3
:101463007E007F207D007B017A00798E1211B37894
:101473008E7C007D017BFF7A40799E1211967B0161
:101483007A00798E123EBE9000B2EEF0A3EFF09098
:1014930000B2E475F001120EF6FE748E25F0F582AB
:1014A30074003EF583742CF09001911221CA9000D0
:1014B300B3E02FF09000B2E03EF0E475F001120EBD
:1014C300F6FE748E25F0F58274003EF583742CF0DD
:1014D30090015AE0FEA3E0FF1221CE9000B3E02F6B
:1014E300F09000B2E03EF0E475F001120EF6FE74E7
:1014F3008E25F0F58274003EF583742CF0900191F3
:10150300E02466F582E434011221C89000B3E02F91
:10151300F09000B2E03EF0E475F001120EF6FE74B6
:101523008E25F0F58274003EF583742CF0900191C2
:10153300E024AFF582E434011221C89000B3E02F18
:10154300F09000B2E03EF0E475F001120EF6FE7486
:101553008E25F0F58274003EF583742CF090011310
:101563001221CA9000B3E02FF09000B2E03EF0E405
:1015730075F001120EF6FE748E25F0F58274003EAE
:10158300F583742CF09001121221CA9000B3E02F5E
:10159300F09000B2E03EF0E475F001120EF6FE7436
:1015A3008E25F0F58274003EF583742CF0A210E4CE
:1015B300FE33FF1221CE9000B3E02FF09000B2E093
:1015C3003EF0E475F001120EF6FE748E25F0F582FE
:1015D30074003EF583742CF0900191E0248DF58224
:1015E300E434011221C89000B3E02FF09000B2E080
:1015F3003EF0E475F001120EF6FE748E25F0F582CE
:1016030074003EF583742CF0900191E02492F582EE
:10161300E434011221C89000B3E02FF09000B2E04F
:101623003EF0E475F001120EF6FE748E25F0F5829D
:1016330074003EF583740AF0C39000B3E0942090E5
:1016430000B2E06480948040037F03227B017A0030
:09165300798E7D207C00123C1A06
:01165C00226B
:031D7E000135002C
:10378100E535703D75360375379675380A7539011B
:10379100753A01F53B78087C00FDFB7A007936FE2D
:1037A1007F06120DA3123C42780E7C007D007B0047
:1037B1007A0079367E007F06120DA31227667535D1
:0237C1000122E3
:10396C00900191E02466F582E43401F583E0FFD305
:10397C0090015BE09F7480F890015AE0648098405D
:10398C000B75450AE4FB7D0A7F328006E4F545FBA6
:06399C00FDFF122DD622F2
:041D8100024D00000F
:103E7D00123E4D900191E0248DF582E43401F583DD
:073E8D00E4F0F54DF54E22B3
:0E3FA60012353CC3EE940440057E047F0022D9
:013FB40022EA
:10348F00123FA68E4D8F4EC3E54E940AE54D940024
:10349F005044E54E7004E54D6404603A900191E0AC
:1034AF00248DF582E43401F583E0700A900106E083
:1034BF00B40103123CAF900191E0248DF582E43406
:1034CF0001F583E0B4010F900104E07004A3E06400
:0734DF00017003123CD22230
:103CAF007F011239D4EF701A900191E0248DF582C3
:103CBF00E43401F5837401F07BC87A007D64FF1250
:033CCF00297F2228
:103CD2007F011239D4EF701A900191E0248DF582A0
:103CE200E43401F583E4F07B387AFF7D647F0112CE
:033CF200297F2205
:050026007F010235E13D
:0E3FFD007F011239D4EF70037F01227F002272
:0B4039007F10123F44900191EFF02235
:103F77008F51AD517F10123BA1900191E551F02275
:101D850055011B00000000000000000000000000DD
:0C1D9500000000000000000041011A00E6
:0211DF001552A7
:1011E100A852E4F6A852E6FFC36480948340030248
:1011F1001450EF3395E0FE90011B75F007EF1210CC
:10120100B8EE75F007A42583F583E0FCA3E04C70EC
:101211000302144A90011D75F007EF1210B8EE7524
:10122100F007A42583F583E0FEA3E04E70030214CA
:101231004AE6FFFD3395E0FC90011F75F007ED12C2
:1012410010B8EC75F007A42583F58374FFF5F0124F
:101251000EE045F0600302144A90011D75F007EDA0
:101261001210B8EC75F007A42583F583E0FAA3E02A
:10127100FB90011F75F007ED1210B8EC75F007A493
:101281002583F583EAF0A3EBF0EF3395E0FE9001BF
:101291001B75F007EF1210B8EE75F007A42583F562
:1012A10083E0FCA3E0D39400EC648094804056A8D2
:1012B10052E6FD3395E0FC90011B75F007ED12102D
:1012C100B8EC75F007A42583F58374FFF5F0120ED1
:1012D100E090012175F007ED1210B8EC75F007A44C
:1012E1002583F583E004F0D36480948340729001F8
:1012F1002175F007EF1210B8EE75F007A42583F5FC
:1013010083E4F0805BA852E6FFFD3395E0FC900199
:101311001B75F007ED1210B8EC75F007A42583F5E5
:1013210083E475F001120EE090012175F007ED12D2
:1013310010B8EC75F007A42583F583E014F0C364BD
:10134100809480501BEF3395E0FE90012175F007EA
:10135100EF1210B8EE75F007A42583F5837403F03E
:10136100A852E6FFFD3395E0FC90012175F007EDF1
:101371001210B8EC75F007A42583F583E014603CE6
:1013810014606614700302141724036003021442EC
:10139100EF14601014601924026003021442D2C1D8
:1013A100C2C2802990011AE054F04401F0021442B3
:1013B10090011AE0540F4410F0021442A852E614AE
:1013C100601114601924027078C2C1D2C2C2C3C2B2
:1013D100C4806E90011AE054F04402F080639001E1
:1013E1001AE0540F4420F08058A852E614601114FA
:1013F10060192402704BC2C1C2C2D2C3C2C48041AF
:1014010090011AE054F04404F0803690011AE0543F
:101411000F4440F0802BA852E61460111460192487
:1014210002701EC2C1C2C2C2C3D2C4801490011ACA
:10143100E054F04408F0800990011AE0540F448010
:0F144100F090011AE0FF124090A852060211E548
:0314500005522220
:103E4D0053B3E143B41E53C0E190005474FFF0A38B
:083E5D007411F0A374DFF022E0
:10297F008F08EF3395E0FE90011B75F007EF1210F3
:10298F00B8EE75F007A42583F583E0FEA3E04E6053
:10299F0003022A27E508600A64016006E50864025D
:1029AF007076ED60737C007E037FE8120E55AD08E4
:1029BF00ED3395E0FC90011D75F007ED1210B8ECAA
:1029CF0075F007A42583F583EEF0A3EFF090011DBA
:1029DF0075F007ED1210B8EC75F007A42583F58399
:1029EF00E0FEA3E0FF90011F75F007ED1210B8ECA9
:1029FF0075F007A42583F583EEF0A3EFF090011B8C
:102A0F0075F007ED1210B8EC75F007A42583F58368
:0B2A1F00EAF0A3EBF07F02227F03220D
:1035E100EF600764016003BF023AEFFD3395E0FC31
:1035F10090011B75F007ED1210B8EC75F007A425CA
:1036010083F583E0FAA3E0FB90011B75F007ED124F
:1036110010B8EC75F007A42583F583E4F0A3F0AEB0
:0736210002AF0322E4FEFFEB
:01362800227F
:1039D400EF600764016003BF0225EF3395E0FE90BA
:1039E400011B75F007EF1210B8EE75F007A42583DC
:1039F400F583E0FEA3E04E60037F01227F00227F77
:023A040003229B
:041DA10041019E015D
:103E0300C295E4FEEF1392CC000000D29500EFC3FD
:083E130013FFC2950EBE08EC7E
:013E1B002284
:103E6500E4FEEFC313FF30CC03430780D295000077
:073E750000C2950EBE08EB30
:013E7C002223
:103AC800F07F85123ADBA3EFF07F87123ADBA3EF92
:033AD800F07F89F3
:103ADB00C296000000C295000000D29600123E0371
:0A3AEB00123E65D295000000C2965D
:013AF50022AE
:033D5700A3E0FDE9
:103D5A00C296000000C295000000D29600123E03EF
:0D3D6A00AF05123E03D295000000C2962264
:074083007B017A017997220D
:103E1C0078977C017D017B007A00790F7E007F070B
:093E2C00120DA3E490019EF022A6
:103F4400EFD3941F5009EF25E044C1FF023ADB7F11
:023F5400012248
:103BA100AC07AB05ECD3941F501CE4FD7F8E123D96
:103BB1005AEC25E044C0FFAD03123D5A7D807F8E53
:093BC100123D5A7F00227F01220F
:022AD20015529B
:102AD40090019EE060447F81123ADBA852EFF690A9
:102AE4000197E06F7003022B74A852E6F07F831203
:102AF4003ADBA852EFF6A3E06F6075A852E6123AEB
:102B0400C8A3EFF07F8D123ADB90019DEFF07F8B2D
:102B1400123ADB90019CEFF08056900196E0FF049E
:102B2400F0EFC3940A4049E4F090019E04F0E4FD00
:102B34007F8E123D5A900197E0FD7F80123D5A7FAF
:102B440082123D577F84123D57A3E0FD7F86123DDC
:102B54005AA3E0FD7F88123D5AA3E0FD7F8A123D0F
:102B64005AA3E0FD7F8C123D5A7D807F8E123D5A20
:032B7400055222E5
:1022E5007F81123ADB900197EFF07F83123ADBA3EF
:1022F500EF123AC8A3EFF07F8B123ADBA3EFF07F22
:102305008D123ADBA3EFF0E4FD7F8E123D5A7F1E5E
:10231500123F44EF64A560047F0180027F009001B5
:1023250097E05480FEA3E0D3945940047D018002D8
:102335007D00ED4EFE900199E0D394A440047D010B
:1023450080027D00ED4EFE90019AE0D39431400469
:102355007D0180027D00ED4EFE90019BE0D394123D
:1023650040047D0180027D00ED4EFE90019CE0D38E
:10237500940740047D0180027D00ED4EFE90019D95
:10238500E0D3949940047D0180027D00ED4E4F60BD
:1023950030780F7C007D007B007A0079087E007F15
:1023A50007120DA3123E1C7DA57F1E123BA1789737
:1023B5007C017D017B007A0079087E007F07120D84
:1023C500A37DA97F90123D5A7D807F8E123D5A9044
:0E23D500005A74FFF0A3742AF0A374D2F02211
:103F8700D2C0000000D2CD000000C2C00000002255
:0D002E00C2C0000000D2CD000000D2C022F0
:0B3C6700123C8B123C72AF05123C8B2C
:103C7200E4FFD2CD30C009EFC394FF50030F80F4AC
:083C8200000000C2CD000000AB
:013C8A002217
:103C8B00E4FEEF25E0FFC2CD00000092C000000073
:103C9B00D2CD0000000EBE08E9C2CD000000D2C09C
:033CAB0000000016
:013CAE0022F3
:103CF500C2CD000000D2C000E4FED2CD0000EF2509
:103D0500E0FDA2C0E4334DFF0000C2CD000EBE08A9
:013D1500E9C4
:013D1600228A
:103EA900AC07123F877FA0123C8B123C72AF041201
:053EB9003C6702002E31
:023D9400AD0779
:103D9600123F877FA0123C67123F877FA1123C8BA0
:093DA600123C72123CF512002ED1
:013DAF0022F1
:0B1DA50048019FD4111A50400288A58D
:093EE7007F03123EF0D2C57F03F7
:0A3EF000AE071FEE60030080F7220A
:103EFA00D2A7123EE7C2A77F03123EF0C2C57F03D4
:033F0A00023EF084
:0C401700C2A7123EE7D2A77F03023EF0D2
:103DB000E4FFD2C530A709EFC394FA50030F80F493
:0C3DC0007F03123EF0C2C57F03023EF0FC
:023BF200AD071D
:103BF400E4FBC2C57F03123EF0ED3392A7ED25E04E
:103C0400FD123EE70BBB08EAC2C57F03123EF0D2A9
:063C1400C57F03023EF033
:0236B6001552AB
:1036B8009001A7E064017037123EFA7F20123BF2B6
:1036C800123DB0A852E4F6A852E6FFC3940850177A
:1036D800749F2FF582E43401F583E0FF123BF21268
:0F36E8003DB0A8520680E0124017E49001A7F011
:0336F70005522257
:103326009001A1E025E025E0FFA3E0C413135403B8
:103336002F2466F515E43403F5149001A6E0540F26
:10334600F5169001A4E0543FFF5403FEBE03057535
:1033560017FF8003E4F517EF540CFEBE0C05751835
:10336600FF8003E4F518EF5430FFBF30057519FFF1
:0B3376008003E4F5197B007A00791455
:013381002229
:10276600D3E50F9438E50E940450047F0180027F70
:1027760000C3E50F9466E50E940340047E018002D3
:102786007E00EE5F6030123326120F0C650F700468
:10279600E5F0650E6020E50F249AFD1313543F9073
:1027A60001A1F0ED5403FFC4333354C04410A3F029
:1027B6009001A77401F0123326E92402F9E43AFAEB
:1027C600120DC9651060047F0180027F00E510D3F9
:1027D600940F50047E0180027E00EE5F6011E510CA
:1027E600540FFF9001A6E054F04FF0A37401F07D62
:1027F6002AE5116003430501E5126003430504E57C
:102806001360034305109001A4E06D6008EDF0909D
:0528160001A77401F0B0
:01281B00229A
:103C4200780E7C007D007B007A0079087E007F067A
:103C5200120DA312276690005774FFF0A37436F07A
:053C6200A374B6F0227E
:101DB0005501450000000000000000000000000088
:081DC00000000100000000001A
:03002300021F7544
:101F7500C0E0C0F0C083C082C0D075D000C000C032
:101F850001C002C003C004C005C006C00730993BAC
:101F9500C29990014AE0FEA3E0FFC3900149E09F8A
:101FA500900148E09E501F900145E0FBA3E0FAA395
:101FB500E0F9A3E475F001120EF685F082F58312BF
:101FC5000DE2F599800590014CE4F020980302207C
:101FD5008AC298300B09C20B900152E4F0A3F0902D
:101FE5000150E0FEA3E0FFA3E0FCA3E0FDC39FECEE
:101FF5009E507790014DE0FBA3E0FAA3E0F98D82B6
:102005008C83E599120E21900158E0FEA3E0FFC3F1
:10201500ED9FEC9E5046900150E0FCA3E0FDEF9D46
:10202500EE9C5038900155E0FBA3E0FAA3E0F9904F
:102035000152E0FEA3E0FFF5828E83120DE2FD90D2
:10204500014DE0FBA3E0FAA3E0F98F828E83120D28
:10205500E26D600890015274FFF0A3F0900153E027
:1020650004F07006900152E004F0900150E0FEA3E8
:10207500E0FFC3900153E09F900152E09E4006901F
:1020850001547401F0D007D006D005D004D003D098
:1020950002D001D000D0D0D082D083D0F0D0E032B1
:023FB5001552A3
:0A3FB700900154E0A852F6FFE4F078
:033FC10005522284
:1031F1008F0B8E0A8D098C08759850438E40538E23
:10320100FE53890FE47B04FAF9F890003E12109CFA
:10321100120FC2AB0BAA0AA909A808120FC2EFF438
:1032210004F58BE47B04FAF9F890003E12109C122D
:103231000FC2AB0BAA0AA909A808120FC2C3E49FC7
:10324100FFE49EFE74019DFDE49CFC78081210626F
:103251008F8DC2ABD28ED2AC90004E74FFF0A374AE
:073261003FF0A374B5F02259
:103A680090014DEBF0A3EAF0A3E9F0A3ECF0A3ED8D
:103A7800F0900158E510F0A3E511F0900155E50D1F
:103A8800F0A3E50EF0A3E50FF0D20BE4900154F09B
:013A9800220B
:103C1A0090014CE0701F900145EBF0A3EAF0A3E994
:103C2A00F0E4A3F0A3F0A3ECF0A3EDF0A37401F089
:083C3A00D2997F02227F0322D0
:0B40440090014CE07002FF227F01227F
:100A6E00EC4D6011E8497017ED33EC3304600DE482
:100A7E00FCFFFEFD22E933E8330470F8020CBE12CF
:100A8E000C8958046009E4CC2481500628500902D0
:100A9E000CC8284003020CC5C0E0EB4A7044B98074
:100AAE0006D0E0FB020CB4EF4E701CBD8008EBFFCD
:100ABE00EAFEE9FD80EBE98DF0A4FEE5F0020B57AE
:100ACE00E9CDF9EAFEEBFFEF89F0A4FCE5F0CE8963
:100ADE00F0A42EFFE435F0CD89F0A42DFEE435F020
:100AEE008067EF4E7005BD80D780C3EF8BF0A4AC4E
:100AFE00F0EE8BF0A42CFCE435F0F8EF8AF0A42C89
:100B0E00E5F038FCE433CB8DF0A42CFCE5F03BF89B
:100B1E00EE8AF0A42CFCE5F038F8E433CF89F0A48B
:100B2E002CFCE5F038CF3400CE89F0A42FFFE5F091
:100B3E003EFEE433C98DF0A42EFEE5F039CD8AF0E9
:100B4E00A42FFFE5F03EFEE43DFD33D0E0FB500761
:100B5E000BBB000F020CC8EC2CFCEF33FFEE33FE88
:060B6E00ED33FD020CA0B6
:100B7400020CC8EC5D046005E859047003020CBE65
:100B8400120C89580460F6EC4860F2EC7004FDFE27
:100B9400FF22C860DB2481C85009C3986002500654
:100BA400020CC59850CAF582E9294B4A7005AB82FC
:100BB400020CB475F0007C1A7880C3EF9BEE9AEDBA
:100BC40099400DC3EF9BFFEE9AFEED99FDE842F0CC
:100BD400DC23ACF0D0E0FFD0E0FED0E0FDAB82201F
:100BE400E7101BEB60BAEC2CFCEF33FFEE33FEEDA9
:100BF40033FD020CA0E803F830E705C0F075F000FF
:100C0400EF2FFFEE33FEED33FD40B830E7C280AA8C
:100C140075F020800E75F010800575F0087D007E5B
:100C2400007F003392D530D503121054EC334010BA
:100C3400EF33FFEE33FEED33FDEC33FCD5F0ED2264
:0E0C4400E5F0247EA2D513CC92E7CDCEFF22A0
:100C5200EDD2E7CD33EC3392D524814006E4FFFE9A
:100C6200FDFC22FCE4CFCECDCC24E0501174FF80F9
:100C7200EDC3CC13CCCD13CDCE13CECF13CF047096
:070C8200F030D5DE02105432
:100C8900E9D2E7C933E833F892D5EDD2E7CD33ECB1
:070C990033FC5002B2D5222A
:100CA000EC30E7100FBF000C0EBE00080DBD0004B5
:100CB0000BEB6014A2D5EB13FCED92E7FD2274FF61
:100CC000FCFDFEFF22E480F8A2D574FF13FC7D80BA
:030CD000E480EFCE
:03000000022E6667
:0C2E6600787FE4F6D8FD758152022EAD95
:100CD300E709F608DFFA8046E709F208DFFA803E03
:100CE30088828C83E709F0A3DFFA8032E309F608F0
:100CF300DFFA8078E309F208DFFA807088828C8358
:100D0300E309F0A3DFFA806489828A83E0A3F6080B
:100D1300DFFA805889828A83E0A3F208DFFA804CE5
:100D230080D280FA80C680D4806980F280338010BC
:100D330080A680EA809A80A880DA80E280CA803325
:100D430089828A83ECFAE493A3C8C582C8CCC5839D
:100D5300CCF0A3C8C582C8CCC583CCDFE9DEE7806D
:100D63000D89828A83E493A3F608DFF9ECFAA9F0EC
:100D7300EDFB2289828A83ECFAE0A3C8C582C8CC42
:100D8300C583CCF0A3C8C582C8CCC583CCDFEADE5B
:100D9300E880DB89828A83E493A3F208DFF980CCBD
:100DA30088F0EF60010E4E60C388F0ED2402B404B6
:100DB3000050B9F582EB2402B4040050AF2323455D
:060DC3008223900D237352
:100DC900BB010689828A83E0225002E722BBFE0228
:090DD900E32289828A83E493225B
:100DE200BB010CE58229F582E5833AF583E02250C6
:100DF20006E92582F8E622BBFE06E92582F8E22210
:0D0E0200E58229F582E5833AF583E4932229
:100E0F00BB010689828A83F0225002F722BBFE01C2
:020E1F00F322BC
:100E2100F8BB010DE58229F582E5833AF583E8F007
:100E3100225006E92582C8F622BBFE05E92582C8B3
:020E4100F2229B
:100E4300EF8DF0A4A8F0CF8CF0A428CE8DF0A42EC3
:020E5300FE227D
:100E5500BC000BBE0029EF8DF084FFADF022E4CC81
:100E6500F875F008EF2FFFEE33FEEC33FCEE9DEC4A
:100E7500984005FCEE9DFE0FD5F0E9E4CEFD22ED90
:100E8500F8F5F0EE8420D21CFEADF075F008EF2FDA
:100E9500FFED33FD4007985006D5F0F222C398FDCB
:050EA5000FD5F0EA2268
:100EAA00C2D5EC30E709B2D5E4C39DFDE49CFCEE63
:100EBA0030E715B2D5E4C39FFFE49EFE120E55C378
:100ECA00E49DFDE49CFC8003120E5530D507C3E473
:060EDA009FFFE49EFE22D2
:100EE000C5F0F8A3E028F0C5F0F8E582158270029D
:060EF0001583E038F0223A
:100EF600A3F8E0C5F025F0F0E582158270021583AF
:060F0600E0C838F0E8220B
:100F0C00BB010A89828A83E0F5F0A3E022500687B0
:100F1C00F009E71922BBFE07E3F5F009E319228972
:0B0F2C00828A83E493F5F074019322A5
:100F3700E88FF0A4CC8BF0A42CFCE98EF0A42CFC59
:100F47008AF0EDA42CFCEA8EF0A4CDA8F08BF0A4D7
:100F57002DCC3825F0FDE98FF0A42CCD35F0FCEB36
:100F67008EF0A4FEA9F0EB8FF0A4CFC5F02ECD39FB
:0F0F7700FEE43CFCEAA42DCE35F0FDE43CFC2268
:100F860075F008758200EF2FFFEE33FECD33CDCC22
:100F960033CCC58233C5829BED9AEC99E5829840A5
:100FA6000CF582EE9BFEED9AFDEC99FC0FD5F0D682
:100FB600E4CEFBE4CDFAE4CCF9A88222B800C1B9AC
:100FC6000059BA002DEC8BF084CFCECDFCE5F0CBEA
:100FD600F97818EF2FFFEE33FEED33FDEC33FCEB23
:100FE60033FB10D703994004EB99FB0FD8E5E4F9DE
:100FF600FA227818EF2FFFEE33FEED33FDEC33FCCB
:10100600C933C910D7059BE99A4007EC9BFCE99ABE
:10101600F90FD8E0E4C9FAE4CCFB2275F010EF2F03
:10102600FFEE33FEED33FDCC33CCC833C810D70703
:101036009BEC9AE899400AED9BFDEC9AFCE899F83E
:0E1046000FD5F0DAE4CDFBE4CCFAE4C8F922D1
:1036FA00C2D5E830E70FB2D5E4C39BFBE49AFAE4FB
:10370A0099F9E498F8EC30E717B2D5123730120F6E
:10371A00C2E4C39BFBE49AFAE499F9E498F88003BB
:10372A00120FC230D50DE4C39FFFE49EFEE49DFD57
:04373A00E49CFC22ED
:0E105400C3E49FFFE49EFEE49DFDE49CFC22AD
:10106200E8600FECC313FCED13FDEE13FEEF13FF6C
:03107200D8F12290
:10107500E86010ECA2E713FCED13FDEE13FEEF1391
:04108500FFD8F0227E
:10108900E8600FEFC333FFEE33FEED33FDEC33FCC5
:03109900D8F12269
:10109C00E493FC740193FD740293FE740393FF229A
:0C10AC00ECF0A3EDF0A3EEF0A3EFF022B7
:0C10B800A42582F582E5F03583F5832243
:0610C4008A838982E473B7
:1010CA00E709F60870FA8046E709F20870FA803EE6
:1010DA0088828C83E709F0A370FA807EE309F60818
:1010EA0070FA8076E309F20870FA806E88828C833F
:1010FA00E309F0A370FA806289828A83E0A3F60882
:10110A0070FA805689828A83E0A3F20870FA804ACC
:10111A0080D280FA80C680D4806580F280318010C7
:10112A0080A680EA809A80A880DA80E280CA80312C
:10113A0089828A83ECFAE493A3C8C582C8CCC583A2
:10114A00CCF0A3C8C582C8CCC583CC70E9800D8910
:10115A00828A83E493A3F60870F9ECFAA9F0EDFB0E
:10116A002289828A83ECFAE0A3C8C582C8CCC583E7
:10117A00CCF0A3C8C582C8CCC583CC70EA80DD890F
:10118A00828A83E493A3F20870F980CE88F0ED2472
:10119A0002B4040050C4F582EB2402B4040050BA2D
:0911AA00232345822390111A73DE
:103EBE00E4FFFE120DC9600C0FEF70010E09E970E0
:053ECE00F20A80EF2262
:103DCC00E94A4B700122120DC9FF6D700122EF7090
:0C3DDC0004FBFAF92209E970ED0A80EA04
:103001008B0D8A0E890FE94A4B700985460D85475C
:103011000E85480FE50F450E450D7002802C851079
:1030210016851117851218AB0DAA0EA90F12326859
:10303100EF250FF50FEE350EF50EAB0DFAA90F12B8
:103041000DC9700AF546F547F548FBFAF9228510D6
:1030510016851117851218AB0DAA0EA90F1232C9C8
:103061008B468A478948EA494B600EE4120E0F04E9
:103071002548F548E43547F547AB0DAA0EA90F22BF
:1028D1008B0D8A0E890FAB0DAA0EA90F120DC9FF20
:1028E100123F0D500D7401250FF50FE4350EF50E55
:1028F10080E4D211AB0DAA0EA90F120DC9FF642BF2
:102901006004EFB42D1BAB0D050FE50FAA0E70028D
:10291100050E14F9120DC9642D6003D38001C39211
:1029210011E4F510F511AB0DAA0EA90F120DC9FF97
:10293100123FC45036AB0DAA0EA90F120DC9FF33B9
:1029410095E0FEEF24D0FBEE34FFFAAE10AF117C20
:10295100007D0A120E43EF2BF511EE3AF5107401CA
:10296100250FF50FE4350EF50E80BB301106AE10C4
:0E297100AF118009C3E49511FFE49510FE221A
:1011B300EF4E6012EF60010EEDBB010B89828A8353
:1011C300F0A3DFFCDEFA2289F05007F709DFFCA960
:0C11D300F022BBFEFCF309DFFCA9F022B7
:102E72000230FEE493A3F8E493A34003F68001F248
:102E820008DFF48029E493A3F85407240CC8C33361
:102E9200C4540F4420C8834004F456800146F6DF30
:102EA200E4800B0102040810204080901C0AE47E9A
:102EB200019360BCA3FF543F30E509541FFEE49325
:102EC200A360010ECF54C025E060A840B8E493A3EC
:102ED200FAE493A3F8E493A3C8C582C8CAC583CA17
:102EE200F0A3C8C582C8CAC583CADFE9DEE780BECF
:011DC800001A
:0F3FC400EFC394304007EF943A50028001C322BC
:103F0D00EFC394094005EF940E4003BF2003D38007
:033F1D0001C322BB
:103268008B138A148915E4F519F51AE4FEFFAB16D9
:10327800AA17A9188F828E83120DE2FD6013AB1373
:10328800AA14A915120DC96D60070FBF00010E80A1
:10329800DDAB16AA17A9188F828E83120DE2700271
:1032A800801A051AE51A70020519AB130515E515FC
:1032B80070020514F9AA14120DC970AFAE19AF1A2D
:0132C80022E3
:1032C9008B138A14891585161985171A85181BAB4E
:1032D90019AA1AA91B120DC9FF6019AB13AA14A9BF
:1032E90015120DC96F600D7401251BF51BE4351A04
:1032F900F51A80DBAB19AA1AA91B120DC96007AB15
:1033090013AA14A91522AB130515E515AA14700201
:0D331900051414F9120DC970ADFBFAF9226C
:00000001FF
