:102788007F98122D5C12302D122FBB7D07E4FF12AB
:1027980031DCE4F5317F807E25FDFC1220AE7F011F
:1027A800122CF47532017533017534ADE4F535F545
:1027B800367B017A0179AD7D01FC122D8D7BFF7A84
:1027C8003279297F031226187BFF7A3079E77F0A4E
:1027D8001226187BFF7A2B79BC7F07122618123233
:0927E80023122C7A12000080F883
:0931D3008B88898C88898F88891A
:10154D005201118686008686008686008686008674
:09155D00860086860041010609A2
:03002B0002321787
:0632170053BCEFD20F32A0
:0213A1001579BC
:1013A300200F0302154AC20F900105E0B409004063
:1013B3000302152C9013BEF8282873021405021398
:1013C300D90213EB0214170213D90213EB02142EE2
:1013D3000213D90213EBAFBDEFFEADBE7C00E42DCB
:1013E300FFEC3E900107803CAFBDEFFEADBE7C003D
:1013F300E42DFFEC3E900109F0A3EFF0756D0102BF
:101403001532AFBDEFFEADBE7C00E42DFFEC3E9088
:10141300010B8010AFBDEFFEADBE7C00E42DFFECF1
:101423003E90010DF0A3EFF0021532AFBDEFFEAD1C
:10143300BE7C00E42DFFEC3E90010FF0A3EFF09093
:10144300010FE0FEA3E07807CEC313CE13D8F9A8AB
:1014530079F6C394065013A879E675F003A4241112
:10146300F582E43401F583E014F0900106E014F012
:1014730060030215327409F0A879E4F6A879E6FF4F
:10148300C394064003021532EF75F003A42411F54B
:1014930082E43401F583E0C39480502AE6FF75F0BB
:1014A30003A42412F582E43401F583E0D39480404D
:1014B30040EF75F003A42413F582E43401F583743B
:1014C30001F0F56E802BA879E6FF75F003A42412D2
:1014D300F582E43401F583E0C394805014EF75F092
:1014E30003A42413F582E43401F5837402F0756ECA
:1014F30001A879E6FF75F003A42411F582E4340111
:10150300F583E0FEEF75F003A42412F582E43401C1
:10151300F583EEF0E675F003A42411F582E43401BB
:10152300F5837486F00602147F90010574FFF09032
:101533000105E0D39407400374FFF0900105E00434
:07154300F09031D393F5BCD9
:03154A00057922FE
:02317B001579C4
:09317D00A879A66EE4F56EE6FFE8
:03318600057922A6
:023189001579B6
:09318B00A879A66DE4F56DE6FFDC
:0331940005792298
:102D5C008F9D75BC88439720D2AD90004574FFF0D1
:102D6C00A37413F0A374A1F0A374FFF0A37431F057
:102D7C00A3747BF0A374FFF0A37431F0A37489F0F7
:012D8C002224
:070003007B017A017907225D
:102AF200C3EF64809480403BD3EF6480948550336D
:102B0200EFFD3395E0FC90011375F003ED120624FE
:102B1200EC75F003A42583F583E0FE90011375F0B4
:102B220003ED120624EC75F003A42583F583E4F08B
:052B3200AF06227F0345
:012B3700227B
:101D3E00E4F580900180E0FFB40800505F901D52E2
:101D4E00F8282873021D6A021D70021D76021D7C82
:101D5E00021D82021D8C021D96021DA0C2A3C2A2EC
:101D6E008016C2A3C2A2801AC2A3C2A2801EC2A3A0
:101D7E00C2A28022C2A3D2A2C2A1C2A08020C2A3AC
:101D8E00D2A2C2A1D2A08016C2A3D2A2D2A1C2A0B8
:101D9E00800CC2A3D2A2D2A1D2A08002D2A3C3EF42
:101DAE00648094885029900180E0FF3395E0FE74A2
:101DBE00772FF58274013EF583E0FF3395E0FE74D4
:101DCE00B82FF582742C3EF583E493F580801E9037
:101DDE000180E0FFB408133395E0FE74772FF5828F
:101DEE0074013EF583E0F5808003E4F58090017682
:101DFE00E0FF900180E004FEF0D3EF6480F8EE6423
:101E0E0080984014E0D36480948850047408F022C3
:091E1E00900175E0900180F022B2
:10302D00E4F5937594FF5395F043960F90002A7431
:0B303D00FFF0A3741DF0A3743EF0220E
:0931DC00900175EFF0A3EDF02263
:102F7B00900177EFF0A3EDF0A3EBF0A3E530F0A316
:102F8B00E531F0A3E532F0A3E533F0A3E534F0220D
:06321D0090017FEFF0229A
:1015660001750049018D949400949400949400416F
:03157600018C1EC7
:02191300157944
:1019150020B20690018DE014F020B306900190E00E
:1019250014F0209706900193E014F090018CE014D8
:10193500F06003021A33741EF0A879E4F6A879E67C
:10194500FFC3648094834003021A33EF3395E0FEAE
:1019550090018D75F003EF120624EE75F003A425B2
:1019650083F583E0C39480503990018E75F003EFC1
:10197500120624EE75F003A42583F583E0D3948045
:10198500405AE6FF3395E0FE90018F75F003EF12A4
:101995000624EE75F003A42583F5837401F0F5752F
:1019A500803AA879E6FF3395E0FE90018E75F00345
:1019B500EF120624EE75F003A42583F583E0C394A6
:1019C50080501990018F75F003EF120624EE75F023
:1019D50003A42583F5837402F0757501A879E6FFE4
:1019E500FD3395E0FC90018D75F003ED120624ECB6
:1019F50075F003A42583F583E0FE90018E75F00351
:101A0500ED120624EC75F003A42583F583EEF0EFC3
:101A15003395E0FE90018D75F003EF120624EE7507
:0E1A2500F003A42583F5837494F006021942A1
:031A330005792210
:023197001579A8
:09319900A879A675E4F575E6FFBE
:0331A2000579228A
:102FBB0090003074FFF0A37431F0A37497F090007D
:0D2FCB002D74FFF0A37419F0A37413F0220D
:102B7C00EF600764016003BF0233EFFD3395E0FCA7
:102B8C0090018F75F003ED120624EC75F003A4256B
:102B9C0083F583E0FE90018F75F003ED120624ECB3
:0F2BAC0075F003A42583F583E4F0AF06227F03C1
:012BBB0022F7
:101579004100000A4100290A41006D0A040E0000D9
:1015890000000114004600670000FFFF8FFFC10D36
:10159900C105C108C101C10E60240005FF000AFF91
:1015A900000AFF000AFF000AFF000AFF000AFF0005
:1015B9000AFF000AFF000AFF000AFF000AFF000AEB
:1015C9006036002AFF000AFF000AFF003EFF000AFA
:1015D900FF003EFF000AFF003EFF000AFF000AFF6E
:1015E900000AFF003EFF003EFF003EFF003EFF00F5
:0A15F9000AFF000AFF000AFF000AC3
:01000A0022D3
:03003E007F00221E
:102AAB00438E805389F07BE07A287901780090007F
:102ABB0026120608122B38EFF404F58A7BE07A28ED
:102ACB0079017800900026120608122B38C3E49F78
:102ADB00FFE49EFE74019DFDE49CFC78081205E169
:072AEB008F8CD28CD2A922CE
:03000B00022A0EB8
:042A0E00C0E0C0D094
:102A1200D5080A75084C300D020514D20DA20372B6
:102A2200045036150AE50A7030850C0AD207300ABE
:102A320017E50D6007150D438F01801D538FFEC2F0
:102A4200B5D51615C20A8011050BE50BD3940640C5
:092A520008C203E5136002D2067C
:052A5B00D0D0D0E032F4
:1029BB00300E47C20E90002612060878101205E161
:1029CB008E6F8F70900003E0FEA3E0FFE4FCFD7BB5
:1029DB0019FAF9F81204A3C006C007AE6FAF70ABBB
:1029EB0007AA06E4F9F8D007D006122B38780312A1
:1029FB0005E1900065EEF0A3EFF0900065E0FEA31B
:022A0B00E0FFEA
:012A0D0022A6
:0931E500900067E0FEA3E0FF2268
:0931EE00900067EEF0A3EFF0225F
:10311D0090006BEEF0A3EFF0900069ECF0A3EDF0F2
:01312D00227F
:03323500C2B422FE
:03003B000222118D
:10221100C0E0C083C082C0D075D000C004C005C07A
:0322210006C007ED
:1022240030DF04C2DF807D30DA04C2DA807630D950
:102234003DC2D9AFFBEFFEADEB7C00E42DFFEC3EDD
:1022440020000E900001F0A3EFF075DB11D20080A6
:1022540053FE900001E0FCA3E0FDC3EF9DFFEE9C64
:10226400A3F0A3EFF075DB00C200D20E803630D8A5
:1022740033C2D8900067E07002A3E06022B2B49049
:102284000069E0FEA3E0F5EAEEF5FAA3E0FEA3E0C0
:10229400FF90006AE02FF0900069E03EF08005C2F4
:0422A400B453DAFE57
:1022A800D007D006D005D004D0D0D082D083D0E0DB
:0122B80032F3
:06322300122AABD2AF221B
:10250D003004047F0180027F00200A047E018002D6
:10251D007E00EE5F6074E515C39509506830023694
:10252D00750D01E515131313541FAB17AA18A9192F
:10253D00F5827583001203A1FFE515540704FEEF24
:10254D00A806088002C333D8FC30D7057516038062
:10255D002F751601802AAB17AA18A91975F002E577
:10256D0015A4F58285F0831203A1F50DE51575F01F
:10257D0002A429F9EA35F0FA9000011203A1F5162B
:0A258D000515D20A22C204438F1084
:012597002221
:101C5100900000E014F0701F740AF0D20590002982
:101C6100E014F07012740AF0D20890006DE014F0E4
:101C71007005740AF0D20190002AA3E0FAA3E0F9FA
:101C810012063090002DA3E0FAA3E0F9120630907D
:101C91000039A3E0FAA3E0F9120630900045A3E071
:101CA100FAA3E0F9120630900054A3E0FAA3E0F998
:101CB10012063090005DA3E0FAA3E0F9120630901D
:101CC100004BA3E0FAA3E0F9120630EF600C90009C
:101CD1001DA3E0FAA3E0F912063090004EA3E0FA4A
:101CE100A3E0F9120630EF600E900020A3E0FAA302
:101CF100E0F9120630D20BE512D394004016D5124A
:101D01003030090C900023A3E0FAA3E0F912063069
:101D1100D20C801D900051A3E0FAA3E0F912063025
:101D2100EF600E900023A3E0FAA3E0F9120630D28F
:0D1D31000C900005A3E0FAA3E0F9020630D3
:10235E0090003FA3E0FAA3E0F9120630900042A3EA
:10236E00E0FAA3E0F9120630900033A3E0FAA3E0FE
:10237E00F9120630900008A3E0FAA3E0F912063035
:10238E00900030A3E0FAA3E0F9120630EF600C9053
:10239E000011A3E0FAA3E0F9120630900036A3E094
:1023AE00FAA3E0F9120630EF600C900017A3E0FAE2
:1023BE00A3E0F9120630900048A3E0FAA3E0F91268
:1023CE000630EF600C90001AA3E0FAA3E0F91206B3
:1023DE003030060EC206900026A3E0FAA3E0F912F2
:0323EE0006302294
:102BFC0090000BA3E0FAA3E0F912063090003CA37E
:102C0C00E0FAA3E0F9120630EF600C900014A3E098
:102C1C00FAA3E0F9120630900057A3E0FAA3E0F90A
:0F2C2C0012063090005AA3E0FAA3E0F902063036
:102E4C00AF11AE10AD0FAC0E9000601206189000D2
:102E5C0064E514F0E4F511F510F50FF50EF514908A
:0B2E6C00000EA3E0FAA3E0F90206301C
:102C7A00300705C20712250D300D05C20D121C5171
:102C8A00300505C20512235E300805C208122BFC66
:102C9A00300105C201122E4CE5112401F511E4356B
:0E2CAA0010F510E4350FF50FE4350EF50E228F
:102618008B2D8A2E892FEFB40C00507090262BF842
:1026280028287302264F02265402265902265E02E3
:10263800266302266802266D022672022677022683
:102648007C0226810226869000058035900008804D
:102658003090000B802B90000E8026900011802176
:10266800900017801C900014801790001A80129018
:10267800001D800D900020800890002380039000AA
:0D26880026E52DF0A3E52EF0A3E52FF022AE
:073209007B017A00796022CD
:1023F1008B61AA077C007E037FE8120402900188AA
:10240100EEF0A3EFF0E562FD7C007E037FE81204AD
:1024110002A3EEF0A3EFF0AF02AB07E4FAF9F890F4
:102421000188E0FEA3E0FFE4FCFD1204A3EF2432E7
:10243100FFE43EFEE43DFDE43CFCE47B64FAF9F894
:10244100122B38900182EEF0A3EFF0AF61AB07E4FD
:10245100FAF9F890018AE0FEA3E0FFE4FCFD120422
:10246100A3EF2432FFE43EFEE43DFDE43CFCE47BCB
:1024710064FAF9F8122B38900184EEF0A3EFF02200
:10290A00E4F530F52FF52EF52DF531D291AF30AE35
:10291A002FAD2EAC2D78011205F58F308E2F8D2E0E
:10292A008C2D00C291309015E4FAF9F8EF2401F5E4
:10293A0030EA3EF52FE93DF52EE83CF52D0531E567
:10294A0031B418C700D2910000C291AF30AE2FAD9A
:08295A002EAC2D78081205E1F6
:012962002252
:0931F700900186E0FEA3E0FF2236
:0F312E00900186E0FEA3E0FFE4900186F0A3F09D
:01313D00226F
:101E2700900181E0700F3090012212290A900186FB
:101E3700EEF0A3EFF0900181E0FF64017062051BF3
:101E4700E51B7002051AFDD3900189E09D9001887A
:101E5700E0951A5005E4F51AF51BD3900183E09538
:101E67001B900182E0951A4004D2908002C290052F
:101E77001DE51D7002051CFDD390018BE09D9001AF
:101E87008AE0951C5005E4F51CF51DD3900185E00B
:101E9700951D900184E0951C4004D2918002C29167
:101EA700EF6402703E2090047F0180027F00E51EF0
:101EB70060047E0180027E00EE5F60213091109009
:101EC7000187E004F07016900186E004F0800E9020
:101ED7000187E024FFF0900186E034FFF0A290E450
:101EE70033F51E900181E0B4031CE51F7002D29107
:101EF700E51FB40105C29175DB21051FE51FC394DA
:061F0700C84003E4F51FD1
:011F0D0022B1
:102CF400900181EFF07004C2918002D29190018121
:102D0400E0B40310E5A254CFF5A2E4F5D975DB01D4
:102D1400D2DE8003E4F5DB90005D74FFF0A3741E43
:062D2400F0A37427F02269
:101603005501390000000000000000000000000048
:081613000000010000000000CE
:0300430002100D9B
:10100D00C0E0C0F0C083C082C0D075D000C000C0A9
:10101D0001C002C003C004C005C006C007E59A3078
:10102D00E142539AFD90013EE0FEA3E0FFC3900123
:10103D003DE09F90013CE09E501F900139E0FBA3E5
:10104D00E0FAA3E0F9A3E475F00112048D85F082B6
:10105D00F5831203A1F59B800B900140E4F0E5723E
:10106D006002C2B7E59A20E0030211C4539AFE3024
:10107D000C0BC20C900146E4F0A3F0D209E57264AA
:10108D0002600302111E900144E0FEA3E0FFA3E005
:10109D00FCA3E0FDC39FEC9E5071900141E0FBA3CA
:1010AD00E0FAA3E0F98D828C83E59B1203E09001B9
:1010BD004CE0FEA3E0FFC3ED9FEC9E504090014439
:1010CD00E0FCA3E0FDEF9DEE9C5032900149E0FB6A
:1010DD00A3E0FAA3E0F9900146E0FEA3E0FFF5825C
:1010ED008E831203A1FD900141E0FBA3E0FAA3E082
:1010FD00F98F828E831203A16D6002C209900147A0
:10110D00E004F07006900146E004F08571120211C2
:10111D00C4900144E0FEA3E0FFA3E0FCA3E0FDC307
:10112D009FEC9E5077900141E0FBA3E0FAA3E0F91C
:10113D008D828C83E59B1203E090014CE0FEA3E0D1
:10114D00FFC3ED9FEC9E5046900144E0FCA3E0FDF3
:10115D00EF9DEE9C5038900149E0FBA3E0FAA3E02F
:10116D00F9900146E0FEA3E0FFF5828E831203A104
:10117D00FD900141E0FBA3E0FAA3E0F98F828E839D
:10118D001203A16D600890014674FFF0A3F0900169
:10119D0047E004F07006900146E004F0900144E051
:1011AD00FEA3E0FFC3900147E09F900146E09E4003
:1011BD00069001487401F0D007D006D005D004D0B8
:1011CD0003D002D001D000D0D0D082D083D0F0D0C7
:0211DD00E032FE
:02314E001579F1
:0A315000900148E0A879F6FFE4F0D2
:03315A00057922D2
:01002A0022B3
:1020AE008F308E2F8D2E8C2D853172E572700280C1
:1020BE000343BA01E572701790005D74FFF0A374CC
:1020CE0000F0A3742AF0E4F5DBD290D2918020C206
:1020DE00B7AB30AA2FA92EA82DE47F407E9CFDFC25
:1020EE0012052E8F71E57170037571018571127570
:1020FE009A10E47B04FAF9F89000261206081205ED
:10210E002EAB30AA2FA92EA82D12052EEFF404F512
:10211E00D7E47B04FAF9F890002612060812052E71
:10212E00AB30AA2FA92EA82D12052EC3E49FFFE4D3
:10213E009EFE74019DFDE49CFC78081205CE8FD6A0
:10214E00438E1443AF0190005174FFF0A37431F02D
:05215E00A3744EF02205
:102D8D00900141EBF0A3EAF0A3E9F0A3ECF0A3ED81
:102D9D00F090014CE535F0A3E536F0900149E532B0
:102DAD00F0A3E533F0A3E534F0D20CE4900148F044
:012DBD0022F3
:102DEF00900140E07026900139EBF0A3EAF0A3E9DF
:102DFF00F0E4A3F0A3F0A3ECF0A3EDF0A37401F0C3
:0F2E0F00E5726002D2B7439A027F02227F03224C
:0B31B200900140E07002FF227F01222C
:100C260000EF00C500AF00A00096008E008700818F
:100C3600007C007800740071006D006B0068006530
:100C460000630061005F005D005B005A00580056BB
:100C560000550054005200510050004E004D004C0B
:100C6600004B004A00490048004700460045004442
:100C760000430043004200410040003F003F003E69
:100C8600003D003D003C003B003A003A0039003987
:100C9600003800370037003600360035003400349F
:100CA60000330033003200320031003100300030B2
:100CB600002F002F002E002E002D002D002C002CC2
:100CC600002B002B002A002A0029002900290028D1
:100CD60000280027002700260026002600250025DC
:100CE60000240024002400230023002200220022E6
:100CF60000210021002000200020001F001F001FEF
:100D0600001E001E001D001D001D001C001C001CF6
:100D1600001B001B001B001A001A001A00190019FC
:100D26000018001800180017001700170016001604
:100D36000016001500150015001400140014001309
:100D4600001300130012001200120011001100100F
:100D560000100010000F000F000F000E000E000E16
:100D6600000D000D000D000C000C000C000B000B1C
:100D7600000B000A000A0009000900090008000823
:100D8600000800070007000700060006000500052A
:100D96000004000400030003000300020002000137
:100DA6000001000100000000FFFFFFFFFFFFFFFE44
:100DB600FFFEFFFDFFFDFFFCFFFCFFFBFFFBFFFA55
:100DC600FFFAFFF9FFF9FFF8FFF8FFF7FFF7FFF665
:100DD600FFF6FFF5FFF5FFF4FFF3FFF3FFF2FFF277
:100DE600FFF1FFF0FFF0FFEFFFEEFFEDFFEDFFEC91
:100DF600FFEBFFEAFFE9FFE8FFE7FFE6FFE5FFE4B9
:100E0600FFE3FFE2FFE0FFDFFFDDFFDCFFDAFFD8F5
:0C0E1600FFD5FFD2FFCEFFC9FFC101696C
:101F0E0012000378297C017D017E007F0A12037B7B
:101F1E0090012DE0FFA3E0900137CFF0A3EFF090FA
:101F2E000137E0FEA3E07802CEA2E713CE13D8F875
:101F3E00F0EE900137F0A3E025E0FF900137E0339B
:101F4E00FE74262FF582740C3EF583E493FE740125
:101F5E0093FF900127EEF0A3EFF0C3EE6480948020
:101F6E00900127E0FEA3E0FF5031C3E49FFFE49E03
:101F7E00FE7C007D0A1204577C007D0A1204578DE8
:101F8E003375300A75310A75320C900127E0FEA3C5
:101F9E00E0FFC3E49FFFE49EFE80387C007D641268
:101FAE0004577C007D0A120457AB05900127E0FE12
:101FBE00A3E0FF7C007D0A1204577C007D0A120408
:101FCE00578D338B3275300A75310A900127E0FE3A
:101FDE00A3E0FF7C007D0A1204578D347B0A7D0A34
:061FEE007F0A122F7B2286
:04161B004101B500D4
:102BBC007F05122AF29001B3EFF07F02122AF290F5
:102BCC0001B4EFF09001B3E0B4010E9001B5E00454
:102BDC00F0E0D394024002E4F09001B4E0B4010FB1
:0F2BEC009001B5E014F0E0C3940050037402F0C0
:012BFB0022B7
:10307A009001B5E014600A14600A2402700902176C
:08308A00EB021F0E122A602266
:0D161F004200E606C9C1104300E3000000D0
:101FF400123200900104EFF02010479000E6E0FC5C
:10200400A3E0FDE41201F17466FBFAF978401200D2
:1020140046C004C005C006C007900104E0FCE412F9
:1020240001F6A804A905AA06AB07D007D006D00577
:10203400D00412014F12022A9001B3EEF0A3EFF084
:1020440080099001B3E4F0A37414F09001B3E0FAB2
:10205400A3E0FB7C007D3CFFAE02120402E5767532
:10206400F007A424E9F582E43400F583EFF07C0062
:102074007D3CAF03AE02120402E57675F007A4249A
:10208400E8F582E43400F583EDF0E57675F007A415
:1020940024E8F9740035F0FA7B01782D7C007D008A
:0A20A4007E007F0712037B0230610B
:1028AF00123210C001E57675F007A424E8F9740020
:1028BF0035F0A801FC7D01D0017E007F0712037B5C
:1028CF00E57675F007A424E9F582E43400F583E09A
:1028DF0075F03CA4FFAEF0E57675F007A424E8F59B
:1028EF0082E43400F583E07C002FFFEC3E9000E3A0
:0B28FF00F0A3EFF0A210E433A3F022DE
:1017EB00123210C001E57675F007A424E8F97400F5
:1017FB0035F0A801FC7D01D0017E007F0712037B31
:10180B00E57675F007A424E9F582E43400F583E06E
:10181B007016E57675F007A424E8F582E43400F53C
:10182B0083E07004B210802AE57675F007A424E8F3
:10183B00F582E43400F583E0D3943C5015E57675DE
:10184B00F007A424E9F582E43400F583E0D3940295
:10185B004005121FF48045E57675F007A424E8F5E2
:10186B0082E43400F583E07021E57675F007A4245B
:10187B00E8F582E43400F583743BF0E57675F00708
:10188B00A424E9F582E43400800DE57675F007A415
:10189B0024E8F582E43400F583E014F0E57675F086
:1018AB0007A424E8F9740035F0FA7B01782D7C004D
:1018BB007D007E007F0712037B123061E57675F0A9
:1018CB0007A424E9F582E43400F583E0FF75F00A00
:1018DB0084FEEF75F00A84AFF0E57675F007A4246B
:1018EB00E8F582E43400F583E0FD75F00A84FCED45
:1018FB0075F00A8485F0348C338F318E3075320A53
:08190B007B0AE4FDFF022F7BC3
:0C162C004401A7322D32374201AB00C848
:093200009001ABE0FEA3E0FF2207
:102A60009001ABE0FEA3E0FF7C007D64120457AB55
:102A7000079001ABE0FEA3E0FF7C007D0A12045743
:102A80007C007D0A1204578D338B3275302E7531E0
:102A90002D9001ABE0FEA3E0FF7C007D0A120457FD
:0B2AA0008D347B2E7D367F27022F7BBC
:100776000000000000000000000000000000000073
:100786000000000000000000000000000000000063
:100796000000000000000000000000000000000053
:1007A6000000000000000000000000000000000043
:1007B6000000000000000000000000000000000033
:1007C6000000000000000000000000000000000023
:1007D600000000009CBBCDE5D5F2B5BDC1CBA3ACF6
:1007E600B1BED5BECEAABBBBB3CBD5BEA3ACBFC92B
:1007F600BBBBB3CB32BAC5CFDFA1A3CFC2B3B5CA99
:10080600B1A3ACC7EBD7A2D2E2C1D0B3B5D3EBD577
:10081600BECCA8D6AEBCE4B5C4BCE4CFB6000000DE
:1008260000000000000000000000000000000000C2
:1008360000000000000000000000000000000000B2
:1008460000000000000000000000000000000000A2
:100856000000000000000000000000000000000092
:100866000000000000000000000000000000000082
:100876000000000000000000000000000000000072
:100886000000000000000000000000000000000062
:100896000000000000000000000000000000000052
:1008A6000000000000000000000000000000000042
:1008B6000000000000000000000000000000000032
:1008C6000000000000000000000000000000000022
:1008D6000000000000000000000000000000000012
:1008E6000000000000000000000000000000000002
:1008F60000000000000000000000000000000000F2
:1009060000000000000000000000000000000000E1
:1009160000000000000000000000000000000000D1
:1009260000000000000000000000000000000000C1
:1009360000000000000000000000000000000000B1
:1009460000000000000000000000000000000000A1
:100956000000000000000000000000000000000091
:1009660000000000B3B5C3C5BCB4BDABB9D8B1D5A2
:10097600A3ACBDF7B7C0BCD0C9CB000000000000D7
:100986000000000000000000000000000000000061
:100996000000000000000000000000000000000051
:1009A6000000000000000000000000000000000041
:1009B6000000000000000000000000000000000031
:1009C6000000000000000000000000000000000021
:1009D6000000000000000000000000000000000011
:1009E6000000000000000000000000000000000001
:1009F60000000000000000000000000000000000F1
:100A060000000000000000000000000000000000E0
:100A160000000000000000000000000000000000D0
:100A260000000000000000000000000000000000C0
:100A360000000000000000000000000000000000B0
:100A460000000000000000000000000000000000A0
:100A56000000000000000000000000000000000090
:100A66000000000000000000000000000000000080
:100A76000000000000000000000000000000000070
:100A86000000000000000000000000000000000060
:100A96000000000000000000000000000000000050
:100AA6000000000000000000000000000000000040
:100AB6000000000000000000000000000000000030
:100AC6000000000000000000000000000000000020
:100AD6000000000000000000000000000000000010
:100AE6000000000000000000000000000000000000
:100AF60000000000B1BEB4CEC1D0B3B5BFAACDF9D7
:100B0600A3ACB6C5BCD2C6BAA1A3CFC2D2BBD5BE12
:100B16003A9CBBCDE5D5F2A1A3D0E8BBBBB3CB32A3
:100B2600BAC5CFDFB5C4B3CBBFCDC7EBD4DA9CBB58
:100B3600CDE5D5F2CFC2B3B500000000000000003D
:100B4600000000000000000000000000000000009F
:100B5600000000000000000000000000000000008F
:100B6600000000000000000000000000000000007F
:100B7600000000000000000000000000000000006F
:100B8600000000000000000000000000000000005F
:100B9600000000000000000000000000000000004F
:100BA600000000000000000000000000000000003F
:100BB600000000000000000000000000000000002F
:100BC600000000000000000000000000000000001F
:100BD600000000000000000000000000000000000F
:100BE60000000000000000000000000000000000FF
:100BF60000000000000000000000000000000000EF
:100C060000000000000000000000000000000000DE
:100C160000000000000000000000000000000000CE
:081638004101AD004101AE00CB
:1030E7009001ADE0B44105A37401F022E49001AE74
:0230F700F022C5
:102695009001AEE0640160731228AF9000E3E0FEA4
:1026A500A3E0FF9001B3EEF0A3EFF0640C4E7013BE
:1026B5009000E5E0700DE57675F064A42476F97474
:1026C50007803C9001B3E07004A3E06405701490AA
:1026D50000E5E0B4010DE57675F064A42406F9740F
:1026E50009801C9001B3E07002A3E0701E9000E524
:1026F500E0B40117E57675F064A42496F9740A35FB
:0B270500F0FA7BFF7D647C00122DEFDA
:0127100022A6
:0400260000A8C0006E
:031640000176012F
:0632290012307A02269526
:102CB8003F065B4F666D7D077F6F00084001414806
:102CC800BF86DBCFE6EDFD87FFEF777C395E797154
:102CD8003D7606383F736D3E6E5F7C585E7B716F44
:0C2CE800741038545C7367506D781C6EDB
:081643004101AFFF4101B000BD
:1030F900EFC394004009EFD3946450037F01227F0A
:023109000022A2
:0D002E009001B07401F09001AF74FFF0225A
:102EC8009001B0E0700312002E122FF59001B6EFBA
:102ED800F0F46008E0FF1230F9EF70037F282290C9
:042EE80001B6E0FF50
:012EEC0022C3
:102EED008F779001B0E0700312002EAF051230F90C
:102EFD00EF70037FFF22AF771230AA9001AFE57715
:042F0D00F07F00222F
:042C3B008F738D7492
:102C3F009001B0E0700312002EAF741230F9EF70F4
:102C4F00057EFF7FFF22AF73122EC89001B7EFF002
:102C5F00B57404E4FEFF22AD74AF73122EEDEF7066
:0A2C6F0005FE7F0180047EFF7FFF59
:012C79002238
:06322F002C004253500088
:10164B006020006E000000000000000000000000A1
:10165B00000000000000000000000000000000007F
:10166B00000000006020008E000000000000000061
:10167B00000000000000000000000000000000005F
:10168B0000000000000000004100B2004400AE4228
:03169B00535000A9
:102D2A007B017A00796E7D0A123011AE02AF018FF3
:102D3A00828E83EF4E6014E4F09000B27402F07B4E
:102D4A00017A00796E1211DF02000E9000B274034C
:012D5A00F088
:012D5B002255
:102963007F007EC27D017C001227117E007F207DC7
:10297300007B017A00796E12071F7E007F207D00A5
:102983007B017A00798E12071F7BFF7A2D792A7FCC
:1029930009122618752801752900752AAE752B00B2
:1029A300752C037B017A00796E7D207C00122DBE8D
:0829B300E49000B2F002002ED6
:10000E007E007F207D007B017A00796E12071FE44F
:05001E009000B2F02289
:0B31BD009000B2E0B4030312000E22E9
:0611DF008B558A5689576A
:1011E500E49000D3F0A3F0AE02AF01EF4E6007121A
:1011F50030BFEF4E700302133478B37C007D01AB32
:1012050055AA56A9571207027552FF7553327554E0
:101215002F7B017A0079B3021315E5594558700300
:101225000213239000D3E0FEA3E0FFC39409EE640C
:101235008094804003021323EE60030212F8EF143A
:10124500B4080040030212F890125B75F003A4C5C0
:101255008325F0C5837302127302128102128F0275
:10126500129D0212AB0212B90212CC0212E3AA5865
:10127500A9597B011221639000D58044AA58A95928
:101285007B011221639000D78036AA58A9597B01AA
:101295001221639000D98028AA58A9597B011221EF
:1012A500639000DB801AAA58A9597B01122163902B
:1012B50000DD800CAA58A9597B011221639000DF3B
:1012C500EEF0A3EFF0802CAA58A9597B01122163F7
:1012D5009000E1EFF0D394014019E4F08015AA588D
:1012E500A9597B011221639000E2EFF0D3940140EC
:1012F50002E4F09000D4E004F070069000D3E0041E
:10130500F07552FF75533275542F7B007A007900C2
:10131500122598AE02AF018E588F5902121FC39045
:1013250000D4E094099000D3E06480948050057E59
:10133500FF7FFF2274332576F582E43401F583E0DF
:10134500FF9000D9E0FCA3E0FD6F7001EC60127422
:10135500332576F582E43401F583EDF0AF76122C72
:101365003B9000DBA3E0FF74A72576F582E434010A
:10137500F583EFF09000E1E0FF749F2576F582E4B8
:101385003401F583EFF09000E2E0FF74A32576F5D4
:0B13950082E43401F583EFF0E4FEFF7A
:0113A000222A
:101A3600F583E0FF7E009001B1E0FCA3E0248EF97F
:061A460074003CFA7B0174
:061A4C008B678A688969BE
:101A5200E4900165F0A3F0A3EEF0A3EFF0E49001AF
:101A620073F0A3F0EF4E701774301203CEAB67AA77
:101A720068A969900001E41203E07E007F0122D38D
:101A8200900168E09400900167E094004053900157
:101A920074E0940A900173E0648094805043900152
:101AA20067E0FAA3E0FB7C007D0AFFAE02120402AB
:101AB200ED2430FF900173E475F00112048DFC7483
:101AC2006925F0F58274013CF583EFF07C007D0A14
:101AD200AF03AE02120402900167EEF0A3EFF080B2
:101AE2009E900174E024FFFE900173E034FF9001A8
:101AF20063F0A3CEF0900163E0FEA3E0FFC3EE64C7
:101B0200809480403574692FF58274013EF583E03C
:101B1200FFAB67AA68A969900165E475F001120438
:101B22008D85F082F583EF1203E0900164E024FFDB
:101B3200F0900163E034FFF080BBAB67AA68A9694B
:101B4200900165E0FEA3E0FFF5828E83E41203E0DC
:011B52002270
:100E2200E49001B1F0A3F01231C8BF01037F0322A5
:100E32007E007F207D007B017A00798E12071F7869
:100E42008E7C007D017BFF7A3279311207027B01B1
:100E52007A00798E1230BF9001B1EEF0A3EFF090DC
:100E620001B1E475F00112048DFE748E25F0F58255
:100E720074003EF583742CF0AF76121A3A9001B2E8
:100E8200E02FF09001B1E03EF0E475F00112048D24
:100E9200FE748E25F0F58274003EF583742CF07496
:100EA200232576F582E43401121A369001B2E02F3E
:100EB200F09001B1E03EF0E475F00112048DFE7491
:100EC2008E25F0F58274003EF583742CF074332580
:100ED20076F582E43401121A369001B2E02FF090D6
:100EE20001B1E03EF0E475F00112048DFE748E252E
:100EF200F0F58274003EF583742CF074A72576F524
:100F020082E43401121A369001B2E02FF09001B15E
:100F1200E03EF0E475F00112048DFE748E25F0F5CA
:100F22008274003EF583742CF0E57675F007A424F4
:100F3200E9F582E43400121A369001B2E02FF09003
:100F420001B1E03EF0E475F00112048DFE748E25CD
:100F5200F0F58274003EF583742CF0E57675F007A7
:100F6200A424E8F582E43400121A369001B2E02F8C
:100F7200F09001B1E03EF0E475F00112048DFE74D0
:100F82008E25F0F58274003EF583742CF0749F2553
:100F920076F582E43401121A369001B2E02FF09015
:100FA20001B1E03EF0E475F00112048DFE748E256D
:100FB200F0F58274003EF583742CF074A32576F567
:100FC20082E43401121A369001B2E02FF09001B19E
:100FD200E03EF0E475F00112048DFE748E25F0F50A
:100FE2008274003EF583740AF0C39001B2E094204B
:100FF2009001B1E06480948040037F03227B017AF8
:0A10020000798E7D207C00122EA0E4
:01100C0022C1
:022FD8008F78F0
:102FDA00122EC89001B8EFF0F4600FE0FF743325A9
:0A2FEA0078F582E43401F583EFF07E
:012FF40022BA
:04169E0041019E0167
:10304800C295E4FEEF1392CC000000D29500EFC3C6
:0830580013FFC2950EBE08EC47
:01306000224D
:10309200E4FEEFC313FF30CC03430780D295000058
:0730A20000C2950EBE08EB11
:0130A9002204
:102E1E00F07F85122E31A3EFF07F87122E31A3EFB4
:032E2E00F07F89A9
:102E3100C296000000C295000000D29600123048F0
:0A2E4100123092D295000000C296F4
:012E4B002264
:032F9B00A3E0FDB3
:102F9E00C296000000C295000000D2960012304882
:0D2FAE00AF05123048D295000000C29622F7
:073210007B017A017997228E
:1030610078977C017D017B007A00792D7E007F07B6
:0930710012037BE490019EF022A1
:10310B00EFD3941F5009EF25E044C1FF022E317F0E
:02311B0001228F
:102E7700AC07AB05ECD3941F501CE4FD7F8E122FDB
:102E87009EEC25E044C0FFAD03122F9E7D807F8E10
:092E9700122F9E7F00227F012210
:0222B900157995
:1022BB0090019EE060447F81122E31A879EFF69059
:1022CB000197E06F700302235BA879E6F07F83121E
:1022DB002E31A879EFF6A3E06F6075A879E6122E80
:1022EB001EA3EFF07F8D122E3190019DEFF07F8BAF
:1022FB00122E3190019CEFF08056900196E0FF0476
:10230B00F0EFC3940A4049E4F090019E04F0E4FD21
:10231B007F8E122F9E900197E0FD7F80122F9E7F64
:10232B0082122F9B7F84122F9BA3E0FD7F86122F9F
:10233B009EA3E0FD7F88122F9EA3E0FD7F8A122FC4
:10234B009EA3E0FD7F8C122F9E7D807F8E122F9E91
:03235B00057922DF
:101B53007F81122E31900197EFF07F83122E31A3F4
:101B6300EF122E1EA3EFF07F8B122E31A3EFF07F27
:101B73008D122E31A3EFF0E4FD7F8E122F9E7F1E78
:101B830012310BEF64A560047F0180027F00900196
:101B930097E05480FEA3E0D3945940047D01800272
:101BA3007D00ED4EFE900199E0D394A440047D01A5
:101BB30080027D00ED4EFE90019AE0D39431400403
:101BC3007D0180027D00ED4EFE90019BE0D39412D7
:101BD30040047D0180027D00ED4EFE90019CE0D328
:101BE300940740047D0180027D00ED4EFE90019D2F
:101BF300E0D3949940047D0180027D00ED4E4F6057
:101C030030782D7C007D007B007A0079487E007F50
:101C13000712037B1230617DA57F1E122E77789702
:101C23007C017D017B007A0079487E007F071203E7
:101C33007B7DA97F90122F9E7D807F8E122F9E9099
:0E1C4300005A74FFF0A37422F0A374B9F022CB
:10313E00D2C0000000D2CD000000C2C000000022AC
:0D31A500C2C0000000D2CD000000D2C02248
:0B2F1100122F35122F1CAF05122F35B8
:102F1C00E4FFD2CD30C009EFC394FF50030F80F40F
:082F2C00000000C2CD0000000E
:012F3400227A
:102F3500E4FEEF25E0FFC2CD00000092C0000000D6
:102F4500D2CD0000000EBE08E9C2CD000000D2C0FF
:032F550000000079
:012F58002256
:102F5900C2CD000000D2C000E4FED2CD0000EF25B2
:102F6900E0FDA2C0E4334DFF0000C2CD000EBE0853
:012F7900E96E
:012F7A002234
:1030AA00AC0712313E7FA0122F35122F1CAF04122B
:0530BA002F110231A5F9
:022FF500AD0726
:102FF70012313E7FA0122F1112313E7FA1122F35C1
:09300700122F1C122F591231A5E1
:01301000229D
:1016A20055014E0000000000000000000000000094
:0816B20000000100000000002F
:030023000216BB07
:1016BB00C0E0C0F0C083C082C0D075D000C000C0F5
:1016CB0001C002C003C004C005C006C00730993B6F
:1016DB00C299900153E0FEA3E0FFC3900152E09F3B
:1016EB00900151E09E501F90014EE0FBA3E0FAA346
:1016FB00E0F9A3E475F00112048D85F082F58312F5
:10170B0003A1F5998005900155E4F0209803021789
:10171B00D0C298300B09C20B90015BE4F0A3F090A0
:10172B000159E0FEA3E0FFA3E0FCA3E0FDC39FECA7
:10173B009E5077900156E0FBA3E0FAA3E0F98D826F
:10174B008C83E5991203E0900161E0FEA3E0FFC3F7
:10175B00ED9FEC9E5046900159E0FCA3E0FDEF9D00
:10176B00EE9C503890015EE0FBA3E0FAA3E0F99009
:10177B00015BE0FEA3E0FFF5828E831203A1FD90D7
:10178B000156E0FBA3E0FAA3E0F98F828E831203EC
:10179B00A16D600890015B74FFF0A3F090015CE019
:1017AB0004F0700690015BE004F0900159E0FEA399
:1017BB00E0FFC390015CE09F90015BE09E400690D0
:1017CB00015D7401F0D007D006D005D004D003D052
:1017DB0002D001D000D0D0D082D083D0F0D0E03274
:02315D001579E2
:0A315F0090015DE0A879F6FFE4F0AE
:03316900057922C3
:102711008F668E658D648C63759850438E40538EA1
:10272100FE53890FE47B04FAF9F89000261206089B
:1027310012052EAB66AA65A964A86312052EEFF4F3
:1027410004F58BE47B04FAF9F890002612060812CE
:10275100052EAB66AA65A964A86312052EC3E49F82
:10276100FFE49EFE74019DFDE49CFC78081205CEF9
:102771008F8DC2ABD28ED2AC90004E74FFF0A37499
:0727810031F0A3745DF022AA
:102DBE00900156EBF0A3EAF0A3E9F0A3ECF0A3ED3B
:102DCE00F0900161E52BF0A3E52CF090015EE52873
:102DDE00F0A3E529F0A3E52AF0D20BE490015DF013
:012DEE0022C2
:102EA000900155E0701F90014EEBF0A3EAF0A3E90A
:102EB000F0E4A3F0A3F0A3ECF0A3EDF0A37401F011
:082EC000D2997F02227F032258
:0B31C800900155E07002FF227F012201
:10004600EC4D6011E8497017ED33EC3304600DE4B4
:10005600FCFFFEFD22E933E8330470F80202961233
:10006600026158046009E4CC248150062850090234
:1000760002A028400302029DC0E0EB4A7044B9800A
:1000860006D0E0FB02028CEF4E701CBD8008EBFF31
:10009600EAFEE9FD80EBE98DF0A4FEE5F002012F12
:1000A600E9CDF9EAFEEBFFEF89F0A4FCE5F0CE8995
:1000B600F0A42EFFE435F0CD89F0A42DFEE435F052
:1000C6008067EF4E7005BD80D780C3EF8BF0A4AC80
:1000D600F0EE8BF0A42CFCE435F0F8EF8AF0A42CBB
:1000E600E5F038FCE433CB8DF0A42CFCE5F03BF8CE
:1000F600EE8AF0A42CFCE5F038F8E433CF89F0A4BE
:100106002CFCE5F038CF3400CE89F0A42FFFE5F0C3
:100116003EFEE433C98DF0A42EFEE5F039CD8AF01B
:10012600A42FFFE5F03EFEE43DFD33D0E0FB500793
:100136000BBB000F0202A0EC2CFCEF33FFEE33FEEC
:06014600ED33FD0202781A
:10014C000202A0EC5D046005E859047003020296FB
:10015C00120261580460F6EC4860F2EC7004FDFE8B
:10016C00FF22C860DB2481C85009C3986002500686
:10017C0002029D9850CAF582E9294B4A7005AB8260
:10018C0002028C75F0007C1A7880C3EF9BEE9AED1E
:10019C0099400DC3EF9BFFEE9AFEED99FDE842F0FE
:1001AC00DC23ACF0D0E0FFD0E0FED0E0FDAB822051
:1001BC00E7101BEB60BAEC2CFCEF33FFEE33FEEDDB
:1001CC0033FD020278E803F830E705C0F075F00063
:1001DC00EF2FFFEE33FEED33FD40B830E7C280AABF
:1001EC0075F020800E75F010800575F0087D007E8E
:1001FC00007F003392D530D5031205C0EC3340108C
:10020C00EF33FFEE33FEED33FDEC33FCD5F0ED2296
:0E021C00E5F0247EA2D513CC92E7CDCEFF22D2
:10022A00EDD2E7CD33EC3392D524814006E4FFFECC
:10023A00FDFC22FCE4CFCECDCC24E0501174FF802B
:10024A00EDC3CC13CCCD13CDCE13CECF13CF0470C8
:07025A00F030D5DE0205C003
:10026100E9D2E7C933E833F892D5EDD2E7CD33ECE3
:0702710033FC5002B2D5225C
:10027800EC30E7100FBF000C0EBE00080DBD0004E7
:100288000BEB6014A2D5EB13FCED92E7FD2274FF93
:10029800FCFDFEFF22E480F8A2D574FF13FC7D80EC
:0302A800E480EF00
:0300000002248156
:0C248100787FE4F6D8FD7581790224C84C
:1002AB00E709F608DFFA8046E709F208DFFA803E35
:1002BB0088828C83E709F0A3DFFA8032E309F60822
:1002CB00DFFA8078E309F208DFFA807088828C838A
:1002DB00E309F0A3DFFA806489828A83E0A3F6083E
:1002EB00DFFA805889828A83E0A3F208DFFA804C18
:1002FB0080D280FA80C680D4806980F280338010EF
:10030B0080A680EA809A80A880DA80E280CA803357
:10031B0089828A83ECFAE493A3C8C582C8CCC583CF
:10032B00CCF0A3C8C582C8CCC583CCDFE9DEE7809F
:10033B000D89828A83E493A3F608DFF9ECFAA9F01E
:10034B00EDFB2289828A83ECFAE0A3C8C582C8CC74
:10035B00C583CCF0A3C8C582C8CCC583CCDFEADE8D
:10036B00E880DB89828A83E493A3F208DFF980CCEF
:10037B0088F0EF60010E4E60C388F0ED2402B404E8
:10038B000050B9F582EB2402B4040050AF2323458F
:06039B0082239002FB73B7
:1003A100BB010CE58229F582E5833AF583E0225011
:1003B10006E92582F8E622BBFE06E92582F8E2225B
:0D03C100E58229F582E5833AF583E4932275
:1003CE00BB010689828A83F0225002F722BBFE010E
:0203DE00F32208
:1003E000F8BB010DE58229F582E5833AF583E8F053
:1003F000225006E92582C8F622BBFE05E92582C8FF
:02040000F222E6
:10040200BC000BBE0029EF8DF084FFADF022E4CCDE
:10041200F875F008EF2FFFEE33FEEC33FCEE9DECA7
:10042200984005FCEE9DFE0FD5F0E9E4CEFD22EDED
:10043200F8F5F0EE8420D21CFEADF075F008EF2F37
:10044200FFED33FD4007985006D5F0F222C398FD28
:050452000FD5F0EA22C5
:10045700C2D5EC30E709B2D5E4C39DFDE49CFCEEC0
:1004670030E715B2D5E4C39FFFE49EFE120402C332
:10047700E49DFDE49CFC800312040230D507C3E42D
:060487009FFFE49EFE222F
:10048D00A3F8E0C5F025F0F0E58215827002158322
:06049D00E0C838F0E8227F
:1004A300E88FF0A4CC8BF0A42CFCE98EF0A42CFCF8
:1004B3008AF0EDA42CFCEA8EF0A4CDA8F08BF0A476
:1004C3002DCC3825F0FDE98FF0A42CCD35F0FCEBD5
:1004D3008EF0A4FEA9F0EB8FF0A4CFC5F02ECD399A
:0F04E300FEE43CFCEAA42DCE35F0FDE43CFC2207
:1004F20075F008758200EF2FFFEE33FECD33CDCCC1
:1005020033CCC58233C5829BED9AEC99E582984043
:100512000CF582EE9BFEED9AFDEC99FC0FD5F0D620
:10052200E4CEFBE4CDFAE4CCF9A88222B800C1B94A
:100532000059BA002DEC8BF084CFCECDFCE5F0CB88
:10054200F97818EF2FFFEE33FEED33FDEC33FCEBC1
:1005520033FB10D703994004EB99FB0FD8E5E4F97C
:10056200FA227818EF2FFFEE33FEED33FDEC33FC69
:10057200C933C910D7059BE99A4007EC9BFCE99A5D
:10058200F90FD8E0E4C9FAE4CCFB2275F010EF2FA2
:10059200FFEE33FEED33FDCC33CCC833C810D707A2
:1005A2009BEC9AE899400AED9BFDEC9AFCE899F8DD
:0E05B2000FD5F0DAE4CDFBE4CCFAE4C8F92270
:102B3800C2D5E830E70FB2D5E4C39BFBE49AFAE4C8
:102B480099F9E498F8EC30E717B2D5122B6E120514
:102B58002EE4C39BFBE49AFAE499F9E498F880031D
:102B680012052E30D50DE4C39FFFE49EFEE49DFDC3
:042B7800E49CFC22BB
:0E05C000C3E49FFFE49EFEE49DFDE49CFC224C
:1005CE00E8600FECC313FCED13FDEE13FEEF13FF0B
:0305DE00D8F1222F
:1005E100E86010ECA2E713FCED13FDEE13FEEF1330
:0405F100FFD8F0221D
:1005F500E8600FEFC333FFEE33FEED33FDEC33FC64
:03060500D8F12207
:10060800E493FC740193FD740293FE740393FF2238
:0C061800ECF0A3EDF0A3EEF0A3EFF02255
:0C062400A42582F582E5F03583F58322E1
:060630008A838982E47355
:10063600E709F60870FA8046E709F20870FA803E84
:1006460088828C83E709F0A370FA807EE309F608B6
:1006560070FA8076E309F20870FA806E88828C83DD
:10066600E309F0A370FA806289828A83E0A3F60820
:1006760070FA805689828A83E0A3F20870FA804A6B
:1006860080D280FA80C680D4806580F28031801066
:1006960080A680EA809A80A880DA80E280CA8031CB
:1006A60089828A83ECFAE493A3C8C582C8CCC58341
:1006B600CCF0A3C8C582C8CCC583CC70E9800D89AF
:1006C600828A83E493A3F60870F9ECFAA9F0EDFBAD
:1006D6002289828A83ECFAE0A3C8C582C8CCC58386
:1006E600CCF0A3C8C582C8CCC583CC70EA80DD89AE
:1006F600828A83E493A3F20870F980CE88F0ED2411
:1007060002B4040050C4F582EB2402B4040050BACB
:090716002323458223900686731B
:1030BF00E4FFFE12074B600C0FEF70010E09E97071
:0530CF00F20A80EF226F
:10301100E94A4B70012212074BFF6D700122EF70DC
:0C30210004FBFAF92209E970ED0A80EACC
:102598008B4F8A508951E94A4B7009856A4F856B80
:1025A80050856C51E5514550454F7002802C85523D
:1025B80043855344855445AB4FAA50A9511227F17E
:1025C800EF2551F551EE3550F550AB4FFAA95112A0
:1025D800074B700AF56AF56BF56CFBFAF922855220
:1025E8003A85533B85543CAB4FAA50A95112285207
:1025F8008B6A8A6B896CEA494B600EE41203CE043D
:10260800256CF56CE4356BF56BAB4FAA50A95122DC
:102163008B5A8A5B895CAB5AAA5BA95C12074BFF4B
:102173001230D4500D7401255CF55CE4355BF55BDE
:1021830080E4D211AB5AAA5BA95C12074BFF642B04
:102193006004EFB42D1BAB5A055CE55CAA5B7002CF
:1021A300055B14F912074B642D6003D38001C392BE
:1021B30011E4F55DF55EAB5AAA5BA95C12074BFF10
:1021C30012316C5036AB5AAA5BA95C12074BFF3332
:1021D30095E0FEEF24D0FBEE34FFFAAE5DAF5E7CFC
:1021E300007D0A120764EF2BF55EEE3AF55D74018C
:1021F300255CF55CE4355BF55B80BB301106AE5DB9
:0E220300AF5E8009C3E4955EFFE4955DFE22A8
:10071F00EF4E6012EF60010EEDBB010B89828A83F1
:10072F00F0A3DFFCDEFA2289F05007F709DFFCA9FE
:0C073F00F022BBFEFCF309DFFCA9F02255
:10248D00022788E493A3F8E493A34003F68001F2B6
:10249D0008DFF48029E493A3F85407240CC8C33350
:1024AD00C4540F4420C8834004F456800146F6DF1F
:1024BD00E4800B010204081020408090154DE47E4D
:1024CD00019360BCA3FF543F30E509541FFEE49314
:1024DD00A360010ECF54C025E060A840B8E493A3DB
:1024ED00FAE493A3F8E493A3C8C582C8CAC583CA06
:1024FD00F0A3C8C582C8CAC583CADFE9DEE780BEBE
:0116BA00002F
:10074B00BB010689828A83E0225002E722BBFE02AC
:09075B00E32289828A83E49322DF
:10076400EF8DF0A4A8F0CF8CF0A428CE8DF0A42EA9
:02077400FE2263
:0F316C00EFC394304007EF943A50028001C32222
:1030D400EFC394094005EF940E4003BF2003D3804F
:0330E40001C32203
:1027F1008B408A418942E4F546F547E4FEFFAB434D
:10280100AA44A9458F828E831203A1FD6013AB40B8
:10281100AA41A94212074B6D60070FBF00010E804C
:10282100DDAB43AA44A9458F828E831203A17002B6
:10283100801A0547E54770020546AB400542E5426F
:1028410070020541F9AA4112074B70AFAE46AF477E
:012851002264
:102852008B378A388939853A3D853B3E853C3FAB8B
:102862003DAA3EA93F12074BFF6019AB37AA38A910
:102872003912074B6F600D7401253FF53FE4353E79
:10288200F53E80DBAB3DAA3EA93F12074B6007AB8A
:1028920037AA38A93922AB370539E539AA38700287
:0D28A200053814F912074B70ADFBFAF9224E
:00000001FF
