:102D76007F9812383C123C1B123BAA123B2C7D0753
:102D8600E4FF123E62E4F50C7F807E25FDFC1224F2
:102D9600CE1232E91231DE7F02123D7F123E43121D
:102DA60039FD7F011237D4123624750D01750E01D7
:102DB600750FA0E4F510F5117B017A0179A07D016C
:102DC600FC12386D7BFF7A3C79DB7F0A122EFE7B84
:102DD600FF7A3D79287F03122EFE7BFF7A3E79B576
:102DE6007F02122EFE7BFF7A2879CD7F07122EFEF8
:082DF600123EA01236E580FB3D
:093E59008B88898C88898F888987
:101A1F005200F286860086860086860086860086BD
:091A2F0086008686004100E709EB
:03002B00023E94FE
:063E940053BCEFD20F3217
:021873001568F6
:10187500200F03021A1CC20F9000E6E0B4090040D5
:10188500030219FE901890F82828730218D7021839
:10189500AB0218BD0218E90218AB0218BD02190007
:1018A5000218AB0218BDAFBDEFFEADBE7C00E42D46
:1018B500FFEC3E9000E8803CAFBDEFFEADBE7C0086
:1018C500E42DFFEC3E9000EAF0A3EFF07561010214
:1018D5001A04AFBDEFFEADBE7C00E42DFFEC3E90DB
:1018E50000EC8010AFBDEFFEADBE7C00E42DFFEC3B
:1018F5003E9000EEF0A3EFF0021A04AFBDEFFEAD8F
:10190500BE7C00E42DFFEC3E9000F0F0A3EFF090DC
:1019150000F0E0FEA3E07807CEC313CE13D8F9A8F4
:1019250068F6C394065013A868E675F003A424F27C
:10193500F582E43400F583E014F09000E7E014F05C
:101945006003021A047409F0A868E4F6A868E6FFC3
:10195500C394064003021A04EF75F003A424F2F5BC
:1019650082E43400F583E0C39480502AE6FF75F0E5
:1019750003A424F3F582E43400F583E0D394804096
:1019850040EF75F003A424F4F582E43400F5837484
:1019950001F0F562802BA868E6FF75F003A424F337
:1019A500F582E43400F583E0C394805014EF75F0BC
:1019B50003A424F4F582E43400F5837402F075621F
:1019C50001A868E6FF75F003A424F2F582E434006B
:1019D500F583E0FEEF75F003A424F3F582E434000B
:1019E500F583EEF0E675F003A424F2F582E4340005
:1019F500F5837486F0060219519000E674FFF090A5
:101A050000E6E0D39407400374FFF09000E6E0049D
:071A1500F0903E5993F5BC6F
:031A1C0005682238
:023DEB00156859
:093DED00A868A662E4F562E6FF95
:033DF6000568223B
:023DF90015684B
:093DFB00A868A661E4F561E6FF89
:033E04000568222C
:10383C008F9D75BC88439720D2AD90004574FFF0E6
:10384C00A37418F0A37473F0A374FFF0A3743DF089
:10385C00A374EBF0A374FFF0A3743DF0A374F9F020
:01386C002239
:070003007B017A0079E8227D
:10351100C3EF64809480403BD3EF64809485503343
:10352100EFFD3395E0FC9000F475F003ED120C51C2
:10353100EC75F003A42583F583E0FE9000F475F0AB
:1035410003ED120C51EC75F003A42583F583E4F02F
:05355100AF06227F031C
:013556002252
:0439D50015681568F4
:1039D900123E6BA868A60608A607A868E6FE08E6D0
:0F39E900FF4E600BEF24FFFFEE34FFFE123E7423
:0539F8000568056822CE
:103B2C0053B1EF43B210123EB2E4F5D975DA49D273
:103B3C00DE90003F74FFF0A37439F0A374D5F0222B
:082F7B008E1C8F1D8C1E8D1FA2
:102F8300123E6BEF4E7066AF1FAE1E123E74C3E56A
:102F93001D940AE51C9400404BE47B18FAF9F89061
:102FA3000026120C35120B69C006C007AE1CAF1DFC
:102FB300AB07AA06E4F9F8D007D006120B69AB07F2
:102FC300AA06AFF9EFFEADE97C00E42DFFEC3ECF9E
:102FD3002BCF3AAD07FCAF03AE02123D5ED2D8430E
:0F2FE300DA018006123EB253DAFE7F02227F032C
:012FF20022BC
:0C3E1500123E6BEF4E7002FF227F012274
:10224800E4F58090016FE0FFB40800505F90225CD5
:10225800F828287302227402227A02228002228637
:1022680002228C0222960222A00222AAC2A3C2A2A1
:102278008016C2A3C2A2801AC2A3C2A2801EC2A391
:10228800C2A28022C2A3D2A2C2A1C2A08020C2A39D
:10229800D2A2C2A1D2A08016C2A3D2A2D2A1C2A0A9
:1022A800800CC2A3D2A2D2A1D2A08002D2A3C3EF33
:1022B80064809488502990016FE0FF3395E0FE74A4
:1022C800662FF58274013EF583E0FF3395E0FE74D6
:1022D800232FF58274373EF583E493F580801E90B2
:1022E800016FE0FFB408133395E0FE74662FF582A2
:1022F80074013EF583E0F5808003E4F58090016584
:10230800E0FF90016FE004FEF0D3EF6480F8EE6424
:1023180080984014E0D36480948850047408F022B4
:09232800900164E090016FF022C5
:103C1B00E4F5937594FF5395F043960F90002A7437
:0B3C2B00FFF0A37422F0A37448F02205
:093E6200900164EFF0A3EDF022E1
:103B4C00900166EFF0A3EDF0A3EBF0A3E50BF0A36F
:103B5C00E50CF0A3E50DF0A3E50EF0A3E50FF022C4
:063E9A0090016EEFF02222
:101A380001670049017C94940094940094940041B7
:031A4800017B1E01
:021E1C00156847
:101E1E0020B20690017CE014F020B30690017FE022
:101E2E0014F0209706900182E014F090017BE014EC
:101E3E00F06003021F3C741EF0A868E4F6A868E682
:101E4E00FFC3648094834003021F3CEF3395E0FE92
:101E5E0090017C75F003EF120C51EE75F003A42582
:101E6E0083F583E0C39480503990017D75F003EFC4
:101E7E00120C51EE75F003A42583F583E0D3948004
:101E8E00405AE6FF3395E0FE90017E75F003EF12A7
:101E9E000C51EE75F003A42583F5837401F0F567FC
:101EAE00803AA868E6FF3395E0FE90017D75F00359
:101EBE00EF120C51EE75F003A42583F583E0C39465
:101ECE0080501990017E75F003EF120C51EE75F0F3
:101EDE0003A42583F5837402F0756701A868E6FFF5
:101EEE00FD3395E0FC90017C75F003ED120C51EC86
:101EFE0075F003A42583F583E0FE90017D75F00354
:101F0E00ED120C51EC75F003A42583F583EEF0EF82
:101F1E003395E0FE90017C75F003EF120C51EE75D7
:0E1F2E00F003A42583F5837494F006021E4B85
:031F3C0005682213
:023E070015683C
:093E0900A868A667E4F567E6FF6E
:033E12000568221E
:103BAA0090003074FFF0A3743EF0A37407F0900005
:0D3BBA002D74FFF0A3741EF0A3741CF02204
:10366600EF600764016003BF0233EFFD3395E0FCB2
:1036760090017E75F003ED120C51EC75F003A42554
:1036860083F583E0FE90017E75F003ED120C51EC9C
:0F36960075F003A42583F583E4F0AF06227F03CC
:0136A5002202
:101A4B004100000A4100290A41006D0A04290000E7
:101A5B000000012F004600670000FFFF8FFFC10D44
:101A6B00C105C108C101C10E60240005FF000AFFBA
:101A7B00000AFF000AFF000AFF000AFF000AFF002E
:101A8B000AFF000AFF000AFF000AFF000AFF000A14
:101A9B006036002AFF000AFF000AFF003EFF000A23
:101AAB00FF003EFF000AFF003EFF000AFF000AFF97
:101ABB00000AFF003EFF003EFF003EFF003EFF001E
:0A1ACB000AFF000AFF000AFF000AEC
:01000A0022D3
:03003E007F00221E
:1034CA00438E805389F07BE07A2879017800900056
:1034DA0026120C351235E0EFF404F58A7BE07A28DF
:1034EA0079017800900026120C351235E0C3E49F6A
:1034FA00FFE49EFE74019DFDE49CFC7808120C0E0C
:07350A008F8CD28CD2A922A4
:03000B000233922B
:04339200C0E0C0D007
:10339600D5230A75234C300D02052FD20DA20372D8
:1033A6000450361525E5257030852725D207300AC5
:1033B60017E52860071528438F01801D538FFEC22D
:1033C600B5D53115C20A80110526E526D3940640E7
:0933D60008C203E52E6002D206D4
:0533DF00D0D0D0E03267
:10333F00300E47C20E900026120C357810120C0E6C
:10334F008E638F64900003E0FEA3E0FFE4FCFD7B3F
:10335F0019FAF9F8120ADEC006C007AE63AF64AB04
:10336F0007AA06E4F9F8D007D0061235E078031261
:10337F000C0E900065EEF0A3EFF0900065E0FEA359
:02338F00E0FF5D
:013391002219
:093E6B00900067E0FEA3E0FF22D5
:093E7400900067EEF0A3EFF022CC
:103D5E0090006BEEF0A3EFF0900069ECF0A3EDF0A5
:013D6E002232
:033EB200C2B42275
:03003B000226DBBF
:1026DB00C0E0C083C082C0D075D000C004C005C0AC
:0326EB0006C0071F
:1026EE0030DF04C2DF807D30DA04C2DA807630D982
:1026FE003DC2D9AFFBEFFEADEB7C00E42DFFEC3E0F
:10270E0020000E900001F0A3EFF075DB11D20080D7
:10271E0053FE900001E0FCA3E0FDC3EF9DFFEE9C95
:10272E00A3F0A3EFF075DB00C200D20E803630D8D6
:10273E0033C2D8900067E07002A3E06022B2B4907A
:10274E000069E0FEA3E0F5EAEEF5FAA3E0FEA3E0F1
:10275E00FF90006AE02FF0900069E03EF08005C225
:04276E00B453DAFE88
:10277200D007D006D005D004D0D0D082D083D0E00C
:012782003224
:063EA0001234CAD2AF2269
:102CEB003004047F0180027F00200A047E018002F1
:102CFB007E00EE5F6074E530C39524506830023679
:102D0B00752801E530131313541FAB32AA33A934C2
:102D1B00F582758300120989FFE530540704FEEF35
:102D2B00A806088002C333D8FC30D7057531038061
:102D3B002F753101802AAB32AA33A93475F002E525
:102D4B0030A4F58285F083120989F528E53075F0FA
:102D5B0002A429F9EA35F0FA900001120989F5313C
:0A2D6B000530D20A22C204438F1083
:012D7500223B
:10215B00900000E014F0701F740AF0D20590002973
:10216B00E014F07012740AF0D20890006DE014F0D5
:10217B007005740AF0D20190002AA3E0FAA3E0F9EB
:10218B00120C5D90002DA3E0FAA3E0F9120C5D9008
:10219B000039A3E0FAA3E0F9120C5D900045A3E02F
:1021AB00FAA3E0F9120C5D900054A3E0FAA3E0F956
:1021BB00120C5D90005DA3E0FAA3E0F9120C5D90A8
:1021CB00004BA3E0FAA3E0F9120C5DEF600C90005A
:1021DB001DA3E0FAA3E0F9120C5D90004EA3E0FA08
:1021EB00A3E0F9120C5DEF600E900020A3E0FAA3C0
:1021FB00E0F9120C5DD20BE52DD394004016D52DD2
:10220B003030090C900023A3E0FAA3E0F9120C5D27
:10221B00D20C801D900051A3E0FAA3E0F9120C5DE3
:10222B00EF600E900023A3E0FAA3E0F9120C5DD24D
:0D223B000C900005A3E0FAA3E0F9020C5D91
:102B3C0090003FA3E0FAA3E0F9120C5D900042A3D1
:102B4C00E0FAA3E0F9120C5D900033A3E0FAA3E0E5
:102B5C00F9120C5D900008A3E0FAA3E0F9120C5DE9
:102B6C00900030A3E0FAA3E0F9120C5DEF600C903A
:102B7C000011A3E0FAA3E0F9120C5D900036A3E07B
:102B8C00FAA3E0F9120C5DEF600C900017A3E0FAC9
:102B9C00A3E0F9120C5D900048A3E0FAA3E0F9124F
:102BAC000C5DEF600C90001AA3E0FAA3E0F9120C94
:102BBC005D30060EC206900026A3E0FAA3E0F912DF
:032BCC000C5D227B
:1036A60090000BA3E0FAA3E0F9120C5D90003CA396
:1036B600E0FAA3E0F9120C5DEF600C900014A3E0B1
:1036C600FAA3E0F9120C5D900057A3E0FAA3E0F923
:0F36D600120C5D90005AA3E0FAA3E0F9020C5D1C
:10392C00AF2CAE2BAD2AAC29900060120C45900048
:10393C0064E52FF0E4F52CF52BF52AF529F52F90FD
:0B394C00000EA3E0FAA3E0F9020C5DFE
:1036E500300705C207122CEB300D05C20D12215B08
:1036F500300505C205122B3C300805C2081236A656
:10370500300105C20112392CE52C2401F52CE435D4
:0E3715002BF52BE4352AF52AE43529F5292277
:102EFE008B088A09890AEFB40C005070902F11F8D4
:102F0E00282873022F35022F3A022F3F022F440238
:102F1E002F49022F4E022F53022F58022F5D022FE0
:102F2E0062022F67022F6C9000058035900008809A
:102F3E003090000B802B90000E8026900011802187
:102F4E00900017801C900014801790001A80129029
:102F5E00001D800D900020800890002380039000BB
:0D2F6E0026E508F0A3E509F0A3E50AF0222E
:073E86007B017A0079602244
:102BCF008B0AAA077C007E037FE81209FC9001772D
:102BDF00EEF0A3EFF0E50BFD7C007E037FE812091A
:102BEF00FCA3EEF0A3EFF0AF02AB07E4FAF9F89015
:102BFF000177E0FEA3E0FFE4FCFD120ADEEF2432D2
:102C0F00FFE43EFEE43DFDE43CFCE47B64FAF9F8AE
:102C1F001235E0900171EEF0A3EFF0AF0AAB07E4CD
:102C2F00FAF9F8900179E0FEA3E0FFE4FCFD120A47
:102C3F00DEEF2432FFE43EFEE43DFDE43CFCE47BAA
:102C4F0064FAF9F81235E0900173EEF0A3EFF02279
:10323800E4F50BF50AF509F508F50CD291AF0BAEDC
:103248000AAD09AC087801120C228F0B8E0A8D0981
:103258008C0800C291309015E4FAF9F8EF2401F5D2
:103268000BEA3EF50AE93DF509E83CF508050CE5E9
:103278000CB418C700D2910000C291AF0BAE0AADD2
:0832880009AC087808120C0ED5
:01329000221B
:093E7D00900175E0FEA3E0FF22B4
:0F3D6F00900175E0FEA3E0FFE4900175F0A3F072
:013D7E002222
:10233100900170E0700F30900122123238900175D7
:10234100EEF0A3EFF0900170E0FF640170620553BD
:10235100E55370020552FDD3900178E09D9001771D
:10236100E095525005E4F552F553D3900172E09592
:1023710053900171E095524004D2908002C29005C1
:1023810055E55570020554FDD390017AE09D900109
:1023910079E095545005E4F554F555D3900174E076
:1023A1009555900173E095544004D2918002C291F9
:1023B100EF6402703E2090047F0180027F00E556A9
:1023C10060047E0180027E00EE5F602130911090FA
:1023D1000176E004F07016900175E004F0800E9033
:1023E1000176E024FFF0900175E034FFF0A290E463
:1023F10033F556900170E0B4031CE5577002D29199
:10240100E557B40105C29175DB210557E557C39422
:06241100C84003E4F5578A
:0124170022A2
:1037D400900170EFF07004C2918002D29190017058
:1037E400E0B40310E5A254CFF5A2E4F5D975DB01EA
:1037F400D2DE8003E4F5DB90005D74FFF0A3742354
:06380400F0A37431F02274
:101AD50055010400000000000000000000000000A7
:081AE5000000010000000000F8
:030043000216A101
:1016A100C0E0C0F0C083C082C0D075D000C000C00F
:1016B10001C002C003C004C005C006C007E59A30DE
:1016C100E142539AFD900109E0FEA3E0FFC39001BE
:1016D10008E09F900107E09E501F900104E0FBA3EA
:1016E100E0FAA3E0F9A3E475F001120A9D85F08206
:1016F100F583120989F59B800B90010BE4F0E566F7
:101701006002C2B7E59A20E003021858539AFE30EE
:101711000C0BC20C900111E4F0A3F0D209E5666450
:101721000260030217B290010FE0FEA3E0FFA3E005
:10173100FCA3E0FDC39FEC9E507190010CE0FBA364
:10174100E0FAA3E0F98D828C83E59B1209C8900130
:1017510017E0FEA3E0FFC3ED9FEC9E504090010F08
:10176100E0FCA3E0FDEF9DEE9C5032900114E0FB04
:10177100A3E0FAA3E0F9900111E0FEA3E0FFF582F6
:101781008E83120989FD90010CE0FBA3E0FAA3E02E
:10179100F98F828E831209896D6002C2099001124C
:1017A100E004F07006900111E004F085652D021847
:1017B1005890010FE0FEA3E0FFA3E0FCA3E0FDC30E
:1017C1009FEC9E507790010CE0FBA3E0FAA3E0F9B7
:1017D1008D828C83E59B1209C8900117E0FEA3E07E
:1017E100FFC3ED9FEC9E504690010FE0FCA3E0FD8E
:1017F100EF9DEE9C5038900114E0FBA3E0FAA3E0CA
:10180100F9900111E0FEA3E0FFF5828E83120989B0
:10181100FD90010CE0FBA3E0FAA3E0F98F828E8337
:101821001209896D600890011174FFF0A3F0900115
:1018310012E004F07006900111E004F090010FE055
:10184100FEA3E0FFC3900112E09F900111E09E40D2
:10185100069001137401F0D007D006D005D004D052
:1018610003D002D001D000D0D0D082D083D0F0D02C
:02187100E03263
:023DAF00156895
:0A3DB100900113E0A868F6FFE4F0AB
:033DBB0005682276
:01002A0022B3
:1024CE008F0B8E0A8D098C08850C66E5667002806E
:1024DE000343BA01E566701790005D74FFF0A374B4
:1024EE0000F0A3742AF0E4F5DBD290D2918020C2E2
:1024FE00B7AB0BAA0AA909A808E47F407E9CFDFC95
:10250E00120B698F65E565700375650185652D751F
:10251E009A10E47B04FAF9F8900026120C35120B8F
:10252E0069AB0BAA0AA909A808120B69EFF404F506
:10253E00D7E47B04FAF9F8900026120C35120B69D9
:10254E00AB0BAA0AA909A808120B69C3E49FFFE402
:10255E009EFE74019DFDE49CFC7808120BFB8FD649
:10256E00438E1443AF0190005174FFF0A3743DF0FD
:05257E00A374AFF02280
:10386D0090010CEBF0A3EAF0A3E9F0A3ECF0A3EDCB
:10387D00F0900117E510F0A3E511F0900114E50D9E
:10388D00F0A3E50EF0A3E50FF0D20CE4900113F0D8
:01389D002208
:1038CF0090010BE07026900104EBF0A3EAF0A3E95E
:1038DF00F0E4A3F0A3F0A3ECF0A3EDF0A37401F0D8
:0F38EF00E5666002D2B7439A027F02227F03226E
:0B3E2D0090010BE07002FF227F0122D9
:1014A50000EF00C500AF00A00096008E0087008108
:1014B500007C007800740071006D006B00680065A9
:1014C50000630061005F005D005B005A0058005634
:1014D50000550054005200510050004E004D004C84
:1014E500004B004A004900480047004600450044BB
:1014F50000430043004200410040003F003F003EE2
:10150500003D003D003C003B003A003A00390039FF
:101515000038003700370036003600350034003417
:10152500003300330032003200310031003000302A
:10153500002F002F002E002E002D002D002C002C3A
:10154500002B002B002A002A002900290029002849
:101555000028002700270026002600260025002554
:10156500002400240024002300230022002200225E
:1015750000210021002000200020001F001F001F67
:10158500001E001E001D001D001D001C001C001C6F
:10159500001B001B001B001A001A001A0019001975
:1015A500001800180018001700170017001600167D
:1015B5000016001500150015001400140014001382
:1015C5000013001300120012001200110011001088
:1015D50000100010000F000F000F000E000E000E8F
:1015E500000D000D000D000C000C000C000B000B95
:1015F500000B000A000A000900090009000800089C
:1016050000080007000700070006000600050005A2
:1016150000040004000300030003000200020001AF
:101625000001000100000000FFFFFFFFFFFFFFFEBC
:10163500FFFEFFFDFFFDFFFCFFFCFFFBFFFBFFFACD
:10164500FFFAFFF9FFF9FFF8FFF8FFF7FFF7FFF6DD
:10165500FFF6FFF5FFF5FFF4FFF3FFF3FFF2FFF2EF
:10166500FFF1FFF0FFF0FFEFFFEEFFEDFFEDFFEC09
:10167500FFEBFFEAFFE9FFE8FFE7FFE6FFE5FFE431
:10168500FFE3FFE2FFE0FFDFFFDDFFDCFFDAFFD86E
:0C169500FFD5FFD2FFCEFFC9FFC10169E5
:071AED0044014E28282828BF
:1031840012000378447C017D017E007F0A12094A03
:10319400900148E0FFA3E0900152CFF0A3EFF0903C
:1031A4000152E0FEA3E07802CEA2E713CE13D8F8D2
:1031B400F0EE900152F0A3E025E0FF900152E033DD
:1031C400FE74A52FF58274143EF583E493FF740115
:0A31D40093900142CFF0A3EFF02228
:102A1400900142E0FEA3E0FFC3EE64809480503155
:102A2400C3E49FFFE49EFE7C007D0A120A517C00F1
:102A34007D0A120A518D0E750B0A750C0A750D0C60
:102A4400900142E0FEA3E0FFC3E49FFFE49EFE800A
:102A540040900142E0FEA3E0FF7C007D64120A5135
:102A64007C007D0A120A51AB05900142E0FEA3E00E
:102A7400FF7C007D0A120A517C007D0A120A518DE6
:102A84000E8B0D750B0A750C0A900142E0FEA3E053
:102A9400FF7C007D0A120A518D0F7B0A7D0A7F0A92
:042AA400123B4C2273
:041AF4004101AD00FF
:1028CD007F051235119000B2EFF07F021235119095
:1028DD0000B3EFF07F041235119000B4EFF07F01DB
:1028ED001235119000B5EFF09000B2E0B4011090E8
:1028FD0001ADE004F0E0D3648094834002E4F090F5
:10290D0000B3E0B401119001ADE014F0E0C36480B8
:10291D00948050037403F09000B4E0B4011FE540BF
:10292D00D3940040181540780E7C007D007B007A12
:10293D0000793E7E007F0612094A1224189000B5D8
:10294D00E0B4011FE540C3940F50180540780E7C8C
:10295D00007D007B007A00793E7E007F0612094AD9
:03296D0012241819
:012970002244
:103B8C009001ADE014600D14600D14600D240370F1
:0E3B9C000C0233E4022A14023482123C362258
:10343500C6BDD1F4A3ACB5BDC1CBA1A3C7EBC7B085
:10344500CDF9C0E8CDD0C2B7B5C4B3CBBFCDD7BCDD
:10345500B1B8CFC2B3B5A1A3CFC2B3B5CAB1A3ACFE
:10346500C7EBD7A2D2E2C1D0B3B5D3EBD5BECCA8BA
:0D347500D6AEBCE4B5C4BCE4CFB6A1A30044
:101AF800C1104A0138000003F1043607F506004218
:041B080001340000A4
:1039FD00900189E0FF3395E0FEEF24FFFFEE34FFE9
:103A0D00900136F0A3EFF0D210E4900134F0A3F062
:083A1D00900130F0A304F02237
:102DFE00900131E024FFF0900130E034FFF0E0FA72
:102E0E00A3E0FB7C007D3CFFAE02120A51A3EEF064
:102E1E00A3EFF07C007D3CAF03AE02120A5190018D
:102E2E002EECF0A3EDF0D3900131E0940090013040
:102E3E00E0648094805038B21012278320103090B6
:102E4E000136E0FEA3E0FFD39400EE648094804050
:102E5E001EEF9405EE6480948050147C007DC812A1
:102E6E0009EA74922FF974043EFA7BFF1238CF22CE
:10278300201072C3900137E09405900136E0648015
:1027930094805061A3E004F07006900136E004F0E9
:1027A300900137E025E0FF900136E033FE74382FC7
:1027B300F58274013EF583E0FFA3E0900134CFF08E
:1027C300A3EFF0900189E0FF3395E0FE74A72FF5A6
:1027D3008274013EF583E0FFD394004047EFFD7C14
:1027E30000900134E0FEA3E0FF1209FC900130EEFB
:1027F300F0A3EFF022201023C3900137E09405905B
:102803000136E06480948040129001307404F0A398
:1028130074B0F0E4900134F0A3F022900130E4F0BE
:05282300A37415F02272
:1033E400900132E0FEA3E0FF7C007D0A1209FCABF1
:1033F4000790012EE0FEA3E0FF7C007D0A1209FC89
:103404008F0E8B0B900132E0FEA3E0FF7C007D0A5F
:103414001209FC8D0C750D0A90012EE0FEA3E0FF4D
:103424007C007D0A1209FC8D0F7B0AE4FDFF023B40
:013434004C4B
:103C3600750B0A750C0A750D0A750E0AA210E43387
:0B3C4600F50F7B0A7D0A7F0A023B4C51
:10297100301003022A13D3900135E0940090013402
:10298100E094005003022A13900189E0FF3395E09F
:10299100FE74A72FF58274013EF583E0FFD3940006
:1029A1004066900134E0FCA3E0FDD39FEC9400402D
:1029B10025900189E0FF3395E0FE74A72FF582741D
:1029C100013EF583E0FFC3ED9FFEEC9400900134DE
:1029D100F0A3CEF08007E4900134F0A3F0900189D8
:1029E100E0FF3395E0FE74A72FF58274013EF58375
:1029F100E0FD7C00900134E0FEA3E0FF1209FC90B1
:102A01000130EEF0A3EFF022900130740EF0A374C8
:032A110010F022A0
:071B0C004401A73219323237
:10348200750B0A750C0A900189E0FF3395E0FE7412
:10349200A72FF58274013EF583E0FD75F06484F593
:1034A2000DED75F00A8475F00A8485F00E74A72F6D
:1034B200F58274013EF583E075F00A8485F00F7B96
:0834C2000A7D0A7F0A023B4C5F
:1000460000000000000000000000000000000000AA
:10005600000000000000000000000000000000009A
:10006600000000000000000000000000000000008A
:10007600000000000000000000000000000000007A
:10008600000000000000000000000000000000006A
:10009600000000000000000000000000000000005A
:1000A600000000000000000000000000000000004A
:1000B600000000000000000000000000000000003A
:1000C600000000000000000000000000000000002A
:1000D600000000000000000000000000000000001A
:1000E600000000000000000000000000000000000A
:1000F60000000000000000000000000000000000FA
:100106000000000000000000C6BDD1F4A3ACB5BDE0
:10011600C1CBA1A3C7EBC7B0CDF9C0E8CDD0C2B75C
:10012600B5C4B3CBBFCDD7BCB1B8CFC2B3B5A1A30D
:10013600CFC2B3B5CAB1A3ACC7EBD7A2D2E2C1D086
:10014600B3B5D3EBD5BECCA8D6AEBCE4B5C4BCE43F
:10015600CFB6A1A3000000000000000000000000D0
:100166000000000000000000000000000000000089
:100176000000000000000000000000000000000079
:100186000000000000000000000000000000000069
:100196000000000000000000000000000000000059
:1001A6000000000000000000000000000000000049
:1001B6000000000000000000000000000000000039
:1001C6000000000000000000000000000000000029
:1001D600B3A4C9B3BBF0B3B5C4CFD5BEA3ACB5BD4C
:1001E600C1CBA1A3B1BED5BECEAABBBBB3CBD5BE38
:1001F600A3ACBFC9BBBBB3CB32BAC5CFDFA1A2B4D8
:10020600C5B8A15332CFDFA1A3C7EBC7B0CDF9B8AC
:10021600DFCCFAC4CFD5BEA1A2B4C5B8A15332CFA4
:10022600DFA1A2C0E8CDD0B8DFCBD9C6FBB3B5D528
:10023600BEB5C4B3CBBFCDD7BCB1B8CFC2B3B5A1E1
:10024600A3CFC2B3B5CAB1A3ACC7EBD7A2D2E2C1A2
:10025600D0B3B5D3EBD5BECCA8D6AEBCE4B5C4BC42
:10026600E4CFB6A1A30000000000000000000000DB
:100276000000000000000000000000000000000078
:100286000000000000000000000000000000000068
:100296000000000000000000B9E2B4EFA3A8BBE133
:1002A600D5B9D6D0D0C4A3A9A3ACB5BDC1CBA1A3A3
:1002B600B1BED5BECEAABBBBB3CBD5BEA3ACBFC960
:1002C600BBBBB3CB32BAC5CFDFA1A3C7EBC7B0CD9B
:1002D600F9B3A4C9B3B9FABCCABBE1D2E9D6D0D046
:1002E600C4A1A2B3A4C9B3B9FABCCABBE1D5B9D6F5
:1002F600D0D0C4A1A2B3A4C9B3B9FABCCABBE1D5D4
:10030600B9D0C2B3C7B5C4B3CBBFCDD7BCB1B8CFD4
:10031600C2B3B5A1A3CFC2B3B5CAB1A3ACC7EBD71D
:10032600A2D2E2C1D0B3B5D3EBD5BECCA8D6AEBC73
:10033600E4B5C4BCE4CFB6A1A300000000000000F1
:1003460000000000000000000000000000000000A7
:100356000000000000000000000000000000000097
:10036600D6D5B5E3D5BEA3ACB6C5BCD2C6BAA3AC8A
:10037600B5BDC1CBA1A3C7EBC8ABCCE5B3CBBFCD55
:10038600D0AFB4F8BAC3CBE6C9EDCEEFC6B7D7BC8B
:10039600B1B8CFC2B3B5A1A3CFC2B3B5CAB1A3ACEE
:1003A600C7EBD7A2D2E2C1D0B3B5D3EBD5BECCA8AA
:1003B600D6AEBCE4B5C4BCE4CFB6A1A3BBB6D3AD40
:1003C600C4FAD4D9B4CEB3CBD7F8B5D8CCFAC1D009
:1003D600B3B5A3ACD4D9BCFBA3A1000000000000B8
:1003E6000000000000000000000000000000000007
:1003F60000000000000000000000000000000000F7
:1004060000000000000000000000000000000000E6
:1004160000000000000000000000000000000000D6
:100426000000000000000000B3B5C3C5BCB4BDABFE
:10043600B9D8B1D5A3ACBDF7B7C0BCD0C9CB000005
:1004460000000000000000000000000000000000A6
:100456000000000000000000000000000000000096
:100466000000000000000000000000000000000086
:100476000000000000000000000000000000000076
:100486000000000000000000000000000000000066
:100496000000000000000000000000000000000056
:1004A6000000000000000000000000000000000046
:1004B6000000000000000000000000000000000036
:1004C6000000000000000000000000000000000026
:1004D6000000000000000000000000000000000016
:1004E6000000000000000000000000000000000006
:1004F60000000000000000000000000000000000F6
:1005060000000000000000000000000000000000E5
:1005160000000000000000000000000000000000D5
:1005260000000000000000000000000000000000C5
:1005360000000000000000000000000000000000B5
:1005460000000000000000000000000000000000A5
:1005560000000000B1BEB4CEC1D0B3B5BFAACDF97C
:10056600A3ACB6C5BCD2C6BAA1A3CFC2D2BBD5BEB8
:10057600A3ACC6BDD1F4A1A3B3B5C3C5BFAAC6F487
:10058600B7BDCFF2CEAAD7F3B2E0A1A30000000018
:100596000000000000000000000000000000000055
:1005A6000000000000000000000000000000000045
:1005B6000000000000000000000000000000000035
:1005C6000000000000000000000000000000000025
:1005D6000000000000000000000000000000000015
:1005E6000000000000000000000000000000000005
:1005F60000000000000000000000000000000000F5
:1006060000000000000000000000000000000000E4
:10061600000000000000000000000000B1BEB4CEE3
:10062600C1D0B3B5BFAACDF9A3ACB6C5BCD2C6BAC4
:10063600A1A3CFC2D2BBD5BEA3ACB3A4C9B3BBF0F2
:10064600B3B5C4CFD5BEA1A3B3B5C3C5BFAAC6F4BF
:10065600B7BDCFF2CEAAD7F3B2E0A1A3B8F7CEBB0F
:10066600B3CBBFCDC7EBD7A2D2E2A3ACD0E8BBBB1E
:10067600B3CB32BAC5CFDFA1A2B4C5B8A15332CF2E
:10068600DFB5C4B3CBBFCDA3ACC7EBD4DAB3A4C933
:10069600B3BBF0B3B5C4CFD5BECFC2B3B5A1A3002B
:1006A6000000000000000000000000000000000044
:1006B6000000000000000000000000000000000034
:1006C6000000000000000000000000000000000024
:1006D6000000000000000000000000000000000014
:1006E60000000000B1BEB4CEC1D0B3B5BFAACDF9EB
:1006F600A3ACB6C5BCD2C6BAA1A3CFC2D2BBD5BE27
:10070600A3ACB9E2B4EFA3A8BBE1D5B9D6D0D0C4A7
:10071600A3A9A1A3B3B5C3C5BFAAC6F4B7BDCFF2FB
:10072600CEAAD7F3B2E0A1A3B8F7CEBBB3CBBFCD69
:10073600C7EBD7A2D2E2A3ACD0E8BBBBB3CB32BAED
:10074600C5CFDFB5C4B3CBBFCDA3ACC7EBD4DAB945
:10075600E2B4EFA3A8BBE1D5B9D6D0D0C4A3A9CF44
:10076600C2B3B5A1A3000000000000000000000015
:100776000000000000000000000000000000000073
:100786000000000000000000000000000000000063
:100796000000000000000000000000000000000053
:1007A600000000000000000000000000CFC2D2BB25
:1007B600D5BEA3ACCAC7B1BEB4CEC1D0B3B5D6D52B
:1007C600B5E3D5BEA3ACB6C5BCD2C6BAA1A3B3B574
:1007D600C3C5BFAAC6F4B7BDCFF2CEAAD7F3B2E05F
:1007E600A1A3C1D0B3B5D4CBD0D0CAB1A3ACC7EB0B
:1007F600D5BECEC8B7F6BAC3A3ACC7EBCEAAD3D084
:10080600D0E8D2AAB5C4B3CBBFCDC8C3D7F9A3AC81
:10081600B6E0D0BBBACFD7F7A1A300000000000016
:1008260000000000000000000000000000000000C2
:1008360000000000000000000000000000000000B2
:1008460000000000000000000000000000000000A2
:100856000000000000000000000000000000000092
:100866000000000000000000000000000000000082
:04087600000000007E
:101B13004101A0004101A6004501A1000A141610CD
:103CDB009001A0E0B441079001A67401F022E4909A
:043CEB0001A6F0221C
:102AA8009001A6E064017003022B3B900136E0FE22
:102AB800A3E0FF24A1F58274013EF583E0FD9001B7
:102AC80030E07003A3E06D703220102FD3EF940034
:102AD800EE648094804024900136E0FEA3E0FF94E9
:102AE80005EE6480948050137C007DC81209EA7456
:102AF800462FF974003EFA7BFF8035900130E07074
:102B080004A3E06405702C301029900136E0FEA380
:102B1800E0FFD39400EE648094804017EF9405EEB4
:102B280064809480500D7BFF7A04792E7D647C004C
:042B38001238CF225E
:0400260000A8C0006E
:0E1B23004401850000000044018A000000001B
:103D2800122DFE122AA812318412355712106E0273
:023D3800375FF3
:033EB500023B8C41
:103723003F065B4F666D7D077F6F00084001414890
:10373300BF86DBCFE6EDFD87FFEF777C395E7971DE
:103743003D7606383F736D3E6E5F7C585E7B716FCE
:0C375300741038545C7367506D781C6E65
:081B31004101ABFF4101AC00D2
:103D3A00EFC394004009EFD3946450037F01227FBC
:023D4A00002255
:1031DE00E4F50F9001AC04F09001AB74FFF0E4F550
:1031EE000FAF0F123BC79000E5EFF0E0FFE50FFDCC
:1031FE003395E0FC744E2DF58274013CF583EFF0AF
:10320E00EFF46006123D3AEF7014AF0FEF3395E016
:10321E00FE744E2FF58274013EF5837428F0050F6F
:09322E00C3E50F6480948440B8EC
:013237002274
:103982009001ACE070031231DE900189E0FF123B3E
:10399200C79000E4EFF0F46008E0FF123D3AEF70E8
:0939A200037F28229000E4E0FFFD
:0139AB0022F9
:103957008F0E9001ACE070031231DEAF0E123D3ACC
:10396700EF70037FFF22900189E0FFAD0E123CB19B
:0B397700900189E09001ABF07F00227E
:02379B008F0D90
:10379D009001ACE070031231DEAF0D123D3AEF70C7
:1037AD00057EFF7FFF221239829000E3EFF0B50D09
:1037BD0004E4FEFF22AF0D123957EF7005FE7F01B5
:0637CD0080047EFF7FFF77
:0137D30022D3
:063EA6002C004253500005
:101B39006020006E000000000000000000000000AE
:101B4900000000000000000000000000000000008C
:101B5900000000006020008E00000000000000006E
:101B6900000000000000000000000000000000006C
:101B790000000000000000004100B1004300AE4237
:021B89005350B7
:10380A007B017A00796E7D0A123BFFAE02AF018F0F
:10381A00828E83EF4E6014E4F09000B17402F07B64
:10382A00017A00796E12129C02000E9000B17403A4
:01383A00F09D
:01383B00226A
:1032E9007F007EC27D017C00122FF37E007F207D4E
:1032F900007B017A00796E120D4C7E007F207D00E3
:103309007B017A00798E120D4C7BFF7A38790A7F1E
:1033190009122EFE750D01750E00750FAE751000A0
:103329007511037B017A00796E7D207C0012389E2D
:06333900E49000B1F02257
:10000E007E007F207D007B017A00796E120D4CE41C
:05001E009000B1F0228A
:0B3E38009000B1E0B4030312000E2262
:06129C008B088A09890A93
:1012A200E49000D2F0A3F0AE02AF01EF4E6007125D
:1012B2003CC6EF4E700302140B78B27C007D01AB8A
:1012C20008AA09A90A120D2F7510FF75113E751291
:1012D200A67B017A0079B20213ECE50C450B700390
:1012E2000213FA9000D2E0FEA3E0FFC3940AEE6478
:1012F20080948040030213FAEE60030213CFEF14CE
:10130200B4090040030213CF90131875F003A4C56B
:101312008325F0C5837302133302134102134F0274
:10132200135D02136B02137902138C0213A30213CF
:10133200BAAA0BA90C7B011225839000D48044AA7F
:101342000BA90C7B011225839000D68036AA0BA92B
:101352000C7B011225839000D88028AA0BA90C7B54
:10136200011225839000DA801AAA0BA90C7B0112C4
:1013720025839000DC800CAA0BA90C7B011225832B
:101382009000DEEEF0A3EFF08043AA0BA90C7B01E4
:101392001225839000E2EFF0D394014030E4F08014
:1013A2002CAA0BA90C7B011225839000E0EFF0D34D
:1013B20094014019E4F08015AA0BA90C7B011225B7
:1013C200839000E1EFF0D394014002E4F09000D367
:1013D200E004F070069000D2E004F07510FF751181
:1013E2003E7512A67B007A007900122E7EAE02AF05
:1013F200018E0B8F0C0212DCC39000D3E0940A9092
:1014020000D2E06480948050057EFF7FFF2290012D
:1014120089E0FD3395E0FC744E2DF58274013CF5B4
:1014220083E0FF9000D8E0FAA3E0FB6F7001EA606E
:1014320011AF03744E2DF58274013CF583EFF01267
:10144200379B900189E0FF3395E0FE74A72FF58268
:1014520074013EF583E0FD9000DAE0FAA3E0FB6D53
:101462007001EA600F74A72FF58274013EF583EBD9
:10147200F01229719000E0E0FF900189E0FD3395C0
:10148200E0FC74852DF58274013CF583EFF0900049
:10149200E1E0FF748A2DF58274013CF583EFF0E4FC
:0214A200FEFF4B
:0114A4002225
:101F3F003EF583E0FF7E009000B2E0FCA3E0248E2C
:071F4F00F974003CFA7B016C
:061F56008B088A09890ACC
:101F5C00E49000B6F0A3F0A3EEF0A3EFF0E4900051
:101F6C00C4F0A3F0EF4E701774301209B6AB08AA88
:101F7C0009A90A900001E41209C87E007F0122D34E
:101F8C009000B9E094009000B8E0940040539000A9
:101F9C00C5E0940A9000C4E06480948050439000A3
:101FAC00B8E0FAA3E0FB7C007D0AFFAE021209FC4C
:101FBC00ED2430FF9000C4E475F001120A9DFC740E
:101FCC00BA25F0F58274003CF583EFF07C007D0AB5
:101FDC00AF03AE021209FC9000B8EEF0A3EFF08054
:101FEC009E9000C5E024FFFE9000C4E034FF9000FA
:101FFC00B4F0A3CEF09000B4E0FEA3E0FFC3EE6417
:10200C00809480403574BA2FF58274003EF583E0DD
:10201C00FFAB08AA09A90A9000B6E475F001120AF0
:10202C009D85F082F583EF1209C89000B5E024FF7E
:10203C00F09000B4E034FFF080BBAB08AA09A90A09
:10204C009000B6E0FEA3E0FFF5828E83E41209C88F
:01205C002261
:10106E00E49000B2F0A3F0123E4EBF01037F0322C4
:10107E007E007F207D007B017A00798E120D4C78E8
:10108E008E7C007D017BFF7A3E79A8120D2F7B01AD
:10109E007A00798E123CC69000B2EEF0A3EFF0907B
:1010AE0000B2E475F001120A9DFE748E25F0F582F1
:1010BE0074003EF583742CF0900189E0FF3395E0C7
:1010CE00FE121F469000B3E02FF09000B2E03EF00B
:1010DE00E475F001120A9DFE748E25F0F5827400FF
:1010EE003EF583742CF0900142E0FEA3E0FF121F48
:1010FE00469000B3E02FF09000B2E03EF0E475F0C1
:10110E0001120A9DFE748E25F0F58274003EF58361
:10111E00742CF0900189E0FF3395E0FE744E2FF5AC
:10112E00827401121F3F9000B3E02FF09000B2E0E6
:10113E003EF0E475F001120A9DFE748E25F0F582E4
:10114E0074003EF583742CF0900189E0FF3395E036
:10115E00FE74A72FF5827401121F3F9000B3E02F8B
:10116E00F09000B2E03EF0E475F001120A9DFE74BC
:10117E008E25F0F58274003EF583742CF0900132CA
:10118E00E0FEA3E0FF121F469000B3E02FF09000A8
:10119E00B2E03EF0E475F001120A9DFE748E25F069
:1011AE00F58274003EF583742CF090012EE0FEA3C0
:1011BE00E0FF121F469000B3E02FF09000B2E03E29
:1011CE00F0E475F001120A9DFE748E25F0F582741E
:1011DE00003EF583742CF0A210E4FE33FF121F467E
:1011EE009000B3E02FF09000B2E03EF0E475F00115
:1011FE00120A9DFE748E25F0F58274003EF58374FE
:10120E002CF0900189E0FF3395E0FE74852FF58276
:10121E007401121F3F9000B3E02FF09000B2E03E39
:10122E00F0E475F001120A9DFE748E25F0F58274BD
:10123E00003EF583742CF0900189E0FF3395E0FEBB
:10124E00748A2FF5827401121F3F9000B3E02FF0C5
:10125E009000B2E03EF0E475F001120A9DFE748E2D
:10126E0025F0F58274003EF583740AF0C39000B346
:10127E00E094209000B2E06480948040037F0322CB
:0D128E007B017A00798E7D207C00123A757C
:01129B002230
:031B8B00013D0019
:10362400E53D703D753E03753F9675400A75410151
:10363400754201F54378087C00FDFB7A00793EFE73
:103644007F0612094A123A9D780E7C007D007B00A9
:103654007A00793E7E007F0612094A122418753DCD
:02366400012241
:10375F00900189E0FF3395E0FE744E2FF5827401DE
:10376F003EF583E0FFD3900143E09F7480F8900112
:10377F0042E0648098400B750B0AE4FB7D0A7F32B0
:0C378F008006E4F50BFBFDFF122BCF229F
:0B3E43007F10123D4C900189EFF0222F
:103D7F008F08AD087F101239AC900189E508F02249
:103D8F00211023102510262025102310212031303B
:10355700123EAC8F08900189E0FF3395E0FE748539
:103567002FF58274013EF583E06009E508B4030492
:103577007F01801D900189E0FF3395E0FE74852F60
:10358700F58274013EF583E0700AE508B401057F12
:0435970003123A25BC
:01359B00220D
:103C9B007BFF7A3D798F753A00753B10753CF37D50
:063CAB00FA7F870232914E
:101CF60000C400DC00F701060126014A01720188D2
:101D060001B801EE020B024B029302E403100370CA
:101D160003DC04160497052605C800DC00F7011548
:101D26000126014A0172019F01B801EE022A024B07
:101D3600029302E4033F037003DC0455049705266F
:101D460005C8067D00F701150137014A0172019F9A
:101D560001D201EE022A026E029302E4033F03A4BB
:101D660003DC045504DD057505C8067D0749010633
:101D76000126014A015D018801B801EE020B024B02
:101D8600029302BA0310037003DC041604970526B7
:101D96000575062006E007B80126014A017201888A
:101DA60001B801EE022A024B029302E4031003700B
:101DB60003DC04550497052605C8062006E007B887
:101DC60008AA014A0172019F01B801EE022A026EB9
:101DD600029302E4033F037003DC045504DD052689
:101DE60005C8067D06E007B808AA09B9015D01889D
:101DF60001B801D2020B024B029302BA0310037020
:101E060003A40416049705260575062006E007496F
:061E1600082D092D0A4D04
:101B8E004D0157030000000000000000000000009F
:062631008F588D598B5AF1
:10263700123E15EF60037F0122E55AD3940040064E
:10264700E55A94114028E55AD394174006E55A9461
:1026570021401BE55AD394274006E55A9431400E92
:10266700E55AD394375007E558C394F950037F03CD
:1026770022E55A603DC4540F75F007A4FDACF0E5A0
:102687005875F015A42DFFE5F03CFEE55A54077C7C
:10269700002FFFEC3EFEEF25E0FFEE33FE740C2F1C
:1026A700F58274F43EF583E493F55C740193F55D6C
:1026B7008005E4F55CF55DAF5B7E007C017D7712FC
:1026C70009EAAD591C1209FCAD07AC06AF5DAE5C5B
:0326D700122F7B44
:0126DA0022DD
:040D7800156815687D
:100D7C00123E15EF70047F0180027F00900157E056
:100D8C00FEB402047D0180027D00ED5F6003021061
:100D9C0069EEB4030AE4900155F0A3F002106990D7
:100DAC000158E0FFB4F3047E0180027E00EFB4F141
:100DBC00047F0180027F00EF4E603E90015AE0FEFE
:100DCC0075F06484FFEE75F00A8475F00A84ADF05A
:100DDC00E075F00A84ABF0750B0A900159E024071A
:100DEC00F50C900154E0FEC4540F240AF50D750E59
:100DFC000AEE5407F50F123B4C900158E0FFB4F388
:100E0C00047E0180027E00EFB4F2047F0180027F39
:100E1C0000EF4E7003020EC290015AE0FD7C007E82
:100E2C00177F701209FCA868A607E6F975F002A4F2
:100E3C00FFC3900163E09F900162E095F05070E079
:100E4C00FEA3E0FF7C007D0B1209EAE9FBFD120911
:100E5C00FCA86808A607900162E475F001120A9DCF
:100E6C00FED3E5F09BEE94004018A86808E624F940
:100E7C00FFE47EF0A807088005CEC313CE13D8F983
:100E8C00801FA86808E6FF740F7E00A8070880057D
:100E9C00C333CE33CED8F97804CEA2E713CE13D811
:100EAC00F8A86808F6A86808E6FF123E9A8007E4DE
:100EBC00900162F0A3F090015EE0FEA3E0FFC3900E
:100ECC000161E09F900160E09E4003021063123EBE
:100EDC0015EF600302106990015BE0FBA3E0FAA33D
:100EEC00E0F9900160E0FEA3E0F5828E831209899F
:100EFC00FFD394375003020FFEEF241024FC5079DB
:100F0C00604524FE7003020FA9147003020FBF2466
:100F1C00026003020FED90015BE0FBA3E0FAA3E09B
:100F2C00F9900160E475F001120A8785F082F5836F
:100F3C00120989900159F0900161E004F0709890C9
:100F4C000160E004F0809090015BE0FBA3E0FAA369
:100F5C00E0F9900160E475F001120A8785F082F5E2
:100F6C008312098990015AF0900161E004F0706ECF
:100F7C00900160E004F0020EE390015BE0FBA3E063
:100F8C00FAA3E0F9900160E475F001120A9D85F076
:100F9C0082F583120989900158F0020EE3900160EA
:100FAC00E475F001120A87AFF0900155F0A3EFF051
:100FBC00020EE3900155E0FEA3E0FF4E601290019B
:100FCC0060EEF0A3EFF0E4900155F0A3F0020EE315
:100FDC00900161E004F07006900160E004F0020EF4
:100FEC00E3900161E004F07006900160E004F0020F
:100FFC000EE390015EE0FEA3E0FFC3900161E09F71
:10100C00900160E09E505690015BE0FBA3E0FAA3D8
:10101C00E0F9900160E475F001120A9D85F082F50B
:10102C0083120989900154F0900159E0FFA3E0FD6F
:10103C00A3E0FBA3E0FAA3E0F9900160E475F001F2
:10104C00120A9D85F082F583120989F55B90015493
:0D105C00E0FB12263180069001577403F06E
:05106900056805682286
:0F3DBE0090004274FFF0A3740DF0A37478F0220C
:10329100900157E0B4030DE4900160F0A3F0A3F0B6
:1032A100A3F0C211EF600490015AF0ED60049001A7
:1032B10059F0E94A60047F0180027F00E53B453A0D
:1032C10060047E0180027E00EE5F601390015BEB83
:1032D100F0A3EAF0A3E9F0A3E53AF0A3E53BF0E5BA
:0832E1003C6004900158F0224A
:103A2500BF02047E0180027E00BF01047D01800289
:103A35007D00ED4EFEBF03047D0180027D00ED4E4D
:083A45006005900157EFF0222B
:063EAC00900157E0FF2227
:041B9E00410196016A
:103C5100C295E4FEEF1392CC000000D29500EFC3B1
:083C610013FFC2950EBE08EC32
:013C69002238
:103C8300E4FEEFC313FF30CC03430780D29500005B
:073C930000C2950EBE08EB14
:013C9A002207
:1038FE00F07F85123911A3EFF07F87123911A3EFF4
:03390E00F07F89BE
:10391100C296000000C295000000D29600123C51F0
:0A392100123C83D295000000C2960C
:01392B002279
:033B6C00A3E0FDD6
:103B6F00C296000000C295000000D29600123C5190
:0D3B7F00AF05123C51D295000000C2962205
:073E8D007B017A01798F220D
:103C6A00788F7C017D017B007A0079447E007F0792
:093C7A0012094AE4900196F022BF
:103D4C00EFD3941F5009EF25E044C1FF0239117FD6
:023D5C00012242
:1039AC00AC07AB05ECD3941F501CE4FD7F8E123B8F
:1039BC006FEC25E044C0FFAD03123B6F7D807F8E22
:0939CC00123B6F7F00227F0122F3
:02282800156831
:10282A00900196E060447F81123911A868EFF69012
:10283A00018FE06F70030228CAA868E6F07F83124E
:10284A003911A868EFF6A3E06F6075A868E6123838
:10285A00FEA3EFF07F8D123911900195EFF07F8B77
:10286A00123911900194EFF0805690018EE0FF0426
:10287A00F0EFC3940A4049E4F090019604F0E4FDB5
:10288A007F8E123B6F90018FE0FD7F80123B6F7F3E
:10289A0082123B6C7F84123B6CA3E0FD7F86123B65
:1028AA006FA3E0FD7F88123B6FA3E0FD7F8A123B96
:1028BA006FA3E0FD7F8C123B6F7D807F8E123B6F92
:0328CA000568227C
:10205D007F8112391190018FEFF07F83123911A317
:10206D00EF1238FEA3EFF07F8B123911A3EFF07F43
:10207D008D123911A3EFF0E4FD7F8E123B6F7F1EA1
:10208D00123D4CEF64A560047F0180027F0090013A
:10209D008FE05480FEA3E0D3945940047D0180026B
:1020AD007D00ED4EFE900191E0D394A440047D019E
:1020BD0080027D00ED4EFE900192E0D394314004FC
:1020CD007D0180027D00ED4EFE900193E0D39412D0
:1020DD0040047D0180027D00ED4EFE900194E0D321
:1020ED00940740047D0180027D00ED4EFE90019528
:1020FD00E0D3949940047D0180027D00ED4E4F6048
:10210D003078447C007D007B007A00794B7E007F27
:10211D000712094A123C6A7DA57F1E1239AC788FD1
:10212D007C017D017B007A00794B7E007F071209CF
:10213D004A7DA97F90123B6F7D807F8E123B6F9001
:0E214D00005A74FFF0A37428F0A37428F02247
:103D9F00D2C0000000D2CD000000C2C0000000223F
:0D002E00C2C0000000D2CD000000D2C022F0
:0B3AC200123AE6123ACDAF05123AE6C8
:103ACD00E4FFD2CD30C009EFC394FF50030F80F453
:083ADD00000000C2CD00000052
:013AE50022BE
:103AE600E4FEEF25E0FFC2CD00000092C00000001A
:103AF600D2CD0000000EBE08E9C2CD000000D2C043
:033B0600000000BC
:013B09002299
:103B0A00C2CD000000D2C000E4FED2CD0000EF25F5
:103B1A00E0FDA2C0E4334DFF0000C2CD000EBE0896
:013B2A00E9B1
:013B2B002277
:103CB100AC07123D9F7FA0123AE6123ACDAF041233
:053CC1003AC202002ED2
:023BC700AD0748
:103BC900123D9F7FA0123AC2123D9F7FA1123AE691
:093BD900123ACD123B0A12002E33
:013BE20022C0
:0B1BA200480197D4111A50400288A59A
:093CEF007F03123CF8D2C57F03EB
:0A3CF800AE071FEE60030080F72204
:103D0200D2A7123CEFC2A77F03123CF8C2C57F03C1
:033D1200023CF878
:0C3E2100C2A7123CEFD2A77F03023CF8BE
:103BE300E4FFD2C530A709EFC394FA50030F80F462
:0C3BF3007F03123CF8C2C57F03023CF8BF
:023A4D00AD07C3
:103A4F00E4FBC2C57F03123CF8ED3392A7ED25E0EE
:103A5F00FD123CEF0BBB08EAC2C57F03123CF8D244
:063A6F00C57F03023CF8D4
:02359C001568B0
:10359E0090019FE064017037123D027F20123A4D78
:1035AE00123BE3A868E4F6A868E6FFC39408501738
:1035BE0074972FF582E43401F583E0FF123A4D1231
:0F35CE003BE3A8680680E0123E21E490019FF0E5
:0335DD000568225C
:10312800900199E025E025E0FFA3E0C413135403C0
:103138002F2466F515E43403F51490019EE0540F2E
:10314800F51690019CE0543FFF5403FEBE0305753D
:1031580017FF8003E4F517EF540CFEBE0C05751835
:10316800FF8003E4F518EF5430FFBF30057519FFF1
:0B3178008003E4F5197B007A00791455
:013183002229
:10241800D3E50F9438E50E940450047F0180027FC1
:1024280000C3E50F9466E50E940340047E01800224
:102438007E00EE5F6030123128120AB3650F700417
:10244800E5F0650E6020E50F249AFD1313543F90C4
:102458000199F0ED5403FFC4333354C04410A3F082
:1024680090019F7401F0123128E92402F9E43AFA44
:10247800120970651060047F0180027F00E510D3A7
:10248800940F50047E0180027E00EE5F6011E5101B
:10249800540FFF90019EE054F04FF0A37401F07DBB
:1024A8002AE5116003430501E5126003430504E5CD
:1024B80013600343051090019CE06D6008EDF090F7
:0524C800019F7401F00A
:0124CD0022EC
:103A9D00780E7C007D007B007A0079087E007F0621
:103AAD0012094A12241890005774FFF0A37435F0D0
:053ABD00A3749CF0223F
:101BAD0055011900000000000000000000000000B9
:081BBD0000000100000000001F
:03002300021BC6F7
:101BC600C0E0C0F0C083C082C0D075D000C000C0E5
:101BD60001C002C003C004C005C006C00730993B5F
:101BE600C29990011EE0FEA3E0FFC390011DE09F95
:101BF60090011CE09E501F900119E0FBA3E0FAA3A0
:101C0600E0F9A3E475F001120A9D85F082F58312CE
:101C16000989F5998005900120E4F0209803021CBB
:101C2600DBC298300B09C20B900126E4F0A3F090BA
:101C36000124E0FEA3E0FFA3E0FCA3E0FDC39FECCC
:101C46009E5077900121E0FBA3E0FAA3E0F98D8294
:101C56008C83E5991209C890012CE0FEA3E0FFC32E
:101C6600ED9FEC9E5046900124E0FCA3E0FDEF9D25
:101C7600EE9C5038900129E0FBA3E0FAA3E0F9902E
:101C86000126E0FEA3E0FFF5828E83120989FD900E
:101C96000121E0FBA3E0FAA3E0F98F828E8312090B
:101CA600896D600890012674FFF0A3F0900127E08B
:101CB60004F07006900126E004F0900124E0FEA3F3
:101CC600E0FFC3900127E09F900126E09E4006902A
:101CD60001287401F0D007D006D005D004D003D077
:101CE60002D001D000D0D0D082D083D0F0D0E03264
:023DCD00156877
:0A3DCF00900128E0A868F6FFE4F078
:033DD90005682258
:102FF3008F0B8E0A8D098C08759850438E40538E23
:10300300FE53890FE47B04FAF9F8900026120C357D
:10301300120B69AB0BAA0AA909A808120B69EFF4F2
:1030230004F58BE47B04FAF9F8900026120C3512B0
:103033000B69AB0BAA0AA909A808120B69C3E49F81
:10304300FFE49EFE74019DFDE49CFC7808120BFBDB
:103053008F8DC2ABD28ED2AC90004E74FFF0A374AE
:073063003DF0A374CDF02243
:10389E00900121EBF0A3EAF0A3E9F0A3ECF0A3ED85
:1038AE00F090012CE510F0A3E511F0900129E50D43
:1038BE00F0A3E50EF0A3E50FF0D20BE4900128F093
:0138CE0022D7
:103A7500900120E0701F900119EBF0A3EAF0A3E993
:103A8500F0E4A3F0A3F0A3ECF0A3EDF0A37401F030
:083A9500D2997F02227F032277
:0B3E4E00900120E07002FF227F0122A3
:03000000022C5F70
:0C2C5F00787FE4F6D8FD758168022CA691
:10087A00E709F608DFFA8046E709F208DFFA803E60
:10088A0088828C83E709F0A3DFFA8032E309F6084D
:10089A00DFFA8078E309F208DFFA807088828C83B5
:1008AA00E309F0A3DFFA806489828A83E0A3F60869
:1008BA00DFFA805889828A83E0A3F208DFFA804C43
:1008CA0080D280FA80C680D4806980F2803380101A
:1008DA0080A680EA809A80A880DA80E280CA803383
:1008EA0089828A83ECFAE493A3C8C582C8CCC583FB
:1008FA00CCF0A3C8C582C8CCC583CCDFE9DEE780CB
:10090A000D89828A83E493A3F608DFF9ECFAA9F049
:10091A00EDFB2289828A83ECFAE0A3C8C582C8CC9F
:10092A00C583CCF0A3C8C582C8CCC583CCDFEADEB8
:10093A00E880DB89828A83E493A3F208DFF980CC1A
:10094A0088F0EF60010E4E60C388F0ED2402B40413
:10095A000050B9F582EB2402B4040050AF232345BA
:06096A0082239008CA730D
:10097000BB010689828A83E0225002E722BBFE0285
:09098000E32289828A83E49322B8
:10098900BB010CE58229F582E5833AF583E0225023
:1009990006E92582F8E622BBFE06E92582F8E2226D
:0D09A900E58229F582E5833AF583E4932287
:1009B600BB010689828A83F0225002F722BBFE0120
:0209C600F3221A
:1009C800F8BB010DE58229F582E5833AF583E8F065
:1009D800225006E92582C8F622BBFE05E92582C811
:0209E800F222F9
:1009EA00EF8DF0A4A8F0CF8CF0A428CE8DF0A42E21
:0209FA00FE22DB
:1009FC00BC000BBE0029EF8DF084FFADF022E4CCDF
:100A0C00F875F008EF2FFFEE33FEEC33FCEE9DECA7
:100A1C00984005FCEE9DFE0FD5F0E9E4CEFD22EDED
:100A2C00F8F5F0EE8420D21CFEADF075F008EF2F37
:100A3C00FFED33FD4007985006D5F0F222C398FD28
:050A4C000FD5F0EA22C5
:100A5100C2D5EC30E709B2D5E4C39DFDE49CFCEEC0
:100A610030E715B2D5E4C39FFFE49EFE1209FCC333
:100A7100E49DFDE49CFC80031209FC30D507C3E42E
:060A81009FFFE49EFE222F
:100A8700C5F0F8A3E028F0C5F0F8E58215827002FA
:060A97001583E038F02297
:100A9D00A3F8E0C5F025F0F0E5821582700215830C
:060AAD00E0C838F0E82269
:100AB300BB010A89828A83E0F5F0A3E0225006870E
:100AC300F009E71922BBFE07E3F5F009E3192289D0
:0B0AD300828A83E493F5F07401932203
:100ADE00E88FF0A4CC8BF0A42CFCE98EF0A42CFCB7
:100AEE008AF0EDA42CFCEA8EF0A4CDA8F08BF0A435
:100AFE002DCC3825F0FDE98FF0A42CCD35F0FCEB94
:100B0E008EF0A4FEA9F0EB8FF0A4CFC5F02ECD3958
:0F0B1E00FEE43CFCEAA42DCE35F0FDE43CFC22C5
:100B2D0075F008758200EF2FFFEE33FECD33CDCC7F
:100B3D0033CCC58233C5829BED9AEC99E582984002
:100B4D000CF582EE9BFEED9AFDEC99FC0FD5F0D6DF
:100B5D00E4CEFBE4CDFAE4CCF9A88222B800C1B909
:100B6D000059BA002DEC8BF084CFCECDFCE5F0CB47
:100B7D00F97818EF2FFFEE33FEED33FDEC33FCEB80
:100B8D0033FB10D703994004EB99FB0FD8E5E4F93B
:100B9D00FA227818EF2FFFEE33FEED33FDEC33FC28
:100BAD00C933C910D7059BE99A4007EC9BFCE99A1C
:100BBD00F90FD8E0E4C9FAE4CCFB2275F010EF2F61
:100BCD00FFEE33FEED33FDCC33CCC833C810D70761
:100BDD009BEC9AE899400AED9BFDEC9AFCE899F89C
:0E0BED000FD5F0DAE4CDFBE4CCFAE4C8F9222F
:1035E000C2D5E830E70FB2D5E4C39BFBE49AFAE416
:1035F00099F9E498F8EC30E717B2D5123616120BA9
:1036000069E4C39BFBE49AFAE499F9E498F880032F
:10361000120B6930D50DE4C39FFFE49EFEE49DFDCF
:04362000E49CFC2208
:100BFB00E8600FECC313FCED13FDEE13FEEF13FFD8
:030C0B00D8F122FB
:100C0E00E86010ECA2E713FCED13FDEE13FEEF13FC
:040C1E00FFD8F022E9
:100C2200E8600FEFC333FFEE33FEED33FDEC33FC30
:030C3200D8F122D4
:100C3500E493FC740193FD740293FE740393FF2205
:0C0C4500ECF0A3EDF0A3EEF0A3EFF02222
:0C0C5100A42582F582E5F03583F58322AE
:060C5D008A838982E47322
:100C6300E709F60870FA8046E709F20870FA803E51
:100C730088828C83E709F0A370FA807EE309F60883
:100C830070FA8076E309F20870FA806E88828C83AA
:100C9300E309F0A370FA806289828A83E0A3F608ED
:100CA30070FA805689828A83E0A3F20870FA804A38
:100CB30080D280FA80C680D4806580F28031801033
:100CC30080A680EA809A80A880DA80E280CA803198
:100CD30089828A83ECFAE493A3C8C582C8CCC5830E
:100CE300CCF0A3C8C582C8CCC583CC70E9800D897C
:100CF300828A83E493A3F60870F9ECFAA9F0EDFB7A
:100D03002289828A83ECFAE0A3C8C582C8CCC58352
:100D1300CCF0A3C8C582C8CCC583CC70EA80DD897A
:100D2300828A83E493A3F20870F980CE88F0ED24DD
:100D330002B4040050C4F582EB2402B4040050BA98
:090D43002323458223900CB373B5
:103CC600E4FFFE120970600C0FEF70010E09E97037
:053CD600F20A80EF225C
:103BFF00E94A4B700122120970FF6D700122EF70BC
:0C3C0F0004FBFAF92209E970ED0A80EAD2
:102E7E008B0D8A0E890FE94A4B7009855E0D855FB1
:102E8E000E85600FE50F450E450D7002802C8510E6
:102E9E0016851117851218AB0DAA0EA90F12306ADE
:102EAE00EF250FF50FEE350EF50EAB0DFAA90F123D
:102EBE000970700AF55EF55FF560FBFAF922851070
:102ECE0016851117851218AB0DAA0EA90F1230CB4D
:102EDE008B5E8A5F8960EA494B600EE41209B60484
:102EEE002560F560E4355FF55FAB0DAA0EA90F22E4
:102583008B0D8A0E890FAB0DAA0EA90F120970FFCE
:10259300123D15500D7401250FF50FE4350EF50EA0
:1025A30080E4D212AB0DAA0EA90F120970FF642B9F
:1025B3006004EFB42D1BAB0D050FE50FAA0E7002DF
:1025C300050E14F9120970642D6003D38001C392C0
:1025D30012E4F510F511AB0DAA0EA90F120970FF45
:1025E300123DDC5036AB0DAA0EA90F120970FF3352
:1025F30095E0FEEF24D0FBEE34FFFAAE10AF117C72
:10260300007D0A1209EAEF2BF511EE3AF510740179
:10261300250FF50FE4350EF50E80BB301206AE1014
:0E262300AF118009C3E49511FFE49510FE226B
:100D4C00EF4E6012EF60010EEDBB010B89828A83BE
:100D5C00F0A3DFFCDEFA2289F05007F709DFFCA9CB
:0C0D6C00F022BBFEFCF309DFFCA9F02222
:102C6B00022D76E493A3F8E493A34003F68001F2DC
:102C7B0008DFF48029E493A3F85407240CC8C3336A
:102C8B00C4540F4420C8834004F456800146F6DF39
:102C9B00E4800B0102040810204080901A1FE47E90
:102CAB00019360BCA3FF543F30E509541FFEE4932E
:102CBB00A360010ECF54C025E060A840B8E493A3F5
:102CCB00FAE493A3F8E493A3C8C582C8CAC583CA20
:102CDB00F0A3C8C582C8CAC583CADFE9DEE780BED8
:011BC500001F
:0F3DDC00EFC394304007EF943A50028001C322A6
:103D1500EFC394094005EF940E4003BF2003D38001
:033D250001C322B5
:10306A008B138A148915E4F519F51AE4FEFFAB16D9
:10307A00AA17A9188F828E83120989FD6013AB13D0
:10308A00AA14A9151209706D60070FBF00010E80FE
:10309A00DDAB16AA17A9188F828E831209897002CE
:1030AA00801A051AE51A70020519AB130515E515FC
:1030BA0070020514F9AA1412097070AFAE19AF1A8A
:0130CA0022E3
:1030CB008B138A14891585161985171A85181BAB4E
:1030DB0019AA1AA91B120970FF6019AB13AA14A91C
:1030EB00151209706F600D7401251BF51BE4351A61
:1030FB00F51A80DBAB19AA1AA91B1209706007AB72
:10310B0013AA14A91522AB130515E515AA14700201
:0D311B00051414F912097070ADFBFAF922C9
:00000001FF
