:1030AC007F98123A4C123E2A123DB9123D597D07B7
:1030BC00E4FF124081E4F50C7F807E25FDFC122795
:1030CC00D3123529123476122FAA7F0112397C12B1
:1030DC003C5D1236F97F01123FA0750D01750E0192
:1030EC00750FABE4F510F5117B017A0179AB7D011D
:1030FC00FC123A7D7BFF7A3F79497F0A1231297B9A
:10310C00FF7A00790E7F031231297BFF7A2B792EFF
:0D311C007F071231291240BF1238C980FB15
:094078008B88898C88898F888966
:101BC5005200F18686008686008686008686008617
:091BD50086008686004100E60945
:03002B000240B3DD
:0640B30053BCEFD20F32F6
:021D8000154DFF
:101D8200200F03021F29C20F9000E5E0B4090040B2
:101D920003021F0B901D9DF8282873021DE4021DEB
:101DA200B8021DCA021DF6021DB8021DCA021E0D8E
:101DB200021DB8021DCAAFBDEFFEADBE7C00E42D10
:101DC200FFEC3E9000E7803CAFBDEFFEADBE7C0075
:101DD200E42DFFEC3E9000E9F0A3EFF0754501021F
:101DE2001F11AFBDEFFEADBE7C00E42DFFEC3E90B7
:101DF20000EB8010AFBDEFFEADBE7C00E42DFFEC2A
:101E02003E9000EDF0A3EFF0021F11AFBDEFFEAD6B
:101E1200BE7C00E42DFFEC3E9000EFF0A3EFF090CB
:101E220000EFE0FEA3E07807CEC313CE13D8F9A8E3
:101E32004DF6C394065013A84DE675F003A424F1A1
:101E4200F582E43400F583E014F09000E6E014F04B
:101E52006003021F117409F0A84DE4F6A84DE6FFD5
:101E6200C394064003021F11EF75F003A424F1F599
:101E720082E43400F583E0C39480502AE6FF75F0D3
:101E820003A424F2F582E43400F583E0D394804085
:101E920040EF75F003A424F3F582E43400F5837473
:101EA20001F0F546802BA84DE6FF75F003A424F25D
:101EB200F582E43400F583E0C394805014EF75F0AA
:101EC20003A424F3F582E43400F5837402F075462A
:101ED20001A84DE6FF75F003A424F1F582E4340075
:101EE200F583E0FEEF75F003A424F2F582E43400FA
:101EF200F583EEF0E675F003A424F1F582E43400F4
:101F0200F5837486F006021E5E9000E574FFF09081
:101F120000E5E0D39407400374FFF09000E5E0048D
:071F2200F090407893F5BC3C
:031F2900054D2241
:023FFC00154D61
:093FFE00A84DA646E4F546E6FFD5
:03400700054D2242
:02400A00154D52
:09400C00A84DA645E4F545E6FFC8
:03401500054D2234
:103A4C008F9D75BC88439720D2AD90004574FFF0D4
:103A5C00A3741DF0A37480F0A374FFF0A3743FF063
:103A6C00A374FCF0A374FFF0A37440F0A3740AF0E9
:013A7C002227
:070003007B017A0079E7227E
:1036B300C3EF64809480403BD3EF648094855033A0
:1036C300EFFD3395E0FC9000F375F003ED1210B8B5
:1036D300EC75F003A42583F583E0FE9000F375F009
:1036E30003ED1210B8EC75F003A42583F583E4F021
:0536F300AF06227F0379
:0136F80022AF
:043BE500154D154D18
:103BE90012408AA84DA60608A607A84DE6FE08E6D3
:0F3BF900FF4E600BEF24FFFFEE34FFFE124093F0
:053C0800054D054D22F1
:103D590053B1EF43B2101240CEE4F5D975DA49D226
:103D6900DE90003F74FFF0A3743BF0A374E5F022EA
:0831A6008E088F098C0A8D0BC5
:1031AE0012408AEF4E7066AF0BAE0A124093C3E523
:1031BE0009940AE5089400404BE47B18FAF9F8905C
:1031CE00003E12109C120FC2C006C007AE08AF0917
:1031DE00AB07AA06E4F9F8D007D006120FC2AB0768
:1031EE00AA06AFF9EFFEADE97C00E42DFFEC3ECF71
:1031FE002BCF3AAD07FCAF03AE02123F7FD2D843BE
:0F320E00DA0180061240CE53DAFE7F02227F03E0
:01321D00228E
:0C40340012408AEF4E7002FF227F012232
:10248700E4F580900176E0FFB40800505F90249B4C
:10249700F82828730224B30224B90224BF0224C5F2
:1024A7000224CB0224D50224DF0224E9C2A3C2A25C
:1024B7008016C2A3C2A2801AC2A3C2A2801EC2A350
:1024C700C2A28022C2A3D2A2C2A1C2A08020C2A35C
:1024D700D2A2C2A1D2A08016C2A3D2A2D2A1C2A068
:1024E700800CC2A3D2A2D2A1D2A08002D2A3C3EFF2
:1024F700648094885029900176E0FF3395E0FE745C
:102507006D2FF58274013EF583E0FF3395E0FE748D
:10251700072FF58274393EF583E493F580801E908A
:102527000176E0FFB408133395E0FE746D2FF58252
:1025370074013EF583E0F5808003E4F58090016C3B
:10254700E0FF900176E004FEF0D3EF6480F8EE64DC
:1025570080984014E0D36480948850047408F02273
:0925670090016BE0900176F02276
:103E2A00E4F5937594FF5395F043960F90002A7426
:0B3E3A00FFF0A37424F0A37487F022B3
:0940810090016BEFF0A3EDF022B9
:103D790090016DEFF0A3EDF0A3EBF0A3E50BF0A339
:103D8900E50CF0A3E50DF0A3E50EF0A3E50FF02295
:0640B900900175EFF022FA
:101BDE00014B004901839494009494009494004125
:031BEE0001821E53
:02205C00154D20
:10205E0020B206900183E014F020B306900186E0D2
:10206E0014F0209706900189E014F0900182E0149C
:10207E00F0600302217C741EF0A84DE4F6A84DE634
:10208E00FFC364809483400302217CEF3395E0FE0E
:10209E0090018375F003EF1210B8EE75F003A425CE
:1020AE0083F583E0C39480503990018475F003EF7B
:1020BE001210B8EE75F003A42583F583E0D3948057
:1020CE00405AE6FF3395E0FE90018575F003EF125E
:1020DE0010B8EE75F003A42583F5837401F0F54B6B
:1020EE00803AA84DE6FF3395E0FE90018475F0032B
:1020FE00EF1210B8EE75F003A42583F583E0C394B8
:10210E0080501990018575F003EF1210B8EE75F03E
:10211E0003A42583F5837402F0754B01A84DE6FFE9
:10212E00FD3395E0FC90018375F003ED1210B8ECD1
:10213E0075F003A42583F583E0FE90018475F0030A
:10214E00ED1210B8EC75F003A42583F583EEF0EFD5
:10215E003395E0FE90018375F003EF1210B8EE7523
:0E216E00F003A42583F5837494F00602208B01
:03217C00054D22EC
:02401800154D44
:09401A00A84DA64BE4F54BE6FFAE
:03402300054D2226
:103DB90090003074FFF0A37440F0A37418F09000E1
:0D3DC9002D74FFF0A37420F0A3745CF022B1
:10384A00EF600764016003BF0233EFFD3395E0FCCC
:10385A0090018575F003ED1210B8EC75F003A425FC
:10386A0083F583E0FE90018575F003ED1210B8EC44
:0F387A0075F003A42583F583E4F0AF06227F03E6
:01388900221C
:101BF1004100000A4100290A41006D0A0429000040
:101C01000000012F004600670000FFFF8FFFC10D9C
:101C1100C105C108C101C10E60240005FF000AFF12
:101C2100000AFF000AFF000AFF000AFF000AFF0086
:101C31000AFF000AFF000AFF000AFF000AFF000A6C
:101C41006036002AFF000AFF000AFF40CBFF000AAE
:101C5100FF40CBFF000AFF40CBFF000AFF000AFF55
:101C6100000AFF40CBFF40CBFF40CBFF40CBFF0042
:0A1C71000AFF000AFF000AFF000A44
:01000A0022D3
:0340CB007F002251
:10366C00438E805389F07BE07A28790178009000B2
:10367C003E12109C123782EFF404F58A7BE07A2814
:10368C007901780090003E12109C123782C3E49F9F
:10369C00FFE49EFE74019DFDE49CFC7808121075FD
:0736AC008F8CD28CD2A92201
:03000B000235D2E9
:0435D200C0E0C0D0C5
:1035D600D5230A75234C300D02052FD20DA2037296
:1035E6000450361525E5257030852725D207300A83
:1035F60017E52860071528438F01801D538FFEC2EB
:10360600B5D53115C20A80110526E526D3940640A4
:0936160008C203E52E6002D20691
:05361F00D0D0D0E03224
:10357F00300E47C20E90003E12109C78101210753C
:10358F008E088F09900003E0FEA3E0FFE4FCFD7BB3
:10359F0019FAF9F8120F37C006C007AE08AF09AB1A
:1035AF0007AA06E4F9F8D007D0061237827803127B
:1035BF001075900065EEF0A3EFF0900065E0FEA3AC
:0235CF00E0FF1B
:0135D10022D7
:09408A00900067E0FEA3E0FF22B4
:09409300900067EEF0A3EFF022AB
:103F7F0090006BEEF0A3EFF0900069ECF0A3EDF082
:013F8F00220F
:0340CE00C2B42257
:03003B000229E1B6
:1029E100C0E0C083C082C0D075D000C004C005C0A3
:0329F10006C00716
:1029F40030DF04C2DF807D30DA04C2DA807630D979
:102A04003DC2D9AFFBEFFEADEB7C00E42DFFEC3E05
:102A140020000E900001F0A3EFF075DB11D20080CE
:102A240053FE900001E0FCA3E0FDC3EF9DFFEE9C8C
:102A3400A3F0A3EFF075DB00C200D20E803630D8CD
:102A440033C2D8900067E07002A3E06022B2B49071
:102A54000069E0FEA3E0F5EAEEF5FAA3E0FEA3E0E8
:102A6400FF90006AE02FF0900069E03EF08005C21C
:042A7400B453DAFE7F
:102A7800D007D006D005D004D0D0D082D083D0E003
:012A8800321B
:0640BF0012366CD2AF22A4
:102E11003004047F0180027F00200A047E018002C9
:102E21007E00EE5F6074E530C39524506830023651
:102E3100752801E530131313541FAB32AA33A9349B
:102E4100F582758300120DE2FFE530540704FEEFB1
:102E5100A806088002C333D8FC30D705753103803A
:102E61002F753101802AAB32AA33A93475F002E5FE
:102E710030A4F58285F083120DE2F528E53075F076
:102E810002A429F9EA35F0FA900001120DE2F531B8
:0A2E91000530D20A22C204438F105C
:012E9B002214
:10239A00900000E014F0701F740AF0D20590002932
:1023AA00E014F07012740AF0D20890006DE014F094
:1023BA007005740AF0D20190002AA3E0FAA3E0F9AA
:1023CA001210C490002DA3E0FAA3E0F91210C490F1
:1023DA000039A3E0FAA3E0F91210C4900045A3E083
:1023EA00FAA3E0F91210C4900054A3E0FAA3E0F9AA
:1023FA001210C490005DA3E0FAA3E0F91210C49091
:10240A00004BA3E0FAA3E0F91210C4EF600C9000AD
:10241A001DA3E0FAA3E0F91210C490004EA3E0FA5B
:10242A00A3E0F91210C4EF600E900020A3E0FAA313
:10243A00E0F91210C4D20BE52DD394004016D52D25
:10244A003030090C900023A3E0FAA3E0F91210C47B
:10245A00D20C801D900051A3E0FAA3E0F91210C437
:10246A00EF600E900023A3E0FAA3E0F91210C4D2A1
:0D247A000C900005A3E0FAA3E0F90210C4E5
:102C620090003FA3E0FAA3E0F91210C4900042A33F
:102C7200E0FAA3E0F91210C4900033A3E0FAA3E053
:102C8200F91210C4900008A3E0FAA3E0F91210C4EC
:102C9200900030A3E0FAA3E0F91210C4EF600C90A8
:102CA2000011A3E0FAA3E0F91210C4900036A3E0E9
:102CB200FAA3E0F91210C4EF600C900017A3E0FA37
:102CC200A3E0F91210C4900048A3E0FAA3E0F912BD
:102CD20010C4EF600C90001AA3E0FAA3E0F91210FE
:102CE200C430060EC206900026A3E0FAA3E0F91251
:032CF20010C422E9
:10388A0090000BA3E0FAA3E0F91210C490003CA345
:10389A00E0FAA3E0F91210C4EF600C900014A3E060
:1038AA00FAA3E0F91210C4900057A3E0FAA3E0F9D2
:0F38BA001210C490005AA3E0FAA3E0F90210C460
:103B3C00AF2CAE2BAD2AAC299000601210AC9000CB
:103B4C0064E52FF0E4F52CF52BF52AF529F52F90EB
:0B3B5C00000EA3E0FAA3E0F90210C481
:1038C900300705C207122E11300D05C20D12239AB9
:1038D900300505C205122C62300805C20812388A63
:1038E900300105C201123B3CE52C2401F52CE435DD
:0E38F9002BF52BE4352AF52AE43529F5292292
:103129008B088A09890AEFB40C00507090313CF879
:1031390028287302316002316502316A02316F0257
:10314900317402317902317E0231830231880231D0
:103159008D023192023197900005803590000880E8
:103169003090000B802B90000E802690001180215A
:10317900900017801C900014801790001A801290FC
:10318900001D800D9000208008900023800390008E
:0D31990026E508F0A3E509F0A3E50AF02201
:0740A5007B017A0079602223
:102CF5008B1EAA077C007E037FE8120E5590017E8D
:102D0500EEF0A3EFF0E51FFD7C007E037FE8120ED9
:102D150055A3EEF0A3EFF0AF02AB07E4FAF9F89094
:102D2500017EE0FEA3E0FFE4FCFD120F37EF243245
:102D3500FFE43EFEE43DFDE43CFCE47B64FAF9F887
:102D4500123782900178EEF0A3EFF0AF1EAB07E4E7
:102D5500FAF9F8900180E0FEA3E0FFE4FCFD120F14
:102D650037EF2432FFE43EFEE43DFDE43CFCE47B2A
:102D750064FAF9F812378290017AEEF0A3EFF022A7
:1034D000E4F50BF50AF509F508F50CD291AF0BAE42
:1034E0000AAD09AC0878011210898F0B8E0A8D097C
:1034F0008C0800C291309015E4FAF9F8EF2401F538
:103500000BEA3EF50AE93DF509E83CF508050CE54E
:103510000CB418C700D2910000C291AF0BAE0AAD37
:0835200009AC087808121075CF
:013528002280
:09409C0090017CE0FEA3E0FF228C
:0F3F900090017CE0FEA3E0FFE490017CF0A3F041
:013F9F0022FF
:10257000900177E0700F309001221234D090017CEE
:10258000EEF0A3EFF0900177E0FF64017062053D8B
:10259000E53D7002053CFDD390017FE09D90017EFA
:1025A000E0953C5005E4F53CF53DD3900179E0958C
:1025B0003D900178E0953C4004D2908002C29005A5
:1025C0003FE53F7002053EFDD3900181E09D900103
:1025D00080E0953E5005E4F53EF53FD390017BE069
:1025E000953F90017AE0953E4004D2918002C291DD
:1025F000EF6402703E2090047F0180027F00E5407E
:1026000060047E0180027E00EE5F602130911090B8
:10261000017DE004F0701690017CE004F0800E90E3
:10262000017DE024FFF090017CE034FFF0A290E413
:1026300033F540900177E0B4031CE5417002D2917C
:10264000E541B40105C29175DB210541E541C39423
:06265000C84003E4F5415F
:012656002261
:10397C00900177EFF07004C2918002D291900177A0
:10398C00E0B40310E5A254CFF5A2E4F5D975DB0140
:10399C00D2DE8003E4F5DB90005D74FFF0A37425A8
:0639AC00F0A37470F0228C
:101C7B0055012F00000000000000000000000000D4
:081C8B00000001000000000050
:0300430002182E72
:10182E00C0E0C0F0C083C082C0D075D000C000C080
:10183E0001C002C003C004C005C006C007E59A304F
:10184E00E142539AFD900134E0FEA3E0FFC3900104
:10185E0033E09F900132E09E501F90012FE0FBA3DA
:10186E00E0FAA3E0F9A3E475F001120EF685F0821A
:10187E00F583120DE2F59B800B900136E4F0E548FE
:10188E006002C2B7E59A20E0030219E5539AFE30D2
:10189E000C0BC20C90013CE4F0A3F0D209E54864B5
:1018AE0002600302193F90013AE0FEA3E0FFA3E0BD
:1018BE00FCA3E0FDC39FEC9E5071900137E0FBA3AB
:1018CE00E0FAA3E0F98D828C83E59B120E21900144
:1018DE0042E0FEA3E0FFC3ED9FEC9E504090013A24
:1018EE00E0FCA3E0FDEF9DEE9C503290013FE0FB4B
:1018FE00A3E0FAA3E0F990013CE0FEA3E0FFF5823D
:10190E008E83120DE2FD900137E0FBA3E0FAA3E017
:10191E00F98F828E83120DE26D6002C20990013D35
:10192E00E004F0700690013CE004F085472D0219AA
:10193E00E590013AE0FEA3E0FFA3E0FCA3E0FDC3C7
:10194E009FEC9E5077900137E0FBA3E0FAA3E0F9FD
:10195E008D828C83E59B120E21900142E0FEA3E066
:10196E00FFC3ED9FEC9E504690013AE0FCA3E0FDD4
:10197E00EF9DEE9C503890013FE0FBA3E0FAA3E010
:10198E00F990013CE0FEA3E0FFF5828E83120DE29A
:10199E00FD900137E0FBA3E0FAA3E0F98F828E837E
:1019AE00120DE26D600890013C74FFF0A3F09001FF
:1019BE003DE004F0700690013CE004F090013AE046
:1019CE00FEA3E0FFC390013DE09F90013CE09E40EE
:1019DE000690013E7401F0D007D006D005D004D099
:1019EE0003D002D001D000D0D0D082D083D0F0D09E
:0219FE00E032D5
:023FC000154D9D
:0A3FC20090013EE0A84DF6FFE4F088
:033FCC00054D227E
:01004200229B
:1027D3008F0B8E0A8D098C08850C48E548700280A2
:1027E3000343BA01E548701790005D74FFF0A374CA
:1027F30000F0A37442F0E4F5DBD290D2918020C2C2
:10280300B7AB0BAA0AA909A808E47F407E9CFDFC8C
:10281300120FC28F47E547700375470185472D7532
:102823009A10E47B04FAF9F890003E12109C120F00
:10283300C2AB0BAA0AA909A808120FC2EFF404F548
:10284300D7E47B04FAF9F890003E12109C120FC2F1
:10285300AB0BAA0AA909A808120FC2C3E49FFFE49D
:102863009EFE74019DFDE49CFC78081210628FD6D5
:10287300438E1443AF0190005174FFF0A3743FF0F3
:05288300A374C0F02267
:103A7D00900137EBF0A3EAF0A3E9F0A3ECF0A3ED8E
:103A8D00F0900142E510F0A3E511F090013FE50D36
:103A9D00F0A3E50EF0A3E50FF0D20CE490013EF09B
:013AAD0022F6
:103ADF00900136E0702690012FEBF0A3EAF0A3E9F6
:103AEF00F0E4A3F0A3F0A3ECF0A3EDF0A37401F0C6
:0F3AFF00E5486002D2B7439A027F02227F03227A
:0B404C00900136E07002FF227F01228D
:1014530000EF00C500AF00A00096008E008700815A
:10146300007C007800740071006D006B00680065FB
:1014730000630061005F005D005B005A0058005686
:1014830000550054005200510050004E004D004CD6
:10149300004B004A0049004800470046004500440D
:1014A30000430043004200410040003F003F003E34
:1014B300003D003D003C003B003A003A0039003952
:1014C300003800370037003600360035003400346A
:1014D300003300330032003200310031003000307D
:1014E300002F002F002E002E002D002D002C002C8D
:1014F300002B002B002A002A00290029002900289C
:1015030000280027002700260026002600250025A6
:1015130000240024002400230023002200220022B0
:1015230000210021002000200020001F001F001FB9
:10153300001E001E001D001D001D001C001C001CC1
:10154300001B001B001B001A001A001A00190019C7
:1015530000180018001800170017001700160016CF
:1015630000160015001500150014001400140013D4
:1015730000130013001200120012001100110010DA
:1015830000100010000F000F000F000E000E000EE1
:10159300000D000D000D000C000C000C000B000BE7
:1015A300000B000A000A00090009000900080008EE
:1015B30000080007000700070006000600050005F5
:1015C3000004000400030003000300020002000102
:1015D3000001000100000000FFFFFFFFFFFFFFFE0F
:1015E300FFFEFFFDFFFDFFFCFFFCFFFBFFFBFFFA20
:1015F300FFFAFFF9FFF9FFF8FFF8FFF7FFF7FFF630
:10160300FFF6FFF5FFF5FFF4FFF3FFF3FFF2FFF241
:10161300FFF1FFF0FFF0FFEFFFEEFFEDFFEDFFEC5B
:10162300FFEBFFEAFFE9FFE8FFE7FFE6FFE5FFE483
:10163300FFE3FFE2FFE0FFDFFFDDFFDCFFDAFFD8C0
:0C164300FFD5FFD2FFCEFFC9FFC1016937
:071C93004401652828282800
:10341C00120003785B7C017D017E007F0A120DA3F4
:10342C0090015FE0FFA3E0900169CFF0A3EFF09073
:10343C000169E0FEA3E07802CEA2E713CE13D8F820
:10344C00F0EE900169F0A3E025E0FF900169E03314
:10345C00FE74532FF58274143EF583E493FF7401CC
:0A346C0093900159CFF0A3EFF02276
:102BCE00900159E0FEA3E0FFC3EE64809480503183
:102BDE00C3E49FFFE49EFE7C007D0A120EAA7C00D9
:102BEE007D0A120EAA8D0E750B0A750C0A750D0C48
:102BFE00900159E0FEA3E0FFC3E49FFFE49EFE8038
:102C0E0040900159E0FEA3E0FF7C007D64120EAA05
:102C1E007C007D0A120EAAAB05900159E0FEA3E0DE
:102C2E00FF7C007D0A120EAA7C007D0A120EAA8D70
:102C3E000E8B0D750B0A750C0A900159E0FEA3E080
:102C4E00FF7C007D0A120EAA8D0F7B0A7D0A7F0A79
:042C5E00123D792288
:041C9A004101AF0055
:102B2E007F051236B39000B2EFF07F021236B390EB
:102B3E0000B3EFF07F041236B39000B4EFF07F01D4
:102B4E001236B39000B5EFF09000B2E0B4010E90E3
:102B5E0001AFE004F0E0D394024002E4F09000B341
:102B6E00E0B4010F9001AFE014F0E0C39400500305
:102B7E007402F09000B4E0B4011FE538D394004025
:102B8E00181538780E7C007D007B007A0079367E31
:102B9E00007F06120DA312271D9000B5E0B4011F91
:102BAE00E538C3940F50180538780E7C007D007BF5
:0F2BBE00007A0079367E007F06120DA312271DC4
:012BCD0022E5
:103E77009001AFE014600A14600A24027009023846
:083E870009022BCE1237C622FE
:101C9E004A0107000003F1043607F50600C11043A0
:091CAE00010300000041010601E0
:102FAA0078087C007D007B017A0179117E007F0719
:102FBA00120DA312229C123F37900118EFF09001D4
:102FCA0090E0900106F0C21025E02407F582E4346F
:102FDA0001F583E0FCA3E0FDE4120C197466FBFA28
:102FEA00F97840120A6EC004C005C006C0079001F5
:102FFA0018E0FCE4120C1EA804A905AA06AB07D027
:10300A0007D006D005D004120B77120C52EF75F0D8
:10301A003C84900112F0EF75F03C84900111E5F0C8
:01302A00F0B5
:01302B002282
:10265700123F37900118EFF020105D900106E0C39C
:1026670094065054E0FF04F0EF25E02407F582E4D8
:102677003401F583E0FCA3E0FDE4120C197466FB5A
:10268700FAF97840120A6EC004C005C006C0079068
:102697000118E0FCE4120C1EA804A905AA06AB0762
:1026A700D007D006D005D004120B77120C52900039
:1026B700B2EEF0A3EFF08021201015900106E0C3E1
:1026C7009406400C9000B27404F0A374B0F0800933
:1026D7009000B2E4F0A37414F09000B2E0FAA3E023
:1026E700FB7C007D3CFFAE02120E55900112EFF00D
:1026F7007C007D3CAF03AE02120E55900111EDF048
:10270700780F7C007D007B017A0179117E007F07BD
:06271700120DA3023E5E5C
:102F2600900112E075F03CA4FFAEF0900111E07C38
:102F3600002FF509EC3EF5081240AC78117C017DB6
:102F4600017E007F07120DA3E50945087007B21040
:102F5600122657803EE509150970021508AE08AF1E
:102F6600097C007D3C120E55900112EFF0AE08AFC1
:102F7600097C007D3C120E55900111EDF0780F7C16
:102F8600007D007B017A0179117E007F07120DA377
:102F9600123E5E900103E508F0A3E509F0A210E4F5
:032FA60033A3F062
:012FA9002205
:103809001240AC78117C017D017E007F07120DA367
:10381900900112E0FF75F00A84F50BEF75F00A8448
:1038290085F00C750D0A900111E0FF75F00A84F519
:103839000EEF75F00A8485F00F7B0AE4FDFF023D67
:013849007905
:071CB7004401A7009632373B
:103F3700900190E024A7F582E43401F583E0FF7E49
:023F4700002256
:1037C600750B0A750C0A900190E0FF24A7F582E4B8
:1037D6003401F583E0FE75F06484F50DEE75F00AAC
:1037E6008475F00A8485F00E74A72FF582E43401FF
:1037F600F583E075F00A8485F00F7B0A7D0A7F0A5F
:03380600023D7907
:1000460000000000000000000000000000000000AA
:10005600000000000000000000000000000000009A
:10006600000000000000000000000000000000008A
:10007600000000000000000000000000000000007A
:10008600000000000000000000000000000000006A
:10009600000000000000000000000000000000005A
:1000A600000000000000000000000000000000004A
:1000B600000000000000000000000000000000003A
:1000C600000000000000000000000000000000002A
:1000D600000000000000000000000000000000001A
:1000E600000000000000000000000000000000000A
:1000F60000000000000000000000000000000000FA
:1001060000000000000000000000000000000000E9
:1001160000000000000000000000000000000000D9
:1001260000000000000000000000000000000000C9
:1001360000000000000000000000000000000000B9
:1001460000000000000000000000000000000000A9
:100156000000000000000000000000000000000099
:10016600000000000000000000000000C6BDD1F441
:10017600A3ACB5BDC1CBA1A3C7EBC7B0CDF9C0E851
:10018600CDD0C2B7B5C4B3CBBFCDD7BCB1B8CFC243
:10019600B3B5A1A3CFC2B3B5CAB1A3ACC7EBD7A2BF
:1001A600D2E2C1D0B3B5D3EBD5BECCA8D6AEBCE4B3
:1001B600B5C4BCE4CFB6A1A3000000000000000057
:1001C6000000000000000000000000000000000029
:1001D6000000000000000000000000000000000019
:1001E6000000000000000000000000000000000009
:1001F60000000000000000000000000000000000F9
:1002060000000000000000000000000000000000E8
:1002160000000000000000000000000000000000D8
:1002260000000000000000000000000000000000C8
:1002360000000000000000000000000000000000B8
:1002460000000000000000000000000000000000A8
:100256000000000000000000000000000000000098
:100266000000000000000000000000000000000088
:100276000000000000000000000000000000000078
:100286000000000000000000000000000000000068
:100296000000000000000000B3A4C9B3BBF0B3B572
:1002A600C4CFD5BEA3ACB5BDC1CBA1A3B1BED5BE8F
:1002B600CEAABBBBB3CBD5BEA3ACBFC9BBBBB3CB6E
:1002C60032BAC5CFDFA1A2B4C5B8A15332CFDFA1E0
:1002D600A3C7EBC7B0CDF9B8DFCCFAC4CFD5BEA162
:1002E600A2B4C5B8A15332CFDFA1A2C0E8CDD0B821
:1002F600DFCBD9C6FBB3B5D5BEB5C4B3CBBFCDD75F
:10030600BCB1B8CFC2B3B5A1A3CFC2B3B5CAB1A36E
:10031600ACC7EBD7A2D2E2C1D0B3B5D3EBD5BECC36
:10032600A8D6AEBCE4B5C4BCE4CFB6A1A300000019
:1003360000000000000000000000000000000000B7
:1003460000000000000000000000000000000000A7
:100356000000000000000000000000000000000097
:100366000000000000000000000000000000000087
:100376000000000000000000000000000000000077
:100386000000000000000000000000000000000067
:100396000000000000000000000000000000000057
:1003A6000000000000000000000000000000000047
:1003B6000000000000000000000000000000000037
:1003C60000000000B9E2B4EFA3A8BBE1D5B9D6D0CE
:1003D600D0C4A3A9A3ACB5BDC1CBA1A3B1BED5BEA4
:1003E600CEAABBBBB3CBD5BEA3ACBFC9BBBBB3CB3D
:1003F60032BAC5CFDFA1A3C7EBC7B0CDF9B3A4C945
:10040600B3B9FABCCABBE1D2E9D6D0D0C4A1A2B373
:10041600A4C9B3B9FABCCABBE1D5B9D6D0D0C4A178
:10042600A2B3A4C9B3B9FABCCABBE1D5B9D0C2B3A9
:10043600C7B5C4B3CBBFCDD7BCB1B8CFC2B3B5A1D6
:10044600A3CFC2B3B5CAB1A3ACC7EBD7A2D2E2C1A0
:10045600D0B3B5D3EBD5BECCA8D6AEBCE4B5C4BC40
:10046600E4CFB6A1A30000000000000000000000D9
:100476000000000000000000000000000000000076
:100486000000000000000000000000000000000066
:100496000000000000000000000000000000000056
:1004A6000000000000000000000000000000000046
:1004B6000000000000000000000000000000000036
:1004C6000000000000000000000000000000000026
:1004D6000000000000000000000000000000000016
:1004E6000000000000000000000000000000000006
:1004F600D6D5B5E3D5BEA3ACB6C5BCD2C6BAA3ACF9
:10050600B5BDC1CBA1A3C7EBC8ABCCE5B3CBBFCDC3
:10051600D0AFB4F8BAC3CBE6C9EDCEEFC6B7D7BCF9
:10052600B1B8CFC2B3B5A1A3CFC2B3B5CAB1A3AC5C
:10053600C7EBD7A2D2E2C1D0B3B5D3EBD5BECCA818
:10054600D6AEBCE4B5C4BCE4CFB6A1A3BBB6D3ADAE
:10055600C4FAD4D9B4CEB3CBD7F8B5D8CCFAC1D077
:10056600B3B5A3ACD4D9BCFBA3A100000000000026
:100576000000000000000000000000000000000075
:100586000000000000000000000000000000000065
:100596000000000000000000000000000000000055
:1005A6000000000000000000000000000000000045
:1005B6000000000000000000000000000000000035
:1005C6000000000000000000000000000000000025
:1005D6000000000000000000000000000000000015
:1005E6000000000000000000000000000000000005
:1005F60000000000000000000000000000000000F5
:1006060000000000000000000000000000000000E4
:10061600000000000000000000000000B3B5C3C5E4
:10062600BCB4BDABB9D8B1D5A3ACBDF7B7C0BCD0CF
:10063600C9CB000000000000000000000000000020
:1006460000000000000000000000000000000000A4
:100656000000000000000000000000000000000094
:100666000000000000000000000000000000000084
:100676000000000000000000000000000000000074
:100686000000000000000000000000000000000064
:100696000000000000000000000000000000000054
:1006A6000000000000000000000000000000000044
:1006B6000000000000000000000000000000000034
:1006C6000000000000000000000000000000000024
:1006D6000000000000000000000000000000000014
:1006E6000000000000000000000000000000000004
:1006F60000000000000000000000000000000000F4
:1007060000000000000000000000000000000000E3
:1007160000000000000000000000000000000000D3
:1007260000000000000000000000000000000000C3
:1007360000000000000000000000000000000000B3
:100746000000000000000000B1BEB4CEC1D0B3B5B9
:10075600BFAACDF9A3ACB6C5BCD2C6BAA1A3CFC2B7
:10076600D2BBD5BE3A9CBBCDE5D5F2A1A3D0E8BBA2
:10077600BBB3CB32BAC5CFDFB5C4B3CBBFCDC7EBA6
:10078600D4DA9CBBCDE5D5F2CFC2B3B500000000EC
:100796000000000000000000000000000000000053
:1007A6000000000000000000000000000000000043
:1007B6000000000000000000000000000000000033
:1007C6000000000000000000000000000000000023
:1007D6000000000000000000000000000000000013
:1007E6000000000000000000000000000000000003
:1007F60000000000000000000000000000000000F3
:1008060000000000000000000000000000000000E2
:10081600B1BEB4CEC1D0B3B5BFAACDF9A3ACB6C5EF
:10082600BCD2C6BAA1A3CFC2D2BBD5BEA3ACB3A419
:10083600C9B3BBF0B3B5C4CFD5BEA1A3B3B5C3C5C9
:10084600BFAAC6F4B7BDCFF2CEAAD7F3B2E0A1A332
:10085600B8F7CEBBB3CBBFCDC7EBD7A2D2E2A3AC22
:10086600D0E8BBBBB3CB32BAC5CFDFA1A2B4C5B803
:10087600A15332CFDFB5C4B3CBBFCDA3ACC7EBD446
:10088600DAB3A4C9B3BBF0B3B5C4CFD5BECFC2B338
:10089600B5A1A30000000000000000000000000059
:1008A6000000000000000000000000000000000042
:1008B6000000000000000000000000000000000032
:1008C6000000000000000000000000000000000022
:1008D6000000000000000000B1BEB4CEC1D0B3B528
:1008E600BFAACDF9A3ACB6C5BCD2C6BAA1A3CFC226
:1008F600D2BBD5BEA3ACB9E2B4EFA3A8BBE1D5B9D0
:10090600D6D0D0C4A3A9A1A3B3B5C3C5BFAAC6F404
:10091600B7BDCFF2CEAAD7F3B2E0A1A3B8F7CEBB4C
:10092600B3CBBFCDC7EBD7A2D2E2A3ACD0E8BBBB5B
:10093600B3CB32BAC5CFDFB5C4B3CBBFCDA3ACC73B
:10094600EBD4DAB9E2B4EFA3A8BBE1D5B9D6D0D0DF
:10095600C4A3A9CFC2B3B5A1A30000000000000044
:100966000000000000000000000000000000000081
:100976000000000000000000000000000000000071
:100986000000000000000000000000000000000061
:100996000000000000000000000000000000000051
:1009A600CFC2D2BBD5BEA3ACCAC7B1BEB4CEC1D02E
:1009B600B3B5D6D5B5E3D5BEA3ACB6C5BCD2C6BA1B
:1009C600A1A3B3B5C3C5BFAAC6F4B7BDCFF2CEAA1D
:1009D600D7F3B2E0A1A3C1D0B3B5D4CBD0D0CAB1BE
:1009E600A3ACC7EBD5BECEC8B7F6BAC3A3ACC7EBAC
:1009F600CEAAD3D0D0E8D2AAB5C4B3CBBFCDC8C394
:100A0600D7F9A3ACB6E0D0BBBACFD7F7A1A3000005
:100A160000000000000000000000000000000000D0
:100A260000000000000000000000000000000000C0
:100A360000000000000000000000000000000000B0
:100A460000000000000000000000000000000000A0
:100A56000000000000000000000000000000000090
:080A6600000000000000000088
:081CBE004101AB004101AC0043
:103F49009001ABE0B44105A37401F022E49001AC07
:023F5900F02254
:102E9C009001ACE064017003022F25900103E0FE69
:102EAC00A3E0FF9000B2EEF0A3EFF064144E70209C
:102EBC00900105E0701A900106E0FF7E007C017D18
:102ECC002C120E4374462FF974003EFA7BFF804699
:102EDC009000B2E07004A3E064057013900105E06B
:102EEC00B4010C7BFF7A0679227D647C00802790EC
:102EFC0000B2E07002A3E07020900105E0B401196B
:102F0C00900106E075F0C8A42486F9740635F0FA31
:092F1C007BFF7DC87C00123ADF46
:012F25002289
:04003E0000A8C00056
:101CC60044018C0000000044019100000000410125
:051CD6009001014C002B
:10000E00122F2612341C123F37123E77122E9C12DC
:05001E00329502164FAF
:103907003F065B4F666D7D077F6F000840014148AA
:10391700BF86DBCFE6EDFD87FFEF777C395E7971F8
:103927003D7606383F736D3E6E5F7C585E7B716FE8
:0C393700741038545C7367506D781C6E7F
:081CDB004101ADFF4101AE0023
:103F5B00EFC394004009EFD3946450037F01227F99
:023F6B00002232
:10347600E4F50F9001AE04F09001AD74FFF0E4F5B1
:103486000FAF0F123DD69000E4EFF0E0FFE50FFD21
:103496003395E0FC74652DF58274013CF583EFF0FD
:1034A600EFF46006123F5BEF7014AF0FEF3395E059
:1034B600FE74652FF58274013EF5837428F0050FBE
:0934C600C3E50F6480948440B852
:0134CF0022DA
:103B92009001AEE07003123476900190E0FF123D86
:103BA200D69000E3EFF0F46008E0FF123F5BEF70A5
:093BB200037F28229000E3E0FFEC
:013BBB0022E7
:103B67008F0E9001AEE07003123476AF0E123F5BFA
:103B7700EF70037FFF22900190E0FFAD0E123ED45D
:0B3B8700900190E09001ADF07F002263
:023943008F0DE6
:103945009001AEE07003123476AF0D123F5BEF705D
:10395500057EFF7FFF22123B929000E2EFF0B50D4E
:1039650004E4FEFF22AF0D123B67EF7005FE7F01F9
:0639750080047EFF7FFFCD
:01397B002229
:0640C5002C0042535000E4
:101CE3006020006E00000000000000000000000003
:101CF30000000000000000000000000000000000E1
:101D0300000000006020008E0000000000000000C2
:101D130000000000000000000000000000000000C0
:101D230000000000000000004100B1004300AE428B
:021D330053500B
:1039E8007B017A00796E7D0A123E0EAE02AF018F1E
:1039F800828E83EF4E6014E4F09000B17402F07B85
:103A0800017A00796E121A00023EBF9000B1740369
:013A1800F0BD
:013A1900228A
:103529007F007EC27D017C0012321E7E007F207DDD
:10353900007B017A00796E1211B37E007F207D0035
:103549007B017A00798E1211B37BFF7A3979E87F92
:1035590009123129750D01750E00750FAE75100030
:103569007511037B017A00796E7D207C00123AAED9
:06357900E49000B1F02215
:103EBF007E007F207D007B017A00796E1211B3E4C2
:053ECF009000B1F0229B
:0B4057009000B1E0B40303123EBF2252
:061A00008B088A09890A27
:101A0600E49000D2F0A3F0AE02AF01EF4E600712F1
:101A16003EE9EF4E7003021B5578B27C007D01ABA8
:101A260008AA09A90A1211967510FF7511407512B8
:101A3600C57B017A0079B2021B36E50C450B7003B3
:101A4600021B449000D2E0FEA3E0FFC39409EE64BB
:101A56008094804003021B44EE6003021B19EF14BE
:101A6600B408004003021B19901A7C75F003A4C544
:101A76008325F0C58373021A94021AA2021AB002D1
:101A86001ABE021ACC021ADA021AED021B04AA0BBB
:101A9600A90C7B011228889000D48044AA0BA90CBB
:101AA6007B011228889000D68036AA0BA90C7B01F0
:101AB6001228889000D88028AA0BA90C7B0112282E
:101AC600889000DA801AAA0BA90C7B01122888904C
:101AD60000DC800CAA0BA90C7B011228889000DE82
:101AE600EEF0A3EFF0802CAA0BA90C7B011228883C
:101AF6009000E0EFF0D394014019E4F08015AA0BB2
:101B0600A90C7B011228889000E1EFF0D3940140E4
:101B160002E4F09000D3E004F070069000D2E004F6
:101B2600F07510FF7511407512C57B007A007900BB
:101B360012302CAE02AF018E0B8F0C021A40C390EE
:101B460000D3E094099000D2E06480948050057E32
:101B5600FF7FFF22900190E0FE2465F582E43401C8
:101B6600F583E0FD9000D8E0FAA3E0FB6D7001EA92
:101B76006011AF0374652EF582E43401F583EFF04E
:101B86001239439000DAA3E0FF900190E0FE24A70B
:101B9600F582E43401F583EFF09000E0E0FF748C09
:101BA6002EF582E43401F583EFF09000E1E0FF7456
:0E1BB600912EF582E43401F583EFF0E4FEFF9A
:011BC40022FE
:10217F00F583E0FF7E009000B2E0FCA3E0248EF92F
:06218F0074003CFA7B0124
:062195008B088A09890A8B
:10219B00E49000B6F0A3F0A3EEF0A3EFF0E4900010
:1021AB00C4F0A3F0EF4E70177430120E0FAB08AAE9
:1021BB0009A90A900001E4120E217E007F0122D3AF
:1021CB009000B9E094009000B8E094004053900068
:1021DB00C5E0940A9000C4E0648094805043900062
:1021EB00B8E0FAA3E0FB7C007D0AFFAE02120E55AD
:1021FB00ED2430FF9000C4E475F001120EF6FC7470
:10220B00BA25F0F58274003CF583EFF07C007D0A73
:10221B00AF03AE02120E559000B8EEF0A3EFF080B4
:10222B009E9000C5E024FFFE9000C4E034FF9000B8
:10223B00B4F0A3CEF09000B4E0FEA3E0FFC3EE64D5
:10224B00809480403574BA2FF58274003EF583E09C
:10225B00FFAB08AA09A90A9000B6E475F001120EAB
:10226B00F685F082F583EF120E219000B5E024FF86
:10227B00F09000B4E034FFF080BBAB08AA09A90AC8
:10228B009000B6E0FEA3E0FFF5828E83E4120E21F0
:01229B002220
:10164F00E49000B2F0A3F012406DBF01037F0322BC
:10165F007E007F207D007B017A00798E1211B37896
:10166F008E7C007D017BFF7A4079C71211967B013A
:10167F007A00798E123EE99000B2EEF0A3EFF0906F
:10168F0000B2E475F001120EF6FE748E25F0F582AD
:10169F0074003EF583742CF090019012218190001C
:1016AF00B3E02FF09000B2E03EF0E475F001120EBF
:1016BF00F6FE748E25F0F58274003EF583742CF0DF
:1016CF00900159E0FEA3E0FF1221859000B3E02FB7
:1016DF00F09000B2E03EF0E475F001120EF6FE74E9
:1016EF008E25F0F58274003EF583742CF0900190F6
:1016FF00E02465F582E4340112217F9000B3E02FDE
:10170F00F09000B2E03EF0E475F001120EF6FE74B8
:10171F008E25F0F58274003EF583742CF0900190C5
:10172F00E024A7F582E4340112217F9000B3E02F6B
:10173F00F09000B2E03EF0E475F001120EF6FE7488
:10174F008E25F0F58274003EF583742CF090011213
:10175F001221819000B3E02FF09000B2E03EF0E450
:10176F0075F001120EF6FE748E25F0F58274003EB0
:10177F00F583742CF09001111221819000B3E02FAA
:10178F00F09000B2E03EF0E475F001120EF6FE7438
:10179F008E25F0F58274003EF583742CF090019045
:1017AF00E0248CF582E4340112217F9000B3E02F06
:1017BF00F09000B2E03EF0E475F001120EF6FE7408
:1017CF008E25F0F58274003EF583742CF090019015
:1017DF00E02491F582E4340112217F9000B3E02FD1
:1017EF00F09000B2E03EF0E475F001120EF6FE74D8
:1017FF008E25F0F58274003EF583740AF0C39000D5
:10180F00B3E094209000B2E06480948040037F03A3
:0E181F00227B017A00798E7D207C00123C3500
:01182D002298
:031D350001350075
:1036F900123D59E535703D75360375379675380AAB
:10370900753901753A01F53B78087C00FDFB7A00B3
:103719007936FE7F06120DA3123C84780E7C007D5B
:10372900007B007A0079367E007F06120DA31227EE
:053739001D75350122A1
:1039B200900190E02465F582E43401F583E0FFD3C1
:1039C20090015AE09F7480F8900159E06480984019
:1039D2000B751F0AE4FB7D0A7F328006E4F51FFBAC
:0639E200FDFF122CF5228E
:041D3800024900005C
:103C5D007F0312397C123E8F7DC87C007FE87E0386
:103C6D001231A6900190E0248CF582E43401F583A5
:073C7D00E4F0F549F54A22CD
:0E3FCF0012357FC3EE940440057E047F00226D
:013FDD0022C1
:10329500123FCF8E498F4AC3E54A940AE549940007
:1032A500505AE54A7004E54964046050900190E085
:1032B500248CF582E43401F583E07015900105E076
:1032C500B4010E123CF17DF47C017F207E031231A6
:1032D500A6900190E0248CF582E43401F583E0B4F6
:1032E500011A900103E07004A3E06401700E123D21
:0D32F500147DF47C017F587E021231A62268
:103CF1007F01123A1AEF701A900190E0248CF5823C
:103D0100E43401F5837401F07BC87A007D64FF120D
:033D11002936222E
:103D14007F01123A1AEF701A900190E0248CF58218
:103D2400E43401F583E4F07B387AFF7D647F01128B
:033D34002936220B
:050026007F01023624F9
:0E4026007F01123A1AEF70037F01227F002201
:0B4062007F10123F6D900190EFF022E4
:103FA0008F08AD087F10123BBC900190E508F0220D
:101D3C0055011A0000000000000000000000000027
:0C1D4C0000000000000000004101190030
:0211DF00154DAC
:1011E100A84DE4F6A84DE6FFC36480948340030252
:1011F1001450EF3395E0FE90011A75F007EF1210CD
:10120100B8EE75F007A42583F583E0FCA3E04C70EC
:101211000302144A90011C75F007EF1210B8EE7525
:10122100F007A42583F583E0FEA3E04E70030214CA
:101231004AE6FFFD3395E0FC90011E75F007ED12C3
:1012410010B8EC75F007A42583F58374FFF5F0124F
:101251000EE045F0600302144A90011C75F007EDA1
:101261001210B8EC75F007A42583F583E0FAA3E02A
:10127100FB90011E75F007ED1210B8EC75F007A494
:101281002583F583EAF0A3EBF0EF3395E0FE9001BF
:101291001A75F007EF1210B8EE75F007A42583F563
:1012A10083E0FCA3E0D39400EC648094804056A8D2
:1012B1004DE6FD3395E0FC90011A75F007ED121033
:1012C100B8EC75F007A42583F58374FFF5F0120ED1
:1012D100E090012075F007ED1210B8EC75F007A44D
:1012E1002583F583E004F0D36480948340729001F8
:1012F1002075F007EF1210B8EE75F007A42583F5FD
:1013010083E4F0805BA84DE6FFFD3395E0FC90019E
:101311001A75F007ED1210B8EC75F007A42583F5E6
:1013210083E475F001120EE090012075F007ED12D3
:1013310010B8EC75F007A42583F583E014F0C364BD
:10134100809480501BEF3395E0FE90012075F007EB
:10135100EF1210B8EE75F007A42583F5837403F03E
:10136100A84DE6FFFD3395E0FC90012075F007EDF7
:101371001210B8EC75F007A42583F583E014603CE6
:1013810014606614700302141724036003021442EC
:10139100EF14601014601924026003021442D2C1D8
:1013A100C2C28029900119E054F04401F0021442B4
:1013B100900119E0540F4410F0021442A84DE614B4
:1013C100601114601924027078C2C1D2C2C2C3C2B2
:1013D100C4806E900119E054F04402F080639001E2
:1013E10019E0540F4420F08058A84DE61460111400
:1013F10060192402704BC2C1C2C2D2C3C2C48041AF
:10140100900119E054F04404F08036900119E05441
:101411000F4440F0802BA84DE6146011146019248C
:1014210002701EC2C1C2C2C2C3D2C48014900119CB
:10143100E054F04408F08009900119E0540F448011
:0F144100F0900119E0FF1240B9A84D060211E525
:03145000054D2225
:103E8F0053B3E143B41E53C0E190005474FFF0A349
:083E9F007411F0A374DFF0229E
:102936008F08EF3395E0FE90011A75F007EF12103D
:10294600B8EE75F007A42583F583E0FEA3E04E609C
:10295600030229DEE508600A64016006E5086402F0
:102966007076ED60737C007E037FE8120E55AD082D
:10297600ED3395E0FC90011C75F007ED1210B8ECF4
:1029860075F007A42583F583EEF0A3EFF090011C04
:1029960075F007ED1210B8EC75F007A42583F583E2
:1029A600E0FEA3E0FF90011E75F007ED1210B8ECF3
:1029B60075F007A42583F583EEF0A3EFF090011AD6
:1029C60075F007ED1210B8EC75F007A42583F583B2
:0B29D600EAF0A3EBF07F02227F032257
:10362400EF600764016003BF023AEFFD3395E0FCED
:1036340090011A75F007ED1210B8EC75F007A42587
:1036440083F583E0FAA3E0FB90011A75F007ED120D
:1036540010B8EC75F007A42583F583E4F0A3F0AE6D
:0736640002AF0322E4FEFFA8
:01366B00223C
:103A1A00EF600764016003BF0225EF3395E0FE9073
:103A2A00011A75F007EF1210B8EE75F007A4258396
:103A3A00F583E0FEA3E04E60037F01227F00227F30
:023A4A00032255
:041D580041019D01A7
:103E4500C295E4FEEF1392CC000000D29500EFC3BB
:083E550013FFC2950EBE08EC3C
:013E5D002242
:103EA700E4FEEFC313FF30CC03430780D295000035
:073EB70000C2950EBE08EBEE
:013EBE0022E1
:103B0E00F07F85123B21A3EFF07F87123B21A3EFBD
:033B1E00F07F89AC
:103B2100C296000000C295000000D29600123E45E8
:0A3B3100123EA7D295000000C296D4
:013B3B002267
:033D9900A3E0FDA7
:103D9C00C296000000C295000000D29600123E456B
:0D3DAC00AF05123E45D295000000C29622E0
:0740AC007B017A01799622E5
:103E5E0078967C017D017B007A00790F7E007F07CA
:093E6E00120DA3E490019DF02265
:103F6D00EFD3941F5009EF25E044C1FF023B217FA1
:023F7D0001221F
:103BBC00AC07AB05ECD3941F501CE4FD7F8E123D7B
:103BCC009CEC25E044C0FFAD03123D9C7D807F8EB4
:093BDC00123D9C7F00227F0122B2
:022A8900154DE9
:102A8B0090019DE060447F81123B21A84DEFF690B1
:102A9B000196E06F7003022B2BA84DE6F07F83129B
:102AAB003B21A84DEFF6A3E06F6075A84DE6123BF6
:102ABB000EA3EFF07F8D123B2190019CEFF07F8BEB
:102ACB00123B2190019BEFF08056900195E0FF04A3
:102ADB00F0EFC3940A4049E4F090019D04F0E4FD4B
:102AEB007F8E123D9C900196E0FD7F80123D9C7F76
:102AFB0082123D997F84123D99A3E0FD7F86123DA2
:102B0B009CA3E0FD7F88123D9CA3E0FD7F8A123DD4
:102B1B009CA3E0FD7F8C123D9C7D807F8E123D9CA3
:032B2B00054D2233
:10229C007F81123B21900196EFF07F83123B21A3AB
:1022AC00EF123B0EA3EFF07F8B123B21A3EFF07FDD
:1022BC008D123B21A3EFF0E4FD7F8E123D9C7F1E1F
:1022CC00123F6DEF64A560047F0180027F009001D6
:1022DC0096E05480FEA3E0D3945940047D01800223
:1022EC007D00ED4EFE900198E0D394A440047D0156
:1022FC0080027D00ED4EFE900199E0D394314004B4
:10230C007D0180027D00ED4EFE90019AE0D3941287
:10231C0040047D0180027D00ED4EFE90019BE0D3D8
:10232C00940740047D0180027D00ED4EFE90019CDF
:10233C00E0D3949940047D0180027D00ED4E4F6006
:10234C0030780F7C007D007B007A0079087E007F5E
:10235C0007120DA3123E5E7DA57F1E123BBC789624
:10236C007C017D017B007A0079087E007F07120DCD
:10237C00A37DA97F90123D9C7D807F8E123D9C9009
:0E238C00005A74FFF0A3742AF0A37489F022A3
:103FB000D2C0000000D2CD000000C2C0000000222C
:0D002E00C2C0000000D2CD000000D2C022F0
:0B3CA900123CCD123CB4AF05123CCD24
:103CB400E4FFD2CD30C009EFC394FF50030F80F46A
:083CC400000000C2CD00000069
:013CCC0022D5
:103CCD00E4FEEF25E0FFC2CD00000092C000000031
:103CDD00D2CD0000000EBE08E9C2CD000000D2C05A
:033CED00000000D4
:013CF00022B1
:103D3700C2CD000000D2C000E4FED2CD0000EF25C6
:103D4700E0FDA2C0E4334DFF0000C2CD000EBE0867
:013D5700E982
:013D58002248
:103ED400AC07123FB07FA0123CCD123CB4AF041229
:053EE4003CA902002EC4
:023DD600AD0737
:103DD800123FB07FA0123CA9123FB07FA1123CCD88
:093DE800123CB4123D3712002E0A
:013DF10022AF
:0B1D5C0048019ED4111A50400288A5D7
:093EFE007F03123F07D2C57F03C8
:0A3F0700AE071FEE60030080F722F2
:103F1100D2A7123EFEC2A77F03123F07C2C57F038D
:033F2100023F0755
:0C404000C2A7123EFED2A77F03023F077A
:103DF200E4FFD2C530A709EFC394FA50030F80F451
:0C3E02007F03123F07C2C57F03023F0789
:023C0D00AD0701
:103C0F00E4FBC2C57F03123F07ED3392A7ED25E01A
:103C1F00FD123EFE0BBB08EAC2C57F03123F07D25F
:063C2F00C57F03023F0700
:02373E00154D27
:103740009001A6E064017037123F117F20123C0DFA
:10375000123DF2A84DE4F6A84DE6FFC394085017B9
:10376000749E2FF582E43401F583E0FF123C0D12C4
:0F3770003DF2A84D0680E0124040E49001A6F023
:03377F00054D22D3
:1033C0009001A0E025E025E0FFA3E0C4131354031F
:1033D0002F2466F515E43403F5149001A5E0540F8D
:1033E000F5169001A3E0543FFF5403FEBE0305759C
:1033F00017FF8003E4F517EF540CFEBE0C0575189B
:10340000FF8003E4F518EF5430FFBF30057519FF56
:0B3410008003E4F5197B007A007914BA
:01341B00228E
:10271D00D3E50F9438E50E940450047F0180027FB9
:10272D0000C3E50F9466E50E940340047E0180021C
:10273D007E00EE5F60301233C0120F0C650F700417
:10274D00E5F0650E6020E50F249AFD1313543F90BC
:10275D0001A0F0ED5403FFC4333354C04410A3F073
:10276D009001A67401F01233C0E92402F9E43AFA9B
:10277D00120DC9651060047F0180027F00E510D342
:10278D00940F50047E0180027E00EE5F6011E51013
:10279D00540FFF9001A5E054F04FF0A37401F07DAC
:1027AD002AE5116003430501E5126003430504E5C5
:1027BD001360034305109001A3E06D6008EDF090E8
:0527CD0001A67401F0FB
:0127D20022E4
:103C8400780E7C007D007B007A0079087E007F0638
:103C9400120DA312271D90005774FFF0A37437F080
:053CA400A3743EF022B4
:101D670055014400000000000000000000000000D2
:081D7700000001000000000063
:03002300021F2C8D
:101F2C00C0E0C0F0C083C082C0D075D000C000C07B
:101F3C0001C002C003C004C005C006C00730993BF5
:101F4C00C299900149E0FEA3E0FFC3900148E09FD5
:101F5C00900147E09E501F900144E0FBA3E0FAA3E0
:101F6C00E0F9A3E475F001120EF685F082F5831208
:101F7C000DE2F599800590014BE4F02098030220C6
:101F8C0041C298300B09C20B900151E4F0A3F090C0
:101F9C00014FE0FEA3E0FFA3E0FCA3E0FDC39FEC38
:101FAC009E507790014CE0FBA3E0FAA3E0F98D8200
:101FBC008C83E599120E21900157E0FEA3E0FFC33C
:101FCC00ED9FEC9E504690014FE0FCA3E0FDEF9D91
:101FDC00EE9C5038900154E0FBA3E0FAA3E0F9909A
:101FEC000151E0FEA3E0FFF5828E83120DE2FD901D
:101FFC00014CE0FBA3E0FAA3E0F98F828E83120D73
:10200C00E26D600890015174FFF0A3F0900152E072
:10201C0004F07006900151E004F090014FE0FEA333
:10202C00E0FFC3900152E09F900151E09E4006906A
:10203C0001537401F0D007D006D005D004D003D0E2
:10204C0002D001D000D0D0D082D083D0F0D0E032FA
:023FDE00154D7F
:0A3FE000900153E0A84DF6FFE4F055
:033FEA00054D2260
:10321E008F0B8E0A8D098C08759850438E40538EF5
:10322E00FE53890FE47B04FAF9F890003E12109CCD
:10323E00120FC2AB0BAA0AA909A808120FC2EFF40B
:10324E0004F58BE47B04FAF9F890003E12109C1200
:10325E000FC2AB0BAA0AA909A808120FC2C3E49F9A
:10326E00FFE49EFE74019DFDE49CFC780812106242
:10327E008F8DC2ABD28ED2AC90004E74FFF0A37481
:07328E003FF0A374DEF02203
:103AAE0090014CEBF0A3EAF0A3E9F0A3ECF0A3ED48
:103ABE00F0900157E510F0A3E511F0900154E50DDB
:103ACE00F0A3E50EF0A3E50FF0D20BE4900153F056
:013ADE0022C5
:103C350090014BE0701F900144EBF0A3EAF0A3E97B
:103C4500F0E4A3F0A3F0A3ECF0A3EDF0A37401F06E
:083C5500D2997F02227F0322B5
:0B406D0090014BE07002FF227F012257
:100A6E00EC4D6011E8497017ED33EC3304600DE482
:100A7E00FCFFFEFD22E933E8330470F8020CBE12CF
:100A8E000C8958046009E4CC2481500628500902D0
:100A9E000CC8284003020CC5C0E0EB4A7044B98074
:100AAE0006D0E0FB020CB4EF4E701CBD8008EBFFCD
:100ABE00EAFEE9FD80EBE98DF0A4FEE5F0020B57AE
:100ACE00E9CDF9EAFEEBFFEF89F0A4FCE5F0CE8963
:100ADE00F0A42EFFE435F0CD89F0A42DFEE435F020
:100AEE008067EF4E7005BD80D780C3EF8BF0A4AC4E
:100AFE00F0EE8BF0A42CFCE435F0F8EF8AF0A42C89
:100B0E00E5F038FCE433CB8DF0A42CFCE5F03BF89B
:100B1E00EE8AF0A42CFCE5F038F8E433CF89F0A48B
:100B2E002CFCE5F038CF3400CE89F0A42FFFE5F091
:100B3E003EFEE433C98DF0A42EFEE5F039CD8AF0E9
:100B4E00A42FFFE5F03EFEE43DFD33D0E0FB500761
:100B5E000BBB000F020CC8EC2CFCEF33FFEE33FE88
:060B6E00ED33FD020CA0B6
:100B7400020CC8EC5D046005E859047003020CBE65
:100B8400120C89580460F6EC4860F2EC7004FDFE27
:100B9400FF22C860DB2481C85009C3986002500654
:100BA400020CC59850CAF582E9294B4A7005AB82FC
:100BB400020CB475F0007C1A7880C3EF9BEE9AEDBA
:100BC40099400DC3EF9BFFEE9AFEED99FDE842F0CC
:100BD400DC23ACF0D0E0FFD0E0FED0E0FDAB82201F
:100BE400E7101BEB60BAEC2CFCEF33FFEE33FEEDA9
:100BF40033FD020CA0E803F830E705C0F075F000FF
:100C0400EF2FFFEE33FEED33FD40B830E7C280AA8C
:100C140075F020800E75F010800575F0087D007E5B
:100C2400007F003392D530D503121054EC334010BA
:100C3400EF33FFEE33FEED33FDEC33FCD5F0ED2264
:0E0C4400E5F0247EA2D513CC92E7CDCEFF22A0
:100C5200EDD2E7CD33EC3392D524814006E4FFFE9A
:100C6200FDFC22FCE4CFCECDCC24E0501174FF80F9
:100C7200EDC3CC13CCCD13CDCE13CECF13CF047096
:070C8200F030D5DE02105432
:100C8900E9D2E7C933E833F892D5EDD2E7CD33ECB1
:070C990033FC5002B2D5222A
:100CA000EC30E7100FBF000C0EBE00080DBD0004B5
:100CB0000BEB6014A2D5EB13FCED92E7FD2274FF61
:100CC000FCFDFEFF22E480F8A2D574FF13FC7D80BA
:030CD000E480EFCE
:03000000022D8549
:0C2D8500787FE4F6D8FD75814D022DCC5E
:100CD300E709F608DFFA8046E709F208DFFA803E03
:100CE30088828C83E709F0A3DFFA8032E309F608F0
:100CF300DFFA8078E309F208DFFA807088828C8358
:100D0300E309F0A3DFFA806489828A83E0A3F6080B
:100D1300DFFA805889828A83E0A3F208DFFA804CE5
:100D230080D280FA80C680D4806980F280338010BC
:100D330080A680EA809A80A880DA80E280CA803325
:100D430089828A83ECFAE493A3C8C582C8CCC5839D
:100D5300CCF0A3C8C582C8CCC583CCDFE9DEE7806D
:100D63000D89828A83E493A3F608DFF9ECFAA9F0EC
:100D7300EDFB2289828A83ECFAE0A3C8C582C8CC42
:100D8300C583CCF0A3C8C582C8CCC583CCDFEADE5B
:100D9300E880DB89828A83E493A3F208DFF980CCBD
:100DA30088F0EF60010E4E60C388F0ED2402B404B6
:100DB3000050B9F582EB2402B4040050AF2323455D
:060DC3008223900D237352
:100DC900BB010689828A83E0225002E722BBFE0228
:090DD900E32289828A83E493225B
:100DE200BB010CE58229F582E5833AF583E02250C6
:100DF20006E92582F8E622BBFE06E92582F8E22210
:0D0E0200E58229F582E5833AF583E4932229
:100E0F00BB010689828A83F0225002F722BBFE01C2
:020E1F00F322BC
:100E2100F8BB010DE58229F582E5833AF583E8F007
:100E3100225006E92582C8F622BBFE05E92582C8B3
:020E4100F2229B
:100E4300EF8DF0A4A8F0CF8CF0A428CE8DF0A42EC3
:020E5300FE227D
:100E5500BC000BBE0029EF8DF084FFADF022E4CC81
:100E6500F875F008EF2FFFEE33FEEC33FCEE9DEC4A
:100E7500984005FCEE9DFE0FD5F0E9E4CEFD22ED90
:100E8500F8F5F0EE8420D21CFEADF075F008EF2FDA
:100E9500FFED33FD4007985006D5F0F222C398FDCB
:050EA5000FD5F0EA2268
:100EAA00C2D5EC30E709B2D5E4C39DFDE49CFCEE63
:100EBA0030E715B2D5E4C39FFFE49EFE120E55C378
:100ECA00E49DFDE49CFC8003120E5530D507C3E473
:060EDA009FFFE49EFE22D2
:100EE000C5F0F8A3E028F0C5F0F8E582158270029D
:060EF0001583E038F0223A
:100EF600A3F8E0C5F025F0F0E582158270021583AF
:060F0600E0C838F0E8220B
:100F0C00BB010A89828A83E0F5F0A3E022500687B0
:100F1C00F009E71922BBFE07E3F5F009E319228972
:0B0F2C00828A83E493F5F074019322A5
:100F3700E88FF0A4CC8BF0A42CFCE98EF0A42CFC59
:100F47008AF0EDA42CFCEA8EF0A4CDA8F08BF0A4D7
:100F57002DCC3825F0FDE98FF0A42CCD35F0FCEB36
:100F67008EF0A4FEA9F0EB8FF0A4CFC5F02ECD39FB
:0F0F7700FEE43CFCEAA42DCE35F0FDE43CFC2268
:100F860075F008758200EF2FFFEE33FECD33CDCC22
:100F960033CCC58233C5829BED9AEC99E5829840A5
:100FA6000CF582EE9BFEED9AFDEC99FC0FD5F0D682
:100FB600E4CEFBE4CDFAE4CCF9A88222B800C1B9AC
:100FC6000059BA002DEC8BF084CFCECDFCE5F0CBEA
:100FD600F97818EF2FFFEE33FEED33FDEC33FCEB23
:100FE60033FB10D703994004EB99FB0FD8E5E4F9DE
:100FF600FA227818EF2FFFEE33FEED33FDEC33FCCB
:10100600C933C910D7059BE99A4007EC9BFCE99ABE
:10101600F90FD8E0E4C9FAE4CCFB2275F010EF2F03
:10102600FFEE33FEED33FDCC33CCC833C810D70703
:101036009BEC9AE899400AED9BFDEC9AFCE899F83E
:0E1046000FD5F0DAE4CDFBE4CCFAE4C8F922D1
:10378200C2D5E830E70FB2D5E4C39BFBE49AFAE472
:1037920099F9E498F8EC30E717B2D51237B8120F5E
:1037A200C2E4C39BFBE49AFAE499F9E498F8800333
:1037B200120FC230D50DE4C39FFFE49EFEE49DFDCF
:0437C200E49CFC2265
:0E105400C3E49FFFE49EFEE49DFDE49CFC22AD
:10106200E8600FECC313FCED13FDEE13FEEF13FF6C
:03107200D8F12290
:10107500E86010ECA2E713FCED13FDEE13FEEF1391
:04108500FFD8F0227E
:10108900E8600FEFC333FFEE33FEED33FDEC33FCC5
:03109900D8F12269
:10109C00E493FC740193FD740293FE740393FF229A
:0C10AC00ECF0A3EDF0A3EEF0A3EFF022B7
:0C10B800A42582F582E5F03583F5832243
:0610C4008A838982E473B7
:1010CA00E709F60870FA8046E709F20870FA803EE6
:1010DA0088828C83E709F0A370FA807EE309F60818
:1010EA0070FA8076E309F20870FA806E88828C833F
:1010FA00E309F0A370FA806289828A83E0A3F60882
:10110A0070FA805689828A83E0A3F20870FA804ACC
:10111A0080D280FA80C680D4806580F280318010C7
:10112A0080A680EA809A80A880DA80E280CA80312C
:10113A0089828A83ECFAE493A3C8C582C8CCC583A2
:10114A00CCF0A3C8C582C8CCC583CC70E9800D8910
:10115A00828A83E493A3F60870F9ECFAA9F0EDFB0E
:10116A002289828A83ECFAE0A3C8C582C8CCC583E7
:10117A00CCF0A3C8C582C8CCC583CC70EA80DD890F
:10118A00828A83E493A3F20870F980CE88F0ED2472
:10119A0002B4040050C4F582EB2402B4040050BA2D
:0911AA00232345822390111A73DE
:103EE900E4FFFE120DC9600C0FEF70010E09E970B5
:053EF900F20A80EF2237
:103E0E00E94A4B700122120DC9FF6D700122EF704D
:0C3E1E0004FBFAF92209E970ED0A80EAC1
:10302C008B0D8A0E890FE94A4B700985420D854339
:10303C000E85440FE50F450E450D7002802C851052
:10304C0016851117851218AB0DAA0EA90F12330293
:10305C00EF250FF50FEE350EF50EAB0DFAA90F128D
:10306C000DC9700AF542F543F544FBFAF9228510B7
:10307C0016851117851218AB0DAA0EA90F12336302
:10308C008B428A438944EA494B600EE4120E0F04CA
:10309C002544F544E43543F543AB0DAA0EA90F22A4
:102888008B0D8A0E890FAB0DAA0EA90F120DC9FF69
:10289800123F24500D7401250FF50FE4350EF50E87
:1028A80080E4D211AB0DAA0EA90F120DC9FF642B3B
:1028B8006004EFB42D1BAB0D050FE50FAA0E7002D7
:1028C800050E14F9120DC9642D6003D38001C3925B
:1028D80011E4F510F511AB0DAA0EA90F120DC9FFE1
:1028E800123FED5036AB0DAA0EA90F120DC9FF33DA
:1028F80095E0FEEF24D0FBEE34FFFAAE10AF117C6A
:10290800007D0A120E43EF2BF511EE3AF510740113
:10291800250FF50FE4350EF50E80BB301106AE100D
:0E292800AF118009C3E49511FFE49510FE2263
:1011B300EF4E6012EF60010EEDBB010B89828A8353
:1011C300F0A3DFFCDEFA2289F05007F709DFFCA960
:0C11D300F022BBFEFCF309DFFCA9F022B7
:102D91000230ACE493A3F8E493A34003F68001F27C
:102DA10008DFF48029E493A3F85407240CC8C33343
:102DB100C4540F4420C8834004F456800146F6DF12
:102DC100E4800B0102040810204080901BC5E47EC2
:102DD100019360BCA3FF543F30E509541FFEE49307
:102DE100A360010ECF54C025E060A840B8E493A3CE
:102DF100FAE493A3F8E493A3C8C582C8CAC583CAF9
:102E0100F0A3C8C582C8CAC583CADFE9DEE780BEB0
:011D7F000063
:0F3FED00EFC394304007EF943A50028001C32293
:103F2400EFC394094005EF940E4003BF2003D380F0
:033F340001C322A4
:103302008B138A148915E4F519F51AE4FEFFAB163E
:10331200AA17A9188F828E83120DE2FD6013AB13D8
:10332200AA14A915120DC96D60070FBF00010E8006
:10333200DDAB16AA17A9188F828E83120DE27002D6
:10334200801A051AE51A70020519AB130515E51561
:1033520070020514F9AA14120DC970AFAE19AF1A92
:013362002248
:103363008B138A14891585161985171A85181BABB3
:1033730019AA1AA91B120DC9FF6019AB13AA14A924
:1033830015120DC96F600D7401251BF51BE4351A69
:10339300F51A80DBAB19AA1AA91B120DC96007AB7A
:1033A30013AA14A91522AB130515E515AA14700267
:0D33B300051414F9120DC970ADFBFAF922D2
:00000001FF
