:102800007F98122DDF1230F81230861230267D07A5
:10281000E4FF1232C7E4F50C7F807E25FDFC122018
:10282000AE1229E67F01122D77750D01750E017527
:102830000F9DE4F510F5117B017A01799D7D01FC76
:10284000122E107BFF7A31799F7F031226187BFFAF
:102850007A3179C67F0A1226187BFF7A2C793F7F5E
:102860000712261812330EE4FF123308122CFD1241
:04287000000080F8EC
:0932BE008B88898C88898F88892E
:10154D005201138686008686008686008686008672
:09155D00860086860041010809A0
:03002B000233029B
:0633020053BCEFD20F32B4
:0213A100154EE7
:1013A300200F0302154AC20F900107E0B409004061
:1013B3000302152C9013BEF8282873021405021398
:1013C300D90213EB0214170213D90213EB02142EE2
:1013D3000213D90213EBAFBDEFFEADBE7C00E42DCB
:1013E300FFEC3E900109803CAFBDEFFEADBE7C003B
:1013F300E42DFFEC3E90010BF0A3EFF075450102E5
:101403001532AFBDEFFEADBE7C00E42DFFEC3E9088
:10141300010D8010AFBDEFFEADBE7C00E42DFFECEF
:101423003E90010FF0A3EFF0021532AFBDEFFEAD1A
:10143300BE7C00E42DFFEC3E900111F0A3EFF09091
:101443000111E0FEA3E07807CEC313CE13D8F9A8A9
:101453004EF6C394065013A84EE675F003A4241366
:10146300F582E43401F583E014F0900108E014F010
:1014730060030215327409F0A84EE4F6A84EE6FFA5
:10148300C394064003021532EF75F003A42413F549
:1014930082E43401F583E0C39480502AE6FF75F0BB
:1014A30003A42414F582E43401F583E0D39480404B
:1014B30040EF75F003A42415F582E43401F5837439
:1014C30001F0F546802BA84EE6FF75F003A4241423
:1014D300F582E43401F583E0C394805014EF75F092
:1014E30003A42415F582E43401F5837402F07546F0
:1014F30001A84EE6FF75F003A42413F582E434013A
:10150300F583E0FEEF75F003A42414F582E43401BF
:10151300F583EEF0E675F003A42413F582E43401B9
:10152300F5837486F00602147F90010774FFF09030
:101533000107E0D39407400374FFF0900107E00430
:07154300F09032BE93F5BCED
:03154A00054E2229
:02325A00154E0F
:09325C00A84EA646E4F546E6FF83
:03326500054E22F1
:02326800154E01
:09326A00A84EA645E4F545E6FF77
:03327300054E22E3
:102DDF008F9D75BC88439720D2AD90004574FFF04E
:102DEF00A37413F0A374A1F0A374FFF0A37432F0D3
:102DFF00A3745AF0A374FFF0A37432F0A37468F0B5
:012E0F0022A0
:070003007B017A017909225B
:102B7500C3EF64809480403BD3EF648094855033E9
:102B8500EFFD3395E0FC90011575F003ED12062479
:102B9500EC75F003A42583F583E0FE90011575F02F
:102BA50003ED120624EC75F003A42583F583E4F008
:052BB500AF06227F03C2
:012BBA0022F8
:042F2300154E154EE4
:102F27001232D0A84EA60608A607A84EE6FE08E667
:0F2F3700FF4E600BEF24FFFFEE34FFFE1232D986
:052F4600054E054E22BE
:1030260053B1EF43B21012331AE4F5D975DA49D227
:10303600DE90003F74FFF0A3742FF0A37423F022F8
:082711008E088F098C0A8D0B64
:102719001232D0EF4E7066AF0BAE0A1232D9C3E552
:1027290009940AE5089400404BE47B18FAF9F890FB
:10273900002612060812052EC006C007AE08AF090A
:10274900AB07AA06E4F9F8D007D00612052EAB07A5
:10275900AA06AFF9EFFEADE97C00E42DFFEC3ECF10
:102769002BCF3AAD07FCAF03AE021231FCD2D843EE
:0F277900DA01800612331A53DAFE7F02227F0341
:01278800222E
:0C3291001232D0EF4E7002FF227F0122AB
:101D3E00E4F580900170E0FFB40800505F901D52F2
:101D4E00F8282873021D6A021D70021D76021D7C82
:101D5E00021D82021D8C021D96021DA0C2A3C2A2EC
:101D6E008016C2A3C2A2801AC2A3C2A2801EC2A3A0
:101D7E00C2A28022C2A3D2A2C2A1C2A08020C2A3AC
:101D8E00D2A2C2A1D2A08016C2A3D2A2D2A1C2A0B8
:101D9E00800CC2A3D2A2D2A1D2A08002D2A3C3EF42
:101DAE00648094885029900170E0FF3395E0FE74B2
:101DBE00672FF58274013EF583E0FF3395E0FE74E4
:101DCE003B2FF582742D3EF583E493F580801E90B3
:101DDE000170E0FFB408133395E0FE74672FF582AF
:101DEE0074013EF583E0F5808003E4F58090016692
:101DFE00E0FF900170E004FEF0D3EF6480F8EE6433
:101E0E0080984014E0D36480948850047408F022C3
:091E1E00900165E0900170F022D2
:1030F800E4F5937594FF5395F043960F90002A7466
:0B310800FFF0A3741DF0A3743EF02242
:0932C700900165EFF0A3EDF02287
:10304600900167EFF0A3EDF0A3EBF0A3E50BF0A37F
:10305600E50CF0A3E50DF0A3E50EF0A3E50FF022D5
:0633080090016FEFF022BE
:10156600014B0049017D94940094940094940041A9
:03157600017C1ED7
:02191300154E6F
:1019150020B20690017DE014F020B306900180E02E
:1019250014F0209706900183E014F090017CE014F8
:10193500F06003021A33741EF0A84EE4F6A84EE6D2
:10194500FFC3648094834003021A33EF3395E0FEAE
:1019550090017D75F003EF120624EE75F003A425C2
:1019650083F583E0C39480503990017E75F003EFD1
:10197500120624EE75F003A42583F583E0D3948045
:10198500405AE6FF3395E0FE90017F75F003EF12B4
:101995000624EE75F003A42583F5837401F0F54B59
:1019A500803AA84EE6FF3395E0FE90017E75F00380
:1019B500EF120624EE75F003A42583F583E0C394A6
:1019C50080501990017F75F003EF120624EE75F033
:1019D50003A42583F5837402F0754B01A84EE6FF39
:1019E500FD3395E0FC90017D75F003ED120624ECC6
:1019F50075F003A42583F583E0FE90017E75F00361
:101A0500ED120624EC75F003A42583F583EEF0EFC3
:101A15003395E0FE90017D75F003EF120624EE7517
:0E1A2500F003A42583F5837494F006021942A1
:031A3300054E223B
:02327600154EF3
:09327800A84EA64BE4F54BE6FF5D
:03328100054E22D5
:1030860090003074FFF0A37432F0A37476F09000D1
:0D3096002D74FFF0A37419F0A37413F02241
:102BFF00EF600764016003BF0233EFFD3395E0FC24
:102C0F0090017F75F003ED120624EC75F003A425F7
:102C1F0083F583E0FE90017F75F003ED120624EC3F
:0F2C2F0075F003A42583F583E4F0AF06227F033D
:012C3E002273
:101579004100000A4100290A41006D0A04290000BE
:101589000000012F004600670000FFFF8FFFC10D1B
:10159900C105C108C101C10E60240005FF000AFF91
:1015A900000AFF000AFF000AFF000AFF000AFF0005
:1015B9000AFF000AFF000AFF000AFF000AFF000AEB
:1015C9006036002AFF000AFF000AFF003EFF000AFA
:1015D900FF003EFF000AFF003EFF000AFF000AFF6E
:1015E900000AFF003EFF003EFF003EFF003EFF00F5
:0A15F9000AFF000AFF000AFF000AC3
:01000A0022D3
:03003E007F00221E
:102B2E00438E805389F07BE07A28790178009000FB
:102B3E0026120608122BBBEFF404F58A7BE07A28E6
:102B4E0079017800900026120608122BBBC3E49F71
:102B5E00FFE49EFE74019DFDE49CFC78081205E1E5
:072B6E008F8CD28CD2A9224A
:03000B00022A9135
:042A9100C0E0C0D011
:102A9500D5230A75234C300D02052FD20DA20372E2
:102AA5000450361525E5257030852725D207300ACF
:102AB50017E52860071528438F01801D538FFEC237
:102AC500B5D53115C20A80110526E526D3940640F1
:092AD50008C203E52E6002D206DE
:052ADE00D0D0D0E03271
:102A3E00300E47C20E90002612060878101205E1DD
:102A4E008E478F48900003E0FEA3E0FFE4FCFD7B81
:102A5E0019FAF9F81204A3C006C007AE47AF48AB87
:102A6E0007AA06E4F9F8D007D006122BBB7803129A
:102A7E0005E1900065EEF0A3EFF0900065E0FEA397
:022A8E00E0FF67
:012A90002223
:0932D000900067E0FEA3E0FF227C
:0932D900900067EEF0A3EFF02273
:1031FC0090006BEEF0A3EFF0900069ECF0A3EDF013
:01320C00229F
:03331A00C2B42218
:03003B000222118D
:10221100C0E0C083C082C0D075D000C004C005C07A
:0322210006C007ED
:1022240030DF04C2DF807D30DA04C2DA807630D950
:102234003DC2D9AFFBEFFEADEB7C00E42DFFEC3EDD
:1022440020000E900001F0A3EFF075DB11D20080A6
:1022540053FE900001E0FCA3E0FDC3EF9DFFEE9C64
:10226400A3F0A3EFF075DB00C200D20E803630D8A5
:1022740033C2D8900067E07002A3E06022B2B49049
:102284000069E0FEA3E0F5EAEEF5FAA3E0FEA3E0C0
:10229400FF90006AE02FF0900069E03EF08005C2F4
:0422A400B453DAFE57
:1022A800D007D006D005D004D0D0D082D083D0E0DB
:0122B80032F3
:06330E00122B2ED2AF22AB
:10250D003004047F0180027F00200A047E018002D6
:10251D007E00EE5F6074E530C3952450683002365E
:10252D00752801E530131313541FAB32AA33A934A8
:10253D00F5827583001203A1FFE530540704FEEF09
:10254D00A806088002C333D8FC30D7057531038047
:10255D002F753101802AAB32AA33A93475F002E50B
:10256D0030A4F58285F0831203A1F528E53075F0CE
:10257D0002A429F9EA35F0FA9000011203A1F53110
:0A258D000530D20A22C204438F1069
:012597002221
:101C5100900000E014F0701F740AF0D20590002982
:101C6100E014F07012740AF0D20890006DE014F0E4
:101C71007005740AF0D20190002AA3E0FAA3E0F9FA
:101C810012063090002DA3E0FAA3E0F9120630907D
:101C91000039A3E0FAA3E0F9120630900045A3E071
:101CA100FAA3E0F9120630900054A3E0FAA3E0F998
:101CB10012063090005DA3E0FAA3E0F9120630901D
:101CC100004BA3E0FAA3E0F9120630EF600C90009C
:101CD1001DA3E0FAA3E0F912063090004EA3E0FA4A
:101CE100A3E0F9120630EF600E900020A3E0FAA302
:101CF100E0F9120630D20BE52DD394004016D52D14
:101D01003030090C900023A3E0FAA3E0F912063069
:101D1100D20C801D900051A3E0FAA3E0F912063025
:101D2100EF600E900023A3E0FAA3E0F9120630D28F
:0D1D31000C900005A3E0FAA3E0F9020630D3
:10235E0090003FA3E0FAA3E0F9120630900042A3EA
:10236E00E0FAA3E0F9120630900033A3E0FAA3E0FE
:10237E00F9120630900008A3E0FAA3E0F912063035
:10238E00900030A3E0FAA3E0F9120630EF600C9053
:10239E000011A3E0FAA3E0F9120630900036A3E094
:1023AE00FAA3E0F9120630EF600C900017A3E0FAE2
:1023BE00A3E0F9120630900048A3E0FAA3E0F91268
:1023CE000630EF600C90001AA3E0FAA3E0F91206B3
:1023DE003030060EC206900026A3E0FAA3E0F912F2
:0323EE0006302294
:102C7F0090000BA3E0FAA3E0F912063090003CA3FA
:102C8F00E0FAA3E0F9120630EF600C900014A3E015
:102C9F00FAA3E0F9120630900057A3E0FAA3E0F987
:0F2CAF0012063090005AA3E0FAA3E0F9020630B3
:102ECF00AF2CAE2BAD2AAC299000601206189000E3
:102EDF0064E52FF0E4F52CF52BF52AF529F52F9065
:0B2EEF00000EA3E0FAA3E0F902063099
:102CFD00300705C20712250D300D05C20D121C51EE
:102D0D00300505C20512235E300805C208122C7F5E
:102D1D00300105C201122ECFE52C2401F52CE4352E
:0E2D2D002BF52BE4352AF52AE43529F5292269
:102618008B088A09890AEFB40C00507090262BF8B1
:1026280028287302264F02265402265902265E02E3
:10263800266302266802266D022672022677022683
:102648007C0226810226869000058035900008804D
:102658003090000B802B90000E8026900011802176
:10266800900017801C900014801790001A80129018
:10267800001D800D900020800890002380039000AA
:0D26880026E508F0A3E509F0A3E50AF0221D
:0732F4007B017A00796022E2
:1023F1008B1EAA077C007E037FE8120402900178FD
:10240100EEF0A3EFF0E51FFD7C007E037FE81204F0
:1024110002A3EEF0A3EFF0AF02AB07E4FAF9F890F4
:102421000178E0FEA3E0FFE4FCFD1204A3EF2432F7
:10243100FFE43EFEE43DFDE43CFCE47B64FAF9F894
:10244100122BBB900172EEF0A3EFF0AF1EAB07E4CD
:10245100FAF9F890017AE0FEA3E0FFE4FCFD120432
:10246100A3EF2432FFE43EFEE43DFDE43CFCE47BCB
:1024710064FAF9F8122BBB900174EEF0A3EFF0228D
:10298D00E4F50BF50AF509F508F50CD291AF0BAE90
:10299D000AAD09AC0878011205F58F0B8E0A8D0969
:1029AD008C0800C291309015E4FAF9F8EF2401F586
:1029BD000BEA3EF50AE93DF509E83CF508050CE59D
:1029CD000CB418C700D2910000C291AF0BAE0AAD86
:0829DD0009AC0878081205E1BD
:0129E50022CF
:0932E200900176E0FEA3E0FF225A
:0F320D00900176E0FEA3E0FFE4900176F0A3F0DD
:01321C00228F
:101E2700900171E0700F3090012212298D90017698
:101E3700EEF0A3EFF0900171E0FF64017062053DE1
:101E4700E53D7002053CFDD3900179E09D90017856
:101E5700E0953C5005E4F53CF53DD3900173E095E2
:101E67003D900172E0953C4004D2908002C29005FB
:101E77003FE53F7002053EFDD390017BE09D900159
:101E87007AE0953E5005E4F53EF53FD3900175E0C5
:101E9700953F900174E0953E4004D2918002C29133
:101EA700EF6402703E2090047F0180027F00E540CE
:101EB70060047E0180027E00EE5F60213091109009
:101EC7000177E004F07016900176E004F0800E9040
:101ED7000177E024FFF0900176E034FFF0A290E470
:101EE70033F540900171E0B4031CE5417002D291D3
:101EF700E541B40105C29175DB210541E541C39474
:061F0700C84003E4F541AF
:011F0D0022B1
:102D7700900171EFF07004C2918002D291900171BD
:102D8700E0B40310E5A254CFF5A2E4F5D975DB0151
:102D9700D2DE8003E4F5DB90005D74FFF0A3741EC0
:062DA700F0A37427F022E6
:1016030055013B0000000000000000000000000046
:081613000000010000000000CE
:0300430002100D9B
:10100D00C0E0C0F0C083C082C0D075D000C000C0A9
:10101D0001C002C003C004C005C006C007E59A3078
:10102D00E142539AFD900140E0FEA3E0FFC3900121
:10103D003FE09F90013EE09E501F90013BE0FBA3DF
:10104D00E0FAA3E0F9A3E475F00112048D85F082B6
:10105D00F5831203A1F59B800B900142E4F0E54A64
:10106D006002C2B7E59A20E0030211C4539AFE3024
:10107D000C0BC20C900148E4F0A3F0D209E54A64D0
:10108D0002600302111E900146E0FEA3E0FFA3E003
:10109D00FCA3E0FDC39FEC9E5071900143E0FBA3C8
:1010AD00E0FAA3E0F98D828C83E59B1203E09001B9
:1010BD004EE0FEA3E0FFC3ED9FEC9E504090014635
:1010CD00E0FCA3E0FDEF9DEE9C503290014BE0FB68
:1010DD00A3E0FAA3E0F9900148E0FEA3E0FFF5825A
:1010ED008E831203A1FD900143E0FBA3E0FAA3E080
:1010FD00F98F828E831203A16D6002C2099001499E
:10110D00E004F07006900148E004F085492D0211CD
:10111D00C4900146E0FEA3E0FFA3E0FCA3E0FDC305
:10112D009FEC9E5077900143E0FBA3E0FAA3E0F91A
:10113D008D828C83E59B1203E090014EE0FEA3E0CF
:10114D00FFC3ED9FEC9E5046900146E0FCA3E0FDF1
:10115D00EF9DEE9C503890014BE0FBA3E0FAA3E02D
:10116D00F9900148E0FEA3E0FFF5828E831203A102
:10117D00FD900143E0FBA3E0FAA3E0F98F828E839B
:10118D001203A16D600890014874FFF0A3F0900167
:10119D0049E004F07006900148E004F0900146E04B
:1011AD00FEA3E0FFC3900149E09F900148E09E40FF
:1011BD000690014A7401F0D007D006D005D004D0B6
:1011CD0003D002D001D000D0D0D082D083D0F0D0C7
:0211DD00E032FE
:02322D00154E3C
:0A322F0090014AE0A84EF6FFE4F01B
:03323900054E221D
:01002A0022B3
:1020AE008F0B8E0A8D098C08850C4AE54A700280CA
:1020BE000343BA01E54A701790005D74FFF0A374F4
:1020CE0000F0A3742AF0E4F5DBD290D2918020C206
:1020DE00B7AB0BAA0AA909A808E47F407E9CFDFCB9
:1020EE0012052E8F49E549700375490185492D75F5
:1020FE009A10E47B04FAF9F89000261206081205ED
:10210E002EAB0BAA0AA909A80812052EEFF404F5A6
:10211E00D7E47B04FAF9F890002612060812052E71
:10212E00AB0BAA0AA909A80812052EC3E49FFFE467
:10213E009EFE74019DFDE49CFC78081205CE8FD6A0
:10214E00438E1443AF0190005174FFF0A37432F02C
:05215E00A3742DF02226
:102E1000900143EBF0A3EAF0A3E9F0A3ECF0A3EDFB
:102E2000F090014EE510F0A3E511F090014BE50D97
:102E3000F0A3E50EF0A3E50FF0D20CE490014AF008
:012E4000226F
:102E7200900142E0702690013BEBF0A3EAF0A3E957
:102E8200F0E4A3F0A3F0A3ECF0A3EDF0A37401F03F
:0F2E9200E54A6002D2B7439A027F02227F0322F1
:0B329D00900142E07002FF227F01223E
:100C260000EF00C500AF00A00096008E008700818F
:100C3600007C007800740071006D006B0068006530
:100C460000630061005F005D005B005A00580056BB
:100C560000550054005200510050004E004D004C0B
:100C6600004B004A00490048004700460045004442
:100C760000430043004200410040003F003F003E69
:100C8600003D003D003C003B003A003A0039003987
:100C9600003800370037003600360035003400349F
:100CA60000330033003200320031003100300030B2
:100CB600002F002F002E002E002D002D002C002CC2
:100CC600002B002B002A002A0029002900290028D1
:100CD60000280027002700260026002600250025DC
:100CE60000240024002400230023002200220022E6
:100CF60000210021002000200020001F001F001FEF
:100D0600001E001E001D001D001D001C001C001CF6
:100D1600001B001B001B001A001A001A00190019FC
:100D26000018001800180017001700170016001604
:100D36000016001500150015001400140014001309
:100D4600001300130012001200120011001100100F
:100D560000100010000F000F000F000E000E000E16
:100D6600000D000D000D000C000C000C000B000B1C
:100D7600000B000A000A0009000900090008000823
:100D8600000800070007000700060006000500052A
:100D96000004000400030003000300020002000137
:100DA6000001000100000000FFFFFFFFFFFFFFFE44
:100DB600FFFEFFFDFFFDFFFCFFFCFFFBFFFBFFFA55
:100DC600FFFAFFF9FFF9FFF8FFF8FFF7FFF7FFF665
:100DD600FFF6FFF5FFF5FFF4FFF3FFF3FFF2FFF277
:100DE600FFF1FFF0FFF0FFEFFFEEFFEDFFEDFFEC91
:100DF600FFEBFFEAFFE9FFE8FFE7FFE6FFE5FFE4B9
:100E0600FFE3FFE2FFE0FFDFFFDDFFDCFFDAFFD8F5
:0C0E1600FFD5FFD2FFCEFFC9FFC101696C
:101F0E00120003782B7C017D017E007F0A12037B79
:101F1E0090012FE0FFA3E0900139CFF0A3EFF090F6
:101F2E000139E0FEA3E07802CEA2E713CE13D8F873
:101F3E00F0EE900139F0A3E025E0FF900139E03397
:101F4E00FE74262FF582740C3EF583E493FE740125
:101F5E0093FF900129EEF0A3EFF0C3EE648094801E
:101F6E00900129E0FEA3E0FF5031C3E49FFFE49E01
:101F7E00FE7C007D0A1204577C007D0A1204578DE8
:101F8E000E750B0A750C0A750D0C900129E0FEA357
:101F9E00E0FFC3E49FFFE49EFE80387C007D641268
:101FAE0004577C007D0A120457AB05900129E0FE10
:101FBE00A3E0FF7C007D0A1204577C007D0A120408
:101FCE00578D0E8B0D750B0A750C0A900129E0FECC
:101FDE00A3E0FF7C007D0A1204578D0F7B0A7D0A59
:061FEE007F0A12304622BA
:04161B004101A100E8
:102C3F007F05122B759000B3EFF07F02122B75906A
:102C4F0000B4EFF09000B3E0B4010E9001A1E004E6
:102C5F00F0E0D394024002E4F09000B4E0B4010F2E
:0F2C6F009001A1E014F0E0C3940050037402F050
:012C7E002233
:103145009001A1E014600A14600A240270090217B4
:08315500EB021F0E122AE32217
:0D161F004200E806C9C1104300E5000000CC
:101FF4001232EB900106EFF02010479000E8E0FC6D
:10200400A3E0FDE41201F17466FBFAF978401200D2
:1020140046C004C005C006C007900106E0FCE412F7
:1020240001F6A804A905AA06AB07D007D006D00577
:10203400D00412014F12022A9000B3EEF0A3EFF085
:1020440080099000B3E4F0A37414F09000B3E0FAB4
:10205400A3E0FB7C007D3CFFAE02120402E54C755C
:10206400F007A424EBF582E43400F583EFF07C0060
:102074007D3CAF03AE02120402E54C75F007A424C4
:10208400EAF582E43400F583EDF0E54C75F007A43D
:1020940024EAF9740035F0FA7B0178087C007D00AD
:0A20A4007E007F0712037B02312C3F
:102932001232FBC001E54C75F007A424EAF97400D9
:1029420035F0A801FC7D01D0017E007F0712037BD8
:10295200E54C75F007A424EBF582E43400F583E03E
:1029620075F03CA4FFAEF0E54C75F007A424EAF53F
:1029720082E43400F583E07C002FFFEC3E9000E51A
:0B298200F0A3EFF0A210E433A3F0225A
:1017EB001232FBC001E54C75F007A424EAF9740032
:1017FB0035F0A801FC7D01D0017E007F0712037B31
:10180B00E54C75F007A424EBF582E43400F583E096
:10181B007016E54C75F007A424EAF582E43400F564
:10182B0083E07004B210802AE54C75F007A424EA1B
:10183B00F582E43400F583E0D3943C5015E54C7508
:10184B00F007A424EBF582E43400F583E0D3940293
:10185B004005121FF48045E54C75F007A424EAF50A
:10186B0082E43400F583E07021E54C75F007A42485
:10187B00EAF582E43400F583743BF0E54C75F00730
:10188B00A424EBF582E43400800DE54C75F007A43D
:10189B0024EAF582E43400F583E014F0E54C75F0AE
:1018AB0007A424EAF9740035F0FA7B0178087C0070
:1018BB007D007E007F0712037B12312CE54C75F007
:1018CB0007A424EBF582E43400F583E0FF75F00AFE
:1018DB0084FEEF75F00A84AFF0E54C75F007A42495
:1018EB00EAF582E43400F583E0FD75F00A84FCED43
:1018FB0075F00A8485F00F8C0E8F0C8E0B750D0A0C
:08190B007B0AE4FDFF023046F7
:0C162C00440197322D323742019B00C868
:0932EB0090019BE0FEA3E0FF222C
:102AE30090019BE0FEA3E0FF7C007D64120457ABE2
:102AF3000790019BE0FEA3E0FF7C007D0A120457D0
:102B03007C007D0A1204578D0E8B0D750B2E750CF0
:102B13002D90019BE0FEA3E0FF7C007D0A12045789
:0B2B23008D0F7B2E7D367F2702304691
:100776000000000000000000000000000000000073
:100786000000000000000000000000000000000063
:100796000000000000000000000000000000000053
:1007A6000000000000000000000000000000000043
:1007B6000000000000000000000000000000000033
:1007C6000000000000000000000000000000000023
:1007D600000000009CBBCDE5D5F2B5BDC1CBA3ACF6
:1007E600B1BED5BECEAABBBBB3CBD5BEA3ACBFC92B
:1007F600BBBBB3CB32BAC5CFDFA1A3CFC2B3B5CA99
:10080600B1A3ACC7EBD7A2D2E2C1D0B3B5D3EBD577
:10081600BECCA8D6AEBCE4B5C4BCE4CFB6000000DE
:1008260000000000000000000000000000000000C2
:1008360000000000000000000000000000000000B2
:1008460000000000000000000000000000000000A2
:100856000000000000000000000000000000000092
:100866000000000000000000000000000000000082
:100876000000000000000000000000000000000072
:100886000000000000000000000000000000000062
:100896000000000000000000000000000000000052
:1008A6000000000000000000000000000000000042
:1008B6000000000000000000000000000000000032
:1008C6000000000000000000000000000000000022
:1008D6000000000000000000000000000000000012
:1008E6000000000000000000000000000000000002
:1008F60000000000000000000000000000000000F2
:1009060000000000000000000000000000000000E1
:1009160000000000000000000000000000000000D1
:1009260000000000000000000000000000000000C1
:1009360000000000000000000000000000000000B1
:1009460000000000000000000000000000000000A1
:100956000000000000000000000000000000000091
:1009660000000000B3B5C3C5BCB4BDABB9D8B1D5A2
:10097600A3ACBDF7B7C0BCD0C9CB000000000000D7
:100986000000000000000000000000000000000061
:100996000000000000000000000000000000000051
:1009A6000000000000000000000000000000000041
:1009B6000000000000000000000000000000000031
:1009C6000000000000000000000000000000000021
:1009D6000000000000000000000000000000000011
:1009E6000000000000000000000000000000000001
:1009F60000000000000000000000000000000000F1
:100A060000000000000000000000000000000000E0
:100A160000000000000000000000000000000000D0
:100A260000000000000000000000000000000000C0
:100A360000000000000000000000000000000000B0
:100A460000000000000000000000000000000000A0
:100A56000000000000000000000000000000000090
:100A66000000000000000000000000000000000080
:100A76000000000000000000000000000000000070
:100A86000000000000000000000000000000000060
:100A96000000000000000000000000000000000050
:100AA6000000000000000000000000000000000040
:100AB6000000000000000000000000000000000030
:100AC6000000000000000000000000000000000020
:100AD6000000000000000000000000000000000010
:100AE6000000000000000000000000000000000000
:100AF60000000000B1BEB4CEC1D0B3B5BFAACDF9D7
:100B0600A3ACB6C5BCD2C6BAA1A3CFC2D2BBD5BE12
:100B16003A9CBBCDE5D5F2A1A3D0E8BBBBB3CB32A3
:100B2600BAC5CFDFB5C4B3CBBFCDC7EBD4DA9CBB58
:100B3600CDE5D5F2CFC2B3B500000000000000003D
:100B4600000000000000000000000000000000009F
:100B5600000000000000000000000000000000008F
:100B6600000000000000000000000000000000007F
:100B7600000000000000000000000000000000006F
:100B8600000000000000000000000000000000005F
:100B9600000000000000000000000000000000004F
:100BA600000000000000000000000000000000003F
:100BB600000000000000000000000000000000002F
:100BC600000000000000000000000000000000001F
:100BD600000000000000000000000000000000000F
:100BE60000000000000000000000000000000000FF
:100BF60000000000000000000000000000000000EF
:100C060000000000000000000000000000000000DE
:100C160000000000000000000000000000000000CE
:0816380041019D0041019E00EB
:1031C60090019DE0B44105A37401F022E490019EB4
:0231D600F022E5
:1026950090019EE0640160731229329000E5E0FE2E
:1026A500A3E0FF9000B3EEF0A3EFF0640C4E7013BF
:1026B5009000E7E0700DE54C75F064A42476F9749C
:1026C50007803C9000B3E07004A3E06405701490AB
:1026D50000E7E0B4010DE54C75F064A42406F97437
:1026E50009801C9000B3E07002A3E0701E9000E723
:1026F500E0B40117E54C75F064A42496F9740A3525
:0B270500F0FA7BFF7D647C00122E7256
:0127100022A6
:0400260000A8C0006E
:03164000014C0159
:10319F007D327C007FDC7E0512271112314512260D
:0431AF0095020E2255
:102D3B003F065B4F666D7D077F6F00084001414882
:102D4B00BF86DBCFE6EDFD87FFEF777C395E7971D0
:102D5B003D7606383F736D3E6E5F7C585E7B716FC0
:0C2D6B00741038545C7367506D781C6E57
:0816430041019FFF4101A000DD
:1031D800EFC394004009EFD3946450037F01227F2A
:0231E8000022C3
:0D002E009001A07401F090019F74FFF0227A
:102F73009001A0E0700312002E1230C09000E4EF25
:102F8300F0F46008E0FF1231D8EF70037F2822903D
:042F930000E4E0FF77
:012F97002217
:102F98008F0F9001A0E0700312002EAF051231D8F8
:102FA800EF70037FFF22AF0F12317590019FE50F7D
:042FB800F07F002284
:042CBE008F0D8D0EDB
:102CC2009001A0E0700312002EAF0E1231D8EF7007
:102CD200057EFF7FFF22AF0D122F739000E3EFF00E
:102CE200B50E04E4FEFF22AD0EAF0D122F98EF7069
:0A2CF20005FE7F0180047EFF7FFFD6
:012CFC0022B5
:063314002C0042535000A2
:10164B006020006E000000000000000000000000A1
:10165B00000000000000000000000000000000007F
:10166B00000000006020008E000000000000000061
:10167B00000000000000000000000000000000005F
:10168B0000000000000000004100B2004400AE4228
:03169B00535000A9
:102DAD007B017A00796E7D0A1230DCAE02AF018FA5
:102DBD00828E83EF4E6014E4F09000B27402F07BCB
:102DCD00017A00796E1211DF02000E9000B27403C9
:012DDD00F005
:012DDE0022D2
:1029E6007F007EC27D017C001227897E007F207DCC
:1029F600007B017A00796E12071F7E007F207D0022
:102A06007B017A00798E12071F7BFF7A2D79AD7FC5
:102A160009122618750D01750E00750FAE7510009A
:102A26007511037B017A00796E7D207C00122E41A0
:082A3600E49000B2F002002E52
:10000E007E007F207D007B017A00796E12071FE44F
:05001E009000B2F02289
:0B32A8009000B2E0B4030312000E22FD
:0611DF008B088A09890A51
:1011E500E49000D3F0A3F0AE02AF01EF4E6007121A
:1011F500318AEF4E700302133478B37C007D01AB66
:1012050008AA09A90A1207027510FF75113375128C
:10121500147B017A0079B3021315E50C450B7003B5
:101225000213239000D3E0FEA3E0FFC39409EE640C
:101235008094804003021323EE60030212F8EF143A
:10124500B4080040030212F890125B75F003A4C5C0
:101255008325F0C5837302127302128102128F0275
:10126500129D0212AB0212B90212CC0212E3AA0BB2
:10127500A90C7B011221639000D58044AA0BA90C0F
:101285007B011221639000D78036AA0BA90C7B0144
:101295001221639000D98028AA0BA90C7B01122189
:1012A500639000DB801AAA0BA90C7B0112216390C5
:1012B50000DD800CAA0BA90C7B011221639000DFD5
:1012C500EEF0A3EFF0802CAA0BA90C7B0112216391
:1012D5009000E1EFF0D394014019E4F08015AA0BDA
:1012E500A90C7B011221639000E2EFF0D394014039
:1012F50002E4F09000D4E004F070069000D3E0041E
:10130500F07510FF7511337512147B007A007900A2
:10131500122598AE02AF018E0B8F0C02121FC390DF
:1013250000D4E094099000D3E06480948050057E59
:10133500FF7FFF227435254CF582E43401F583E007
:10134500FF9000D9E0FCA3E0FD6F7001EC60127422
:1013550035254CF582E43401F583EDF0AF4C122CC4
:10136500BE9000DBA3E0FF7497254CF582E43401C1
:10137500F583EFF09000E1E0FF748F254CF582E4F2
:101385003401F583EFF09000E2E0FF7493254CF50E
:0B13950082E43401F583EFF0E4FEFF7A
:0113A000222A
:101A3600F583E0FF7E009000B3E0FCA3E0248EF97E
:061A460074003CFA7B0174
:061A4C008B088A09890ADB
:101A5200E49000B7F0A3F0A3EEF0A3EFF0E490005F
:101A6200C5F0A3F0EF4E701774301203CEAB08AA84
:101A720009A90A900001E41203E07E007F0122D34B
:101A82009000BAE094009000B9E0940040539000B6
:101A9200C6E0940A9000C5E06480948050439000B0
:101AA200B9E0FAA3E0FB7C007D0AFFAE0212040259
:101AB200ED2430FF9000C5E475F00112048DFC7432
:101AC200BB25F0F58274003CF583EFF07C007D0AC3
:101AD200AF03AE021204029000B9EEF0A3EFF08061
:101AE2009E9000C6E024FFFE9000C5E034FF900007
:101AF200B5F0A3CEF09000B5E0FEA3E0FFC3EE6424
:101B0200809480403574BB2FF58274003EF583E0EB
:101B1200FFAB08AA09A90A9000B7E475F001120404
:101B22008D85F082F583EF1203E09000B6E024FF8A
:101B3200F09000B5E034FFF080BBAB08AA09A90A17
:101B42009000B7E0FEA3E0FFF5828E83E41203E08B
:011B52002270
:100E2200E49000B3F0A3F01232B3BF01037F0322B8
:100E32007E007F207D007B017A00798E12071F7869
:100E42008E7C007D017BFF7A3379161207027B01CB
:100E52007A00798E12318A9000B3EEF0A3EFF0900F
:100E620000B3E475F00112048DFE748E25F0F58254
:100E720074003EF583742CF0AF4C121A3A9000B411
:100E8200E02FF09000B3E03EF0E475F00112048D23
:100E9200FE748E25F0F58274003EF583742CF07496
:100EA20025254CF582E43401121A369000B4E02F65
:100EB200F09000B3E03EF0E475F00112048DFE7490
:100EC2008E25F0F58274003EF583742CF07435257E
:100ED2004CF582E43401121A369000B4E02FF090FF
:100EE20000B3E03EF0E475F00112048DFE748E252D
:100EF200F0F58274003EF583742CF07497254CF55E
:100F020082E43401121A369000B4E02FF09000B35C
:100F1200E03EF0E475F00112048DFE748E25F0F5CA
:100F22008274003EF583742CF0E54C75F007A4241E
:100F3200EBF582E43400121A369000B4E02FF09000
:100F420000B3E03EF0E475F00112048DFE748E25CC
:100F5200F0F58274003EF583742CF0E54C75F007D1
:100F6200A424EAF582E43400121A369000B4E02F89
:100F7200F09000B3E03EF0E475F00112048DFE74CF
:100F82008E25F0F58274003EF583742CF0748F2563
:100F92004CF582E43401121A369000B4E02FF0903E
:100FA20000B3E03EF0E475F00112048DFE748E256C
:100FB200F0F58274003EF583742CF07493254CF5A1
:100FC20082E43401121A369000B4E02FF09000B39C
:100FD200E03EF0E475F00112048DFE748E25F0F50A
:100FE2008274003EF583740AF0C39000B4E094204A
:100FF2009000B3E06480948040037F03227B017AF7
:0A10020000798E7D207C00122F4B38
:01100C0022C1
:0230A3008F4D4F
:1030A500122F739001A2EFF0F4600FE0FF74352545
:0A30B5004DF582E43401F583EFF0DD
:0130BF0022EE
:04169E0041018E0177
:10311300C295E4FEEF1392CC000000D29500EFC3FA
:0831230013FFC2950EBE08EC7B
:01312B002281
:10315D00E4FEEFC313FF30CC03430780D29500008C
:07316D0000C2950EBE08EB45
:013174002238
:102EA100F07F85122EB4A3EFF07F87122EB4A3EF2B
:032EB100F07F8926
:102EB400C296000000C295000000D29600123113A1
:0A2EC40012315DD295000000C296A5
:012ECE0022E1
:03306600A3E0FDE7
:10306900C296000000C295000000D29600123113EA
:0D307900AF05123113D295000000C296225F
:0732FB007B017A01798722B3
:10312C0078877C017D017B007A0079087E007F071F
:09313C0012037BE490018EF022E5
:1031EA00EFD3941F5009EF25E044C1FF022EB47FAC
:0231FA000122B0
:102EFA00AC07AB05ECD3941F501CE4FD7F8E123057
:102F0A0069EC25E044C0FFAD031230697D807F8EF5
:092F1A001230697F00227F0122C0
:0222B900154EC0
:1022BB0090018EE060447F81122EB4A84EEFF69011
:1022CB000187E06F700302235BA84EE6F07F831259
:1022DB002EB4A84EEFF6A3E06F6075A84EE6122E53
:1022EB00A1A3EFF07F8D122EB490018DEFF07F8BB9
:1022FB00122EB490018CEFF08056900186E0FF0413
:10230B00F0EFC3940A4049E4F090018E04F0E4FD31
:10231B007F8E123069900187E0FD7F801230697FDC
:10232B00821230667F84123066A3E0FD7F86123006
:10233B0069A3E0FD7F88123069A3E0FD7F8A12302C
:10234B0069A3E0FD7F8C1230697D807F8E1230692E
:03235B00054E220A
:101B53007F81122EB4900187EFF07F83122EB4A3FE
:101B6300EF122EA1A3EFF07F8B122EB4A3EFF07F21
:101B73008D122EB4A3EFF0E4FD7F8E1230697F1E29
:101B83001231EAEF64A560047F0180027F009001B7
:101B930087E05480FEA3E0D3945940047D01800282
:101BA3007D00ED4EFE900189E0D394A440047D01B5
:101BB30080027D00ED4EFE90018AE0D39431400413
:101BC3007D0180027D00ED4EFE90018BE0D39412E7
:101BD30040047D0180027D00ED4EFE90018CE0D338
:101BE300940740047D0180027D00ED4EFE90018D3F
:101BF300E0D3949940047D0180027D00ED4E4F6057
:101C03003078087C007D007B007A0079357E007F88
:101C13000712037B12312C7DA57F1E122EFA7887C3
:101C23007C017D017B007A0079357E007F071203FA
:101C33007B7DA97F901230697D807F8E1230699001
:0E1C4300005A74FFF0A37422F0A374B9F022CB
:10321D00D2C0000000D2CD000000C2C000000022CC
:0D328400C2C0000000D2CD000000D2C02268
:0B2FBC00122FE0122FC7AF05122FE00C
:102FC700E4FFD2CD30C009EFC394FF50030F80F464
:082FD700000000C2CD00000063
:012FDF0022CF
:102FE000E4FEEF25E0FFC2CD00000092C00000002B
:102FF000D2CD0000000EBE08E9C2CD000000D2C054
:03300000000000CD
:0130030022AA
:10300400C2CD000000D2C000E4FED2CD0000EF2506
:10301400E0FDA2C0E4334DFF0000C2CD000EBE08A7
:01302400E9C2
:013025002288
:10317500AC0712321D7FA0122FE0122FC7AF041229
:053185002FBC023284A2
:0230C000AD075A
:1030C20012321D7FA0122FBC12321D7FA1122FE0DF
:0930D200122FC7123004123284DF
:0130DB0022D2
:1016A2005501500000000000000000000000000092
:0816B20000000100000000002F
:030023000216BB07
:1016BB00C0E0C0F0C083C082C0D075D000C000C0F5
:1016CB0001C002C003C004C005C006C00730993B6F
:1016DB00C299900155E0FEA3E0FFC3900154E09F37
:1016EB00900153E09E501F900150E0FBA3E0FAA342
:1016FB00E0F9A3E475F00112048D85F082F58312F5
:10170B0003A1F5998005900157E4F0209803021787
:10171B00D0C298300B09C20B90015DE4F0A3F0909E
:10172B00015BE0FEA3E0FFA3E0FCA3E0FDC39FECA5
:10173B009E5077900158E0FBA3E0FAA3E0F98D826D
:10174B008C83E5991203E0900163E0FEA3E0FFC3F5
:10175B00ED9FEC9E504690015BE0FCA3E0FDEF9DFE
:10176B00EE9C5038900160E0FBA3E0FAA3E0F99007
:10177B00015DE0FEA3E0FFF5828E831203A1FD90D5
:10178B000158E0FBA3E0FAA3E0F98F828E831203EA
:10179B00A16D600890015D74FFF0A3F090015EE015
:1017AB0004F0700690015DE004F090015BE0FEA395
:1017BB00E0FFC390015EE09F90015DE09E400690CC
:1017CB00015F7401F0D007D006D005D004D003D050
:1017DB0002D001D000D0D0D082D083D0F0D0E03274
:02323C00154E2D
:0A323E0090015FE0A84EF6FFE4F0F7
:03324800054E220E
:102789008F0B8E0A8D098C08759850438E40538E95
:10279900FE53890FE47B04FAF9F890002612060823
:1027A90012052EAB0BAA0AA909A80812052EEFF4E7
:1027B90004F58BE47B04FAF9F89000261206081256
:1027C900052EAB0BAA0AA909A80812052EC3E49F76
:1027D900FFE49EFE74019DFDE49CFC78081205CE81
:1027E9008F8DC2ABD28ED2AC90004E74FFF0A37421
:0727F90032F0A3743CF02252
:102E4100900158EBF0A3EAF0A3E9F0A3ECF0A3EDB5
:102E5100F0900163E510F0A3E511F0900160E50D3C
:102E6100F0A3E50EF0A3E50FF0D20BE490015FF0C3
:012E7100223E
:102F4B00900157E0701F900150EBF0A3EAF0A3E95A
:102F5B00F0E4A3F0A3F0A3ECF0A3EDF0A37401F065
:082F6B00D2997F02227F0322AC
:0B32B300900157E07002FF227F012213
:10004600EC4D6011E8497017ED33EC3304600DE4B4
:10005600FCFFFEFD22E933E8330470F80202961233
:10006600026158046009E4CC248150062850090234
:1000760002A028400302029DC0E0EB4A7044B9800A
:1000860006D0E0FB02028CEF4E701CBD8008EBFF31
:10009600EAFEE9FD80EBE98DF0A4FEE5F002012F12
:1000A600E9CDF9EAFEEBFFEF89F0A4FCE5F0CE8995
:1000B600F0A42EFFE435F0CD89F0A42DFEE435F052
:1000C6008067EF4E7005BD80D780C3EF8BF0A4AC80
:1000D600F0EE8BF0A42CFCE435F0F8EF8AF0A42CBB
:1000E600E5F038FCE433CB8DF0A42CFCE5F03BF8CE
:1000F600EE8AF0A42CFCE5F038F8E433CF89F0A4BE
:100106002CFCE5F038CF3400CE89F0A42FFFE5F0C3
:100116003EFEE433C98DF0A42EFEE5F039CD8AF01B
:10012600A42FFFE5F03EFEE43DFD33D0E0FB500793
:100136000BBB000F0202A0EC2CFCEF33FFEE33FEEC
:06014600ED33FD0202781A
:10014C000202A0EC5D046005E859047003020296FB
:10015C00120261580460F6EC4860F2EC7004FDFE8B
:10016C00FF22C860DB2481C85009C3986002500686
:10017C0002029D9850CAF582E9294B4A7005AB8260
:10018C0002028C75F0007C1A7880C3EF9BEE9AED1E
:10019C0099400DC3EF9BFFEE9AFEED99FDE842F0FE
:1001AC00DC23ACF0D0E0FFD0E0FED0E0FDAB822051
:1001BC00E7101BEB60BAEC2CFCEF33FFEE33FEEDDB
:1001CC0033FD020278E803F830E705C0F075F00063
:1001DC00EF2FFFEE33FEED33FD40B830E7C280AABF
:1001EC0075F020800E75F010800575F0087D007E8E
:1001FC00007F003392D530D5031205C0EC3340108C
:10020C00EF33FFEE33FEED33FDEC33FCD5F0ED2296
:0E021C00E5F0247EA2D513CC92E7CDCEFF22D2
:10022A00EDD2E7CD33EC3392D524814006E4FFFECC
:10023A00FDFC22FCE4CFCECDCC24E0501174FF802B
:10024A00EDC3CC13CCCD13CDCE13CECF13CF0470C8
:07025A00F030D5DE0205C003
:10026100E9D2E7C933E833F892D5EDD2E7CD33ECE3
:0702710033FC5002B2D5225C
:10027800EC30E7100FBF000C0EBE00080DBD0004E7
:100288000BEB6014A2D5EB13FCED92E7FD2274FF93
:10029800FCFDFEFF22E480F8A2D574FF13FC7D80EC
:0302A800E480EF00
:0300000002248156
:0C248100787FE4F6D8FD75814E0224C877
:1002AB00E709F608DFFA8046E709F208DFFA803E35
:1002BB0088828C83E709F0A3DFFA8032E309F60822
:1002CB00DFFA8078E309F208DFFA807088828C838A
:1002DB00E309F0A3DFFA806489828A83E0A3F6083E
:1002EB00DFFA805889828A83E0A3F208DFFA804C18
:1002FB0080D280FA80C680D4806980F280338010EF
:10030B0080A680EA809A80A880DA80E280CA803357
:10031B0089828A83ECFAE493A3C8C582C8CCC583CF
:10032B00CCF0A3C8C582C8CCC583CCDFE9DEE7809F
:10033B000D89828A83E493A3F608DFF9ECFAA9F01E
:10034B00EDFB2289828A83ECFAE0A3C8C582C8CC74
:10035B00C583CCF0A3C8C582C8CCC583CCDFEADE8D
:10036B00E880DB89828A83E493A3F208DFF980CCEF
:10037B0088F0EF60010E4E60C388F0ED2402B404E8
:10038B000050B9F582EB2402B4040050AF2323458F
:06039B0082239002FB73B7
:1003A100BB010CE58229F582E5833AF583E0225011
:1003B10006E92582F8E622BBFE06E92582F8E2225B
:0D03C100E58229F582E5833AF583E4932275
:1003CE00BB010689828A83F0225002F722BBFE010E
:0203DE00F32208
:1003E000F8BB010DE58229F582E5833AF583E8F053
:1003F000225006E92582C8F622BBFE05E92582C8FF
:02040000F222E6
:10040200BC000BBE0029EF8DF084FFADF022E4CCDE
:10041200F875F008EF2FFFEE33FEEC33FCEE9DECA7
:10042200984005FCEE9DFE0FD5F0E9E4CEFD22EDED
:10043200F8F5F0EE8420D21CFEADF075F008EF2F37
:10044200FFED33FD4007985006D5F0F222C398FD28
:050452000FD5F0EA22C5
:10045700C2D5EC30E709B2D5E4C39DFDE49CFCEEC0
:1004670030E715B2D5E4C39FFFE49EFE120402C332
:10047700E49DFDE49CFC800312040230D507C3E42D
:060487009FFFE49EFE222F
:10048D00A3F8E0C5F025F0F0E58215827002158322
:06049D00E0C838F0E8227F
:1004A300E88FF0A4CC8BF0A42CFCE98EF0A42CFCF8
:1004B3008AF0EDA42CFCEA8EF0A4CDA8F08BF0A476
:1004C3002DCC3825F0FDE98FF0A42CCD35F0FCEBD5
:1004D3008EF0A4FEA9F0EB8FF0A4CFC5F02ECD399A
:0F04E300FEE43CFCEAA42DCE35F0FDE43CFC2207
:1004F20075F008758200EF2FFFEE33FECD33CDCCC1
:1005020033CCC58233C5829BED9AEC99E582984043
:100512000CF582EE9BFEED9AFDEC99FC0FD5F0D620
:10052200E4CEFBE4CDFAE4CCF9A88222B800C1B94A
:100532000059BA002DEC8BF084CFCECDFCE5F0CB88
:10054200F97818EF2FFFEE33FEED33FDEC33FCEBC1
:1005520033FB10D703994004EB99FB0FD8E5E4F97C
:10056200FA227818EF2FFFEE33FEED33FDEC33FC69
:10057200C933C910D7059BE99A4007EC9BFCE99A5D
:10058200F90FD8E0E4C9FAE4CCFB2275F010EF2FA2
:10059200FFEE33FEED33FDCC33CCC833C810D707A2
:1005A2009BEC9AE899400AED9BFDEC9AFCE899F8DD
:0E05B2000FD5F0DAE4CDFBE4CCFAE4C8F92270
:102BBB00C2D5E830E70FB2D5E4C39BFBE49AFAE445
:102BCB0099F9E498F8EC30E717B2D5122BF112050E
:102BDB002EE4C39BFBE49AFAE499F9E498F880039A
:102BEB0012052E30D50DE4C39FFFE49EFEE49DFD40
:042BFB00E49CFC2238
:0E05C000C3E49FFFE49EFEE49DFDE49CFC224C
:1005CE00E8600FECC313FCED13FDEE13FEEF13FF0B
:0305DE00D8F1222F
:1005E100E86010ECA2E713FCED13FDEE13FEEF1330
:0405F100FFD8F0221D
:1005F500E8600FEFC333FFEE33FEED33FDEC33FC64
:03060500D8F12207
:10060800E493FC740193FD740293FE740393FF2238
:0C061800ECF0A3EDF0A3EEF0A3EFF02255
:0C062400A42582F582E5F03583F58322E1
:060630008A838982E47355
:10063600E709F60870FA8046E709F20870FA803E84
:1006460088828C83E709F0A370FA807EE309F608B6
:1006560070FA8076E309F20870FA806E88828C83DD
:10066600E309F0A370FA806289828A83E0A3F60820
:1006760070FA805689828A83E0A3F20870FA804A6B
:1006860080D280FA80C680D4806580F28031801066
:1006960080A680EA809A80A880DA80E280CA8031CB
:1006A60089828A83ECFAE493A3C8C582C8CCC58341
:1006B600CCF0A3C8C582C8CCC583CC70E9800D89AF
:1006C600828A83E493A3F60870F9ECFAA9F0EDFBAD
:1006D6002289828A83ECFAE0A3C8C582C8CCC58386
:1006E600CCF0A3C8C582C8CCC583CC70EA80DD89AE
:1006F600828A83E493A3F20870F980CE88F0ED2411
:1007060002B4040050C4F582EB2402B4040050BACB
:090716002323458223900686731B
:10318A00E4FFFE12074B600C0FEF70010E09E970A5
:05319A00F20A80EF22A3
:1030DC00E94A4B70012212074BFF6D700122EF7011
:0C30EC0004FBFAF92209E970ED0A80EA01
:102598008B0D8A0E890FE94A4B700985420D8543D8
:1025A8000E85440FE50F450E450D7002802C8510F1
:1025B80016851117851218AB0DAA0EA90F122874CB
:1025C800EF250FF50FEE350EF50EAB0DFAA90F122C
:1025D800074B700AF542F543F544FBFAF9228510DA
:1025E80016851117851218AB0DAA0EA90F1228D53A
:1025F8008B428A438944EA494B600EE41203CE04B5
:102608002544F544E43543F543AB0DAA0EA90F2242
:102163008B0D8A0E890FAB0DAA0EA90F12074BFF19
:102173001231B3500D7401250FF50FE4350EF50E32
:1021830080E4D211AB0DAA0EA90F12074BFF642BEB
:102193006004EFB42D1BAB0D050FE50FAA0E700203
:1021A300050E14F912074B642D6003D38001C3920B
:1021B30011E4F510F511AB0DAA0EA90F12074BFF91
:1021C30012324B5036AB0DAA0EA90F12074BFF3339
:1021D30095E0FEEF24D0FBEE34FFFAAE10AF117C96
:1021E300007D0A120764EF2BF511EE3AF510740126
:1021F300250FF50FE4350EF50E80BB301106AE103A
:0E220300AF118009C3E49511FFE49510FE228F
:10071F00EF4E6012EF60010EEDBB010B89828A83F1
:10072F00F0A3DFFCDEFA2289F05007F709DFFCA9FE
:0C073F00F022BBFEFCF309DFFCA9F02255
:10248D00022800E493A3F8E493A34003F68001F23D
:10249D0008DFF48029E493A3F85407240CC8C33350
:1024AD00C4540F4420C8834004F456800146F6DF1F
:1024BD00E4800B010204081020408090154DE47E4D
:1024CD00019360BCA3FF543F30E509541FFEE49314
:1024DD00A360010ECF54C025E060A840B8E493A3DB
:1024ED00FAE493A3F8E493A3C8C582C8CAC583CA06
:1024FD00F0A3C8C582C8CAC583CADFE9DEE780BEBE
:0116BA00002F
:10074B00BB010689828A83E0225002E722BBFE02AC
:09075B00E32289828A83E49322DF
:10076400EF8DF0A4A8F0CF8CF0A428CE8DF0A42EA9
:02077400FE2263
:0F324B00EFC394304007EF943A50028001C32242
:1031B300EFC394094005EF940E4003BF2003D3806F
:0331C30001C32223
:102874008B138A148915E4F519F51AE4FEFFAB16D7
:10288400AA17A9188F828E831203A1FD6013AB13BC
:10289400AA14A91512074B6D60070FBF00010E8023
:1028A400DDAB16AA17A9188F828E831203A17002BA
:1028B400801A051AE51A70020519AB130515E515FA
:1028C40070020514F9AA1412074B70AFAE19AF1AAF
:0128D40022E1
:1028D5008B138A14891585161985171A85181BAB4C
:1028E50019AA1AA91B12074BFF6019AB13AA14A941
:1028F5001512074B6F600D7401251BF51BE4351A86
:10290500F51A80DBAB19AA1AA91B12074B6007AB96
:1029150013AA14A91522AB130515E515AA147002FF
:0D292500051414F912074B70ADFBFAF922EE
:00000001FF
