:1022D20000A8C0003F065B4F666D7D077F6F000858
:1022E20040014148BF86DBCFE6EDFD87FFEF777FF8
:1022F200393F79717D76061E383F736D3E6E5F7C85
:10230200585E7B716F741038545C7367506D781C23
:012312006E5C
:1020C3007F9B12240F1225A812258B7D07E4FF1294
:1020D30026A4E4F5437F607E09FDFC121B5675447C
:1020E30000754500754656E4F547F548FB7A0079D7
:1020F300567D01FC1224407BFF7A22794A7F071226
:102103001F807BFF7A2579C37F03121F801226E08D
:052113001223D180FB46
:09269B008B88898C88898F88895D
:1017CF0052007A8686008686008686008686008688
:0917DF00860086860041006F09B6
:03002B000226D4D6
:0626D40053BCEFD20F32EF
:0214020015597A
:10140400200F030215ABC20F90006EE0B409004038
:101414000302158D90141FF8282873021466021411
:101424003A02144C02147802143A02144C02148F37
:1014340002143A02144CAFBDEFFEADBE7C00E42DA5
:10144400FFEC3E900070803CAFBDEFFEADBE7C0073
:10145400E42DFFEC3E900072F0A3EFF0751A010248
:101464001593AFBDEFFEADBE7C00E42DFFEC3E90C6
:1014740000748010AFBDEFFEADBE7C00E42DFFEC28
:101484003E900076F0A3EFF0021593AFBDEFFEADF2
:10149400BE7C00E42DFFEC3E900078F0A3EFF090CA
:1014A4000078E0FEA3E07807CEC313CE13D8F9A8E2
:1014B40059F6C394065013A859E675F003A4247A88
:1014C400F582E43400F583E014F090006FE014F04A
:1014D40060030215937409F0A859E4F6A859E6FFCD
:1014E400C394064003021593EF75F003A4247AF520
:1014F40082E43400F583E0C39480502AE6FF75F05B
:1015040003A4247BF582E43400F583E0D394804083
:1015140040EF75F003A4247CF582E43400F5837471
:1015240001F0F51B802BA859E6FF75F003A4247B7A
:10153400F582E43400F583E0C394805014EF75F031
:1015440003A4247CF582E43400F5837402F0751B53
:1015540001A859E6FF75F003A4247AF582E4340067
:10156400F583E0FEEF75F003A4247BF582E43400F8
:10157400F583EEF0E675F003A4247AF582E43400F2
:10158400F5837486F0060214E090006E74FFF09008
:10159400006EE0D39407400374FFF090006EE00403
:0715A400F090269B93F5BCBB
:0315AB00055922BD
:02265900155911
:09265B00A859A61BE4F51BE6FFDB
:03266400055922F3
:02266700155903
:09266900A859A61AE4F51AE6FFCF
:03267200055922E5
:10240F008F9D75BC88439720D2AD90004574FFF027
:10241F00A37414F0A37402F0A374FFF0A37426F056
:10242F00A37459F0A374FFF0A37426F0A37467F09C
:01243F00227A
:0726BF007B017A0079702213
:10220400C3EF64809480403BD3EF64809485503363
:10221400EFFD3395E0FC90007C75F003ED120DB9F1
:10222400EC75F003A42583F583E0FE90007C75F043
:1022340003ED120DB9EC75F003A42583F583E4F0E6
:05224400AF06227F033C
:012249002272
:1019AE00E4F5809000ACE0FFB40800505F9019C2DF
:1019BE00F82828730219DA0219E00219E60219EC66
:1019CE000219F20219FC021A06021A10C2A3C2A2CE
:1019DE008016C2A3C2A2801AC2A3C2A2801EC2A334
:1019EE00C2A28022C2A3D2A2C2A1C2A08020C2A340
:1019FE00D2A2C2A1D2A08016C2A3D2A2D2A1C2A04C
:101A0E00800CC2A3D2A2D2A1D2A08002D2A3C3EFD5
:101A1E006480948850299000ACE0FF3395E0FE740A
:101A2E00A32FF58274003EF583E0FF3395E0FE743C
:101A3E00D62FF58274223EF583E493F580801E90B6
:101A4E0000ACE0FFB408133395E0FE74A32FF582CB
:101A5E0074003EF583E0F5808003E4F5809000A2EB
:101A6E00E0FF9000ACE004FEF0D3EF6480F8EE648B
:101A7E0080984014E0D36480948850047408F02257
:091A8E009000A1E09000ACF022F0
:1025A800E4F5937594FF5395F043960F90002A74C1
:0B25B800FFF0A37419F0A374AEF02232
:0926A4009000A1EFF0A3EDF0227B
:10254B009000A3EFF0A3EDF0A3EBF0A3E542F0A313
:10255B00E543F0A3E544F0A3E545F0A3E546F022FF
:0626DA009000ABEFF022BE
:1017E8000158004900AE94940094940094940041E8
:0317F80000AD1E23
:0215AE001559CD
:1015B00020B2069000AEE014F020B3069000B1E037
:1015C00014F02097069000B4E014F09000ADE01401
:1015D000F060030216CE741EF0A859E4F6A859E68E
:1015E000FFC36480948340030216CEEF3395E0FE80
:1015F0009000AE75F003EF120DB9EE75F003A4255F
:1016000083F583E0C3948050399000AF75F003EF09
:10161000120DB9EE75F003A42583F583E0D3948011
:10162000405AE6FF3395E0FE9000B075F003EF12EC
:101630000DB9EE75F003A42583F5837401F0F55818
:10164000803AA859E6FF3395E0FE9000AF75F003AD
:10165000EF120DB9EE75F003A42583F583E0C39472
:101660008050199000B075F003EF120DB9EE75F0CF
:1016700003A42583F5837402F0755801A859E6FF89
:10168000FD3395E0FC9000AE75F003ED120DB9EC62
:1016900075F003A42583F583E0FE9000AF75F00399
:1016A000ED120DB9EC75F003A42583F583EEF0EF90
:1016B0003395E0FE9000AE75F003EF120DB9EE75B4
:0E16C000F003A42583F5837494F0060215DD73
:0316CE0005592299
:022675001559F5
:09267700A859A658E4F558E6FF45
:03268000055922D7
:10258B0090003074FFF0A37426F0A37475F09000E4
:0D259B002D74FFF0A37415F0A374AEF022B0
:10231300EF600764016003BF0233EFFD3395E0FC18
:102323009000B075F003ED120DB9EC75F003A42520
:1023330083F583E0FE9000B075F003ED120DB9EC68
:0F23430075F003A42583F583E4F0AF06227F0332
:012352002268
:1017FB004100000A4100290A41006D0A040E000055
:10180B0000000114004600670000FFFF8FFFC10DB1
:10181B00C105C108C101C10E60240005FF26F1FFFF
:10182B0026F1FF26F1FF26F1FF26F1FF26F1FF2619
:10183B00F1FF26F1FF26F1FF26F1FF26F1FF26F13E
:10184B006036002AFF26F1FF26F1FF26EBFF26F17B
:10185B00FF26EBFF26F1FF26EBFF26F1FF26F1FF1C
:10186B0026F1FF26EBFF26EBFF26EBFF26EBFF26F1
:0A187B00F1FF26F1FF26F1FF26F130
:0126F10022C6
:0326EB007F00224B
:1021BD00438E805389F07BE07A2879017800902254
:1021CD00D2120D9D12228EEFF404F58A7BE07A284F
:1021DD00790178009022D2120D9D12228EC3E49FB8
:1021ED00FFE49EFE74019DFDE49CFC7808120D89B0
:0721FD008F8CD28CD2A922C5
:03000B0002216B64
:04216B00C0E0C0D040
:10216F00D5080A75084C300D020514D20DA2037262
:10217F00045036150AE50A7030850C0AD207300A6A
:10218F0017E50D6007150D438F01801D538FFEC29C
:10219F00B5D51615C20A8011050BE50BD394064071
:0921AF0008C203E5136002D20628
:0521B800D0D0D0E032A0
:10211800300E47C20E9022D2120D9D7810120D89F2
:102128008E1C8F1D900003E0FEA3E0FFE4FCFD7B06
:1021380019FAF9F8120C4BC006C007AE1CAF1DAB5C
:1021480007AA06E4F9F8D007D00612228E780312FF
:102158000D89900065EEF0A3EFF0900065E0FEA316
:02216800E0FF96
:01216A002252
:0926AD00900067E0FEA3E0FF22AB
:0926B600900067EEF0A3EFF022A2
:1026390090006BEEF0A3EFF0900069ECF0A3EDF0E1
:01264900226E
:0326EE00C2B42251
:03003B00021C0B99
:101C0B00C0E0C083C082C0D075D000C004C005C086
:031C1B0006C007F9
:101C1E0030DF04C2DF807D30DA04C2DA807630D95C
:101C2E003DC2D9AFFBEFFEADEB7C00E42DFFEC3EE9
:101C3E0020000E900001F0A3EFF075DB11D20080B2
:101C4E0053FE900001E0FCA3E0FDC3EF9DFFEE9C70
:101C5E00A3F0A3EFF075DB00C200D20E803630D8B1
:101C6E0033C2D8900067E07002A3E06022B2B49055
:101C7E000069E0FEA3E0F5EAEEF5FAA3E0FEA3E0CC
:101C8E00FF90006AE02FF0900069E03EF08005C200
:041C9E00B453DAFE63
:101CA200D007D006D005D004D0D0D082D083D0E0E7
:011CB20032FF
:0626E0001221BDD2AF2261
:101E77003004047F0180027F00200A047E01800273
:101E87007E00EE5F6074E515C39509506830023631
:101E9700750D01E515131313541FAB17AA18A919CC
:101EA700F582758300120B5BFFE515540704FEEFFF
:101EB700A806088002C333D8FC30D70575160380FF
:101EC7002F751601802AAB17AA18A91975F002E514
:101ED70015A4F58285F083120B5BF50DE51575F0FA
:101EE70002A429F9EA35F0FA900001120B5BF51606
:0A1EF7000515D20A22C204438F1021
:011F010022BD
:1018C100900000E014F0701F740AF0D20590002916
:1018D100E014F07012740AF0D20890006DE014F078
:1018E1007005740AF0D20190002AA3E0FAA3E0F98E
:1018F100120DC590002DA3E0FAA3E0F9120DC590D9
:101901000039A3E0FAA3E0F9120DC5900045A3E068
:10191100FAA3E0F9120DC5900054A3E0FAA3E0F98F
:10192100120DC590005DA3E0FAA3E0F9120DC59078
:10193100004BA3E0FAA3E0F9120DC5EF600C900093
:101941001DA3E0FAA3E0F9120DC590004EA3E0FA41
:10195100A3E0F9120DC5EF600E900020A3E0FAA3F9
:10196100E0F9120DC5D20BE512D394004016D51241
:101971003030090C900023A3E0FAA3E0F9120DC561
:10198100D20C801D900051A3E0FAA3E0F9120DC51D
:10199100EF600E900023A3E0FAA3E0F9120DC5D287
:0D19A1000C900005A3E0FAA3E0F9020DC5CB
:101D580090003FA3E0FAA3E0F9120DC5900042A35A
:101D6800E0FAA3E0F9120DC5900033A3E0FAA3E06E
:101D7800F9120DC5900008A3E0FAA3E0F9120DC509
:101D8800900030A3E0FAA3E0F9120DC5EF600C90C3
:101D98000011A3E0FAA3E0F9120DC5900036A3E004
:101DA800FAA3E0F9120DC5EF600C900017A3E0FA52
:101DB800A3E0F9120DC5900048A3E0FAA3E0F912D8
:101DC8000DC5EF600C90001AA3E0FAA3E0F9120D1C
:101DD800C530060EC206900026A3E0FAA3E0F91269
:031DE8000DC52204
:1023530090000BA3E0FAA3E0F9120DC590003CA393
:10236300E0FAA3E0F9120DC5EF600C900014A3E0AE
:10237300FAA3E0F9120DC5900057A3E0FAA3E0F920
:0F238300120DC590005AA3E0FAA3E0F9020DC5B0
:1024CE00AF11AE10AD0FAC0E900060120DAD9000BE
:1024DE0064E514F0E4F511F510F50FF50EF5149012
:0B24EE00000EA3E0FAA3E0F9020DC508
:1023D100300705C207121E77300D05C20D1218C154
:1023E100300505C205121D58300805C208122353D5
:1023F100300105C2011224CEE5112401F511E435A5
:0E24010010F510E4350FF50FE4350EF50E2240
:101F80008B3F8A408941EFB40C005070901F93F84A
:101F9000282873021FB7021FBC021FC1021FC602FE
:101FA0001FCB021FD0021FD5021FDA021FDF021F44
:101FB000E4021FE9021FEE900005803590000880C2
:101FC0003090000B802B90000E8026900011802115
:101FD000900017801C900014801790001A801290B7
:101FE000001D800D90002080089000238003900049
:0D1FF00026E53FF0A3E540F0A3E541F02217
:0726C6007B017A007960221C
:1018850055008C0000000000000000000000000072
:0818950000000100000000004A
:0300430002123076
:10123000C0E0C0F0C083C082C0D075D000C000C084
:1012400001C002C003C004C005C006C007E59A3053
:10125000E142539AFD900091E0FEA3E0FFC39000AD
:1012600090E09F90008FE09E501F90008CE0FBA3C9
:10127000E0FAA3E0F9A3E475F001120C3585F082E1
:10128000F583120B5BF59B800B900093E4F0E51F58
:101290006002C2B7E59A20E0030213E7539AFE30DA
:1012A0000C0BC20C900099E4F0A3F0D209E51F6486
:1012B000026003021341900097E0FEA3E0FFA3E069
:1012C000FCA3E0FDC39FEC9E5071900094E0FBA353
:1012D000E0FAA3E0F98D828C83E59B120B889000E5
:1012E0009FE0FEA3E0FFC3ED9FEC9E50409000976F
:1012F000E0FCA3E0FDEF9DEE9C503290009CE0FBF3
:10130000A3E0FAA3E0F9900099E0FEA3E0FFF582E4
:101310008E83120B5BFD900094E0FBA3E0FAA3E048
:10132000F98F828E83120B5B6D6002C20990009A66
:10133000E004F07006900099E004F0851E1202139C
:10134000E7900097E0FEA3E0FFA3E0FCA3E0FDC36D
:101350009FEC9E5077900094E0FBA3E0FAA3E0F9A5
:101360008D828C83E59B120B8890009FE0FEA3E0AA
:10137000FFC3ED9FEC9E5046900097E0FCA3E0FD7C
:10138000EF9DEE9C503890009CE0FBA3E0FAA3E0B8
:10139000F9900099E0FEA3E0FFF5828E83120B5BCB
:1013A000FD900094E0FBA3E0FAA3E0F98F828E8326
:1013B000120B5B6D600890009974FFF0A3F0900031
:1013C0009AE004F07006900099E004F0900097E035
:1013D000FEA3E0FFC390009AE09F900099E09E403A
:1013E0000690009B7401F0D007D006D005D004D041
:1013F00003D002D001D000D0D0D082D083D0F0D0A2
:02140000E032D8
:02264A00155920
:0A264C0090009BE0A859F6FFE4F0AF
:0326560005592201
:0126F20022C5
:101B56008F428E418D408C3F85431FE51F7002806A
:101B66000343BA01E51F701790005D74FFF0A3747C
:101B760026F0A374F2F0E4F5DBD290D2918020C275
:101B8600B7AB42AA41A940A83FE47F407E9CFDFC3A
:101B9600120CD68F1EE51E7003751E01851E12756A
:101BA6009A10E47B04FAF9F89022D2120D9D120CD9
:101BB600D6AB42AA41A940A83F120CD6EFF404F5D1
:101BC600D7E47B04FAF9F89022D2120D9D120CD6B6
:101BD600AB42AA41A940A83F120CD6C3E49FFFE43A
:101BE6009EFE74019DFDE49CFC7808120D768FD64E
:101BF600438E1443AF0190005174FFF0A37426F096
:051C0600A3744AF02266
:10244000900094EBF0A3EAF0A3E9F0A3ECF0A3ED85
:10245000F090009FE547F0A3E548F090009CE5442C
:10246000F0A3E545F0A3E546F0D20CE490009BF024
:012470002249
:10247100900093E0702690008CEBF0A3EAF0A3E9C2
:10248100F0E4A3F0A3F0A3ECF0A3EDF0A37401F04A
:0F249100E51F6002D2B7439A027F02227F032227
:0B269000900093E07002FF227F012207
:10189D00022606C9072839010000000000C1100307
:0418AD002300000014
:101F02001226E68E2F8F3020103EAC26AD27E4122B
:101F120009AB7466FBFAF97840120800C004C005E8
:101F2200C006C007AC2FAD30EC1209ABA804A9055E
:101F3200AA06AB07D007D006D005D00412090912B1
:101F420009E48E3F8F408006753F00754014AE3F16
:101F5200AF407C007D3C120BAA8F29AE3FAF407C84
:101F6200007D3C120BAA8D2878417C007D007B000D
:0E1F72007A0079287E007F07120B350225F6D3
:1024F9001226CD78287C007D007E007F07120B35DF
:10250900E52975F03CA4AEF07C002528F524EC3EC5
:09251900F523A210E433F525229C
:101FFD001226CD78287C007D007E007F07120B35E0
:10200D00E529700BE5287007B210121F02800DE54F
:10201D0028700775283B15298002152878417C000A
:10202D007D007B007A0079287E007F07120B351228
:10203D0025F6E52975F00A84F542E52975F00A843F
:10204D0085F04375440AE52875F00A84F545E528C1
:0F205D0075F00A8485F0467B0AE4FDFF02254BEF
:0418B10002500038A9
:0526E600AE50AF5122CF
:10239200AE50AF517C007D64120BFFAB07AE50AF65
:1023A200517C007D0A120BFF7C007D0A120BFF8D0F
:1023B200458B4475422E75432DAE50AF517C007D46
:0F23C2000A120BFF8D467B2E7D367F2702254B9F
:1010340000EF00C500AF00A00096008E008700817D
:10104400007C007800740071006D006B006800651E
:1010540000630061005F005D005B005A00580056A9
:1010640000550054005200510050004E004D004CF9
:10107400004B004A00490048004700460045004430
:1010840000430043004200410040003F003F003E57
:10109400003D003D003C003B003A003A0039003975
:1010A400003800370037003600360035003400348D
:1010B40000330033003200320031003100300030A0
:1010C400002F002F002E002E002D002D002C002CB0
:1010D400002B002B002A002A0029002900290028BF
:1010E40000280027002700260026002600250025CA
:1010F40000240024002400230023002200220022D4
:1011040000210021002000200020001F001F001FDC
:10111400001E001E001D001D001D001C001C001CE4
:10112400001B001B001B001A001A001A00190019EA
:1011340000180018001800170017001700160016F2
:1011440000160015001500150014001400140013F7
:1011540000130013001200120012001100110010FD
:1011640000100010000F000F000F000E000E000E04
:10117400000D000D000D000C000C000C000B000B0A
:10118400000B000A000A0009000900090008000811
:101194000008000700070007000600060005000518
:1011A4000004000400030003000300020002000125
:1011B4000001000100000000FFFFFFFFFFFFFFFE32
:1011C400FFFEFFFDFFFDFFFCFFFCFFFBFFFBFFFA43
:1011D400FFFAFFF9FFF9FFF8FFF8FFF7FFF7FFF653
:1011E400FFF6FFF5FFF5FFF4FFF3FFF3FFF2FFF265
:1011F400FFF1FFF0FFF0FFEFFFEEFFEDFFEDFFEC7F
:10120400FFEBFFEAFFE9FFE8FFE7FFE6FFE5FFE4A6
:10121400FFE3FFE2FFE0FFDFFFDDFFDCFFDAFFD8E3
:0C122400FFD5FFD2FFCEFFC9FFC101695A
:101A97001226BF78337C007D007E007F0A120B354B
:101AA70085373D85383EAE3DE53E7802CEA2E71349
:101AB700CE13D8F8F53E8E3D25E0FFE53D33FE74A5
:101AC700342FF58274103EF583E493F53174019356
:101AD700F532C3E53164809480502DC3E49532FF1D
:101AE700E49531FE7C007D0A120BFF7C007D0A1213
:101AF7000BFF8D4575420A75430A75440CC3E4957F
:101B070032FFE49531FE8034AE31AF327C007D6424
:101B1700120BFF7C007D0A120BFFAB05AE31AF3213
:101B27007C007D0A120BFF7C007D0A120BFF8D459E
:101B37008B4475420A75430AAE31AF327C007D0A89
:0F1B4700120BFF8D467B0A7D0A7F0A12254B2267
:0418B50002520000DB
:10224A007F051222048F3F7F02122204E53FB40168
:10225A00180553E55370020552D39402E55264807F
:10226A0094804005E4F552F553BF0117E553155321
:10227A0070021552C3E5526480948050067552006C
:03228A0075530287
:01228D00222E
:1025C300E5527015E55314600A14600A2402700979
:0A25D300021FFD021A971223922244
:100DCB00E6BA81E6B9BEE99587E588B0E4BA86EF65
:100DDB00BC8CE69CACE7AB99E4B8BAE68DA2E4B95F
:100DEB0098E7AB99EFBC8CE58FAFE68DA2E4B99891
:100DFB0032E58FB7E7BABFE38082E4B88BE8BDA6D4
:100E0B00E697B6EFBC8CE8AFB7E6B3A8E6848FE500
:100E1B008897E8BDA6E4B88EE7AB99E58FB0E4B947
:100E2B008BE997B4E79A84E997B4E99A99E38082BE
:100E3B00576520617265206172726976696E6720F1
:100E4B0061742079696E6777616E7A68656E2C20A4
:100E5B00546869732073746174696F6E20697320B1
:100E6B0061207472616E736665722073746174694C
:100E7B006F6E2C20616E6420796F752063616E201C
:100E8B007472616E7366657220746F206C696E6527
:100E9B002074776F2E20506C6561736520676574C5
:100EAB0020726561647920666F7220796F7572208C
:100EBB006172726976616C20616E642074616B651E
:100ECB0020796F75722062656C6F6E67696E6773E0
:100EDB002E20506C65617365206D696E642074689B
:100EEB006520706C6174666F726D2067617020771E
:100EFB0068656E20616C69676874696E672E00E8BF
:100F0B00BDA6E997A8E58DB3E5B086E585B3E9976E
:100F1B00ADEFBC8CE8B0A8E998B2E5A4B9E4BCA4E9
:100F2B00E3808254686520646F6F7220697320635D
:100F3B006C6F73696E672E00E69CACE6ACA1E5881E
:100F4B0097E8BDA6E5BC80E5BE803AE69D9CE5AE84
:100F5B00B6E59DAAE3808254686973207472616957
:100F6B006E20697320626F756E6420666F722064E9
:100F7B00756A696170696E672EE4B88BE4B880E7B7
:100F8B00AB993AE6BA81E6B9BEE99587E38082E987
:100F9B009C80E68DA2E4B99832E58FB7E7BABFE73C
:100FAB009A84E4B998E5AEA2E8AFB7E59CA8E6BA97
:100FBB0081E6B9BEE99587E4B88BE8BDA6E38082EC
:100FCB00546865206E6578742073746174696F6EF4
:100FDB002069732079696E6777616E7A68656E2E0A
:100FEB0020466F722070617373656E676572732034
:100FFB007472616E73666572696E6720746F2074AC
:10100B006865206C696E652074776F2C20706C6539
:10101B0061736520657869742061742079696E67E6
:09102B0077616E7A68656E2E0093
:0318B900015700D4
:0D268300E556B4410475570122E4F55722D5
:10206C001224F9852354852455E5577049E55564A8
:10207C000F45547010E525700C7BFF7A0D79CB7DE4
:10208C003F7C01802EE555640745547011E525B45D
:10209C00010C7BFF7A0F790A7D397C008015E555A0
:1020AC0045547012E525B4010D7BFF7A0F79437D01
:0620BC00F17C001224710A
:0120C20022FB
:0418BC004100BF0127
:1025DD00C295E4FEEF1392CC000000D29500EFC33C
:0825ED0013FFC2950EBE08ECBD
:0125F50022C3
:10260F00E4FEEFC313FF30CC03430780D2950000E5
:07261F0000C2950EBE08EB9E
:012626002291
:1024A000F07F851224B3A3EFF07F871224B3A3EF4C
:0324B000F07F8931
:1024B300C296000000C295000000D296001225DDEE
:0A24C30012260FD295000000C29609
:0124CD0022EC
:03256B00A3E0FDED
:10256E00C296000000C295000000D296001225DD32
:0D257E00AF051225DDD295000000C29622A7
:0726CD007B017A0079B822BD
:1025F60078B87C007D017B007A0079417E007F07F8
:09260600120B35E49000BFF02234
:10262700EFD3941F5009EF25E044C1FF0224B37F85
:0226370001227E
:10252200AC07AB05ECD3941F501CE4FD7F8E122543
:102532006EEC25E044C0FFAD0312256E7D807F8ED8
:0925420012256E7F00227F0122A8
:021CB3001559C1
:101CB5009000BFE060447F811224B3A859EFF690ED
:101CC50000B8E06F7003021D55A859E6F07F831236
:101CD50024B3A859EFF6A3E06F6075A859E612245E
:101CE500A0A3EFF07F8D1224B39000BEEFF07F8BA1
:101CF5001224B39000BDEFF080569000B7E0FF04CA
:101D0500F0EFC3940A4049E4F09000BF04F0E4FD0D
:101D15007F8E12256E9000B8E0FD7F8012256E7FC4
:101D25008212256B7F8412256BA3E0FD7F86122529
:101D35006EA3E0FD7F8812256EA3E0FD7F8A122544
:101D45006EA3E0FD7F8C12256E7D807F8E12256E41
:031D55000559220B
:1016D1007F811224B39000B8EFF07F831224B3A36B
:1016E100EF1224A0A3EFF07F8B1224B3A3EFF07FBE
:1016F1008D1224B3A3EFF0E4FD7F8E12256E7F1EC1
:10170100122627EF64A560047F0180027F0090000C
:10171100B8E05480FEA3E0D3945940047D018002D7
:101721007D00ED4EFE9000BAE0D394A440047D010B
:1017310080027D00ED4EFE9000BBE0D39431400469
:101741007D0180027D00ED4EFE9000BCE0D394123D
:1017510040047D0180027D00ED4EFE9000BDE0D38E
:10176100940740047D0180027D00ED4EFE9000BE95
:10177100E0D3949940047D0180027D00ED4E4F60DD
:101781003078417C007D007B007A0079497E007FC2
:1017910007120B351225F67DA57F1E12252278B87A
:1017A1007C007D017B007A0079497E007F07120B66
:1017B100357DA97F9012256E7D807F8E12256E90DA
:0E17C100005A74FFF0A3741CF0A374B3F0225E
:10080000EC4D6011E8497017ED33EC3304600DE4F2
:10081000FCFFFEFD22E933E8330470F8020A5012AF
:100820000A1B58046009E4CC2481500628500902B0
:100830000A5A284003020A57C0E0EB4A7044B980C4
:1008400006D0E0FB020A46EF4E701CBD8008EBFFAD
:10085000EAFEE9FD80EBE98DF0A4FEE5F00208E98F
:10086000E9CDF9EAFEEBFFEF89F0A4FCE5F0CE89D3
:10087000F0A42EFFE435F0CD89F0A42DFEE435F090
:100880008067EF4E7005BD80D780C3EF8BF0A4ACBE
:10089000F0EE8BF0A42CFCE435F0F8EF8AF0A42CF9
:1008A000E5F038FCE433CB8DF0A42CFCE5F03BF80C
:1008B000EE8AF0A42CFCE5F038F8E433CF89F0A4FC
:1008C0002CFCE5F038CF3400CE89F0A42FFFE5F002
:1008D0003EFEE433C98DF0A42EFEE5F039CD8AF05A
:1008E000A42FFFE5F03EFEE43DFD33D0E0FB5007D2
:1008F0000BBB000F020A5AEC2CFCEF33FFEE33FE69
:06090000ED33FD020A3296
:10090600020A5AEC5D046005E859047003020A50B5
:10091600120A1B580460F6EC4860F2EC7004FDFE07
:10092600FF22C860DB2481C85009C39860025006C4
:10093600020A579850CAF582E9294B4A7005AB82DC
:10094600020A4675F0007C1A7880C3EF9BEE9AED9A
:1009560099400DC3EF9BFFEE9AFEED99FDE842F03C
:10096600DC23ACF0D0E0FFD0E0FED0E0FDAB82208F
:10097600E7101BEB60BAEC2CFCEF33FFEE33FEED19
:1009860033FD020A32E803F830E705C0F075F000DF
:10099600EF2FFFEE33FEED33FD40B830E7C280AAFD
:1009A60075F020800E75F010800575F0087D007ECC
:1009B600007F003392D530D503120D68EC3340101A
:1009C600EF33FFEE33FEED33FDEC33FCD5F0ED22D5
:0E09D600E5F0247EA2D513CC92E7CDCEFF2211
:1009E400EDD2E7CD33EC3392D524814006E4FFFE0B
:1009F400FDFC22FCE4CFCECDCC24E0501174FF806A
:100A0400EDC3CC13CCCD13CDCE13CECF13CF047006
:070A1400F030D5DE020D6891
:100A1B00E9D2E7C933E833F892D5EDD2E7CD33EC21
:070A2B0033FC5002B2D5229A
:100A3200EC30E7100FBF000C0EBE00080DBD000425
:100A42000BEB6014A2D5EB13FCED92E7FD2274FFD1
:100A5200FCFDFEFF22E480F8A2D574FF13FC7D802A
:030A6200E480EF3E
:03000000021DEBF3
:0C1DEB00787FE4F6D8FD758159021E32A5
:100A6500E709F608DFFA8046E709F208DFFA803E73
:100A750088828C83E709F0A3DFFA8032E309F60860
:100A8500DFFA8078E309F208DFFA807088828C83C8
:100A9500E309F0A3DFFA806489828A83E0A3F6087C
:100AA500DFFA805889828A83E0A3F208DFFA804C56
:100AB50080D280FA80C680D4806980F2803380102D
:100AC50080A680EA809A80A880DA80E280CA803396
:100AD50089828A83ECFAE493A3C8C582C8CCC5830E
:100AE500CCF0A3C8C582C8CCC583CCDFE9DEE780DE
:100AF5000D89828A83E493A3F608DFF9ECFAA9F05D
:100B0500EDFB2289828A83ECFAE0A3C8C582C8CCB2
:100B1500C583CCF0A3C8C582C8CCC583CCDFEADECB
:100B2500E880DB89828A83E493A3F208DFF980CC2D
:100B350088F0EF60010E4E60C388F0ED2402B40426
:100B45000050B9F582EB2402B4040050AF232345CD
:060B55008223900AB57333
:100B5B00BB010CE58229F582E5833AF583E022504F
:100B6B0006E92582F8E622BBFE06E92582F8E22299
:0D0B7B00E58229F582E5833AF583E49322B3
:100B8800F8BB010DE58229F582E5833AF583E8F0A3
:100B9800225006E92582C8F622BBFE05E92582C84F
:020BA800F22237
:100BAA00BC000BBE0029EF8DF084FFADF022E4CC2F
:100BBA00F875F008EF2FFFEE33FEEC33FCEE9DECF8
:100BCA00984005FCEE9DFE0FD5F0E9E4CEFD22ED3E
:100BDA00F8F5F0EE8420D21CFEADF075F008EF2F88
:100BEA00FFED33FD4007985006D5F0F222C398FD79
:050BFA000FD5F0EA2216
:100BFF00C2D5EC30E709B2D5E4C39DFDE49CFCEE11
:100C0F0030E715B2D5E4C39FFFE49EFE120BAAC3D3
:100C1F00E49DFDE49CFC8003120BAA30D507C3E4CE
:060C2F009FFFE49EFE227F
:100C3500A3F8E0C5F025F0F0E58215827002158372
:060C4500E0C838F0E822CF
:100C4B00E88FF0A4CC8BF0A42CFCE98EF0A42CFC48
:100C5B008AF0EDA42CFCEA8EF0A4CDA8F08BF0A4C6
:100C6B002DCC3825F0FDE98FF0A42CCD35F0FCEB25
:100C7B008EF0A4FEA9F0EB8FF0A4CFC5F02ECD39EA
:0F0C8B00FEE43CFCEAA42DCE35F0FDE43CFC2257
:100C9A0075F008758200EF2FFFEE33FECD33CDCC11
:100CAA0033CCC58233C5829BED9AEC99E582984094
:100CBA000CF582EE9BFEED9AFDEC99FC0FD5F0D671
:100CCA00E4CEFBE4CDFAE4CCF9A88222B800C1B99B
:100CDA000059BA002DEC8BF084CFCECDFCE5F0CBD9
:100CEA00F97818EF2FFFEE33FEED33FDEC33FCEB12
:100CFA0033FB10D703994004EB99FB0FD8E5E4F9CD
:100D0A00FA227818EF2FFFEE33FEED33FDEC33FCB9
:100D1A00C933C910D7059BE99A4007EC9BFCE99AAD
:100D2A00F90FD8E0E4C9FAE4CCFB2275F010EF2FF2
:100D3A00FFEE33FEED33FDCC33CCC833C810D707F2
:100D4A009BEC9AE899400AED9BFDEC9AFCE899F82D
:0E0D5A000FD5F0DAE4CDFBE4CCFAE4C8F922C0
:10228E00C2D5E830E70FB2D5E4C39BFBE49AFAE47B
:10229E0099F9E498F8EC30E717B2D51222C4120C73
:1022AE00D6E4C39BFBE49AFAE499F9E498F8800328
:1022BE00120CD630D50DE4C39FFFE49EFEE49DFDC7
:0422CE00E49CFC226E
:0E0D6800C3E49FFFE49EFEE49DFDE49CFC229C
:100D7600E8600FECC313FCED13FDEE13FEEF13FF5B
:030D8600D8F1227F
:100D8900E86010ECA2E713FCED13FDEE13FEEF1380
:040D9900FFD8F0226D
:100D9D00E493FC740193FD740293FE740393FF229C
:0C0DAD00ECF0A3EDF0A3EEF0A3EFF022B9
:0C0DB900A42582F582E5F03583F5832245
:060DC5008A838982E473B9
:101DF7000220C3E493A3F8E493A34003F68001F21F
:101E070008DFF48029E493A3F85407240CC8C333EC
:101E1700C4540F4420C8834004F456800146F6DFBB
:101E2700E4800B01020408102040809017CFE47E65
:101E3700019360BCA3FF543F30E509541FFEE493B0
:101E4700A360010ECF54C025E060A840B8E493A377
:101E5700FAE493A3F8E493A3C8C582C8CAC583CAA2
:101E6700F0A3C8C582C8CAC583CADFE9DEE780BE5A
:0118C0000027
:00000001FF
