:101D490000A8C0003F065B4F666D7D077F6F0008E6
:101D590040014148BF86DBCFE6EDFD87FFEF777F86
:101D6900393F79717D76061E383F736D3E6E5F7C13
:101D7900585E7B716F741038545C7367506D781CB2
:011D89006EEB
:0121140022A8
:0121150022A7
:101DCA00122102121FFB121FC1121F6412204E128F
:101DDA001FA4121FDE7F9B121EB81220167D07E475
:101DEA00FF1220C57BFF7A2179147F021219F87B32
:0F1DFA00FF7A2179157F041219F8121E4880FB19
:0920BC008B88898C88898F888942
:10137E0052007A86860086860086860086860086DD
:09138E00860086860041006F090B
:03002B000220F6BA
:0620F60053BCEFD20F32D3
:020F890015371A
:100F8B00200F03021132C20F90006EE0B409004033
:100F9B0003021114900FA6F8282873020FED020F0D
:100FAB00C1020FD3020FFF020FC1020FD3021016A3
:100FBB00020FC1020FD3AFBDEFFEADBE7C00E42D1F
:100FCB00FFEC3E900070803CAFBDEFFEADBE7C00F1
:100FDB00E42DFFEC3E900072F0A3EFF0751A0102C6
:100FEB00111AAFBDEFFEADBE7C00E42DFFEC3E90C1
:100FFB0000748010AFBDEFFEADBE7C00E42DFFECA6
:10100B003E900076F0A3EFF002111AAFBDEFFEADEC
:10101B00BE7C00E42DFFEC3E900078F0A3EFF09047
:10102B000078E0FEA3E07807CEC313CE13D8F9A85F
:10103B0037F6C394065013A837E675F003A4247A49
:10104B00F582E43400F583E014F090006FE014F0C7
:10105B00600302111A7409F0A837E4F6A837E6FF0B
:10106B00C39406400302111AEF75F003A4247AF51A
:10107B0082E43400F583E0C39480502AE6FF75F0D8
:10108B0003A4247BF582E43400F583E0D394804001
:10109B0040EF75F003A4247CF582E43400F58374EF
:1010AB0001F0F51B802BA837E6FF75F003A4247B1A
:1010BB00F582E43400F583E0C394805014EF75F0AF
:1010CB0003A4247CF582E43400F5837402F0751BD1
:1010DB0001A837E6FF75F003A4247AF582E4340007
:1010EB00F583E0FEEF75F003A4247BF582E4340076
:1010FB00F583EEF0E675F003A4247AF582E4340070
:10110B00F5837486F00602106790006E74FFF09002
:10111B00006EE0D39407400374FFF090006EE00480
:07112B00F09020BC93F5BC1D
:031132000537225C
:02205D00153735
:09205F00A837A61BE4F51BE6FFFF
:0320680005372217
:02206B00153727
:09206D00A837A61AE4F51AE6FFF3
:0320760005372209
:101EB8008F9D75BC88439720D2AD90004574FFF084
:101EC800A3740FF0A37489F0A374FFF0A37420F037
:101ED800A3745DF0A374FFF0A37420F0A3746BF0F7
:011EE80022D7
:0720E8007B017A00797022F0
:101C7900C3EF64809480403BD3EF648094855033F4
:101C8900EFFD3395E0FC90007C75F003ED120F77C2
:101C9900EC75F003A42583F583E0FE90007C75F0D4
:101CA90003ED120F77EC75F003A42583F583E4F0B7
:051CB900AF06227F03CD
:011CBE002203
:041F14001537153731
:101F18001220CEA837A60608A607A837E6FE08E6C8
:0F1F2800FF4E600BEF24FFFFEE34FFFE1220D7B9
:051F370005370537220B
:101F640053B1EF43B210122111E4F5D975DA49D215
:101F7400DE90003F74FFF0A3741FF0A37414F022EA
:081A75008E298F2A8C2B8D2C89
:101A7D001220CEEF4E7066AF2CAE2B1220D7C3E5E1
:101A8D002A940AE5299400404BE47B18FAF9F89062
:101A9D001D49120F5B120EB5C006C007AE29AF2A45
:101AAD00AB07AA06E4F9F8D007D006120EB5AB07BE
:101ABD00AA06AFF9EFFEADE97C00E42DFFEC3ECFB9
:101ACD002BCF3AAD07FCAF03AE0212202ED2D84376
:0F1ADD00DA01800612211153DAFE7F02227F0305
:011AEC0022D7
:0C20B0001220CEEF4E7002FF227F0122B2
:10156800E4F5809000BDE0FFB40800505F90157C62
:10157800F828287302159402159A0215A00215A6D8
:101588000215AC0215B60215C00215CAC2A3C2A242
:101598008016C2A3C2A2801AC2A3C2A2801EC2A37E
:1015A800C2A28022C2A3D2A2C2A1C2A08020C2A38A
:1015B800D2A2C2A1D2A08016C2A3D2A2D2A1C2A096
:1015C800800CC2A3D2A2D2A1D2A08002D2A3C3EF20
:1015D8006480948850299000BDE0FF3395E0FE7444
:1015E800B42FF58274003EF583E0FF3395E0FE7476
:1015F8004D2FF582741D3EF583E493F580801E908F
:1016080000BDE0FFB408133395E0FE74B42FF582F3
:1016180074003EF583E0F5808003E4F5809000B324
:10162800E0FF9000BDE004FEF0D3EF6480F8EE64C4
:1016380080984014E0D36480948850047408F022A1
:091648009000B2E09000BDF02218
:101FFB00E4F5937594FF5395F043960F90002A7474
:0B200B00FFF0A37415F0A37468F0222E
:0920C5009000B2EFF0A3EDF0224F
:101F84009000B4EFF0A3EDF0A3EBF0A3E526F0A3EB
:101F9400E527F0A3E528F0A3E529F0A3E52AF0223C
:0620FC009000BCEFF02291
:10139700011E004100CB004100C8054100C983413F
:0313A70000CA83F6
:101CBF002092069000C9E014F09000C8E014F07074
:101CCF00347405F0A3E0FFC39480500EA3E094801A
:101CDF004018A37401F0F51E80109000CAE0C39461
:101CEF00805007A37402F0751E019000CAEFF090A8
:051CFF0000C97483F030
:011D040022BC
:02207900153719
:09207B00A837A61EE4F51EE6FFDD
:03208400053722FB
:101FA40090003674FFF0A37420F0A37479F09000CD
:0D1FB4003374FFF0A3741CF0A374BFF0227F
:0720E0009000CBE0FFE4F0EB
:0120E70022D6
:1013AA00011F004900BF9494009494009494004152
:0313BA0000BE1E54
:02125B00153745
:10125D0020B2069000BFE014F020B3069000C2E06B
:10126D0014F02097069000C5E014F09000BEE01435
:10127D00F0600302137B741EF0A837E4F6A837E67E
:10128D00FFC364809483400302137BEF3395E0FE2C
:10129D009000BF75F003EF120F77EE75F003A425E4
:1012AD0083F583E0C3948050399000C075F003EF4F
:1012BD00120F77EE75F003A42583F583E0D39480A8
:1012CD00405AE6FF3395E0FE9000C175F003EF1232
:1012DD000F77EE75F003A42583F5837401F0F51FE8
:1012ED00803AA837E6FF3395E0FE9000C075F00315
:1012FD00EF120F77EE75F003A42583F583E0C39409
:10130D008050199000C175F003EF120F77EE75F054
:10131D0003A42583F5837402F0751F01A837E6FF3A
:10132D00FD3395E0FC9000BF75F003ED120F77ECE7
:10133D0075F003A42583F583E0FE9000C075F003DE
:10134D00ED120F77EC75F003A42583F583EEF0EF26
:10135D003395E0FE9000BF75F003EF120F77EE7539
:0E136D00F003A42583F5837494F00602128A1F
:03137B0005372211
:0220870015370B
:09208900A837A61FE4F51FE6FFCD
:03209200053722ED
:101FC10090003074FFF0A37420F0A37487F09000A8
:0D1FD1002D74FFF0A37412F0A3745BF022D6
:101D8A00EF600764016003BF0233EFFD3395E0FCA7
:101D9A009000C175F003ED120F77EC75F003A425DE
:101DAA0083F583E0FE9000C175F003ED120F77EC26
:0F1DBA0075F003A42583F583E4F0AF06227F03C1
:011DC90022F7
:1013BD0055008D000000000000000000000000003E
:0C13CD00000000000000000041008C0047
:020AF6001537B2
:100AF800A837E4F6A837E6FFC3648094834003026E
:100B08000D67EF3395E0FE90008D75F007EF120F3B
:100B180077EE75F007A42583F583E0FCA3E04C701D
:100B280003020D6190008F75F007EF120F77EE75D5
:100B3800F007A42583F583E0FEA3E04E7003020DC1
:100B480061E6FFFD3395E0FC90009175F007ED122A
:100B58000F77EC75F007A42583F58374FFF5F01281
:100B68000DFE45F06003020D6190008F75F007EDF2
:100B7800120F77EC75F007A42583F583E0FAA3E05C
:100B8800FB90009175F007ED120F77EC75F007A454
:100B98002583F583EAF0A3EBF0EF3395E0FE9000B0
:100BA8008D75F007EF120F77EE75F007A42583F522
:100BB80083E0FCA3E0D39400EC648094804056A8C2
:100BC80037E6FD3395E0FC90008D75F007ED120FC8
:100BD80077EC75F007A42583F58374FFF5F0120D03
:100BE800FE90009375F007ED120F77EC75F007A4EF
:100BF8002583F583E004F0D36480948340729000E9
:100C08009375F007EF120F77EE75F007A42583F5BB
:100C180083E4F0805BA837E6FFFD3395E0FC9000A5
:100C28008D75F007ED120F77EC75F007A42583F5A5
:100C380083E475F001120DFE90009375F007ED1234
:100C48000F77EC75F007A42583F583E014F0C364EF
:100C5800809480501BEF3395E0FE90009375F00769
:100C6800EF120F77EE75F007A42583F5837403F070
:100C7800A837E6FFFD3395E0FC90009375F007ED8B
:100C8800120F77EC75F007A42583F583E014603C18
:100C9800146066147003020D2E24036003020D59BC
:100CA800EF14601014601924026003020D59D2C1B8
:100CB800C2C2802990008CE054F04401F0020D5922
:100CC80090008CE0540F4410F0020D59A837E61438
:100CD800601114601924027078C2C1D2C2C2C3C2A2
:100CE800C4806E90008CE054F04402F08063900061
:100CF8008CE0540F4420F08058A837E61460111493
:100D080060192402704BC2C1C2C2D2C3C2C480419E
:100D180090008CE054F04404F0803690008CE0544D
:100D28000F4440F0802BA837E61460111460192492
:100D380002701EC2C1C2C2C2C3D2C4801490008C49
:100D4800E054F04408F0800990008CE0540F44808F
:0F0D5800F090008CE0FF1220FCA83706020AFC86
:030D67000537222B
:1020160053B3E143B41E53C0E190005474FFF0A3E0
:08202600740AF0A374F6F02225
:101651008F35EF3395E0FE90008D75F007EF120F97
:1016610077EE75F007A42583F583E0FEA3E04E60D5
:10167100030216F9E535600A64016006E535640286
:101681007076ED60737C007E037FE8120DA9AD35A5
:10169100ED3395E0FC90008F75F007ED120F77ECBC
:1016A10075F007A42583F583EEF0A3EFF090008F8A
:1016B10075F007ED120F77EC75F007A42583F5831C
:1016C100E0FEA3E0FF90009175F007ED120F77ECBB
:1016D10075F007A42583F583EEF0A3EFF090008D5C
:1016E10075F007ED120F77EC75F007A42583F583EC
:0B16F100EAF0A3EBF07F02227F03224F
:101BEA00EF600764016003BF023AEFFD3395E0FC42
:101BFA0090008D75F007ED120F77EC75F007A425AC
:101C0A0083F583E0FAA3E0FB90008D75F007ED12EF
:101C1A000F77EC75F007A42583F583E4F0A3F0AE03
:071C2A0002AF0322E4FEFFFC
:011C31002290
:101E8600EF600764016003BF0225EF3395E0FE9023
:101E9600008D75F007EF120F77EE75F007A4258316
:101EA600F583E0FEA3E04E60037F01227F00227FE0
:021EB600032205
:1013D9004100000A4100290A41006D0A040E00007B
:1013E90000000114004600670000FFFF8FFFC10DD8
:1013F900C105C108C101C10E60240005FF2116FF06
:101409002116FF2116FF2116FF2116FF2116FF21A4
:1014190016FF2116FF2116FF2116FF2116FF21169F
:101429006036002AFF2116FF2116FF210EFF211623
:10143900FF210EFF2116FF210EFF2116FF2116FFA6
:101449002116FF210EFF210EFF210EFF210EFF2184
:0A14590016FF2116FF2116FF2116D1
:0121160022A6
:03210E007F00222D
:101C3200438E805389F07BE07A2879017800901DE9
:101C420049120F5B121D05EFF404F58A7BE07A2836
:101C520079017800901D49120F5B121D05C3E49FA4
:101C6200FFE49EFE74019DFDE49CFC7808120F4780
:071C72008F8CD28CD2A92255
:03000B00021B983D
:041B9800C0E0C0D019
:101B9C00D5080A75084C300D020514D20DA203723B
:101BAC00045036150AE50A7030850C0AD207300A43
:101BBC0017E50D6007150D438F01801D538FFEC275
:101BCC00B5D51615C20A8011050BE50BD39406404A
:091BDC0008C203E5136002D20601
:051BE500D0D0D0E03279
:101B4500300E47C20E901D49120F5B7810120F47D9
:101B55008E1C8F1D900003E0FEA3E0FFE4FCFD7BDF
:101B650019FAF9F8120E2AC006C007AE1CAF1DAB54
:101B750007AA06E4F9F8D007D006121D0578031266
:101B85000F47900065EEF0A3EFF0900065E0FEA32F
:021B9500E0FF6F
:011B9700222B
:0920CE00900067E0FEA3E0FF2290
:0920D700900067EEF0A3EFF02287
:10202E0090006BEEF0A3EFF0900069ECF0A3EDF0F2
:01203E00227F
:03211100C2B42233
:03003B000217A603
:1017A600C0E0C083C082C0D075D000C004C005C0F0
:0317B60006C00763
:1017B90030DF04C2DF807D30DA04C2DA807630D9C6
:1017C9003DC2D9AFFBEFFEADEB7C00E42DFFEC3E53
:1017D90020000E900001F0A3EFF075DB11D200801C
:1017E90053FE900001E0FCA3E0FDC3EF9DFFEE9CDA
:1017F900A3F0A3EFF075DB00C200D20E803630D81B
:1018090033C2D8900067E07002A3E06022B2B490BE
:101819000069E0FEA3E0F5EAEEF5FAA3E0FEA3E035
:10182900FF90006AE02FF0900069E03EF08005C269
:04183900B453DAFECC
:10183D00D007D006D005D004D0D0D082D083D0E050
:01184D003268
:06210200121C32D2AF22D4
:10196D003004047F0180027F00200A047E01800282
:10197D007E00EE5F6074E515C39509506830023640
:10198D00750D01E515131313541FAB17AA18A919DB
:10199D00F582758300120D6AFFE515540704FEEFFD
:1019AD00A806088002C333D8FC30D705751603800E
:1019BD002F751601802AAB17AA18A91975F002E523
:1019CD0015A4F58285F083120D6AF50DE51575F0F8
:1019DD0002A429F9EA35F0FA900001120D6AF51604
:0A19ED000515D20A22C204438F1030
:0119F70022CD
:10147B00900000E014F0701F740AF0D20590002960
:10148B00E014F07012740AF0D20890006DE014F0C2
:10149B007005740AF0D20190002AA3E0FAA3E0F9D8
:1014AB00120F8390002DA3E0FAA3E0F9120F8390A3
:1014BB000039A3E0FAA3E0F9120F83900045A3E0F3
:1014CB00FAA3E0F9120F83900054A3E0FAA3E0F91A
:1014DB00120F8390005DA3E0FAA3E0F9120F839043
:1014EB00004BA3E0FAA3E0F9120F83EF600C90001E
:1014FB001DA3E0FAA3E0F9120F8390004EA3E0FACC
:10150B00A3E0F9120F83EF600E900020A3E0FAA383
:10151B00E0F9120F83D20BE512D394004016D512CB
:10152B003030090C900023A3E0FAA3E0F9120F83EB
:10153B00D20C801D900051A3E0FAA3E0F9120F83A7
:10154B00EF600E900023A3E0FAA3E0F9120F83D211
:0D155B000C900005A3E0FAA3E0F9020F8355
:10184E0090003FA3E0FAA3E0F9120F83900042A3A9
:10185E00E0FAA3E0F9120F83900033A3E0FAA3E0BD
:10186E00F9120F83900008A3E0FAA3E0F9120F8398
:10187E00900030A3E0FAA3E0F9120F83EF600C9012
:10188E000011A3E0FAA3E0F9120F83900036A3E053
:10189E00FAA3E0F9120F83EF600C900017A3E0FAA1
:1018AE00A3E0F9120F83900048A3E0FAA3E0F91227
:1018BE000F83EF600C90001AA3E0FAA3E0F9120F69
:1018CE008330060EC206900026A3E0FAA3E0F912BA
:0318DE000F832253
:101E090090000BA3E0FAA3E0F9120F8390003CA322
:101E1900E0FAA3E0F9120F83EF600C900014A3E03D
:101E2900FAA3E0F9120F83900057A3E0FAA3E0F9AF
:0F1E3900120F8390005AA3E0FAA3E0F9020F837F
:101EE900AF11AE10AD0FAC0E900060120F6B9000E9
:101EF90064E514F0E4F511F510F50FF50EF51490FD
:0B1F0900000EA3E0FAA3E0F9020F8332
:101E4800300705C20712196D300D05C20D12147B3B
:101E5800300505C20512184E300805C208121E09C1
:101E6800300105C201121EE9E5112401F511E4351E
:0E1E780010F510E4350FF50FE4350EF50E22CF
:1019F8008B238A248925EFB40C005070901A0BF8B9
:101A0800282873021A2F021A34021A39021A3E02BF
:101A18001A43021A48021A4D021A52021A57021A97
:101A28005C021A61021A66900005803590000880F1
:101A38003090000B802B90000E80269000118021A2
:101A4800900017801C900014801790001A80129044
:101A5800001D800D900020800890002380039000D6
:0D1A680026E523F0A3E524F0A3E525F022F8
:0720EF007B017A00796022F9
:071463000136004100CC003E
:0D20A30020A4097536019000CC7401F022D4
:022095001537FD
:09209700A837A636E4F536E6FF91
:0320A000053722DF
:101FDE0090003C74FFF0A37420F0A37495F0900071
:0D1FEE003974FFF0A37420F0A374A3F02257
:02203F00153753
:0A2041009000CCE0A837F6FFE4F0B1
:03204B0005372234
:1011350000C400DC00F701060126014A017201889E
:1011450001B801EE020B024B029302E40310037097
:1011550003DC04160497052605C800DC00F7011515
:101165000126014A0172019F01B801EE022A024BD4
:10117500029302E4033F037003DC0455049705263C
:1011850005C8067D00F701150137014A0172019F67
:1011950001D201EE022A026E029302E4033F03A488
:1011A50003DC045504DD057505C8067D0749010600
:1011B5000126014A015D018801B801EE020B024BCF
:1011C500029302BA0310037003DC04160497052684
:1011D5000575062006E007B80126014A0172018857
:1011E50001B801EE022A024B029302E403100370D8
:1011F50003DC04550497052605C8062006E007B854
:1012050008AA014A0172019F01B801EE022A026E85
:10121500029302E4033F037003DC045504DD052655
:1012250005C8067D06E007B808AA09B9015D018869
:1012350001B801D2020B024B029302BA03100370EC
:1012450003A40416049705260575062006E007493C
:06125500082D092D0A4DD1
:10146A004D00A5030000000000000000000000007D
:0616FC008F238D248B25D5
:101702001220B0EF60037F0122E525D3940040064A
:10171200E52594114028E525D394174006E5259444
:1017220021401BE525D394274006E5259431400E40
:10173200E525D394375007E523C394F950037F037B
:1017420022E525603DC4540F75F007A4FDACF0E519
:101752002375F015A42DFFE5F03CFEE52554077C2A
:10176200002FFFEC3EFEEF25E0FFEE33FE744B2F21
:10177200F58274E83EF583E493F527740193F52826
:101782008005E4F527F528AF267E007C017D7712DF
:101792000D97AD241C120DA9AD07AC06AF28AE27DC
:0317A200121A75A3
:0117A5002221
:04080000153715375C
:100804001220B0EF70047F0180027F009000A5E009
:10081400FEB402047D0180027D00ED5F6003020AE4
:10082400F1EEB4030AE49000A3F0A3F0020AF190FD
:1008340000A6E0FFB4F3047E0180027E00EFB4F171
:10084400047F0180027F00EF4E603E9000A8E0FE2E
:1008540075F06484FFEE75F00A8475F00A84ADF0D7
:10086400E075F00A84ABF075260A9000A7E024072F
:10087400F5279000A2E0FEC4540F240AF528752938
:100884000AEE5407F52A121F849000A6E0FFB4F381
:10089400047E0180027E00EFB4F2047F0180027FB7
:1008A40000EF4E700302094A9000A8E0FD7C007E30
:1008B400177F70120DA9A837A607E6F975F002A4F0
:1008C400FFC39000B1E09F9000B0E095F05070E05D
:1008D400FEA3E0FF7C007D0B120D97E9FBFD120DDA
:1008E400A9A83708A6079000B0E475F001120E1409
:1008F400FED3E5F09BEE94004018A83708E624F9EF
:10090400FFE47EF0A807088005CEC313CE13D8F900
:10091400801FA83708E6FF740F7E00A8070880052B
:10092400C333CE33CED8F97804CEA2E713CE13D88E
:10093400F8A83708F6A83708E6FF1220FC8007E479
:100944009000B0F0A3F09000ACE0FEA3E0FFC390F1
:1009540000AFE09F9000AEE09E4003020AEB12203D
:10096400B0EF6003020AF19000A9E0FBA3E0FAA350
:10097400E0F99000AEE0FEA3E0F5828E83120D6AEA
:10098400FFD394375003020A86EF241024FC5079D5
:10099400604524FE7003020A31147003020A4724DE
:1009A400026003020A759000A9E0FBA3E0FAA3E049
:1009B400F99000AEE475F001120DFE85F082F58326
:1009C400120D6A9000A7F09000AFE004F0709890C8
:1009D40000AEE004F080909000A9E0FBA3E0FAA34D
:1009E400E0F99000AEE475F001120DFE85F082F599
:1009F40083120D6A9000A8F09000AFE004F0706ECE
:100A04009000AEE004F002096B9000A9E0FBA3E0C3
:100A1400FAA3E0F99000AEE475F001120E1485F02B
:100A240082F583120D6A9000A6F002096B9000AE65
:100A3400E475F001120DFEAFF09000A3F0A3EFF007
:100A440002096B9000A3E0FEA3E0FF4E6012900049
:100A5400AEEEF0A3EFF0E49000A3F0A3F002096B74
:100A64009000AFE004F070069000AEE004F00209DC
:100A74006B9000AFE004F070069000AEE004F0026A
:100A8400096B9000ACE0FEA3E0FFC39000AFE09FD1
:100A94009000AEE09E50569000A9E0FBA3E0FAA3BC
:100AA400E0F99000AEE475F001120E1485F082F5C1
:100AB40083120D6A9000A2F09000A7E0FFA3E0FD6E
:100AC400A3E0FBA3E0FAA3E0F99000AEE475F00123
:100AD400120E1485F082F583120D6AF5269000A299
:0D0AE400E0FB1216FC80069000A57403F0E4
:050AF100053705372266
:0F204E0090004274FFF0A37408F0A37400F02216
:101AED009000A5E0B4030DE49000AEF0A3F0A3F0D8
:101AFD00A3F0C210EF60049000A8F0ED6004900018
:101B0D00A7F0E94A60047F0180027F00E53345328A
:101B1D0060047E0180027E00EE5F60139000A9EBF1
:101B2D00F0A3EAF0A3E9F0A3E532F0A3E533F0E585
:081B3D003460049000A6F022C0
:101F3C00BF02047E0180027E00BF01047D0180028D
:101F4C007D00ED4EFEBF03047D0180027D00ED4E51
:081F5C0060059000A5EFF022E2
:062108009000A5E0FF229B
:030000000218E102
:0C18E100787FE4F6D8FD758137021928E5
:100D6A00BB010CE58229F582E5833AF583E022503E
:100D7A0006E92582F8E622BBFE06E92582F8E22288
:0D0D8A00E58229F582E5833AF583E49322A2
:100D9700EF8DF0A4A8F0CF8CF0A428CE8DF0A42E70
:020DA700FE222A
:100DA900BC000BBE0029EF8DF084FFADF022E4CC2E
:100DB900F875F008EF2FFFEE33FEEC33FCEE9DECF7
:100DC900984005FCEE9DFE0FD5F0E9E4CEFD22ED3D
:100DD900F8F5F0EE8420D21CFEADF075F008EF2F87
:100DE900FFED33FD4007985006D5F0F222C398FD78
:050DF9000FD5F0EA2215
:100DFE00C5F0F8A3E028F0C5F0F8E5821582700280
:060E0E001583E038F0221C
:100E1400A3F8E0C5F025F0F0E58215827002158391
:060E2400E0C838F0E822EE
:100E2A00E88FF0A4CC8BF0A42CFCE98EF0A42CFC67
:100E3A008AF0EDA42CFCEA8EF0A4CDA8F08BF0A4E5
:100E4A002DCC3825F0FDE98FF0A42CCD35F0FCEB44
:100E5A008EF0A4FEA9F0EB8FF0A4CFC5F02ECD3909
:0F0E6A00FEE43CFCEAA42DCE35F0FDE43CFC2276
:100E790075F008758200EF2FFFEE33FECD33CDCC30
:100E890033CCC58233C5829BED9AEC99E5829840B3
:100E99000CF582EE9BFEED9AFDEC99FC0FD5F0D690
:100EA900E4CEFBE4CDFAE4CCF9A88222B800C1B9BA
:100EB9000059BA002DEC8BF084CFCECDFCE5F0CBF8
:100EC900F97818EF2FFFEE33FEED33FDEC33FCEB31
:100ED90033FB10D703994004EB99FB0FD8E5E4F9EC
:100EE900FA227818EF2FFFEE33FEED33FDEC33FCD9
:100EF900C933C910D7059BE99A4007EC9BFCE99ACD
:100F0900F90FD8E0E4C9FAE4CCFB2275F010EF2F11
:100F1900FFEE33FEED33FDCC33CCC833C810D70711
:100F29009BEC9AE899400AED9BFDEC9AFCE899F84C
:0E0F39000FD5F0DAE4CDFBE4CCFAE4C8F922DF
:101D0500C2D5E830E70FB2D5E4C39BFBE49AFAE409
:101D150099F9E498F8EC30E717B2D5121D3B120E8D
:101D2500B5E4C39BFBE49AFAE499F9E498F88003D7
:101D3500120EB530D50DE4C39FFFE49EFEE49DFD74
:041D4500E49CFC22FC
:100F4700E86010ECA2E713FCED13FDEE13FEEF13C0
:040F5700FFD8F022AD
:100F5B00E493FC740193FD740293FE740393FF22DC
:0C0F6B00ECF0A3EDF0A3EEF0A3EFF022F9
:0C0F7700A42582F582E5F03583F5832285
:060F83008A838982E473F9
:1018ED00021DCAE493A3F8E493A34003F68001F22A
:1018FD0008DFF48029E493A3F85407240CC8C333FC
:10190D00C4540F4420C8834004F456800146F6DFCA
:10191D00E4800B010204081020408090137EE47EC9
:10192D00019360BCA3FF543F30E509541FFEE493BF
:10193D00A360010ECF54C025E060A840B8E493A386
:10194D00FAE493A3F8E493A3C8C582C8CAC583CAB1
:10195D00F0A3C8C582C8CAC583CADFE9DEE780BE69
:01147A000071
:00000001FF
